{
  "transactions": [
    {
      "hash": "0x768009a15ccca79522e6f5f9ab61db46b5e2c5e2859c74cbedfd7ff5b8344ae6",
      "transactionType": "CALL",
      "contractName": null,
      "contractAddress": "0x3d2bD0e15829AA5C362a4144FdF4A1112fa29B5c",
      "function": "approve(address,uint256)",
      "arguments": [
        "0x303b63e785B656ca56ea5A5C1634Ab20C98895e1",
        "500000000000000000000000"
      ],
      "transaction": {
        "from": "0x21aF1185734D213D45C6236146fb81E2b0E8b821",
        "to": "0x3d2bD0e15829AA5C362a4144FdF4A1112fa29B5c",
        "gas": "0xf94b",
        "value": "0x0",
        "input": "0x095ea7b3000000000000000000000000303b63e785b656ca56ea5a5c1634ab20c98895e10000000000000000000000000000000000000000000069e10de76676d0800000",
        "nonce": "0x105",
        "chainId": "0x89"
      },
      "additionalContracts": [],
      "isFixedGasLimit": false
    },
    {
      "hash": "0x649473da0cefb32a1ba9696f98699d1b6c733e9cd3bc9a6c58d2cfd14f8f2506",
      "transactionType": "CALL",
      "contractName": null,
      "contractAddress": "0x303b63e785B656ca56ea5A5C1634Ab20C98895e1",
      "function": "send((uint32,bytes32,uint256,uint256,bytes,bytes,bytes),(uint256,uint256),address)",
      "arguments": [
        "(30184, 0x00000000000000000000000021af1185734d213d45c6236146fb81e2b0e8b821, 500000000000000000000000, 500000000000000000000000, 0x0003010011010000000000000000000000000007a120, 0x, 0x)",
        "(698535405735441954, 0)",
        "0x5b73C5498c1E3b4dbA84de0F1833c4a029d90519"
      ],
      "transaction": {
        "from": "0x21aF1185734D213D45C6236146fb81E2b0E8b821",
        "to": "0x303b63e785B656ca56ea5A5C1634Ab20C98895e1",
        "gas": "0x5d32d",
        "value": "0x9b1b24021e4f622",
        "input": "0xc7c7f5b3000000000000000000000000000000000000000000000000000000000000008000000000000000000000000000000000000000000000000009b1b24021e4f62200000000000000000000000000000000000000000000000000000000000000000000000000000000000000005b73c5498c1e3b4dba84de0f1833c4a029d9051900000000000000000000000000000000000000000000000000000000000075e800000000000000000000000021af1185734d213d45c6236146fb81e2b0e8b8210000000000000000000000000000000000000000000069e10de76676d08000000000000000000000000000000000000000000000000069e10de76676d080000000000000000000000000000000000000000000000000000000000000000000e00000000000000000000000000000000000000000000000000000000000000120000000000000000000000000000000000000000000000000000000000000014000000000000000000000000000000000000000000000000000000000000000160003010011010000000000000000000000000007a1200000000000000000000000000000000000000000000000000000000000000000000000000000000000000000000000000000000000000000000000000000000000000000000000000000",
        "nonce": "0x106",
        "chainId": "0x89"
      },
      "additionalContracts": [],
      "isFixedGasLimit": false
    },
    {
      "hash": "0xc6234009ccbff9ed3e5feebd7e2ef1cff490aa0b10a960a2cc3fa477b7c05e78",
      "transactionType": "CALL",
      "contractName": null,
      "contractAddress": "0x3d2bD0e15829AA5C362a4144FdF4A1112fa29B5c",
      "function": "approve(address,uint256)",
      "arguments": [
        "0x303b63e785B656ca56ea5A5C1634Ab20C98895e1",
        "500000000000000000000000"
      ],
      "transaction": {
        "from": "0x21aF1185734D213D45C6236146fb81E2b0E8b821",
        "to": "0x3d2bD0e15829AA5C362a4144FdF4A1112fa29B5c",
        "gas": "0xf94b",
        "value": "0x0",
        "input": "0x095ea7b3000000000000000000000000303b63e785b656ca56ea5a5c1634ab20c98895e10000000000000000000000000000000000000000000069e10de76676d0800000",
        "nonce": "0x107",
        "chainId": "0x89"
      },
      "additionalContracts": [],
      "isFixedGasLimit": false
    },
    {
      "hash": "0x27fc09cac6d1ce19133d93ae8e178a66cf6dc028ada36ca3271aae5d81a26bda",
      "transactionType": "CALL",
      "contractName": null,
      "contractAddress": "0x303b63e785B656ca56ea5A5C1634Ab20C98895e1",
      "function": "send((uint32,bytes32,uint256,uint256,bytes,bytes,bytes),(uint256,uint256),address)",
      "arguments": [
        "(30184, 0x00000000000000000000000021af1185734d213d45c6236146fb81e2b0e8b821, 500000000000000000000000, 500000000000000000000000, 0x0003010011010000000000000000000000000007a120, 0x, 0x)",
        "(698535405735441954, 0)",
        "0x5b73C5498c1E3b4dbA84de0F1833c4a029d90519"
      ],
      "transaction": {
        "from": "0x21aF1185734D213D45C6236146fb81E2b0E8b821",
        "to": "0x303b63e785B656ca56ea5A5C1634Ab20C98895e1",
        "gas": "0x5d32d",
        "value": "0x9b1b24021e4f622",
        "input": "0xc7c7f5b3000000000000000000000000000000000000000000000000000000000000008000000000000000000000000000000000000000000000000009b1b24021e4f62200000000000000000000000000000000000000000000000000000000000000000000000000000000000000005b73c5498c1e3b4dba84de0f1833c4a029d9051900000000000000000000000000000000000000000000000000000000000075e800000000000000000000000021af1185734d213d45c6236146fb81e2b0e8b8210000000000000000000000000000000000000000000069e10de76676d08000000000000000000000000000000000000000000000000069e10de76676d080000000000000000000000000000000000000000000000000000000000000000000e00000000000000000000000000000000000000000000000000000000000000120000000000000000000000000000000000000000000000000000000000000014000000000000000000000000000000000000000000000000000000000000000160003010011010000000000000000000000000007a1200000000000000000000000000000000000000000000000000000000000000000000000000000000000000000000000000000000000000000000000000000000000000000000000000000",
        "nonce": "0x108",
        "chainId": "0x89"
      },
      "additionalContracts": [],
      "isFixedGasLimit": false
    }
  ],
  "receipts": [
    {
      "status": "0x1",
      "cumulativeGasUsed": "0xe76db4",
      "logs": [
        {
          "address": "0x3d2bD0e15829AA5C362a4144FdF4A1112fa29B5c",
          "topics": [
            "0x8c5be1e5ebec7d5bd14f71427d1e84f3dd0314c0f7b2291e5b200ac8c7c3b925",
            "0x00000000000000000000000021af1185734d213d45c6236146fb81e2b0e8b821",
            "0x000000000000000000000000303b63e785b656ca56ea5a5c1634ab20c98895e1"
          ],
          "data": "0x0000000000000000000000000000000000000000000069e10de76676d0800000",
          "blockHash": "0xd8860c2cae46323cf0c739f19525bd550113c9155230fc0d59f5c4feb69db8ab",
          "blockNumber": "0x3dfdccc",
          "transactionHash": "0x768009a15ccca79522e6f5f9ab61db46b5e2c5e2859c74cbedfd7ff5b8344ae6",
          "transactionIndex": "0x4e",
          "logIndex": "0x172",
          "removed": false
        },
        {
          "address": "0x0000000000000000000000000000000000001010",
          "topics": [
            "0x4dfe1bbbcf077ddc3e01291eea2d5c70c2b422b415d95645b9adcfd678cb1d63",
            "0x0000000000000000000000000000000000000000000000000000000000001010",
            "0x00000000000000000000000021af1185734d213d45c6236146fb81e2b0e8b821",
            "0x0000000000000000000000009ead03f7136fc6b4bdb0780b00a1c14ae5a8b6d0"
          ],
          "data": "0x0000000000000000000000000000000000000000000000000004ef28b7fdf1fa000000000000000000000000000000000000000000000001445d18f1a6cb4755000000000000000000000000000000000000000000000445dad9f3b1e4f1d22a000000000000000000000000000000000000000000000001445829c8eecd555b000000000000000000000000000000000000000000000445dadee2da9cefc424",
          "blockHash": "0xd8860c2cae46323cf0c739f19525bd550113c9155230fc0d59f5c4feb69db8ab",
          "blockNumber": "0x3dfdccc",
          "transactionHash": "0x768009a15ccca79522e6f5f9ab61db46b5e2c5e2859c74cbedfd7ff5b8344ae6",
          "transactionIndex": "0x4e",
          "logIndex": "0x173",
          "removed": false
        }
      ],
      "logsBloom": "0x40000000000000000000000000080000000000000000000000000000000000000000000000001000000000000000000000008000000000000000000000200000000000042000000000000000000000800000000000000000000100000000000000000000000000000000000000000800000000000000000080004000000000000040000000040000000000000000000000000000000000000000000000000000220000000000000000000000000000000000000000000000000080080000004000000000000000000001000000000000000000000000000000120000000000000010000000000000000000000000000000000000000000000000000000100000",
      "type": "0x2",
      "transactionHash": "0x768009a15ccca79522e6f5f9ab61db46b5e2c5e2859c74cbedfd7ff5b8344ae6",
      "transactionIndex": "0x4e",
      "blockHash": "0xd8860c2cae46323cf0c739f19525bd550113c9155230fc0d59f5c4feb69db8ab",
      "blockNumber": "0x3dfdccc",
      "gasUsed": "0xb47d",
      "effectiveGasPrice": "0x99d99cdf4",
      "from": "0x21aF1185734D213D45C6236146fb81E2b0E8b821",
      "to": "0x3d2bD0e15829AA5C362a4144FdF4A1112fa29B5c",
      "contractAddress": null
    },
    {
      "status": "0x1",
      "cumulativeGasUsed": "0xeba54a",
      "logs": [
        {
          "address": "0x0000000000000000000000000000000000001010",
          "topics": [
            "0xe6497e3ee548a3372136af2fcb0696db31fc6cf20260707645068bd3fe97f3c4",
            "0x0000000000000000000000000000000000000000000000000000000000001010",
            "0x00000000000000000000000021af1185734d213d45c6236146fb81e2b0e8b821",
            "0x000000000000000000000000303b63e785b656ca56ea5a5c1634ab20c98895e1"
          ],
          "data": "0x00000000000000000000000000000000000000000000000009b1b24021e4f622000000000000000000000000000000000000000000000001441e4ed80f54d74d00000000000000000000000000000000000000000000000000000000000000000000000000000000000000000000000000000000000000013a6c9c97ed6fe12b00000000000000000000000000000000000000000000000009b1b24021e4f622",
          "blockHash": "0xd8860c2cae46323cf0c739f19525bd550113c9155230fc0d59f5c4feb69db8ab",
          "blockNumber": "0x3dfdccc",
          "transactionHash": "0x649473da0cefb32a1ba9696f98699d1b6c733e9cd3bc9a6c58d2cfd14f8f2506",
          "transactionIndex": "0x4f",
          "logIndex": "0x174",
          "removed": false
        },
        {
          "address": "0x3d2bD0e15829AA5C362a4144FdF4A1112fa29B5c",
          "topics": [
            "0xddf252ad1be2c89b69c2b068fc378daa952ba7f163c4a11628f55a4df523b3ef",
            "0x00000000000000000000000021af1185734d213d45c6236146fb81e2b0e8b821",
            "0x000000000000000000000000303b63e785b656ca56ea5a5c1634ab20c98895e1"
          ],
          "data": "0x0000000000000000000000000000000000000000000069e10de76676d0800000",
          "blockHash": "0xd8860c2cae46323cf0c739f19525bd550113c9155230fc0d59f5c4feb69db8ab",
          "blockNumber": "0x3dfdccc",
          "transactionHash": "0x649473da0cefb32a1ba9696f98699d1b6c733e9cd3bc9a6c58d2cfd14f8f2506",
          "transactionIndex": "0x4f",
          "logIndex": "0x175",
          "removed": false
        },
        {
          "address": "0x0000000000000000000000000000000000001010",
          "topics": [
            "0xe6497e3ee548a3372136af2fcb0696db31fc6cf20260707645068bd3fe97f3c4",
            "0x0000000000000000000000000000000000000000000000000000000000001010",
            "0x000000000000000000000000303b63e785b656ca56ea5a5c1634ab20c98895e1",
            "0x0000000000000000000000001a44076050125825900e736c501f859c50fe728c"
          ],
          "data": "0x00000000000000000000000000000000000000000000000009b1b24021e4f62200000000000000000000000000000000000000000000000009b1b24021e4f6220000000000000000000000000000000000000000000000000000000000000000000000000000000000000000000000000000000000000000000000000000000000000000000000000000000000000000000000000000000009b1b24021e4f622",
          "blockHash": "0xd8860c2cae46323cf0c739f19525bd550113c9155230fc0d59f5c4feb69db8ab",
          "blockNumber": "0x3dfdccc",
          "transactionHash": "0x649473da0cefb32a1ba9696f98699d1b6c733e9cd3bc9a6c58d2cfd14f8f2506",
          "transactionIndex": "0x4f",
          "logIndex": "0x176",
          "removed": false
        },
        {
          "address": "0x6c26c61a97006888ea9E4FA36584c7df57Cd9dA3",
          "topics": [
            "0x61ed099e74a97a1d7f8bb0952a88ca8b7b8ebd00c126ea04671f92a81213318a"
          ],
          "data": "0x000000000000000000000000cd3f213ad101472e1713c72b1697e727c803885b0000000000000000000000000000000000000000000000000600edcbacd8096f",
          "blockHash": "0xd8860c2cae46323cf0c739f19525bd550113c9155230fc0d59f5c4feb69db8ab",
          "blockNumber": "0x3dfdccc",
          "transactionHash": "0x649473da0cefb32a1ba9696f98699d1b6c733e9cd3bc9a6c58d2cfd14f8f2506",
          "transactionIndex": "0x4f",
          "logIndex": "0x177",
          "removed": false
        },
        {
          "address": "0x6c26c61a97006888ea9E4FA36584c7df57Cd9dA3",
          "topics": [
            "0x07ea52d82345d6e838192107d8fd7123d9c2ec8e916cd0aad13fd2b60db24644"
          ],
          "data": "0x000000000000000000000000000000000000000000000000000000000000006000000000000000000000000000000000000000000000000000000000000000c000000000000000000000000000000000000000000000000000000000000000e0000000000000000000000000000000000000000000000000000000000000000200000000000000000000000023de2fe932d9043291f870324b74f820e11dc81a000000000000000000000000d56e4eab23cb81f43168f9f45211eb027b9ac7cc0000000000000000000000000000000000000000000000000000000000000000000000000000000000000000000000000000000000000000000000000000000200000000000000000000000000000000000000000000000000b4f50df4d30ac300000000000000000000000000000000000000000000000002fbcf668039e1f0",
          "blockHash": "0xd8860c2cae46323cf0c739f19525bd550113c9155230fc0d59f5c4feb69db8ab",
          "blockNumber": "0x3dfdccc",
          "transactionHash": "0x649473da0cefb32a1ba9696f98699d1b6c733e9cd3bc9a6c58d2cfd14f8f2506",
          "transactionIndex": "0x4f",
          "logIndex": "0x178",
          "removed": false
        },
        {
          "address": "0x1a44076050125825900e736c501f859c50fE728c",
          "topics": [
            "0x1ab700d4ced0c005b164c0f789fd09fcbb0156d4c2041b8a3bfbcd961cd1567f"
          ],
          "data": "0x000000000000000000000000000000000000000000000000000000000000006000000000000000000000000000000000000000000000000000000000000001200000000000000000000000006c26c61a97006888ea9e4fa36584c7df57cd9da300000000000000000000000000000000000000000000000000000000000000990100000000000002070000759d000000000000000000000000303b63e785b656ca56ea5a5c1634ab20c98895e1000075e8000000000000000000000000474f4cb764df9da079d94052fed39625c147c12c45571502da04bde5b9a6c840dc6f603dd24ff3fa454f3804366f6ea8f24aa3ad00000000000000000000000021af1185734d213d45c6236146fb81e2b0e8b821000000746a52880000000000000000000000000000000000000000000000000000000000000000000000000000002a0003010011010000000000000000000000000001adb0010011010000000000000000000000000007a12000000000000000000000000000000000000000000000",
          "blockHash": "0xd8860c2cae46323cf0c739f19525bd550113c9155230fc0d59f5c4feb69db8ab",
          "blockNumber": "0x3dfdccc",
          "transactionHash": "0x649473da0cefb32a1ba9696f98699d1b6c733e9cd3bc9a6c58d2cfd14f8f2506",
          "transactionIndex": "0x4f",
          "logIndex": "0x179",
          "removed": false
        },
        {
          "address": "0x0000000000000000000000000000000000001010",
          "topics": [
            "0xe6497e3ee548a3372136af2fcb0696db31fc6cf20260707645068bd3fe97f3c4",
            "0x0000000000000000000000000000000000000000000000000000000000001010",
            "0x0000000000000000000000001a44076050125825900e736c501f859c50fe728c",
            "0x0000000000000000000000006c26c61a97006888ea9e4fa36584c7df57cd9da3"
          ],
          "data": "0x00000000000000000000000000000000000000000000000009b1b24021e4f62200000000000000000000000000000000000000000000000009b1b24021e4f6220000000000000000000000000000000000000000000010fe50e1d4761ab6150f00000000000000000000000000000000000000000000000000000000000000000000000000000000000000000000000000000000000010fe5a9386b63c9b0b31",
          "blockHash": "0xd8860c2cae46323cf0c739f19525bd550113c9155230fc0d59f5c4feb69db8ab",
          "blockNumber": "0x3dfdccc",
          "transactionHash": "0x649473da0cefb32a1ba9696f98699d1b6c733e9cd3bc9a6c58d2cfd14f8f2506",
          "transactionIndex": "0x4f",
          "logIndex": "0x17a",
          "removed": false
        },
        {
          "address": "0x303b63e785B656ca56ea5A5C1634Ab20C98895e1",
          "topics": [
            "0x85496b760a4b7f8d66384b9df21b381f5d1b1e79f229a47aaf4c232edc2fe59a",
            "0x45571502da04bde5b9a6c840dc6f603dd24ff3fa454f3804366f6ea8f24aa3ad",
            "0x00000000000000000000000021af1185734d213d45c6236146fb81e2b0e8b821"
          ],
          "data": "0x00000000000000000000000000000000000000000000000000000000000075e80000000000000000000000000000000000000000000069e10de76676d08000000000000000000000000000000000000000000000000069e10de76676d0800000",
          "blockHash": "0xd8860c2cae46323cf0c739f19525bd550113c9155230fc0d59f5c4feb69db8ab",
          "blockNumber": "0x3dfdccc",
          "transactionHash": "0x649473da0cefb32a1ba9696f98699d1b6c733e9cd3bc9a6c58d2cfd14f8f2506",
          "transactionIndex": "0x4f",
          "logIndex": "0x17b",
          "removed": false
        },
        {
          "address": "0x0000000000000000000000000000000000001010",
          "topics": [
            "0x4dfe1bbbcf077ddc3e01291eea2d5c70c2b422b415d95645b9adcfd678cb1d63",
            "0x0000000000000000000000000000000000000000000000000000000000001010",
            "0x00000000000000000000000021af1185734d213d45c6236146fb81e2b0e8b821",
            "0x0000000000000000000000009ead03f7136fc6b4bdb0780b00a1c14ae5a8b6d0"
          ],
          "data": "0x000000000000000000000000000000000000000000000000001d838d8a4dad2c0000000000000000000000000000000000000000000000014456516f8de22731000000000000000000000000000000000000000000000445dadee2da9cefc4240000000000000000000000000000000000000000000000014438cde203947a05000000000000000000000000000000000000000000000445dafc6668273d7150",
          "blockHash": "0xd8860c2cae46323cf0c739f19525bd550113c9155230fc0d59f5c4feb69db8ab",
          "blockNumber": "0x3dfdccc",
          "transactionHash": "0x649473da0cefb32a1ba9696f98699d1b6c733e9cd3bc9a6c58d2cfd14f8f2506",
          "transactionIndex": "0x4f",
          "logIndex": "0x17c",
          "removed": false
        }
      ],
      "logsBloom": "0x400000000000000000000480000800000000000000000200000000040010000000000040000010000000001000020000000080000000000000000000000000000000820420100000004000080000008000000000000000000001000000000000000000000004000080000000000008800000000000100000802040100000000000400000000400000000000800000000000000000000000000000100000000002000000080000000001000000000000000000000004000000004c00800000040000000020000000000010000800000000000000000008010001a8000000000000000040000000000000000000000002000000000018000000000000000100000",
      "type": "0x2",
      "transactionHash": "0x649473da0cefb32a1ba9696f98699d1b6c733e9cd3bc9a6c58d2cfd14f8f2506",
      "transactionIndex": "0x4f",
      "blockHash": "0xd8860c2cae46323cf0c739f19525bd550113c9155230fc0d59f5c4feb69db8ab",
      "blockNumber": "0x3dfdccc",
      "gasUsed": "0x43796",
      "effectiveGasPrice": "0x99d99cdf4",
      "from": "0x21aF1185734D213D45C6236146fb81E2b0E8b821",
      "to": "0x303b63e785B656ca56ea5A5C1634Ab20C98895e1",
      "contractAddress": null
    },
    {
      "status": "0x1",
      "cumulativeGasUsed": "0xec59c7",
      "logs": [
        {
          "address": "0x3d2bD0e15829AA5C362a4144FdF4A1112fa29B5c",
          "topics": [
            "0x8c5be1e5ebec7d5bd14f71427d1e84f3dd0314c0f7b2291e5b200ac8c7c3b925",
            "0x00000000000000000000000021af1185734d213d45c6236146fb81e2b0e8b821",
            "0x000000000000000000000000303b63e785b656ca56ea5a5c1634ab20c98895e1"
          ],
          "data": "0x0000000000000000000000000000000000000000000069e10de76676d0800000",
          "blockHash": "0xd8860c2cae46323cf0c739f19525bd550113c9155230fc0d59f5c4feb69db8ab",
          "blockNumber": "0x3dfdccc",
          "transactionHash": "0xc6234009ccbff9ed3e5feebd7e2ef1cff490aa0b10a960a2cc3fa477b7c05e78",
          "transactionIndex": "0x50",
          "logIndex": "0x17d",
          "removed": false
        },
        {
          "address": "0x0000000000000000000000000000000000001010",
          "topics": [
            "0x4dfe1bbbcf077ddc3e01291eea2d5c70c2b422b415d95645b9adcfd678cb1d63",
            "0x0000000000000000000000000000000000000000000000000000000000001010",
            "0x00000000000000000000000021af1185734d213d45c6236146fb81e2b0e8b821",
            "0x0000000000000000000000009ead03f7136fc6b4bdb0780b00a1c14ae5a8b6d0"
          ],
          "data": "0x0000000000000000000000000000000000000000000000000004ef28b7fdf1fa0000000000000000000000000000000000000000000000013a7c1249d0cf1817000000000000000000000000000000000000000000000445dafc6668273d71500000000000000000000000000000000000000000000000013a77232118d1261d000000000000000000000000000000000000000000000445db015590df3b634a",
          "blockHash": "0xd8860c2cae46323cf0c739f19525bd550113c9155230fc0d59f5c4feb69db8ab",
          "blockNumber": "0x3dfdccc",
          "transactionHash": "0xc6234009ccbff9ed3e5feebd7e2ef1cff490aa0b10a960a2cc3fa477b7c05e78",
          "transactionIndex": "0x50",
          "logIndex": "0x17e",
          "removed": false
        }
      ],
      "logsBloom": "0x40000000000000000000000000080000000000000000000000000000000000000000000000001000000000000000000000008000000000000000000000200000000000042000000000000000000000800000000000000000000100000000000000000000000000000000000000000800000000000000000080004000000000000040000000040000000000000000000000000000000000000000000000000000220000000000000000000000000000000000000000000000000080080000004000000000000000000001000000000000000000000000000000120000000000000010000000000000000000000000000000000000000000000000000000100000",
      "type": "0x2",
      "transactionHash": "0xc6234009ccbff9ed3e5feebd7e2ef1cff490aa0b10a960a2cc3fa477b7c05e78",
      "transactionIndex": "0x50",
      "blockHash": "0xd8860c2cae46323cf0c739f19525bd550113c9155230fc0d59f5c4feb69db8ab",
      "blockNumber": "0x3dfdccc",
      "gasUsed": "0xb47d",
      "effectiveGasPrice": "0x99d99cdf4",
      "from": "0x21aF1185734D213D45C6236146fb81E2b0E8b821",
      "to": "0x3d2bD0e15829AA5C362a4144FdF4A1112fa29B5c",
      "contractAddress": null
    },
    {
      "status": "0x1",
      "cumulativeGasUsed": "0x63a6cf",
      "logs": [
        {
          "address": "0x0000000000000000000000000000000000001010",
          "topics": [
            "0xe6497e3ee548a3372136af2fcb0696db31fc6cf20260707645068bd3fe97f3c4",
            "0x0000000000000000000000000000000000000000000000000000000000001010",
            "0x00000000000000000000000021af1185734d213d45c6236146fb81e2b0e8b821",
            "0x000000000000000000000000303b63e785b656ca56ea5a5c1634ab20c98895e1"
          ],
          "data": "0x00000000000000000000000000000000000000000000000009b1b24021e4f6220000000000000000000000000000000000000000000000013a3d1777111a18e60000000000000000000000000000000000000000000000000000000000000000000000000000000000000000000000000000000000000001308b6536ef3522c400000000000000000000000000000000000000000000000009b1b24021e4f622",
          "blockHash": "0xe38667339278d3e9cefcb4568537e08e4076963d00d0ddaec6166711b117776e",
          "blockNumber": "0x3dfdccd",
          "transactionHash": "0x27fc09cac6d1ce19133d93ae8e178a66cf6dc028ada36ca3271aae5d81a26bda",
          "transactionIndex": "0x34",
          "logIndex": "0xf4",
          "removed": false
        },
        {
          "address": "0x3d2bD0e15829AA5C362a4144FdF4A1112fa29B5c",
          "topics": [
            "0xddf252ad1be2c89b69c2b068fc378daa952ba7f163c4a11628f55a4df523b3ef",
            "0x00000000000000000000000021af1185734d213d45c6236146fb81e2b0e8b821",
            "0x000000000000000000000000303b63e785b656ca56ea5a5c1634ab20c98895e1"
          ],
          "data": "0x0000000000000000000000000000000000000000000069e10de76676d0800000",
          "blockHash": "0xe38667339278d3e9cefcb4568537e08e4076963d00d0ddaec6166711b117776e",
          "blockNumber": "0x3dfdccd",
          "transactionHash": "0x27fc09cac6d1ce19133d93ae8e178a66cf6dc028ada36ca3271aae5d81a26bda",
          "transactionIndex": "0x34",
          "logIndex": "0xf5",
          "removed": false
        },
        {
          "address": "0x0000000000000000000000000000000000001010",
          "topics": [
            "0xe6497e3ee548a3372136af2fcb0696db31fc6cf20260707645068bd3fe97f3c4",
            "0x0000000000000000000000000000000000000000000000000000000000001010",
            "0x000000000000000000000000303b63e785b656ca56ea5a5c1634ab20c98895e1",
            "0x0000000000000000000000001a44076050125825900e736c501f859c50fe728c"
          ],
          "data": "0x00000000000000000000000000000000000000000000000009b1b24021e4f62200000000000000000000000000000000000000000000000009b1b24021e4f6220000000000000000000000000000000000000000000000000000000000000000000000000000000000000000000000000000000000000000000000000000000000000000000000000000000000000000000000000000000009b1b24021e4f622",
          "blockHash": "0xe38667339278d3e9cefcb4568537e08e4076963d00d0ddaec6166711b117776e",
          "blockNumber": "0x3dfdccd",
          "transactionHash": "0x27fc09cac6d1ce19133d93ae8e178a66cf6dc028ada36ca3271aae5d81a26bda",
          "transactionIndex": "0x34",
          "logIndex": "0xf6",
          "removed": false
        },
        {
          "address": "0x6c26c61a97006888ea9E4FA36584c7df57Cd9dA3",
          "topics": [
            "0x61ed099e74a97a1d7f8bb0952a88ca8b7b8ebd00c126ea04671f92a81213318a"
          ],
          "data": "0x000000000000000000000000cd3f213ad101472e1713c72b1697e727c803885b0000000000000000000000000000000000000000000000000600edcbacd8096f",
          "blockHash": "0xe38667339278d3e9cefcb4568537e08e4076963d00d0ddaec6166711b117776e",
          "blockNumber": "0x3dfdccd",
          "transactionHash": "0x27fc09cac6d1ce19133d93ae8e178a66cf6dc028ada36ca3271aae5d81a26bda",
          "transactionIndex": "0x34",
          "logIndex": "0xf7",
          "removed": false
        },
        {
          "address": "0x6c26c61a97006888ea9E4FA36584c7df57Cd9dA3",
          "topics": [
            "0x07ea52d82345d6e838192107d8fd7123d9c2ec8e916cd0aad13fd2b60db24644"
          ],
          "data": "0x000000000000000000000000000000000000000000000000000000000000006000000000000000000000000000000000000000000000000000000000000000c000000000000000000000000000000000000000000000000000000000000000e0000000000000000000000000000000000000000000000000000000000000000200000000000000000000000023de2fe932d9043291f870324b74f820e11dc81a000000000000000000000000d56e4eab23cb81f43168f9f45211eb027b9ac7cc0000000000000000000000000000000000000000000000000000000000000000000000000000000000000000000000000000000000000000000000000000000200000000000000000000000000000000000000000000000000b4f50df4d30ac300000000000000000000000000000000000000000000000002fbcf668039e1f0",
          "blockHash": "0xe38667339278d3e9cefcb4568537e08e4076963d00d0ddaec6166711b117776e",
          "blockNumber": "0x3dfdccd",
          "transactionHash": "0x27fc09cac6d1ce19133d93ae8e178a66cf6dc028ada36ca3271aae5d81a26bda",
          "transactionIndex": "0x34",
          "logIndex": "0xf8",
          "removed": false
        },
        {
          "address": "0x1a44076050125825900e736c501f859c50fE728c",
          "topics": [
            "0x1ab700d4ced0c005b164c0f789fd09fcbb0156d4c2041b8a3bfbcd961cd1567f"
          ],
          "data": "0x000000000000000000000000000000000000000000000000000000000000006000000000000000000000000000000000000000000000000000000000000001200000000000000000000000006c26c61a97006888ea9e4fa36584c7df57cd9da300000000000000000000000000000000000000000000000000000000000000990100000000000002080000759d000000000000000000000000303b63e785b656ca56ea5a5c1634ab20c98895e1000075e8000000000000000000000000474f4cb764df9da079d94052fed39625c147c12c981a791203c4616726e3fddcfa1149c4a46e6c8c5feb3e96ae057f615d7d565600000000000000000000000021af1185734d213d45c6236146fb81e2b0e8b821000000746a52880000000000000000000000000000000000000000000000000000000000000000000000000000002a0003010011010000000000000000000000000001adb0010011010000000000000000000000000007a12000000000000000000000000000000000000000000000",
          "blockHash": "0xe38667339278d3e9cefcb4568537e08e4076963d00d0ddaec6166711b117776e",
          "blockNumber": "0x3dfdccd",
          "transactionHash": "0x27fc09cac6d1ce19133d93ae8e178a66cf6dc028ada36ca3271aae5d81a26bda",
          "transactionIndex": "0x34",
          "logIndex": "0xf9",
          "removed": false
        },
        {
          "address": "0x0000000000000000000000000000000000001010",
          "topics": [
            "0xe6497e3ee548a3372136af2fcb0696db31fc6cf20260707645068bd3fe97f3c4",
            "0x0000000000000000000000000000000000000000000000000000000000001010",
            "0x0000000000000000000000001a44076050125825900e736c501f859c50fe728c",
            "0x0000000000000000000000006c26c61a97006888ea9e4fa36584c7df57cd9da3"
          ],
          "data": "0x00000000000000000000000000000000000000000000000009b1b24021e4f62200000000000000000000000000000000000000000000000009b1b24021e4f6220000000000000000000000000000000000000000000010fe5a9386b63c9b0b3100000000000000000000000000000000000000000000000000000000000000000000000000000000000000000000000000000000000010fe644538f65e800153",
          "blockHash": "0xe38667339278d3e9cefcb4568537e08e4076963d00d0ddaec6166711b117776e",
          "blockNumber": "0x3dfdccd",
          "transactionHash": "0x27fc09cac6d1ce19133d93ae8e178a66cf6dc028ada36ca3271aae5d81a26bda",
          "transactionIndex": "0x34",
          "logIndex": "0xfa",
          "removed": false
        },
        {
          "address": "0x303b63e785B656ca56ea5A5C1634Ab20C98895e1",
          "topics": [
            "0x85496b760a4b7f8d66384b9df21b381f5d1b1e79f229a47aaf4c232edc2fe59a",
            "0x981a791203c4616726e3fddcfa1149c4a46e6c8c5feb3e96ae057f615d7d5656",
            "0x00000000000000000000000021af1185734d213d45c6236146fb81e2b0e8b821"
          ],
          "data": "0x00000000000000000000000000000000000000000000000000000000000075e80000000000000000000000000000000000000000000069e10de76676d08000000000000000000000000000000000000000000000000069e10de76676d0800000",
          "blockHash": "0xe38667339278d3e9cefcb4568537e08e4076963d00d0ddaec6166711b117776e",
          "blockNumber": "0x3dfdccd",
          "transactionHash": "0x27fc09cac6d1ce19133d93ae8e178a66cf6dc028ada36ca3271aae5d81a26bda",
          "transactionIndex": "0x34",
          "logIndex": "0xfb",
          "removed": false
        },
        {
          "address": "0x0000000000000000000000000000000000001010",
          "topics": [
            "0x4dfe1bbbcf077ddc3e01291eea2d5c70c2b422b415d95645b9adcfd678cb1d63",
            "0x0000000000000000000000000000000000000000000000000000000000001010",
            "0x00000000000000000000000021af1185734d213d45c6236146fb81e2b0e8b821",
            "0x0000000000000000000000009ead03f7136fc6b4bdb0780b00a1c14ae5a8b6d0"
          ],
          "data": "0x000000000000000000000000000000000000000000000000001d838d8a4dad2c0000000000000000000000000000000000000000000000013a754ac7b7e5f7f3000000000000000000000000000000000000000000000445e40811d150871ae90000000000000000000000000000000000000000000000013a57c73a2d984ac7000000000000000000000000000000000000000000000445e425955edad4c815",
          "blockHash": "0xe38667339278d3e9cefcb4568537e08e4076963d00d0ddaec6166711b117776e",
          "blockNumber": "0x3dfdccd",
          "transactionHash": "0x27fc09cac6d1ce19133d93ae8e178a66cf6dc028ada36ca3271aae5d81a26bda",
          "transactionIndex": "0x34",
          "logIndex": "0xfc",
          "removed": false
        }
      ],
      "logsBloom": "0x400000000000000000000480000800000000000000000000000000040010000000000040000010000000001000020000000080000000000000000000000000000000820420100000004000080000008000000000000000000001000800000000000000000000000080000002000008000000000000100000802040100000000000400000000400000000000800000000000000000000000000000100000000002000000080000000001000000000000000000000004000000004c00800000040000000020000000000010000800000000000000000008010001a8000000000000000040000000000000000000000102000000000018000000000000000100000",
      "type": "0x2",
      "transactionHash": "0x27fc09cac6d1ce19133d93ae8e178a66cf6dc028ada36ca3271aae5d81a26bda",
      "transactionIndex": "0x34",
      "blockHash": "0xe38667339278d3e9cefcb4568537e08e4076963d00d0ddaec6166711b117776e",
      "blockNumber": "0x3dfdccd",
      "gasUsed": "0x43796",
      "effectiveGasPrice": "0x9a5f72761",
      "from": "0x21aF1185734D213D45C6236146fb81E2b0E8b821",
      "to": "0x303b63e785B656ca56ea5A5C1634Ab20C98895e1",
      "contractAddress": null
    }
  ],
  "libraries": [],
  "pending": [],
  "returns": {},
  "timestamp": 1733163657,
  "chain": 137,
  "commit": "9bc9372"
}