{
  "transactions": [
    {
      "hash": "0x5d2f2d5b39ea014074e7f5dbe780ca61d1620c361f969a6519f3c041ca0a70c8",
      "transactionType": "CALL",
      "contractName": null,
      "contractAddress": "0x3d2bD0e15829AA5C362a4144FdF4A1112fa29B5c",
      "function": "approve(address,uint256)",
      "arguments": [
        "0x303b63e785B656ca56ea5A5C1634Ab20C98895e1",
        "500000000000000000000000"
      ],
      "transaction": {
        "from": "0x21aF1185734D213D45C6236146fb81E2b0E8b821",
        "to": "0x3d2bD0e15829AA5C362a4144FdF4A1112fa29B5c",
        "gas": "0xf94b",
        "value": "0x0",
        "input": "0x095ea7b3000000000000000000000000303b63e785b656ca56ea5a5c1634ab20c98895e10000000000000000000000000000000000000000000069e10de76676d0800000",
        "nonce": "0x10f",
        "chainId": "0x89"
      },
      "additionalContracts": [],
      "isFixedGasLimit": false
    },
    {
      "hash": "0x6270e70d6a152e71f30a0957986accee01c59a725fb7859c1339cf6b77599b7a",
      "transactionType": "CALL",
      "contractName": "BonsaiOFTAdapter",
      "contractAddress": "0x303b63e785B656ca56ea5A5C1634Ab20C98895e1",
      "function": "send((uint32,bytes32,uint256,uint256,bytes,bytes,bytes),(uint256,uint256),address)",
      "arguments": [
        "(30184, 0x00000000000000000000000021af1185734d213d45c6236146fb81e2b0e8b821, 500000000000000000000000, 500000000000000000000000, 0x0003010011010000000000000000000000000007a120, 0x, 0x)",
        "(421392305473242169, 0)",
        "0x5b73C5498c1E3b4dbA84de0F1833c4a029d90519"
      ],
      "transaction": {
        "from": "0x21aF1185734D213D45C6236146fb81E2b0E8b821",
        "to": "0x303b63e785B656ca56ea5A5C1634Ab20C98895e1",
        "gas": "0x5d32d",
        "value": "0x5d91611b6d0c439",
        "input": "0xc7c7f5b3000000000000000000000000000000000000000000000000000000000000008000000000000000000000000000000000000000000000000005d91611b6d0c43900000000000000000000000000000000000000000000000000000000000000000000000000000000000000005b73c5498c1e3b4dba84de0f1833c4a029d9051900000000000000000000000000000000000000000000000000000000000075e800000000000000000000000021af1185734d213d45c6236146fb81e2b0e8b8210000000000000000000000000000000000000000000069e10de76676d08000000000000000000000000000000000000000000000000069e10de76676d080000000000000000000000000000000000000000000000000000000000000000000e00000000000000000000000000000000000000000000000000000000000000120000000000000000000000000000000000000000000000000000000000000014000000000000000000000000000000000000000000000000000000000000000160003010011010000000000000000000000000007a1200000000000000000000000000000000000000000000000000000000000000000000000000000000000000000000000000000000000000000000000000000000000000000000000000000",
        "nonce": "0x110",
        "chainId": "0x89"
      },
      "additionalContracts": [],
      "isFixedGasLimit": false
    }
  ],
  "receipts": [
    {
      "status": "0x1",
      "cumulativeGasUsed": "0xa177e2",
      "logs": [
        {
          "address": "0x3d2bD0e15829AA5C362a4144FdF4A1112fa29B5c",
          "topics": [
            "0x8c5be1e5ebec7d5bd14f71427d1e84f3dd0314c0f7b2291e5b200ac8c7c3b925",
            "0x00000000000000000000000021af1185734d213d45c6236146fb81e2b0e8b821",
            "0x000000000000000000000000303b63e785b656ca56ea5a5c1634ab20c98895e1"
          ],
          "data": "0x0000000000000000000000000000000000000000000069e10de76676d0800000",
          "blockHash": "0x3cfcd6db9ee95728bd01b14d8928f8967e7b241a6112d1f56e4ee3f368a5b240",
          "blockNumber": "0x3e866e9",
          "transactionHash": "0x5d2f2d5b39ea014074e7f5dbe780ca61d1620c361f969a6519f3c041ca0a70c8",
          "transactionIndex": "0x37",
          "logIndex": "0x177",
          "removed": false
        },
        {
          "address": "0x0000000000000000000000000000000000001010",
          "topics": [
            "0x4dfe1bbbcf077ddc3e01291eea2d5c70c2b422b415d95645b9adcfd678cb1d63",
            "0x0000000000000000000000000000000000000000000000000000000000001010",
            "0x00000000000000000000000021af1185734d213d45c6236146fb81e2b0e8b821",
            "0x0000000000000000000000001b0840519a581f3779d0a10b77593d6d3894a76a"
          ],
          "data": "0x0000000000000000000000000000000000000000000000000004f9e1ec1eabff000000000000000000000000000000000000000000000000ab99d0d208bcc69a000000000000000000000000000000000000000000006188f6db5ab3a5d33e0b000000000000000000000000000000000000000000000000ab94d6f01c9e1a9b000000000000000000000000000000000000000000006188f6e0549591f1ea0a",
          "blockHash": "0x3cfcd6db9ee95728bd01b14d8928f8967e7b241a6112d1f56e4ee3f368a5b240",
          "blockNumber": "0x3e866e9",
          "transactionHash": "0x5d2f2d5b39ea014074e7f5dbe780ca61d1620c361f969a6519f3c041ca0a70c8",
          "transactionIndex": "0x37",
          "logIndex": "0x178",
          "removed": false
        }
      ],
      "logsBloom": "0x400000000000000000000000000a0000000000000000000000000000000000000000000000001000000000000000000000008000000000000000000000200000000000042000000000000000000000800000000000000000000100000000000000000000000000000000000000000800000000000000000080004000000000000000000000008000000000000000000000000000000000000000000000000000220000000000000000000000000000000000000000000000000080080000004000000000000000000001000000000000000000000000000000100000000000000010000000000000000000100000000000000000000000000000000000100000",
      "type": "0x2",
      "transactionHash": "0x5d2f2d5b39ea014074e7f5dbe780ca61d1620c361f969a6519f3c041ca0a70c8",
      "transactionIndex": "0x37",
      "blockHash": "0x3cfcd6db9ee95728bd01b14d8928f8967e7b241a6112d1f56e4ee3f368a5b240",
      "blockNumber": "0x3e866e9",
      "gasUsed": "0xb47d",
      "effectiveGasPrice": "0x71d389d30",
      "from": "0x21aF1185734D213D45C6236146fb81E2b0E8b821",
      "to": "0x3d2bD0e15829AA5C362a4144FdF4A1112fa29B5c",
      "contractAddress": null
    },
    {
      "status": "0x1",
      "cumulativeGasUsed": "0x804b0f",
      "logs": [
        {
          "address": "0x0000000000000000000000000000000000001010",
          "topics": [
            "0xe6497e3ee548a3372136af2fcb0696db31fc6cf20260707645068bd3fe97f3c4",
            "0x0000000000000000000000000000000000000000000000000000000000001010",
            "0x00000000000000000000000021af1185734d213d45c6236146fb81e2b0e8b821",
            "0x000000000000000000000000303b63e785b656ca56ea5a5c1634ab20c98895e1"
          ],
          "data": "0x00000000000000000000000000000000000000000000000005d91611b6d0c439000000000000000000000000000000000000000000000000ab6b5cdeb62d8c5e0000000000000000000000000000000000000000000000000000000000000000000000000000000000000000000000000000000000000000a59246ccff5cc82500000000000000000000000000000000000000000000000005d91611b6d0c439",
          "blockHash": "0xde62ed715f3c21229bbc82052e577e5d54e1af9c0a37bcfdfc243d9f01855bc2",
          "blockNumber": "0x3e866ea",
          "transactionHash": "0x6270e70d6a152e71f30a0957986accee01c59a725fb7859c1339cf6b77599b7a",
          "transactionIndex": "0x3d",
          "logIndex": "0xdb",
          "removed": false
        },
        {
          "address": "0x3d2bD0e15829AA5C362a4144FdF4A1112fa29B5c",
          "topics": [
            "0xddf252ad1be2c89b69c2b068fc378daa952ba7f163c4a11628f55a4df523b3ef",
            "0x00000000000000000000000021af1185734d213d45c6236146fb81e2b0e8b821",
            "0x000000000000000000000000303b63e785b656ca56ea5a5c1634ab20c98895e1"
          ],
          "data": "0x0000000000000000000000000000000000000000000069e10de76676d0800000",
          "blockHash": "0xde62ed715f3c21229bbc82052e577e5d54e1af9c0a37bcfdfc243d9f01855bc2",
          "blockNumber": "0x3e866ea",
          "transactionHash": "0x6270e70d6a152e71f30a0957986accee01c59a725fb7859c1339cf6b77599b7a",
          "transactionIndex": "0x3d",
          "logIndex": "0xdc",
          "removed": false
        },
        {
          "address": "0x0000000000000000000000000000000000001010",
          "topics": [
            "0xe6497e3ee548a3372136af2fcb0696db31fc6cf20260707645068bd3fe97f3c4",
            "0x0000000000000000000000000000000000000000000000000000000000001010",
            "0x000000000000000000000000303b63e785b656ca56ea5a5c1634ab20c98895e1",
            "0x0000000000000000000000001a44076050125825900e736c501f859c50fe728c"
          ],
          "data": "0x00000000000000000000000000000000000000000000000005d91611b6d0c43900000000000000000000000000000000000000000000000005d91611b6d0c4390000000000000000000000000000000000000000000000000000000000000000000000000000000000000000000000000000000000000000000000000000000000000000000000000000000000000000000000000000000005d91611b6d0c439",
          "blockHash": "0xde62ed715f3c21229bbc82052e577e5d54e1af9c0a37bcfdfc243d9f01855bc2",
          "blockNumber": "0x3e866ea",
          "transactionHash": "0x6270e70d6a152e71f30a0957986accee01c59a725fb7859c1339cf6b77599b7a",
          "transactionIndex": "0x3d",
          "logIndex": "0xdd",
          "removed": false
        },
        {
          "address": "0x6c26c61a97006888ea9E4FA36584c7df57Cd9dA3",
          "topics": [
            "0x61ed099e74a97a1d7f8bb0952a88ca8b7b8ebd00c126ea04671f92a81213318a"
          ],
          "data": "0x000000000000000000000000cd3f213ad101472e1713c72b1697e727c803885b000000000000000000000000000000000000000000000000031a4a0bf0eb7f6b",
          "blockHash": "0xde62ed715f3c21229bbc82052e577e5d54e1af9c0a37bcfdfc243d9f01855bc2",
          "blockNumber": "0x3e866ea",
          "transactionHash": "0x6270e70d6a152e71f30a0957986accee01c59a725fb7859c1339cf6b77599b7a",
          "transactionIndex": "0x3d",
          "logIndex": "0xde",
          "removed": false
        },
        {
          "address": "0x6c26c61a97006888ea9E4FA36584c7df57Cd9dA3",
          "topics": [
            "0x07ea52d82345d6e838192107d8fd7123d9c2ec8e916cd0aad13fd2b60db24644"
          ],
          "data": "0x000000000000000000000000000000000000000000000000000000000000006000000000000000000000000000000000000000000000000000000000000000c000000000000000000000000000000000000000000000000000000000000000e0000000000000000000000000000000000000000000000000000000000000000200000000000000000000000023de2fe932d9043291f870324b74f820e11dc81a000000000000000000000000d56e4eab23cb81f43168f9f45211eb027b9ac7cc00000000000000000000000000000000000000000000000000000000000000000000000000000000000000000000000000000000000000000000000000000002000000000000000000000000000000000000000000000000004b48f638c794340000000000000000000000000000000000000000000000000273830f8d1db09a",
          "blockHash": "0xde62ed715f3c21229bbc82052e577e5d54e1af9c0a37bcfdfc243d9f01855bc2",
          "blockNumber": "0x3e866ea",
          "transactionHash": "0x6270e70d6a152e71f30a0957986accee01c59a725fb7859c1339cf6b77599b7a",
          "transactionIndex": "0x3d",
          "logIndex": "0xdf",
          "removed": false
        },
        {
          "address": "0x1a44076050125825900e736c501f859c50fE728c",
          "topics": [
            "0x1ab700d4ced0c005b164c0f789fd09fcbb0156d4c2041b8a3bfbcd961cd1567f"
          ],
          "data": "0x000000000000000000000000000000000000000000000000000000000000006000000000000000000000000000000000000000000000000000000000000001200000000000000000000000006c26c61a97006888ea9e4fa36584c7df57cd9da3000000000000000000000000000000000000000000000000000000000000009901000000000000033e0000759d000000000000000000000000303b63e785b656ca56ea5a5c1634ab20c98895e1000075e8000000000000000000000000474f4cb764df9da079d94052fed39625c147c12cd087c90110d49412062ef0ccdfa604dab8e0cce4a6951802565e7b46ee5d537f00000000000000000000000021af1185734d213d45c6236146fb81e2b0e8b821000000746a52880000000000000000000000000000000000000000000000000000000000000000000000000000002a0003010011010000000000000000000000000001adb0010011010000000000000000000000000007a12000000000000000000000000000000000000000000000",
          "blockHash": "0xde62ed715f3c21229bbc82052e577e5d54e1af9c0a37bcfdfc243d9f01855bc2",
          "blockNumber": "0x3e866ea",
          "transactionHash": "0x6270e70d6a152e71f30a0957986accee01c59a725fb7859c1339cf6b77599b7a",
          "transactionIndex": "0x3d",
          "logIndex": "0xe0",
          "removed": false
        },
        {
          "address": "0x0000000000000000000000000000000000001010",
          "topics": [
            "0xe6497e3ee548a3372136af2fcb0696db31fc6cf20260707645068bd3fe97f3c4",
            "0x0000000000000000000000000000000000000000000000000000000000001010",
            "0x0000000000000000000000001a44076050125825900e736c501f859c50fe728c",
            "0x0000000000000000000000006c26c61a97006888ea9e4fa36584c7df57cd9da3"
          ],
          "data": "0x00000000000000000000000000000000000000000000000005d91611b6d0c43900000000000000000000000000000000000000000000000005d91611b6d0c43900000000000000000000000000000000000000000000156f5f26d2424fa60d47000000000000000000000000000000000000000000000000000000000000000000000000000000000000000000000000000000000000156f64ffe8540676d180",
          "blockHash": "0xde62ed715f3c21229bbc82052e577e5d54e1af9c0a37bcfdfc243d9f01855bc2",
          "blockNumber": "0x3e866ea",
          "transactionHash": "0x6270e70d6a152e71f30a0957986accee01c59a725fb7859c1339cf6b77599b7a",
          "transactionIndex": "0x3d",
          "logIndex": "0xe1",
          "removed": false
        },
        {
          "address": "0x303b63e785B656ca56ea5A5C1634Ab20C98895e1",
          "topics": [
            "0x85496b760a4b7f8d66384b9df21b381f5d1b1e79f229a47aaf4c232edc2fe59a",
            "0xd087c90110d49412062ef0ccdfa604dab8e0cce4a6951802565e7b46ee5d537f",
            "0x00000000000000000000000021af1185734d213d45c6236146fb81e2b0e8b821"
          ],
          "data": "0x00000000000000000000000000000000000000000000000000000000000075e80000000000000000000000000000000000000000000069e10de76676d08000000000000000000000000000000000000000000000000069e10de76676d0800000",
          "blockHash": "0xde62ed715f3c21229bbc82052e577e5d54e1af9c0a37bcfdfc243d9f01855bc2",
          "blockNumber": "0x3e866ea",
          "transactionHash": "0x6270e70d6a152e71f30a0957986accee01c59a725fb7859c1339cf6b77599b7a",
          "transactionIndex": "0x3d",
          "logIndex": "0xe2",
          "removed": false
        },
        {
          "address": "0x0000000000000000000000000000000000001010",
          "topics": [
            "0x4dfe1bbbcf077ddc3e01291eea2d5c70c2b422b415d95645b9adcfd678cb1d63",
            "0x0000000000000000000000000000000000000000000000000000000000001010",
            "0x00000000000000000000000021af1185734d213d45c6236146fb81e2b0e8b821",
            "0x0000000000000000000000001b0840519a581f3779d0a10b77593d6d3894a76a"
          ],
          "data": "0x000000000000000000000000000000000000000000000000001dc3b1e76b9032000000000000000000000000000000000000000000000000ab94ccccf592462a000000000000000000000000000000000000000000006188fe5596f1499fe0aa000000000000000000000000000000000000000000000000ab77091b0e26b5f8000000000000000000000000000000000000000000006188fe735aa3310b70dc",
          "blockHash": "0xde62ed715f3c21229bbc82052e577e5d54e1af9c0a37bcfdfc243d9f01855bc2",
          "blockNumber": "0x3e866ea",
          "transactionHash": "0x6270e70d6a152e71f30a0957986accee01c59a725fb7859c1339cf6b77599b7a",
          "transactionIndex": "0x3d",
          "logIndex": "0xe3",
          "removed": false
        }
      ],
      "logsBloom": "0x400000000000000000000480000a00000000000000000000000000040010000000000040000010000000001000020000004080000000000000000000000000000000820420100000004000080000008000000000000000000001000000000000000000000000000080000000000008000000000000100000802040100000000000000000000080000000000800000000000000000000000000000100000000002000000080000000001000001000000000000000004000000004c0080000004000000002000000000001000080000000000000000000801000188000000000000000040000000000000000100000002000000000018200000000000000100000",
      "type": "0x2",
      "transactionHash": "0x6270e70d6a152e71f30a0957986accee01c59a725fb7859c1339cf6b77599b7a",
      "transactionIndex": "0x3d",
      "blockHash": "0xde62ed715f3c21229bbc82052e577e5d54e1af9c0a37bcfdfc243d9f01855bc2",
      "blockNumber": "0x3e866ea",
      "gasUsed": "0x43796",
      "effectiveGasPrice": "0x71d22307c",
      "from": "0x21aF1185734D213D45C6236146fb81E2b0E8b821",
      "to": "0x303b63e785B656ca56ea5A5C1634Ab20C98895e1",
      "contractAddress": null
    }
  ],
  "libraries": [],
  "pending": [],
  "returns": {},
  "timestamp": 1734373848,
  "chain": 137,
  "commit": "9bc9372"
}