{
  "transactions": [
    {
      "hash": "0xf3bcb1d12dd8f23a24f18db945d5264a7ad320077057397e694f331948cdf3ae",
      "transactionType": "CALL",
      "contractName": null,
      "contractAddress": "0x3d2bd0e15829aa5c362a4144fdf4a1112fa29b5c",
      "function": "approve(address,uint256)",
      "arguments": [
        "0x303b63e785B656ca56ea5A5C1634Ab20C98895e1",
        "1000000000000000000000000"
      ],
      "transaction": {
        "from": "0x21af1185734d213d45c6236146fb81e2b0e8b821",
        "to": "0x3d2bd0e15829aa5c362a4144fdf4a1112fa29b5c",
        "gas": "0x107e5",
        "value": "0x0",
        "input": "0x095ea7b3000000000000000000000000303b63e785b656ca56ea5a5c1634ab20c98895e100000000000000000000000000000000000000000000d3c21bcecceda1000000",
        "nonce": "0x6c",
        "chainId": "0x89"
      },
      "additionalContracts": [],
      "isFixedGasLimit": false
    },
    {
      "hash": "0x606800bdfd4cb0d6e1bdb082cab4fba898ab08cb532ede711f96e7f292d4d3e2",
      "transactionType": "CALL",
      "contractName": null,
      "contractAddress": "0x303b63e785b656ca56ea5a5c1634ab20c98895e1",
      "function": "send((uint32,bytes32,uint256,uint256,bytes,bytes,bytes),(uint256,uint256),address)",
      "arguments": [
        "(30184, 0x00000000000000000000000021af1185734d213d45c6236146fb81e2b0e8b821, 1000000000000000000000000, 1000000000000000000000000, 0x0003010011010000000000000000000000000007a120, 0x, 0x)",
        "(453980358337095816, 0)",
        "0x5b73C5498c1E3b4dbA84de0F1833c4a029d90519"
      ],
      "transaction": {
        "from": "0x21af1185734d213d45c6236146fb81e2b0e8b821",
        "to": "0x303b63e785b656ca56ea5a5c1634ab20c98895e1",
        "gas": "0x5ce20",
        "value": "0x64cdcbb09afe888",
        "input": "0xc7c7f5b30000000000000000000000000000000000000000000000000000000000000080000000000000000000000000000000000000000000000000064cdcbb09afe88800000000000000000000000000000000000000000000000000000000000000000000000000000000000000005b73c5498c1e3b4dba84de0f1833c4a029d9051900000000000000000000000000000000000000000000000000000000000075e800000000000000000000000021af1185734d213d45c6236146fb81e2b0e8b82100000000000000000000000000000000000000000000d3c21bcecceda100000000000000000000000000000000000000000000000000d3c21bcecceda100000000000000000000000000000000000000000000000000000000000000000000e00000000000000000000000000000000000000000000000000000000000000120000000000000000000000000000000000000000000000000000000000000014000000000000000000000000000000000000000000000000000000000000000160003010011010000000000000000000000000007a1200000000000000000000000000000000000000000000000000000000000000000000000000000000000000000000000000000000000000000000000000000000000000000000000000000",
        "nonce": "0x6d",
        "chainId": "0x89"
      },
      "additionalContracts": [],
      "isFixedGasLimit": false
    }
  ],
  "receipts": [
    {
      "status": "0x1",
      "cumulativeGasUsed": "0x15050d5",
      "logs": [
        {
          "address": "0x3d2bd0e15829aa5c362a4144fdf4a1112fa29b5c",
          "topics": [
            "0x8c5be1e5ebec7d5bd14f71427d1e84f3dd0314c0f7b2291e5b200ac8c7c3b925",
            "0x00000000000000000000000021af1185734d213d45c6236146fb81e2b0e8b821",
            "0x000000000000000000000000303b63e785b656ca56ea5a5c1634ab20c98895e1"
          ],
          "data": "0x00000000000000000000000000000000000000000000d3c21bcecceda1000000",
          "blockHash": "0x87aa2bf389d1f3dfe0ddd0421c772bf645f79e06fe6f0092e467395eeccd70b3",
          "blockNumber": "0x3be1ab2",
          "transactionHash": "0xf3bcb1d12dd8f23a24f18db945d5264a7ad320077057397e694f331948cdf3ae",
          "transactionIndex": "0x36",
          "logIndex": "0x10d",
          "removed": false
        },
        {
          "address": "0x0000000000000000000000000000000000001010",
          "topics": [
            "0x4dfe1bbbcf077ddc3e01291eea2d5c70c2b422b415d95645b9adcfd678cb1d63",
            "0x0000000000000000000000000000000000000000000000000000000000001010",
            "0x00000000000000000000000021af1185734d213d45c6236146fb81e2b0e8b821",
            "0x000000000000000000000000794e44d1334a56fea7f4df12633b88820d0c5888"
          ],
          "data": "0x0000000000000000000000000000000000000000000000000004ec5e60aeec000000000000000000000000000000000000000000000000001b82c27b77ce67b70000000000000000000000000000000000000000000001ce039de3eb0abd6e7d0000000000000000000000000000000000000000000000001b7dd61d171f7bb70000000000000000000000000000000000000000000001ce03a2d0496b6c5a7d",
          "blockHash": "0x87aa2bf389d1f3dfe0ddd0421c772bf645f79e06fe6f0092e467395eeccd70b3",
          "blockNumber": "0x3be1ab2",
          "transactionHash": "0xf3bcb1d12dd8f23a24f18db945d5264a7ad320077057397e694f331948cdf3ae",
          "transactionIndex": "0x36",
          "logIndex": "0x10e",
          "removed": false
        }
      ],
      "logsBloom": "0x40000000000000000000000000080000000000000000000000000000000000000000000000001000000000000000000000008000000000000000000000200000000000042000000000000000000000800000000000000000000100020000000000000000000000000000000000000800000000000000000080004000000000000000000000000000000000000000000000000000000000000000000000000000220000000000000000000000000000000000000000000000000080080000004000000000000000000001000000000000000000000000000000100000000000000010000000000000000000000000000000000000000000000000000020100000",
      "type": "0x2",
      "transactionHash": "0xf3bcb1d12dd8f23a24f18db945d5264a7ad320077057397e694f331948cdf3ae",
      "transactionIndex": "0x36",
      "blockHash": "0x87aa2bf389d1f3dfe0ddd0421c772bf645f79e06fe6f0092e467395eeccd70b3",
      "blockNumber": "0x3be1ab2",
      "gasUsed": "0xb471",
      "effectiveGasPrice": "0x6fc23ac34",
      "from": "0x21af1185734d213d45c6236146fb81e2b0e8b821",
      "to": "0x3d2bd0e15829aa5c362a4144fdf4a1112fa29b5c",
      "contractAddress": null
    },
    {
      "status": "0x1",
      "cumulativeGasUsed": "0x1624fae",
      "logs": [
        {
          "address": "0x0000000000000000000000000000000000001010",
          "topics": [
            "0xe6497e3ee548a3372136af2fcb0696db31fc6cf20260707645068bd3fe97f3c4",
            "0x0000000000000000000000000000000000000000000000000000000000001010",
            "0x00000000000000000000000021af1185734d213d45c6236146fb81e2b0e8b821",
            "0x000000000000000000000000303b63e785b656ca56ea5a5c1634ab20c98895e1"
          ],
          "data": "0x000000000000000000000000000000000000000000000000064cdcbb09afe8880000000000000000000000000000000000000000000000001b5549a680ef7643000000000000000000000000000000000000000000000000000000000000000000000000000000000000000000000000000000000000000015086ceb773f8dbb000000000000000000000000000000000000000000000000064cdcbb09afe888",
          "blockHash": "0x87aa2bf389d1f3dfe0ddd0421c772bf645f79e06fe6f0092e467395eeccd70b3",
          "blockNumber": "0x3be1ab2",
          "transactionHash": "0x606800bdfd4cb0d6e1bdb082cab4fba898ab08cb532ede711f96e7f292d4d3e2",
          "transactionIndex": "0x38",
          "logIndex": "0x111",
          "removed": false
        },
        {
          "address": "0x3d2bd0e15829aa5c362a4144fdf4a1112fa29b5c",
          "topics": [
            "0xddf252ad1be2c89b69c2b068fc378daa952ba7f163c4a11628f55a4df523b3ef",
            "0x00000000000000000000000021af1185734d213d45c6236146fb81e2b0e8b821",
            "0x000000000000000000000000303b63e785b656ca56ea5a5c1634ab20c98895e1"
          ],
          "data": "0x00000000000000000000000000000000000000000000d3c21bcecceda1000000",
          "blockHash": "0x87aa2bf389d1f3dfe0ddd0421c772bf645f79e06fe6f0092e467395eeccd70b3",
          "blockNumber": "0x3be1ab2",
          "transactionHash": "0x606800bdfd4cb0d6e1bdb082cab4fba898ab08cb532ede711f96e7f292d4d3e2",
          "transactionIndex": "0x38",
          "logIndex": "0x112",
          "removed": false
        },
        {
          "address": "0x0000000000000000000000000000000000001010",
          "topics": [
            "0xe6497e3ee548a3372136af2fcb0696db31fc6cf20260707645068bd3fe97f3c4",
            "0x0000000000000000000000000000000000000000000000000000000000001010",
            "0x000000000000000000000000303b63e785b656ca56ea5a5c1634ab20c98895e1",
            "0x0000000000000000000000001a44076050125825900e736c501f859c50fe728c"
          ],
          "data": "0x000000000000000000000000000000000000000000000000064cdcbb09afe888000000000000000000000000000000000000000000000000064cdcbb09afe88800000000000000000000000000000000000000000000000000000000000000000000000000000000000000000000000000000000000000000000000000000000000000000000000000000000000000000000000000000000064cdcbb09afe888",
          "blockHash": "0x87aa2bf389d1f3dfe0ddd0421c772bf645f79e06fe6f0092e467395eeccd70b3",
          "blockNumber": "0x3be1ab2",
          "transactionHash": "0x606800bdfd4cb0d6e1bdb082cab4fba898ab08cb532ede711f96e7f292d4d3e2",
          "transactionIndex": "0x38",
          "logIndex": "0x113",
          "removed": false
        },
        {
          "address": "0x6c26c61a97006888ea9e4fa36584c7df57cd9da3",
          "topics": [
            "0x61ed099e74a97a1d7f8bb0952a88ca8b7b8ebd00c126ea04671f92a81213318a"
          ],
          "data": "0x000000000000000000000000cd3f213ad101472e1713c72b1697e727c803885b0000000000000000000000000000000000000000000000000265e8c9565192e0",
          "blockHash": "0x87aa2bf389d1f3dfe0ddd0421c772bf645f79e06fe6f0092e467395eeccd70b3",
          "blockNumber": "0x3be1ab2",
          "transactionHash": "0x606800bdfd4cb0d6e1bdb082cab4fba898ab08cb532ede711f96e7f292d4d3e2",
          "transactionIndex": "0x38",
          "logIndex": "0x114",
          "removed": false
        },
        {
          "address": "0x6c26c61a97006888ea9e4fa36584c7df57cd9da3",
          "topics": [
            "0x07ea52d82345d6e838192107d8fd7123d9c2ec8e916cd0aad13fd2b60db24644"
          ],
          "data": "0x000000000000000000000000000000000000000000000000000000000000006000000000000000000000000000000000000000000000000000000000000000c000000000000000000000000000000000000000000000000000000000000000e0000000000000000000000000000000000000000000000000000000000000000200000000000000000000000023de2fe932d9043291f870324b74f820e11dc81a000000000000000000000000d56e4eab23cb81f43168f9f45211eb027b9ac7cc00000000000000000000000000000000000000000000000000000000000000000000000000000000000000000000000000000000000000000000000000000002000000000000000000000000000000000000000000000000001373b19139f40400000000000000000000000000000000000000000000000003d38040222461a4",
          "blockHash": "0x87aa2bf389d1f3dfe0ddd0421c772bf645f79e06fe6f0092e467395eeccd70b3",
          "blockNumber": "0x3be1ab2",
          "transactionHash": "0x606800bdfd4cb0d6e1bdb082cab4fba898ab08cb532ede711f96e7f292d4d3e2",
          "transactionIndex": "0x38",
          "logIndex": "0x115",
          "removed": false
        },
        {
          "address": "0x1a44076050125825900e736c501f859c50fe728c",
          "topics": [
            "0x1ab700d4ced0c005b164c0f789fd09fcbb0156d4c2041b8a3bfbcd961cd1567f"
          ],
          "data": "0x000000000000000000000000000000000000000000000000000000000000006000000000000000000000000000000000000000000000000000000000000001200000000000000000000000006c26c61a97006888ea9e4fa36584c7df57cd9da300000000000000000000000000000000000000000000000000000000000000990100000000000000030000759d000000000000000000000000303b63e785b656ca56ea5a5c1634ab20c98895e1000075e8000000000000000000000000474f4cb764df9da079d94052fed39625c147c12cde5ec0881b64c453b6f1b71b63816318914eda2f5b649fdba480c460c534872c00000000000000000000000021af1185734d213d45c6236146fb81e2b0e8b821000000e8d4a5100000000000000000000000000000000000000000000000000000000000000000000000000000002a0003010011010000000000000000000000000001adb0010011010000000000000000000000000007a12000000000000000000000000000000000000000000000",
          "blockHash": "0x87aa2bf389d1f3dfe0ddd0421c772bf645f79e06fe6f0092e467395eeccd70b3",
          "blockNumber": "0x3be1ab2",
          "transactionHash": "0x606800bdfd4cb0d6e1bdb082cab4fba898ab08cb532ede711f96e7f292d4d3e2",
          "transactionIndex": "0x38",
          "logIndex": "0x116",
          "removed": false
        },
        {
          "address": "0x0000000000000000000000000000000000001010",
          "topics": [
            "0xe6497e3ee548a3372136af2fcb0696db31fc6cf20260707645068bd3fe97f3c4",
            "0x0000000000000000000000000000000000000000000000000000000000001010",
            "0x0000000000000000000000001a44076050125825900e736c501f859c50fe728c",
            "0x0000000000000000000000006c26c61a97006888ea9e4fa36584c7df57cd9da3"
          ],
          "data": "0x000000000000000000000000000000000000000000000000064cdcbb09afe888000000000000000000000000000000000000000000000000064cdcbb09afe8880000000000000000000000000000000000000000000003477efffb51c99707450000000000000000000000000000000000000000000000000000000000000000000000000000000000000000000000000000000000000347854cd80cd346efcd",
          "blockHash": "0x87aa2bf389d1f3dfe0ddd0421c772bf645f79e06fe6f0092e467395eeccd70b3",
          "blockNumber": "0x3be1ab2",
          "transactionHash": "0x606800bdfd4cb0d6e1bdb082cab4fba898ab08cb532ede711f96e7f292d4d3e2",
          "transactionIndex": "0x38",
          "logIndex": "0x117",
          "removed": false
        },
        {
          "address": "0x303b63e785b656ca56ea5a5c1634ab20c98895e1",
          "topics": [
            "0x85496b760a4b7f8d66384b9df21b381f5d1b1e79f229a47aaf4c232edc2fe59a",
            "0xde5ec0881b64c453b6f1b71b63816318914eda2f5b649fdba480c460c534872c",
            "0x00000000000000000000000021af1185734d213d45c6236146fb81e2b0e8b821"
          ],
          "data": "0x00000000000000000000000000000000000000000000000000000000000075e800000000000000000000000000000000000000000000d3c21bcecceda100000000000000000000000000000000000000000000000000d3c21bcecceda1000000",
          "blockHash": "0x87aa2bf389d1f3dfe0ddd0421c772bf645f79e06fe6f0092e467395eeccd70b3",
          "blockNumber": "0x3be1ab2",
          "transactionHash": "0x606800bdfd4cb0d6e1bdb082cab4fba898ab08cb532ede711f96e7f292d4d3e2",
          "transactionIndex": "0x38",
          "logIndex": "0x118",
          "removed": false
        },
        {
          "address": "0x0000000000000000000000000000000000001010",
          "topics": [
            "0x4dfe1bbbcf077ddc3e01291eea2d5c70c2b422b415d95645b9adcfd678cb1d63",
            "0x0000000000000000000000000000000000000000000000000000000000001010",
            "0x00000000000000000000000021af1185734d213d45c6236146fb81e2b0e8b821",
            "0x000000000000000000000000794e44d1334a56fea7f4df12633b88820d0c5888"
          ],
          "data": "0x000000000000000000000000000000000000000000000000001d5b4f309194000000000000000000000000000000000000000000000000001b7dd61d16fad4c30000000000000000000000000000000000000000000001ce0403276fc5bf927d0000000000000000000000000000000000000000000000001b607acde66940c30000000000000000000000000000000000000000000001ce042082bef651267d",
          "blockHash": "0x87aa2bf389d1f3dfe0ddd0421c772bf645f79e06fe6f0092e467395eeccd70b3",
          "blockNumber": "0x3be1ab2",
          "transactionHash": "0x606800bdfd4cb0d6e1bdb082cab4fba898ab08cb532ede711f96e7f292d4d3e2",
          "transactionIndex": "0x38",
          "logIndex": "0x119",
          "removed": false
        }
      ],
      "logsBloom": "0x400000000000000000000480000800000000000020000000000000040010000000000040000010000000001000020000000080000000000000000000000000000000820420100000004000080000008000000000000000000001200200000000000000000000000080000000000008000000000000100000802040100000000000000000000000000000000802000000000000000000000000000100000000002000000080000000001000000000000000000000004000000004c0080000004000000002000000000001000080000000000000000000801000188000000000000000040000000000000000000000002000000000018000000000000020100000",
      "type": "0x2",
      "transactionHash": "0x606800bdfd4cb0d6e1bdb082cab4fba898ab08cb532ede711f96e7f292d4d3e2",
      "transactionIndex": "0x38",
      "blockHash": "0x87aa2bf389d1f3dfe0ddd0421c772bf645f79e06fe6f0092e467395eeccd70b3",
      "blockNumber": "0x3be1ab2",
      "gasUsed": "0x433ef",
      "effectiveGasPrice": "0x6fc23ac34",
      "from": "0x21af1185734d213d45c6236146fb81e2b0e8b821",
      "to": "0x303b63e785b656ca56ea5a5c1634ab20c98895e1",
      "contractAddress": null
    }
  ],
  "libraries": [],
  "pending": [],
  "returns": {},
  "timestamp": 1728403304,
  "chain": 137,
  "commit": "9bc9372"
}