{
  "transactions": [
    {
      "hash": "0x1a87a7bc0c72d6124ee749723659e1dcf5d954a10bd2a3210f9736f91c9265d9",
      "transactionType": "CALL",
      "contractName": null,
      "contractAddress": "0x3d2bd0e15829aa5c362a4144fdf4a1112fa29b5c",
      "function": "approve(address,uint256)",
      "arguments": [
        "0x303b63e785B656ca56ea5A5C1634Ab20C98895e1",
        "10000000000000000000000"
      ],
      "transaction": {
        "from": "0x28ff8e457fef9870b9d1529fe68fbb95c3181f64",
        "to": "0x3d2bd0e15829aa5c362a4144fdf4a1112fa29b5c",
        "gas": "0xf94b",
        "value": "0x0",
        "input": "0x095ea7b3000000000000000000000000303b63e785b656ca56ea5a5c1634ab20c98895e100000000000000000000000000000000000000000000021e19e0c9bab2400000",
        "nonce": "0x377",
        "chainId": "0x89"
      },
      "additionalContracts": [],
      "isFixedGasLimit": false
    },
    {
      "hash": "0xd10f7fb7c520a63e60a31b4cb1d8ba4d306d65c79a6bb968ce65785565ebff58",
      "transactionType": "CALL",
      "contractName": null,
      "contractAddress": "0x303b63e785b656ca56ea5a5c1634ab20c98895e1",
      "function": "send((uint32,bytes32,uint256,uint256,bytes,bytes,bytes),(uint256,uint256),address)",
      "arguments": [
        "(30184, 0x00000000000000000000000028ff8e457fef9870b9d1529fe68fbb95c3181f64, 10000000000000000000000, 10000000000000000000000, 0x0003010011010000000000000000000000000007a120, 0x, 0x)",
        "(445745396603612603, 0)",
        "0x5b73C5498c1E3b4dbA84de0F1833c4a029d90519"
      ],
      "transaction": {
        "from": "0x28ff8e457fef9870b9d1529fe68fbb95c3181f64",
        "to": "0x303b63e785b656ca56ea5a5c1634ab20c98895e1",
        "gas": "0x5ce42",
        "value": "0x62f9b1398d2edbb",
        "input": "0xc7c7f5b30000000000000000000000000000000000000000000000000000000000000080000000000000000000000000000000000000000000000000062f9b1398d2edbb00000000000000000000000000000000000000000000000000000000000000000000000000000000000000005b73c5498c1e3b4dba84de0f1833c4a029d9051900000000000000000000000000000000000000000000000000000000000075e800000000000000000000000028ff8e457fef9870b9d1529fe68fbb95c3181f6400000000000000000000000000000000000000000000021e19e0c9bab240000000000000000000000000000000000000000000000000021e19e0c9bab240000000000000000000000000000000000000000000000000000000000000000000e00000000000000000000000000000000000000000000000000000000000000120000000000000000000000000000000000000000000000000000000000000014000000000000000000000000000000000000000000000000000000000000000160003010011010000000000000000000000000007a1200000000000000000000000000000000000000000000000000000000000000000000000000000000000000000000000000000000000000000000000000000000000000000000000000000",
        "nonce": "0x378",
        "chainId": "0x89"
      },
      "additionalContracts": [],
      "isFixedGasLimit": false
    }
  ],
  "receipts": [
    {
      "status": "0x1",
      "cumulativeGasUsed": "0x383884",
      "logs": [
        {
          "address": "0x3d2bd0e15829aa5c362a4144fdf4a1112fa29b5c",
          "topics": [
            "0x8c5be1e5ebec7d5bd14f71427d1e84f3dd0314c0f7b2291e5b200ac8c7c3b925",
            "0x00000000000000000000000028ff8e457fef9870b9d1529fe68fbb95c3181f64",
            "0x000000000000000000000000303b63e785b656ca56ea5a5c1634ab20c98895e1"
          ],
          "data": "0x00000000000000000000000000000000000000000000021e19e0c9bab2400000",
          "blockHash": "0x9d3d6d6cadf5d84d24716619d4868a658ea0ec12326d2904e6a645e7d98be7cd",
          "blockNumber": "0x3be4014",
          "transactionHash": "0x1a87a7bc0c72d6124ee749723659e1dcf5d954a10bd2a3210f9736f91c9265d9",
          "transactionIndex": "0x1d",
          "logIndex": "0x7d",
          "removed": false
        },
        {
          "address": "0x0000000000000000000000000000000000001010",
          "topics": [
            "0x4dfe1bbbcf077ddc3e01291eea2d5c70c2b422b415d95645b9adcfd678cb1d63",
            "0x0000000000000000000000000000000000000000000000000000000000001010",
            "0x00000000000000000000000028ff8e457fef9870b9d1529fe68fbb95c3181f64",
            "0x00000000000000000000000002f70172f7f490653665c9bfac0666147c8af1f5"
          ],
          "data": "0x0000000000000000000000000000000000000000000000000004f442a03a717d0000000000000000000000000000000000000000000000009e246af05602f4f00000000000000000000000000000000000000000000000af456e95774e24081e0000000000000000000000000000000000000000000000009e1f76adb5c883730000000000000000000000000000000000000000000000af457389b9ee5e799b",
          "blockHash": "0x9d3d6d6cadf5d84d24716619d4868a658ea0ec12326d2904e6a645e7d98be7cd",
          "blockNumber": "0x3be4014",
          "transactionHash": "0x1a87a7bc0c72d6124ee749723659e1dcf5d954a10bd2a3210f9736f91c9265d9",
          "transactionIndex": "0x1d",
          "logIndex": "0x7e",
          "removed": false
        }
      ],
      "logsBloom": "0x40000000000000000000000000000000000000000000000000000000000040000000000000001000000000000000000000008000000000000000000000200000000000042002000000000000000000800000000000000000000110000000000000000000000000000000000000000800000000000000000080000000000000000000000000000000000000000000000000000000000000000000000000000000220000000000000000000000000000000000000000000000000000880000004000000000000000008001000000000000000000000000000000100000000000000010000000080000000000000000000000000000000000000000000000100000",
      "type": "0x2",
      "transactionHash": "0x1a87a7bc0c72d6124ee749723659e1dcf5d954a10bd2a3210f9736f91c9265d9",
      "transactionIndex": "0x1d",
      "blockHash": "0x9d3d6d6cadf5d84d24716619d4868a658ea0ec12326d2904e6a645e7d98be7cd",
      "blockNumber": "0x3be4014",
      "gasUsed": "0xb47d",
      "effectiveGasPrice": "0x706de411a",
      "from": "0x28ff8e457fef9870b9d1529fe68fbb95c3181f64",
      "to": "0x3d2bd0e15829aa5c362a4144fdf4a1112fa29b5c",
      "contractAddress": null
    },
    {
      "status": "0x1",
      "cumulativeGasUsed": "0x3c6c8b",
      "logs": [
        {
          "address": "0x0000000000000000000000000000000000001010",
          "topics": [
            "0xe6497e3ee548a3372136af2fcb0696db31fc6cf20260707645068bd3fe97f3c4",
            "0x0000000000000000000000000000000000000000000000000000000000001010",
            "0x00000000000000000000000028ff8e457fef9870b9d1529fe68fbb95c3181f64",
            "0x000000000000000000000000303b63e785b656ca56ea5a5c1634ab20c98895e1"
          ],
          "data": "0x000000000000000000000000000000000000000000000000062f9b1398d2edbb0000000000000000000000000000000000000000000000009df6aaffd2852e8a000000000000000000000000000000000000000000000000000000000000000000000000000000000000000000000000000000000000000097c70fec39b240cf000000000000000000000000000000000000000000000000062f9b1398d2edbb",
          "blockHash": "0x9d3d6d6cadf5d84d24716619d4868a658ea0ec12326d2904e6a645e7d98be7cd",
          "blockNumber": "0x3be4014",
          "transactionHash": "0xd10f7fb7c520a63e60a31b4cb1d8ba4d306d65c79a6bb968ce65785565ebff58",
          "transactionIndex": "0x1e",
          "logIndex": "0x7f",
          "removed": false
        },
        {
          "address": "0x3d2bd0e15829aa5c362a4144fdf4a1112fa29b5c",
          "topics": [
            "0xddf252ad1be2c89b69c2b068fc378daa952ba7f163c4a11628f55a4df523b3ef",
            "0x00000000000000000000000028ff8e457fef9870b9d1529fe68fbb95c3181f64",
            "0x000000000000000000000000303b63e785b656ca56ea5a5c1634ab20c98895e1"
          ],
          "data": "0x00000000000000000000000000000000000000000000021e19e0c9bab2400000",
          "blockHash": "0x9d3d6d6cadf5d84d24716619d4868a658ea0ec12326d2904e6a645e7d98be7cd",
          "blockNumber": "0x3be4014",
          "transactionHash": "0xd10f7fb7c520a63e60a31b4cb1d8ba4d306d65c79a6bb968ce65785565ebff58",
          "transactionIndex": "0x1e",
          "logIndex": "0x80",
          "removed": false
        },
        {
          "address": "0x0000000000000000000000000000000000001010",
          "topics": [
            "0xe6497e3ee548a3372136af2fcb0696db31fc6cf20260707645068bd3fe97f3c4",
            "0x0000000000000000000000000000000000000000000000000000000000001010",
            "0x000000000000000000000000303b63e785b656ca56ea5a5c1634ab20c98895e1",
            "0x0000000000000000000000001a44076050125825900e736c501f859c50fe728c"
          ],
          "data": "0x000000000000000000000000000000000000000000000000062f9b1398d2edbb000000000000000000000000000000000000000000000000062f9b1398d2edbb00000000000000000000000000000000000000000000000000000000000000000000000000000000000000000000000000000000000000000000000000000000000000000000000000000000000000000000000000000000062f9b1398d2edbb",
          "blockHash": "0x9d3d6d6cadf5d84d24716619d4868a658ea0ec12326d2904e6a645e7d98be7cd",
          "blockNumber": "0x3be4014",
          "transactionHash": "0xd10f7fb7c520a63e60a31b4cb1d8ba4d306d65c79a6bb968ce65785565ebff58",
          "transactionIndex": "0x1e",
          "logIndex": "0x81",
          "removed": false
        },
        {
          "address": "0x6c26c61a97006888ea9e4fa36584c7df57cd9da3",
          "topics": [
            "0x61ed099e74a97a1d7f8bb0952a88ca8b7b8ebd00c126ea04671f92a81213318a"
          ],
          "data": "0x000000000000000000000000cd3f213ad101472e1713c72b1697e727c803885b000000000000000000000000000000000000000000000000024eddb00a173929",
          "blockHash": "0x9d3d6d6cadf5d84d24716619d4868a658ea0ec12326d2904e6a645e7d98be7cd",
          "blockNumber": "0x3be4014",
          "transactionHash": "0xd10f7fb7c520a63e60a31b4cb1d8ba4d306d65c79a6bb968ce65785565ebff58",
          "transactionIndex": "0x1e",
          "logIndex": "0x82",
          "removed": false
        },
        {
          "address": "0x6c26c61a97006888ea9e4fa36584c7df57cd9da3",
          "topics": [
            "0x07ea52d82345d6e838192107d8fd7123d9c2ec8e916cd0aad13fd2b60db24644"
          ],
          "data": "0x000000000000000000000000000000000000000000000000000000000000006000000000000000000000000000000000000000000000000000000000000000c000000000000000000000000000000000000000000000000000000000000000e0000000000000000000000000000000000000000000000000000000000000000200000000000000000000000023de2fe932d9043291f870324b74f820e11dc81a000000000000000000000000d56e4eab23cb81f43168f9f45211eb027b9ac7cc000000000000000000000000000000000000000000000000000000000000000000000000000000000000000000000000000000000000000000000000000000020000000000000000000000000000000000000000000000000010101e376ce1f800000000000000000000000000000000000000000000000003d0ad45574ed29a",
          "blockHash": "0x9d3d6d6cadf5d84d24716619d4868a658ea0ec12326d2904e6a645e7d98be7cd",
          "blockNumber": "0x3be4014",
          "transactionHash": "0xd10f7fb7c520a63e60a31b4cb1d8ba4d306d65c79a6bb968ce65785565ebff58",
          "transactionIndex": "0x1e",
          "logIndex": "0x83",
          "removed": false
        },
        {
          "address": "0x1a44076050125825900e736c501f859c50fe728c",
          "topics": [
            "0x1ab700d4ced0c005b164c0f789fd09fcbb0156d4c2041b8a3bfbcd961cd1567f"
          ],
          "data": "0x000000000000000000000000000000000000000000000000000000000000006000000000000000000000000000000000000000000000000000000000000001200000000000000000000000006c26c61a97006888ea9e4fa36584c7df57cd9da300000000000000000000000000000000000000000000000000000000000000990100000000000000070000759d000000000000000000000000303b63e785b656ca56ea5a5c1634ab20c98895e1000075e8000000000000000000000000474f4cb764df9da079d94052fed39625c147c12cf4df9497962ccd52d2eaa091dbf4ddfe46c8beccb062707e994ff07d8da81a4400000000000000000000000028ff8e457fef9870b9d1529fe68fbb95c3181f6400000002540be40000000000000000000000000000000000000000000000000000000000000000000000000000002a0003010011010000000000000000000000000001adb0010011010000000000000000000000000007a12000000000000000000000000000000000000000000000",
          "blockHash": "0x9d3d6d6cadf5d84d24716619d4868a658ea0ec12326d2904e6a645e7d98be7cd",
          "blockNumber": "0x3be4014",
          "transactionHash": "0xd10f7fb7c520a63e60a31b4cb1d8ba4d306d65c79a6bb968ce65785565ebff58",
          "transactionIndex": "0x1e",
          "logIndex": "0x84",
          "removed": false
        },
        {
          "address": "0x0000000000000000000000000000000000001010",
          "topics": [
            "0xe6497e3ee548a3372136af2fcb0696db31fc6cf20260707645068bd3fe97f3c4",
            "0x0000000000000000000000000000000000000000000000000000000000001010",
            "0x0000000000000000000000001a44076050125825900e736c501f859c50fe728c",
            "0x0000000000000000000000006c26c61a97006888ea9e4fa36584c7df57cd9da3"
          ],
          "data": "0x000000000000000000000000000000000000000000000000062f9b1398d2edbb000000000000000000000000000000000000000000000000062f9b1398d2edbb00000000000000000000000000000000000000000000034b082ce4ddbb400918000000000000000000000000000000000000000000000000000000000000000000000000000000000000000000000000000000000000034b0e5c7ff15412f6d3",
          "blockHash": "0x9d3d6d6cadf5d84d24716619d4868a658ea0ec12326d2904e6a645e7d98be7cd",
          "blockNumber": "0x3be4014",
          "transactionHash": "0xd10f7fb7c520a63e60a31b4cb1d8ba4d306d65c79a6bb968ce65785565ebff58",
          "transactionIndex": "0x1e",
          "logIndex": "0x85",
          "removed": false
        },
        {
          "address": "0x303b63e785b656ca56ea5a5c1634ab20c98895e1",
          "topics": [
            "0x85496b760a4b7f8d66384b9df21b381f5d1b1e79f229a47aaf4c232edc2fe59a",
            "0xf4df9497962ccd52d2eaa091dbf4ddfe46c8beccb062707e994ff07d8da81a44",
            "0x00000000000000000000000028ff8e457fef9870b9d1529fe68fbb95c3181f64"
          ],
          "data": "0x00000000000000000000000000000000000000000000000000000000000075e800000000000000000000000000000000000000000000021e19e0c9bab240000000000000000000000000000000000000000000000000021e19e0c9bab2400000",
          "blockHash": "0x9d3d6d6cadf5d84d24716619d4868a658ea0ec12326d2904e6a645e7d98be7cd",
          "blockNumber": "0x3be4014",
          "transactionHash": "0xd10f7fb7c520a63e60a31b4cb1d8ba4d306d65c79a6bb968ce65785565ebff58",
          "transactionIndex": "0x1e",
          "logIndex": "0x86",
          "removed": false
        },
        {
          "address": "0x0000000000000000000000000000000000001010",
          "topics": [
            "0x4dfe1bbbcf077ddc3e01291eea2d5c70c2b422b415d95645b9adcfd678cb1d63",
            "0x0000000000000000000000000000000000000000000000000000000000001010",
            "0x00000000000000000000000028ff8e457fef9870b9d1529fe68fbb95c3181f64",
            "0x00000000000000000000000002f70172f7f490653665c9bfac0666147c8af1f5"
          ],
          "data": "0x000000000000000000000000000000000000000000000000001d890f594bfb070000000000000000000000000000000000000000000000009e1f76adb5b6e33e0000000000000000000000000000000000000000000000af457389b9ee5e799b0000000000000000000000000000000000000000000000009e01ed9e5c6ae8370000000000000000000000000000000000000000000000af459112c947aa74a2",
          "blockHash": "0x9d3d6d6cadf5d84d24716619d4868a658ea0ec12326d2904e6a645e7d98be7cd",
          "blockNumber": "0x3be4014",
          "transactionHash": "0xd10f7fb7c520a63e60a31b4cb1d8ba4d306d65c79a6bb968ce65785565ebff58",
          "transactionIndex": "0x1e",
          "logIndex": "0x87",
          "removed": false
        }
      ],
      "logsBloom": "0x40000000000000000000048000000000000000000000000000000004001040000000004000001000000000100002000000008000000000000000000000000000000082042012000000400008000000800000000000000000000110000000000000000000000000008000000000000800000000000010000080200010000000000000000000000000000000080000000000000000000000000000010000000000200000008000000000100000000002000000000000400000000440880000004000000002000000008001000080000000800000000000801000188100000000000000040000080000000000000000002000000000018000000000000000100000",
      "type": "0x2",
      "transactionHash": "0xd10f7fb7c520a63e60a31b4cb1d8ba4d306d65c79a6bb968ce65785565ebff58",
      "transactionIndex": "0x1e",
      "blockHash": "0x9d3d6d6cadf5d84d24716619d4868a658ea0ec12326d2904e6a645e7d98be7cd",
      "blockNumber": "0x3be4014",
      "gasUsed": "0x43407",
      "effectiveGasPrice": "0x706de411a",
      "from": "0x28ff8e457fef9870b9d1529fe68fbb95c3181f64",
      "to": "0x303b63e785b656ca56ea5a5c1634ab20c98895e1",
      "contractAddress": null
    }
  ],
  "libraries": [],
  "pending": [],
  "returns": {},
  "timestamp": 1728423733,
  "chain": 137,
  "commit": "9bc9372"
}