{
  "transactions": [
    {
      "hash": "0x8ce74a7bc3e6335c9ebe0dc216dc7663e8ab4386a26ee46046ea5306c0bdf49c",
      "transactionType": "CALL",
      "contractName": null,
      "contractAddress": "0x3d2bd0e15829aa5c362a4144fdf4a1112fa29b5c",
      "function": "approve(address,uint256)",
      "arguments": [
        "0x303b63e785B656ca56ea5A5C1634Ab20C98895e1",
        "10000000000000000000000"
      ],
      "transaction": {
        "from": "0x21af1185734d213d45c6236146fb81e2b0e8b821",
        "to": "0x3d2bd0e15829aa5c362a4144fdf4a1112fa29b5c",
        "gas": "0xf94b",
        "value": "0x0",
        "input": "0x095ea7b3000000000000000000000000303b63e785b656ca56ea5a5c1634ab20c98895e100000000000000000000000000000000000000000000021e19e0c9bab2400000",
        "nonce": "0x65",
        "chainId": "0x89"
      },
      "additionalContracts": [],
      "isFixedGasLimit": false
    },
    {
      "hash": "0xe5d9c22d2afc05e4767131c5b30b609ce0d719324c108f11ad63b9f362cc63b1",
      "transactionType": "CALL",
      "contractName": null,
      "contractAddress": "0x303b63e785b656ca56ea5a5c1634ab20c98895e1",
      "function": "send((uint32,bytes32,uint256,uint256,bytes,bytes,bytes),(uint256,uint256),address)",
      "arguments": [
        "(30165, 0x00000000000000000000000021af1185734d213d45c6236146fb81e2b0e8b821, 10000000000000000000000, 10000000000000000000000, 0x, 0x, 0x)",
        "(4137822753787793135, 0)",
        "0x5b73C5498c1E3b4dbA84de0F1833c4a029d90519"
      ],
      "transaction": {
        "from": "0x21af1185734d213d45c6236146fb81e2b0e8b821",
        "to": "0x303b63e785b656ca56ea5a5c1634ab20c98895e1",
        "gas": "0x60cca",
        "value": "0x396c7fdf170cceef",
        "input": "0xc7c7f5b30000000000000000000000000000000000000000000000000000000000000080000000000000000000000000000000000000000000000000396c7fdf170cceef00000000000000000000000000000000000000000000000000000000000000000000000000000000000000005b73c5498c1e3b4dba84de0f1833c4a029d9051900000000000000000000000000000000000000000000000000000000000075d500000000000000000000000021af1185734d213d45c6236146fb81e2b0e8b82100000000000000000000000000000000000000000000021e19e0c9bab240000000000000000000000000000000000000000000000000021e19e0c9bab240000000000000000000000000000000000000000000000000000000000000000000e000000000000000000000000000000000000000000000000000000000000001000000000000000000000000000000000000000000000000000000000000000120000000000000000000000000000000000000000000000000000000000000000000000000000000000000000000000000000000000000000000000000000000000000000000000000000000000000000000000000000000000000000000000000",
        "nonce": "0x66",
        "chainId": "0x89"
      },
      "additionalContracts": [],
      "isFixedGasLimit": false
    }
  ],
  "receipts": [
    {
      "status": "0x1",
      "cumulativeGasUsed": "0x4c229c",
      "logs": [
        {
          "address": "0x3d2bd0e15829aa5c362a4144fdf4a1112fa29b5c",
          "topics": [
            "0x8c5be1e5ebec7d5bd14f71427d1e84f3dd0314c0f7b2291e5b200ac8c7c3b925",
            "0x00000000000000000000000021af1185734d213d45c6236146fb81e2b0e8b821",
            "0x000000000000000000000000303b63e785b656ca56ea5a5c1634ab20c98895e1"
          ],
          "data": "0x00000000000000000000000000000000000000000000021e19e0c9bab2400000",
          "blockHash": "0x70256fbc7a7cd35eeea4a4636b71e711e1942061d6c97b1a3a507aebc8aa00a2",
          "blockNumber": "0x3ba8285",
          "transactionHash": "0x8ce74a7bc3e6335c9ebe0dc216dc7663e8ab4386a26ee46046ea5306c0bdf49c",
          "transactionIndex": "0x27",
          "logIndex": "0xad",
          "removed": false
        },
        {
          "address": "0x0000000000000000000000000000000000001010",
          "topics": [
            "0x4dfe1bbbcf077ddc3e01291eea2d5c70c2b422b415d95645b9adcfd678cb1d63",
            "0x0000000000000000000000000000000000000000000000000000000000001010",
            "0x00000000000000000000000021af1185734d213d45c6236146fb81e2b0e8b821",
            "0x0000000000000000000000009ead03f7136fc6b4bdb0780b00a1c14ae5a8b6d0"
          ],
          "data": "0x0000000000000000000000000000000000000000000000000004ecb2325feb6b00000000000000000000000000000000000000000000000096a8872af49d32910000000000000000000000000000000000000000000002c872a1a19a9d55f4b100000000000000000000000000000000000000000000000096a39a78c23d47260000000000000000000000000000000000000000000002c872a68e4ccfb5e01c",
          "blockHash": "0x70256fbc7a7cd35eeea4a4636b71e711e1942061d6c97b1a3a507aebc8aa00a2",
          "blockNumber": "0x3ba8285",
          "transactionHash": "0x8ce74a7bc3e6335c9ebe0dc216dc7663e8ab4386a26ee46046ea5306c0bdf49c",
          "transactionIndex": "0x27",
          "logIndex": "0xae",
          "removed": false
        }
      ],
      "logsBloom": "0x40000000000000000000000000080000000000000000000000000000000000000000000000001000000000000000000000008000000000000000000000200000000000042000000000000000000000800000000000000000000100000000000000000000000000000000000000000800000000000000000080004000000000000040000000040000000000000000000000000000000000000000000000000000220000000000000000000000000000000000000000000000000080080000004000000000000000000001000000000000000000000000000000120000000000000010000000000000000000000000000000000000000000000000000000100000",
      "type": "0x2",
      "transactionHash": "0x8ce74a7bc3e6335c9ebe0dc216dc7663e8ab4386a26ee46046ea5306c0bdf49c",
      "transactionIndex": "0x27",
      "blockHash": "0x70256fbc7a7cd35eeea4a4636b71e711e1942061d6c97b1a3a507aebc8aa00a2",
      "blockNumber": "0x3ba8285",
      "gasUsed": "0xb47d",
      "effectiveGasPrice": "0x6fc23ac1c",
      "from": "0x21af1185734d213d45c6236146fb81e2b0e8b821",
      "to": "0x3d2bd0e15829aa5c362a4144fdf4a1112fa29b5c",
      "contractAddress": null
    },
    {
      "status": "0x1",
      "cumulativeGasUsed": "0x5083e9",
      "logs": [
        {
          "address": "0x0000000000000000000000000000000000001010",
          "topics": [
            "0xe6497e3ee548a3372136af2fcb0696db31fc6cf20260707645068bd3fe97f3c4",
            "0x0000000000000000000000000000000000000000000000000000000000001010",
            "0x00000000000000000000000021af1185734d213d45c6236146fb81e2b0e8b821",
            "0x000000000000000000000000303b63e785b656ca56ea5a5c1634ab20c98895e1"
          ],
          "data": "0x000000000000000000000000000000000000000000000000396c7fdf170cceef0000000000000000000000000000000000000000000000009679584e194f5acd00000000000000000000000000000000000000000000000000000000000000000000000000000000000000000000000000000000000000005d0cd86f02428bde000000000000000000000000000000000000000000000000396c7fdf170cceef",
          "blockHash": "0x70256fbc7a7cd35eeea4a4636b71e711e1942061d6c97b1a3a507aebc8aa00a2",
          "blockNumber": "0x3ba8285",
          "transactionHash": "0xe5d9c22d2afc05e4767131c5b30b609ce0d719324c108f11ad63b9f362cc63b1",
          "transactionIndex": "0x28",
          "logIndex": "0xaf",
          "removed": false
        },
        {
          "address": "0x3d2bd0e15829aa5c362a4144fdf4a1112fa29b5c",
          "topics": [
            "0xddf252ad1be2c89b69c2b068fc378daa952ba7f163c4a11628f55a4df523b3ef",
            "0x00000000000000000000000021af1185734d213d45c6236146fb81e2b0e8b821",
            "0x000000000000000000000000303b63e785b656ca56ea5a5c1634ab20c98895e1"
          ],
          "data": "0x00000000000000000000000000000000000000000000021e19e0c9bab2400000",
          "blockHash": "0x70256fbc7a7cd35eeea4a4636b71e711e1942061d6c97b1a3a507aebc8aa00a2",
          "blockNumber": "0x3ba8285",
          "transactionHash": "0xe5d9c22d2afc05e4767131c5b30b609ce0d719324c108f11ad63b9f362cc63b1",
          "transactionIndex": "0x28",
          "logIndex": "0xb0",
          "removed": false
        },
        {
          "address": "0x0000000000000000000000000000000000001010",
          "topics": [
            "0xe6497e3ee548a3372136af2fcb0696db31fc6cf20260707645068bd3fe97f3c4",
            "0x0000000000000000000000000000000000000000000000000000000000001010",
            "0x000000000000000000000000303b63e785b656ca56ea5a5c1634ab20c98895e1",
            "0x0000000000000000000000001a44076050125825900e736c501f859c50fe728c"
          ],
          "data": "0x000000000000000000000000000000000000000000000000396c7fdf170cceef000000000000000000000000000000000000000000000000396c7fdf170cceef00000000000000000000000000000000000000000000000000000000000000000000000000000000000000000000000000000000000000000000000000000000000000000000000000000000000000000000000000000000396c7fdf170cceef",
          "blockHash": "0x70256fbc7a7cd35eeea4a4636b71e711e1942061d6c97b1a3a507aebc8aa00a2",
          "blockNumber": "0x3ba8285",
          "transactionHash": "0xe5d9c22d2afc05e4767131c5b30b609ce0d719324c108f11ad63b9f362cc63b1",
          "transactionIndex": "0x28",
          "logIndex": "0xb1",
          "removed": false
        },
        {
          "address": "0x6c26c61a97006888ea9e4fa36584c7df57cd9da3",
          "topics": [
            "0x61ed099e74a97a1d7f8bb0952a88ca8b7b8ebd00c126ea04671f92a81213318a"
          ],
          "data": "0x000000000000000000000000cd3f213ad101472e1713c72b1697e727c803885b000000000000000000000000000000000000000000000000119fbcfe4a2057d1",
          "blockHash": "0x70256fbc7a7cd35eeea4a4636b71e711e1942061d6c97b1a3a507aebc8aa00a2",
          "blockNumber": "0x3ba8285",
          "transactionHash": "0xe5d9c22d2afc05e4767131c5b30b609ce0d719324c108f11ad63b9f362cc63b1",
          "transactionIndex": "0x28",
          "logIndex": "0xb2",
          "removed": false
        },
        {
          "address": "0x6c26c61a97006888ea9e4fa36584c7df57cd9da3",
          "topics": [
            "0x07ea52d82345d6e838192107d8fd7123d9c2ec8e916cd0aad13fd2b60db24644"
          ],
          "data": "0x000000000000000000000000000000000000000000000000000000000000006000000000000000000000000000000000000000000000000000000000000000a000000000000000000000000000000000000000000000000000000000000000e0000000000000000000000000000000000000000000000000000000000000000100000000000000000000000023de2fe932d9043291f870324b74f820e11dc81a0000000000000000000000000000000000000000000000000000000000000001000000000000000000000000c79f0b1bcb7cdae9f9ba547dcfc57cbfcd2993a5000000000000000000000000000000000000000000000000000000000000000200000000000000000000000000000000000000000000000013e7080c966fb4f200000000000000000000000000000000000000000000000013e5bad4367cc22c",
          "blockHash": "0x70256fbc7a7cd35eeea4a4636b71e711e1942061d6c97b1a3a507aebc8aa00a2",
          "blockNumber": "0x3ba8285",
          "transactionHash": "0xe5d9c22d2afc05e4767131c5b30b609ce0d719324c108f11ad63b9f362cc63b1",
          "transactionIndex": "0x28",
          "logIndex": "0xb3",
          "removed": false
        },
        {
          "address": "0x1a44076050125825900e736c501f859c50fe728c",
          "topics": [
            "0x1ab700d4ced0c005b164c0f789fd09fcbb0156d4c2041b8a3bfbcd961cd1567f"
          ],
          "data": "0x000000000000000000000000000000000000000000000000000000000000006000000000000000000000000000000000000000000000000000000000000001200000000000000000000000006c26c61a97006888ea9e4fa36584c7df57cd9da300000000000000000000000000000000000000000000000000000000000000990100000000000000010000759d000000000000000000000000303b63e785b656ca56ea5a5c1634ab20c98895e1000075d5000000000000000000000000b0588f9a9cade7cd5f194a5fe77acd6a58250f824676c03152b1cef4f90f2edb304d67718112853822efe1ee720530f77e16dd5900000000000000000000000021af1185734d213d45c6236146fb81e2b0e8b82100000002540be4000000000000000000000000000000000000000000000000000000000000000000000000000000160003010011010000000000000000000000000001388000000000000000000000",
          "blockHash": "0x70256fbc7a7cd35eeea4a4636b71e711e1942061d6c97b1a3a507aebc8aa00a2",
          "blockNumber": "0x3ba8285",
          "transactionHash": "0xe5d9c22d2afc05e4767131c5b30b609ce0d719324c108f11ad63b9f362cc63b1",
          "transactionIndex": "0x28",
          "logIndex": "0xb4",
          "removed": false
        },
        {
          "address": "0x0000000000000000000000000000000000001010",
          "topics": [
            "0xe6497e3ee548a3372136af2fcb0696db31fc6cf20260707645068bd3fe97f3c4",
            "0x0000000000000000000000000000000000000000000000000000000000001010",
            "0x0000000000000000000000001a44076050125825900e736c501f859c50fe728c",
            "0x0000000000000000000000006c26c61a97006888ea9e4fa36584c7df57cd9da3"
          ],
          "data": "0x000000000000000000000000000000000000000000000000396c7fdf170cceef000000000000000000000000000000000000000000000000396c7fdf170cceef0000000000000000000000000000000000000000000003073d4b395cf3414796000000000000000000000000000000000000000000000000000000000000000000000000000000000000000000000000000000000000030776b7b93c0a4e1685",
          "blockHash": "0x70256fbc7a7cd35eeea4a4636b71e711e1942061d6c97b1a3a507aebc8aa00a2",
          "blockNumber": "0x3ba8285",
          "transactionHash": "0xe5d9c22d2afc05e4767131c5b30b609ce0d719324c108f11ad63b9f362cc63b1",
          "transactionIndex": "0x28",
          "logIndex": "0xb5",
          "removed": false
        },
        {
          "address": "0x303b63e785b656ca56ea5a5c1634ab20c98895e1",
          "topics": [
            "0x85496b760a4b7f8d66384b9df21b381f5d1b1e79f229a47aaf4c232edc2fe59a",
            "0x4676c03152b1cef4f90f2edb304d67718112853822efe1ee720530f77e16dd59",
            "0x00000000000000000000000021af1185734d213d45c6236146fb81e2b0e8b821"
          ],
          "data": "0x00000000000000000000000000000000000000000000000000000000000075d500000000000000000000000000000000000000000000021e19e0c9bab240000000000000000000000000000000000000000000000000021e19e0c9bab2400000",
          "blockHash": "0x70256fbc7a7cd35eeea4a4636b71e711e1942061d6c97b1a3a507aebc8aa00a2",
          "blockNumber": "0x3ba8285",
          "transactionHash": "0xe5d9c22d2afc05e4767131c5b30b609ce0d719324c108f11ad63b9f362cc63b1",
          "transactionIndex": "0x28",
          "logIndex": "0xb6",
          "removed": false
        },
        {
          "address": "0x0000000000000000000000000000000000001010",
          "topics": [
            "0x4dfe1bbbcf077ddc3e01291eea2d5c70c2b422b415d95645b9adcfd678cb1d63",
            "0x0000000000000000000000000000000000000000000000000000000000001010",
            "0x00000000000000000000000021af1185734d213d45c6236146fb81e2b0e8b821",
            "0x0000000000000000000000009ead03f7136fc6b4bdb0780b00a1c14ae5a8b6d0"
          ],
          "data": "0x000000000000000000000000000000000000000000000000001e98320b05651b00000000000000000000000000000000000000000000000096a39a78c22e78e50000000000000000000000000000000000000000000002c872a68e4ccfb5e01c00000000000000000000000000000000000000000000000096850246b72913ca0000000000000000000000000000000000000000000002c872c5267edabb4537",
          "blockHash": "0x70256fbc7a7cd35eeea4a4636b71e711e1942061d6c97b1a3a507aebc8aa00a2",
          "blockNumber": "0x3ba8285",
          "transactionHash": "0xe5d9c22d2afc05e4767131c5b30b609ce0d719324c108f11ad63b9f362cc63b1",
          "transactionIndex": "0x28",
          "logIndex": "0xb7",
          "removed": false
        }
      ],
      "logsBloom": "0x400000000000000000000480000800000000000000000000000000040010000000000040000010000000001000020000000080000000000000000000000000000000820420100000004000080000008000000000000000000001000000000000000000000000000080000000000008000000000000100000802040100000000000400000000400000800000800000000000000000000000000000100000000002000000080000000001000000000000000200000004000000004c00800000040000000020000000000010000800000000000000000008010001a8000000000000000040000000000000000000000082000000000018000000000000000100000",
      "type": "0x2",
      "transactionHash": "0xe5d9c22d2afc05e4767131c5b30b609ce0d719324c108f11ad63b9f362cc63b1",
      "transactionIndex": "0x28",
      "blockHash": "0x70256fbc7a7cd35eeea4a4636b71e711e1942061d6c97b1a3a507aebc8aa00a2",
      "blockNumber": "0x3ba8285",
      "gasUsed": "0x4614d",
      "effectiveGasPrice": "0x6fc23ac1c",
      "from": "0x21af1185734d213d45c6236146fb81e2b0e8b821",
      "to": "0x303b63e785b656ca56ea5a5c1634ab20c98895e1",
      "contractAddress": null
    }
  ],
  "libraries": [],
  "pending": [],
  "returns": {},
  "timestamp": 1727900550,
  "chain": 137,
  "commit": "d9dcac6"
}