{
  "transactions": [
    {
      "hash": "0x7a7a6a8d1f787abe891eadb7317e3c30a5efaa9974ffb3f7ff2fdbe17b4028d8",
      "transactionType": "CALL",
      "contractName": null,
      "contractAddress": "0x3d2bD0e15829AA5C362a4144FdF4A1112fa29B5c",
      "function": "approve(address,uint256)",
      "arguments": [
        "0x303b63e785B656ca56ea5A5C1634Ab20C98895e1",
        "500000000000000000000000"
      ],
      "transaction": {
        "from": "0x21aF1185734D213D45C6236146fb81E2b0E8b821",
        "to": "0x3d2bD0e15829AA5C362a4144FdF4A1112fa29B5c",
        "gas": "0xf94b",
        "value": "0x0",
        "input": "0x095ea7b3000000000000000000000000303b63e785b656ca56ea5a5c1634ab20c98895e10000000000000000000000000000000000000000000069e10de76676d0800000",
        "nonce": "0x11c",
        "chainId": "0x89"
      },
      "additionalContracts": [],
      "isFixedGasLimit": false
    },
    {
      "hash": "0x8b58a45219d08c45e855c31b675c1be4eadd34d784b87991df470ac55043d50d",
      "transactionType": "CALL",
      "contractName": null,
      "contractAddress": "0x303b63e785B656ca56ea5A5C1634Ab20C98895e1",
      "function": "send((uint32,bytes32,uint256,uint256,bytes,bytes,bytes),(uint256,uint256),address)",
      "arguments": [
        "(30184, 0x00000000000000000000000021af1185734d213d45c6236146fb81e2b0e8b821, 500000000000000000000000, 500000000000000000000000, 0x0003010011010000000000000000000000000007a120, 0x, 0x)",
        "(467586432898035019, 0)",
        "0x5b73C5498c1E3b4dbA84de0F1833c4a029d90519"
      ],
      "transaction": {
        "from": "0x21aF1185734D213D45C6236146fb81E2b0E8b821",
        "to": "0x303b63e785B656ca56ea5A5C1634Ab20C98895e1",
        "gas": "0x5d32d",
        "value": "0x67d336222aded4b",
        "input": "0xc7c7f5b30000000000000000000000000000000000000000000000000000000000000080000000000000000000000000000000000000000000000000067d336222aded4b00000000000000000000000000000000000000000000000000000000000000000000000000000000000000005b73c5498c1e3b4dba84de0f1833c4a029d9051900000000000000000000000000000000000000000000000000000000000075e800000000000000000000000021af1185734d213d45c6236146fb81e2b0e8b8210000000000000000000000000000000000000000000069e10de76676d08000000000000000000000000000000000000000000000000069e10de76676d080000000000000000000000000000000000000000000000000000000000000000000e00000000000000000000000000000000000000000000000000000000000000120000000000000000000000000000000000000000000000000000000000000014000000000000000000000000000000000000000000000000000000000000000160003010011010000000000000000000000000007a1200000000000000000000000000000000000000000000000000000000000000000000000000000000000000000000000000000000000000000000000000000000000000000000000000000",
        "nonce": "0x11d",
        "chainId": "0x89"
      },
      "additionalContracts": [],
      "isFixedGasLimit": false
    },
    {
      "hash": "0xcb0675e4e896e23f61f1d1d30674bb0e7e12feb985f826df88e265018383b106",
      "transactionType": "CALL",
      "contractName": null,
      "contractAddress": "0x3d2bD0e15829AA5C362a4144FdF4A1112fa29B5c",
      "function": "approve(address,uint256)",
      "arguments": [
        "0x303b63e785B656ca56ea5A5C1634Ab20C98895e1",
        "500000000000000000000000"
      ],
      "transaction": {
        "from": "0x21aF1185734D213D45C6236146fb81E2b0E8b821",
        "to": "0x3d2bD0e15829AA5C362a4144FdF4A1112fa29B5c",
        "gas": "0xf94b",
        "value": "0x0",
        "input": "0x095ea7b3000000000000000000000000303b63e785b656ca56ea5a5c1634ab20c98895e10000000000000000000000000000000000000000000069e10de76676d0800000",
        "nonce": "0x11e",
        "chainId": "0x89"
      },
      "additionalContracts": [],
      "isFixedGasLimit": false
    },
    {
      "hash": "0x6c6c1f505728d0093f4538138a5da264312badc807eae65a7089b6866287d9a7",
      "transactionType": "CALL",
      "contractName": null,
      "contractAddress": "0x303b63e785B656ca56ea5A5C1634Ab20C98895e1",
      "function": "send((uint32,bytes32,uint256,uint256,bytes,bytes,bytes),(uint256,uint256),address)",
      "arguments": [
        "(30184, 0x00000000000000000000000021af1185734d213d45c6236146fb81e2b0e8b821, 500000000000000000000000, 500000000000000000000000, 0x0003010011010000000000000000000000000007a120, 0x, 0x)",
        "(467586432898035019, 0)",
        "0x5b73C5498c1E3b4dbA84de0F1833c4a029d90519"
      ],
      "transaction": {
        "from": "0x21aF1185734D213D45C6236146fb81E2b0E8b821",
        "to": "0x303b63e785B656ca56ea5A5C1634Ab20C98895e1",
        "gas": "0x5d32d",
        "value": "0x67d336222aded4b",
        "input": "0xc7c7f5b30000000000000000000000000000000000000000000000000000000000000080000000000000000000000000000000000000000000000000067d336222aded4b00000000000000000000000000000000000000000000000000000000000000000000000000000000000000005b73c5498c1e3b4dba84de0f1833c4a029d9051900000000000000000000000000000000000000000000000000000000000075e800000000000000000000000021af1185734d213d45c6236146fb81e2b0e8b8210000000000000000000000000000000000000000000069e10de76676d08000000000000000000000000000000000000000000000000069e10de76676d080000000000000000000000000000000000000000000000000000000000000000000e00000000000000000000000000000000000000000000000000000000000000120000000000000000000000000000000000000000000000000000000000000014000000000000000000000000000000000000000000000000000000000000000160003010011010000000000000000000000000007a1200000000000000000000000000000000000000000000000000000000000000000000000000000000000000000000000000000000000000000000000000000000000000000000000000000",
        "nonce": "0x11f",
        "chainId": "0x89"
      },
      "additionalContracts": [],
      "isFixedGasLimit": false
    }
  ],
  "receipts": [
    {
      "status": "0x1",
      "cumulativeGasUsed": "0x68d039",
      "logs": [
        {
          "address": "0x3d2bD0e15829AA5C362a4144FdF4A1112fa29B5c",
          "topics": [
            "0x8c5be1e5ebec7d5bd14f71427d1e84f3dd0314c0f7b2291e5b200ac8c7c3b925",
            "0x00000000000000000000000021af1185734d213d45c6236146fb81e2b0e8b821",
            "0x000000000000000000000000303b63e785b656ca56ea5a5c1634ab20c98895e1"
          ],
          "data": "0x0000000000000000000000000000000000000000000069e10de76676d0800000",
          "blockHash": "0xbdea43bb99ad00e3ef35778844f7d61cedf180938e0eaf2c81b57b81e5384bce",
          "blockNumber": "0x3f91e0e",
          "transactionHash": "0x7a7a6a8d1f787abe891eadb7317e3c30a5efaa9974ffb3f7ff2fdbe17b4028d8",
          "transactionIndex": "0x35",
          "logIndex": "0xc6",
          "removed": false
        },
        {
          "address": "0x0000000000000000000000000000000000001010",
          "topics": [
            "0x4dfe1bbbcf077ddc3e01291eea2d5c70c2b422b415d95645b9adcfd678cb1d63",
            "0x0000000000000000000000000000000000000000000000000000000000001010",
            "0x00000000000000000000000021af1185734d213d45c6236146fb81e2b0e8b821",
            "0x0000000000000000000000001efecb61a2f80aa34d3b9218b564a64d05946290"
          ],
          "data": "0x00000000000000000000000000000000000000000000000000045b5741859bdc00000000000000000000000000000000000000000000000059ff3b4043040b6e000000000000000000000000000000000000000000000bac197d6d67b31bc95000000000000000000000000000000000000000000000000059fadfe9017e6f92000000000000000000000000000000000000000000000bac1981c8bef4a1652c",
          "blockHash": "0xbdea43bb99ad00e3ef35778844f7d61cedf180938e0eaf2c81b57b81e5384bce",
          "blockNumber": "0x3f91e0e",
          "transactionHash": "0x7a7a6a8d1f787abe891eadb7317e3c30a5efaa9974ffb3f7ff2fdbe17b4028d8",
          "transactionIndex": "0x35",
          "logIndex": "0xc7",
          "removed": false
        }
      ],
      "logsBloom": "0x40000000000000000000000000080000000000000000000000000000000000000000000000001000000000000000000000008000000000000000000000200000200000042000000000000000000000800000000000000000000100000000000000000000000000000000000000000800000000000000000080004000000000000000000000000000000000000000000000000000000000000000000000000000220000000000000000000000000000000000000000000000000080080000004000000100000000000001000000000000000000000000000000100000000000002010000000000000000000000000000000000000000000000000000000100000",
      "type": "0x2",
      "transactionHash": "0x7a7a6a8d1f787abe891eadb7317e3c30a5efaa9974ffb3f7ff2fdbe17b4028d8",
      "transactionIndex": "0x35",
      "blockHash": "0xbdea43bb99ad00e3ef35778844f7d61cedf180938e0eaf2c81b57b81e5384bce",
      "blockNumber": "0x3f91e0e",
      "gasUsed": "0xb47d",
      "effectiveGasPrice": "0x90fb430da",
      "from": "0x21aF1185734D213D45C6236146fb81E2b0E8b821",
      "to": "0x3d2bD0e15829AA5C362a4144FdF4A1112fa29B5c",
      "contractAddress": null
    },
    {
      "status": "0x1",
      "cumulativeGasUsed": "0x6d07cf",
      "logs": [
        {
          "address": "0x0000000000000000000000000000000000001010",
          "topics": [
            "0xe6497e3ee548a3372136af2fcb0696db31fc6cf20260707645068bd3fe97f3c4",
            "0x0000000000000000000000000000000000000000000000000000000000001010",
            "0x00000000000000000000000021af1185734d213d45c6236146fb81e2b0e8b821",
            "0x000000000000000000000000303b63e785b656ca56ea5a5c1634ab20c98895e1"
          ],
          "data": "0x000000000000000000000000000000000000000000000000067d336222aded4b00000000000000000000000000000000000000000000000059c40fbaaa7ca4aa00000000000000000000000000000000000000000000000000000000000000000000000000000000000000000000000000000000000000005346dc5887ceb75f000000000000000000000000000000000000000000000000067d336222aded4b",
          "blockHash": "0xbdea43bb99ad00e3ef35778844f7d61cedf180938e0eaf2c81b57b81e5384bce",
          "blockNumber": "0x3f91e0e",
          "transactionHash": "0x8b58a45219d08c45e855c31b675c1be4eadd34d784b87991df470ac55043d50d",
          "transactionIndex": "0x36",
          "logIndex": "0xc8",
          "removed": false
        },
        {
          "address": "0x3d2bD0e15829AA5C362a4144FdF4A1112fa29B5c",
          "topics": [
            "0xddf252ad1be2c89b69c2b068fc378daa952ba7f163c4a11628f55a4df523b3ef",
            "0x00000000000000000000000021af1185734d213d45c6236146fb81e2b0e8b821",
            "0x000000000000000000000000303b63e785b656ca56ea5a5c1634ab20c98895e1"
          ],
          "data": "0x0000000000000000000000000000000000000000000069e10de76676d0800000",
          "blockHash": "0xbdea43bb99ad00e3ef35778844f7d61cedf180938e0eaf2c81b57b81e5384bce",
          "blockNumber": "0x3f91e0e",
          "transactionHash": "0x8b58a45219d08c45e855c31b675c1be4eadd34d784b87991df470ac55043d50d",
          "transactionIndex": "0x36",
          "logIndex": "0xc9",
          "removed": false
        },
        {
          "address": "0x0000000000000000000000000000000000001010",
          "topics": [
            "0xe6497e3ee548a3372136af2fcb0696db31fc6cf20260707645068bd3fe97f3c4",
            "0x0000000000000000000000000000000000000000000000000000000000001010",
            "0x000000000000000000000000303b63e785b656ca56ea5a5c1634ab20c98895e1",
            "0x0000000000000000000000001a44076050125825900e736c501f859c50fe728c"
          ],
          "data": "0x000000000000000000000000000000000000000000000000067d336222aded4b000000000000000000000000000000000000000000000000067d336222aded4b00000000000000000000000000000000000000000000000000000000000000000000000000000000000000000000000000000000000000000000000000000000000000000000000000000000000000000000000000000000067d336222aded4b",
          "blockHash": "0xbdea43bb99ad00e3ef35778844f7d61cedf180938e0eaf2c81b57b81e5384bce",
          "blockNumber": "0x3f91e0e",
          "transactionHash": "0x8b58a45219d08c45e855c31b675c1be4eadd34d784b87991df470ac55043d50d",
          "transactionIndex": "0x36",
          "logIndex": "0xca",
          "removed": false
        },
        {
          "address": "0x6c26c61a97006888ea9E4FA36584c7df57Cd9dA3",
          "topics": [
            "0x61ed099e74a97a1d7f8bb0952a88ca8b7b8ebd00c126ea04671f92a81213318a"
          ],
          "data": "0x000000000000000000000000cd3f213ad101472e1713c72b1697e727c803885b00000000000000000000000000000000000000000000000003080686176d38ff",
          "blockHash": "0xbdea43bb99ad00e3ef35778844f7d61cedf180938e0eaf2c81b57b81e5384bce",
          "blockNumber": "0x3f91e0e",
          "transactionHash": "0x8b58a45219d08c45e855c31b675c1be4eadd34d784b87991df470ac55043d50d",
          "transactionIndex": "0x36",
          "logIndex": "0xcb",
          "removed": false
        },
        {
          "address": "0x6c26c61a97006888ea9E4FA36584c7df57Cd9dA3",
          "topics": [
            "0x07ea52d82345d6e838192107d8fd7123d9c2ec8e916cd0aad13fd2b60db24644"
          ],
          "data": "0x000000000000000000000000000000000000000000000000000000000000006000000000000000000000000000000000000000000000000000000000000000c000000000000000000000000000000000000000000000000000000000000000e0000000000000000000000000000000000000000000000000000000000000000200000000000000000000000023de2fe932d9043291f870324b74f820e11dc81a000000000000000000000000d56e4eab23cb81f43168f9f45211eb027b9ac7cc000000000000000000000000000000000000000000000000000000000000000000000000000000000000000000000000000000000000000000000000000000020000000000000000000000000000000000000000000000000038adfa659c075e000000000000000000000000000000000000000000000000033c7ee1a5a4acee",
          "blockHash": "0xbdea43bb99ad00e3ef35778844f7d61cedf180938e0eaf2c81b57b81e5384bce",
          "blockNumber": "0x3f91e0e",
          "transactionHash": "0x8b58a45219d08c45e855c31b675c1be4eadd34d784b87991df470ac55043d50d",
          "transactionIndex": "0x36",
          "logIndex": "0xcc",
          "removed": false
        },
        {
          "address": "0x1a44076050125825900e736c501f859c50fE728c",
          "topics": [
            "0x1ab700d4ced0c005b164c0f789fd09fcbb0156d4c2041b8a3bfbcd961cd1567f"
          ],
          "data": "0x000000000000000000000000000000000000000000000000000000000000006000000000000000000000000000000000000000000000000000000000000001200000000000000000000000006c26c61a97006888ea9e4fa36584c7df57cd9da300000000000000000000000000000000000000000000000000000000000000990100000000000005e60000759d000000000000000000000000303b63e785b656ca56ea5a5c1634ab20c98895e1000075e8000000000000000000000000474f4cb764df9da079d94052fed39625c147c12c3af74173f184e505c73fa1aa4a2cfd87062267cc1579794f0fcac89be4980c4100000000000000000000000021af1185734d213d45c6236146fb81e2b0e8b821000000746a52880000000000000000000000000000000000000000000000000000000000000000000000000000002a0003010011010000000000000000000000000001adb0010011010000000000000000000000000007a12000000000000000000000000000000000000000000000",
          "blockHash": "0xbdea43bb99ad00e3ef35778844f7d61cedf180938e0eaf2c81b57b81e5384bce",
          "blockNumber": "0x3f91e0e",
          "transactionHash": "0x8b58a45219d08c45e855c31b675c1be4eadd34d784b87991df470ac55043d50d",
          "transactionIndex": "0x36",
          "logIndex": "0xcd",
          "removed": false
        },
        {
          "address": "0x0000000000000000000000000000000000001010",
          "topics": [
            "0xe6497e3ee548a3372136af2fcb0696db31fc6cf20260707645068bd3fe97f3c4",
            "0x0000000000000000000000000000000000000000000000000000000000001010",
            "0x0000000000000000000000001a44076050125825900e736c501f859c50fe728c",
            "0x0000000000000000000000006c26c61a97006888ea9e4fa36584c7df57cd9da3"
          ],
          "data": "0x000000000000000000000000000000000000000000000000067d336222aded4b000000000000000000000000000000000000000000000000067d336222aded4b00000000000000000000000000000000000000000000076eaca5163c95d00b43000000000000000000000000000000000000000000000000000000000000000000000000000000000000000000000000000000000000076eb322499eb87df88e",
          "blockHash": "0xbdea43bb99ad00e3ef35778844f7d61cedf180938e0eaf2c81b57b81e5384bce",
          "blockNumber": "0x3f91e0e",
          "transactionHash": "0x8b58a45219d08c45e855c31b675c1be4eadd34d784b87991df470ac55043d50d",
          "transactionIndex": "0x36",
          "logIndex": "0xce",
          "removed": false
        },
        {
          "address": "0x303b63e785B656ca56ea5A5C1634Ab20C98895e1",
          "topics": [
            "0x85496b760a4b7f8d66384b9df21b381f5d1b1e79f229a47aaf4c232edc2fe59a",
            "0x3af74173f184e505c73fa1aa4a2cfd87062267cc1579794f0fcac89be4980c41",
            "0x00000000000000000000000021af1185734d213d45c6236146fb81e2b0e8b821"
          ],
          "data": "0x00000000000000000000000000000000000000000000000000000000000075e80000000000000000000000000000000000000000000069e10de76676d08000000000000000000000000000000000000000000000000069e10de76676d0800000",
          "blockHash": "0xbdea43bb99ad00e3ef35778844f7d61cedf180938e0eaf2c81b57b81e5384bce",
          "blockNumber": "0x3f91e0e",
          "transactionHash": "0x8b58a45219d08c45e855c31b675c1be4eadd34d784b87991df470ac55043d50d",
          "transactionIndex": "0x36",
          "logIndex": "0xcf",
          "removed": false
        },
        {
          "address": "0x0000000000000000000000000000000000001010",
          "topics": [
            "0x4dfe1bbbcf077ddc3e01291eea2d5c70c2b422b415d95645b9adcfd678cb1d63",
            "0x0000000000000000000000000000000000000000000000000000000000001010",
            "0x00000000000000000000000021af1185734d213d45c6236146fb81e2b0e8b821",
            "0x0000000000000000000000001efecb61a2f80aa34d3b9218b564a64d05946290"
          ],
          "data": "0x000000000000000000000000000000000000000000000000001a0f61d1d12f0800000000000000000000000000000000000000000000000059f8d7c8e5aee8fc000000000000000000000000000000000000000000000bac1981c8bef4a1652c00000000000000000000000000000000000000000000000059dec86713ddb9f4000000000000000000000000000000000000000000000bac199bd820c6729434",
          "blockHash": "0xbdea43bb99ad00e3ef35778844f7d61cedf180938e0eaf2c81b57b81e5384bce",
          "blockNumber": "0x3f91e0e",
          "transactionHash": "0x8b58a45219d08c45e855c31b675c1be4eadd34d784b87991df470ac55043d50d",
          "transactionIndex": "0x36",
          "logIndex": "0xd0",
          "removed": false
        }
      ],
      "logsBloom": "0x400000000000000000000480000800000000000000000000000000040010000000000040000010000000001000020000000080000000000000000000000000002000820420100000004000080000008000000000000000000001000000000000000000000000000080000000000008000000000000100000802040100000000000000000000000000000000800000000000000000000000000000100000000002000000080000000001000000004000000000000004000000004c1080000004000000102000000000001000280000000000000000000801000188000000000002000040000000000000000000000002000000000018000000000000000100000",
      "type": "0x2",
      "transactionHash": "0x8b58a45219d08c45e855c31b675c1be4eadd34d784b87991df470ac55043d50d",
      "transactionIndex": "0x36",
      "blockHash": "0xbdea43bb99ad00e3ef35778844f7d61cedf180938e0eaf2c81b57b81e5384bce",
      "blockNumber": "0x3f91e0e",
      "gasUsed": "0x43796",
      "effectiveGasPrice": "0x90fb430da",
      "from": "0x21aF1185734D213D45C6236146fb81E2b0E8b821",
      "to": "0x303b63e785B656ca56ea5A5C1634Ab20C98895e1",
      "contractAddress": null
    },
    {
      "status": "0x1",
      "cumulativeGasUsed": "0x6dbc4c",
      "logs": [
        {
          "address": "0x3d2bD0e15829AA5C362a4144FdF4A1112fa29B5c",
          "topics": [
            "0x8c5be1e5ebec7d5bd14f71427d1e84f3dd0314c0f7b2291e5b200ac8c7c3b925",
            "0x00000000000000000000000021af1185734d213d45c6236146fb81e2b0e8b821",
            "0x000000000000000000000000303b63e785b656ca56ea5a5c1634ab20c98895e1"
          ],
          "data": "0x0000000000000000000000000000000000000000000069e10de76676d0800000",
          "blockHash": "0xbdea43bb99ad00e3ef35778844f7d61cedf180938e0eaf2c81b57b81e5384bce",
          "blockNumber": "0x3f91e0e",
          "transactionHash": "0xcb0675e4e896e23f61f1d1d30674bb0e7e12feb985f826df88e265018383b106",
          "transactionIndex": "0x37",
          "logIndex": "0xd1",
          "removed": false
        },
        {
          "address": "0x0000000000000000000000000000000000001010",
          "topics": [
            "0x4dfe1bbbcf077ddc3e01291eea2d5c70c2b422b415d95645b9adcfd678cb1d63",
            "0x0000000000000000000000000000000000000000000000000000000000001010",
            "0x00000000000000000000000021af1185734d213d45c6236146fb81e2b0e8b821",
            "0x0000000000000000000000001efecb61a2f80aa34d3b9218b564a64d05946290"
          ],
          "data": "0x00000000000000000000000000000000000000000000000000045b5741859bdc00000000000000000000000000000000000000000000000053556de7158585f5000000000000000000000000000000000000000000000bac199bd820c67294340000000000000000000000000000000000000000000000005351128fd3ffea19000000000000000000000000000000000000000000000bac19a0337807f83010",
          "blockHash": "0xbdea43bb99ad00e3ef35778844f7d61cedf180938e0eaf2c81b57b81e5384bce",
          "blockNumber": "0x3f91e0e",
          "transactionHash": "0xcb0675e4e896e23f61f1d1d30674bb0e7e12feb985f826df88e265018383b106",
          "transactionIndex": "0x37",
          "logIndex": "0xd2",
          "removed": false
        }
      ],
      "logsBloom": "0x40000000000000000000000000080000000000000000000000000000000000000000000000001000000000000000000000008000000000000000000000200000200000042000000000000000000000800000000000000000000100000000000000000000000000000000000000000800000000000000000080004000000000000000000000000000000000000000000000000000000000000000000000000000220000000000000000000000000000000000000000000000000080080000004000000100000000000001000000000000000000000000000000100000000000002010000000000000000000000000000000000000000000000000000000100000",
      "type": "0x2",
      "transactionHash": "0xcb0675e4e896e23f61f1d1d30674bb0e7e12feb985f826df88e265018383b106",
      "transactionIndex": "0x37",
      "blockHash": "0xbdea43bb99ad00e3ef35778844f7d61cedf180938e0eaf2c81b57b81e5384bce",
      "blockNumber": "0x3f91e0e",
      "gasUsed": "0xb47d",
      "effectiveGasPrice": "0x90fb430da",
      "from": "0x21aF1185734D213D45C6236146fb81E2b0E8b821",
      "to": "0x3d2bD0e15829AA5C362a4144FdF4A1112fa29B5c",
      "contractAddress": null
    },
    {
      "status": "0x1",
      "cumulativeGasUsed": "0x71f3e2",
      "logs": [
        {
          "address": "0x0000000000000000000000000000000000001010",
          "topics": [
            "0xe6497e3ee548a3372136af2fcb0696db31fc6cf20260707645068bd3fe97f3c4",
            "0x0000000000000000000000000000000000000000000000000000000000001010",
            "0x00000000000000000000000021af1185734d213d45c6236146fb81e2b0e8b821",
            "0x000000000000000000000000303b63e785b656ca56ea5a5c1634ab20c98895e1"
          ],
          "data": "0x000000000000000000000000000000000000000000000000067d336222aded4b000000000000000000000000000000000000000000000000531a42617cfe1f3100000000000000000000000000000000000000000000000000000000000000000000000000000000000000000000000000000000000000004c9d0eff5a5031e6000000000000000000000000000000000000000000000000067d336222aded4b",
          "blockHash": "0xbdea43bb99ad00e3ef35778844f7d61cedf180938e0eaf2c81b57b81e5384bce",
          "blockNumber": "0x3f91e0e",
          "transactionHash": "0x6c6c1f505728d0093f4538138a5da264312badc807eae65a7089b6866287d9a7",
          "transactionIndex": "0x38",
          "logIndex": "0xd3",
          "removed": false
        },
        {
          "address": "0x3d2bD0e15829AA5C362a4144FdF4A1112fa29B5c",
          "topics": [
            "0xddf252ad1be2c89b69c2b068fc378daa952ba7f163c4a11628f55a4df523b3ef",
            "0x00000000000000000000000021af1185734d213d45c6236146fb81e2b0e8b821",
            "0x000000000000000000000000303b63e785b656ca56ea5a5c1634ab20c98895e1"
          ],
          "data": "0x0000000000000000000000000000000000000000000069e10de76676d0800000",
          "blockHash": "0xbdea43bb99ad00e3ef35778844f7d61cedf180938e0eaf2c81b57b81e5384bce",
          "blockNumber": "0x3f91e0e",
          "transactionHash": "0x6c6c1f505728d0093f4538138a5da264312badc807eae65a7089b6866287d9a7",
          "transactionIndex": "0x38",
          "logIndex": "0xd4",
          "removed": false
        },
        {
          "address": "0x0000000000000000000000000000000000001010",
          "topics": [
            "0xe6497e3ee548a3372136af2fcb0696db31fc6cf20260707645068bd3fe97f3c4",
            "0x0000000000000000000000000000000000000000000000000000000000001010",
            "0x000000000000000000000000303b63e785b656ca56ea5a5c1634ab20c98895e1",
            "0x0000000000000000000000001a44076050125825900e736c501f859c50fe728c"
          ],
          "data": "0x000000000000000000000000000000000000000000000000067d336222aded4b000000000000000000000000000000000000000000000000067d336222aded4b00000000000000000000000000000000000000000000000000000000000000000000000000000000000000000000000000000000000000000000000000000000000000000000000000000000000000000000000000000000067d336222aded4b",
          "blockHash": "0xbdea43bb99ad00e3ef35778844f7d61cedf180938e0eaf2c81b57b81e5384bce",
          "blockNumber": "0x3f91e0e",
          "transactionHash": "0x6c6c1f505728d0093f4538138a5da264312badc807eae65a7089b6866287d9a7",
          "transactionIndex": "0x38",
          "logIndex": "0xd5",
          "removed": false
        },
        {
          "address": "0x6c26c61a97006888ea9E4FA36584c7df57Cd9dA3",
          "topics": [
            "0x61ed099e74a97a1d7f8bb0952a88ca8b7b8ebd00c126ea04671f92a81213318a"
          ],
          "data": "0x000000000000000000000000cd3f213ad101472e1713c72b1697e727c803885b00000000000000000000000000000000000000000000000003080686176d38ff",
          "blockHash": "0xbdea43bb99ad00e3ef35778844f7d61cedf180938e0eaf2c81b57b81e5384bce",
          "blockNumber": "0x3f91e0e",
          "transactionHash": "0x6c6c1f505728d0093f4538138a5da264312badc807eae65a7089b6866287d9a7",
          "transactionIndex": "0x38",
          "logIndex": "0xd6",
          "removed": false
        },
        {
          "address": "0x6c26c61a97006888ea9E4FA36584c7df57Cd9dA3",
          "topics": [
            "0x07ea52d82345d6e838192107d8fd7123d9c2ec8e916cd0aad13fd2b60db24644"
          ],
          "data": "0x000000000000000000000000000000000000000000000000000000000000006000000000000000000000000000000000000000000000000000000000000000c000000000000000000000000000000000000000000000000000000000000000e0000000000000000000000000000000000000000000000000000000000000000200000000000000000000000023de2fe932d9043291f870324b74f820e11dc81a000000000000000000000000d56e4eab23cb81f43168f9f45211eb027b9ac7cc000000000000000000000000000000000000000000000000000000000000000000000000000000000000000000000000000000000000000000000000000000020000000000000000000000000000000000000000000000000038adfa659c075e000000000000000000000000000000000000000000000000033c7ee1a5a4acee",
          "blockHash": "0xbdea43bb99ad00e3ef35778844f7d61cedf180938e0eaf2c81b57b81e5384bce",
          "blockNumber": "0x3f91e0e",
          "transactionHash": "0x6c6c1f505728d0093f4538138a5da264312badc807eae65a7089b6866287d9a7",
          "transactionIndex": "0x38",
          "logIndex": "0xd7",
          "removed": false
        },
        {
          "address": "0x1a44076050125825900e736c501f859c50fE728c",
          "topics": [
            "0x1ab700d4ced0c005b164c0f789fd09fcbb0156d4c2041b8a3bfbcd961cd1567f"
          ],
          "data": "0x000000000000000000000000000000000000000000000000000000000000006000000000000000000000000000000000000000000000000000000000000001200000000000000000000000006c26c61a97006888ea9e4fa36584c7df57cd9da300000000000000000000000000000000000000000000000000000000000000990100000000000005e70000759d000000000000000000000000303b63e785b656ca56ea5a5c1634ab20c98895e1000075e8000000000000000000000000474f4cb764df9da079d94052fed39625c147c12c3f0bdcf0189812e8e448f1de22c55af05bd8f089de27e0e1604438d7cb58aa4e00000000000000000000000021af1185734d213d45c6236146fb81e2b0e8b821000000746a52880000000000000000000000000000000000000000000000000000000000000000000000000000002a0003010011010000000000000000000000000001adb0010011010000000000000000000000000007a12000000000000000000000000000000000000000000000",
          "blockHash": "0xbdea43bb99ad00e3ef35778844f7d61cedf180938e0eaf2c81b57b81e5384bce",
          "blockNumber": "0x3f91e0e",
          "transactionHash": "0x6c6c1f505728d0093f4538138a5da264312badc807eae65a7089b6866287d9a7",
          "transactionIndex": "0x38",
          "logIndex": "0xd8",
          "removed": false
        },
        {
          "address": "0x0000000000000000000000000000000000001010",
          "topics": [
            "0xe6497e3ee548a3372136af2fcb0696db31fc6cf20260707645068bd3fe97f3c4",
            "0x0000000000000000000000000000000000000000000000000000000000001010",
            "0x0000000000000000000000001a44076050125825900e736c501f859c50fe728c",
            "0x0000000000000000000000006c26c61a97006888ea9e4fa36584c7df57cd9da3"
          ],
          "data": "0x000000000000000000000000000000000000000000000000067d336222aded4b000000000000000000000000000000000000000000000000067d336222aded4b00000000000000000000000000000000000000000000076eb322499eb87df88e000000000000000000000000000000000000000000000000000000000000000000000000000000000000000000000000000000000000076eb99f7d00db2be5d9",
          "blockHash": "0xbdea43bb99ad00e3ef35778844f7d61cedf180938e0eaf2c81b57b81e5384bce",
          "blockNumber": "0x3f91e0e",
          "transactionHash": "0x6c6c1f505728d0093f4538138a5da264312badc807eae65a7089b6866287d9a7",
          "transactionIndex": "0x38",
          "logIndex": "0xd9",
          "removed": false
        },
        {
          "address": "0x303b63e785B656ca56ea5A5C1634Ab20C98895e1",
          "topics": [
            "0x85496b760a4b7f8d66384b9df21b381f5d1b1e79f229a47aaf4c232edc2fe59a",
            "0x3f0bdcf0189812e8e448f1de22c55af05bd8f089de27e0e1604438d7cb58aa4e",
            "0x00000000000000000000000021af1185734d213d45c6236146fb81e2b0e8b821"
          ],
          "data": "0x00000000000000000000000000000000000000000000000000000000000075e80000000000000000000000000000000000000000000069e10de76676d08000000000000000000000000000000000000000000000000069e10de76676d0800000",
          "blockHash": "0xbdea43bb99ad00e3ef35778844f7d61cedf180938e0eaf2c81b57b81e5384bce",
          "blockNumber": "0x3f91e0e",
          "transactionHash": "0x6c6c1f505728d0093f4538138a5da264312badc807eae65a7089b6866287d9a7",
          "transactionIndex": "0x38",
          "logIndex": "0xda",
          "removed": false
        },
        {
          "address": "0x0000000000000000000000000000000000001010",
          "topics": [
            "0x4dfe1bbbcf077ddc3e01291eea2d5c70c2b422b415d95645b9adcfd678cb1d63",
            "0x0000000000000000000000000000000000000000000000000000000000001010",
            "0x00000000000000000000000021af1185734d213d45c6236146fb81e2b0e8b821",
            "0x0000000000000000000000001efecb61a2f80aa34d3b9218b564a64d05946290"
          ],
          "data": "0x000000000000000000000000000000000000000000000000001a0f61d1d12f08000000000000000000000000000000000000000000000000534f0a6fb8306383000000000000000000000000000000000000000000000bac19a0337807f830100000000000000000000000000000000000000000000000005334fb0de65f347b000000000000000000000000000000000000000000000bac19ba42d9d9c95f18",
          "blockHash": "0xbdea43bb99ad00e3ef35778844f7d61cedf180938e0eaf2c81b57b81e5384bce",
          "blockNumber": "0x3f91e0e",
          "transactionHash": "0x6c6c1f505728d0093f4538138a5da264312badc807eae65a7089b6866287d9a7",
          "transactionIndex": "0x38",
          "logIndex": "0xdb",
          "removed": false
        }
      ],
      "logsBloom": "0x400000000000000020000480000800000000000000000000000000040010000000000040000010000000001000020000000080000000000000000020000000002000820420100000004000080000008000000000000000000001000000000000000000000000000080000000000008000000000000100000802040100000010000000000000000000000000800000000000000000000000000000100000000002000000080000000001000000000000000000000004000000004c0080000004000000102000000000001000080000000000000000000801000188000000000002000040000000000000000000000002000000000018000000000000000100000",
      "type": "0x2",
      "transactionHash": "0x6c6c1f505728d0093f4538138a5da264312badc807eae65a7089b6866287d9a7",
      "transactionIndex": "0x38",
      "blockHash": "0xbdea43bb99ad00e3ef35778844f7d61cedf180938e0eaf2c81b57b81e5384bce",
      "blockNumber": "0x3f91e0e",
      "gasUsed": "0x43796",
      "effectiveGasPrice": "0x90fb430da",
      "from": "0x21aF1185734D213D45C6236146fb81E2b0E8b821",
      "to": "0x303b63e785B656ca56ea5A5C1634Ab20C98895e1",
      "contractAddress": null
    }
  ],
  "libraries": [],
  "pending": [],
  "returns": {},
  "timestamp": 1736791863,
  "chain": 137,
  "commit": "9bc9372"
}