{
  "transactions": [
    {
      "hash": "0x761142ae4f029a03ff37b0bb12e821cf1c99424dec83da29aa1aa7febc6cfbfe",
      "transactionType": "CALL",
      "contractName": null,
      "contractAddress": "0x3d2bD0e15829AA5C362a4144FdF4A1112fa29B5c",
      "function": "approve(address,uint256)",
      "arguments": [
        "0x303b63e785B656ca56ea5A5C1634Ab20C98895e1",
        "500000000000000000000000"
      ],
      "transaction": {
        "from": "0x21aF1185734D213D45C6236146fb81E2b0E8b821",
        "to": "0x3d2bD0e15829AA5C362a4144FdF4A1112fa29B5c",
        "gas": "0xf94b",
        "value": "0x0",
        "input": "0x095ea7b3000000000000000000000000303b63e785b656ca56ea5a5c1634ab20c98895e10000000000000000000000000000000000000000000069e10de76676d0800000",
        "nonce": "0x124",
        "chainId": "0x89"
      },
      "additionalContracts": [],
      "isFixedGasLimit": false
    },
    {
      "hash": "0xa3e70d9abf37ca79352811ae56de5319cb58c786394f41b4fb14d6e8cff65bb3",
      "transactionType": "CALL",
      "contractName": "BonsaiOFTAdapter",
      "contractAddress": "0x303b63e785B656ca56ea5A5C1634Ab20C98895e1",
      "function": "send((uint32,bytes32,uint256,uint256,bytes,bytes,bytes),(uint256,uint256),address)",
      "arguments": [
        "(30184, 0x00000000000000000000000021af1185734d213d45c6236146fb81e2b0e8b821, 500000000000000000000000, 500000000000000000000000, 0x0003010011010000000000000000000000000007a120, 0x, 0x)",
        "(508570277304588591, 0)",
        "0x5b73C5498c1E3b4dbA84de0F1833c4a029d90519"
      ],
      "transaction": {
        "from": "0x21aF1185734D213D45C6236146fb81E2b0E8b821",
        "to": "0x303b63e785B656ca56ea5A5C1634Ab20C98895e1",
        "gas": "0x5d32d",
        "value": "0x70ecdf9020fd92f",
        "input": "0xc7c7f5b30000000000000000000000000000000000000000000000000000000000000080000000000000000000000000000000000000000000000000070ecdf9020fd92f00000000000000000000000000000000000000000000000000000000000000000000000000000000000000005b73c5498c1e3b4dba84de0f1833c4a029d9051900000000000000000000000000000000000000000000000000000000000075e800000000000000000000000021af1185734d213d45c6236146fb81e2b0e8b8210000000000000000000000000000000000000000000069e10de76676d08000000000000000000000000000000000000000000000000069e10de76676d080000000000000000000000000000000000000000000000000000000000000000000e00000000000000000000000000000000000000000000000000000000000000120000000000000000000000000000000000000000000000000000000000000014000000000000000000000000000000000000000000000000000000000000000160003010011010000000000000000000000000007a1200000000000000000000000000000000000000000000000000000000000000000000000000000000000000000000000000000000000000000000000000000000000000000000000000000",
        "nonce": "0x125",
        "chainId": "0x89"
      },
      "additionalContracts": [],
      "isFixedGasLimit": false
    },
    {
      "hash": "0x4c2ef3d86287de0b893f8a6336ddd0d3de62d5769a55bac546486dbf3b9fe60a",
      "transactionType": "CALL",
      "contractName": null,
      "contractAddress": "0x3d2bD0e15829AA5C362a4144FdF4A1112fa29B5c",
      "function": "approve(address,uint256)",
      "arguments": [
        "0x303b63e785B656ca56ea5A5C1634Ab20C98895e1",
        "500000000000000000000000"
      ],
      "transaction": {
        "from": "0x21aF1185734D213D45C6236146fb81E2b0E8b821",
        "to": "0x3d2bD0e15829AA5C362a4144FdF4A1112fa29B5c",
        "gas": "0xf94b",
        "value": "0x0",
        "input": "0x095ea7b3000000000000000000000000303b63e785b656ca56ea5a5c1634ab20c98895e10000000000000000000000000000000000000000000069e10de76676d0800000",
        "nonce": "0x126",
        "chainId": "0x89"
      },
      "additionalContracts": [],
      "isFixedGasLimit": false
    },
    {
      "hash": "0x491706cd9a9d2ca49d712acab8fd88ec3eb28c1de92d0cb5dcd33e0682e9dcc7",
      "transactionType": "CALL",
      "contractName": "BonsaiOFTAdapter",
      "contractAddress": "0x303b63e785B656ca56ea5A5C1634Ab20C98895e1",
      "function": "send((uint32,bytes32,uint256,uint256,bytes,bytes,bytes),(uint256,uint256),address)",
      "arguments": [
        "(30184, 0x00000000000000000000000021af1185734d213d45c6236146fb81e2b0e8b821, 500000000000000000000000, 500000000000000000000000, 0x0003010011010000000000000000000000000007a120, 0x, 0x)",
        "(508570277304588591, 0)",
        "0x5b73C5498c1E3b4dbA84de0F1833c4a029d90519"
      ],
      "transaction": {
        "from": "0x21aF1185734D213D45C6236146fb81E2b0E8b821",
        "to": "0x303b63e785B656ca56ea5A5C1634Ab20C98895e1",
        "gas": "0x5d32d",
        "value": "0x70ecdf9020fd92f",
        "input": "0xc7c7f5b30000000000000000000000000000000000000000000000000000000000000080000000000000000000000000000000000000000000000000070ecdf9020fd92f00000000000000000000000000000000000000000000000000000000000000000000000000000000000000005b73c5498c1e3b4dba84de0f1833c4a029d9051900000000000000000000000000000000000000000000000000000000000075e800000000000000000000000021af1185734d213d45c6236146fb81e2b0e8b8210000000000000000000000000000000000000000000069e10de76676d08000000000000000000000000000000000000000000000000069e10de76676d080000000000000000000000000000000000000000000000000000000000000000000e00000000000000000000000000000000000000000000000000000000000000120000000000000000000000000000000000000000000000000000000000000014000000000000000000000000000000000000000000000000000000000000000160003010011010000000000000000000000000007a1200000000000000000000000000000000000000000000000000000000000000000000000000000000000000000000000000000000000000000000000000000000000000000000000000000",
        "nonce": "0x127",
        "chainId": "0x89"
      },
      "additionalContracts": [],
      "isFixedGasLimit": false
    }
  ],
  "receipts": [
    {
      "status": "0x1",
      "cumulativeGasUsed": "0x5d9972",
      "logs": [
        {
          "address": "0x3d2bD0e15829AA5C362a4144FdF4A1112fa29B5c",
          "topics": [
            "0x8c5be1e5ebec7d5bd14f71427d1e84f3dd0314c0f7b2291e5b200ac8c7c3b925",
            "0x00000000000000000000000021af1185734d213d45c6236146fb81e2b0e8b821",
            "0x000000000000000000000000303b63e785b656ca56ea5a5c1634ab20c98895e1"
          ],
          "data": "0x0000000000000000000000000000000000000000000069e10de76676d0800000",
          "blockHash": "0x220b9983c1a2a2e1ca32c6e418fbdb5658df19efadcdba703661b8b90ea16462",
          "blockNumber": "0x40260f7",
          "transactionHash": "0x761142ae4f029a03ff37b0bb12e821cf1c99424dec83da29aa1aa7febc6cfbfe",
          "transactionIndex": "0x3d",
          "logIndex": "0x127",
          "removed": false
        },
        {
          "address": "0x0000000000000000000000000000000000001010",
          "topics": [
            "0x4dfe1bbbcf077ddc3e01291eea2d5c70c2b422b415d95645b9adcfd678cb1d63",
            "0x0000000000000000000000000000000000000000000000000000000000001010",
            "0x00000000000000000000000021af1185734d213d45c6236146fb81e2b0e8b821",
            "0x0000000000000000000000000e94b9b3fabd95338b8b23c36caae1d640e1339f"
          ],
          "data": "0x0000000000000000000000000000000000000000000000000004ecb2325afc000000000000000000000000000000000000000000000000003ef4bc4a7cb28fb2000000000000000000000000000000000000000000000658a6b5dbbe1488c8250000000000000000000000000000000000000000000000003eefcf984a5793b2000000000000000000000000000000000000000000000658a6bac87046e3c425",
          "blockHash": "0x220b9983c1a2a2e1ca32c6e418fbdb5658df19efadcdba703661b8b90ea16462",
          "blockNumber": "0x40260f7",
          "transactionHash": "0x761142ae4f029a03ff37b0bb12e821cf1c99424dec83da29aa1aa7febc6cfbfe",
          "transactionIndex": "0x3d",
          "logIndex": "0x128",
          "removed": false
        }
      ],
      "logsBloom": "0x40000000008000000000000000080000000000000000000000000000000000000000000000001000000000000000000000008000000000000000000000200000000000042000000000000000000000800000000000000000000100000000000000000000000000000000000000000800000000000000000080004000000000000000000000000000000000000000000000000000000000000000000000000000220000000000000000000000000000000000000000000000000080080000004000000000000000000001000000000000000000000000040000100000000000000010000000000000000800000000000000000000000000000000000000100000",
      "type": "0x2",
      "transactionHash": "0x761142ae4f029a03ff37b0bb12e821cf1c99424dec83da29aa1aa7febc6cfbfe",
      "transactionIndex": "0x3d",
      "blockHash": "0x220b9983c1a2a2e1ca32c6e418fbdb5658df19efadcdba703661b8b90ea16462",
      "blockNumber": "0x40260f7",
      "gasUsed": "0xb47d",
      "effectiveGasPrice": "0x6fc23ac1e",
      "from": "0x21aF1185734D213D45C6236146fb81E2b0E8b821",
      "to": "0x3d2bD0e15829AA5C362a4144FdF4A1112fa29B5c",
      "contractAddress": null
    },
    {
      "status": "0x1",
      "cumulativeGasUsed": "0x61f62e",
      "logs": [
        {
          "address": "0x0000000000000000000000000000000000001010",
          "topics": [
            "0xe6497e3ee548a3372136af2fcb0696db31fc6cf20260707645068bd3fe97f3c4",
            "0x0000000000000000000000000000000000000000000000000000000000001010",
            "0x00000000000000000000000021af1185734d213d45c6236146fb81e2b0e8b821",
            "0x000000000000000000000000303b63e785b656ca56ea5a5c1634ab20c98895e1"
          ],
          "data": "0x000000000000000000000000000000000000000000000000070ecdf9020fd92f0000000000000000000000000000000000000000000000003ec71fda348a71c6000000000000000000000000000000000000000000000000000000000000000000000000000000000000000000000000000000000000000037b851e1327a9897000000000000000000000000000000000000000000000000070ecdf9020fd92f",
          "blockHash": "0x220b9983c1a2a2e1ca32c6e418fbdb5658df19efadcdba703661b8b90ea16462",
          "blockNumber": "0x40260f7",
          "transactionHash": "0xa3e70d9abf37ca79352811ae56de5319cb58c786394f41b4fb14d6e8cff65bb3",
          "transactionIndex": "0x3e",
          "logIndex": "0x129",
          "removed": false
        },
        {
          "address": "0x3d2bD0e15829AA5C362a4144FdF4A1112fa29B5c",
          "topics": [
            "0xddf252ad1be2c89b69c2b068fc378daa952ba7f163c4a11628f55a4df523b3ef",
            "0x00000000000000000000000021af1185734d213d45c6236146fb81e2b0e8b821",
            "0x000000000000000000000000303b63e785b656ca56ea5a5c1634ab20c98895e1"
          ],
          "data": "0x0000000000000000000000000000000000000000000069e10de76676d0800000",
          "blockHash": "0x220b9983c1a2a2e1ca32c6e418fbdb5658df19efadcdba703661b8b90ea16462",
          "blockNumber": "0x40260f7",
          "transactionHash": "0xa3e70d9abf37ca79352811ae56de5319cb58c786394f41b4fb14d6e8cff65bb3",
          "transactionIndex": "0x3e",
          "logIndex": "0x12a",
          "removed": false
        },
        {
          "address": "0x0000000000000000000000000000000000001010",
          "topics": [
            "0xe6497e3ee548a3372136af2fcb0696db31fc6cf20260707645068bd3fe97f3c4",
            "0x0000000000000000000000000000000000000000000000000000000000001010",
            "0x000000000000000000000000303b63e785b656ca56ea5a5c1634ab20c98895e1",
            "0x0000000000000000000000001a44076050125825900e736c501f859c50fe728c"
          ],
          "data": "0x000000000000000000000000000000000000000000000000070ecdf9020fd92f000000000000000000000000000000000000000000000000070ecdf9020fd92f00000000000000000000000000000000000000000000000000000000000000000000000000000000000000000000000000000000000000000000000000000000000000000000000000000000000000000000000000000000070ecdf9020fd92f",
          "blockHash": "0x220b9983c1a2a2e1ca32c6e418fbdb5658df19efadcdba703661b8b90ea16462",
          "blockNumber": "0x40260f7",
          "transactionHash": "0xa3e70d9abf37ca79352811ae56de5319cb58c786394f41b4fb14d6e8cff65bb3",
          "transactionIndex": "0x3e",
          "logIndex": "0x12b",
          "removed": false
        },
        {
          "address": "0x6c26c61a97006888ea9E4FA36584c7df57Cd9dA3",
          "topics": [
            "0x61ed099e74a97a1d7f8bb0952a88ca8b7b8ebd00c126ea04671f92a81213318a"
          ],
          "data": "0x000000000000000000000000cd3f213ad101472e1713c72b1697e727c803885b000000000000000000000000000000000000000000000000031ffde6de4806d9",
          "blockHash": "0x220b9983c1a2a2e1ca32c6e418fbdb5658df19efadcdba703661b8b90ea16462",
          "blockNumber": "0x40260f7",
          "transactionHash": "0xa3e70d9abf37ca79352811ae56de5319cb58c786394f41b4fb14d6e8cff65bb3",
          "transactionIndex": "0x3e",
          "logIndex": "0x12c",
          "removed": false
        },
        {
          "address": "0x6c26c61a97006888ea9E4FA36584c7df57Cd9dA3",
          "topics": [
            "0x07ea52d82345d6e838192107d8fd7123d9c2ec8e916cd0aad13fd2b60db24644"
          ],
          "data": "0x000000000000000000000000000000000000000000000000000000000000006000000000000000000000000000000000000000000000000000000000000000c000000000000000000000000000000000000000000000000000000000000000e0000000000000000000000000000000000000000000000000000000000000000200000000000000000000000023de2fe932d9043291f870324b74f820e11dc81a000000000000000000000000d56e4eab23cb81f43168f9f45211eb027b9ac7cc0000000000000000000000000000000000000000000000000000000000000000000000000000000000000000000000000000000000000000000000000000000200000000000000000000000000000000000000000000000000359e43691449770000000000000000000000000000000000000000000000000393825019a3bb77",
          "blockHash": "0x220b9983c1a2a2e1ca32c6e418fbdb5658df19efadcdba703661b8b90ea16462",
          "blockNumber": "0x40260f7",
          "transactionHash": "0xa3e70d9abf37ca79352811ae56de5319cb58c786394f41b4fb14d6e8cff65bb3",
          "transactionIndex": "0x3e",
          "logIndex": "0x12d",
          "removed": false
        },
        {
          "address": "0x1a44076050125825900e736c501f859c50fE728c",
          "topics": [
            "0x1ab700d4ced0c005b164c0f789fd09fcbb0156d4c2041b8a3bfbcd961cd1567f"
          ],
          "data": "0x000000000000000000000000000000000000000000000000000000000000006000000000000000000000000000000000000000000000000000000000000001200000000000000000000000006c26c61a97006888ea9e4fa36584c7df57cd9da300000000000000000000000000000000000000000000000000000000000000990100000000000006620000759d000000000000000000000000303b63e785b656ca56ea5a5c1634ab20c98895e1000075e8000000000000000000000000474f4cb764df9da079d94052fed39625c147c12c27c2334dbd5c9a98d88cb44963ef025e07032efdaecf0389ff742a9d9875cb4100000000000000000000000021af1185734d213d45c6236146fb81e2b0e8b821000000746a52880000000000000000000000000000000000000000000000000000000000000000000000000000002a0003010011010000000000000000000000000001adb0010011010000000000000000000000000007a12000000000000000000000000000000000000000000000",
          "blockHash": "0x220b9983c1a2a2e1ca32c6e418fbdb5658df19efadcdba703661b8b90ea16462",
          "blockNumber": "0x40260f7",
          "transactionHash": "0xa3e70d9abf37ca79352811ae56de5319cb58c786394f41b4fb14d6e8cff65bb3",
          "transactionIndex": "0x3e",
          "logIndex": "0x12e",
          "removed": false
        },
        {
          "address": "0x0000000000000000000000000000000000001010",
          "topics": [
            "0xe6497e3ee548a3372136af2fcb0696db31fc6cf20260707645068bd3fe97f3c4",
            "0x0000000000000000000000000000000000000000000000000000000000001010",
            "0x0000000000000000000000001a44076050125825900e736c501f859c50fe728c",
            "0x0000000000000000000000006c26c61a97006888ea9e4fa36584c7df57cd9da3"
          ],
          "data": "0x00000000000000000000000000000000000000000000000006e91e7a61000bc7000000000000000000000000000000000000000000000000070ecdf9020fd92f000000000000000000000000000000000000000000000c1767c68ecdd5c260600000000000000000000000000000000000000000000000000025af7ea10fcd68000000000000000000000000000000000000000000000c176eafad4836c26c27",
          "blockHash": "0x220b9983c1a2a2e1ca32c6e418fbdb5658df19efadcdba703661b8b90ea16462",
          "blockNumber": "0x40260f7",
          "transactionHash": "0xa3e70d9abf37ca79352811ae56de5319cb58c786394f41b4fb14d6e8cff65bb3",
          "transactionIndex": "0x3e",
          "logIndex": "0x12f",
          "removed": false
        },
        {
          "address": "0x0000000000000000000000000000000000001010",
          "topics": [
            "0xe6497e3ee548a3372136af2fcb0696db31fc6cf20260707645068bd3fe97f3c4",
            "0x0000000000000000000000000000000000000000000000000000000000001010",
            "0x0000000000000000000000001a44076050125825900e736c501f859c50fe728c",
            "0x0000000000000000000000005b73c5498c1e3b4dba84de0f1833c4a029d90519"
          ],
          "data": "0x0000000000000000000000000000000000000000000000000025af7ea10fcd680000000000000000000000000000000000000000000000000025af7ea10fcd680000000000000000000000000000000000000000000000000de0b6b3a764000000000000000000000000000000000000000000000000000000000000000000000000000000000000000000000000000000000000000000000e0666324873cd68",
          "blockHash": "0x220b9983c1a2a2e1ca32c6e418fbdb5658df19efadcdba703661b8b90ea16462",
          "blockNumber": "0x40260f7",
          "transactionHash": "0xa3e70d9abf37ca79352811ae56de5319cb58c786394f41b4fb14d6e8cff65bb3",
          "transactionIndex": "0x3e",
          "logIndex": "0x130",
          "removed": false
        },
        {
          "address": "0x303b63e785B656ca56ea5A5C1634Ab20C98895e1",
          "topics": [
            "0x85496b760a4b7f8d66384b9df21b381f5d1b1e79f229a47aaf4c232edc2fe59a",
            "0x27c2334dbd5c9a98d88cb44963ef025e07032efdaecf0389ff742a9d9875cb41",
            "0x00000000000000000000000021af1185734d213d45c6236146fb81e2b0e8b821"
          ],
          "data": "0x00000000000000000000000000000000000000000000000000000000000075e80000000000000000000000000000000000000000000069e10de76676d08000000000000000000000000000000000000000000000000069e10de76676d0800000",
          "blockHash": "0x220b9983c1a2a2e1ca32c6e418fbdb5658df19efadcdba703661b8b90ea16462",
          "blockNumber": "0x40260f7",
          "transactionHash": "0xa3e70d9abf37ca79352811ae56de5319cb58c786394f41b4fb14d6e8cff65bb3",
          "transactionIndex": "0x3e",
          "logIndex": "0x131",
          "removed": false
        },
        {
          "address": "0x0000000000000000000000000000000000001010",
          "topics": [
            "0x4dfe1bbbcf077ddc3e01291eea2d5c70c2b422b415d95645b9adcfd678cb1d63",
            "0x0000000000000000000000000000000000000000000000000000000000001010",
            "0x00000000000000000000000021af1185734d213d45c6236146fb81e2b0e8b821",
            "0x0000000000000000000000000e94b9b3fabd95338b8b23c36caae1d640e1339f"
          ],
          "data": "0x000000000000000000000000000000000000000000000000001e784cac0250000000000000000000000000000000000000000000000000003eefcf984a426d0c000000000000000000000000000000000000000000000658a6bac87046e3c4250000000000000000000000000000000000000000000000003ed1574b9e401d0c000000000000000000000000000000000000000000000658a6d940bcf2e61425",
          "blockHash": "0x220b9983c1a2a2e1ca32c6e418fbdb5658df19efadcdba703661b8b90ea16462",
          "blockNumber": "0x40260f7",
          "transactionHash": "0xa3e70d9abf37ca79352811ae56de5319cb58c786394f41b4fb14d6e8cff65bb3",
          "transactionIndex": "0x3e",
          "logIndex": "0x132",
          "removed": false
        }
      ],
      "logsBloom": "0x400000000088000000000480000800000000000000000000000000040010000000000040000010000000001000020000000080000000000000000000000000000000820420100000004000080000008000000000000000000001000000000000000000000000000080000000000008000080000200100000802040100000000000000000000000000000000800000000000000000000000000000100000000002000000080000000001000020000000000000000004000040004c0080000004000000002000000000001000080000000000000000000841000188000000000000000040000000000000800000000002000000000018000000000000000100200",
      "type": "0x2",
      "transactionHash": "0xa3e70d9abf37ca79352811ae56de5319cb58c786394f41b4fb14d6e8cff65bb3",
      "transactionIndex": "0x3e",
      "blockHash": "0x220b9983c1a2a2e1ca32c6e418fbdb5658df19efadcdba703661b8b90ea16462",
      "blockNumber": "0x40260f7",
      "gasUsed": "0x45cbc",
      "effectiveGasPrice": "0x6fc23ac1e",
      "from": "0x21aF1185734D213D45C6236146fb81E2b0E8b821",
      "to": "0x303b63e785B656ca56ea5A5C1634Ab20C98895e1",
      "contractAddress": null
    },
    {
      "status": "0x1",
      "cumulativeGasUsed": "0x62aaab",
      "logs": [
        {
          "address": "0x3d2bD0e15829AA5C362a4144FdF4A1112fa29B5c",
          "topics": [
            "0x8c5be1e5ebec7d5bd14f71427d1e84f3dd0314c0f7b2291e5b200ac8c7c3b925",
            "0x00000000000000000000000021af1185734d213d45c6236146fb81e2b0e8b821",
            "0x000000000000000000000000303b63e785b656ca56ea5a5c1634ab20c98895e1"
          ],
          "data": "0x0000000000000000000000000000000000000000000069e10de76676d0800000",
          "blockHash": "0x220b9983c1a2a2e1ca32c6e418fbdb5658df19efadcdba703661b8b90ea16462",
          "blockNumber": "0x40260f7",
          "transactionHash": "0x4c2ef3d86287de0b893f8a6336ddd0d3de62d5769a55bac546486dbf3b9fe60a",
          "transactionIndex": "0x3f",
          "logIndex": "0x133",
          "removed": false
        },
        {
          "address": "0x0000000000000000000000000000000000001010",
          "topics": [
            "0x4dfe1bbbcf077ddc3e01291eea2d5c70c2b422b415d95645b9adcfd678cb1d63",
            "0x0000000000000000000000000000000000000000000000000000000000001010",
            "0x00000000000000000000000021af1185734d213d45c6236146fb81e2b0e8b821",
            "0x0000000000000000000000000e94b9b3fabd95338b8b23c36caae1d640e1339f"
          ],
          "data": "0x0000000000000000000000000000000000000000000000000004ecb2325afc0000000000000000000000000000000000000000000000000037c289529bad65d5000000000000000000000000000000000000000000000658a6d940bcf2e6142500000000000000000000000000000000000000000000000037bd9ca0695269d5000000000000000000000000000000000000000000000658a6de2d6f25411025",
          "blockHash": "0x220b9983c1a2a2e1ca32c6e418fbdb5658df19efadcdba703661b8b90ea16462",
          "blockNumber": "0x40260f7",
          "transactionHash": "0x4c2ef3d86287de0b893f8a6336ddd0d3de62d5769a55bac546486dbf3b9fe60a",
          "transactionIndex": "0x3f",
          "logIndex": "0x134",
          "removed": false
        }
      ],
      "logsBloom": "0x40000000008000000000000000080000000000000000000000000000000000000000000000001000000000000000000000008000000000000000000000200000000000042000000000000000000000800000000000000000000100000000000000000000000000000000000000000800000000000000000080004000000000000000000000000000000000000000000000000000000000000000000000000000220000000000000000000000000000000000000000000000000080080000004000000000000000000001000000000000000000000000040000100000000000000010000000000000000800000000000000000000000000000000000000100000",
      "type": "0x2",
      "transactionHash": "0x4c2ef3d86287de0b893f8a6336ddd0d3de62d5769a55bac546486dbf3b9fe60a",
      "transactionIndex": "0x3f",
      "blockHash": "0x220b9983c1a2a2e1ca32c6e418fbdb5658df19efadcdba703661b8b90ea16462",
      "blockNumber": "0x40260f7",
      "gasUsed": "0xb47d",
      "effectiveGasPrice": "0x6fc23ac1e",
      "from": "0x21aF1185734D213D45C6236146fb81E2b0E8b821",
      "to": "0x3d2bD0e15829AA5C362a4144FdF4A1112fa29B5c",
      "contractAddress": null
    },
    {
      "status": "0x1",
      "cumulativeGasUsed": "0x670767",
      "logs": [
        {
          "address": "0x0000000000000000000000000000000000001010",
          "topics": [
            "0xe6497e3ee548a3372136af2fcb0696db31fc6cf20260707645068bd3fe97f3c4",
            "0x0000000000000000000000000000000000000000000000000000000000001010",
            "0x00000000000000000000000021af1185734d213d45c6236146fb81e2b0e8b821",
            "0x000000000000000000000000303b63e785b656ca56ea5a5c1634ab20c98895e1"
          ],
          "data": "0x000000000000000000000000000000000000000000000000070ecdf9020fd92f0000000000000000000000000000000000000000000000003794ece2538547e9000000000000000000000000000000000000000000000000000000000000000000000000000000000000000000000000000000000000000030861ee951756eba000000000000000000000000000000000000000000000000070ecdf9020fd92f",
          "blockHash": "0x220b9983c1a2a2e1ca32c6e418fbdb5658df19efadcdba703661b8b90ea16462",
          "blockNumber": "0x40260f7",
          "transactionHash": "0x491706cd9a9d2ca49d712acab8fd88ec3eb28c1de92d0cb5dcd33e0682e9dcc7",
          "transactionIndex": "0x40",
          "logIndex": "0x135",
          "removed": false
        },
        {
          "address": "0x3d2bD0e15829AA5C362a4144FdF4A1112fa29B5c",
          "topics": [
            "0xddf252ad1be2c89b69c2b068fc378daa952ba7f163c4a11628f55a4df523b3ef",
            "0x00000000000000000000000021af1185734d213d45c6236146fb81e2b0e8b821",
            "0x000000000000000000000000303b63e785b656ca56ea5a5c1634ab20c98895e1"
          ],
          "data": "0x0000000000000000000000000000000000000000000069e10de76676d0800000",
          "blockHash": "0x220b9983c1a2a2e1ca32c6e418fbdb5658df19efadcdba703661b8b90ea16462",
          "blockNumber": "0x40260f7",
          "transactionHash": "0x491706cd9a9d2ca49d712acab8fd88ec3eb28c1de92d0cb5dcd33e0682e9dcc7",
          "transactionIndex": "0x40",
          "logIndex": "0x136",
          "removed": false
        },
        {
          "address": "0x0000000000000000000000000000000000001010",
          "topics": [
            "0xe6497e3ee548a3372136af2fcb0696db31fc6cf20260707645068bd3fe97f3c4",
            "0x0000000000000000000000000000000000000000000000000000000000001010",
            "0x000000000000000000000000303b63e785b656ca56ea5a5c1634ab20c98895e1",
            "0x0000000000000000000000001a44076050125825900e736c501f859c50fe728c"
          ],
          "data": "0x000000000000000000000000000000000000000000000000070ecdf9020fd92f000000000000000000000000000000000000000000000000070ecdf9020fd92f00000000000000000000000000000000000000000000000000000000000000000000000000000000000000000000000000000000000000000000000000000000000000000000000000000000000000000000000000000000070ecdf9020fd92f",
          "blockHash": "0x220b9983c1a2a2e1ca32c6e418fbdb5658df19efadcdba703661b8b90ea16462",
          "blockNumber": "0x40260f7",
          "transactionHash": "0x491706cd9a9d2ca49d712acab8fd88ec3eb28c1de92d0cb5dcd33e0682e9dcc7",
          "transactionIndex": "0x40",
          "logIndex": "0x137",
          "removed": false
        },
        {
          "address": "0x6c26c61a97006888ea9E4FA36584c7df57Cd9dA3",
          "topics": [
            "0x61ed099e74a97a1d7f8bb0952a88ca8b7b8ebd00c126ea04671f92a81213318a"
          ],
          "data": "0x000000000000000000000000cd3f213ad101472e1713c72b1697e727c803885b000000000000000000000000000000000000000000000000031ffde6de4806d9",
          "blockHash": "0x220b9983c1a2a2e1ca32c6e418fbdb5658df19efadcdba703661b8b90ea16462",
          "blockNumber": "0x40260f7",
          "transactionHash": "0x491706cd9a9d2ca49d712acab8fd88ec3eb28c1de92d0cb5dcd33e0682e9dcc7",
          "transactionIndex": "0x40",
          "logIndex": "0x138",
          "removed": false
        },
        {
          "address": "0x6c26c61a97006888ea9E4FA36584c7df57Cd9dA3",
          "topics": [
            "0x07ea52d82345d6e838192107d8fd7123d9c2ec8e916cd0aad13fd2b60db24644"
          ],
          "data": "0x000000000000000000000000000000000000000000000000000000000000006000000000000000000000000000000000000000000000000000000000000000c000000000000000000000000000000000000000000000000000000000000000e0000000000000000000000000000000000000000000000000000000000000000200000000000000000000000023de2fe932d9043291f870324b74f820e11dc81a000000000000000000000000d56e4eab23cb81f43168f9f45211eb027b9ac7cc0000000000000000000000000000000000000000000000000000000000000000000000000000000000000000000000000000000000000000000000000000000200000000000000000000000000000000000000000000000000359e43691449770000000000000000000000000000000000000000000000000393825019a3bb77",
          "blockHash": "0x220b9983c1a2a2e1ca32c6e418fbdb5658df19efadcdba703661b8b90ea16462",
          "blockNumber": "0x40260f7",
          "transactionHash": "0x491706cd9a9d2ca49d712acab8fd88ec3eb28c1de92d0cb5dcd33e0682e9dcc7",
          "transactionIndex": "0x40",
          "logIndex": "0x139",
          "removed": false
        },
        {
          "address": "0x1a44076050125825900e736c501f859c50fE728c",
          "topics": [
            "0x1ab700d4ced0c005b164c0f789fd09fcbb0156d4c2041b8a3bfbcd961cd1567f"
          ],
          "data": "0x000000000000000000000000000000000000000000000000000000000000006000000000000000000000000000000000000000000000000000000000000001200000000000000000000000006c26c61a97006888ea9e4fa36584c7df57cd9da300000000000000000000000000000000000000000000000000000000000000990100000000000006630000759d000000000000000000000000303b63e785b656ca56ea5a5c1634ab20c98895e1000075e8000000000000000000000000474f4cb764df9da079d94052fed39625c147c12c7bf6f4dda0d00f253f022cdf8e72add30b3f33baf6333977b7d3bb8503625ecc00000000000000000000000021af1185734d213d45c6236146fb81e2b0e8b821000000746a52880000000000000000000000000000000000000000000000000000000000000000000000000000002a0003010011010000000000000000000000000001adb0010011010000000000000000000000000007a12000000000000000000000000000000000000000000000",
          "blockHash": "0x220b9983c1a2a2e1ca32c6e418fbdb5658df19efadcdba703661b8b90ea16462",
          "blockNumber": "0x40260f7",
          "transactionHash": "0x491706cd9a9d2ca49d712acab8fd88ec3eb28c1de92d0cb5dcd33e0682e9dcc7",
          "transactionIndex": "0x40",
          "logIndex": "0x13a",
          "removed": false
        },
        {
          "address": "0x0000000000000000000000000000000000001010",
          "topics": [
            "0xe6497e3ee548a3372136af2fcb0696db31fc6cf20260707645068bd3fe97f3c4",
            "0x0000000000000000000000000000000000000000000000000000000000001010",
            "0x0000000000000000000000001a44076050125825900e736c501f859c50fe728c",
            "0x0000000000000000000000006c26c61a97006888ea9e4fa36584c7df57cd9da3"
          ],
          "data": "0x00000000000000000000000000000000000000000000000006e91e7a61000bc7000000000000000000000000000000000000000000000000070ecdf9020fd92f000000000000000000000000000000000000000000000c176eafad4836c26c270000000000000000000000000000000000000000000000000025af7ea10fcd68000000000000000000000000000000000000000000000c177598cbc297c277ee",
          "blockHash": "0x220b9983c1a2a2e1ca32c6e418fbdb5658df19efadcdba703661b8b90ea16462",
          "blockNumber": "0x40260f7",
          "transactionHash": "0x491706cd9a9d2ca49d712acab8fd88ec3eb28c1de92d0cb5dcd33e0682e9dcc7",
          "transactionIndex": "0x40",
          "logIndex": "0x13b",
          "removed": false
        },
        {
          "address": "0x0000000000000000000000000000000000001010",
          "topics": [
            "0xe6497e3ee548a3372136af2fcb0696db31fc6cf20260707645068bd3fe97f3c4",
            "0x0000000000000000000000000000000000000000000000000000000000001010",
            "0x0000000000000000000000001a44076050125825900e736c501f859c50fe728c",
            "0x0000000000000000000000005b73c5498c1e3b4dba84de0f1833c4a029d90519"
          ],
          "data": "0x0000000000000000000000000000000000000000000000000025af7ea10fcd680000000000000000000000000000000000000000000000000025af7ea10fcd680000000000000000000000000000000000000000000000000e0666324873cd6800000000000000000000000000000000000000000000000000000000000000000000000000000000000000000000000000000000000000000e2c15b0e9839ad0",
          "blockHash": "0x220b9983c1a2a2e1ca32c6e418fbdb5658df19efadcdba703661b8b90ea16462",
          "blockNumber": "0x40260f7",
          "transactionHash": "0x491706cd9a9d2ca49d712acab8fd88ec3eb28c1de92d0cb5dcd33e0682e9dcc7",
          "transactionIndex": "0x40",
          "logIndex": "0x13c",
          "removed": false
        },
        {
          "address": "0x303b63e785B656ca56ea5A5C1634Ab20C98895e1",
          "topics": [
            "0x85496b760a4b7f8d66384b9df21b381f5d1b1e79f229a47aaf4c232edc2fe59a",
            "0x7bf6f4dda0d00f253f022cdf8e72add30b3f33baf6333977b7d3bb8503625ecc",
            "0x00000000000000000000000021af1185734d213d45c6236146fb81e2b0e8b821"
          ],
          "data": "0x00000000000000000000000000000000000000000000000000000000000075e80000000000000000000000000000000000000000000069e10de76676d08000000000000000000000000000000000000000000000000069e10de76676d0800000",
          "blockHash": "0x220b9983c1a2a2e1ca32c6e418fbdb5658df19efadcdba703661b8b90ea16462",
          "blockNumber": "0x40260f7",
          "transactionHash": "0x491706cd9a9d2ca49d712acab8fd88ec3eb28c1de92d0cb5dcd33e0682e9dcc7",
          "transactionIndex": "0x40",
          "logIndex": "0x13d",
          "removed": false
        },
        {
          "address": "0x0000000000000000000000000000000000001010",
          "topics": [
            "0x4dfe1bbbcf077ddc3e01291eea2d5c70c2b422b415d95645b9adcfd678cb1d63",
            "0x0000000000000000000000000000000000000000000000000000000000001010",
            "0x00000000000000000000000021af1185734d213d45c6236146fb81e2b0e8b821",
            "0x0000000000000000000000000e94b9b3fabd95338b8b23c36caae1d640e1339f"
          ],
          "data": "0x000000000000000000000000000000000000000000000000001e784cac02500000000000000000000000000000000000000000000000000037bd9ca0693d432f000000000000000000000000000000000000000000000658a6de2d6f25411025000000000000000000000000000000000000000000000000379f2453bd3af32f000000000000000000000000000000000000000000000658a6fca5bbd1436025",
          "blockHash": "0x220b9983c1a2a2e1ca32c6e418fbdb5658df19efadcdba703661b8b90ea16462",
          "blockNumber": "0x40260f7",
          "transactionHash": "0x491706cd9a9d2ca49d712acab8fd88ec3eb28c1de92d0cb5dcd33e0682e9dcc7",
          "transactionIndex": "0x40",
          "logIndex": "0x13e",
          "removed": false
        }
      ],
      "logsBloom": "0x400000000080000000000480000a00000000000000000000000000040010000000000040000010000000001000020000000080000000000000000000000000000000820420100000004000080000008000000000000000400001000000000000000000000000000080000000000008000080000000100000802040100000000000000000000000000000000800000000000000000000000000000100000000002000000080000000001000020000000800000000004000000004c0080000004000000002000000000001000080000000000000000000841000188000000000000000040000000000000800000000002000000000018000000000000000100200",
      "type": "0x2",
      "transactionHash": "0x491706cd9a9d2ca49d712acab8fd88ec3eb28c1de92d0cb5dcd33e0682e9dcc7",
      "transactionIndex": "0x40",
      "blockHash": "0x220b9983c1a2a2e1ca32c6e418fbdb5658df19efadcdba703661b8b90ea16462",
      "blockNumber": "0x40260f7",
      "gasUsed": "0x45cbc",
      "effectiveGasPrice": "0x6fc23ac1e",
      "from": "0x21aF1185734D213D45C6236146fb81E2b0E8b821",
      "to": "0x303b63e785B656ca56ea5A5C1634Ab20C98895e1",
      "contractAddress": null
    }
  ],
  "libraries": [],
  "pending": [],
  "returns": {},
  "timestamp": 1738103795,
  "chain": 137,
  "commit": "9bc9372"
}