{
  "transactions": [
    {
      "hash": "0x28fc5dc019fdb8268acfe9efb1dba902ca2f411f2e5e175b17b4347db0ce0f32",
      "transactionType": "CALL",
      "contractName": null,
      "contractAddress": "0x3d2bD0e15829AA5C362a4144FdF4A1112fa29B5c",
      "function": "approve(address,uint256)",
      "arguments": [
        "0x303b63e785B656ca56ea5A5C1634Ab20C98895e1",
        "500000000000000000000000"
      ],
      "transaction": {
        "from": "0x21aF1185734D213D45C6236146fb81E2b0E8b821",
        "to": "0x3d2bD0e15829AA5C362a4144FdF4A1112fa29B5c",
        "gas": "0xf94b",
        "value": "0x0",
        "input": "0x095ea7b3000000000000000000000000303b63e785b656ca56ea5a5c1634ab20c98895e10000000000000000000000000000000000000000000069e10de76676d0800000",
        "nonce": "0x109",
        "chainId": "0x89"
      },
      "additionalContracts": [],
      "isFixedGasLimit": false
    },
    {
      "hash": "0x1824448f8b321c237c2261645f20cd04b14d187000040c3db3218f95810d4207",
      "transactionType": "CALL",
      "contractName": null,
      "contractAddress": "0x303b63e785B656ca56ea5A5C1634Ab20C98895e1",
      "function": "send((uint32,bytes32,uint256,uint256,bytes,bytes,bytes),(uint256,uint256),address)",
      "arguments": [
        "(30165, 0x00000000000000000000000021af1185734d213d45c6236146fb81e2b0e8b821, 500000000000000000000000, 500000000000000000000000, 0x0003010011010000000000000000000000000007a120, 0x, 0x)",
        "(3182996651846858109, 0)",
        "0x5b73C5498c1E3b4dbA84de0F1833c4a029d90519"
      ],
      "transaction": {
        "from": "0x21aF1185734D213D45C6236146fb81E2b0E8b821",
        "to": "0x303b63e785B656ca56ea5A5C1634Ab20C98895e1",
        "gas": "0x61f08",
        "value": "0x2c2c46973296f57d",
        "input": "0xc7c7f5b300000000000000000000000000000000000000000000000000000000000000800000000000000000000000000000000000000000000000002c2c46973296f57d00000000000000000000000000000000000000000000000000000000000000000000000000000000000000005b73c5498c1e3b4dba84de0f1833c4a029d9051900000000000000000000000000000000000000000000000000000000000075d500000000000000000000000021af1185734d213d45c6236146fb81e2b0e8b8210000000000000000000000000000000000000000000069e10de76676d08000000000000000000000000000000000000000000000000069e10de76676d080000000000000000000000000000000000000000000000000000000000000000000e00000000000000000000000000000000000000000000000000000000000000120000000000000000000000000000000000000000000000000000000000000014000000000000000000000000000000000000000000000000000000000000000160003010011010000000000000000000000000007a1200000000000000000000000000000000000000000000000000000000000000000000000000000000000000000000000000000000000000000000000000000000000000000000000000000",
        "nonce": "0x10a",
        "chainId": "0x89"
      },
      "additionalContracts": [],
      "isFixedGasLimit": false
    },
    {
      "hash": "0xd5104dd93999e69962c80047c8a5eb6206e34706f850feb5187d85c421e3a27a",
      "transactionType": "CALL",
      "contractName": null,
      "contractAddress": "0x3d2bD0e15829AA5C362a4144FdF4A1112fa29B5c",
      "function": "approve(address,uint256)",
      "arguments": [
        "0x303b63e785B656ca56ea5A5C1634Ab20C98895e1",
        "500000000000000000000000"
      ],
      "transaction": {
        "from": "0x21aF1185734D213D45C6236146fb81E2b0E8b821",
        "to": "0x3d2bD0e15829AA5C362a4144FdF4A1112fa29B5c",
        "gas": "0xf94b",
        "value": "0x0",
        "input": "0x095ea7b3000000000000000000000000303b63e785b656ca56ea5a5c1634ab20c98895e10000000000000000000000000000000000000000000069e10de76676d0800000",
        "nonce": "0x10b",
        "chainId": "0x89"
      },
      "additionalContracts": [],
      "isFixedGasLimit": false
    },
    {
      "hash": "0x35778f46e9ac2f24beaa428b53fbe7f14fe57e34d15ae0e1f0093369b9128bae",
      "transactionType": "CALL",
      "contractName": null,
      "contractAddress": "0x303b63e785B656ca56ea5A5C1634Ab20C98895e1",
      "function": "send((uint32,bytes32,uint256,uint256,bytes,bytes,bytes),(uint256,uint256),address)",
      "arguments": [
        "(30165, 0x00000000000000000000000021af1185734d213d45c6236146fb81e2b0e8b821, 500000000000000000000000, 500000000000000000000000, 0x0003010011010000000000000000000000000007a120, 0x, 0x)",
        "(3182996651846858109, 0)",
        "0x5b73C5498c1E3b4dbA84de0F1833c4a029d90519"
      ],
      "transaction": {
        "from": "0x21aF1185734D213D45C6236146fb81E2b0E8b821",
        "to": "0x303b63e785B656ca56ea5A5C1634Ab20C98895e1",
        "gas": "0x61f08",
        "value": "0x2c2c46973296f57d",
        "input": "0xc7c7f5b300000000000000000000000000000000000000000000000000000000000000800000000000000000000000000000000000000000000000002c2c46973296f57d00000000000000000000000000000000000000000000000000000000000000000000000000000000000000005b73c5498c1e3b4dba84de0f1833c4a029d9051900000000000000000000000000000000000000000000000000000000000075d500000000000000000000000021af1185734d213d45c6236146fb81e2b0e8b8210000000000000000000000000000000000000000000069e10de76676d08000000000000000000000000000000000000000000000000069e10de76676d080000000000000000000000000000000000000000000000000000000000000000000e00000000000000000000000000000000000000000000000000000000000000120000000000000000000000000000000000000000000000000000000000000014000000000000000000000000000000000000000000000000000000000000000160003010011010000000000000000000000000007a1200000000000000000000000000000000000000000000000000000000000000000000000000000000000000000000000000000000000000000000000000000000000000000000000000000",
        "nonce": "0x10c",
        "chainId": "0x89"
      },
      "additionalContracts": [],
      "isFixedGasLimit": false
    }
  ],
  "receipts": [
    {
      "status": "0x1",
      "cumulativeGasUsed": "0x18cc7c7",
      "logs": [
        {
          "address": "0x3d2bD0e15829AA5C362a4144FdF4A1112fa29B5c",
          "topics": [
            "0x8c5be1e5ebec7d5bd14f71427d1e84f3dd0314c0f7b2291e5b200ac8c7c3b925",
            "0x00000000000000000000000021af1185734d213d45c6236146fb81e2b0e8b821",
            "0x000000000000000000000000303b63e785b656ca56ea5a5c1634ab20c98895e1"
          ],
          "data": "0x0000000000000000000000000000000000000000000069e10de76676d0800000",
          "blockHash": "0x537e1187086efe20af37fe666f785e9504330d7c2aa97a7f76be91857ebd9b8c",
          "blockNumber": "0x3e1ad1f",
          "transactionHash": "0x28fc5dc019fdb8268acfe9efb1dba902ca2f411f2e5e175b17b4347db0ce0f32",
          "transactionIndex": "0x8c",
          "logIndex": "0x3ac",
          "removed": false
        },
        {
          "address": "0x0000000000000000000000000000000000001010",
          "topics": [
            "0x4dfe1bbbcf077ddc3e01291eea2d5c70c2b422b415d95645b9adcfd678cb1d63",
            "0x0000000000000000000000000000000000000000000000000000000000001010",
            "0x00000000000000000000000021af1185734d213d45c6236146fb81e2b0e8b821",
            "0x0000000000000000000000009ead03f7136fc6b4bdb0780b00a1c14ae5a8b6d0"
          ],
          "data": "0x000000000000000000000000000000000000000000000000000540be13944000000000000000000000000000000000000000000000000001309ae85ba03617fb00000000000000000000000000000000000000000000067f3e970e76468ea4dd0000000000000000000000000000000000000000000000013095a79d8ca1d7fb00000000000000000000000000000000000000000000067f3e9c4f345a22e4dd",
          "blockHash": "0x537e1187086efe20af37fe666f785e9504330d7c2aa97a7f76be91857ebd9b8c",
          "blockNumber": "0x3e1ad1f",
          "transactionHash": "0x28fc5dc019fdb8268acfe9efb1dba902ca2f411f2e5e175b17b4347db0ce0f32",
          "transactionIndex": "0x8c",
          "logIndex": "0x3ad",
          "removed": false
        }
      ],
      "logsBloom": "0x40000000000000000000000000080000000000000000000000000000000000000000000000001000000000000000000000008000000000000000000000200000000000042000000000000000000000800000000000000000000100000000000000000000000000000000000000000800000000000000000080004000000000000040000000040000000000000000000000000000000000000000000000000000220000000000000000000000000000000000000000000000000080080000004000000000000000000001000000000000000000000000000000120000000000000010000000000000000000000000000000000000000000000000000000100000",
      "type": "0x2",
      "transactionHash": "0x28fc5dc019fdb8268acfe9efb1dba902ca2f411f2e5e175b17b4347db0ce0f32",
      "transactionIndex": "0x8c",
      "blockHash": "0x537e1187086efe20af37fe666f785e9504330d7c2aa97a7f76be91857ebd9b8c",
      "blockNumber": "0x3e1ad1f",
      "gasUsed": "0xb47d",
      "effectiveGasPrice": "0x875b90d03",
      "from": "0x21aF1185734D213D45C6236146fb81E2b0E8b821",
      "to": "0x3d2bD0e15829AA5C362a4144FdF4A1112fa29B5c",
      "contractAddress": null
    },
    {
      "status": "0x1",
      "cumulativeGasUsed": "0x190f741",
      "logs": [
        {
          "address": "0x0000000000000000000000000000000000001010",
          "topics": [
            "0xe6497e3ee548a3372136af2fcb0696db31fc6cf20260707645068bd3fe97f3c4",
            "0x0000000000000000000000000000000000000000000000000000000000001010",
            "0x00000000000000000000000021af1185734d213d45c6236146fb81e2b0e8b821",
            "0x000000000000000000000000303b63e785b656ca56ea5a5c1634ab20c98895e1"
          ],
          "data": "0x0000000000000000000000000000000000000000000000002c2c46973296f57d00000000000000000000000000000000000000000000000130612898a346dc6c00000000000000000000000000000000000000000000000000000000000000000000000000000000000000000000000000000000000000010434e20170afe6ef0000000000000000000000000000000000000000000000002c2c46973296f57d",
          "blockHash": "0x537e1187086efe20af37fe666f785e9504330d7c2aa97a7f76be91857ebd9b8c",
          "blockNumber": "0x3e1ad1f",
          "transactionHash": "0x1824448f8b321c237c2261645f20cd04b14d187000040c3db3218f95810d4207",
          "transactionIndex": "0x8d",
          "logIndex": "0x3ae",
          "removed": false
        },
        {
          "address": "0x3d2bD0e15829AA5C362a4144FdF4A1112fa29B5c",
          "topics": [
            "0xddf252ad1be2c89b69c2b068fc378daa952ba7f163c4a11628f55a4df523b3ef",
            "0x00000000000000000000000021af1185734d213d45c6236146fb81e2b0e8b821",
            "0x000000000000000000000000303b63e785b656ca56ea5a5c1634ab20c98895e1"
          ],
          "data": "0x0000000000000000000000000000000000000000000069e10de76676d0800000",
          "blockHash": "0x537e1187086efe20af37fe666f785e9504330d7c2aa97a7f76be91857ebd9b8c",
          "blockNumber": "0x3e1ad1f",
          "transactionHash": "0x1824448f8b321c237c2261645f20cd04b14d187000040c3db3218f95810d4207",
          "transactionIndex": "0x8d",
          "logIndex": "0x3af",
          "removed": false
        },
        {
          "address": "0x0000000000000000000000000000000000001010",
          "topics": [
            "0xe6497e3ee548a3372136af2fcb0696db31fc6cf20260707645068bd3fe97f3c4",
            "0x0000000000000000000000000000000000000000000000000000000000001010",
            "0x000000000000000000000000303b63e785b656ca56ea5a5c1634ab20c98895e1",
            "0x0000000000000000000000001a44076050125825900e736c501f859c50fe728c"
          ],
          "data": "0x0000000000000000000000000000000000000000000000002c2c46973296f57d0000000000000000000000000000000000000000000000002c2c46973296f57d000000000000000000000000000000000000000000000000000000000000000000000000000000000000000000000000000000000000000000000000000000000000000000000000000000000000000000000000000000002c2c46973296f57d",
          "blockHash": "0x537e1187086efe20af37fe666f785e9504330d7c2aa97a7f76be91857ebd9b8c",
          "blockNumber": "0x3e1ad1f",
          "transactionHash": "0x1824448f8b321c237c2261645f20cd04b14d187000040c3db3218f95810d4207",
          "transactionIndex": "0x8d",
          "logIndex": "0x3b0",
          "removed": false
        },
        {
          "address": "0x6c26c61a97006888ea9E4FA36584c7df57Cd9dA3",
          "topics": [
            "0x61ed099e74a97a1d7f8bb0952a88ca8b7b8ebd00c126ea04671f92a81213318a"
          ],
          "data": "0x000000000000000000000000cd3f213ad101472e1713c72b1697e727c803885b0000000000000000000000000000000000000000000000000c022bdfee95b731",
          "blockHash": "0x537e1187086efe20af37fe666f785e9504330d7c2aa97a7f76be91857ebd9b8c",
          "blockNumber": "0x3e1ad1f",
          "transactionHash": "0x1824448f8b321c237c2261645f20cd04b14d187000040c3db3218f95810d4207",
          "transactionIndex": "0x8d",
          "logIndex": "0x3b1",
          "removed": false
        },
        {
          "address": "0x6c26c61a97006888ea9E4FA36584c7df57Cd9dA3",
          "topics": [
            "0x07ea52d82345d6e838192107d8fd7123d9c2ec8e916cd0aad13fd2b60db24644"
          ],
          "data": "0x000000000000000000000000000000000000000000000000000000000000006000000000000000000000000000000000000000000000000000000000000000a000000000000000000000000000000000000000000000000000000000000000e0000000000000000000000000000000000000000000000000000000000000000100000000000000000000000023de2fe932d9043291f870324b74f820e11dc81a0000000000000000000000000000000000000000000000000000000000000001000000000000000000000000c79f0b1bcb7cdae9f9ba547dcfc57cbfcd2993a50000000000000000000000000000000000000000000000000000000000000002000000000000000000000000000000000000000000000000101594013c8c7574000000000000000000000000000000000000000000000000101486b60774c8d8",
          "blockHash": "0x537e1187086efe20af37fe666f785e9504330d7c2aa97a7f76be91857ebd9b8c",
          "blockNumber": "0x3e1ad1f",
          "transactionHash": "0x1824448f8b321c237c2261645f20cd04b14d187000040c3db3218f95810d4207",
          "transactionIndex": "0x8d",
          "logIndex": "0x3b2",
          "removed": false
        },
        {
          "address": "0x1a44076050125825900e736c501f859c50fE728c",
          "topics": [
            "0x1ab700d4ced0c005b164c0f789fd09fcbb0156d4c2041b8a3bfbcd961cd1567f"
          ],
          "data": "0x000000000000000000000000000000000000000000000000000000000000006000000000000000000000000000000000000000000000000000000000000001200000000000000000000000006c26c61a97006888ea9e4fa36584c7df57cd9da300000000000000000000000000000000000000000000000000000000000000990100000000000000200000759d000000000000000000000000303b63e785b656ca56ea5a5c1634ab20c98895e1000075d5000000000000000000000000b0588f9a9cade7cd5f194a5fe77acd6a58250f823ed901a1c4c0f1895a915071e46c77d7dd38957207da906fe90b510968f37dc600000000000000000000000021af1185734d213d45c6236146fb81e2b0e8b821000000746a52880000000000000000000000000000000000000000000000000000000000000000000000000000002a0003010011010000000000000000000000000001adb0010011010000000000000000000000000007a12000000000000000000000000000000000000000000000",
          "blockHash": "0x537e1187086efe20af37fe666f785e9504330d7c2aa97a7f76be91857ebd9b8c",
          "blockNumber": "0x3e1ad1f",
          "transactionHash": "0x1824448f8b321c237c2261645f20cd04b14d187000040c3db3218f95810d4207",
          "transactionIndex": "0x8d",
          "logIndex": "0x3b3",
          "removed": false
        },
        {
          "address": "0x0000000000000000000000000000000000001010",
          "topics": [
            "0xe6497e3ee548a3372136af2fcb0696db31fc6cf20260707645068bd3fe97f3c4",
            "0x0000000000000000000000000000000000000000000000000000000000001010",
            "0x0000000000000000000000001a44076050125825900e736c501f859c50fe728c",
            "0x0000000000000000000000006c26c61a97006888ea9e4fa36584c7df57cd9da3"
          ],
          "data": "0x0000000000000000000000000000000000000000000000002c2c46973296f57d0000000000000000000000000000000000000000000000002c2c46973296f57d000000000000000000000000000000000000000000001200d72bf5889e6f11b9000000000000000000000000000000000000000000000000000000000000000000000000000000000000000000000000000000000000120103583c1fd1060736",
          "blockHash": "0x537e1187086efe20af37fe666f785e9504330d7c2aa97a7f76be91857ebd9b8c",
          "blockNumber": "0x3e1ad1f",
          "transactionHash": "0x1824448f8b321c237c2261645f20cd04b14d187000040c3db3218f95810d4207",
          "transactionIndex": "0x8d",
          "logIndex": "0x3b4",
          "removed": false
        },
        {
          "address": "0x303b63e785B656ca56ea5A5C1634Ab20C98895e1",
          "topics": [
            "0x85496b760a4b7f8d66384b9df21b381f5d1b1e79f229a47aaf4c232edc2fe59a",
            "0x3ed901a1c4c0f1895a915071e46c77d7dd38957207da906fe90b510968f37dc6",
            "0x00000000000000000000000021af1185734d213d45c6236146fb81e2b0e8b821"
          ],
          "data": "0x00000000000000000000000000000000000000000000000000000000000075d50000000000000000000000000000000000000000000069e10de76676d08000000000000000000000000000000000000000000000000069e10de76676d0800000",
          "blockHash": "0x537e1187086efe20af37fe666f785e9504330d7c2aa97a7f76be91857ebd9b8c",
          "blockNumber": "0x3e1ad1f",
          "transactionHash": "0x1824448f8b321c237c2261645f20cd04b14d187000040c3db3218f95810d4207",
          "transactionIndex": "0x8d",
          "logIndex": "0x3b5",
          "removed": false
        },
        {
          "address": "0x0000000000000000000000000000000000001010",
          "topics": [
            "0x4dfe1bbbcf077ddc3e01291eea2d5c70c2b422b415d95645b9adcfd678cb1d63",
            "0x0000000000000000000000000000000000000000000000000000000000001010",
            "0x00000000000000000000000021af1185734d213d45c6236146fb81e2b0e8b821",
            "0x0000000000000000000000009ead03f7136fc6b4bdb0780b00a1c14ae5a8b6d0"
          ],
          "data": "0x000000000000000000000000000000000000000000000000001f2f1f5b4880000000000000000000000000000000000000000000000000013094f17407b4a18400000000000000000000000000000000000000000000067f3e9c4f345a22e4dd0000000000000000000000000000000000000000000000013075c254ac6c218400000000000000000000000000000000000000000000067f3ebb7e53b56b64dd",
          "blockHash": "0x537e1187086efe20af37fe666f785e9504330d7c2aa97a7f76be91857ebd9b8c",
          "blockNumber": "0x3e1ad1f",
          "transactionHash": "0x1824448f8b321c237c2261645f20cd04b14d187000040c3db3218f95810d4207",
          "transactionIndex": "0x8d",
          "logIndex": "0x3b6",
          "removed": false
        }
      ],
      "logsBloom": "0x400000000000000000000480000800000000000000000000000000040010000000000040000010000000001000020000000080000000000000000000000000000000820420100000004000080000008000000000000000000001000000000000000000000000000080000000000008000000000000100000802040100000000000400000000400000000000800000000000000000000000000000100000000002010000080000000001000000000000000000000004000000004c00800000040000000020000000000010000800000000000040000008010001a8000000004000000040000000000000000000000002000000000018000000000000000100000",
      "type": "0x2",
      "transactionHash": "0x1824448f8b321c237c2261645f20cd04b14d187000040c3db3218f95810d4207",
      "transactionIndex": "0x8d",
      "blockHash": "0x537e1187086efe20af37fe666f785e9504330d7c2aa97a7f76be91857ebd9b8c",
      "blockNumber": "0x3e1ad1f",
      "gasUsed": "0x42f7a",
      "effectiveGasPrice": "0x875b90d03",
      "from": "0x21aF1185734D213D45C6236146fb81E2b0E8b821",
      "to": "0x303b63e785B656ca56ea5A5C1634Ab20C98895e1",
      "contractAddress": null
    },
    {
      "status": "0x1",
      "cumulativeGasUsed": "0x146fd45",
      "logs": [
        {
          "address": "0x3d2bD0e15829AA5C362a4144FdF4A1112fa29B5c",
          "topics": [
            "0x8c5be1e5ebec7d5bd14f71427d1e84f3dd0314c0f7b2291e5b200ac8c7c3b925",
            "0x00000000000000000000000021af1185734d213d45c6236146fb81e2b0e8b821",
            "0x000000000000000000000000303b63e785b656ca56ea5a5c1634ab20c98895e1"
          ],
          "data": "0x0000000000000000000000000000000000000000000069e10de76676d0800000",
          "blockHash": "0x43bcf4d651b69c4b1a571e4c90e0be687fbe74eee0ff9dea4fec2a906d6eee12",
          "blockNumber": "0x3e1ad21",
          "transactionHash": "0xd5104dd93999e69962c80047c8a5eb6206e34706f850feb5187d85c421e3a27a",
          "transactionIndex": "0x62",
          "logIndex": "0x335",
          "removed": false
        },
        {
          "address": "0x0000000000000000000000000000000000001010",
          "topics": [
            "0x4dfe1bbbcf077ddc3e01291eea2d5c70c2b422b415d95645b9adcfd678cb1d63",
            "0x0000000000000000000000000000000000000000000000000000000000001010",
            "0x00000000000000000000000021af1185734d213d45c6236146fb81e2b0e8b821",
            "0x000000000000000000000000b9ede6f94d192073d8eaf85f8db677133d483249"
          ],
          "data": "0x000000000000000000000000000000000000000000000000000540be13944000000000000000000000000000000000000000000000000001044542538d7deb99000000000000000000000000000000000000000000000052f776c432c805ca7f0000000000000000000000000000000000000000000000010440019579e9ab99000000000000000000000000000000000000000000000052f77c04f0db9a0a7f",
          "blockHash": "0x43bcf4d651b69c4b1a571e4c90e0be687fbe74eee0ff9dea4fec2a906d6eee12",
          "blockNumber": "0x3e1ad21",
          "transactionHash": "0xd5104dd93999e69962c80047c8a5eb6206e34706f850feb5187d85c421e3a27a",
          "transactionIndex": "0x62",
          "logIndex": "0x336",
          "removed": false
        }
      ],
      "logsBloom": "0x40000000000000000000000000080000000000000000000000000000000000000000000000001000000000000000000000008000000000000000000000200000000000042000000000000000000000800000000000000000000100000000000000000000000000000000000000000800000000000000000080004000000100000000000000000000000000000000000000000000000000000000000000000000220000000000000000000000000000000000000000000000000080080000004000000000000000000001000000000000000000000000000000100000000000000010000000000000100000000000000000000000000000200000000000100000",
      "type": "0x2",
      "transactionHash": "0xd5104dd93999e69962c80047c8a5eb6206e34706f850feb5187d85c421e3a27a",
      "transactionIndex": "0x62",
      "blockHash": "0x43bcf4d651b69c4b1a571e4c90e0be687fbe74eee0ff9dea4fec2a906d6eee12",
      "blockNumber": "0x3e1ad21",
      "gasUsed": "0xb47d",
      "effectiveGasPrice": "0x87f11cf33",
      "from": "0x21aF1185734D213D45C6236146fb81E2b0E8b821",
      "to": "0x3d2bD0e15829AA5C362a4144FdF4A1112fa29B5c",
      "contractAddress": null
    },
    {
      "status": "0x1",
      "cumulativeGasUsed": "0x14b2cbf",
      "logs": [
        {
          "address": "0x0000000000000000000000000000000000001010",
          "topics": [
            "0xe6497e3ee548a3372136af2fcb0696db31fc6cf20260707645068bd3fe97f3c4",
            "0x0000000000000000000000000000000000000000000000000000000000001010",
            "0x00000000000000000000000021af1185734d213d45c6236146fb81e2b0e8b821",
            "0x000000000000000000000000303b63e785b656ca56ea5a5c1634ab20c98895e1"
          ],
          "data": "0x0000000000000000000000000000000000000000000000002c2c46973296f57d000000000000000000000000000000000000000000000001040b42c300443d1a0000000000000000000000000000000000000000000000000000000000000000000000000000000000000000000000000000000000000000d7defc2bcdad479d0000000000000000000000000000000000000000000000002c2c46973296f57d",
          "blockHash": "0x43bcf4d651b69c4b1a571e4c90e0be687fbe74eee0ff9dea4fec2a906d6eee12",
          "blockNumber": "0x3e1ad21",
          "transactionHash": "0x35778f46e9ac2f24beaa428b53fbe7f14fe57e34d15ae0e1f0093369b9128bae",
          "transactionIndex": "0x63",
          "logIndex": "0x337",
          "removed": false
        },
        {
          "address": "0x3d2bD0e15829AA5C362a4144FdF4A1112fa29B5c",
          "topics": [
            "0xddf252ad1be2c89b69c2b068fc378daa952ba7f163c4a11628f55a4df523b3ef",
            "0x00000000000000000000000021af1185734d213d45c6236146fb81e2b0e8b821",
            "0x000000000000000000000000303b63e785b656ca56ea5a5c1634ab20c98895e1"
          ],
          "data": "0x0000000000000000000000000000000000000000000069e10de76676d0800000",
          "blockHash": "0x43bcf4d651b69c4b1a571e4c90e0be687fbe74eee0ff9dea4fec2a906d6eee12",
          "blockNumber": "0x3e1ad21",
          "transactionHash": "0x35778f46e9ac2f24beaa428b53fbe7f14fe57e34d15ae0e1f0093369b9128bae",
          "transactionIndex": "0x63",
          "logIndex": "0x338",
          "removed": false
        },
        {
          "address": "0x0000000000000000000000000000000000001010",
          "topics": [
            "0xe6497e3ee548a3372136af2fcb0696db31fc6cf20260707645068bd3fe97f3c4",
            "0x0000000000000000000000000000000000000000000000000000000000001010",
            "0x000000000000000000000000303b63e785b656ca56ea5a5c1634ab20c98895e1",
            "0x0000000000000000000000001a44076050125825900e736c501f859c50fe728c"
          ],
          "data": "0x0000000000000000000000000000000000000000000000002c2c46973296f57d0000000000000000000000000000000000000000000000002c2c46973296f57d000000000000000000000000000000000000000000000000000000000000000000000000000000000000000000000000000000000000000000000000000000000000000000000000000000000000000000000000000000002c2c46973296f57d",
          "blockHash": "0x43bcf4d651b69c4b1a571e4c90e0be687fbe74eee0ff9dea4fec2a906d6eee12",
          "blockNumber": "0x3e1ad21",
          "transactionHash": "0x35778f46e9ac2f24beaa428b53fbe7f14fe57e34d15ae0e1f0093369b9128bae",
          "transactionIndex": "0x63",
          "logIndex": "0x339",
          "removed": false
        },
        {
          "address": "0x6c26c61a97006888ea9E4FA36584c7df57Cd9dA3",
          "topics": [
            "0x61ed099e74a97a1d7f8bb0952a88ca8b7b8ebd00c126ea04671f92a81213318a"
          ],
          "data": "0x000000000000000000000000cd3f213ad101472e1713c72b1697e727c803885b0000000000000000000000000000000000000000000000000c022bdfee95b731",
          "blockHash": "0x43bcf4d651b69c4b1a571e4c90e0be687fbe74eee0ff9dea4fec2a906d6eee12",
          "blockNumber": "0x3e1ad21",
          "transactionHash": "0x35778f46e9ac2f24beaa428b53fbe7f14fe57e34d15ae0e1f0093369b9128bae",
          "transactionIndex": "0x63",
          "logIndex": "0x33a",
          "removed": false
        },
        {
          "address": "0x6c26c61a97006888ea9E4FA36584c7df57Cd9dA3",
          "topics": [
            "0x07ea52d82345d6e838192107d8fd7123d9c2ec8e916cd0aad13fd2b60db24644"
          ],
          "data": "0x000000000000000000000000000000000000000000000000000000000000006000000000000000000000000000000000000000000000000000000000000000a000000000000000000000000000000000000000000000000000000000000000e0000000000000000000000000000000000000000000000000000000000000000100000000000000000000000023de2fe932d9043291f870324b74f820e11dc81a0000000000000000000000000000000000000000000000000000000000000001000000000000000000000000c79f0b1bcb7cdae9f9ba547dcfc57cbfcd2993a50000000000000000000000000000000000000000000000000000000000000002000000000000000000000000000000000000000000000000101594013c8c7574000000000000000000000000000000000000000000000000101486b60774c8d8",
          "blockHash": "0x43bcf4d651b69c4b1a571e4c90e0be687fbe74eee0ff9dea4fec2a906d6eee12",
          "blockNumber": "0x3e1ad21",
          "transactionHash": "0x35778f46e9ac2f24beaa428b53fbe7f14fe57e34d15ae0e1f0093369b9128bae",
          "transactionIndex": "0x63",
          "logIndex": "0x33b",
          "removed": false
        },
        {
          "address": "0x1a44076050125825900e736c501f859c50fE728c",
          "topics": [
            "0x1ab700d4ced0c005b164c0f789fd09fcbb0156d4c2041b8a3bfbcd961cd1567f"
          ],
          "data": "0x000000000000000000000000000000000000000000000000000000000000006000000000000000000000000000000000000000000000000000000000000001200000000000000000000000006c26c61a97006888ea9e4fa36584c7df57cd9da300000000000000000000000000000000000000000000000000000000000000990100000000000000210000759d000000000000000000000000303b63e785b656ca56ea5a5c1634ab20c98895e1000075d5000000000000000000000000b0588f9a9cade7cd5f194a5fe77acd6a58250f82218c8e06bd476ea1daba4cc2c4e9f067e8b51a4ac36345addaf2b38428637aaa00000000000000000000000021af1185734d213d45c6236146fb81e2b0e8b821000000746a52880000000000000000000000000000000000000000000000000000000000000000000000000000002a0003010011010000000000000000000000000001adb0010011010000000000000000000000000007a12000000000000000000000000000000000000000000000",
          "blockHash": "0x43bcf4d651b69c4b1a571e4c90e0be687fbe74eee0ff9dea4fec2a906d6eee12",
          "blockNumber": "0x3e1ad21",
          "transactionHash": "0x35778f46e9ac2f24beaa428b53fbe7f14fe57e34d15ae0e1f0093369b9128bae",
          "transactionIndex": "0x63",
          "logIndex": "0x33c",
          "removed": false
        },
        {
          "address": "0x0000000000000000000000000000000000001010",
          "topics": [
            "0xe6497e3ee548a3372136af2fcb0696db31fc6cf20260707645068bd3fe97f3c4",
            "0x0000000000000000000000000000000000000000000000000000000000001010",
            "0x0000000000000000000000001a44076050125825900e736c501f859c50fe728c",
            "0x0000000000000000000000006c26c61a97006888ea9e4fa36584c7df57cd9da3"
          ],
          "data": "0x0000000000000000000000000000000000000000000000002c2c46973296f57d0000000000000000000000000000000000000000000000002c2c46973296f57d00000000000000000000000000000000000000000000120103583c1fd106073600000000000000000000000000000000000000000000000000000000000000000000000000000000000000000000000000000000000012012f8482b7039cfcb3",
          "blockHash": "0x43bcf4d651b69c4b1a571e4c90e0be687fbe74eee0ff9dea4fec2a906d6eee12",
          "blockNumber": "0x3e1ad21",
          "transactionHash": "0x35778f46e9ac2f24beaa428b53fbe7f14fe57e34d15ae0e1f0093369b9128bae",
          "transactionIndex": "0x63",
          "logIndex": "0x33d",
          "removed": false
        },
        {
          "address": "0x303b63e785B656ca56ea5A5C1634Ab20C98895e1",
          "topics": [
            "0x85496b760a4b7f8d66384b9df21b381f5d1b1e79f229a47aaf4c232edc2fe59a",
            "0x218c8e06bd476ea1daba4cc2c4e9f067e8b51a4ac36345addaf2b38428637aaa",
            "0x00000000000000000000000021af1185734d213d45c6236146fb81e2b0e8b821"
          ],
          "data": "0x00000000000000000000000000000000000000000000000000000000000075d50000000000000000000000000000000000000000000069e10de76676d08000000000000000000000000000000000000000000000000069e10de76676d0800000",
          "blockHash": "0x43bcf4d651b69c4b1a571e4c90e0be687fbe74eee0ff9dea4fec2a906d6eee12",
          "blockNumber": "0x3e1ad21",
          "transactionHash": "0x35778f46e9ac2f24beaa428b53fbe7f14fe57e34d15ae0e1f0093369b9128bae",
          "transactionIndex": "0x63",
          "logIndex": "0x33e",
          "removed": false
        },
        {
          "address": "0x0000000000000000000000000000000000001010",
          "topics": [
            "0x4dfe1bbbcf077ddc3e01291eea2d5c70c2b422b415d95645b9adcfd678cb1d63",
            "0x0000000000000000000000000000000000000000000000000000000000001010",
            "0x00000000000000000000000021af1185734d213d45c6236146fb81e2b0e8b821",
            "0x000000000000000000000000b9ede6f94d192073d8eaf85f8db677133d483249"
          ],
          "data": "0x000000000000000000000000000000000000000000000000001f2f1f5b488000000000000000000000000000000000000000000000000001043f44d4fc1be3b2000000000000000000000000000000000000000000000052f77c04f0db9a0a7f000000000000000000000000000000000000000000000001042015b5a0d363b2000000000000000000000000000000000000000000000052f79b341036e28a7f",
          "blockHash": "0x43bcf4d651b69c4b1a571e4c90e0be687fbe74eee0ff9dea4fec2a906d6eee12",
          "blockNumber": "0x3e1ad21",
          "transactionHash": "0x35778f46e9ac2f24beaa428b53fbe7f14fe57e34d15ae0e1f0093369b9128bae",
          "transactionIndex": "0x63",
          "logIndex": "0x33f",
          "removed": false
        }
      ],
      "logsBloom": "0x400010000000000000000480000800000000000000000000000000040010000000000040000010000000001000020000000080000000000000000000000000000000820420100000004000080000008000000000000000000001001000000000000000000000000080000000000008000000000000100000802040100001000000000000000000000000000800000000000000000000000000000100000000002000000080000000001000000000000000000000004000000004c0080000004000000002000000000001000080000000000000000000801000188000000000000000040000000000100000000100002000000000018000200000000000100000",
      "type": "0x2",
      "transactionHash": "0x35778f46e9ac2f24beaa428b53fbe7f14fe57e34d15ae0e1f0093369b9128bae",
      "transactionIndex": "0x63",
      "blockHash": "0x43bcf4d651b69c4b1a571e4c90e0be687fbe74eee0ff9dea4fec2a906d6eee12",
      "blockNumber": "0x3e1ad21",
      "gasUsed": "0x42f7a",
      "effectiveGasPrice": "0x87f11cf33",
      "from": "0x21aF1185734D213D45C6236146fb81E2b0E8b821",
      "to": "0x303b63e785B656ca56ea5A5C1634Ab20C98895e1",
      "contractAddress": null
    }
  ],
  "libraries": [],
  "pending": [],
  "returns": {},
  "timestamp": 1733419750,
  "chain": 137,
  "commit": "9bc9372"
}