{
  "transactions": [
    {
      "hash": "0x64ca353d56e476330eef513a98ef4a5a5cd5bd4dfcbe3588f985594e0f29f3c8",
      "transactionType": "CALL",
      "contractName": null,
      "contractAddress": "0x3d2bd0e15829aa5c362a4144fdf4a1112fa29b5c",
      "function": "approve(address,uint256)",
      "arguments": [
        "0x303b63e785B656ca56ea5A5C1634Ab20C98895e1",
        "3125000000000000000000000"
      ],
      "transaction": {
        "from": "0x21af1185734d213d45c6236146fb81e2b0e8b821",
        "to": "0x3d2bd0e15829aa5c362a4144fdf4a1112fa29b5c",
        "gas": "0x10808",
        "value": "0x0",
        "input": "0x095ea7b3000000000000000000000000303b63e785b656ca56ea5a5c1634ab20c98895e10000000000000000000000000000000000000000000295be96e6406697200000",
        "nonce": "0x6a",
        "chainId": "0x89"
      },
      "additionalContracts": [],
      "isFixedGasLimit": false
    },
    {
      "hash": "0x3baa9accead894788ff5f081d6337207a2ab1177721608a340b46de9eab78f08",
      "transactionType": "CALL",
      "contractName": null,
      "contractAddress": "0x303b63e785b656ca56ea5a5c1634ab20c98895e1",
      "function": "send((uint32,bytes32,uint256,uint256,bytes,bytes,bytes),(uint256,uint256),address)",
      "arguments": [
        "(30165, 0x00000000000000000000000021af1185734d213d45c6236146fb81e2b0e8b821, 3125000000000000000000000, 3125000000000000000000000, 0x, 0x, 0x)",
        "(4281925047248852266, 0)",
        "0x5b73C5498c1E3b4dbA84de0F1833c4a029d90519"
      ],
      "transaction": {
        "from": "0x21af1185734d213d45c6236146fb81e2b0e8b821",
        "to": "0x303b63e785b656ca56ea5a5c1634ab20c98895e1",
        "gas": "0x60659",
        "value": "0x3b6c7424d41d952a",
        "input": "0xc7c7f5b300000000000000000000000000000000000000000000000000000000000000800000000000000000000000000000000000000000000000003b6c7424d41d952a00000000000000000000000000000000000000000000000000000000000000000000000000000000000000005b73c5498c1e3b4dba84de0f1833c4a029d9051900000000000000000000000000000000000000000000000000000000000075d500000000000000000000000021af1185734d213d45c6236146fb81e2b0e8b8210000000000000000000000000000000000000000000295be96e64066972000000000000000000000000000000000000000000000000295be96e640669720000000000000000000000000000000000000000000000000000000000000000000e000000000000000000000000000000000000000000000000000000000000001000000000000000000000000000000000000000000000000000000000000000120000000000000000000000000000000000000000000000000000000000000000000000000000000000000000000000000000000000000000000000000000000000000000000000000000000000000000000000000000000000000000000000000",
        "nonce": "0x6b",
        "chainId": "0x89"
      },
      "additionalContracts": [],
      "isFixedGasLimit": false
    }
  ],
  "receipts": [
    {
      "status": "0x1",
      "cumulativeGasUsed": "0x5b33a5",
      "logs": [
        {
          "address": "0x3d2bd0e15829aa5c362a4144fdf4a1112fa29b5c",
          "topics": [
            "0x8c5be1e5ebec7d5bd14f71427d1e84f3dd0314c0f7b2291e5b200ac8c7c3b925",
            "0x00000000000000000000000021af1185734d213d45c6236146fb81e2b0e8b821",
            "0x000000000000000000000000303b63e785b656ca56ea5a5c1634ab20c98895e1"
          ],
          "data": "0x0000000000000000000000000000000000000000000295be96e6406697200000",
          "blockHash": "0x1f153f6eb92f0de6dd98aae93dbba5080ffd677165011f19f0ba2d33f1624a1d",
          "blockNumber": "0x3bd8d53",
          "transactionHash": "0x64ca353d56e476330eef513a98ef4a5a5cd5bd4dfcbe3588f985594e0f29f3c8",
          "transactionIndex": "0x2a",
          "logIndex": "0x9f",
          "removed": false
        },
        {
          "address": "0x0000000000000000000000000000000000001010",
          "topics": [
            "0x4dfe1bbbcf077ddc3e01291eea2d5c70c2b422b415d95645b9adcfd678cb1d63",
            "0x0000000000000000000000000000000000000000000000000000000000001010",
            "0x00000000000000000000000021af1185734d213d45c6236146fb81e2b0e8b821",
            "0x00000000000000000000000098c27cc3f0301b6272049dc3f972e2f542780629"
          ],
          "data": "0x0000000000000000000000000000000000000000000000000004ed0604070c000000000000000000000000000000000000000000000000005710e9eddfea46550000000000000000000000000000000000000000000014e900e9240def18be46000000000000000000000000000000000000000000000000570bfce7dbe33a550000000000000000000000000000000000000000000014e900ee1113f31fca46",
          "blockHash": "0x1f153f6eb92f0de6dd98aae93dbba5080ffd677165011f19f0ba2d33f1624a1d",
          "blockNumber": "0x3bd8d53",
          "transactionHash": "0x64ca353d56e476330eef513a98ef4a5a5cd5bd4dfcbe3588f985594e0f29f3c8",
          "transactionIndex": "0x2a",
          "logIndex": "0xa0",
          "removed": false
        }
      ],
      "logsBloom": "0x40000000000000000000000000080000000000000000000000000000000000000000000000001000000000000000000000008000000000000000000000200000000000042000000000000000000000800000000000000000000100000000000000000000000000000000000000000800000000000000000080004000010000000000000000000000000000000000000000000020000000000000000000000000220000000000000000000000000000008000000000000000000080080000004000000000000000000001000000000000000000000000000000100000000000000010000000000000000000000000000000000000000000000000000000100000",
      "type": "0x2",
      "transactionHash": "0x64ca353d56e476330eef513a98ef4a5a5cd5bd4dfcbe3588f985594e0f29f3c8",
      "transactionIndex": "0x2a",
      "blockHash": "0x1f153f6eb92f0de6dd98aae93dbba5080ffd677165011f19f0ba2d33f1624a1d",
      "blockNumber": "0x3bd8d53",
      "gasUsed": "0xb489",
      "effectiveGasPrice": "0x6fc23ac1a",
      "from": "0x21af1185734d213d45c6236146fb81e2b0e8b821",
      "to": "0x3d2bd0e15829aa5c362a4144fdf4a1112fa29b5c",
      "contractAddress": null
    },
    {
      "status": "0x1",
      "cumulativeGasUsed": "0x61e9e3",
      "logs": [
        {
          "address": "0x0000000000000000000000000000000000001010",
          "topics": [
            "0xe6497e3ee548a3372136af2fcb0696db31fc6cf20260707645068bd3fe97f3c4",
            "0x0000000000000000000000000000000000000000000000000000000000001010",
            "0x00000000000000000000000021af1185734d213d45c6236146fb81e2b0e8b821",
            "0x000000000000000000000000303b63e785b656ca56ea5a5c1634ab20c98895e1"
          ],
          "data": "0x0000000000000000000000000000000000000000000000003b6c7424d41d952a00000000000000000000000000000000000000000000000056e1e7bb54c5736100000000000000000000000000000000000000000000000000000000000000000000000000000000000000000000000000000000000000001b75739680a7de370000000000000000000000000000000000000000000000003b6c7424d41d952a",
          "blockHash": "0x1f153f6eb92f0de6dd98aae93dbba5080ffd677165011f19f0ba2d33f1624a1d",
          "blockNumber": "0x3bd8d53",
          "transactionHash": "0x3baa9accead894788ff5f081d6337207a2ab1177721608a340b46de9eab78f08",
          "transactionIndex": "0x2c",
          "logIndex": "0xa7",
          "removed": false
        },
        {
          "address": "0x3d2bd0e15829aa5c362a4144fdf4a1112fa29b5c",
          "topics": [
            "0xddf252ad1be2c89b69c2b068fc378daa952ba7f163c4a11628f55a4df523b3ef",
            "0x00000000000000000000000021af1185734d213d45c6236146fb81e2b0e8b821",
            "0x000000000000000000000000303b63e785b656ca56ea5a5c1634ab20c98895e1"
          ],
          "data": "0x0000000000000000000000000000000000000000000295be96e6406697200000",
          "blockHash": "0x1f153f6eb92f0de6dd98aae93dbba5080ffd677165011f19f0ba2d33f1624a1d",
          "blockNumber": "0x3bd8d53",
          "transactionHash": "0x3baa9accead894788ff5f081d6337207a2ab1177721608a340b46de9eab78f08",
          "transactionIndex": "0x2c",
          "logIndex": "0xa8",
          "removed": false
        },
        {
          "address": "0x0000000000000000000000000000000000001010",
          "topics": [
            "0xe6497e3ee548a3372136af2fcb0696db31fc6cf20260707645068bd3fe97f3c4",
            "0x0000000000000000000000000000000000000000000000000000000000001010",
            "0x000000000000000000000000303b63e785b656ca56ea5a5c1634ab20c98895e1",
            "0x0000000000000000000000001a44076050125825900e736c501f859c50fe728c"
          ],
          "data": "0x0000000000000000000000000000000000000000000000003b6c7424d41d952a0000000000000000000000000000000000000000000000003b6c7424d41d952a000000000000000000000000000000000000000000000000000000000000000000000000000000000000000000000000000000000000000000000000000000000000000000000000000000000000000000000000000000003b6c7424d41d952a",
          "blockHash": "0x1f153f6eb92f0de6dd98aae93dbba5080ffd677165011f19f0ba2d33f1624a1d",
          "blockNumber": "0x3bd8d53",
          "transactionHash": "0x3baa9accead894788ff5f081d6337207a2ab1177721608a340b46de9eab78f08",
          "transactionIndex": "0x2c",
          "logIndex": "0xa9",
          "removed": false
        },
        {
          "address": "0x6c26c61a97006888ea9e4fa36584c7df57cd9da3",
          "topics": [
            "0x61ed099e74a97a1d7f8bb0952a88ca8b7b8ebd00c126ea04671f92a81213318a"
          ],
          "data": "0x000000000000000000000000cd3f213ad101472e1713c72b1697e727c803885b000000000000000000000000000000000000000000000000139fb14407311e0c",
          "blockHash": "0x1f153f6eb92f0de6dd98aae93dbba5080ffd677165011f19f0ba2d33f1624a1d",
          "blockNumber": "0x3bd8d53",
          "transactionHash": "0x3baa9accead894788ff5f081d6337207a2ab1177721608a340b46de9eab78f08",
          "transactionIndex": "0x2c",
          "logIndex": "0xaa",
          "removed": false
        },
        {
          "address": "0x6c26c61a97006888ea9e4fa36584c7df57cd9da3",
          "topics": [
            "0x07ea52d82345d6e838192107d8fd7123d9c2ec8e916cd0aad13fd2b60db24644"
          ],
          "data": "0x000000000000000000000000000000000000000000000000000000000000006000000000000000000000000000000000000000000000000000000000000000a000000000000000000000000000000000000000000000000000000000000000e0000000000000000000000000000000000000000000000000000000000000000100000000000000000000000023de2fe932d9043291f870324b74f820e11dc81a0000000000000000000000000000000000000000000000000000000000000001000000000000000000000000c79f0b1bcb7cdae9f9ba547dcfc57cbfcd2993a5000000000000000000000000000000000000000000000000000000000000000200000000000000000000000000000000000000000000000013e7080c966fb4f200000000000000000000000000000000000000000000000013e5bad4367cc22c",
          "blockHash": "0x1f153f6eb92f0de6dd98aae93dbba5080ffd677165011f19f0ba2d33f1624a1d",
          "blockNumber": "0x3bd8d53",
          "transactionHash": "0x3baa9accead894788ff5f081d6337207a2ab1177721608a340b46de9eab78f08",
          "transactionIndex": "0x2c",
          "logIndex": "0xab",
          "removed": false
        },
        {
          "address": "0x1a44076050125825900e736c501f859c50fe728c",
          "topics": [
            "0x1ab700d4ced0c005b164c0f789fd09fcbb0156d4c2041b8a3bfbcd961cd1567f"
          ],
          "data": "0x000000000000000000000000000000000000000000000000000000000000006000000000000000000000000000000000000000000000000000000000000001200000000000000000000000006c26c61a97006888ea9e4fa36584c7df57cd9da300000000000000000000000000000000000000000000000000000000000000990100000000000000020000759d000000000000000000000000303b63e785b656ca56ea5a5c1634ab20c98895e1000075d5000000000000000000000000b0588f9a9cade7cd5f194a5fe77acd6a58250f8251a7b0a73be7992e8280f79b973860bd8554bfd8c39affe8c3f088e49170a9bc00000000000000000000000021af1185734d213d45c6236146fb81e2b0e8b821000002d79883d2000000000000000000000000000000000000000000000000000000000000000000000000000000160003010011010000000000000000000000000001adb000000000000000000000",
          "blockHash": "0x1f153f6eb92f0de6dd98aae93dbba5080ffd677165011f19f0ba2d33f1624a1d",
          "blockNumber": "0x3bd8d53",
          "transactionHash": "0x3baa9accead894788ff5f081d6337207a2ab1177721608a340b46de9eab78f08",
          "transactionIndex": "0x2c",
          "logIndex": "0xac",
          "removed": false
        },
        {
          "address": "0x0000000000000000000000000000000000001010",
          "topics": [
            "0xe6497e3ee548a3372136af2fcb0696db31fc6cf20260707645068bd3fe97f3c4",
            "0x0000000000000000000000000000000000000000000000000000000000001010",
            "0x0000000000000000000000001a44076050125825900e736c501f859c50fe728c",
            "0x0000000000000000000000006c26c61a97006888ea9e4fa36584c7df57cd9da3"
          ],
          "data": "0x0000000000000000000000000000000000000000000000003b6c7424d41d952a0000000000000000000000000000000000000000000000003b6c7424d41d952a00000000000000000000000000000000000000000000031564a3cda3ae99e7e80000000000000000000000000000000000000000000000000000000000000000000000000000000000000000000000000000000000000315a01041c882b77d12",
          "blockHash": "0x1f153f6eb92f0de6dd98aae93dbba5080ffd677165011f19f0ba2d33f1624a1d",
          "blockNumber": "0x3bd8d53",
          "transactionHash": "0x3baa9accead894788ff5f081d6337207a2ab1177721608a340b46de9eab78f08",
          "transactionIndex": "0x2c",
          "logIndex": "0xad",
          "removed": false
        },
        {
          "address": "0x303b63e785b656ca56ea5a5c1634ab20c98895e1",
          "topics": [
            "0x85496b760a4b7f8d66384b9df21b381f5d1b1e79f229a47aaf4c232edc2fe59a",
            "0x51a7b0a73be7992e8280f79b973860bd8554bfd8c39affe8c3f088e49170a9bc",
            "0x00000000000000000000000021af1185734d213d45c6236146fb81e2b0e8b821"
          ],
          "data": "0x00000000000000000000000000000000000000000000000000000000000075d50000000000000000000000000000000000000000000295be96e64066972000000000000000000000000000000000000000000000000295be96e6406697200000",
          "blockHash": "0x1f153f6eb92f0de6dd98aae93dbba5080ffd677165011f19f0ba2d33f1624a1d",
          "blockNumber": "0x3bd8d53",
          "transactionHash": "0x3baa9accead894788ff5f081d6337207a2ab1177721608a340b46de9eab78f08",
          "transactionIndex": "0x2c",
          "logIndex": "0xae",
          "removed": false
        },
        {
          "address": "0x0000000000000000000000000000000000001010",
          "topics": [
            "0x4dfe1bbbcf077ddc3e01291eea2d5c70c2b422b415d95645b9adcfd678cb1d63",
            "0x0000000000000000000000000000000000000000000000000000000000001010",
            "0x00000000000000000000000021af1185734d213d45c6236146fb81e2b0e8b821",
            "0x00000000000000000000000098c27cc3f0301b6272049dc3f972e2f542780629"
          ],
          "data": "0x000000000000000000000000000000000000000000000000001cc6478f79cc00000000000000000000000000000000000000000000000000570bfce7dbd0e46b0000000000000000000000000000000000000000000014e901002c94d891a64600000000000000000000000000000000000000000000000056ef36a04c57186b0000000000000000000000000000000000000000000014e9011cf2dc680b7246",
          "blockHash": "0x1f153f6eb92f0de6dd98aae93dbba5080ffd677165011f19f0ba2d33f1624a1d",
          "blockNumber": "0x3bd8d53",
          "transactionHash": "0x3baa9accead894788ff5f081d6337207a2ab1177721608a340b46de9eab78f08",
          "transactionIndex": "0x2c",
          "logIndex": "0xaf",
          "removed": false
        }
      ],
      "logsBloom": "0x408000000000000000000480000800000000000000000000000000040010000000000040000010000000001000020000000080000000000000000000000000000000820420100000004000080000008000000000000000000001000000000000000000000000000080000000000008000000000000100000802040100100000000000000000000000000000800000000000000200000000000000100000000002000000080000000001010000000000080000000004000000004c0080000004000000002400000000001000080000000000000000000801000188000000000000000040000000000000000000000002000000000018000000000000000100000",
      "type": "0x2",
      "transactionHash": "0x3baa9accead894788ff5f081d6337207a2ab1177721608a340b46de9eab78f08",
      "transactionIndex": "0x2c",
      "blockHash": "0x1f153f6eb92f0de6dd98aae93dbba5080ffd677165011f19f0ba2d33f1624a1d",
      "blockNumber": "0x3bd8d53",
      "gasUsed": "0x41e99",
      "effectiveGasPrice": "0x6fc23ac1a",
      "from": "0x21af1185734d213d45c6236146fb81e2b0e8b821",
      "to": "0x303b63e785b656ca56ea5a5c1634ab20c98895e1",
      "contractAddress": null
    }
  ],
  "libraries": [],
  "pending": [],
  "returns": {},
  "timestamp": 1728325918,
  "chain": 137,
  "commit": "9bc9372"
}