{
  "transactions": [
    {
      "hash": "0x9488e6ef5774a3b33d50d76439b6d532ece9ede62d2beaed89a007492c37e78e",
      "transactionType": "CALL",
      "contractName": null,
      "contractAddress": "0x3d2bd0e15829aa5c362a4144fdf4a1112fa29b5c",
      "function": "approve(address,uint256)",
      "arguments": [
        "0x303b63e785B656ca56ea5A5C1634Ab20C98895e1",
        "100000000000000000000000"
      ],
      "transaction": {
        "from": "0x21af1185734d213d45c6236146fb81e2b0e8b821",
        "to": "0x3d2bd0e15829aa5c362a4144fdf4a1112fa29b5c",
        "gas": "0xf94b",
        "value": "0x0",
        "input": "0x095ea7b3000000000000000000000000303b63e785b656ca56ea5a5c1634ab20c98895e100000000000000000000000000000000000000000000152d02c7e14af6800000",
        "nonce": "0x149",
        "chainId": "0x89"
      },
      "additionalContracts": [],
      "isFixedGasLimit": false
    },
    {
      "hash": "0xb82eda24aef087a4d38a6385d68d89c823f6f2fb17ca8250b361c888e5eb4da9",
      "transactionType": "CALL",
      "contractName": null,
      "contractAddress": "0x303b63e785b656ca56ea5a5c1634ab20c98895e1",
      "function": "send((uint32,bytes32,uint256,uint256,bytes,bytes,bytes),(uint256,uint256),address)",
      "arguments": [
        "(30373, 0x00000000000000000000000021af1185734d213d45c6236146fb81e2b0e8b821, 100000000000000000000000, 100000000000000000000000, 0x0003010011010000000000000000000000000007a120, 0x, 0x)",
        "(105479669012444417, 0)",
        "0x9f7cF1d1F558E57ef88a59ac3D47214eF25B6A06"
      ],
      "transaction": {
        "from": "0x21af1185734d213d45c6236146fb81e2b0e8b821",
        "to": "0x303b63e785b656ca56ea5a5c1634ab20c98895e1",
        "gas": "0x59bde",
        "value": "0x176bd333a833501",
        "input": "0xc7c7f5b300000000000000000000000000000000000000000000000000000000000000800000000000000000000000000000000000000000000000000176bd333a83350100000000000000000000000000000000000000000000000000000000000000000000000000000000000000009f7cf1d1f558e57ef88a59ac3d47214ef25b6a0600000000000000000000000000000000000000000000000000000000000076a500000000000000000000000021af1185734d213d45c6236146fb81e2b0e8b82100000000000000000000000000000000000000000000152d02c7e14af680000000000000000000000000000000000000000000000000152d02c7e14af680000000000000000000000000000000000000000000000000000000000000000000e00000000000000000000000000000000000000000000000000000000000000120000000000000000000000000000000000000000000000000000000000000014000000000000000000000000000000000000000000000000000000000000000160003010011010000000000000000000000000007a1200000000000000000000000000000000000000000000000000000000000000000000000000000000000000000000000000000000000000000000000000000000000000000000000000000",
        "nonce": "0x14a",
        "chainId": "0x89"
      },
      "additionalContracts": [],
      "isFixedGasLimit": false
    }
  ],
  "receipts": [
    {
      "status": "0x1",
      "cumulativeGasUsed": "0x220108",
      "logs": [
        {
          "address": "0x3d2bd0e15829aa5c362a4144fdf4a1112fa29b5c",
          "topics": [
            "0x8c5be1e5ebec7d5bd14f71427d1e84f3dd0314c0f7b2291e5b200ac8c7c3b925",
            "0x00000000000000000000000021af1185734d213d45c6236146fb81e2b0e8b821",
            "0x000000000000000000000000303b63e785b656ca56ea5a5c1634ab20c98895e1"
          ],
          "data": "0x00000000000000000000000000000000000000000000152d02c7e14af6800000",
          "blockHash": "0xd6d78c09de1ec40395c2a18b4da384b2f6ca0a763404c9c44959e84ed7940fdf",
          "blockNumber": "0x42a0702",
          "transactionHash": "0x9488e6ef5774a3b33d50d76439b6d532ece9ede62d2beaed89a007492c37e78e",
          "transactionIndex": "0x18",
          "logIndex": "0x7c",
          "removed": false
        },
        {
          "address": "0x0000000000000000000000000000000000001010",
          "topics": [
            "0x4dfe1bbbcf077ddc3e01291eea2d5c70c2b422b415d95645b9adcfd678cb1d63",
            "0x0000000000000000000000000000000000000000000000000000000000001010",
            "0x00000000000000000000000021af1185734d213d45c6236146fb81e2b0e8b821",
            "0x000000000000000000000000eedba2484aaf940f37cd3cd21a5d7c4a7dafbfc0"
          ],
          "data": "0x000000000000000000000000000000000000000000000000000446a3ee0b315f00000000000000000000000000000000000000000000000006be8dd56811992900000000000000000000000000000000000000000001f28c390492e15712a1d600000000000000000000000000000000000000000000000006ba47317a0667ca00000000000000000000000000000000000000000001f28c3908d985451dd335",
          "blockHash": "0xd6d78c09de1ec40395c2a18b4da384b2f6ca0a763404c9c44959e84ed7940fdf",
          "blockNumber": "0x42a0702",
          "transactionHash": "0x9488e6ef5774a3b33d50d76439b6d532ece9ede62d2beaed89a007492c37e78e",
          "transactionIndex": "0x18",
          "logIndex": "0x7d",
          "removed": false
        }
      ],
      "logsBloom": "0x400000000000000000000000000800000000000000000000000000000000000000000000000010000000000000000000000080000000000000000000002000000000000420000000000000000000008000000000000000000001000000000000000000000000000000000000000008000000000001000000800040000000000000000040000000000000000000000000000000000000000000000000000000002200000000000000000000000000000000000000000000000000a0080000004000000000000000000001000000000000000000000000000000100000000000000010000000000000000000000000000000000000000000000000000000100000",
      "type": "0x2",
      "transactionHash": "0x9488e6ef5774a3b33d50d76439b6d532ece9ede62d2beaed89a007492c37e78e",
      "transactionIndex": "0x18",
      "blockHash": "0xd6d78c09de1ec40395c2a18b4da384b2f6ca0a763404c9c44959e84ed7940fdf",
      "blockNumber": "0x42a0702",
      "gasUsed": "0xb47d",
      "effectiveGasPrice": "0x71ea9c3e2",
      "from": "0x21af1185734d213d45c6236146fb81e2b0e8b821",
      "to": "0x3d2bd0e15829aa5c362a4144fdf4a1112fa29b5c",
      "contractAddress": null
    },
    {
      "status": "0x1",
      "cumulativeGasUsed": "0x3cdae2",
      "logs": [
        {
          "address": "0x0000000000000000000000000000000000001010",
          "topics": [
            "0xe6497e3ee548a3372136af2fcb0696db31fc6cf20260707645068bd3fe97f3c4",
            "0x0000000000000000000000000000000000000000000000000000000000001010",
            "0x00000000000000000000000021af1185734d213d45c6236146fb81e2b0e8b821",
            "0x000000000000000000000000303b63e785b656ca56ea5a5c1634ab20c98895e1"
          ],
          "data": "0x0000000000000000000000000000000000000000000000000176bd333a8335010000000000000000000000000000000000000000000000000691be358aafacc10000000000000000000000000000000000000000000000000000000000000000000000000000000000000000000000000000000000000000051b0102502c77c00000000000000000000000000000000000000000000000000176bd333a833501",
          "blockHash": "0xb55f3e97079bb0c0cd52a077fe3543537744e3b0fb30f5b308a0de903969344a",
          "blockNumber": "0x42a0703",
          "transactionHash": "0xb82eda24aef087a4d38a6385d68d89c823f6f2fb17ca8250b361c888e5eb4da9",
          "transactionIndex": "0x21",
          "logIndex": "0xbf",
          "removed": false
        },
        {
          "address": "0x3d2bd0e15829aa5c362a4144fdf4a1112fa29b5c",
          "topics": [
            "0xddf252ad1be2c89b69c2b068fc378daa952ba7f163c4a11628f55a4df523b3ef",
            "0x00000000000000000000000021af1185734d213d45c6236146fb81e2b0e8b821",
            "0x000000000000000000000000303b63e785b656ca56ea5a5c1634ab20c98895e1"
          ],
          "data": "0x00000000000000000000000000000000000000000000152d02c7e14af6800000",
          "blockHash": "0xb55f3e97079bb0c0cd52a077fe3543537744e3b0fb30f5b308a0de903969344a",
          "blockNumber": "0x42a0703",
          "transactionHash": "0xb82eda24aef087a4d38a6385d68d89c823f6f2fb17ca8250b361c888e5eb4da9",
          "transactionIndex": "0x21",
          "logIndex": "0xc0",
          "removed": false
        },
        {
          "address": "0x0000000000000000000000000000000000001010",
          "topics": [
            "0xe6497e3ee548a3372136af2fcb0696db31fc6cf20260707645068bd3fe97f3c4",
            "0x0000000000000000000000000000000000000000000000000000000000001010",
            "0x000000000000000000000000303b63e785b656ca56ea5a5c1634ab20c98895e1",
            "0x0000000000000000000000001a44076050125825900e736c501f859c50fe728c"
          ],
          "data": "0x0000000000000000000000000000000000000000000000000176bd333a8335010000000000000000000000000000000000000000000000000176bd333a833501000000000000000000000000000000000000000000000000000000000000000000000000000000000000000000000000000000000000000000000000000000000000000000000000000000000000000000000000000000000176bd333a833501",
          "blockHash": "0xb55f3e97079bb0c0cd52a077fe3543537744e3b0fb30f5b308a0de903969344a",
          "blockNumber": "0x42a0703",
          "transactionHash": "0xb82eda24aef087a4d38a6385d68d89c823f6f2fb17ca8250b361c888e5eb4da9",
          "transactionIndex": "0x21",
          "logIndex": "0xc1",
          "removed": false
        },
        {
          "address": "0x6c26c61a97006888ea9e4fa36584c7df57cd9da3",
          "topics": [
            "0x61ed099e74a97a1d7f8bb0952a88ca8b7b8ebd00c126ea04671f92a81213318a"
          ],
          "data": "0x000000000000000000000000cd3f213ad101472e1713c72b1697e727c803885b0000000000000000000000000000000000000000000000000176bd3338d788e9",
          "blockHash": "0xb55f3e97079bb0c0cd52a077fe3543537744e3b0fb30f5b308a0de903969344a",
          "blockNumber": "0x42a0703",
          "transactionHash": "0xb82eda24aef087a4d38a6385d68d89c823f6f2fb17ca8250b361c888e5eb4da9",
          "transactionIndex": "0x21",
          "logIndex": "0xc2",
          "removed": false
        },
        {
          "address": "0x6c26c61a97006888ea9e4fa36584c7df57cd9da3",
          "topics": [
            "0x07ea52d82345d6e838192107d8fd7123d9c2ec8e916cd0aad13fd2b60db24644"
          ],
          "data": "0x000000000000000000000000000000000000000000000000000000000000006000000000000000000000000000000000000000000000000000000000000000a000000000000000000000000000000000000000000000000000000000000000c0000000000000000000000000000000000000000000000000000000000000000100000000000000000000000023de2fe932d9043291f870324b74f820e11dc81a000000000000000000000000000000000000000000000000000000000000000000000000000000000000000000000000000000000000000000000000000000010000000000000000000000000000000000000000000000000000000001abac18",
          "blockHash": "0xb55f3e97079bb0c0cd52a077fe3543537744e3b0fb30f5b308a0de903969344a",
          "blockNumber": "0x42a0703",
          "transactionHash": "0xb82eda24aef087a4d38a6385d68d89c823f6f2fb17ca8250b361c888e5eb4da9",
          "transactionIndex": "0x21",
          "logIndex": "0xc3",
          "removed": false
        },
        {
          "address": "0x1a44076050125825900e736c501f859c50fe728c",
          "topics": [
            "0x1ab700d4ced0c005b164c0f789fd09fcbb0156d4c2041b8a3bfbcd961cd1567f"
          ],
          "data": "0x000000000000000000000000000000000000000000000000000000000000006000000000000000000000000000000000000000000000000000000000000001200000000000000000000000006c26c61a97006888ea9e4fa36584c7df57cd9da300000000000000000000000000000000000000000000000000000000000000990100000000000000010000759d000000000000000000000000303b63e785b656ca56ea5a5c1634ab20c98895e1000076a5000000000000000000000000b0588f9a9cade7cd5f194a5fe77acd6a58250f8234e47f9079b32c0b2a1f6032b2634489d0b4be7bd6fa7fa3b5a78890ca5c078500000000000000000000000021af1185734d213d45c6236146fb81e2b0e8b821000000174876e80000000000000000000000000000000000000000000000000000000000000000000000000000002a0003010011010000000000000000000000000001adb0010011010000000000000000000000000007a12000000000000000000000000000000000000000000000",
          "blockHash": "0xb55f3e97079bb0c0cd52a077fe3543537744e3b0fb30f5b308a0de903969344a",
          "blockNumber": "0x42a0703",
          "transactionHash": "0xb82eda24aef087a4d38a6385d68d89c823f6f2fb17ca8250b361c888e5eb4da9",
          "transactionIndex": "0x21",
          "logIndex": "0xc4",
          "removed": false
        },
        {
          "address": "0x0000000000000000000000000000000000001010",
          "topics": [
            "0xe6497e3ee548a3372136af2fcb0696db31fc6cf20260707645068bd3fe97f3c4",
            "0x0000000000000000000000000000000000000000000000000000000000001010",
            "0x0000000000000000000000001a44076050125825900e736c501f859c50fe728c",
            "0x0000000000000000000000006c26c61a97006888ea9e4fa36584c7df57cd9da3"
          ],
          "data": "0x0000000000000000000000000000000000000000000000000176bd333a8335010000000000000000000000000000000000000000000000000176bd333a833501000000000000000000000000000000000000000000000b86d839456f77fae8410000000000000000000000000000000000000000000000000000000000000000000000000000000000000000000000000000000000000b86d9b002a2b27e1d42",
          "blockHash": "0xb55f3e97079bb0c0cd52a077fe3543537744e3b0fb30f5b308a0de903969344a",
          "blockNumber": "0x42a0703",
          "transactionHash": "0xb82eda24aef087a4d38a6385d68d89c823f6f2fb17ca8250b361c888e5eb4da9",
          "transactionIndex": "0x21",
          "logIndex": "0xc5",
          "removed": false
        },
        {
          "address": "0x303b63e785b656ca56ea5a5c1634ab20c98895e1",
          "topics": [
            "0x85496b760a4b7f8d66384b9df21b381f5d1b1e79f229a47aaf4c232edc2fe59a",
            "0x34e47f9079b32c0b2a1f6032b2634489d0b4be7bd6fa7fa3b5a78890ca5c0785",
            "0x00000000000000000000000021af1185734d213d45c6236146fb81e2b0e8b821"
          ],
          "data": "0x00000000000000000000000000000000000000000000000000000000000076a500000000000000000000000000000000000000000000152d02c7e14af680000000000000000000000000000000000000000000000000152d02c7e14af6800000",
          "blockHash": "0xb55f3e97079bb0c0cd52a077fe3543537744e3b0fb30f5b308a0de903969344a",
          "blockNumber": "0x42a0703",
          "transactionHash": "0xb82eda24aef087a4d38a6385d68d89c823f6f2fb17ca8250b361c888e5eb4da9",
          "transactionIndex": "0x21",
          "logIndex": "0xc6",
          "removed": false
        },
        {
          "address": "0x0000000000000000000000000000000000001010",
          "topics": [
            "0x4dfe1bbbcf077ddc3e01291eea2d5c70c2b422b415d95645b9adcfd678cb1d63",
            "0x0000000000000000000000000000000000000000000000000000000000001010",
            "0x00000000000000000000000021af1185734d213d45c6236146fb81e2b0e8b821",
            "0x000000000000000000000000eedba2484aaf940f37cd3cd21a5d7c4a7dafbfc0"
          ],
          "data": "0x00000000000000000000000000000000000000000000000000174275aff43fb900000000000000000000000000000000000000000000000006b988cc11720bcf00000000000000000000000000000000000000000001f28c3d6f81560f634e1300000000000000000000000000000000000000000000000006a24656617dcc1600000000000000000000000000000000000000000001f28c3d86c3cbbf578dcc",
          "blockHash": "0xb55f3e97079bb0c0cd52a077fe3543537744e3b0fb30f5b308a0de903969344a",
          "blockNumber": "0x42a0703",
          "transactionHash": "0xb82eda24aef087a4d38a6385d68d89c823f6f2fb17ca8250b361c888e5eb4da9",
          "transactionIndex": "0x21",
          "logIndex": "0xc7",
          "removed": false
        }
      ],
      "logsBloom": "0x400000000000000000000480000800000000000000000000000000040010000000000040000010000000001000020000000080000000000000000000000000000000820420100000004000080000008000000000000000000001000000000000000000000000000080000000000008000000000001100000802040100000000000000040000000000000000800000000000000000000000000000100000000002000000080000000001000008000000000000000004000000004e0080000004000000002000000000001000080000000000000000000801000188000000000000000040000000000000000000000002000000000018000000020000000100000",
      "type": "0x2",
      "transactionHash": "0xb82eda24aef087a4d38a6385d68d89c823f6f2fb17ca8250b361c888e5eb4da9",
      "transactionIndex": "0x21",
      "blockHash": "0xb55f3e97079bb0c0cd52a077fe3543537744e3b0fb30f5b308a0de903969344a",
      "blockNumber": "0x42a0703",
      "gasUsed": "0x3d5cb",
      "effectiveGasPrice": "0x718294fe9",
      "from": "0x21af1185734d213d45c6236146fb81e2b0e8b821",
      "to": "0x303b63e785b656ca56ea5a5c1634ab20c98895e1",
      "contractAddress": null
    }
  ],
  "libraries": [],
  "pending": [],
  "returns": {},
  "timestamp": 1743720567,
  "chain": 137,
  "commit": "d4c7a91"
}