{
  "transactions": [
    {
      "hash": "0x06c24a9de83f910ab617c361902a53e65f1e9646db1a333ed868d4919128b1e8",
      "transactionType": "CALL",
      "contractName": null,
      "contractAddress": "0x3d2bD0e15829AA5C362a4144FdF4A1112fa29B5c",
      "function": "approve(address,uint256)",
      "arguments": [
        "0x303b63e785B656ca56ea5A5C1634Ab20C98895e1",
        "500000000000000000000000"
      ],
      "transaction": {
        "from": "0x21aF1185734D213D45C6236146fb81E2b0E8b821",
        "to": "0x3d2bD0e15829AA5C362a4144FdF4A1112fa29B5c",
        "gas": "0xf94b",
        "value": "0x0",
        "input": "0x095ea7b3000000000000000000000000303b63e785b656ca56ea5a5c1634ab20c98895e10000000000000000000000000000000000000000000069e10de76676d0800000",
        "nonce": "0x10d",
        "chainId": "0x89"
      },
      "additionalContracts": [],
      "isFixedGasLimit": false
    },
    {
      "hash": "0x3dd9dcfcb81f9238f395068cf9e8c988ac8502481fd214552ba4ea5cc0af56e5",
      "transactionType": "CALL",
      "contractName": null,
      "contractAddress": "0x303b63e785B656ca56ea5A5C1634Ab20C98895e1",
      "function": "send((uint32,bytes32,uint256,uint256,bytes,bytes,bytes),(uint256,uint256),address)",
      "arguments": [
        "(30165, 0x00000000000000000000000021af1185734d213d45c6236146fb81e2b0e8b821, 500000000000000000000000, 500000000000000000000000, 0x0003010011010000000000000000000000000007a120, 0x, 0x)",
        "(3182996651846858109, 0)",
        "0x5b73C5498c1E3b4dbA84de0F1833c4a029d90519"
      ],
      "transaction": {
        "from": "0x21aF1185734D213D45C6236146fb81E2b0E8b821",
        "to": "0x303b63e785B656ca56ea5A5C1634Ab20C98895e1",
        "gas": "0x61f08",
        "value": "0x2c2c46973296f57d",
        "input": "0xc7c7f5b300000000000000000000000000000000000000000000000000000000000000800000000000000000000000000000000000000000000000002c2c46973296f57d00000000000000000000000000000000000000000000000000000000000000000000000000000000000000005b73c5498c1e3b4dba84de0f1833c4a029d9051900000000000000000000000000000000000000000000000000000000000075d500000000000000000000000021af1185734d213d45c6236146fb81e2b0e8b8210000000000000000000000000000000000000000000069e10de76676d08000000000000000000000000000000000000000000000000069e10de76676d080000000000000000000000000000000000000000000000000000000000000000000e00000000000000000000000000000000000000000000000000000000000000120000000000000000000000000000000000000000000000000000000000000014000000000000000000000000000000000000000000000000000000000000000160003010011010000000000000000000000000007a1200000000000000000000000000000000000000000000000000000000000000000000000000000000000000000000000000000000000000000000000000000000000000000000000000000",
        "nonce": "0x10e",
        "chainId": "0x89"
      },
      "additionalContracts": [],
      "isFixedGasLimit": false
    }
  ],
  "receipts": [
    {
      "status": "0x1",
      "cumulativeGasUsed": "0x7dbf83",
      "logs": [
        {
          "address": "0x3d2bD0e15829AA5C362a4144FdF4A1112fa29B5c",
          "topics": [
            "0x8c5be1e5ebec7d5bd14f71427d1e84f3dd0314c0f7b2291e5b200ac8c7c3b925",
            "0x00000000000000000000000021af1185734d213d45c6236146fb81e2b0e8b821",
            "0x000000000000000000000000303b63e785b656ca56ea5a5c1634ab20c98895e1"
          ],
          "data": "0x0000000000000000000000000000000000000000000069e10de76676d0800000",
          "blockHash": "0x7a2ee626f9a7259900d02bf823e30d0a6f822081a9e63e3a04562b20d8ba89bb",
          "blockNumber": "0x3e1ad7d",
          "transactionHash": "0x06c24a9de83f910ab617c361902a53e65f1e9646db1a333ed868d4919128b1e8",
          "transactionIndex": "0x3e",
          "logIndex": "0x2ad",
          "removed": false
        },
        {
          "address": "0x0000000000000000000000000000000000001010",
          "topics": [
            "0x4dfe1bbbcf077ddc3e01291eea2d5c70c2b422b415d95645b9adcfd678cb1d63",
            "0x0000000000000000000000000000000000000000000000000000000000001010",
            "0x00000000000000000000000021af1185734d213d45c6236146fb81e2b0e8b821",
            "0x00000000000000000000000067b94473d81d0cd00849d563c94d0432ac988b49"
          ],
          "data": "0x000000000000000000000000000000000000000000000000000553eee40713dc000000000000000000000000000000000000000000000000d7ef6e95b931d2e70000000000000000000000000000000000000000000007e18a7fe2f3b49e9522000000000000000000000000000000000000000000000000d7ea1aa6d52abf0b0000000000000000000000000000000000000000000007e18a8536e298a5a8fe",
          "blockHash": "0x7a2ee626f9a7259900d02bf823e30d0a6f822081a9e63e3a04562b20d8ba89bb",
          "blockNumber": "0x3e1ad7d",
          "transactionHash": "0x06c24a9de83f910ab617c361902a53e65f1e9646db1a333ed868d4919128b1e8",
          "transactionIndex": "0x3e",
          "logIndex": "0x2ae",
          "removed": false
        }
      ],
      "logsBloom": "0x40000000000000000000000000080000000000000000000000000000000000000000000000001000000000000000000000008000000000000000000000200000000000042000000000000000000000800000000000000000000100000000000000000000000000000000000000000800000000000000000080004000000000000000000000000000000000000000000000000000000000000000000000000000220000000000000000000000000000000000000000000000000080080000004000800000000000000001000000008000000000000000000000100000000000000010020000000000000000000000000000000000000000000000000000100000",
      "type": "0x2",
      "transactionHash": "0x06c24a9de83f910ab617c361902a53e65f1e9646db1a333ed868d4919128b1e8",
      "transactionIndex": "0x3e",
      "blockHash": "0x7a2ee626f9a7259900d02bf823e30d0a6f822081a9e63e3a04562b20d8ba89bb",
      "blockNumber": "0x3e1ad7d",
      "gasUsed": "0xb47d",
      "effectiveGasPrice": "0x874084bb0",
      "from": "0x21aF1185734D213D45C6236146fb81E2b0E8b821",
      "to": "0x3d2bD0e15829AA5C362a4144FdF4A1112fa29B5c",
      "contractAddress": null
    },
    {
      "status": "0x1",
      "cumulativeGasUsed": "0x81eefd",
      "logs": [
        {
          "address": "0x0000000000000000000000000000000000001010",
          "topics": [
            "0xe6497e3ee548a3372136af2fcb0696db31fc6cf20260707645068bd3fe97f3c4",
            "0x0000000000000000000000000000000000000000000000000000000000001010",
            "0x00000000000000000000000021af1185734d213d45c6236146fb81e2b0e8b821",
            "0x000000000000000000000000303b63e785b656ca56ea5a5c1634ab20c98895e1"
          ],
          "data": "0x0000000000000000000000000000000000000000000000002c2c46973296f57d000000000000000000000000000000000000000000000000d7b5ba5cd46070770000000000000000000000000000000000000000000000000000000000000000000000000000000000000000000000000000000000000000ab8973c5a1c97afa0000000000000000000000000000000000000000000000002c2c46973296f57d",
          "blockHash": "0x7a2ee626f9a7259900d02bf823e30d0a6f822081a9e63e3a04562b20d8ba89bb",
          "blockNumber": "0x3e1ad7d",
          "transactionHash": "0x3dd9dcfcb81f9238f395068cf9e8c988ac8502481fd214552ba4ea5cc0af56e5",
          "transactionIndex": "0x3f",
          "logIndex": "0x2af",
          "removed": false
        },
        {
          "address": "0x3d2bD0e15829AA5C362a4144FdF4A1112fa29B5c",
          "topics": [
            "0xddf252ad1be2c89b69c2b068fc378daa952ba7f163c4a11628f55a4df523b3ef",
            "0x00000000000000000000000021af1185734d213d45c6236146fb81e2b0e8b821",
            "0x000000000000000000000000303b63e785b656ca56ea5a5c1634ab20c98895e1"
          ],
          "data": "0x0000000000000000000000000000000000000000000069e10de76676d0800000",
          "blockHash": "0x7a2ee626f9a7259900d02bf823e30d0a6f822081a9e63e3a04562b20d8ba89bb",
          "blockNumber": "0x3e1ad7d",
          "transactionHash": "0x3dd9dcfcb81f9238f395068cf9e8c988ac8502481fd214552ba4ea5cc0af56e5",
          "transactionIndex": "0x3f",
          "logIndex": "0x2b0",
          "removed": false
        },
        {
          "address": "0x0000000000000000000000000000000000001010",
          "topics": [
            "0xe6497e3ee548a3372136af2fcb0696db31fc6cf20260707645068bd3fe97f3c4",
            "0x0000000000000000000000000000000000000000000000000000000000001010",
            "0x000000000000000000000000303b63e785b656ca56ea5a5c1634ab20c98895e1",
            "0x0000000000000000000000001a44076050125825900e736c501f859c50fe728c"
          ],
          "data": "0x0000000000000000000000000000000000000000000000002c2c46973296f57d0000000000000000000000000000000000000000000000002c2c46973296f57d000000000000000000000000000000000000000000000000000000000000000000000000000000000000000000000000000000000000000000000000000000000000000000000000000000000000000000000000000000002c2c46973296f57d",
          "blockHash": "0x7a2ee626f9a7259900d02bf823e30d0a6f822081a9e63e3a04562b20d8ba89bb",
          "blockNumber": "0x3e1ad7d",
          "transactionHash": "0x3dd9dcfcb81f9238f395068cf9e8c988ac8502481fd214552ba4ea5cc0af56e5",
          "transactionIndex": "0x3f",
          "logIndex": "0x2b1",
          "removed": false
        },
        {
          "address": "0x6c26c61a97006888ea9E4FA36584c7df57Cd9dA3",
          "topics": [
            "0x61ed099e74a97a1d7f8bb0952a88ca8b7b8ebd00c126ea04671f92a81213318a"
          ],
          "data": "0x000000000000000000000000cd3f213ad101472e1713c72b1697e727c803885b0000000000000000000000000000000000000000000000000c022bdfee95b731",
          "blockHash": "0x7a2ee626f9a7259900d02bf823e30d0a6f822081a9e63e3a04562b20d8ba89bb",
          "blockNumber": "0x3e1ad7d",
          "transactionHash": "0x3dd9dcfcb81f9238f395068cf9e8c988ac8502481fd214552ba4ea5cc0af56e5",
          "transactionIndex": "0x3f",
          "logIndex": "0x2b2",
          "removed": false
        },
        {
          "address": "0x6c26c61a97006888ea9E4FA36584c7df57Cd9dA3",
          "topics": [
            "0x07ea52d82345d6e838192107d8fd7123d9c2ec8e916cd0aad13fd2b60db24644"
          ],
          "data": "0x000000000000000000000000000000000000000000000000000000000000006000000000000000000000000000000000000000000000000000000000000000a000000000000000000000000000000000000000000000000000000000000000e0000000000000000000000000000000000000000000000000000000000000000100000000000000000000000023de2fe932d9043291f870324b74f820e11dc81a0000000000000000000000000000000000000000000000000000000000000001000000000000000000000000c79f0b1bcb7cdae9f9ba547dcfc57cbfcd2993a50000000000000000000000000000000000000000000000000000000000000002000000000000000000000000000000000000000000000000101594013c8c7574000000000000000000000000000000000000000000000000101486b60774c8d8",
          "blockHash": "0x7a2ee626f9a7259900d02bf823e30d0a6f822081a9e63e3a04562b20d8ba89bb",
          "blockNumber": "0x3e1ad7d",
          "transactionHash": "0x3dd9dcfcb81f9238f395068cf9e8c988ac8502481fd214552ba4ea5cc0af56e5",
          "transactionIndex": "0x3f",
          "logIndex": "0x2b3",
          "removed": false
        },
        {
          "address": "0x1a44076050125825900e736c501f859c50fE728c",
          "topics": [
            "0x1ab700d4ced0c005b164c0f789fd09fcbb0156d4c2041b8a3bfbcd961cd1567f"
          ],
          "data": "0x000000000000000000000000000000000000000000000000000000000000006000000000000000000000000000000000000000000000000000000000000001200000000000000000000000006c26c61a97006888ea9e4fa36584c7df57cd9da300000000000000000000000000000000000000000000000000000000000000990100000000000000220000759d000000000000000000000000303b63e785b656ca56ea5a5c1634ab20c98895e1000075d5000000000000000000000000b0588f9a9cade7cd5f194a5fe77acd6a58250f823f374fe1637239d72d0384d9d75526102a22281704ba673ea2e123601b712df600000000000000000000000021af1185734d213d45c6236146fb81e2b0e8b821000000746a52880000000000000000000000000000000000000000000000000000000000000000000000000000002a0003010011010000000000000000000000000001adb0010011010000000000000000000000000007a12000000000000000000000000000000000000000000000",
          "blockHash": "0x7a2ee626f9a7259900d02bf823e30d0a6f822081a9e63e3a04562b20d8ba89bb",
          "blockNumber": "0x3e1ad7d",
          "transactionHash": "0x3dd9dcfcb81f9238f395068cf9e8c988ac8502481fd214552ba4ea5cc0af56e5",
          "transactionIndex": "0x3f",
          "logIndex": "0x2b4",
          "removed": false
        },
        {
          "address": "0x0000000000000000000000000000000000001010",
          "topics": [
            "0xe6497e3ee548a3372136af2fcb0696db31fc6cf20260707645068bd3fe97f3c4",
            "0x0000000000000000000000000000000000000000000000000000000000001010",
            "0x0000000000000000000000001a44076050125825900e736c501f859c50fe728c",
            "0x0000000000000000000000006c26c61a97006888ea9e4fa36584c7df57cd9da3"
          ],
          "data": "0x0000000000000000000000000000000000000000000000002c2c46973296f57d0000000000000000000000000000000000000000000000002c2c46973296f57d0000000000000000000000000000000000000000000012014d27876704fb0f3500000000000000000000000000000000000000000000000000000000000000000000000000000000000000000000000000000000000012017953cdfe379204b2",
          "blockHash": "0x7a2ee626f9a7259900d02bf823e30d0a6f822081a9e63e3a04562b20d8ba89bb",
          "blockNumber": "0x3e1ad7d",
          "transactionHash": "0x3dd9dcfcb81f9238f395068cf9e8c988ac8502481fd214552ba4ea5cc0af56e5",
          "transactionIndex": "0x3f",
          "logIndex": "0x2b5",
          "removed": false
        },
        {
          "address": "0x303b63e785B656ca56ea5A5C1634Ab20C98895e1",
          "topics": [
            "0x85496b760a4b7f8d66384b9df21b381f5d1b1e79f229a47aaf4c232edc2fe59a",
            "0x3f374fe1637239d72d0384d9d75526102a22281704ba673ea2e123601b712df6",
            "0x00000000000000000000000021af1185734d213d45c6236146fb81e2b0e8b821"
          ],
          "data": "0x00000000000000000000000000000000000000000000000000000000000075d50000000000000000000000000000000000000000000069e10de76676d08000000000000000000000000000000000000000000000000069e10de76676d0800000",
          "blockHash": "0x7a2ee626f9a7259900d02bf823e30d0a6f822081a9e63e3a04562b20d8ba89bb",
          "blockNumber": "0x3e1ad7d",
          "transactionHash": "0x3dd9dcfcb81f9238f395068cf9e8c988ac8502481fd214552ba4ea5cc0af56e5",
          "transactionIndex": "0x3f",
          "logIndex": "0x2b6",
          "removed": false
        },
        {
          "address": "0x0000000000000000000000000000000000001010",
          "topics": [
            "0x4dfe1bbbcf077ddc3e01291eea2d5c70c2b422b415d95645b9adcfd678cb1d63",
            "0x0000000000000000000000000000000000000000000000000000000000001010",
            "0x00000000000000000000000021af1185734d213d45c6236146fb81e2b0e8b821",
            "0x00000000000000000000000067b94473d81d0cd00849d563c94d0432ac988b49"
          ],
          "data": "0x000000000000000000000000000000000000000000000000001fa10c7e2e75b8000000000000000000000000000000000000000000000000d7e978df3bed1df70000000000000000000000000000000000000000000007e18a8536e298a5a8fe000000000000000000000000000000000000000000000000d7c9d7d2bdbea83f0000000000000000000000000000000000000000000007e18aa4d7ef16d41eb6",
          "blockHash": "0x7a2ee626f9a7259900d02bf823e30d0a6f822081a9e63e3a04562b20d8ba89bb",
          "blockNumber": "0x3e1ad7d",
          "transactionHash": "0x3dd9dcfcb81f9238f395068cf9e8c988ac8502481fd214552ba4ea5cc0af56e5",
          "transactionIndex": "0x3f",
          "logIndex": "0x2b7",
          "removed": false
        }
      ],
      "logsBloom": "0x400000000000000000000480000800000000000000000000000000040010000000000040000010000000001000020000800080000000000000000000000000000000820420100000004000080000008000000000000000000001000000000000000200000000000080000000000008000000000000100000802040100000000000000000000000000000000800000000000000000000000000000100000000002000000080000000001000000000000000000000004000000004c0080000004000800002000000000001000080008000000000000000801000188000000000000000060400000000000000000000002000000000018000000000000000100000",
      "type": "0x2",
      "transactionHash": "0x3dd9dcfcb81f9238f395068cf9e8c988ac8502481fd214552ba4ea5cc0af56e5",
      "transactionIndex": "0x3f",
      "blockHash": "0x7a2ee626f9a7259900d02bf823e30d0a6f822081a9e63e3a04562b20d8ba89bb",
      "blockNumber": "0x3e1ad7d",
      "gasUsed": "0x42f7a",
      "effectiveGasPrice": "0x874084bb0",
      "from": "0x21aF1185734D213D45C6236146fb81E2b0E8b821",
      "to": "0x303b63e785B656ca56ea5A5C1634Ab20C98895e1",
      "contractAddress": null
    }
  ],
  "libraries": [],
  "pending": [],
  "returns": {},
  "timestamp": 1733419942,
  "chain": 137,
  "commit": "9bc9372"
}