{
  "transactions": [
    {
      "hash": "0xb502477aa52bf1a2402960e2c71d21ef63d8e9943816cbc463a8bd940f655076",
      "transactionType": "CALL",
      "contractName": null,
      "contractAddress": "0x3d2bD0e15829AA5C362a4144FdF4A1112fa29B5c",
      "function": "approve(address,uint256)",
      "arguments": [
        "0x303b63e785B656ca56ea5A5C1634Ab20C98895e1",
        "500000000000000000000000"
      ],
      "transaction": {
        "from": "0x21aF1185734D213D45C6236146fb81E2b0E8b821",
        "to": "0x3d2bD0e15829AA5C362a4144FdF4A1112fa29B5c",
        "gas": "0xf94b",
        "value": "0x0",
        "input": "0x095ea7b3000000000000000000000000303b63e785b656ca56ea5a5c1634ab20c98895e10000000000000000000000000000000000000000000069e10de76676d0800000",
        "nonce": "0x120",
        "chainId": "0x89"
      },
      "additionalContracts": [],
      "isFixedGasLimit": false
    },
    {
      "hash": "0x63077136781b2e9b80c3ff74dd513a9d1ebdf1c77315f59621a02b3b578890d5",
      "transactionType": "CALL",
      "contractName": null,
      "contractAddress": "0x303b63e785B656ca56ea5A5C1634Ab20C98895e1",
      "function": "send((uint32,bytes32,uint256,uint256,bytes,bytes,bytes),(uint256,uint256),address)",
      "arguments": [
        "(30184, 0x00000000000000000000000021af1185734d213d45c6236146fb81e2b0e8b821, 500000000000000000000000, 500000000000000000000000, 0x0003010011010000000000000000000000000007a120, 0x, 0x)",
        "(462358957163857435, 0)",
        "0x5b73C5498c1E3b4dbA84de0F1833c4a029d90519"
      ],
      "transaction": {
        "from": "0x21aF1185734D213D45C6236146fb81E2b0E8b821",
        "to": "0x303b63e785B656ca56ea5A5C1634Ab20C98895e1",
        "gas": "0x5d32d",
        "value": "0x66aa1059878c61b",
        "input": "0xc7c7f5b30000000000000000000000000000000000000000000000000000000000000080000000000000000000000000000000000000000000000000066aa1059878c61b00000000000000000000000000000000000000000000000000000000000000000000000000000000000000005b73c5498c1e3b4dba84de0f1833c4a029d9051900000000000000000000000000000000000000000000000000000000000075e800000000000000000000000021af1185734d213d45c6236146fb81e2b0e8b8210000000000000000000000000000000000000000000069e10de76676d08000000000000000000000000000000000000000000000000069e10de76676d080000000000000000000000000000000000000000000000000000000000000000000e00000000000000000000000000000000000000000000000000000000000000120000000000000000000000000000000000000000000000000000000000000014000000000000000000000000000000000000000000000000000000000000000160003010011010000000000000000000000000007a1200000000000000000000000000000000000000000000000000000000000000000000000000000000000000000000000000000000000000000000000000000000000000000000000000000",
        "nonce": "0x121",
        "chainId": "0x89"
      },
      "additionalContracts": [],
      "isFixedGasLimit": false
    },
    {
      "hash": "0x42a49ff637e8a1560018f6fa1815b2a3bfd2a3fb5a4d530b7baddfd62222372e",
      "transactionType": "CALL",
      "contractName": null,
      "contractAddress": "0x3d2bD0e15829AA5C362a4144FdF4A1112fa29B5c",
      "function": "approve(address,uint256)",
      "arguments": [
        "0x303b63e785B656ca56ea5A5C1634Ab20C98895e1",
        "500000000000000000000000"
      ],
      "transaction": {
        "from": "0x21aF1185734D213D45C6236146fb81E2b0E8b821",
        "to": "0x3d2bD0e15829AA5C362a4144FdF4A1112fa29B5c",
        "gas": "0xf94b",
        "value": "0x0",
        "input": "0x095ea7b3000000000000000000000000303b63e785b656ca56ea5a5c1634ab20c98895e10000000000000000000000000000000000000000000069e10de76676d0800000",
        "nonce": "0x122",
        "chainId": "0x89"
      },
      "additionalContracts": [],
      "isFixedGasLimit": false
    },
    {
      "hash": "0x9ad1e383ed26f20deeb29ee78c720f1062a7642ebff7fa7c715ea3bb76f7f009",
      "transactionType": "CALL",
      "contractName": null,
      "contractAddress": "0x303b63e785B656ca56ea5A5C1634Ab20C98895e1",
      "function": "send((uint32,bytes32,uint256,uint256,bytes,bytes,bytes),(uint256,uint256),address)",
      "arguments": [
        "(30184, 0x00000000000000000000000021af1185734d213d45c6236146fb81e2b0e8b821, 500000000000000000000000, 500000000000000000000000, 0x0003010011010000000000000000000000000007a120, 0x, 0x)",
        "(462358957163857435, 0)",
        "0x5b73C5498c1E3b4dbA84de0F1833c4a029d90519"
      ],
      "transaction": {
        "from": "0x21aF1185734D213D45C6236146fb81E2b0E8b821",
        "to": "0x303b63e785B656ca56ea5A5C1634Ab20C98895e1",
        "gas": "0x5d32d",
        "value": "0x66aa1059878c61b",
        "input": "0xc7c7f5b30000000000000000000000000000000000000000000000000000000000000080000000000000000000000000000000000000000000000000066aa1059878c61b00000000000000000000000000000000000000000000000000000000000000000000000000000000000000005b73c5498c1e3b4dba84de0f1833c4a029d9051900000000000000000000000000000000000000000000000000000000000075e800000000000000000000000021af1185734d213d45c6236146fb81e2b0e8b8210000000000000000000000000000000000000000000069e10de76676d08000000000000000000000000000000000000000000000000069e10de76676d080000000000000000000000000000000000000000000000000000000000000000000e00000000000000000000000000000000000000000000000000000000000000120000000000000000000000000000000000000000000000000000000000000014000000000000000000000000000000000000000000000000000000000000000160003010011010000000000000000000000000007a1200000000000000000000000000000000000000000000000000000000000000000000000000000000000000000000000000000000000000000000000000000000000000000000000000000",
        "nonce": "0x123",
        "chainId": "0x89"
      },
      "additionalContracts": [],
      "isFixedGasLimit": false
    }
  ],
  "receipts": [
    {
      "status": "0x1",
      "cumulativeGasUsed": "0x170621b",
      "logs": [
        {
          "address": "0x3d2bD0e15829AA5C362a4144FdF4A1112fa29B5c",
          "topics": [
            "0x8c5be1e5ebec7d5bd14f71427d1e84f3dd0314c0f7b2291e5b200ac8c7c3b925",
            "0x00000000000000000000000021af1185734d213d45c6236146fb81e2b0e8b821",
            "0x000000000000000000000000303b63e785b656ca56ea5a5c1634ab20c98895e1"
          ],
          "data": "0x0000000000000000000000000000000000000000000069e10de76676d0800000",
          "blockHash": "0x1e70636c85dfb35a9945b2592ae7edad64243c520354c48d3bb49d33038899fe",
          "blockNumber": "0x3fe87b2",
          "transactionHash": "0xb502477aa52bf1a2402960e2c71d21ef63d8e9943816cbc463a8bd940f655076",
          "transactionIndex": "0xae",
          "logIndex": "0x23c",
          "removed": false
        },
        {
          "address": "0x0000000000000000000000000000000000001010",
          "topics": [
            "0x4dfe1bbbcf077ddc3e01291eea2d5c70c2b422b415d95645b9adcfd678cb1d63",
            "0x0000000000000000000000000000000000000000000000000000000000001010",
            "0x00000000000000000000000021af1185734d213d45c6236146fb81e2b0e8b821",
            "0x000000000000000000000000cfb5ea41788c1d539b6fd760cf26d688ae0331ff"
          ],
          "data": "0x000000000000000000000000000000000000000000000000000446afab1d5aec0000000000000000000000000000000000000000000000004caba08de807007c00000000000000000000000000000000000000000000066aea0d0ef90ccd95730000000000000000000000000000000000000000000000004ca759de3ce9a59000000000000000000000000000000000000000000000066aea1155a8b7eaf05f",
          "blockHash": "0x1e70636c85dfb35a9945b2592ae7edad64243c520354c48d3bb49d33038899fe",
          "blockNumber": "0x3fe87b2",
          "transactionHash": "0xb502477aa52bf1a2402960e2c71d21ef63d8e9943816cbc463a8bd940f655076",
          "transactionIndex": "0xae",
          "logIndex": "0x23d",
          "removed": false
        }
      ],
      "logsBloom": "0x40000000000000000000000000080000000000000000000000000000000000000000000000001000000000000000000000008400000000000000000000200000000000042000000000000000000000800000000000000000000100000000000000000000000000000000000000000800000000000000000080004000000000000000000000000000000000000000000000000000000000000000000000000000220000000000000000000000000000000000000000000000000080080000004000000000000000400001000000000000000000000000000000100000000000000010000000000000000000000000000000000000000000008000000000100000",
      "type": "0x2",
      "transactionHash": "0xb502477aa52bf1a2402960e2c71d21ef63d8e9943816cbc463a8bd940f655076",
      "transactionIndex": "0xae",
      "blockHash": "0x1e70636c85dfb35a9945b2592ae7edad64243c520354c48d3bb49d33038899fe",
      "blockNumber": "0x3fe87b2",
      "gasUsed": "0xb47d",
      "effectiveGasPrice": "0x16eb8ff9ce",
      "from": "0x21aF1185734D213D45C6236146fb81E2b0E8b821",
      "to": "0x3d2bD0e15829AA5C362a4144FdF4A1112fa29B5c",
      "contractAddress": null
    },
    {
      "status": "0x1",
      "cumulativeGasUsed": "0x17499b1",
      "logs": [
        {
          "address": "0x0000000000000000000000000000000000001010",
          "topics": [
            "0xe6497e3ee548a3372136af2fcb0696db31fc6cf20260707645068bd3fe97f3c4",
            "0x0000000000000000000000000000000000000000000000000000000000001010",
            "0x00000000000000000000000021af1185734d213d45c6236146fb81e2b0e8b821",
            "0x000000000000000000000000303b63e785b656ca56ea5a5c1634ab20c98895e1"
          ],
          "data": "0x000000000000000000000000000000000000000000000000066aa1059878c61b0000000000000000000000000000000000000000000000004c15f5bcb2db7bb0000000000000000000000000000000000000000000000000000000000000000000000000000000000000000000000000000000000000000045ab54b71a62b595000000000000000000000000000000000000000000000000066aa1059878c61b",
          "blockHash": "0x1e70636c85dfb35a9945b2592ae7edad64243c520354c48d3bb49d33038899fe",
          "blockNumber": "0x3fe87b2",
          "transactionHash": "0x63077136781b2e9b80c3ff74dd513a9d1ebdf1c77315f59621a02b3b578890d5",
          "transactionIndex": "0xaf",
          "logIndex": "0x23e",
          "removed": false
        },
        {
          "address": "0x3d2bD0e15829AA5C362a4144FdF4A1112fa29B5c",
          "topics": [
            "0xddf252ad1be2c89b69c2b068fc378daa952ba7f163c4a11628f55a4df523b3ef",
            "0x00000000000000000000000021af1185734d213d45c6236146fb81e2b0e8b821",
            "0x000000000000000000000000303b63e785b656ca56ea5a5c1634ab20c98895e1"
          ],
          "data": "0x0000000000000000000000000000000000000000000069e10de76676d0800000",
          "blockHash": "0x1e70636c85dfb35a9945b2592ae7edad64243c520354c48d3bb49d33038899fe",
          "blockNumber": "0x3fe87b2",
          "transactionHash": "0x63077136781b2e9b80c3ff74dd513a9d1ebdf1c77315f59621a02b3b578890d5",
          "transactionIndex": "0xaf",
          "logIndex": "0x23f",
          "removed": false
        },
        {
          "address": "0x0000000000000000000000000000000000001010",
          "topics": [
            "0xe6497e3ee548a3372136af2fcb0696db31fc6cf20260707645068bd3fe97f3c4",
            "0x0000000000000000000000000000000000000000000000000000000000001010",
            "0x000000000000000000000000303b63e785b656ca56ea5a5c1634ab20c98895e1",
            "0x0000000000000000000000001a44076050125825900e736c501f859c50fe728c"
          ],
          "data": "0x000000000000000000000000000000000000000000000000066aa1059878c61b000000000000000000000000000000000000000000000000066aa1059878c61b00000000000000000000000000000000000000000000000000000000000000000000000000000000000000000000000000000000000000000000000000000000000000000000000000000000000000000000000000000000066aa1059878c61b",
          "blockHash": "0x1e70636c85dfb35a9945b2592ae7edad64243c520354c48d3bb49d33038899fe",
          "blockNumber": "0x3fe87b2",
          "transactionHash": "0x63077136781b2e9b80c3ff74dd513a9d1ebdf1c77315f59621a02b3b578890d5",
          "transactionIndex": "0xaf",
          "logIndex": "0x240",
          "removed": false
        },
        {
          "address": "0x6c26c61a97006888ea9E4FA36584c7df57Cd9dA3",
          "topics": [
            "0x61ed099e74a97a1d7f8bb0952a88ca8b7b8ebd00c126ea04671f92a81213318a"
          ],
          "data": "0x000000000000000000000000cd3f213ad101472e1713c72b1697e727c803885b00000000000000000000000000000000000000000000000002fa552ea038653c",
          "blockHash": "0x1e70636c85dfb35a9945b2592ae7edad64243c520354c48d3bb49d33038899fe",
          "blockNumber": "0x3fe87b2",
          "transactionHash": "0x63077136781b2e9b80c3ff74dd513a9d1ebdf1c77315f59621a02b3b578890d5",
          "transactionIndex": "0xaf",
          "logIndex": "0x241",
          "removed": false
        },
        {
          "address": "0x6c26c61a97006888ea9E4FA36584c7df57Cd9dA3",
          "topics": [
            "0x07ea52d82345d6e838192107d8fd7123d9c2ec8e916cd0aad13fd2b60db24644"
          ],
          "data": "0x000000000000000000000000000000000000000000000000000000000000006000000000000000000000000000000000000000000000000000000000000000c000000000000000000000000000000000000000000000000000000000000000e0000000000000000000000000000000000000000000000000000000000000000200000000000000000000000023de2fe932d9043291f870324b74f820e11dc81a000000000000000000000000d56e4eab23cb81f43168f9f45211eb027b9ac7cc000000000000000000000000000000000000000000000000000000000000000000000000000000000000000000000000000000000000000000000000000000020000000000000000000000000000000000000000000000000036c4474b437e510000000000000000000000000000000000000000000000000339878facfce28e",
          "blockHash": "0x1e70636c85dfb35a9945b2592ae7edad64243c520354c48d3bb49d33038899fe",
          "blockNumber": "0x3fe87b2",
          "transactionHash": "0x63077136781b2e9b80c3ff74dd513a9d1ebdf1c77315f59621a02b3b578890d5",
          "transactionIndex": "0xaf",
          "logIndex": "0x242",
          "removed": false
        },
        {
          "address": "0x1a44076050125825900e736c501f859c50fE728c",
          "topics": [
            "0x1ab700d4ced0c005b164c0f789fd09fcbb0156d4c2041b8a3bfbcd961cd1567f"
          ],
          "data": "0x000000000000000000000000000000000000000000000000000000000000006000000000000000000000000000000000000000000000000000000000000001200000000000000000000000006c26c61a97006888ea9e4fa36584c7df57cd9da300000000000000000000000000000000000000000000000000000000000000990100000000000006420000759d000000000000000000000000303b63e785b656ca56ea5a5c1634ab20c98895e1000075e8000000000000000000000000474f4cb764df9da079d94052fed39625c147c12c6bce03a2704bd2261875f43d5149a56eca4cc5903429e2915aec903515aeb24700000000000000000000000021af1185734d213d45c6236146fb81e2b0e8b821000000746a52880000000000000000000000000000000000000000000000000000000000000000000000000000002a0003010011010000000000000000000000000001adb0010011010000000000000000000000000007a12000000000000000000000000000000000000000000000",
          "blockHash": "0x1e70636c85dfb35a9945b2592ae7edad64243c520354c48d3bb49d33038899fe",
          "blockNumber": "0x3fe87b2",
          "transactionHash": "0x63077136781b2e9b80c3ff74dd513a9d1ebdf1c77315f59621a02b3b578890d5",
          "transactionIndex": "0xaf",
          "logIndex": "0x243",
          "removed": false
        },
        {
          "address": "0x0000000000000000000000000000000000001010",
          "topics": [
            "0xe6497e3ee548a3372136af2fcb0696db31fc6cf20260707645068bd3fe97f3c4",
            "0x0000000000000000000000000000000000000000000000000000000000001010",
            "0x0000000000000000000000001a44076050125825900e736c501f859c50fe728c",
            "0x0000000000000000000000006c26c61a97006888ea9e4fa36584c7df57cd9da3"
          ],
          "data": "0x000000000000000000000000000000000000000000000000066aa1059878c61b000000000000000000000000000000000000000000000000066aa1059878c61b000000000000000000000000000000000000000000000a7276007cb7d009a4890000000000000000000000000000000000000000000000000000000000000000000000000000000000000000000000000000000000000a727c6b1dbd68826aa4",
          "blockHash": "0x1e70636c85dfb35a9945b2592ae7edad64243c520354c48d3bb49d33038899fe",
          "blockNumber": "0x3fe87b2",
          "transactionHash": "0x63077136781b2e9b80c3ff74dd513a9d1ebdf1c77315f59621a02b3b578890d5",
          "transactionIndex": "0xaf",
          "logIndex": "0x244",
          "removed": false
        },
        {
          "address": "0x303b63e785B656ca56ea5A5C1634Ab20C98895e1",
          "topics": [
            "0x85496b760a4b7f8d66384b9df21b381f5d1b1e79f229a47aaf4c232edc2fe59a",
            "0x6bce03a2704bd2261875f43d5149a56eca4cc5903429e2915aec903515aeb247",
            "0x00000000000000000000000021af1185734d213d45c6236146fb81e2b0e8b821"
          ],
          "data": "0x00000000000000000000000000000000000000000000000000000000000075e80000000000000000000000000000000000000000000069e10de76676d08000000000000000000000000000000000000000000000000069e10de76676d0800000",
          "blockHash": "0x1e70636c85dfb35a9945b2592ae7edad64243c520354c48d3bb49d33038899fe",
          "blockNumber": "0x3fe87b2",
          "transactionHash": "0x63077136781b2e9b80c3ff74dd513a9d1ebdf1c77315f59621a02b3b578890d5",
          "transactionIndex": "0xaf",
          "logIndex": "0x245",
          "removed": false
        },
        {
          "address": "0x0000000000000000000000000000000000001010",
          "topics": [
            "0x4dfe1bbbcf077ddc3e01291eea2d5c70c2b422b415d95645b9adcfd678cb1d63",
            "0x0000000000000000000000000000000000000000000000000000000000001010",
            "0x00000000000000000000000021af1185734d213d45c6236146fb81e2b0e8b821",
            "0x000000000000000000000000cfb5ea41788c1d539b6fd760cf26d688ae0331ff"
          ],
          "data": "0x000000000000000000000000000000000000000000000000001993d640c35de80000000000000000000000000000000000000000000000004c9b77bba7152ee600000000000000000000000000000000000000000000066aea1155a8b7eaf05f0000000000000000000000000000000000000000000000004c81e3e56651d0fe00000000000000000000000000000000000000000000066aea2ae97ef8ae4e47",
          "blockHash": "0x1e70636c85dfb35a9945b2592ae7edad64243c520354c48d3bb49d33038899fe",
          "blockNumber": "0x3fe87b2",
          "transactionHash": "0x63077136781b2e9b80c3ff74dd513a9d1ebdf1c77315f59621a02b3b578890d5",
          "transactionIndex": "0xaf",
          "logIndex": "0x246",
          "removed": false
        }
      ],
      "logsBloom": "0x400000000000000000000480000800000000000000000000000000440010000000000040000010000000001000020000000084000000000000000000000000000000820420100000004000080400008000000000000000000001000000000000000000000000000080000000000008000000000000100000802040100000000000000000000000000000000800000000000000000000000000000100000000002000000080000000001000000000000000000000004000000004c0080000004000000002000000400001000080000000000000000000801000188000000000000000040000000008000000000000002000000000018000008000000000100000",
      "type": "0x2",
      "transactionHash": "0x63077136781b2e9b80c3ff74dd513a9d1ebdf1c77315f59621a02b3b578890d5",
      "transactionIndex": "0xaf",
      "blockHash": "0x1e70636c85dfb35a9945b2592ae7edad64243c520354c48d3bb49d33038899fe",
      "blockNumber": "0x3fe87b2",
      "gasUsed": "0x43796",
      "effectiveGasPrice": "0x16eb8ff9ce",
      "from": "0x21aF1185734D213D45C6236146fb81E2b0E8b821",
      "to": "0x303b63e785B656ca56ea5A5C1634Ab20C98895e1",
      "contractAddress": null
    },
    {
      "status": "0x1",
      "cumulativeGasUsed": "0x1754e2e",
      "logs": [
        {
          "address": "0x3d2bD0e15829AA5C362a4144FdF4A1112fa29B5c",
          "topics": [
            "0x8c5be1e5ebec7d5bd14f71427d1e84f3dd0314c0f7b2291e5b200ac8c7c3b925",
            "0x00000000000000000000000021af1185734d213d45c6236146fb81e2b0e8b821",
            "0x000000000000000000000000303b63e785b656ca56ea5a5c1634ab20c98895e1"
          ],
          "data": "0x0000000000000000000000000000000000000000000069e10de76676d0800000",
          "blockHash": "0x1e70636c85dfb35a9945b2592ae7edad64243c520354c48d3bb49d33038899fe",
          "blockNumber": "0x3fe87b2",
          "transactionHash": "0x42a49ff637e8a1560018f6fa1815b2a3bfd2a3fb5a4d530b7baddfd62222372e",
          "transactionIndex": "0xb0",
          "logIndex": "0x247",
          "removed": false
        },
        {
          "address": "0x0000000000000000000000000000000000001010",
          "topics": [
            "0x4dfe1bbbcf077ddc3e01291eea2d5c70c2b422b415d95645b9adcfd678cb1d63",
            "0x0000000000000000000000000000000000000000000000000000000000001010",
            "0x00000000000000000000000021af1185734d213d45c6236146fb81e2b0e8b821",
            "0x000000000000000000000000cfb5ea41788c1d539b6fd760cf26d688ae0331ff"
          ],
          "data": "0x000000000000000000000000000000000000000000000000000446afab1d5aec00000000000000000000000000000000000000000000000045d02e6c325cc81700000000000000000000000000000000000000000000066aea2ae97ef8ae4e4700000000000000000000000000000000000000000000000045cbe7bc873f6d2b00000000000000000000000000000000000000000000066aea2f302ea3cba933",
          "blockHash": "0x1e70636c85dfb35a9945b2592ae7edad64243c520354c48d3bb49d33038899fe",
          "blockNumber": "0x3fe87b2",
          "transactionHash": "0x42a49ff637e8a1560018f6fa1815b2a3bfd2a3fb5a4d530b7baddfd62222372e",
          "transactionIndex": "0xb0",
          "logIndex": "0x248",
          "removed": false
        }
      ],
      "logsBloom": "0x40000000000000000000000000080000000000000000000000000000000000000000000000001000000000000000000000008400000000000000000000200000000000042000000000000000000000800000000000000000000100000000000000000000000000000000000000000800000000000000000080004000000000000000000000000000000000000000000000000000000000000000000000000000220000000000000000000000000000000000000000000000000080080000004000000000000000400001000000000000000000000000000000100000000000000010000000000000000000000000000000000000000000008000000000100000",
      "type": "0x2",
      "transactionHash": "0x42a49ff637e8a1560018f6fa1815b2a3bfd2a3fb5a4d530b7baddfd62222372e",
      "transactionIndex": "0xb0",
      "blockHash": "0x1e70636c85dfb35a9945b2592ae7edad64243c520354c48d3bb49d33038899fe",
      "blockNumber": "0x3fe87b2",
      "gasUsed": "0xb47d",
      "effectiveGasPrice": "0x16eb8ff9ce",
      "from": "0x21aF1185734D213D45C6236146fb81E2b0E8b821",
      "to": "0x3d2bD0e15829AA5C362a4144FdF4A1112fa29B5c",
      "contractAddress": null
    },
    {
      "status": "0x1",
      "cumulativeGasUsed": "0x17985c4",
      "logs": [
        {
          "address": "0x0000000000000000000000000000000000001010",
          "topics": [
            "0xe6497e3ee548a3372136af2fcb0696db31fc6cf20260707645068bd3fe97f3c4",
            "0x0000000000000000000000000000000000000000000000000000000000001010",
            "0x00000000000000000000000021af1185734d213d45c6236146fb81e2b0e8b821",
            "0x000000000000000000000000303b63e785b656ca56ea5a5c1634ab20c98895e1"
          ],
          "data": "0x000000000000000000000000000000000000000000000000066aa1059878c61b000000000000000000000000000000000000000000000000453a839afd31434b00000000000000000000000000000000000000000000000000000000000000000000000000000000000000000000000000000000000000003ecfe29564b87d30000000000000000000000000000000000000000000000000066aa1059878c61b",
          "blockHash": "0x1e70636c85dfb35a9945b2592ae7edad64243c520354c48d3bb49d33038899fe",
          "blockNumber": "0x3fe87b2",
          "transactionHash": "0x9ad1e383ed26f20deeb29ee78c720f1062a7642ebff7fa7c715ea3bb76f7f009",
          "transactionIndex": "0xb1",
          "logIndex": "0x249",
          "removed": false
        },
        {
          "address": "0x3d2bD0e15829AA5C362a4144FdF4A1112fa29B5c",
          "topics": [
            "0xddf252ad1be2c89b69c2b068fc378daa952ba7f163c4a11628f55a4df523b3ef",
            "0x00000000000000000000000021af1185734d213d45c6236146fb81e2b0e8b821",
            "0x000000000000000000000000303b63e785b656ca56ea5a5c1634ab20c98895e1"
          ],
          "data": "0x0000000000000000000000000000000000000000000069e10de76676d0800000",
          "blockHash": "0x1e70636c85dfb35a9945b2592ae7edad64243c520354c48d3bb49d33038899fe",
          "blockNumber": "0x3fe87b2",
          "transactionHash": "0x9ad1e383ed26f20deeb29ee78c720f1062a7642ebff7fa7c715ea3bb76f7f009",
          "transactionIndex": "0xb1",
          "logIndex": "0x24a",
          "removed": false
        },
        {
          "address": "0x0000000000000000000000000000000000001010",
          "topics": [
            "0xe6497e3ee548a3372136af2fcb0696db31fc6cf20260707645068bd3fe97f3c4",
            "0x0000000000000000000000000000000000000000000000000000000000001010",
            "0x000000000000000000000000303b63e785b656ca56ea5a5c1634ab20c98895e1",
            "0x0000000000000000000000001a44076050125825900e736c501f859c50fe728c"
          ],
          "data": "0x000000000000000000000000000000000000000000000000066aa1059878c61b000000000000000000000000000000000000000000000000066aa1059878c61b00000000000000000000000000000000000000000000000000000000000000000000000000000000000000000000000000000000000000000000000000000000000000000000000000000000000000000000000000000000066aa1059878c61b",
          "blockHash": "0x1e70636c85dfb35a9945b2592ae7edad64243c520354c48d3bb49d33038899fe",
          "blockNumber": "0x3fe87b2",
          "transactionHash": "0x9ad1e383ed26f20deeb29ee78c720f1062a7642ebff7fa7c715ea3bb76f7f009",
          "transactionIndex": "0xb1",
          "logIndex": "0x24b",
          "removed": false
        },
        {
          "address": "0x6c26c61a97006888ea9E4FA36584c7df57Cd9dA3",
          "topics": [
            "0x61ed099e74a97a1d7f8bb0952a88ca8b7b8ebd00c126ea04671f92a81213318a"
          ],
          "data": "0x000000000000000000000000cd3f213ad101472e1713c72b1697e727c803885b00000000000000000000000000000000000000000000000002fa552ea038653c",
          "blockHash": "0x1e70636c85dfb35a9945b2592ae7edad64243c520354c48d3bb49d33038899fe",
          "blockNumber": "0x3fe87b2",
          "transactionHash": "0x9ad1e383ed26f20deeb29ee78c720f1062a7642ebff7fa7c715ea3bb76f7f009",
          "transactionIndex": "0xb1",
          "logIndex": "0x24c",
          "removed": false
        },
        {
          "address": "0x6c26c61a97006888ea9E4FA36584c7df57Cd9dA3",
          "topics": [
            "0x07ea52d82345d6e838192107d8fd7123d9c2ec8e916cd0aad13fd2b60db24644"
          ],
          "data": "0x000000000000000000000000000000000000000000000000000000000000006000000000000000000000000000000000000000000000000000000000000000c000000000000000000000000000000000000000000000000000000000000000e0000000000000000000000000000000000000000000000000000000000000000200000000000000000000000023de2fe932d9043291f870324b74f820e11dc81a000000000000000000000000d56e4eab23cb81f43168f9f45211eb027b9ac7cc000000000000000000000000000000000000000000000000000000000000000000000000000000000000000000000000000000000000000000000000000000020000000000000000000000000000000000000000000000000036c4474b437e510000000000000000000000000000000000000000000000000339878facfce28e",
          "blockHash": "0x1e70636c85dfb35a9945b2592ae7edad64243c520354c48d3bb49d33038899fe",
          "blockNumber": "0x3fe87b2",
          "transactionHash": "0x9ad1e383ed26f20deeb29ee78c720f1062a7642ebff7fa7c715ea3bb76f7f009",
          "transactionIndex": "0xb1",
          "logIndex": "0x24d",
          "removed": false
        },
        {
          "address": "0x1a44076050125825900e736c501f859c50fE728c",
          "topics": [
            "0x1ab700d4ced0c005b164c0f789fd09fcbb0156d4c2041b8a3bfbcd961cd1567f"
          ],
          "data": "0x000000000000000000000000000000000000000000000000000000000000006000000000000000000000000000000000000000000000000000000000000001200000000000000000000000006c26c61a97006888ea9e4fa36584c7df57cd9da300000000000000000000000000000000000000000000000000000000000000990100000000000006430000759d000000000000000000000000303b63e785b656ca56ea5a5c1634ab20c98895e1000075e8000000000000000000000000474f4cb764df9da079d94052fed39625c147c12c70572befbe8cc78e85ea9fb514ffc2264ef62c14165565ad5ef0fcf318e8c24600000000000000000000000021af1185734d213d45c6236146fb81e2b0e8b821000000746a52880000000000000000000000000000000000000000000000000000000000000000000000000000002a0003010011010000000000000000000000000001adb0010011010000000000000000000000000007a12000000000000000000000000000000000000000000000",
          "blockHash": "0x1e70636c85dfb35a9945b2592ae7edad64243c520354c48d3bb49d33038899fe",
          "blockNumber": "0x3fe87b2",
          "transactionHash": "0x9ad1e383ed26f20deeb29ee78c720f1062a7642ebff7fa7c715ea3bb76f7f009",
          "transactionIndex": "0xb1",
          "logIndex": "0x24e",
          "removed": false
        },
        {
          "address": "0x0000000000000000000000000000000000001010",
          "topics": [
            "0xe6497e3ee548a3372136af2fcb0696db31fc6cf20260707645068bd3fe97f3c4",
            "0x0000000000000000000000000000000000000000000000000000000000001010",
            "0x0000000000000000000000001a44076050125825900e736c501f859c50fe728c",
            "0x0000000000000000000000006c26c61a97006888ea9e4fa36584c7df57cd9da3"
          ],
          "data": "0x000000000000000000000000000000000000000000000000066aa1059878c61b000000000000000000000000000000000000000000000000066aa1059878c61b000000000000000000000000000000000000000000000a727c6b1dbd68826aa40000000000000000000000000000000000000000000000000000000000000000000000000000000000000000000000000000000000000a7282d5bec300fb30bf",
          "blockHash": "0x1e70636c85dfb35a9945b2592ae7edad64243c520354c48d3bb49d33038899fe",
          "blockNumber": "0x3fe87b2",
          "transactionHash": "0x9ad1e383ed26f20deeb29ee78c720f1062a7642ebff7fa7c715ea3bb76f7f009",
          "transactionIndex": "0xb1",
          "logIndex": "0x24f",
          "removed": false
        },
        {
          "address": "0x303b63e785B656ca56ea5A5C1634Ab20C98895e1",
          "topics": [
            "0x85496b760a4b7f8d66384b9df21b381f5d1b1e79f229a47aaf4c232edc2fe59a",
            "0x70572befbe8cc78e85ea9fb514ffc2264ef62c14165565ad5ef0fcf318e8c246",
            "0x00000000000000000000000021af1185734d213d45c6236146fb81e2b0e8b821"
          ],
          "data": "0x00000000000000000000000000000000000000000000000000000000000075e80000000000000000000000000000000000000000000069e10de76676d08000000000000000000000000000000000000000000000000069e10de76676d0800000",
          "blockHash": "0x1e70636c85dfb35a9945b2592ae7edad64243c520354c48d3bb49d33038899fe",
          "blockNumber": "0x3fe87b2",
          "transactionHash": "0x9ad1e383ed26f20deeb29ee78c720f1062a7642ebff7fa7c715ea3bb76f7f009",
          "transactionIndex": "0xb1",
          "logIndex": "0x250",
          "removed": false
        },
        {
          "address": "0x0000000000000000000000000000000000001010",
          "topics": [
            "0x4dfe1bbbcf077ddc3e01291eea2d5c70c2b422b415d95645b9adcfd678cb1d63",
            "0x0000000000000000000000000000000000000000000000000000000000001010",
            "0x00000000000000000000000021af1185734d213d45c6236146fb81e2b0e8b821",
            "0x000000000000000000000000cfb5ea41788c1d539b6fd760cf26d688ae0331ff"
          ],
          "data": "0x000000000000000000000000000000000000000000000000001993d640c35de800000000000000000000000000000000000000000000000045c00599f16af68100000000000000000000000000000000000000000000066aea2f302ea3cba93300000000000000000000000000000000000000000000000045a671c3b0a7989900000000000000000000000000000000000000000000066aea48c404e48f071b",
          "blockHash": "0x1e70636c85dfb35a9945b2592ae7edad64243c520354c48d3bb49d33038899fe",
          "blockNumber": "0x3fe87b2",
          "transactionHash": "0x9ad1e383ed26f20deeb29ee78c720f1062a7642ebff7fa7c715ea3bb76f7f009",
          "transactionIndex": "0xb1",
          "logIndex": "0x251",
          "removed": false
        }
      ],
      "logsBloom": "0x400000000000000000000480000800000000000000000000000000040010000000000040000010000000001000020000000084000000000000100000000000000000820420100000004000080000008000000000000000000001000000000000000000000000000080000000000008000000000000100000802040100000000000000000000000000000000800000000000000000000000000000100000000002000000080000000001000000000000000000000004000000204c0080000004000000002010000400001000080000000000000000000801000188000000000000000040000000000000000000000002000000000018000008000000000100000",
      "type": "0x2",
      "transactionHash": "0x9ad1e383ed26f20deeb29ee78c720f1062a7642ebff7fa7c715ea3bb76f7f009",
      "transactionIndex": "0xb1",
      "blockHash": "0x1e70636c85dfb35a9945b2592ae7edad64243c520354c48d3bb49d33038899fe",
      "blockNumber": "0x3fe87b2",
      "gasUsed": "0x43796",
      "effectiveGasPrice": "0x16eb8ff9ce",
      "from": "0x21aF1185734D213D45C6236146fb81E2b0E8b821",
      "to": "0x303b63e785B656ca56ea5A5C1634Ab20C98895e1",
      "contractAddress": null
    }
  ],
  "libraries": [],
  "pending": [],
  "returns": {},
  "timestamp": 1737561430,
  "chain": 137,
  "commit": "9bc9372"
}