{
  "transactions": [
    {
      "hash": "0x38ca176e0c332029c5a8a4d7df587a8c3663b8af14b39f80b2b38ac4538d53fc",
      "transactionType": "CALL",
      "contractName": null,
      "contractAddress": "0x3d2bD0e15829AA5C362a4144FdF4A1112fa29B5c",
      "function": "approve(address,uint256)",
      "arguments": [
        "0x303b63e785B656ca56ea5A5C1634Ab20C98895e1",
        "500000000000000000000000"
      ],
      "transaction": {
        "from": "0x28ff8e457feF9870B9d1529FE68Fbb95C3181f64",
        "to": "0x3d2bD0e15829AA5C362a4144FdF4A1112fa29B5c",
        "gas": "0xf94b",
        "value": "0x0",
        "input": "0x095ea7b3000000000000000000000000303b63e785b656ca56ea5a5c1634ab20c98895e10000000000000000000000000000000000000000000069e10de76676d0800000",
        "nonce": "0x3aa",
        "chainId": "0x89"
      },
      "additionalContracts": [],
      "isFixedGasLimit": false
    },
    {
      "hash": "0x4c4e5979dc7a2c50225f65a030b731f305e87eba8959375c88bb1e2c7014d115",
      "transactionType": "CALL",
      "contractName": "BonsaiOFTAdapter",
      "contractAddress": "0x303b63e785B656ca56ea5A5C1634Ab20C98895e1",
      "function": "send((uint32,bytes32,uint256,uint256,bytes,bytes,bytes),(uint256,uint256),address)",
      "arguments": [
        "(30184, 0x00000000000000000000000028ff8e457fef9870b9d1529fe68fbb95c3181f64, 500000000000000000000000, 500000000000000000000000, 0x0003010011010000000000000000000000000007a120, 0x, 0x)",
        "(661848357126033177, 0)",
        "0x5b73C5498c1E3b4dbA84de0F1833c4a029d90519"
      ],
      "transaction": {
        "from": "0x28ff8e457feF9870B9d1529FE68Fbb95C3181f64",
        "to": "0x303b63e785B656ca56ea5A5C1634Ab20C98895e1",
        "gas": "0x6abfb",
        "value": "0x92f5b92fdac4f19",
        "input": "0xc7c7f5b30000000000000000000000000000000000000000000000000000000000000080000000000000000000000000000000000000000000000000092f5b92fdac4f1900000000000000000000000000000000000000000000000000000000000000000000000000000000000000005b73c5498c1e3b4dba84de0f1833c4a029d9051900000000000000000000000000000000000000000000000000000000000075e800000000000000000000000028ff8e457fef9870b9d1529fe68fbb95c3181f640000000000000000000000000000000000000000000069e10de76676d08000000000000000000000000000000000000000000000000069e10de76676d080000000000000000000000000000000000000000000000000000000000000000000e00000000000000000000000000000000000000000000000000000000000000120000000000000000000000000000000000000000000000000000000000000014000000000000000000000000000000000000000000000000000000000000000160003010011010000000000000000000000000007a1200000000000000000000000000000000000000000000000000000000000000000000000000000000000000000000000000000000000000000000000000000000000000000000000000000",
        "nonce": "0x3ab",
        "chainId": "0x89"
      },
      "additionalContracts": [],
      "isFixedGasLimit": false
    },
    {
      "hash": "0x47e72ee1ab6bdf77f9c14b5aab95f22851855b349c650a3e6c1698e1e23c147c",
      "transactionType": "CALL",
      "contractName": null,
      "contractAddress": "0x3d2bD0e15829AA5C362a4144FdF4A1112fa29B5c",
      "function": "approve(address,uint256)",
      "arguments": [
        "0x303b63e785B656ca56ea5A5C1634Ab20C98895e1",
        "500000000000000000000000"
      ],
      "transaction": {
        "from": "0x28ff8e457feF9870B9d1529FE68Fbb95C3181f64",
        "to": "0x3d2bD0e15829AA5C362a4144FdF4A1112fa29B5c",
        "gas": "0xf94b",
        "value": "0x0",
        "input": "0x095ea7b3000000000000000000000000303b63e785b656ca56ea5a5c1634ab20c98895e10000000000000000000000000000000000000000000069e10de76676d0800000",
        "nonce": "0x3ac",
        "chainId": "0x89"
      },
      "additionalContracts": [],
      "isFixedGasLimit": false
    },
    {
      "hash": "0x22fcdb730c815d434dae3f145c59da009eae3b11c7a5aa2f8cfac45e8f271840",
      "transactionType": "CALL",
      "contractName": "BonsaiOFTAdapter",
      "contractAddress": "0x303b63e785B656ca56ea5A5C1634Ab20C98895e1",
      "function": "send((uint32,bytes32,uint256,uint256,bytes,bytes,bytes),(uint256,uint256),address)",
      "arguments": [
        "(30184, 0x00000000000000000000000028ff8e457fef9870b9d1529fe68fbb95c3181f64, 500000000000000000000000, 500000000000000000000000, 0x0003010011010000000000000000000000000007a120, 0x, 0x)",
        "(661848357126033177, 0)",
        "0x5b73C5498c1E3b4dbA84de0F1833c4a029d90519"
      ],
      "transaction": {
        "from": "0x28ff8e457feF9870B9d1529FE68Fbb95C3181f64",
        "to": "0x303b63e785B656ca56ea5A5C1634Ab20C98895e1",
        "gas": "0x6a130",
        "value": "0x92f5b92fdac4f19",
        "input": "0xc7c7f5b30000000000000000000000000000000000000000000000000000000000000080000000000000000000000000000000000000000000000000092f5b92fdac4f1900000000000000000000000000000000000000000000000000000000000000000000000000000000000000005b73c5498c1e3b4dba84de0f1833c4a029d9051900000000000000000000000000000000000000000000000000000000000075e800000000000000000000000028ff8e457fef9870b9d1529fe68fbb95c3181f640000000000000000000000000000000000000000000069e10de76676d08000000000000000000000000000000000000000000000000069e10de76676d080000000000000000000000000000000000000000000000000000000000000000000e00000000000000000000000000000000000000000000000000000000000000120000000000000000000000000000000000000000000000000000000000000014000000000000000000000000000000000000000000000000000000000000000160003010011010000000000000000000000000007a1200000000000000000000000000000000000000000000000000000000000000000000000000000000000000000000000000000000000000000000000000000000000000000000000000000",
        "nonce": "0x3ad",
        "chainId": "0x89"
      },
      "additionalContracts": [],
      "isFixedGasLimit": false
    }
  ],
  "receipts": [
    {
      "status": "0x1",
      "cumulativeGasUsed": "0xfa523c",
      "logs": [
        {
          "address": "0x3d2bD0e15829AA5C362a4144FdF4A1112fa29B5c",
          "topics": [
            "0x8c5be1e5ebec7d5bd14f71427d1e84f3dd0314c0f7b2291e5b200ac8c7c3b925",
            "0x00000000000000000000000028ff8e457fef9870b9d1529fe68fbb95c3181f64",
            "0x000000000000000000000000303b63e785b656ca56ea5a5c1634ab20c98895e1"
          ],
          "data": "0x0000000000000000000000000000000000000000000069e10de76676d0800000",
          "blockHash": "0x00449fc8be938037db564bdc26e884ae08bf82c4a552404faff6adf1857f5e34",
          "blockNumber": "0x40609d9",
          "transactionHash": "0x38ca176e0c332029c5a8a4d7df587a8c3663b8af14b39f80b2b38ac4538d53fc",
          "transactionIndex": "0x65",
          "logIndex": "0x207",
          "removed": false
        },
        {
          "address": "0x0000000000000000000000000000000000001010",
          "topics": [
            "0x4dfe1bbbcf077ddc3e01291eea2d5c70c2b422b415d95645b9adcfd678cb1d63",
            "0x0000000000000000000000000000000000000000000000000000000000001010",
            "0x00000000000000000000000028ff8e457fef9870b9d1529fe68fbb95c3181f64",
            "0x0000000000000000000000001efecb61a2f80aa34d3b9218b564a64d05946290"
          ],
          "data": "0x0000000000000000000000000000000000000000000000000004dfdbbb04641c0000000000000000000000000000000000000000000000011f8e480f4b8608d60000000000000000000000000000000000000000000013ba9b19b4bf577de18c0000000000000000000000000000000000000000000000011f8968339081a4ba0000000000000000000000000000000000000000000013ba9b1e949b128245a8",
          "blockHash": "0x00449fc8be938037db564bdc26e884ae08bf82c4a552404faff6adf1857f5e34",
          "blockNumber": "0x40609d9",
          "transactionHash": "0x38ca176e0c332029c5a8a4d7df587a8c3663b8af14b39f80b2b38ac4538d53fc",
          "transactionIndex": "0x65",
          "logIndex": "0x208",
          "removed": false
        }
      ],
      "logsBloom": "0x40000000000000000000000000000000000000000000000000000000000040000000000000001000000000000000000000008000000000000000000000200000200000042000000000000000000000800000000000000000000100000000000000000000000000000000000000000800000000000000000080000000000000000000000000000000000000000000000000000000000000000000000000000000220000000000000000000000000000000000000000000000000000880000004000000100000000008001000000000000000000000000000000100000000000002010000000000000000000000000000000000000000000000000000000100000",
      "type": "0x2",
      "transactionHash": "0x38ca176e0c332029c5a8a4d7df587a8c3663b8af14b39f80b2b38ac4538d53fc",
      "transactionIndex": "0x65",
      "blockHash": "0x00449fc8be938037db564bdc26e884ae08bf82c4a552404faff6adf1857f5e34",
      "blockNumber": "0x40609d9",
      "gasUsed": "0xb47d",
      "effectiveGasPrice": "0x1c4f9c6995",
      "from": "0x28ff8e457feF9870B9d1529FE68Fbb95C3181f64",
      "to": "0x3d2bD0e15829AA5C362a4144FdF4A1112fa29B5c",
      "contractAddress": null
    },
    {
      "status": "0x1",
      "cumulativeGasUsed": "0xff26c9",
      "logs": [
        {
          "address": "0x0000000000000000000000000000000000001010",
          "topics": [
            "0xe6497e3ee548a3372136af2fcb0696db31fc6cf20260707645068bd3fe97f3c4",
            "0x0000000000000000000000000000000000000000000000000000000000001010",
            "0x00000000000000000000000028ff8e457fef9870b9d1529fe68fbb95c3181f64",
            "0x000000000000000000000000303b63e785b656ca56ea5a5c1634ab20c98895e1"
          ],
          "data": "0x000000000000000000000000000000000000000000000000092f5b92fdac4f190000000000000000000000000000000000000000000000011ebd6fa86f89aafe0000000000000000000000000000000000000000000000000000000000000000000000000000000000000000000000000000000000000001158e141571dd5be5000000000000000000000000000000000000000000000000092f5b92fdac4f19",
          "blockHash": "0x00449fc8be938037db564bdc26e884ae08bf82c4a552404faff6adf1857f5e34",
          "blockNumber": "0x40609d9",
          "transactionHash": "0x4c4e5979dc7a2c50225f65a030b731f305e87eba8959375c88bb1e2c7014d115",
          "transactionIndex": "0x66",
          "logIndex": "0x209",
          "removed": false
        },
        {
          "address": "0xE9d2FA815B95A9d087862a09079549F351DaB9bd",
          "topics": [
            "0xddf252ad1be2c89b69c2b068fc378daa952ba7f163c4a11628f55a4df523b3ef",
            "0x00000000000000000000000028ff8e457fef9870b9d1529fe68fbb95c3181f64",
            "0x0000000000000000000000000000000000000000000000000000000000000000",
            "0x0000000000000000000000000000000000000000000000000000000000001c6f"
          ],
          "data": "0x",
          "blockHash": "0x00449fc8be938037db564bdc26e884ae08bf82c4a552404faff6adf1857f5e34",
          "blockNumber": "0x40609d9",
          "transactionHash": "0x4c4e5979dc7a2c50225f65a030b731f305e87eba8959375c88bb1e2c7014d115",
          "transactionIndex": "0x66",
          "logIndex": "0x20a",
          "removed": false
        },
        {
          "address": "0xE9d2FA815B95A9d087862a09079549F351DaB9bd",
          "topics": [
            "0xddf252ad1be2c89b69c2b068fc378daa952ba7f163c4a11628f55a4df523b3ef",
            "0x00000000000000000000000028ff8e457fef9870b9d1529fe68fbb95c3181f64",
            "0x0000000000000000000000000000000000000000000000000000000000000000",
            "0x0000000000000000000000000000000000000000000000000000000000001c6e"
          ],
          "data": "0x",
          "blockHash": "0x00449fc8be938037db564bdc26e884ae08bf82c4a552404faff6adf1857f5e34",
          "blockNumber": "0x40609d9",
          "transactionHash": "0x4c4e5979dc7a2c50225f65a030b731f305e87eba8959375c88bb1e2c7014d115",
          "transactionIndex": "0x66",
          "logIndex": "0x20b",
          "removed": false
        },
        {
          "address": "0xE9d2FA815B95A9d087862a09079549F351DaB9bd",
          "topics": [
            "0xddf252ad1be2c89b69c2b068fc378daa952ba7f163c4a11628f55a4df523b3ef",
            "0x00000000000000000000000028ff8e457fef9870b9d1529fe68fbb95c3181f64",
            "0x0000000000000000000000000000000000000000000000000000000000000000",
            "0x0000000000000000000000000000000000000000000000000000000000001b36"
          ],
          "data": "0x",
          "blockHash": "0x00449fc8be938037db564bdc26e884ae08bf82c4a552404faff6adf1857f5e34",
          "blockNumber": "0x40609d9",
          "transactionHash": "0x4c4e5979dc7a2c50225f65a030b731f305e87eba8959375c88bb1e2c7014d115",
          "transactionIndex": "0x66",
          "logIndex": "0x20c",
          "removed": false
        },
        {
          "address": "0xE9d2FA815B95A9d087862a09079549F351DaB9bd",
          "topics": [
            "0xddf252ad1be2c89b69c2b068fc378daa952ba7f163c4a11628f55a4df523b3ef",
            "0x00000000000000000000000028ff8e457fef9870b9d1529fe68fbb95c3181f64",
            "0x0000000000000000000000000000000000000000000000000000000000000000",
            "0x0000000000000000000000000000000000000000000000000000000000001b35"
          ],
          "data": "0x",
          "blockHash": "0x00449fc8be938037db564bdc26e884ae08bf82c4a552404faff6adf1857f5e34",
          "blockNumber": "0x40609d9",
          "transactionHash": "0x4c4e5979dc7a2c50225f65a030b731f305e87eba8959375c88bb1e2c7014d115",
          "transactionIndex": "0x66",
          "logIndex": "0x20d",
          "removed": false
        },
        {
          "address": "0xE9d2FA815B95A9d087862a09079549F351DaB9bd",
          "topics": [
            "0xddf252ad1be2c89b69c2b068fc378daa952ba7f163c4a11628f55a4df523b3ef",
            "0x00000000000000000000000028ff8e457fef9870b9d1529fe68fbb95c3181f64",
            "0x0000000000000000000000000000000000000000000000000000000000000000",
            "0x0000000000000000000000000000000000000000000000000000000000001b17"
          ],
          "data": "0x",
          "blockHash": "0x00449fc8be938037db564bdc26e884ae08bf82c4a552404faff6adf1857f5e34",
          "blockNumber": "0x40609d9",
          "transactionHash": "0x4c4e5979dc7a2c50225f65a030b731f305e87eba8959375c88bb1e2c7014d115",
          "transactionIndex": "0x66",
          "logIndex": "0x20e",
          "removed": false
        },
        {
          "address": "0x3d2bD0e15829AA5C362a4144FdF4A1112fa29B5c",
          "topics": [
            "0xddf252ad1be2c89b69c2b068fc378daa952ba7f163c4a11628f55a4df523b3ef",
            "0x00000000000000000000000028ff8e457fef9870b9d1529fe68fbb95c3181f64",
            "0x000000000000000000000000303b63e785b656ca56ea5a5c1634ab20c98895e1"
          ],
          "data": "0x0000000000000000000000000000000000000000000069e10de76676d0800000",
          "blockHash": "0x00449fc8be938037db564bdc26e884ae08bf82c4a552404faff6adf1857f5e34",
          "blockNumber": "0x40609d9",
          "transactionHash": "0x4c4e5979dc7a2c50225f65a030b731f305e87eba8959375c88bb1e2c7014d115",
          "transactionIndex": "0x66",
          "logIndex": "0x20f",
          "removed": false
        },
        {
          "address": "0x0000000000000000000000000000000000001010",
          "topics": [
            "0xe6497e3ee548a3372136af2fcb0696db31fc6cf20260707645068bd3fe97f3c4",
            "0x0000000000000000000000000000000000000000000000000000000000001010",
            "0x000000000000000000000000303b63e785b656ca56ea5a5c1634ab20c98895e1",
            "0x0000000000000000000000001a44076050125825900e736c501f859c50fe728c"
          ],
          "data": "0x000000000000000000000000000000000000000000000000092f5b92fdac4f19000000000000000000000000000000000000000000000000092f5b92fdac4f1900000000000000000000000000000000000000000000000000000000000000000000000000000000000000000000000000000000000000000000000000000000000000000000000000000000000000000000000000000000092f5b92fdac4f19",
          "blockHash": "0x00449fc8be938037db564bdc26e884ae08bf82c4a552404faff6adf1857f5e34",
          "blockNumber": "0x40609d9",
          "transactionHash": "0x4c4e5979dc7a2c50225f65a030b731f305e87eba8959375c88bb1e2c7014d115",
          "transactionIndex": "0x66",
          "logIndex": "0x210",
          "removed": false
        },
        {
          "address": "0x6c26c61a97006888ea9E4FA36584c7df57Cd9dA3",
          "topics": [
            "0x61ed099e74a97a1d7f8bb0952a88ca8b7b8ebd00c126ea04671f92a81213318a"
          ],
          "data": "0x000000000000000000000000cd3f213ad101472e1713c72b1697e727c803885b000000000000000000000000000000000000000000000000045294b073713e25",
          "blockHash": "0x00449fc8be938037db564bdc26e884ae08bf82c4a552404faff6adf1857f5e34",
          "blockNumber": "0x40609d9",
          "transactionHash": "0x4c4e5979dc7a2c50225f65a030b731f305e87eba8959375c88bb1e2c7014d115",
          "transactionIndex": "0x66",
          "logIndex": "0x211",
          "removed": false
        },
        {
          "address": "0x6c26c61a97006888ea9E4FA36584c7df57Cd9dA3",
          "topics": [
            "0x07ea52d82345d6e838192107d8fd7123d9c2ec8e916cd0aad13fd2b60db24644"
          ],
          "data": "0x000000000000000000000000000000000000000000000000000000000000006000000000000000000000000000000000000000000000000000000000000000c000000000000000000000000000000000000000000000000000000000000000e0000000000000000000000000000000000000000000000000000000000000000200000000000000000000000023de2fe932d9043291f870324b74f820e11dc81a000000000000000000000000d56e4eab23cb81f43168f9f45211eb027b9ac7cc0000000000000000000000000000000000000000000000000000000000000000000000000000000000000000000000000000000000000000000000000000000200000000000000000000000000000000000000000000000000524e41217b088c000000000000000000000000000000000000000000000000048a78a168c00868",
          "blockHash": "0x00449fc8be938037db564bdc26e884ae08bf82c4a552404faff6adf1857f5e34",
          "blockNumber": "0x40609d9",
          "transactionHash": "0x4c4e5979dc7a2c50225f65a030b731f305e87eba8959375c88bb1e2c7014d115",
          "transactionIndex": "0x66",
          "logIndex": "0x212",
          "removed": false
        },
        {
          "address": "0x1a44076050125825900e736c501f859c50fE728c",
          "topics": [
            "0x1ab700d4ced0c005b164c0f789fd09fcbb0156d4c2041b8a3bfbcd961cd1567f"
          ],
          "data": "0x000000000000000000000000000000000000000000000000000000000000006000000000000000000000000000000000000000000000000000000000000001200000000000000000000000006c26c61a97006888ea9e4fa36584c7df57cd9da300000000000000000000000000000000000000000000000000000000000000990100000000000006840000759d000000000000000000000000303b63e785b656ca56ea5a5c1634ab20c98895e1000075e8000000000000000000000000474f4cb764df9da079d94052fed39625c147c12c2a60587afe50dc665d458f98fcde28880525cd2509be2a720b1b77b11eaada8800000000000000000000000028ff8e457fef9870b9d1529fe68fbb95c3181f64000000746a52880000000000000000000000000000000000000000000000000000000000000000000000000000002a0003010011010000000000000000000000000001adb0010011010000000000000000000000000007a12000000000000000000000000000000000000000000000",
          "blockHash": "0x00449fc8be938037db564bdc26e884ae08bf82c4a552404faff6adf1857f5e34",
          "blockNumber": "0x40609d9",
          "transactionHash": "0x4c4e5979dc7a2c50225f65a030b731f305e87eba8959375c88bb1e2c7014d115",
          "transactionIndex": "0x66",
          "logIndex": "0x213",
          "removed": false
        },
        {
          "address": "0x0000000000000000000000000000000000001010",
          "topics": [
            "0xe6497e3ee548a3372136af2fcb0696db31fc6cf20260707645068bd3fe97f3c4",
            "0x0000000000000000000000000000000000000000000000000000000000001010",
            "0x0000000000000000000000001a44076050125825900e736c501f859c50fe728c",
            "0x0000000000000000000000006c26c61a97006888ea9e4fa36584c7df57cd9da3"
          ],
          "data": "0x000000000000000000000000000000000000000000000000092f5b92fdac4f19000000000000000000000000000000000000000000000000092f5b92fdac4f19000000000000000000000000000000000000000000000e501e49c8667eca48580000000000000000000000000000000000000000000000000000000000000000000000000000000000000000000000000000000000000e50277923f97c769771",
          "blockHash": "0x00449fc8be938037db564bdc26e884ae08bf82c4a552404faff6adf1857f5e34",
          "blockNumber": "0x40609d9",
          "transactionHash": "0x4c4e5979dc7a2c50225f65a030b731f305e87eba8959375c88bb1e2c7014d115",
          "transactionIndex": "0x66",
          "logIndex": "0x214",
          "removed": false
        },
        {
          "address": "0x303b63e785B656ca56ea5A5C1634Ab20C98895e1",
          "topics": [
            "0x85496b760a4b7f8d66384b9df21b381f5d1b1e79f229a47aaf4c232edc2fe59a",
            "0x2a60587afe50dc665d458f98fcde28880525cd2509be2a720b1b77b11eaada88",
            "0x00000000000000000000000028ff8e457fef9870b9d1529fe68fbb95c3181f64"
          ],
          "data": "0x00000000000000000000000000000000000000000000000000000000000075e80000000000000000000000000000000000000000000069e10de76676d08000000000000000000000000000000000000000000000000069e10de76676d0800000",
          "blockHash": "0x00449fc8be938037db564bdc26e884ae08bf82c4a552404faff6adf1857f5e34",
          "blockNumber": "0x40609d9",
          "transactionHash": "0x4c4e5979dc7a2c50225f65a030b731f305e87eba8959375c88bb1e2c7014d115",
          "transactionIndex": "0x66",
          "logIndex": "0x215",
          "removed": false
        },
        {
          "address": "0x0000000000000000000000000000000000001010",
          "topics": [
            "0x4dfe1bbbcf077ddc3e01291eea2d5c70c2b422b415d95645b9adcfd678cb1d63",
            "0x0000000000000000000000000000000000000000000000000000000000001010",
            "0x00000000000000000000000028ff8e457fef9870b9d1529fe68fbb95c3181f64",
            "0x0000000000000000000000001efecb61a2f80aa34d3b9218b564a64d05946290"
          ],
          "data": "0x000000000000000000000000000000000000000000000000002165410e8198dc0000000000000000000000000000000000000000000000011f7a524271e9b7150000000000000000000000000000000000000000000013ba9b1e949b128245a80000000000000000000000000000000000000000000000011f58ed0163681e390000000000000000000000000000000000000000000013ba9b3ff9dc2103de84",
          "blockHash": "0x00449fc8be938037db564bdc26e884ae08bf82c4a552404faff6adf1857f5e34",
          "blockNumber": "0x40609d9",
          "transactionHash": "0x4c4e5979dc7a2c50225f65a030b731f305e87eba8959375c88bb1e2c7014d115",
          "transactionIndex": "0x66",
          "logIndex": "0x216",
          "removed": false
        }
      ],
      "logsBloom": "0x4000000000000000000004800000000000000000004400000000000400104000000000400000100000000010000200000000a000000000000020000000300000210082042011000000400008000000800000000000000000000100000000000000000040420000008000000000000800000000000010400080200010000000000000000002000000000000080000100000000000000020000000010000000000200000008000000000100000002010000000000000400000000440880000004000000102400000008001000080000000004000000000801000188000000020002000040000000000000000000000002040000000818000000040000000100000",
      "type": "0x2",
      "transactionHash": "0x4c4e5979dc7a2c50225f65a030b731f305e87eba8959375c88bb1e2c7014d115",
      "transactionIndex": "0x66",
      "blockHash": "0x00449fc8be938037db564bdc26e884ae08bf82c4a552404faff6adf1857f5e34",
      "blockNumber": "0x40609d9",
      "gasUsed": "0x4d48d",
      "effectiveGasPrice": "0x1c4f9c6995",
      "from": "0x28ff8e457feF9870B9d1529FE68Fbb95C3181f64",
      "to": "0x303b63e785B656ca56ea5A5C1634Ab20C98895e1",
      "contractAddress": null
    },
    {
      "status": "0x1",
      "cumulativeGasUsed": "0xffdb46",
      "logs": [
        {
          "address": "0x3d2bD0e15829AA5C362a4144FdF4A1112fa29B5c",
          "topics": [
            "0x8c5be1e5ebec7d5bd14f71427d1e84f3dd0314c0f7b2291e5b200ac8c7c3b925",
            "0x00000000000000000000000028ff8e457fef9870b9d1529fe68fbb95c3181f64",
            "0x000000000000000000000000303b63e785b656ca56ea5a5c1634ab20c98895e1"
          ],
          "data": "0x0000000000000000000000000000000000000000000069e10de76676d0800000",
          "blockHash": "0x00449fc8be938037db564bdc26e884ae08bf82c4a552404faff6adf1857f5e34",
          "blockNumber": "0x40609d9",
          "transactionHash": "0x47e72ee1ab6bdf77f9c14b5aab95f22851855b349c650a3e6c1698e1e23c147c",
          "transactionIndex": "0x67",
          "logIndex": "0x217",
          "removed": false
        },
        {
          "address": "0x0000000000000000000000000000000000001010",
          "topics": [
            "0x4dfe1bbbcf077ddc3e01291eea2d5c70c2b422b415d95645b9adcfd678cb1d63",
            "0x0000000000000000000000000000000000000000000000000000000000001010",
            "0x00000000000000000000000028ff8e457fef9870b9d1529fe68fbb95c3181f64",
            "0x0000000000000000000000001efecb61a2f80aa34d3b9218b564a64d05946290"
          ],
          "data": "0x0000000000000000000000000000000000000000000000000004dfdbbb04641c00000000000000000000000000000000000000000000000115c236b86d53dceb0000000000000000000000000000000000000000000013ba9b3ff9dc2103de8400000000000000000000000000000000000000000000000115bd56dcb24f78cf0000000000000000000000000000000000000000000013ba9b44d9b7dc0842a0",
          "blockHash": "0x00449fc8be938037db564bdc26e884ae08bf82c4a552404faff6adf1857f5e34",
          "blockNumber": "0x40609d9",
          "transactionHash": "0x47e72ee1ab6bdf77f9c14b5aab95f22851855b349c650a3e6c1698e1e23c147c",
          "transactionIndex": "0x67",
          "logIndex": "0x218",
          "removed": false
        }
      ],
      "logsBloom": "0x40000000000000000000000000000000000000000000000000000000000040000000000000001000000000000000000000008000000000000000000000200000200000042000000000000000000000800000000000000000000100000000000000000000000000000000000000000800000000000000000080000000000000000000000000000000000000000000000000000000000000000000000000000000220000000000000000000000000000000000000000000000000000880000004000000100000000008001000000000000000000000000000000100000000000002010000000000000000000000000000000000000000000000000000000100000",
      "type": "0x2",
      "transactionHash": "0x47e72ee1ab6bdf77f9c14b5aab95f22851855b349c650a3e6c1698e1e23c147c",
      "transactionIndex": "0x67",
      "blockHash": "0x00449fc8be938037db564bdc26e884ae08bf82c4a552404faff6adf1857f5e34",
      "blockNumber": "0x40609d9",
      "gasUsed": "0xb47d",
      "effectiveGasPrice": "0x1c4f9c6995",
      "from": "0x28ff8e457feF9870B9d1529FE68Fbb95C3181f64",
      "to": "0x3d2bD0e15829AA5C362a4144FdF4A1112fa29B5c",
      "contractAddress": null
    },
    {
      "status": "0x1",
      "cumulativeGasUsed": "0x104a803",
      "logs": [
        {
          "address": "0x0000000000000000000000000000000000001010",
          "topics": [
            "0xe6497e3ee548a3372136af2fcb0696db31fc6cf20260707645068bd3fe97f3c4",
            "0x0000000000000000000000000000000000000000000000000000000000001010",
            "0x00000000000000000000000028ff8e457fef9870b9d1529fe68fbb95c3181f64",
            "0x000000000000000000000000303b63e785b656ca56ea5a5c1634ab20c98895e1"
          ],
          "data": "0x000000000000000000000000000000000000000000000000092f5b92fdac4f1900000000000000000000000000000000000000000000000114f28fe0ce7f0a3a00000000000000000000000000000000000000000000000000000000000000000000000000000000000000000000000000000000000000010bc3344dd0d2bb21000000000000000000000000000000000000000000000000092f5b92fdac4f19",
          "blockHash": "0x00449fc8be938037db564bdc26e884ae08bf82c4a552404faff6adf1857f5e34",
          "blockNumber": "0x40609d9",
          "transactionHash": "0x22fcdb730c815d434dae3f145c59da009eae3b11c7a5aa2f8cfac45e8f271840",
          "transactionIndex": "0x68",
          "logIndex": "0x219",
          "removed": false
        },
        {
          "address": "0xE9d2FA815B95A9d087862a09079549F351DaB9bd",
          "topics": [
            "0xddf252ad1be2c89b69c2b068fc378daa952ba7f163c4a11628f55a4df523b3ef",
            "0x00000000000000000000000028ff8e457fef9870b9d1529fe68fbb95c3181f64",
            "0x0000000000000000000000000000000000000000000000000000000000000000",
            "0x000000000000000000000000000000000000000000000000000000000000026c"
          ],
          "data": "0x",
          "blockHash": "0x00449fc8be938037db564bdc26e884ae08bf82c4a552404faff6adf1857f5e34",
          "blockNumber": "0x40609d9",
          "transactionHash": "0x22fcdb730c815d434dae3f145c59da009eae3b11c7a5aa2f8cfac45e8f271840",
          "transactionIndex": "0x68",
          "logIndex": "0x21a",
          "removed": false
        },
        {
          "address": "0xE9d2FA815B95A9d087862a09079549F351DaB9bd",
          "topics": [
            "0xddf252ad1be2c89b69c2b068fc378daa952ba7f163c4a11628f55a4df523b3ef",
            "0x00000000000000000000000028ff8e457fef9870b9d1529fe68fbb95c3181f64",
            "0x0000000000000000000000000000000000000000000000000000000000000000",
            "0x000000000000000000000000000000000000000000000000000000000000026b"
          ],
          "data": "0x",
          "blockHash": "0x00449fc8be938037db564bdc26e884ae08bf82c4a552404faff6adf1857f5e34",
          "blockNumber": "0x40609d9",
          "transactionHash": "0x22fcdb730c815d434dae3f145c59da009eae3b11c7a5aa2f8cfac45e8f271840",
          "transactionIndex": "0x68",
          "logIndex": "0x21b",
          "removed": false
        },
        {
          "address": "0xE9d2FA815B95A9d087862a09079549F351DaB9bd",
          "topics": [
            "0xddf252ad1be2c89b69c2b068fc378daa952ba7f163c4a11628f55a4df523b3ef",
            "0x00000000000000000000000028ff8e457fef9870b9d1529fe68fbb95c3181f64",
            "0x0000000000000000000000000000000000000000000000000000000000000000",
            "0x000000000000000000000000000000000000000000000000000000000000026a"
          ],
          "data": "0x",
          "blockHash": "0x00449fc8be938037db564bdc26e884ae08bf82c4a552404faff6adf1857f5e34",
          "blockNumber": "0x40609d9",
          "transactionHash": "0x22fcdb730c815d434dae3f145c59da009eae3b11c7a5aa2f8cfac45e8f271840",
          "transactionIndex": "0x68",
          "logIndex": "0x21c",
          "removed": false
        },
        {
          "address": "0xE9d2FA815B95A9d087862a09079549F351DaB9bd",
          "topics": [
            "0xddf252ad1be2c89b69c2b068fc378daa952ba7f163c4a11628f55a4df523b3ef",
            "0x00000000000000000000000028ff8e457fef9870b9d1529fe68fbb95c3181f64",
            "0x0000000000000000000000000000000000000000000000000000000000000000",
            "0x0000000000000000000000000000000000000000000000000000000000000269"
          ],
          "data": "0x",
          "blockHash": "0x00449fc8be938037db564bdc26e884ae08bf82c4a552404faff6adf1857f5e34",
          "blockNumber": "0x40609d9",
          "transactionHash": "0x22fcdb730c815d434dae3f145c59da009eae3b11c7a5aa2f8cfac45e8f271840",
          "transactionIndex": "0x68",
          "logIndex": "0x21d",
          "removed": false
        },
        {
          "address": "0xE9d2FA815B95A9d087862a09079549F351DaB9bd",
          "topics": [
            "0xddf252ad1be2c89b69c2b068fc378daa952ba7f163c4a11628f55a4df523b3ef",
            "0x00000000000000000000000028ff8e457fef9870b9d1529fe68fbb95c3181f64",
            "0x0000000000000000000000000000000000000000000000000000000000000000",
            "0x0000000000000000000000000000000000000000000000000000000000000268"
          ],
          "data": "0x",
          "blockHash": "0x00449fc8be938037db564bdc26e884ae08bf82c4a552404faff6adf1857f5e34",
          "blockNumber": "0x40609d9",
          "transactionHash": "0x22fcdb730c815d434dae3f145c59da009eae3b11c7a5aa2f8cfac45e8f271840",
          "transactionIndex": "0x68",
          "logIndex": "0x21e",
          "removed": false
        },
        {
          "address": "0x3d2bD0e15829AA5C362a4144FdF4A1112fa29B5c",
          "topics": [
            "0xddf252ad1be2c89b69c2b068fc378daa952ba7f163c4a11628f55a4df523b3ef",
            "0x00000000000000000000000028ff8e457fef9870b9d1529fe68fbb95c3181f64",
            "0x000000000000000000000000303b63e785b656ca56ea5a5c1634ab20c98895e1"
          ],
          "data": "0x0000000000000000000000000000000000000000000069e10de76676d0800000",
          "blockHash": "0x00449fc8be938037db564bdc26e884ae08bf82c4a552404faff6adf1857f5e34",
          "blockNumber": "0x40609d9",
          "transactionHash": "0x22fcdb730c815d434dae3f145c59da009eae3b11c7a5aa2f8cfac45e8f271840",
          "transactionIndex": "0x68",
          "logIndex": "0x21f",
          "removed": false
        },
        {
          "address": "0x0000000000000000000000000000000000001010",
          "topics": [
            "0xe6497e3ee548a3372136af2fcb0696db31fc6cf20260707645068bd3fe97f3c4",
            "0x0000000000000000000000000000000000000000000000000000000000001010",
            "0x000000000000000000000000303b63e785b656ca56ea5a5c1634ab20c98895e1",
            "0x0000000000000000000000001a44076050125825900e736c501f859c50fe728c"
          ],
          "data": "0x000000000000000000000000000000000000000000000000092f5b92fdac4f19000000000000000000000000000000000000000000000000092f5b92fdac4f1900000000000000000000000000000000000000000000000000000000000000000000000000000000000000000000000000000000000000000000000000000000000000000000000000000000000000000000000000000000092f5b92fdac4f19",
          "blockHash": "0x00449fc8be938037db564bdc26e884ae08bf82c4a552404faff6adf1857f5e34",
          "blockNumber": "0x40609d9",
          "transactionHash": "0x22fcdb730c815d434dae3f145c59da009eae3b11c7a5aa2f8cfac45e8f271840",
          "transactionIndex": "0x68",
          "logIndex": "0x220",
          "removed": false
        },
        {
          "address": "0x6c26c61a97006888ea9E4FA36584c7df57Cd9dA3",
          "topics": [
            "0x61ed099e74a97a1d7f8bb0952a88ca8b7b8ebd00c126ea04671f92a81213318a"
          ],
          "data": "0x000000000000000000000000cd3f213ad101472e1713c72b1697e727c803885b000000000000000000000000000000000000000000000000045294b073713e25",
          "blockHash": "0x00449fc8be938037db564bdc26e884ae08bf82c4a552404faff6adf1857f5e34",
          "blockNumber": "0x40609d9",
          "transactionHash": "0x22fcdb730c815d434dae3f145c59da009eae3b11c7a5aa2f8cfac45e8f271840",
          "transactionIndex": "0x68",
          "logIndex": "0x221",
          "removed": false
        },
        {
          "address": "0x6c26c61a97006888ea9E4FA36584c7df57Cd9dA3",
          "topics": [
            "0x07ea52d82345d6e838192107d8fd7123d9c2ec8e916cd0aad13fd2b60db24644"
          ],
          "data": "0x000000000000000000000000000000000000000000000000000000000000006000000000000000000000000000000000000000000000000000000000000000c000000000000000000000000000000000000000000000000000000000000000e0000000000000000000000000000000000000000000000000000000000000000200000000000000000000000023de2fe932d9043291f870324b74f820e11dc81a000000000000000000000000d56e4eab23cb81f43168f9f45211eb027b9ac7cc0000000000000000000000000000000000000000000000000000000000000000000000000000000000000000000000000000000000000000000000000000000200000000000000000000000000000000000000000000000000524e41217b088c000000000000000000000000000000000000000000000000048a78a168c00868",
          "blockHash": "0x00449fc8be938037db564bdc26e884ae08bf82c4a552404faff6adf1857f5e34",
          "blockNumber": "0x40609d9",
          "transactionHash": "0x22fcdb730c815d434dae3f145c59da009eae3b11c7a5aa2f8cfac45e8f271840",
          "transactionIndex": "0x68",
          "logIndex": "0x222",
          "removed": false
        },
        {
          "address": "0x1a44076050125825900e736c501f859c50fE728c",
          "topics": [
            "0x1ab700d4ced0c005b164c0f789fd09fcbb0156d4c2041b8a3bfbcd961cd1567f"
          ],
          "data": "0x000000000000000000000000000000000000000000000000000000000000006000000000000000000000000000000000000000000000000000000000000001200000000000000000000000006c26c61a97006888ea9e4fa36584c7df57cd9da300000000000000000000000000000000000000000000000000000000000000990100000000000006850000759d000000000000000000000000303b63e785b656ca56ea5a5c1634ab20c98895e1000075e8000000000000000000000000474f4cb764df9da079d94052fed39625c147c12c3fbd287a3a925ea355c491ca21312aa7208adf256ba8856949c581d9721487a200000000000000000000000028ff8e457fef9870b9d1529fe68fbb95c3181f64000000746a52880000000000000000000000000000000000000000000000000000000000000000000000000000002a0003010011010000000000000000000000000001adb0010011010000000000000000000000000007a12000000000000000000000000000000000000000000000",
          "blockHash": "0x00449fc8be938037db564bdc26e884ae08bf82c4a552404faff6adf1857f5e34",
          "blockNumber": "0x40609d9",
          "transactionHash": "0x22fcdb730c815d434dae3f145c59da009eae3b11c7a5aa2f8cfac45e8f271840",
          "transactionIndex": "0x68",
          "logIndex": "0x223",
          "removed": false
        },
        {
          "address": "0x0000000000000000000000000000000000001010",
          "topics": [
            "0xe6497e3ee548a3372136af2fcb0696db31fc6cf20260707645068bd3fe97f3c4",
            "0x0000000000000000000000000000000000000000000000000000000000001010",
            "0x0000000000000000000000001a44076050125825900e736c501f859c50fe728c",
            "0x0000000000000000000000006c26c61a97006888ea9e4fa36584c7df57cd9da3"
          ],
          "data": "0x000000000000000000000000000000000000000000000000092f5b92fdac4f19000000000000000000000000000000000000000000000000092f5b92fdac4f19000000000000000000000000000000000000000000000e50277923f97c7697710000000000000000000000000000000000000000000000000000000000000000000000000000000000000000000000000000000000000e5030a87f8c7a22e68a",
          "blockHash": "0x00449fc8be938037db564bdc26e884ae08bf82c4a552404faff6adf1857f5e34",
          "blockNumber": "0x40609d9",
          "transactionHash": "0x22fcdb730c815d434dae3f145c59da009eae3b11c7a5aa2f8cfac45e8f271840",
          "transactionIndex": "0x68",
          "logIndex": "0x224",
          "removed": false
        },
        {
          "address": "0x303b63e785B656ca56ea5A5C1634Ab20C98895e1",
          "topics": [
            "0x85496b760a4b7f8d66384b9df21b381f5d1b1e79f229a47aaf4c232edc2fe59a",
            "0x3fbd287a3a925ea355c491ca21312aa7208adf256ba8856949c581d9721487a2",
            "0x00000000000000000000000028ff8e457fef9870b9d1529fe68fbb95c3181f64"
          ],
          "data": "0x00000000000000000000000000000000000000000000000000000000000075e80000000000000000000000000000000000000000000069e10de76676d08000000000000000000000000000000000000000000000000069e10de76676d0800000",
          "blockHash": "0x00449fc8be938037db564bdc26e884ae08bf82c4a552404faff6adf1857f5e34",
          "blockNumber": "0x40609d9",
          "transactionHash": "0x22fcdb730c815d434dae3f145c59da009eae3b11c7a5aa2f8cfac45e8f271840",
          "transactionIndex": "0x68",
          "logIndex": "0x225",
          "removed": false
        },
        {
          "address": "0x0000000000000000000000000000000000001010",
          "topics": [
            "0x4dfe1bbbcf077ddc3e01291eea2d5c70c2b422b415d95645b9adcfd678cb1d63",
            "0x0000000000000000000000000000000000000000000000000000000000001010",
            "0x00000000000000000000000028ff8e457fef9870b9d1529fe68fbb95c3181f64",
            "0x0000000000000000000000001efecb61a2f80aa34d3b9218b564a64d05946290"
          ],
          "data": "0x00000000000000000000000000000000000000000000000000212f3d7952571c00000000000000000000000000000000000000000000000115ae40eb93b78b2a0000000000000000000000000000000000000000000013ba9b44d9b7dc0842a0000000000000000000000000000000000000000000000001158d11ae1a65340e0000000000000000000000000000000000000000000013ba9b6608f5555a99bc",
          "blockHash": "0x00449fc8be938037db564bdc26e884ae08bf82c4a552404faff6adf1857f5e34",
          "blockNumber": "0x40609d9",
          "transactionHash": "0x22fcdb730c815d434dae3f145c59da009eae3b11c7a5aa2f8cfac45e8f271840",
          "transactionIndex": "0x68",
          "logIndex": "0x226",
          "removed": false
        }
      ],
      "logsBloom": "0x4000000000000000000004800000000000004080000000001000000400504000000000400000100000104010000200000000a000010000800001000000100000200086042010000000408008000000800000000000000000000100000000000000000000020000008000000000000800000000000010000080200010000000800000000042000000000000080000000000000000000000000000010000000008200000008000000000100000000000000000000008400000000440880000004000000102009000008001000080000000000000000000801000188000000020002000040000020000000000000000002000000000018000000000000000100000",
      "type": "0x2",
      "transactionHash": "0x22fcdb730c815d434dae3f145c59da009eae3b11c7a5aa2f8cfac45e8f271840",
      "transactionIndex": "0x68",
      "blockHash": "0x00449fc8be938037db564bdc26e884ae08bf82c4a552404faff6adf1857f5e34",
      "blockNumber": "0x40609d9",
      "gasUsed": "0x4ccbd",
      "effectiveGasPrice": "0x1c4f9c6995",
      "from": "0x28ff8e457feF9870B9d1529FE68Fbb95C3181f64",
      "to": "0x303b63e785B656ca56ea5A5C1634Ab20C98895e1",
      "contractAddress": null
    }
  ],
  "libraries": [],
  "pending": [],
  "returns": {},
  "timestamp": 1738622419,
  "chain": 137,
  "commit": "9bc9372"
}