{
  "transactions": [
    {
      "hash": "0x72b99cf124dff8fbd6f4a9439a257d02a1d7c6ebb09dd5e59945240b1ecb3e01",
      "transactionType": "CALL",
      "contractName": null,
      "contractAddress": "0x3d2bd0e15829aa5c362a4144fdf4a1112fa29b5c",
      "function": "approve(address,uint256)",
      "arguments": [
        "0x303b63e785B656ca56ea5A5C1634Ab20C98895e1",
        "1000000000000000000000000"
      ],
      "transaction": {
        "from": "0x21af1185734d213d45c6236146fb81e2b0e8b821",
        "to": "0x3d2bd0e15829aa5c362a4144fdf4a1112fa29b5c",
        "gas": "0x107e5",
        "value": "0x0",
        "input": "0x095ea7b3000000000000000000000000303b63e785b656ca56ea5a5c1634ab20c98895e100000000000000000000000000000000000000000000d3c21bcecceda1000000",
        "nonce": "0x70",
        "chainId": "0x89"
      },
      "additionalContracts": [],
      "isFixedGasLimit": false
    },
    {
      "hash": "0x10df15bc6c2f7b68d757f581766411bd58092e20b553ad15265f3b2459f777c2",
      "transactionType": "CALL",
      "contractName": null,
      "contractAddress": "0x303b63e785b656ca56ea5a5c1634ab20c98895e1",
      "function": "send((uint32,bytes32,uint256,uint256,bytes,bytes,bytes),(uint256,uint256),address)",
      "arguments": [
        "(30184, 0x00000000000000000000000021af1185734d213d45c6236146fb81e2b0e8b821, 1000000000000000000000000, 1000000000000000000000000, 0x0003010011010000000000000000000000000007a120, 0x, 0x)",
        "(453980358337095816, 0)",
        "0x5b73C5498c1E3b4dbA84de0F1833c4a029d90519"
      ],
      "transaction": {
        "from": "0x21af1185734d213d45c6236146fb81e2b0e8b821",
        "to": "0x303b63e785b656ca56ea5a5c1634ab20c98895e1",
        "gas": "0x5ce20",
        "value": "0x64cdcbb09afe888",
        "input": "0xc7c7f5b30000000000000000000000000000000000000000000000000000000000000080000000000000000000000000000000000000000000000000064cdcbb09afe88800000000000000000000000000000000000000000000000000000000000000000000000000000000000000005b73c5498c1e3b4dba84de0f1833c4a029d9051900000000000000000000000000000000000000000000000000000000000075e800000000000000000000000021af1185734d213d45c6236146fb81e2b0e8b82100000000000000000000000000000000000000000000d3c21bcecceda100000000000000000000000000000000000000000000000000d3c21bcecceda100000000000000000000000000000000000000000000000000000000000000000000e00000000000000000000000000000000000000000000000000000000000000120000000000000000000000000000000000000000000000000000000000000014000000000000000000000000000000000000000000000000000000000000000160003010011010000000000000000000000000007a1200000000000000000000000000000000000000000000000000000000000000000000000000000000000000000000000000000000000000000000000000000000000000000000000000000",
        "nonce": "0x71",
        "chainId": "0x89"
      },
      "additionalContracts": [],
      "isFixedGasLimit": false
    },
    {
      "hash": "0x893c18a99a6accead7ec602480fac6edf65a80491a642ef3470ce64770d30de0",
      "transactionType": "CALL",
      "contractName": null,
      "contractAddress": "0x3d2bd0e15829aa5c362a4144fdf4a1112fa29b5c",
      "function": "approve(address,uint256)",
      "arguments": [
        "0x303b63e785B656ca56ea5A5C1634Ab20C98895e1",
        "1000000000000000000000000"
      ],
      "transaction": {
        "from": "0x21af1185734d213d45c6236146fb81e2b0e8b821",
        "to": "0x3d2bd0e15829aa5c362a4144fdf4a1112fa29b5c",
        "gas": "0x107e5",
        "value": "0x0",
        "input": "0x095ea7b3000000000000000000000000303b63e785b656ca56ea5a5c1634ab20c98895e100000000000000000000000000000000000000000000d3c21bcecceda1000000",
        "nonce": "0x72",
        "chainId": "0x89"
      },
      "additionalContracts": [],
      "isFixedGasLimit": false
    },
    {
      "hash": "0xd85ead7a2ac6dcebb0dc1d8d16f90f15bc31e305a9ef0c9f52c293f0af8eeeaf",
      "transactionType": "CALL",
      "contractName": null,
      "contractAddress": "0x303b63e785b656ca56ea5a5c1634ab20c98895e1",
      "function": "send((uint32,bytes32,uint256,uint256,bytes,bytes,bytes),(uint256,uint256),address)",
      "arguments": [
        "(30184, 0x00000000000000000000000021af1185734d213d45c6236146fb81e2b0e8b821, 1000000000000000000000000, 1000000000000000000000000, 0x0003010011010000000000000000000000000007a120, 0x, 0x)",
        "(453980358337095816, 0)",
        "0x5b73C5498c1E3b4dbA84de0F1833c4a029d90519"
      ],
      "transaction": {
        "from": "0x21af1185734d213d45c6236146fb81e2b0e8b821",
        "to": "0x303b63e785b656ca56ea5a5c1634ab20c98895e1",
        "gas": "0x5ce20",
        "value": "0x64cdcbb09afe888",
        "input": "0xc7c7f5b30000000000000000000000000000000000000000000000000000000000000080000000000000000000000000000000000000000000000000064cdcbb09afe88800000000000000000000000000000000000000000000000000000000000000000000000000000000000000005b73c5498c1e3b4dba84de0f1833c4a029d9051900000000000000000000000000000000000000000000000000000000000075e800000000000000000000000021af1185734d213d45c6236146fb81e2b0e8b82100000000000000000000000000000000000000000000d3c21bcecceda100000000000000000000000000000000000000000000000000d3c21bcecceda100000000000000000000000000000000000000000000000000000000000000000000e00000000000000000000000000000000000000000000000000000000000000120000000000000000000000000000000000000000000000000000000000000014000000000000000000000000000000000000000000000000000000000000000160003010011010000000000000000000000000007a1200000000000000000000000000000000000000000000000000000000000000000000000000000000000000000000000000000000000000000000000000000000000000000000000000000",
        "nonce": "0x73",
        "chainId": "0x89"
      },
      "additionalContracts": [],
      "isFixedGasLimit": false
    }
  ],
  "receipts": [
    {
      "status": "0x1",
      "cumulativeGasUsed": "0x7e315a",
      "logs": [
        {
          "address": "0x3d2bd0e15829aa5c362a4144fdf4a1112fa29b5c",
          "topics": [
            "0x8c5be1e5ebec7d5bd14f71427d1e84f3dd0314c0f7b2291e5b200ac8c7c3b925",
            "0x00000000000000000000000021af1185734d213d45c6236146fb81e2b0e8b821",
            "0x000000000000000000000000303b63e785b656ca56ea5a5c1634ab20c98895e1"
          ],
          "data": "0x00000000000000000000000000000000000000000000d3c21bcecceda1000000",
          "blockHash": "0x20147158e07715a6a4ae446bac79213acb02a40f0a3822de9ec6597cda5e2ccd",
          "blockNumber": "0x3be1e72",
          "transactionHash": "0x72b99cf124dff8fbd6f4a9439a257d02a1d7c6ebb09dd5e59945240b1ecb3e01",
          "transactionIndex": "0x3a",
          "logIndex": "0x115",
          "removed": false
        },
        {
          "address": "0x0000000000000000000000000000000000001010",
          "topics": [
            "0x4dfe1bbbcf077ddc3e01291eea2d5c70c2b422b415d95645b9adcfd678cb1d63",
            "0x0000000000000000000000000000000000000000000000000000000000001010",
            "0x00000000000000000000000021af1185734d213d45c6236146fb81e2b0e8b821",
            "0x000000000000000000000000aa6ac02fddaaf6f120f5bb98ce30809d19cd5d1b"
          ],
          "data": "0x0000000000000000000000000000000000000000000000000004ec5e60aeec000000000000000000000000000000000000000000000000000ea3957f5689c4e70000000000000000000000000000000000000000000023b0850829facadb97a60000000000000000000000000000000000000000000000000e9ea920f5dad8e70000000000000000000000000000000000000000000023b0850d16592b8a83a6",
          "blockHash": "0x20147158e07715a6a4ae446bac79213acb02a40f0a3822de9ec6597cda5e2ccd",
          "blockNumber": "0x3be1e72",
          "transactionHash": "0x72b99cf124dff8fbd6f4a9439a257d02a1d7c6ebb09dd5e59945240b1ecb3e01",
          "transactionIndex": "0x3a",
          "logIndex": "0x116",
          "removed": false
        }
      ],
      "logsBloom": "0x40020000000000000000000000080000000000000000040000000000000000000000000000001000000000000000000000008000000000000000000000200000000000042000000000000000000000800000000000000000010100000000000000000000000000000000000000000800000000000000000080004000000000000000000000000000000000000000000000000000000000000000000000000000220000000000000000000000000000000000000000000000000080080000004000000000000000000001000000000000000000000000000000100000000000000010000000000000000000000000000000000000000000000000000000100000",
      "type": "0x2",
      "transactionHash": "0x72b99cf124dff8fbd6f4a9439a257d02a1d7c6ebb09dd5e59945240b1ecb3e01",
      "transactionIndex": "0x3a",
      "blockHash": "0x20147158e07715a6a4ae446bac79213acb02a40f0a3822de9ec6597cda5e2ccd",
      "blockNumber": "0x3be1e72",
      "gasUsed": "0xb471",
      "effectiveGasPrice": "0x6fc23ac22",
      "from": "0x21af1185734d213d45c6236146fb81e2b0e8b821",
      "to": "0x3d2bd0e15829aa5c362a4144fdf4a1112fa29b5c",
      "contractAddress": null
    },
    {
      "status": "0x1",
      "cumulativeGasUsed": "0x1bac54a",
      "logs": [
        {
          "address": "0x0000000000000000000000000000000000001010",
          "topics": [
            "0xe6497e3ee548a3372136af2fcb0696db31fc6cf20260707645068bd3fe97f3c4",
            "0x0000000000000000000000000000000000000000000000000000000000001010",
            "0x00000000000000000000000021af1185734d213d45c6236146fb81e2b0e8b821",
            "0x000000000000000000000000303b63e785b656ca56ea5a5c1634ab20c98895e1"
          ],
          "data": "0x000000000000000000000000000000000000000000000000064cdcbb09afe8880000000000000000000000000000000000000000000000000e761caa602001a5000000000000000000000000000000000000000000000000000000000000000000000000000000000000000000000000000000000000000008293fef5670191d000000000000000000000000000000000000000000000000064cdcbb09afe888",
          "blockHash": "0x5c2d0c505e0d9dfdaadc4d632e412e8fb3b13616c0fc5c40214f16bb99ff2ef8",
          "blockNumber": "0x3be1e73",
          "transactionHash": "0x10df15bc6c2f7b68d757f581766411bd58092e20b553ad15265f3b2459f777c2",
          "transactionIndex": "0x24",
          "logIndex": "0x16a",
          "removed": false
        },
        {
          "address": "0x3d2bd0e15829aa5c362a4144fdf4a1112fa29b5c",
          "topics": [
            "0xddf252ad1be2c89b69c2b068fc378daa952ba7f163c4a11628f55a4df523b3ef",
            "0x00000000000000000000000021af1185734d213d45c6236146fb81e2b0e8b821",
            "0x000000000000000000000000303b63e785b656ca56ea5a5c1634ab20c98895e1"
          ],
          "data": "0x00000000000000000000000000000000000000000000d3c21bcecceda1000000",
          "blockHash": "0x5c2d0c505e0d9dfdaadc4d632e412e8fb3b13616c0fc5c40214f16bb99ff2ef8",
          "blockNumber": "0x3be1e73",
          "transactionHash": "0x10df15bc6c2f7b68d757f581766411bd58092e20b553ad15265f3b2459f777c2",
          "transactionIndex": "0x24",
          "logIndex": "0x16b",
          "removed": false
        },
        {
          "address": "0x0000000000000000000000000000000000001010",
          "topics": [
            "0xe6497e3ee548a3372136af2fcb0696db31fc6cf20260707645068bd3fe97f3c4",
            "0x0000000000000000000000000000000000000000000000000000000000001010",
            "0x000000000000000000000000303b63e785b656ca56ea5a5c1634ab20c98895e1",
            "0x0000000000000000000000001a44076050125825900e736c501f859c50fe728c"
          ],
          "data": "0x000000000000000000000000000000000000000000000000064cdcbb09afe888000000000000000000000000000000000000000000000000064cdcbb09afe88800000000000000000000000000000000000000000000000000000000000000000000000000000000000000000000000000000000000000000000000000000000000000000000000000000000000000000000000000000000064cdcbb09afe888",
          "blockHash": "0x5c2d0c505e0d9dfdaadc4d632e412e8fb3b13616c0fc5c40214f16bb99ff2ef8",
          "blockNumber": "0x3be1e73",
          "transactionHash": "0x10df15bc6c2f7b68d757f581766411bd58092e20b553ad15265f3b2459f777c2",
          "transactionIndex": "0x24",
          "logIndex": "0x16c",
          "removed": false
        },
        {
          "address": "0x6c26c61a97006888ea9e4fa36584c7df57cd9da3",
          "topics": [
            "0x61ed099e74a97a1d7f8bb0952a88ca8b7b8ebd00c126ea04671f92a81213318a"
          ],
          "data": "0x000000000000000000000000cd3f213ad101472e1713c72b1697e727c803885b0000000000000000000000000000000000000000000000000265e8c9565192e0",
          "blockHash": "0x5c2d0c505e0d9dfdaadc4d632e412e8fb3b13616c0fc5c40214f16bb99ff2ef8",
          "blockNumber": "0x3be1e73",
          "transactionHash": "0x10df15bc6c2f7b68d757f581766411bd58092e20b553ad15265f3b2459f777c2",
          "transactionIndex": "0x24",
          "logIndex": "0x16d",
          "removed": false
        },
        {
          "address": "0x6c26c61a97006888ea9e4fa36584c7df57cd9da3",
          "topics": [
            "0x07ea52d82345d6e838192107d8fd7123d9c2ec8e916cd0aad13fd2b60db24644"
          ],
          "data": "0x000000000000000000000000000000000000000000000000000000000000006000000000000000000000000000000000000000000000000000000000000000c000000000000000000000000000000000000000000000000000000000000000e0000000000000000000000000000000000000000000000000000000000000000200000000000000000000000023de2fe932d9043291f870324b74f820e11dc81a000000000000000000000000d56e4eab23cb81f43168f9f45211eb027b9ac7cc00000000000000000000000000000000000000000000000000000000000000000000000000000000000000000000000000000000000000000000000000000002000000000000000000000000000000000000000000000000001373b19139f40400000000000000000000000000000000000000000000000003d38040222461a4",
          "blockHash": "0x5c2d0c505e0d9dfdaadc4d632e412e8fb3b13616c0fc5c40214f16bb99ff2ef8",
          "blockNumber": "0x3be1e73",
          "transactionHash": "0x10df15bc6c2f7b68d757f581766411bd58092e20b553ad15265f3b2459f777c2",
          "transactionIndex": "0x24",
          "logIndex": "0x16e",
          "removed": false
        },
        {
          "address": "0x1a44076050125825900e736c501f859c50fe728c",
          "topics": [
            "0x1ab700d4ced0c005b164c0f789fd09fcbb0156d4c2041b8a3bfbcd961cd1567f"
          ],
          "data": "0x000000000000000000000000000000000000000000000000000000000000006000000000000000000000000000000000000000000000000000000000000001200000000000000000000000006c26c61a97006888ea9e4fa36584c7df57cd9da300000000000000000000000000000000000000000000000000000000000000990100000000000000050000759d000000000000000000000000303b63e785b656ca56ea5a5c1634ab20c98895e1000075e8000000000000000000000000474f4cb764df9da079d94052fed39625c147c12c9e16be79af7974be2d0f7ea50db2e68976ee55730562068abd956e2bfb1928a800000000000000000000000021af1185734d213d45c6236146fb81e2b0e8b821000000e8d4a5100000000000000000000000000000000000000000000000000000000000000000000000000000002a0003010011010000000000000000000000000001adb0010011010000000000000000000000000007a12000000000000000000000000000000000000000000000",
          "blockHash": "0x5c2d0c505e0d9dfdaadc4d632e412e8fb3b13616c0fc5c40214f16bb99ff2ef8",
          "blockNumber": "0x3be1e73",
          "transactionHash": "0x10df15bc6c2f7b68d757f581766411bd58092e20b553ad15265f3b2459f777c2",
          "transactionIndex": "0x24",
          "logIndex": "0x16f",
          "removed": false
        },
        {
          "address": "0x0000000000000000000000000000000000001010",
          "topics": [
            "0xe6497e3ee548a3372136af2fcb0696db31fc6cf20260707645068bd3fe97f3c4",
            "0x0000000000000000000000000000000000000000000000000000000000001010",
            "0x0000000000000000000000001a44076050125825900e736c501f859c50fe728c",
            "0x0000000000000000000000006c26c61a97006888ea9e4fa36584c7df57cd9da3"
          ],
          "data": "0x000000000000000000000000000000000000000000000000064cdcbb09afe888000000000000000000000000000000000000000000000000064cdcbb09afe888000000000000000000000000000000000000000000000347dbbb8c14c1eb0a720000000000000000000000000000000000000000000000000000000000000000000000000000000000000000000000000000000000000347e20868cfcb9af2fa",
          "blockHash": "0x5c2d0c505e0d9dfdaadc4d632e412e8fb3b13616c0fc5c40214f16bb99ff2ef8",
          "blockNumber": "0x3be1e73",
          "transactionHash": "0x10df15bc6c2f7b68d757f581766411bd58092e20b553ad15265f3b2459f777c2",
          "transactionIndex": "0x24",
          "logIndex": "0x170",
          "removed": false
        },
        {
          "address": "0x303b63e785b656ca56ea5a5c1634ab20c98895e1",
          "topics": [
            "0x85496b760a4b7f8d66384b9df21b381f5d1b1e79f229a47aaf4c232edc2fe59a",
            "0x9e16be79af7974be2d0f7ea50db2e68976ee55730562068abd956e2bfb1928a8",
            "0x00000000000000000000000021af1185734d213d45c6236146fb81e2b0e8b821"
          ],
          "data": "0x00000000000000000000000000000000000000000000000000000000000075e800000000000000000000000000000000000000000000d3c21bcecceda100000000000000000000000000000000000000000000000000d3c21bcecceda1000000",
          "blockHash": "0x5c2d0c505e0d9dfdaadc4d632e412e8fb3b13616c0fc5c40214f16bb99ff2ef8",
          "blockNumber": "0x3be1e73",
          "transactionHash": "0x10df15bc6c2f7b68d757f581766411bd58092e20b553ad15265f3b2459f777c2",
          "transactionIndex": "0x24",
          "logIndex": "0x171",
          "removed": false
        },
        {
          "address": "0x0000000000000000000000000000000000001010",
          "topics": [
            "0x4dfe1bbbcf077ddc3e01291eea2d5c70c2b422b415d95645b9adcfd678cb1d63",
            "0x0000000000000000000000000000000000000000000000000000000000001010",
            "0x00000000000000000000000021af1185734d213d45c6236146fb81e2b0e8b821",
            "0x000000000000000000000000aa6ac02fddaaf6f120f5bb98ce30809d19cd5d1b"
          ],
          "data": "0x000000000000000000000000000000000000000000000000001d5b4f309194000000000000000000000000000000000000000000000000000e9ea920f5c2e1e50000000000000000000000000000000000000000000023b0938ef4ab0bee788c0000000000000000000000000000000000000000000000000e814dd1c5314de50000000000000000000000000000000000000000000023b093ac4ffa3c800c8c",
          "blockHash": "0x5c2d0c505e0d9dfdaadc4d632e412e8fb3b13616c0fc5c40214f16bb99ff2ef8",
          "blockNumber": "0x3be1e73",
          "transactionHash": "0x10df15bc6c2f7b68d757f581766411bd58092e20b553ad15265f3b2459f777c2",
          "transactionIndex": "0x24",
          "logIndex": "0x172",
          "removed": false
        }
      ],
      "logsBloom": "0x400200000000000000000480000800000000000000000400000000040010000000000040000010000000001000020000000080000000000000000000000000000000820420100000004000080000008000000000000000000101080000000000000000040000000080000000000008000000000000100000802040100000000000000000000000000000000800000000000000000000000000000100000000002000000080000000001000000000000000000000004000000004c0080000004000000002000000000001000080000000000000000000801000188000000000000000044000000000000000000000002000000000018000000000000000100000",
      "type": "0x2",
      "transactionHash": "0x10df15bc6c2f7b68d757f581766411bd58092e20b553ad15265f3b2459f777c2",
      "transactionIndex": "0x24",
      "blockHash": "0x5c2d0c505e0d9dfdaadc4d632e412e8fb3b13616c0fc5c40214f16bb99ff2ef8",
      "blockNumber": "0x3be1e73",
      "gasUsed": "0x433ef",
      "effectiveGasPrice": "0x6fc23ac22",
      "from": "0x21af1185734d213d45c6236146fb81e2b0e8b821",
      "to": "0x303b63e785b656ca56ea5a5c1634ab20c98895e1",
      "contractAddress": null
    },
    {
      "status": "0x1",
      "cumulativeGasUsed": "0x1bb79bb",
      "logs": [
        {
          "address": "0x3d2bd0e15829aa5c362a4144fdf4a1112fa29b5c",
          "topics": [
            "0x8c5be1e5ebec7d5bd14f71427d1e84f3dd0314c0f7b2291e5b200ac8c7c3b925",
            "0x00000000000000000000000021af1185734d213d45c6236146fb81e2b0e8b821",
            "0x000000000000000000000000303b63e785b656ca56ea5a5c1634ab20c98895e1"
          ],
          "data": "0x00000000000000000000000000000000000000000000d3c21bcecceda1000000",
          "blockHash": "0x5c2d0c505e0d9dfdaadc4d632e412e8fb3b13616c0fc5c40214f16bb99ff2ef8",
          "blockNumber": "0x3be1e73",
          "transactionHash": "0x893c18a99a6accead7ec602480fac6edf65a80491a642ef3470ce64770d30de0",
          "transactionIndex": "0x25",
          "logIndex": "0x173",
          "removed": false
        },
        {
          "address": "0x0000000000000000000000000000000000001010",
          "topics": [
            "0x4dfe1bbbcf077ddc3e01291eea2d5c70c2b422b415d95645b9adcfd678cb1d63",
            "0x0000000000000000000000000000000000000000000000000000000000001010",
            "0x00000000000000000000000021af1185734d213d45c6236146fb81e2b0e8b821",
            "0x000000000000000000000000aa6ac02fddaaf6f120f5bb98ce30809d19cd5d1b"
          ],
          "data": "0x0000000000000000000000000000000000000000000000000004ec5e60aeec0000000000000000000000000000000000000000000000000008347116baf27f9f0000000000000000000000000000000000000000000023b093ac4ffa3c800c8c000000000000000000000000000000000000000000000000082f84b85a43939f0000000000000000000000000000000000000000000023b093b13c589d2ef88c",
          "blockHash": "0x5c2d0c505e0d9dfdaadc4d632e412e8fb3b13616c0fc5c40214f16bb99ff2ef8",
          "blockNumber": "0x3be1e73",
          "transactionHash": "0x893c18a99a6accead7ec602480fac6edf65a80491a642ef3470ce64770d30de0",
          "transactionIndex": "0x25",
          "logIndex": "0x174",
          "removed": false
        }
      ],
      "logsBloom": "0x40020000000000000000000000080000000000000000040000000000000000000000000000001000000000000000000000008000000000000000000000200000000000042000000000000000000000800000000000000000010100000000000000000000000000000000000000000800000000000000000080004000000000000000000000000000000000000000000000000000000000000000000000000000220000000000000000000000000000000000000000000000000080080000004000000000000000000001000000000000000000000000000000100000000000000010000000000000000000000000000000000000000000000000000000100000",
      "type": "0x2",
      "transactionHash": "0x893c18a99a6accead7ec602480fac6edf65a80491a642ef3470ce64770d30de0",
      "transactionIndex": "0x25",
      "blockHash": "0x5c2d0c505e0d9dfdaadc4d632e412e8fb3b13616c0fc5c40214f16bb99ff2ef8",
      "blockNumber": "0x3be1e73",
      "gasUsed": "0xb471",
      "effectiveGasPrice": "0x6fc23ac22",
      "from": "0x21af1185734d213d45c6236146fb81e2b0e8b821",
      "to": "0x3d2bd0e15829aa5c362a4144fdf4a1112fa29b5c",
      "contractAddress": null
    },
    {
      "status": "0x1",
      "cumulativeGasUsed": "0x1bfadaa",
      "logs": [
        {
          "address": "0x0000000000000000000000000000000000001010",
          "topics": [
            "0xe6497e3ee548a3372136af2fcb0696db31fc6cf20260707645068bd3fe97f3c4",
            "0x0000000000000000000000000000000000000000000000000000000000001010",
            "0x00000000000000000000000021af1185734d213d45c6236146fb81e2b0e8b821",
            "0x000000000000000000000000303b63e785b656ca56ea5a5c1634ab20c98895e1"
          ],
          "data": "0x000000000000000000000000000000000000000000000000064cdcbb09afe8880000000000000000000000000000000000000000000000000806f841c488bc5d000000000000000000000000000000000000000000000000000000000000000000000000000000000000000000000000000000000000000001ba1b86bad8d3d5000000000000000000000000000000000000000000000000064cdcbb09afe888",
          "blockHash": "0x5c2d0c505e0d9dfdaadc4d632e412e8fb3b13616c0fc5c40214f16bb99ff2ef8",
          "blockNumber": "0x3be1e73",
          "transactionHash": "0xd85ead7a2ac6dcebb0dc1d8d16f90f15bc31e305a9ef0c9f52c293f0af8eeeaf",
          "transactionIndex": "0x26",
          "logIndex": "0x175",
          "removed": false
        },
        {
          "address": "0x3d2bd0e15829aa5c362a4144fdf4a1112fa29b5c",
          "topics": [
            "0xddf252ad1be2c89b69c2b068fc378daa952ba7f163c4a11628f55a4df523b3ef",
            "0x00000000000000000000000021af1185734d213d45c6236146fb81e2b0e8b821",
            "0x000000000000000000000000303b63e785b656ca56ea5a5c1634ab20c98895e1"
          ],
          "data": "0x00000000000000000000000000000000000000000000d3c21bcecceda1000000",
          "blockHash": "0x5c2d0c505e0d9dfdaadc4d632e412e8fb3b13616c0fc5c40214f16bb99ff2ef8",
          "blockNumber": "0x3be1e73",
          "transactionHash": "0xd85ead7a2ac6dcebb0dc1d8d16f90f15bc31e305a9ef0c9f52c293f0af8eeeaf",
          "transactionIndex": "0x26",
          "logIndex": "0x176",
          "removed": false
        },
        {
          "address": "0x0000000000000000000000000000000000001010",
          "topics": [
            "0xe6497e3ee548a3372136af2fcb0696db31fc6cf20260707645068bd3fe97f3c4",
            "0x0000000000000000000000000000000000000000000000000000000000001010",
            "0x000000000000000000000000303b63e785b656ca56ea5a5c1634ab20c98895e1",
            "0x0000000000000000000000001a44076050125825900e736c501f859c50fe728c"
          ],
          "data": "0x000000000000000000000000000000000000000000000000064cdcbb09afe888000000000000000000000000000000000000000000000000064cdcbb09afe88800000000000000000000000000000000000000000000000000000000000000000000000000000000000000000000000000000000000000000000000000000000000000000000000000000000000000000000000000000000064cdcbb09afe888",
          "blockHash": "0x5c2d0c505e0d9dfdaadc4d632e412e8fb3b13616c0fc5c40214f16bb99ff2ef8",
          "blockNumber": "0x3be1e73",
          "transactionHash": "0xd85ead7a2ac6dcebb0dc1d8d16f90f15bc31e305a9ef0c9f52c293f0af8eeeaf",
          "transactionIndex": "0x26",
          "logIndex": "0x177",
          "removed": false
        },
        {
          "address": "0x6c26c61a97006888ea9e4fa36584c7df57cd9da3",
          "topics": [
            "0x61ed099e74a97a1d7f8bb0952a88ca8b7b8ebd00c126ea04671f92a81213318a"
          ],
          "data": "0x000000000000000000000000cd3f213ad101472e1713c72b1697e727c803885b0000000000000000000000000000000000000000000000000265e8c9565192e0",
          "blockHash": "0x5c2d0c505e0d9dfdaadc4d632e412e8fb3b13616c0fc5c40214f16bb99ff2ef8",
          "blockNumber": "0x3be1e73",
          "transactionHash": "0xd85ead7a2ac6dcebb0dc1d8d16f90f15bc31e305a9ef0c9f52c293f0af8eeeaf",
          "transactionIndex": "0x26",
          "logIndex": "0x178",
          "removed": false
        },
        {
          "address": "0x6c26c61a97006888ea9e4fa36584c7df57cd9da3",
          "topics": [
            "0x07ea52d82345d6e838192107d8fd7123d9c2ec8e916cd0aad13fd2b60db24644"
          ],
          "data": "0x000000000000000000000000000000000000000000000000000000000000006000000000000000000000000000000000000000000000000000000000000000c000000000000000000000000000000000000000000000000000000000000000e0000000000000000000000000000000000000000000000000000000000000000200000000000000000000000023de2fe932d9043291f870324b74f820e11dc81a000000000000000000000000d56e4eab23cb81f43168f9f45211eb027b9ac7cc00000000000000000000000000000000000000000000000000000000000000000000000000000000000000000000000000000000000000000000000000000002000000000000000000000000000000000000000000000000001373b19139f40400000000000000000000000000000000000000000000000003d38040222461a4",
          "blockHash": "0x5c2d0c505e0d9dfdaadc4d632e412e8fb3b13616c0fc5c40214f16bb99ff2ef8",
          "blockNumber": "0x3be1e73",
          "transactionHash": "0xd85ead7a2ac6dcebb0dc1d8d16f90f15bc31e305a9ef0c9f52c293f0af8eeeaf",
          "transactionIndex": "0x26",
          "logIndex": "0x179",
          "removed": false
        },
        {
          "address": "0x1a44076050125825900e736c501f859c50fe728c",
          "topics": [
            "0x1ab700d4ced0c005b164c0f789fd09fcbb0156d4c2041b8a3bfbcd961cd1567f"
          ],
          "data": "0x000000000000000000000000000000000000000000000000000000000000006000000000000000000000000000000000000000000000000000000000000001200000000000000000000000006c26c61a97006888ea9e4fa36584c7df57cd9da300000000000000000000000000000000000000000000000000000000000000990100000000000000060000759d000000000000000000000000303b63e785b656ca56ea5a5c1634ab20c98895e1000075e8000000000000000000000000474f4cb764df9da079d94052fed39625c147c12c0d454f8be01bfa574d12b0df29bb42ae6e542cf6e3e96228b81c6c82f2f21ff500000000000000000000000021af1185734d213d45c6236146fb81e2b0e8b821000000e8d4a5100000000000000000000000000000000000000000000000000000000000000000000000000000002a0003010011010000000000000000000000000001adb0010011010000000000000000000000000007a12000000000000000000000000000000000000000000000",
          "blockHash": "0x5c2d0c505e0d9dfdaadc4d632e412e8fb3b13616c0fc5c40214f16bb99ff2ef8",
          "blockNumber": "0x3be1e73",
          "transactionHash": "0xd85ead7a2ac6dcebb0dc1d8d16f90f15bc31e305a9ef0c9f52c293f0af8eeeaf",
          "transactionIndex": "0x26",
          "logIndex": "0x17a",
          "removed": false
        },
        {
          "address": "0x0000000000000000000000000000000000001010",
          "topics": [
            "0xe6497e3ee548a3372136af2fcb0696db31fc6cf20260707645068bd3fe97f3c4",
            "0x0000000000000000000000000000000000000000000000000000000000001010",
            "0x0000000000000000000000001a44076050125825900e736c501f859c50fe728c",
            "0x0000000000000000000000006c26c61a97006888ea9e4fa36584c7df57cd9da3"
          ],
          "data": "0x000000000000000000000000000000000000000000000000064cdcbb09afe888000000000000000000000000000000000000000000000000064cdcbb09afe888000000000000000000000000000000000000000000000347e20868cfcb9af2fa0000000000000000000000000000000000000000000000000000000000000000000000000000000000000000000000000000000000000347e855458ad54adb82",
          "blockHash": "0x5c2d0c505e0d9dfdaadc4d632e412e8fb3b13616c0fc5c40214f16bb99ff2ef8",
          "blockNumber": "0x3be1e73",
          "transactionHash": "0xd85ead7a2ac6dcebb0dc1d8d16f90f15bc31e305a9ef0c9f52c293f0af8eeeaf",
          "transactionIndex": "0x26",
          "logIndex": "0x17b",
          "removed": false
        },
        {
          "address": "0x303b63e785b656ca56ea5a5c1634ab20c98895e1",
          "topics": [
            "0x85496b760a4b7f8d66384b9df21b381f5d1b1e79f229a47aaf4c232edc2fe59a",
            "0x0d454f8be01bfa574d12b0df29bb42ae6e542cf6e3e96228b81c6c82f2f21ff5",
            "0x00000000000000000000000021af1185734d213d45c6236146fb81e2b0e8b821"
          ],
          "data": "0x00000000000000000000000000000000000000000000000000000000000075e800000000000000000000000000000000000000000000d3c21bcecceda100000000000000000000000000000000000000000000000000d3c21bcecceda1000000",
          "blockHash": "0x5c2d0c505e0d9dfdaadc4d632e412e8fb3b13616c0fc5c40214f16bb99ff2ef8",
          "blockNumber": "0x3be1e73",
          "transactionHash": "0xd85ead7a2ac6dcebb0dc1d8d16f90f15bc31e305a9ef0c9f52c293f0af8eeeaf",
          "transactionIndex": "0x26",
          "logIndex": "0x17c",
          "removed": false
        },
        {
          "address": "0x0000000000000000000000000000000000001010",
          "topics": [
            "0x4dfe1bbbcf077ddc3e01291eea2d5c70c2b422b415d95645b9adcfd678cb1d63",
            "0x0000000000000000000000000000000000000000000000000000000000001010",
            "0x00000000000000000000000021af1185734d213d45c6236146fb81e2b0e8b821",
            "0x000000000000000000000000aa6ac02fddaaf6f120f5bb98ce30809d19cd5d1b"
          ],
          "data": "0x000000000000000000000000000000000000000000000000001d5b4f30919400000000000000000000000000000000000000000000000000082f84b85a2b9c9d0000000000000000000000000000000000000000000023b093b13c589d2ef88c00000000000000000000000000000000000000000000000008122969299a089d0000000000000000000000000000000000000000000023b093ce97a7cdc08c8c",
          "blockHash": "0x5c2d0c505e0d9dfdaadc4d632e412e8fb3b13616c0fc5c40214f16bb99ff2ef8",
          "blockNumber": "0x3be1e73",
          "transactionHash": "0xd85ead7a2ac6dcebb0dc1d8d16f90f15bc31e305a9ef0c9f52c293f0af8eeeaf",
          "transactionIndex": "0x26",
          "logIndex": "0x17d",
          "removed": false
        }
      ],
      "logsBloom": "0x400200000000000000000480000804000000000000000400000000040010000000000040000010000000001000020000000080000000000000000000000000000000820420100000004000080000008000000000000000000101000000000000000000000000020180000000000008000000000000100000802040100000000000000000000000000000000800000000000000000000000000000100000000002000000080000000001000000000000000000000004000000004c0080000004000000002000000000001000080000000000000000000801000188000000000000000040000000000000000000000002000000000018000000000000000100000",
      "type": "0x2",
      "transactionHash": "0xd85ead7a2ac6dcebb0dc1d8d16f90f15bc31e305a9ef0c9f52c293f0af8eeeaf",
      "transactionIndex": "0x26",
      "blockHash": "0x5c2d0c505e0d9dfdaadc4d632e412e8fb3b13616c0fc5c40214f16bb99ff2ef8",
      "blockNumber": "0x3be1e73",
      "gasUsed": "0x433ef",
      "effectiveGasPrice": "0x6fc23ac22",
      "from": "0x21af1185734d213d45c6236146fb81e2b0e8b821",
      "to": "0x303b63e785b656ca56ea5a5c1634ab20c98895e1",
      "contractAddress": null
    }
  ],
  "libraries": [],
  "pending": [],
  "returns": {},
  "timestamp": 1728405340,
  "chain": 137,
  "commit": "9bc9372"
}