{
  "transactions": [
    {
      "hash": "0xc594f32d1d75b8678ce7449ef6ce8d8cd8d197fd788db1f9938e5b4c8e3fcc34",
      "transactionType": "CALL",
      "contractName": null,
      "contractAddress": "0x3d2bD0e15829AA5C362a4144FdF4A1112fa29B5c",
      "function": "approve(address,uint256)",
      "arguments": [
        "0x303b63e785B656ca56ea5A5C1634Ab20C98895e1",
        "500000000000000000000000"
      ],
      "transaction": {
        "from": "0x21aF1185734D213D45C6236146fb81E2b0E8b821",
        "to": "0x3d2bD0e15829AA5C362a4144FdF4A1112fa29B5c",
        "gas": "0xf94b",
        "value": "0x0",
        "input": "0x095ea7b3000000000000000000000000303b63e785b656ca56ea5a5c1634ab20c98895e10000000000000000000000000000000000000000000069e10de76676d0800000",
        "nonce": "0x99",
        "chainId": "0x89"
      },
      "additionalContracts": [],
      "isFixedGasLimit": false
    },
    {
      "hash": "0x4523c4a0dcc82a9b1c6729b585d2fd2cbcb30e6cc30bd41a537cb37e00f32d29",
      "transactionType": "CALL",
      "contractName": "BonsaiOFTAdapter",
      "contractAddress": "0x303b63e785B656ca56ea5A5C1634Ab20C98895e1",
      "function": "send((uint32,bytes32,uint256,uint256,bytes,bytes,bytes),(uint256,uint256),address)",
      "arguments": [
        "(30184, 0x00000000000000000000000021af1185734d213d45c6236146fb81e2b0e8b821, 500000000000000000000000, 500000000000000000000000, 0x0003010011010000000000000000000000000007a120, 0x, 0x)",
        "(431714629220150087, 0)",
        "0x5b73C5498c1E3b4dbA84de0F1833c4a029d90519"
      ],
      "transaction": {
        "from": "0x21aF1185734D213D45C6236146fb81E2b0E8b821",
        "to": "0x303b63e785B656ca56ea5A5C1634Ab20C98895e1",
        "gas": "0x5d32d",
        "value": "0x5fdc22aff01ab47",
        "input": "0xc7c7f5b3000000000000000000000000000000000000000000000000000000000000008000000000000000000000000000000000000000000000000005fdc22aff01ab4700000000000000000000000000000000000000000000000000000000000000000000000000000000000000005b73c5498c1e3b4dba84de0f1833c4a029d9051900000000000000000000000000000000000000000000000000000000000075e800000000000000000000000021af1185734d213d45c6236146fb81e2b0e8b8210000000000000000000000000000000000000000000069e10de76676d08000000000000000000000000000000000000000000000000069e10de76676d080000000000000000000000000000000000000000000000000000000000000000000e00000000000000000000000000000000000000000000000000000000000000120000000000000000000000000000000000000000000000000000000000000014000000000000000000000000000000000000000000000000000000000000000160003010011010000000000000000000000000007a1200000000000000000000000000000000000000000000000000000000000000000000000000000000000000000000000000000000000000000000000000000000000000000000000000000",
        "nonce": "0x9a",
        "chainId": "0x89"
      },
      "additionalContracts": [],
      "isFixedGasLimit": false
    }
  ],
  "receipts": [
    {
      "status": "0x1",
      "cumulativeGasUsed": "0xff733d",
      "logs": [
        {
          "address": "0x3d2bD0e15829AA5C362a4144FdF4A1112fa29B5c",
          "topics": [
            "0x8c5be1e5ebec7d5bd14f71427d1e84f3dd0314c0f7b2291e5b200ac8c7c3b925",
            "0x00000000000000000000000021af1185734d213d45c6236146fb81e2b0e8b821",
            "0x000000000000000000000000303b63e785b656ca56ea5a5c1634ab20c98895e1"
          ],
          "data": "0x0000000000000000000000000000000000000000000069e10de76676d0800000",
          "blockHash": "0x4698896d0fc672baae043e8f90524f31ff708494c989954ff893641c1fee68de",
          "blockNumber": "0x3d92951",
          "transactionHash": "0xc594f32d1d75b8678ce7449ef6ce8d8cd8d197fd788db1f9938e5b4c8e3fcc34",
          "transactionIndex": "0x7f",
          "logIndex": "0x3f2",
          "removed": false
        },
        {
          "address": "0x0000000000000000000000000000000000001010",
          "topics": [
            "0x4dfe1bbbcf077ddc3e01291eea2d5c70c2b422b415d95645b9adcfd678cb1d63",
            "0x0000000000000000000000000000000000000000000000000000000000001010",
            "0x00000000000000000000000021af1185734d213d45c6236146fb81e2b0e8b821",
            "0x00000000000000000000000067b94473d81d0cd00849d563c94d0432ac988b49"
          ],
          "data": "0x00000000000000000000000000000000000000000000000000053e28962111da0000000000000000000000000000000000000000000000029df8eec12cd1bf6800000000000000000000000000000000000000000000169fcf133458cdd887b30000000000000000000000000000000000000000000000029df3b09896b0ad8e00000000000000000000000000000000000000000000169fcf18728163f9998d",
          "blockHash": "0x4698896d0fc672baae043e8f90524f31ff708494c989954ff893641c1fee68de",
          "blockNumber": "0x3d92951",
          "transactionHash": "0xc594f32d1d75b8678ce7449ef6ce8d8cd8d197fd788db1f9938e5b4c8e3fcc34",
          "transactionIndex": "0x7f",
          "logIndex": "0x3f3",
          "removed": false
        }
      ],
      "logsBloom": "0x40000000000000000000000000080000000000000000000000000000000000000000000000001000000000000000000000008000000000000000000000200000000000042000000000000000000000800000000000000000000100000000000000000000000000000000000000000800000000000000000080004000000000000000000000000000000000000000000000000000000000000000000000000000220000000000000000000000000000000000000000000000000080080000004000800000000000000001000000008000000000000000000000100000000000000010020000000000000000000000000000000000000000000000000000100000",
      "type": "0x2",
      "transactionHash": "0xc594f32d1d75b8678ce7449ef6ce8d8cd8d197fd788db1f9938e5b4c8e3fcc34",
      "transactionIndex": "0x7f",
      "blockHash": "0x4698896d0fc672baae043e8f90524f31ff708494c989954ff893641c1fee68de",
      "blockNumber": "0x3d92951",
      "gasUsed": "0xb47d",
      "effectiveGasPrice": "0x8e0d2c64f",
      "from": "0x21aF1185734D213D45C6236146fb81E2b0E8b821",
      "to": "0x3d2bD0e15829AA5C362a4144FdF4A1112fa29B5c",
      "contractAddress": null
    },
    {
      "status": "0x1",
      "cumulativeGasUsed": "0x103aad3",
      "logs": [
        {
          "address": "0x0000000000000000000000000000000000001010",
          "topics": [
            "0xe6497e3ee548a3372136af2fcb0696db31fc6cf20260707645068bd3fe97f3c4",
            "0x0000000000000000000000000000000000000000000000000000000000001010",
            "0x00000000000000000000000021af1185734d213d45c6236146fb81e2b0e8b821",
            "0x000000000000000000000000303b63e785b656ca56ea5a5c1634ab20c98895e1"
          ],
          "data": "0x00000000000000000000000000000000000000000000000005fdc22aff01ab470000000000000000000000000000000000000000000000029dbef55c146c65f2000000000000000000000000000000000000000000000000000000000000000000000000000000000000000000000000000000000000000297c13331156abaab00000000000000000000000000000000000000000000000005fdc22aff01ab47",
          "blockHash": "0x4698896d0fc672baae043e8f90524f31ff708494c989954ff893641c1fee68de",
          "blockNumber": "0x3d92951",
          "transactionHash": "0x4523c4a0dcc82a9b1c6729b585d2fd2cbcb30e6cc30bd41a537cb37e00f32d29",
          "transactionIndex": "0x80",
          "logIndex": "0x3f4",
          "removed": false
        },
        {
          "address": "0x3d2bD0e15829AA5C362a4144FdF4A1112fa29B5c",
          "topics": [
            "0xddf252ad1be2c89b69c2b068fc378daa952ba7f163c4a11628f55a4df523b3ef",
            "0x00000000000000000000000021af1185734d213d45c6236146fb81e2b0e8b821",
            "0x000000000000000000000000303b63e785b656ca56ea5a5c1634ab20c98895e1"
          ],
          "data": "0x0000000000000000000000000000000000000000000069e10de76676d0800000",
          "blockHash": "0x4698896d0fc672baae043e8f90524f31ff708494c989954ff893641c1fee68de",
          "blockNumber": "0x3d92951",
          "transactionHash": "0x4523c4a0dcc82a9b1c6729b585d2fd2cbcb30e6cc30bd41a537cb37e00f32d29",
          "transactionIndex": "0x80",
          "logIndex": "0x3f5",
          "removed": false
        },
        {
          "address": "0x0000000000000000000000000000000000001010",
          "topics": [
            "0xe6497e3ee548a3372136af2fcb0696db31fc6cf20260707645068bd3fe97f3c4",
            "0x0000000000000000000000000000000000000000000000000000000000001010",
            "0x000000000000000000000000303b63e785b656ca56ea5a5c1634ab20c98895e1",
            "0x0000000000000000000000001a44076050125825900e736c501f859c50fe728c"
          ],
          "data": "0x00000000000000000000000000000000000000000000000005fdc22aff01ab4700000000000000000000000000000000000000000000000005fdc22aff01ab470000000000000000000000000000000000000000000000000000000000000000000000000000000000000000000000000000000000000000000000000000000000000000000000000000000000000000000000000000000005fdc22aff01ab47",
          "blockHash": "0x4698896d0fc672baae043e8f90524f31ff708494c989954ff893641c1fee68de",
          "blockNumber": "0x3d92951",
          "transactionHash": "0x4523c4a0dcc82a9b1c6729b585d2fd2cbcb30e6cc30bd41a537cb37e00f32d29",
          "transactionIndex": "0x80",
          "logIndex": "0x3f6",
          "removed": false
        },
        {
          "address": "0x6c26c61a97006888ea9E4FA36584c7df57Cd9dA3",
          "topics": [
            "0x61ed099e74a97a1d7f8bb0952a88ca8b7b8ebd00c126ea04671f92a81213318a"
          ],
          "data": "0x000000000000000000000000cd3f213ad101472e1713c72b1697e727c803885b00000000000000000000000000000000000000000000000002ad110f82f56fc8",
          "blockHash": "0x4698896d0fc672baae043e8f90524f31ff708494c989954ff893641c1fee68de",
          "blockNumber": "0x3d92951",
          "transactionHash": "0x4523c4a0dcc82a9b1c6729b585d2fd2cbcb30e6cc30bd41a537cb37e00f32d29",
          "transactionIndex": "0x80",
          "logIndex": "0x3f7",
          "removed": false
        },
        {
          "address": "0x6c26c61a97006888ea9E4FA36584c7df57Cd9dA3",
          "topics": [
            "0x07ea52d82345d6e838192107d8fd7123d9c2ec8e916cd0aad13fd2b60db24644"
          ],
          "data": "0x000000000000000000000000000000000000000000000000000000000000006000000000000000000000000000000000000000000000000000000000000000c000000000000000000000000000000000000000000000000000000000000000e0000000000000000000000000000000000000000000000000000000000000000200000000000000000000000023de2fe932d9043291f870324b74f820e11dc81a000000000000000000000000d56e4eab23cb81f43168f9f45211eb027b9ac7cc00000000000000000000000000000000000000000000000000000000000000000000000000000000000000000000000000000000000000000000000000000002000000000000000000000000000000000000000000000000002c519927bf999900000000000000000000000000000000000000000000000003245f82544ca1e6",
          "blockHash": "0x4698896d0fc672baae043e8f90524f31ff708494c989954ff893641c1fee68de",
          "blockNumber": "0x3d92951",
          "transactionHash": "0x4523c4a0dcc82a9b1c6729b585d2fd2cbcb30e6cc30bd41a537cb37e00f32d29",
          "transactionIndex": "0x80",
          "logIndex": "0x3f8",
          "removed": false
        },
        {
          "address": "0x1a44076050125825900e736c501f859c50fE728c",
          "topics": [
            "0x1ab700d4ced0c005b164c0f789fd09fcbb0156d4c2041b8a3bfbcd961cd1567f"
          ],
          "data": "0x000000000000000000000000000000000000000000000000000000000000006000000000000000000000000000000000000000000000000000000000000001200000000000000000000000006c26c61a97006888ea9e4fa36584c7df57cd9da300000000000000000000000000000000000000000000000000000000000000990100000000000000d00000759d000000000000000000000000303b63e785b656ca56ea5a5c1634ab20c98895e1000075e8000000000000000000000000474f4cb764df9da079d94052fed39625c147c12ca2daf731e009d5081cd83b744b3673276f906e6d89943037cf266ba7aef4701100000000000000000000000021af1185734d213d45c6236146fb81e2b0e8b821000000746a52880000000000000000000000000000000000000000000000000000000000000000000000000000002a0003010011010000000000000000000000000001adb0010011010000000000000000000000000007a12000000000000000000000000000000000000000000000",
          "blockHash": "0x4698896d0fc672baae043e8f90524f31ff708494c989954ff893641c1fee68de",
          "blockNumber": "0x3d92951",
          "transactionHash": "0x4523c4a0dcc82a9b1c6729b585d2fd2cbcb30e6cc30bd41a537cb37e00f32d29",
          "transactionIndex": "0x80",
          "logIndex": "0x3f9",
          "removed": false
        },
        {
          "address": "0x0000000000000000000000000000000000001010",
          "topics": [
            "0xe6497e3ee548a3372136af2fcb0696db31fc6cf20260707645068bd3fe97f3c4",
            "0x0000000000000000000000000000000000000000000000000000000000001010",
            "0x0000000000000000000000001a44076050125825900e736c501f859c50fe728c",
            "0x0000000000000000000000006c26c61a97006888ea9e4fa36584c7df57cd9da3"
          ],
          "data": "0x00000000000000000000000000000000000000000000000005fdc22aff01ab4700000000000000000000000000000000000000000000000005fdc22aff01ab47000000000000000000000000000000000000000000000e39150fc1719f19c9830000000000000000000000000000000000000000000000000000000000000000000000000000000000000000000000000000000000000e391b0d839c9e1b74ca",
          "blockHash": "0x4698896d0fc672baae043e8f90524f31ff708494c989954ff893641c1fee68de",
          "blockNumber": "0x3d92951",
          "transactionHash": "0x4523c4a0dcc82a9b1c6729b585d2fd2cbcb30e6cc30bd41a537cb37e00f32d29",
          "transactionIndex": "0x80",
          "logIndex": "0x3fa",
          "removed": false
        },
        {
          "address": "0x303b63e785B656ca56ea5A5C1634Ab20C98895e1",
          "topics": [
            "0x85496b760a4b7f8d66384b9df21b381f5d1b1e79f229a47aaf4c232edc2fe59a",
            "0xa2daf731e009d5081cd83b744b3673276f906e6d89943037cf266ba7aef47011",
            "0x00000000000000000000000021af1185734d213d45c6236146fb81e2b0e8b821"
          ],
          "data": "0x00000000000000000000000000000000000000000000000000000000000075e80000000000000000000000000000000000000000000069e10de76676d08000000000000000000000000000000000000000000000000069e10de76676d0800000",
          "blockHash": "0x4698896d0fc672baae043e8f90524f31ff708494c989954ff893641c1fee68de",
          "blockNumber": "0x3d92951",
          "transactionHash": "0x4523c4a0dcc82a9b1c6729b585d2fd2cbcb30e6cc30bd41a537cb37e00f32d29",
          "transactionIndex": "0x80",
          "logIndex": "0x3fb",
          "removed": false
        },
        {
          "address": "0x0000000000000000000000000000000000001010",
          "topics": [
            "0x4dfe1bbbcf077ddc3e01291eea2d5c70c2b422b415d95645b9adcfd678cb1d63",
            "0x0000000000000000000000000000000000000000000000000000000000001010",
            "0x00000000000000000000000021af1185734d213d45c6236146fb81e2b0e8b821",
            "0x00000000000000000000000067b94473d81d0cd00849d563c94d0432ac988b49"
          ],
          "data": "0x000000000000000000000000000000000000000000000000001f5c161396736c0000000000000000000000000000000000000000000000029df2ac5732775ed500000000000000000000000000000000000000000000169fcf18728163f9998d0000000000000000000000000000000000000000000000029dd350411ee0eb6900000000000000000000000000000000000000000000169fcf37ce9777900cf9",
          "blockHash": "0x4698896d0fc672baae043e8f90524f31ff708494c989954ff893641c1fee68de",
          "blockNumber": "0x3d92951",
          "transactionHash": "0x4523c4a0dcc82a9b1c6729b585d2fd2cbcb30e6cc30bd41a537cb37e00f32d29",
          "transactionIndex": "0x80",
          "logIndex": "0x3fc",
          "removed": false
        }
      ],
      "logsBloom": "0x400000000000000000000480000800000000000000000000000000040010000000000040000010000000001000020000000080000000000000000000000000000000820420100000004000080000008000000000000000000001000000000000000000000000000080000000000008000000000000100000802040100000000000000000000000000000000820000000000000000000000000000100000000002000000080000000001000000000000000000000004000000004c0080000004000800002000000000001000084008000000000000000805000188000000000000000060000000000000000000000002000000000018000000000000000100000",
      "type": "0x2",
      "transactionHash": "0x4523c4a0dcc82a9b1c6729b585d2fd2cbcb30e6cc30bd41a537cb37e00f32d29",
      "transactionIndex": "0x80",
      "blockHash": "0x4698896d0fc672baae043e8f90524f31ff708494c989954ff893641c1fee68de",
      "blockNumber": "0x3d92951",
      "gasUsed": "0x43796",
      "effectiveGasPrice": "0x8e0d2c64f",
      "from": "0x21aF1185734D213D45C6236146fb81E2b0E8b821",
      "to": "0x303b63e785B656ca56ea5A5C1634Ab20C98895e1",
      "contractAddress": null
    }
  ],
  "libraries": [],
  "pending": [],
  "returns": {},
  "timestamp": 1732211246,
  "chain": 137,
  "commit": "9bc9372"
}