{
  "transactions": [
    {
      "hash": "0x610a9dd8e9df1a4bc58d44f2f73a2448a73557953d0c2203ff6597f542177ca7",
      "transactionType": "CALL",
      "contractName": null,
      "contractAddress": "0x303b63e785b656ca56ea5a5c1634ab20c98895e1",
      "function": "setPeer(uint32,bytes32)",
      "arguments": [
        "30373",
        "0x000000000000000000000000b0588f9a9cade7cd5f194a5fe77acd6a58250f82"
      ],
      "transaction": {
        "from": "0x21af1185734d213d45c6236146fb81e2b0e8b821",
        "to": "0x303b63e785b656ca56ea5a5c1634ab20c98895e1",
        "gas": "0x961a",
        "value": "0x0",
        "input": "0x3400288b00000000000000000000000000000000000000000000000000000000000076a5000000000000000000000000b0588f9a9cade7cd5f194a5fe77acd6a58250f82",
        "nonce": "0x13b",
        "chainId": "0x89"
      },
      "additionalContracts": [],
      "isFixedGasLimit": false
    }
  ],
  "receipts": [
    {
      "status": "0x1",
      "cumulativeGasUsed": "0x10a48e5",
      "logs": [
        {
          "address": "0x303b63e785b656ca56ea5a5c1634ab20c98895e1",
          "topics": [
            "0x238399d427b947898edb290f5ff0f9109849b1c3ba196a42e35f00c50a54b98b"
          ],
          "data": "0x00000000000000000000000000000000000000000000000000000000000076a5000000000000000000000000b0588f9a9cade7cd5f194a5fe77acd6a58250f82",
          "blockHash": "0x5eeee4249d16d35f69474eb8b52488c87328ac625b98f1f3e70538e405875827",
          "blockNumber": "0x42a04d7",
          "transactionHash": "0x610a9dd8e9df1a4bc58d44f2f73a2448a73557953d0c2203ff6597f542177ca7",
          "transactionIndex": "0x33",
          "logIndex": "0x12d",
          "removed": false
        },
        {
          "address": "0x0000000000000000000000000000000000001010",
          "topics": [
            "0x4dfe1bbbcf077ddc3e01291eea2d5c70c2b422b415d95645b9adcfd678cb1d63",
            "0x0000000000000000000000000000000000000000000000000000000000001010",
            "0x00000000000000000000000021af1185734d213d45c6236146fb81e2b0e8b821",
            "0x000000000000000000000000a8b52f02108aa5f4b675bdcc973760022d7c6020"
          ],
          "data": "0x000000000000000000000000000000000000000000000000000291e11d6134000000000000000000000000000000000000000000000000000780892fad97d86e000000000000000000000000000000000000000000000083f16d9c9778232c5b000000000000000000000000000000000000000000000000077df74e9036a46e000000000000000000000000000000000000000000000083f1702e789584605b",
          "blockHash": "0x5eeee4249d16d35f69474eb8b52488c87328ac625b98f1f3e70538e405875827",
          "blockNumber": "0x42a04d7",
          "transactionHash": "0x610a9dd8e9df1a4bc58d44f2f73a2448a73557953d0c2203ff6597f542177ca7",
          "transactionIndex": "0x33",
          "logIndex": "0x12e",
          "removed": false
        }
      ],
      "logsBloom": "0x00000000000000000000040000080000000000000000000000000000000000000000000000000000000000000002000000008000000000000800000000000000000000000010000000400000000000800000000000000000000100000000000000000000000000000000000000000000000000000000000080004000000000000000000000000000000000000000000000000000000000040000000000000000200000000000004000000000000000000000000000000000000082000000004000000000000000000001000000000000000000000000000000140000000000000000000000000000000000000000000000000000000000000000000000100000",
      "type": "0x2",
      "transactionHash": "0x610a9dd8e9df1a4bc58d44f2f73a2448a73557953d0c2203ff6597f542177ca7",
      "transactionIndex": "0x33",
      "blockHash": "0x5eeee4249d16d35f69474eb8b52488c87328ac625b98f1f3e70538e405875827",
      "blockNumber": "0x42a04d7",
      "gasUsed": "0x6cad",
      "effectiveGasPrice": "0x91c3f542a",
      "from": "0x21af1185734d213d45c6236146fb81e2b0e8b821",
      "to": "0x303b63e785b656ca56ea5a5c1634ab20c98895e1",
      "contractAddress": null
    }
  ],
  "libraries": [],
  "pending": [],
  "returns": {},
  "timestamp": 1743719385,
  "chain": 137,
  "commit": "d4c7a91"
}