{
  "transactions": [
    {
      "hash": "0xe2810d5ad5487079bae31656a95f2c1b8b756b6030c27375adfd633797b3f767",
      "transactionType": "CALL",
      "contractName": null,
      "contractAddress": "0x3d2bD0e15829AA5C362a4144FdF4A1112fa29B5c",
      "function": "approve(address,uint256)",
      "arguments": [
        "0x303b63e785B656ca56ea5A5C1634Ab20C98895e1",
        "500000000000000000000000"
      ],
      "transaction": {
        "from": "0x21aF1185734D213D45C6236146fb81E2b0E8b821",
        "to": "0x3d2bD0e15829AA5C362a4144FdF4A1112fa29B5c",
        "gas": "0xf94b",
        "value": "0x0",
        "input": "0x095ea7b3000000000000000000000000303b63e785b656ca56ea5a5c1634ab20c98895e10000000000000000000000000000000000000000000069e10de76676d0800000",
        "nonce": "0x12c",
        "chainId": "0x89"
      },
      "additionalContracts": [],
      "isFixedGasLimit": false
    },
    {
      "hash": "0xd415af3ee46a1db76c00bb247ff3f299a9c0059e342f16dcdb1b7d996c8efede",
      "transactionType": "CALL",
      "contractName": "BonsaiOFTAdapter",
      "contractAddress": "0x303b63e785B656ca56ea5A5C1634Ab20C98895e1",
      "function": "send((uint32,bytes32,uint256,uint256,bytes,bytes,bytes),(uint256,uint256),address)",
      "arguments": [
        "(30184, 0x00000000000000000000000021af1185734d213d45c6236146fb81e2b0e8b821, 500000000000000000000000, 500000000000000000000000, 0x0003010011010000000000000000000000000007a120, 0x, 0x)",
        "(492311588227994908, 0)",
        "0x5b73C5498c1E3b4dbA84de0F1833c4a029d90519"
      ],
      "transaction": {
        "from": "0x21aF1185734D213D45C6236146fb81E2b0E8b821",
        "to": "0x303b63e785B656ca56ea5A5C1634Ab20C98895e1",
        "gas": "0x5d32d",
        "value": "0x6d50ac7f723551c",
        "input": "0xc7c7f5b3000000000000000000000000000000000000000000000000000000000000008000000000000000000000000000000000000000000000000006d50ac7f723551c00000000000000000000000000000000000000000000000000000000000000000000000000000000000000005b73c5498c1e3b4dba84de0f1833c4a029d9051900000000000000000000000000000000000000000000000000000000000075e800000000000000000000000021af1185734d213d45c6236146fb81e2b0e8b8210000000000000000000000000000000000000000000069e10de76676d08000000000000000000000000000000000000000000000000069e10de76676d080000000000000000000000000000000000000000000000000000000000000000000e00000000000000000000000000000000000000000000000000000000000000120000000000000000000000000000000000000000000000000000000000000014000000000000000000000000000000000000000000000000000000000000000160003010011010000000000000000000000000007a1200000000000000000000000000000000000000000000000000000000000000000000000000000000000000000000000000000000000000000000000000000000000000000000000000000",
        "nonce": "0x12d",
        "chainId": "0x89"
      },
      "additionalContracts": [],
      "isFixedGasLimit": false
    },
    {
      "hash": "0x2e5a5850e8fa9ab51cc9b322ca8420c3ba1c826277217705e7c2c97b59609d1b",
      "transactionType": "CALL",
      "contractName": null,
      "contractAddress": "0x3d2bD0e15829AA5C362a4144FdF4A1112fa29B5c",
      "function": "approve(address,uint256)",
      "arguments": [
        "0x303b63e785B656ca56ea5A5C1634Ab20C98895e1",
        "500000000000000000000000"
      ],
      "transaction": {
        "from": "0x21aF1185734D213D45C6236146fb81E2b0E8b821",
        "to": "0x3d2bD0e15829AA5C362a4144FdF4A1112fa29B5c",
        "gas": "0xf94b",
        "value": "0x0",
        "input": "0x095ea7b3000000000000000000000000303b63e785b656ca56ea5a5c1634ab20c98895e10000000000000000000000000000000000000000000069e10de76676d0800000",
        "nonce": "0x12e",
        "chainId": "0x89"
      },
      "additionalContracts": [],
      "isFixedGasLimit": false
    },
    {
      "hash": "0x2f7864ca85843f98ca1bea4c0a370c73da5b013e602359551b9f7cae7808844e",
      "transactionType": "CALL",
      "contractName": "BonsaiOFTAdapter",
      "contractAddress": "0x303b63e785B656ca56ea5A5C1634Ab20C98895e1",
      "function": "send((uint32,bytes32,uint256,uint256,bytes,bytes,bytes),(uint256,uint256),address)",
      "arguments": [
        "(30184, 0x00000000000000000000000021af1185734d213d45c6236146fb81e2b0e8b821, 500000000000000000000000, 500000000000000000000000, 0x0003010011010000000000000000000000000007a120, 0x, 0x)",
        "(492311588227994908, 0)",
        "0x5b73C5498c1E3b4dbA84de0F1833c4a029d90519"
      ],
      "transaction": {
        "from": "0x21aF1185734D213D45C6236146fb81E2b0E8b821",
        "to": "0x303b63e785B656ca56ea5A5C1634Ab20C98895e1",
        "gas": "0x5d32d",
        "value": "0x6d50ac7f723551c",
        "input": "0xc7c7f5b3000000000000000000000000000000000000000000000000000000000000008000000000000000000000000000000000000000000000000006d50ac7f723551c00000000000000000000000000000000000000000000000000000000000000000000000000000000000000005b73c5498c1e3b4dba84de0f1833c4a029d9051900000000000000000000000000000000000000000000000000000000000075e800000000000000000000000021af1185734d213d45c6236146fb81e2b0e8b8210000000000000000000000000000000000000000000069e10de76676d08000000000000000000000000000000000000000000000000069e10de76676d080000000000000000000000000000000000000000000000000000000000000000000e00000000000000000000000000000000000000000000000000000000000000120000000000000000000000000000000000000000000000000000000000000014000000000000000000000000000000000000000000000000000000000000000160003010011010000000000000000000000000007a1200000000000000000000000000000000000000000000000000000000000000000000000000000000000000000000000000000000000000000000000000000000000000000000000000000",
        "nonce": "0x12f",
        "chainId": "0x89"
      },
      "additionalContracts": [],
      "isFixedGasLimit": false
    },
    {
      "hash": "0x0be8f7a002bdab6e650eab538308e8d2ea01ab869271cbe070bb726ba429d1c8",
      "transactionType": "CALL",
      "contractName": null,
      "contractAddress": "0x3d2bD0e15829AA5C362a4144FdF4A1112fa29B5c",
      "function": "approve(address,uint256)",
      "arguments": [
        "0x303b63e785B656ca56ea5A5C1634Ab20C98895e1",
        "500000000000000000000000"
      ],
      "transaction": {
        "from": "0x21aF1185734D213D45C6236146fb81E2b0E8b821",
        "to": "0x3d2bD0e15829AA5C362a4144FdF4A1112fa29B5c",
        "gas": "0xf94b",
        "value": "0x0",
        "input": "0x095ea7b3000000000000000000000000303b63e785b656ca56ea5a5c1634ab20c98895e10000000000000000000000000000000000000000000069e10de76676d0800000",
        "nonce": "0x130",
        "chainId": "0x89"
      },
      "additionalContracts": [],
      "isFixedGasLimit": false
    },
    {
      "hash": "0xd446ef99f18241f0496e9c8f1b9724e6a109f298d27536d910db4689945ec582",
      "transactionType": "CALL",
      "contractName": "BonsaiOFTAdapter",
      "contractAddress": "0x303b63e785B656ca56ea5A5C1634Ab20C98895e1",
      "function": "send((uint32,bytes32,uint256,uint256,bytes,bytes,bytes),(uint256,uint256),address)",
      "arguments": [
        "(30184, 0x00000000000000000000000021af1185734d213d45c6236146fb81e2b0e8b821, 500000000000000000000000, 500000000000000000000000, 0x0003010011010000000000000000000000000007a120, 0x, 0x)",
        "(492311588227994908, 0)",
        "0x5b73C5498c1E3b4dbA84de0F1833c4a029d90519"
      ],
      "transaction": {
        "from": "0x21aF1185734D213D45C6236146fb81E2b0E8b821",
        "to": "0x303b63e785B656ca56ea5A5C1634Ab20C98895e1",
        "gas": "0x5d32d",
        "value": "0x6d50ac7f723551c",
        "input": "0xc7c7f5b3000000000000000000000000000000000000000000000000000000000000008000000000000000000000000000000000000000000000000006d50ac7f723551c00000000000000000000000000000000000000000000000000000000000000000000000000000000000000005b73c5498c1e3b4dba84de0f1833c4a029d9051900000000000000000000000000000000000000000000000000000000000075e800000000000000000000000021af1185734d213d45c6236146fb81e2b0e8b8210000000000000000000000000000000000000000000069e10de76676d08000000000000000000000000000000000000000000000000069e10de76676d080000000000000000000000000000000000000000000000000000000000000000000e00000000000000000000000000000000000000000000000000000000000000120000000000000000000000000000000000000000000000000000000000000014000000000000000000000000000000000000000000000000000000000000000160003010011010000000000000000000000000007a1200000000000000000000000000000000000000000000000000000000000000000000000000000000000000000000000000000000000000000000000000000000000000000000000000000",
        "nonce": "0x131",
        "chainId": "0x89"
      },
      "additionalContracts": [],
      "isFixedGasLimit": false
    },
    {
      "hash": "0xbb5429b640a112caa0bfac077676abe747db50ed5c6567925557b8d7ad718044",
      "transactionType": "CALL",
      "contractName": null,
      "contractAddress": "0x3d2bD0e15829AA5C362a4144FdF4A1112fa29B5c",
      "function": "approve(address,uint256)",
      "arguments": [
        "0x303b63e785B656ca56ea5A5C1634Ab20C98895e1",
        "200000000000000000000000"
      ],
      "transaction": {
        "from": "0x21aF1185734D213D45C6236146fb81E2b0E8b821",
        "to": "0x3d2bD0e15829AA5C362a4144FdF4A1112fa29B5c",
        "gas": "0x107e5",
        "value": "0x0",
        "input": "0x095ea7b3000000000000000000000000303b63e785b656ca56ea5a5c1634ab20c98895e1000000000000000000000000000000000000000000002a5a058fc295ed000000",
        "nonce": "0x132",
        "chainId": "0x89"
      },
      "additionalContracts": [],
      "isFixedGasLimit": false
    },
    {
      "hash": "0x110ee5046cc2f6fbba5b39949e1d2a74fa2f8cdafb5252b91f8b33783ec0cb69",
      "transactionType": "CALL",
      "contractName": "BonsaiOFTAdapter",
      "contractAddress": "0x303b63e785B656ca56ea5A5C1634Ab20C98895e1",
      "function": "send((uint32,bytes32,uint256,uint256,bytes,bytes,bytes),(uint256,uint256),address)",
      "arguments": [
        "(30184, 0x00000000000000000000000021af1185734d213d45c6236146fb81e2b0e8b821, 200000000000000000000000, 200000000000000000000000, 0x0003010011010000000000000000000000000007a120, 0x, 0x)",
        "(492311588227994908, 0)",
        "0x5b73C5498c1E3b4dbA84de0F1833c4a029d90519"
      ],
      "transaction": {
        "from": "0x21aF1185734D213D45C6236146fb81E2b0E8b821",
        "to": "0x303b63e785B656ca56ea5A5C1634Ab20C98895e1",
        "gas": "0x5d30b",
        "value": "0x6d50ac7f723551c",
        "input": "0xc7c7f5b3000000000000000000000000000000000000000000000000000000000000008000000000000000000000000000000000000000000000000006d50ac7f723551c00000000000000000000000000000000000000000000000000000000000000000000000000000000000000005b73c5498c1e3b4dba84de0f1833c4a029d9051900000000000000000000000000000000000000000000000000000000000075e800000000000000000000000021af1185734d213d45c6236146fb81e2b0e8b821000000000000000000000000000000000000000000002a5a058fc295ed000000000000000000000000000000000000000000000000002a5a058fc295ed00000000000000000000000000000000000000000000000000000000000000000000e00000000000000000000000000000000000000000000000000000000000000120000000000000000000000000000000000000000000000000000000000000014000000000000000000000000000000000000000000000000000000000000000160003010011010000000000000000000000000007a1200000000000000000000000000000000000000000000000000000000000000000000000000000000000000000000000000000000000000000000000000000000000000000000000000000",
        "nonce": "0x133",
        "chainId": "0x89"
      },
      "additionalContracts": [],
      "isFixedGasLimit": false
    }
  ],
  "receipts": [
    {
      "status": "0x1",
      "cumulativeGasUsed": "0x3e8498",
      "logs": [
        {
          "address": "0x3d2bD0e15829AA5C362a4144FdF4A1112fa29B5c",
          "topics": [
            "0x8c5be1e5ebec7d5bd14f71427d1e84f3dd0314c0f7b2291e5b200ac8c7c3b925",
            "0x00000000000000000000000021af1185734d213d45c6236146fb81e2b0e8b821",
            "0x000000000000000000000000303b63e785b656ca56ea5a5c1634ab20c98895e1"
          ],
          "data": "0x0000000000000000000000000000000000000000000069e10de76676d0800000",
          "blockHash": "0x6fc8725b71036eb4ff151fadd861466621dc1375ed44a6671478c087a72a83f8",
          "blockNumber": "0x40bedf8",
          "transactionHash": "0xe2810d5ad5487079bae31656a95f2c1b8b756b6030c27375adfd633797b3f767",
          "transactionIndex": "0x27",
          "logIndex": "0xa3",
          "removed": false
        },
        {
          "address": "0x0000000000000000000000000000000000001010",
          "topics": [
            "0x4dfe1bbbcf077ddc3e01291eea2d5c70c2b422b415d95645b9adcfd678cb1d63",
            "0x0000000000000000000000000000000000000000000000000000000000001010",
            "0x00000000000000000000000021af1185734d213d45c6236146fb81e2b0e8b821",
            "0x000000000000000000000000f0245f6251bef9447a08766b9da2b07b28ad80b0"
          ],
          "data": "0x0000000000000000000000000000000000000000000000000004ecb2325afc00000000000000000000000000000000000000000000000000256e610576650b220000000000000000000000000000000000000000000009febe42f16e35d5c5c100000000000000000000000000000000000000000000000025697453440a0f220000000000000000000000000000000000000000000009febe47de206830c1c1",
          "blockHash": "0x6fc8725b71036eb4ff151fadd861466621dc1375ed44a6671478c087a72a83f8",
          "blockNumber": "0x40bedf8",
          "transactionHash": "0xe2810d5ad5487079bae31656a95f2c1b8b756b6030c27375adfd633797b3f767",
          "transactionIndex": "0x27",
          "logIndex": "0xa4",
          "removed": false
        }
      ],
      "logsBloom": "0x40000000000000000000000000080000000000000000000000000000000000000000000000009000000000000000000000008000000000000000000000200000000080042000000000000000000000800000000000000000000100000000000000000000000000000000000000000800000000000000000080004000000000000000000000000000000000000000000000000000000000000000000000080000220000000000000000000000000000000000000000000000000080080000004000000000000000000001000000000000000000000000000000100000000000000010000000000000000000000000000000000000000000000000000000100000",
      "type": "0x2",
      "transactionHash": "0xe2810d5ad5487079bae31656a95f2c1b8b756b6030c27375adfd633797b3f767",
      "transactionIndex": "0x27",
      "blockHash": "0x6fc8725b71036eb4ff151fadd861466621dc1375ed44a6671478c087a72a83f8",
      "blockNumber": "0x40bedf8",
      "gasUsed": "0xb47d",
      "effectiveGasPrice": "0x6fc23ac1b",
      "from": "0x21aF1185734D213D45C6236146fb81E2b0E8b821",
      "to": "0x3d2bD0e15829AA5C362a4144FdF4A1112fa29B5c",
      "contractAddress": null
    },
    {
      "status": "0x1",
      "cumulativeGasUsed": "0x42bc2e",
      "logs": [
        {
          "address": "0x0000000000000000000000000000000000001010",
          "topics": [
            "0xe6497e3ee548a3372136af2fcb0696db31fc6cf20260707645068bd3fe97f3c4",
            "0x0000000000000000000000000000000000000000000000000000000000001010",
            "0x00000000000000000000000021af1185734d213d45c6236146fb81e2b0e8b821",
            "0x000000000000000000000000303b63e785b656ca56ea5a5c1634ab20c98895e1"
          ],
          "data": "0x00000000000000000000000000000000000000000000000006d50ac7f723551c0000000000000000000000000000000000000000000000002540c4952e50843400000000000000000000000000000000000000000000000000000000000000000000000000000000000000000000000000000000000000001e6bb9cd372d2f1800000000000000000000000000000000000000000000000006d50ac7f723551c",
          "blockHash": "0x6fc8725b71036eb4ff151fadd861466621dc1375ed44a6671478c087a72a83f8",
          "blockNumber": "0x40bedf8",
          "transactionHash": "0xd415af3ee46a1db76c00bb247ff3f299a9c0059e342f16dcdb1b7d996c8efede",
          "transactionIndex": "0x28",
          "logIndex": "0xa5",
          "removed": false
        },
        {
          "address": "0x3d2bD0e15829AA5C362a4144FdF4A1112fa29B5c",
          "topics": [
            "0xddf252ad1be2c89b69c2b068fc378daa952ba7f163c4a11628f55a4df523b3ef",
            "0x00000000000000000000000021af1185734d213d45c6236146fb81e2b0e8b821",
            "0x000000000000000000000000303b63e785b656ca56ea5a5c1634ab20c98895e1"
          ],
          "data": "0x0000000000000000000000000000000000000000000069e10de76676d0800000",
          "blockHash": "0x6fc8725b71036eb4ff151fadd861466621dc1375ed44a6671478c087a72a83f8",
          "blockNumber": "0x40bedf8",
          "transactionHash": "0xd415af3ee46a1db76c00bb247ff3f299a9c0059e342f16dcdb1b7d996c8efede",
          "transactionIndex": "0x28",
          "logIndex": "0xa6",
          "removed": false
        },
        {
          "address": "0x0000000000000000000000000000000000001010",
          "topics": [
            "0xe6497e3ee548a3372136af2fcb0696db31fc6cf20260707645068bd3fe97f3c4",
            "0x0000000000000000000000000000000000000000000000000000000000001010",
            "0x000000000000000000000000303b63e785b656ca56ea5a5c1634ab20c98895e1",
            "0x0000000000000000000000001a44076050125825900e736c501f859c50fe728c"
          ],
          "data": "0x00000000000000000000000000000000000000000000000006d50ac7f723551c00000000000000000000000000000000000000000000000006d50ac7f723551c0000000000000000000000000000000000000000000000000000000000000000000000000000000000000000000000000000000000000000000000000000000000000000000000000000000000000000000000000000000006d50ac7f723551c",
          "blockHash": "0x6fc8725b71036eb4ff151fadd861466621dc1375ed44a6671478c087a72a83f8",
          "blockNumber": "0x40bedf8",
          "transactionHash": "0xd415af3ee46a1db76c00bb247ff3f299a9c0059e342f16dcdb1b7d996c8efede",
          "transactionIndex": "0x28",
          "logIndex": "0xa7",
          "removed": false
        },
        {
          "address": "0x6c26c61a97006888ea9E4FA36584c7df57Cd9dA3",
          "topics": [
            "0x61ed099e74a97a1d7f8bb0952a88ca8b7b8ebd00c126ea04671f92a81213318a"
          ],
          "data": "0x000000000000000000000000cd3f213ad101472e1713c72b1697e727c803885b00000000000000000000000000000000000000000000000002758d2c0cad16db",
          "blockHash": "0x6fc8725b71036eb4ff151fadd861466621dc1375ed44a6671478c087a72a83f8",
          "blockNumber": "0x40bedf8",
          "transactionHash": "0xd415af3ee46a1db76c00bb247ff3f299a9c0059e342f16dcdb1b7d996c8efede",
          "transactionIndex": "0x28",
          "logIndex": "0xa8",
          "removed": false
        },
        {
          "address": "0x6c26c61a97006888ea9E4FA36584c7df57Cd9dA3",
          "topics": [
            "0x07ea52d82345d6e838192107d8fd7123d9c2ec8e916cd0aad13fd2b60db24644"
          ],
          "data": "0x000000000000000000000000000000000000000000000000000000000000006000000000000000000000000000000000000000000000000000000000000000c000000000000000000000000000000000000000000000000000000000000000e0000000000000000000000000000000000000000000000000000000000000000200000000000000000000000023de2fe932d9043291f870324b74f820e11dc81a000000000000000000000000d56e4eab23cb81f43168f9f45211eb027b9ac7cc00000000000000000000000000000000000000000000000000000000000000000000000000000000000000000000000000000000000000000000000000000002000000000000000000000000000000000000000000000000000bddb40d81a0b600000000000000000000000000000000000000000000000004539fe7dcf49d8b",
          "blockHash": "0x6fc8725b71036eb4ff151fadd861466621dc1375ed44a6671478c087a72a83f8",
          "blockNumber": "0x40bedf8",
          "transactionHash": "0xd415af3ee46a1db76c00bb247ff3f299a9c0059e342f16dcdb1b7d996c8efede",
          "transactionIndex": "0x28",
          "logIndex": "0xa9",
          "removed": false
        },
        {
          "address": "0x1a44076050125825900e736c501f859c50fE728c",
          "topics": [
            "0x1ab700d4ced0c005b164c0f789fd09fcbb0156d4c2041b8a3bfbcd961cd1567f"
          ],
          "data": "0x000000000000000000000000000000000000000000000000000000000000006000000000000000000000000000000000000000000000000000000000000001200000000000000000000000006c26c61a97006888ea9e4fa36584c7df57cd9da300000000000000000000000000000000000000000000000000000000000000990100000000000006a80000759d000000000000000000000000303b63e785b656ca56ea5a5c1634ab20c98895e1000075e8000000000000000000000000474f4cb764df9da079d94052fed39625c147c12cca3d169c78763a0b4bcdb2befe5cf6a7c17b5968f9e09c35f5352ab1fbdf84d200000000000000000000000021af1185734d213d45c6236146fb81e2b0e8b821000000746a52880000000000000000000000000000000000000000000000000000000000000000000000000000002a0003010011010000000000000000000000000001adb0010011010000000000000000000000000007a12000000000000000000000000000000000000000000000",
          "blockHash": "0x6fc8725b71036eb4ff151fadd861466621dc1375ed44a6671478c087a72a83f8",
          "blockNumber": "0x40bedf8",
          "transactionHash": "0xd415af3ee46a1db76c00bb247ff3f299a9c0059e342f16dcdb1b7d996c8efede",
          "transactionIndex": "0x28",
          "logIndex": "0xaa",
          "removed": false
        },
        {
          "address": "0x0000000000000000000000000000000000001010",
          "topics": [
            "0xe6497e3ee548a3372136af2fcb0696db31fc6cf20260707645068bd3fe97f3c4",
            "0x0000000000000000000000000000000000000000000000000000000000001010",
            "0x0000000000000000000000001a44076050125825900e736c501f859c50fe728c",
            "0x0000000000000000000000006c26c61a97006888ea9e4fa36584c7df57cd9da3"
          ],
          "data": "0x00000000000000000000000000000000000000000000000006d50ac7f723551c00000000000000000000000000000000000000000000000006d50ac7f723551c0000000000000000000000000000000000000000000010a5847e3153b597c99e00000000000000000000000000000000000000000000000000000000000000000000000000000000000000000000000000000000000010a58b533c1bacbb1eba",
          "blockHash": "0x6fc8725b71036eb4ff151fadd861466621dc1375ed44a6671478c087a72a83f8",
          "blockNumber": "0x40bedf8",
          "transactionHash": "0xd415af3ee46a1db76c00bb247ff3f299a9c0059e342f16dcdb1b7d996c8efede",
          "transactionIndex": "0x28",
          "logIndex": "0xab",
          "removed": false
        },
        {
          "address": "0x303b63e785B656ca56ea5A5C1634Ab20C98895e1",
          "topics": [
            "0x85496b760a4b7f8d66384b9df21b381f5d1b1e79f229a47aaf4c232edc2fe59a",
            "0xca3d169c78763a0b4bcdb2befe5cf6a7c17b5968f9e09c35f5352ab1fbdf84d2",
            "0x00000000000000000000000021af1185734d213d45c6236146fb81e2b0e8b821"
          ],
          "data": "0x00000000000000000000000000000000000000000000000000000000000075e80000000000000000000000000000000000000000000069e10de76676d08000000000000000000000000000000000000000000000000069e10de76676d0800000",
          "blockHash": "0x6fc8725b71036eb4ff151fadd861466621dc1375ed44a6671478c087a72a83f8",
          "blockNumber": "0x40bedf8",
          "transactionHash": "0xd415af3ee46a1db76c00bb247ff3f299a9c0059e342f16dcdb1b7d996c8efede",
          "transactionIndex": "0x28",
          "logIndex": "0xac",
          "removed": false
        },
        {
          "address": "0x0000000000000000000000000000000000001010",
          "topics": [
            "0x4dfe1bbbcf077ddc3e01291eea2d5c70c2b422b415d95645b9adcfd678cb1d63",
            "0x0000000000000000000000000000000000000000000000000000000000001010",
            "0x00000000000000000000000021af1185734d213d45c6236146fb81e2b0e8b821",
            "0x000000000000000000000000f0245f6251bef9447a08766b9da2b07b28ad80b0"
          ],
          "data": "0x000000000000000000000000000000000000000000000000001d74d216dac8000000000000000000000000000000000000000000000000002569745343f705f30000000000000000000000000000000000000000000009febe47de206830c1c1000000000000000000000000000000000000000000000000254bff812d1c3df30000000000000000000000000000000000000000000009febe6552f27f0b89c1",
          "blockHash": "0x6fc8725b71036eb4ff151fadd861466621dc1375ed44a6671478c087a72a83f8",
          "blockNumber": "0x40bedf8",
          "transactionHash": "0xd415af3ee46a1db76c00bb247ff3f299a9c0059e342f16dcdb1b7d996c8efede",
          "transactionIndex": "0x28",
          "logIndex": "0xad",
          "removed": false
        }
      ],
      "logsBloom": "0x4000000000000000000004800008000000020000000000000000000400100000000000400000900000000010000200000000800000000000000000000000000000008204201000000040000800000080000000000000000000010000000000000000000000000000800000000000080000000000001000008020401000000001000000000000000000000008000000000000000000000000000001000008000020000000c0000000001000000000000000000000004000000004c0080000004000000002000000000001000080000000000000000000801000188000000000000000040000000000000000000000002000000000018000000000000000100000",
      "type": "0x2",
      "transactionHash": "0xd415af3ee46a1db76c00bb247ff3f299a9c0059e342f16dcdb1b7d996c8efede",
      "transactionIndex": "0x28",
      "blockHash": "0x6fc8725b71036eb4ff151fadd861466621dc1375ed44a6671478c087a72a83f8",
      "blockNumber": "0x40bedf8",
      "gasUsed": "0x43796",
      "effectiveGasPrice": "0x6fc23ac1b",
      "from": "0x21aF1185734D213D45C6236146fb81E2b0E8b821",
      "to": "0x303b63e785B656ca56ea5A5C1634Ab20C98895e1",
      "contractAddress": null
    },
    {
      "status": "0x1",
      "cumulativeGasUsed": "0x4370ab",
      "logs": [
        {
          "address": "0x3d2bD0e15829AA5C362a4144FdF4A1112fa29B5c",
          "topics": [
            "0x8c5be1e5ebec7d5bd14f71427d1e84f3dd0314c0f7b2291e5b200ac8c7c3b925",
            "0x00000000000000000000000021af1185734d213d45c6236146fb81e2b0e8b821",
            "0x000000000000000000000000303b63e785b656ca56ea5a5c1634ab20c98895e1"
          ],
          "data": "0x0000000000000000000000000000000000000000000069e10de76676d0800000",
          "blockHash": "0x6fc8725b71036eb4ff151fadd861466621dc1375ed44a6671478c087a72a83f8",
          "blockNumber": "0x40bedf8",
          "transactionHash": "0x2e5a5850e8fa9ab51cc9b322ca8420c3ba1c826277217705e7c2c97b59609d1b",
          "transactionIndex": "0x29",
          "logIndex": "0xae",
          "removed": false
        },
        {
          "address": "0x0000000000000000000000000000000000001010",
          "topics": [
            "0x4dfe1bbbcf077ddc3e01291eea2d5c70c2b422b415d95645b9adcfd678cb1d63",
            "0x0000000000000000000000000000000000000000000000000000000000001010",
            "0x00000000000000000000000021af1185734d213d45c6236146fb81e2b0e8b821",
            "0x000000000000000000000000f0245f6251bef9447a08766b9da2b07b28ad80b0"
          ],
          "data": "0x0000000000000000000000000000000000000000000000000004ecb2325afc000000000000000000000000000000000000000000000000001e76f4b935870c050000000000000000000000000000000000000000000009febe6552f27f0b89c10000000000000000000000000000000000000000000000001e720807032c10050000000000000000000000000000000000000000000009febe6a3fa4b16685c1",
          "blockHash": "0x6fc8725b71036eb4ff151fadd861466621dc1375ed44a6671478c087a72a83f8",
          "blockNumber": "0x40bedf8",
          "transactionHash": "0x2e5a5850e8fa9ab51cc9b322ca8420c3ba1c826277217705e7c2c97b59609d1b",
          "transactionIndex": "0x29",
          "logIndex": "0xaf",
          "removed": false
        }
      ],
      "logsBloom": "0x40000000000000000000000000080000000000000000000000000000000000000000000000009000000000000000000000008000000000000000000000200000000080042000000000000000000000800000000000000000000100000000000000000000000000000000000000000800000000000000000080004000000000000000000000000000000000000000000000000000000000000000000000080000220000000000000000000000000000000000000000000000000080080000004000000000000000000001000000000000000000000000000000100000000000000010000000000000000000000000000000000000000000000000000000100000",
      "type": "0x2",
      "transactionHash": "0x2e5a5850e8fa9ab51cc9b322ca8420c3ba1c826277217705e7c2c97b59609d1b",
      "transactionIndex": "0x29",
      "blockHash": "0x6fc8725b71036eb4ff151fadd861466621dc1375ed44a6671478c087a72a83f8",
      "blockNumber": "0x40bedf8",
      "gasUsed": "0xb47d",
      "effectiveGasPrice": "0x6fc23ac1b",
      "from": "0x21aF1185734D213D45C6236146fb81E2b0E8b821",
      "to": "0x3d2bD0e15829AA5C362a4144FdF4A1112fa29B5c",
      "contractAddress": null
    },
    {
      "status": "0x1",
      "cumulativeGasUsed": "0x47a841",
      "logs": [
        {
          "address": "0x0000000000000000000000000000000000001010",
          "topics": [
            "0xe6497e3ee548a3372136af2fcb0696db31fc6cf20260707645068bd3fe97f3c4",
            "0x0000000000000000000000000000000000000000000000000000000000001010",
            "0x00000000000000000000000021af1185734d213d45c6236146fb81e2b0e8b821",
            "0x000000000000000000000000303b63e785b656ca56ea5a5c1634ab20c98895e1"
          ],
          "data": "0x00000000000000000000000000000000000000000000000006d50ac7f723551c0000000000000000000000000000000000000000000000001e495848ed728517000000000000000000000000000000000000000000000000000000000000000000000000000000000000000000000000000000000000000017744d80f64f2ffb00000000000000000000000000000000000000000000000006d50ac7f723551c",
          "blockHash": "0x6fc8725b71036eb4ff151fadd861466621dc1375ed44a6671478c087a72a83f8",
          "blockNumber": "0x40bedf8",
          "transactionHash": "0x2f7864ca85843f98ca1bea4c0a370c73da5b013e602359551b9f7cae7808844e",
          "transactionIndex": "0x2a",
          "logIndex": "0xb0",
          "removed": false
        },
        {
          "address": "0x3d2bD0e15829AA5C362a4144FdF4A1112fa29B5c",
          "topics": [
            "0xddf252ad1be2c89b69c2b068fc378daa952ba7f163c4a11628f55a4df523b3ef",
            "0x00000000000000000000000021af1185734d213d45c6236146fb81e2b0e8b821",
            "0x000000000000000000000000303b63e785b656ca56ea5a5c1634ab20c98895e1"
          ],
          "data": "0x0000000000000000000000000000000000000000000069e10de76676d0800000",
          "blockHash": "0x6fc8725b71036eb4ff151fadd861466621dc1375ed44a6671478c087a72a83f8",
          "blockNumber": "0x40bedf8",
          "transactionHash": "0x2f7864ca85843f98ca1bea4c0a370c73da5b013e602359551b9f7cae7808844e",
          "transactionIndex": "0x2a",
          "logIndex": "0xb1",
          "removed": false
        },
        {
          "address": "0x0000000000000000000000000000000000001010",
          "topics": [
            "0xe6497e3ee548a3372136af2fcb0696db31fc6cf20260707645068bd3fe97f3c4",
            "0x0000000000000000000000000000000000000000000000000000000000001010",
            "0x000000000000000000000000303b63e785b656ca56ea5a5c1634ab20c98895e1",
            "0x0000000000000000000000001a44076050125825900e736c501f859c50fe728c"
          ],
          "data": "0x00000000000000000000000000000000000000000000000006d50ac7f723551c00000000000000000000000000000000000000000000000006d50ac7f723551c0000000000000000000000000000000000000000000000000000000000000000000000000000000000000000000000000000000000000000000000000000000000000000000000000000000000000000000000000000000006d50ac7f723551c",
          "blockHash": "0x6fc8725b71036eb4ff151fadd861466621dc1375ed44a6671478c087a72a83f8",
          "blockNumber": "0x40bedf8",
          "transactionHash": "0x2f7864ca85843f98ca1bea4c0a370c73da5b013e602359551b9f7cae7808844e",
          "transactionIndex": "0x2a",
          "logIndex": "0xb2",
          "removed": false
        },
        {
          "address": "0x6c26c61a97006888ea9E4FA36584c7df57Cd9dA3",
          "topics": [
            "0x61ed099e74a97a1d7f8bb0952a88ca8b7b8ebd00c126ea04671f92a81213318a"
          ],
          "data": "0x000000000000000000000000cd3f213ad101472e1713c72b1697e727c803885b00000000000000000000000000000000000000000000000002758d2c0cad16db",
          "blockHash": "0x6fc8725b71036eb4ff151fadd861466621dc1375ed44a6671478c087a72a83f8",
          "blockNumber": "0x40bedf8",
          "transactionHash": "0x2f7864ca85843f98ca1bea4c0a370c73da5b013e602359551b9f7cae7808844e",
          "transactionIndex": "0x2a",
          "logIndex": "0xb3",
          "removed": false
        },
        {
          "address": "0x6c26c61a97006888ea9E4FA36584c7df57Cd9dA3",
          "topics": [
            "0x07ea52d82345d6e838192107d8fd7123d9c2ec8e916cd0aad13fd2b60db24644"
          ],
          "data": "0x000000000000000000000000000000000000000000000000000000000000006000000000000000000000000000000000000000000000000000000000000000c000000000000000000000000000000000000000000000000000000000000000e0000000000000000000000000000000000000000000000000000000000000000200000000000000000000000023de2fe932d9043291f870324b74f820e11dc81a000000000000000000000000d56e4eab23cb81f43168f9f45211eb027b9ac7cc00000000000000000000000000000000000000000000000000000000000000000000000000000000000000000000000000000000000000000000000000000002000000000000000000000000000000000000000000000000000bddb40d81a0b600000000000000000000000000000000000000000000000004539fe7dcf49d8b",
          "blockHash": "0x6fc8725b71036eb4ff151fadd861466621dc1375ed44a6671478c087a72a83f8",
          "blockNumber": "0x40bedf8",
          "transactionHash": "0x2f7864ca85843f98ca1bea4c0a370c73da5b013e602359551b9f7cae7808844e",
          "transactionIndex": "0x2a",
          "logIndex": "0xb4",
          "removed": false
        },
        {
          "address": "0x1a44076050125825900e736c501f859c50fE728c",
          "topics": [
            "0x1ab700d4ced0c005b164c0f789fd09fcbb0156d4c2041b8a3bfbcd961cd1567f"
          ],
          "data": "0x000000000000000000000000000000000000000000000000000000000000006000000000000000000000000000000000000000000000000000000000000001200000000000000000000000006c26c61a97006888ea9e4fa36584c7df57cd9da300000000000000000000000000000000000000000000000000000000000000990100000000000006a90000759d000000000000000000000000303b63e785b656ca56ea5a5c1634ab20c98895e1000075e8000000000000000000000000474f4cb764df9da079d94052fed39625c147c12c6f714bf0b51b3a4161aa1f62ba156e006fe328d2ad0f4e86469df1d5a1381c8900000000000000000000000021af1185734d213d45c6236146fb81e2b0e8b821000000746a52880000000000000000000000000000000000000000000000000000000000000000000000000000002a0003010011010000000000000000000000000001adb0010011010000000000000000000000000007a12000000000000000000000000000000000000000000000",
          "blockHash": "0x6fc8725b71036eb4ff151fadd861466621dc1375ed44a6671478c087a72a83f8",
          "blockNumber": "0x40bedf8",
          "transactionHash": "0x2f7864ca85843f98ca1bea4c0a370c73da5b013e602359551b9f7cae7808844e",
          "transactionIndex": "0x2a",
          "logIndex": "0xb5",
          "removed": false
        },
        {
          "address": "0x0000000000000000000000000000000000001010",
          "topics": [
            "0xe6497e3ee548a3372136af2fcb0696db31fc6cf20260707645068bd3fe97f3c4",
            "0x0000000000000000000000000000000000000000000000000000000000001010",
            "0x0000000000000000000000001a44076050125825900e736c501f859c50fe728c",
            "0x0000000000000000000000006c26c61a97006888ea9e4fa36584c7df57cd9da3"
          ],
          "data": "0x00000000000000000000000000000000000000000000000006d50ac7f723551c00000000000000000000000000000000000000000000000006d50ac7f723551c0000000000000000000000000000000000000000000010a58b533c1bacbb1eba00000000000000000000000000000000000000000000000000000000000000000000000000000000000000000000000000000000000010a5922846e3a3de73d6",
          "blockHash": "0x6fc8725b71036eb4ff151fadd861466621dc1375ed44a6671478c087a72a83f8",
          "blockNumber": "0x40bedf8",
          "transactionHash": "0x2f7864ca85843f98ca1bea4c0a370c73da5b013e602359551b9f7cae7808844e",
          "transactionIndex": "0x2a",
          "logIndex": "0xb6",
          "removed": false
        },
        {
          "address": "0x303b63e785B656ca56ea5A5C1634Ab20C98895e1",
          "topics": [
            "0x85496b760a4b7f8d66384b9df21b381f5d1b1e79f229a47aaf4c232edc2fe59a",
            "0x6f714bf0b51b3a4161aa1f62ba156e006fe328d2ad0f4e86469df1d5a1381c89",
            "0x00000000000000000000000021af1185734d213d45c6236146fb81e2b0e8b821"
          ],
          "data": "0x00000000000000000000000000000000000000000000000000000000000075e80000000000000000000000000000000000000000000069e10de76676d08000000000000000000000000000000000000000000000000069e10de76676d0800000",
          "blockHash": "0x6fc8725b71036eb4ff151fadd861466621dc1375ed44a6671478c087a72a83f8",
          "blockNumber": "0x40bedf8",
          "transactionHash": "0x2f7864ca85843f98ca1bea4c0a370c73da5b013e602359551b9f7cae7808844e",
          "transactionIndex": "0x2a",
          "logIndex": "0xb7",
          "removed": false
        },
        {
          "address": "0x0000000000000000000000000000000000001010",
          "topics": [
            "0x4dfe1bbbcf077ddc3e01291eea2d5c70c2b422b415d95645b9adcfd678cb1d63",
            "0x0000000000000000000000000000000000000000000000000000000000001010",
            "0x00000000000000000000000021af1185734d213d45c6236146fb81e2b0e8b821",
            "0x000000000000000000000000f0245f6251bef9447a08766b9da2b07b28ad80b0"
          ],
          "data": "0x000000000000000000000000000000000000000000000000001d74d216dac8000000000000000000000000000000000000000000000000001e720807031906d60000000000000000000000000000000000000000000009febe6a3fa4b16685c10000000000000000000000000000000000000000000000001e549334ec3e3ed60000000000000000000000000000000000000000000009febe87b476c8414dc1",
          "blockHash": "0x6fc8725b71036eb4ff151fadd861466621dc1375ed44a6671478c087a72a83f8",
          "blockNumber": "0x40bedf8",
          "transactionHash": "0x2f7864ca85843f98ca1bea4c0a370c73da5b013e602359551b9f7cae7808844e",
          "transactionIndex": "0x2a",
          "logIndex": "0xb8",
          "removed": false
        }
      ],
      "logsBloom": "0x400000000000000000000480000800000000000000000000000000040010000000000040000090000000001000020000000080000000000000000000000000200000820420100000004000080000008000000000000000000001000000000000000000000000000080000000000008000000000000100000802040100000000000000000000200000000000800000000000000000000000000000100000800002000000080000000001000000000000000000000004000000004c0080000004000000002000000000001000080000000000000000000801000188000000000000000040000000000000000000000002000000200018000000000000000100000",
      "type": "0x2",
      "transactionHash": "0x2f7864ca85843f98ca1bea4c0a370c73da5b013e602359551b9f7cae7808844e",
      "transactionIndex": "0x2a",
      "blockHash": "0x6fc8725b71036eb4ff151fadd861466621dc1375ed44a6671478c087a72a83f8",
      "blockNumber": "0x40bedf8",
      "gasUsed": "0x43796",
      "effectiveGasPrice": "0x6fc23ac1b",
      "from": "0x21aF1185734D213D45C6236146fb81E2b0E8b821",
      "to": "0x303b63e785B656ca56ea5A5C1634Ab20C98895e1",
      "contractAddress": null
    },
    {
      "status": "0x1",
      "cumulativeGasUsed": "0x485cbe",
      "logs": [
        {
          "address": "0x3d2bD0e15829AA5C362a4144FdF4A1112fa29B5c",
          "topics": [
            "0x8c5be1e5ebec7d5bd14f71427d1e84f3dd0314c0f7b2291e5b200ac8c7c3b925",
            "0x00000000000000000000000021af1185734d213d45c6236146fb81e2b0e8b821",
            "0x000000000000000000000000303b63e785b656ca56ea5a5c1634ab20c98895e1"
          ],
          "data": "0x0000000000000000000000000000000000000000000069e10de76676d0800000",
          "blockHash": "0x6fc8725b71036eb4ff151fadd861466621dc1375ed44a6671478c087a72a83f8",
          "blockNumber": "0x40bedf8",
          "transactionHash": "0x0be8f7a002bdab6e650eab538308e8d2ea01ab869271cbe070bb726ba429d1c8",
          "transactionIndex": "0x2b",
          "logIndex": "0xb9",
          "removed": false
        },
        {
          "address": "0x0000000000000000000000000000000000001010",
          "topics": [
            "0x4dfe1bbbcf077ddc3e01291eea2d5c70c2b422b415d95645b9adcfd678cb1d63",
            "0x0000000000000000000000000000000000000000000000000000000000001010",
            "0x00000000000000000000000021af1185734d213d45c6236146fb81e2b0e8b821",
            "0x000000000000000000000000f0245f6251bef9447a08766b9da2b07b28ad80b0"
          ],
          "data": "0x0000000000000000000000000000000000000000000000000004ecb2325afc00000000000000000000000000000000000000000000000000177f886cf4a90ce80000000000000000000000000000000000000000000009febe87b476c8414dc1000000000000000000000000000000000000000000000000177a9bbac24e10e80000000000000000000000000000000000000000000009febe8ca128fa9c49c1",
          "blockHash": "0x6fc8725b71036eb4ff151fadd861466621dc1375ed44a6671478c087a72a83f8",
          "blockNumber": "0x40bedf8",
          "transactionHash": "0x0be8f7a002bdab6e650eab538308e8d2ea01ab869271cbe070bb726ba429d1c8",
          "transactionIndex": "0x2b",
          "logIndex": "0xba",
          "removed": false
        }
      ],
      "logsBloom": "0x40000000000000000000000000080000000000000000000000000000000000000000000000009000000000000000000000008000000000000000000000200000000080042000000000000000000000800000000000000000000100000000000000000000000000000000000000000800000000000000000080004000000000000000000000000000000000000000000000000000000000000000000000080000220000000000000000000000000000000000000000000000000080080000004000000000000000000001000000000000000000000000000000100000000000000010000000000000000000000000000000000000000000000000000000100000",
      "type": "0x2",
      "transactionHash": "0x0be8f7a002bdab6e650eab538308e8d2ea01ab869271cbe070bb726ba429d1c8",
      "transactionIndex": "0x2b",
      "blockHash": "0x6fc8725b71036eb4ff151fadd861466621dc1375ed44a6671478c087a72a83f8",
      "blockNumber": "0x40bedf8",
      "gasUsed": "0xb47d",
      "effectiveGasPrice": "0x6fc23ac1b",
      "from": "0x21aF1185734D213D45C6236146fb81E2b0E8b821",
      "to": "0x3d2bD0e15829AA5C362a4144FdF4A1112fa29B5c",
      "contractAddress": null
    },
    {
      "status": "0x1",
      "cumulativeGasUsed": "0x4c9454",
      "logs": [
        {
          "address": "0x0000000000000000000000000000000000001010",
          "topics": [
            "0xe6497e3ee548a3372136af2fcb0696db31fc6cf20260707645068bd3fe97f3c4",
            "0x0000000000000000000000000000000000000000000000000000000000001010",
            "0x00000000000000000000000021af1185734d213d45c6236146fb81e2b0e8b821",
            "0x000000000000000000000000303b63e785b656ca56ea5a5c1634ab20c98895e1"
          ],
          "data": "0x00000000000000000000000000000000000000000000000006d50ac7f723551c0000000000000000000000000000000000000000000000001751ebfcac9485fa0000000000000000000000000000000000000000000000000000000000000000000000000000000000000000000000000000000000000000107ce134b57130de00000000000000000000000000000000000000000000000006d50ac7f723551c",
          "blockHash": "0x6fc8725b71036eb4ff151fadd861466621dc1375ed44a6671478c087a72a83f8",
          "blockNumber": "0x40bedf8",
          "transactionHash": "0xd446ef99f18241f0496e9c8f1b9724e6a109f298d27536d910db4689945ec582",
          "transactionIndex": "0x2c",
          "logIndex": "0xbb",
          "removed": false
        },
        {
          "address": "0x3d2bD0e15829AA5C362a4144FdF4A1112fa29B5c",
          "topics": [
            "0xddf252ad1be2c89b69c2b068fc378daa952ba7f163c4a11628f55a4df523b3ef",
            "0x00000000000000000000000021af1185734d213d45c6236146fb81e2b0e8b821",
            "0x000000000000000000000000303b63e785b656ca56ea5a5c1634ab20c98895e1"
          ],
          "data": "0x0000000000000000000000000000000000000000000069e10de76676d0800000",
          "blockHash": "0x6fc8725b71036eb4ff151fadd861466621dc1375ed44a6671478c087a72a83f8",
          "blockNumber": "0x40bedf8",
          "transactionHash": "0xd446ef99f18241f0496e9c8f1b9724e6a109f298d27536d910db4689945ec582",
          "transactionIndex": "0x2c",
          "logIndex": "0xbc",
          "removed": false
        },
        {
          "address": "0x0000000000000000000000000000000000001010",
          "topics": [
            "0xe6497e3ee548a3372136af2fcb0696db31fc6cf20260707645068bd3fe97f3c4",
            "0x0000000000000000000000000000000000000000000000000000000000001010",
            "0x000000000000000000000000303b63e785b656ca56ea5a5c1634ab20c98895e1",
            "0x0000000000000000000000001a44076050125825900e736c501f859c50fe728c"
          ],
          "data": "0x00000000000000000000000000000000000000000000000006d50ac7f723551c00000000000000000000000000000000000000000000000006d50ac7f723551c0000000000000000000000000000000000000000000000000000000000000000000000000000000000000000000000000000000000000000000000000000000000000000000000000000000000000000000000000000000006d50ac7f723551c",
          "blockHash": "0x6fc8725b71036eb4ff151fadd861466621dc1375ed44a6671478c087a72a83f8",
          "blockNumber": "0x40bedf8",
          "transactionHash": "0xd446ef99f18241f0496e9c8f1b9724e6a109f298d27536d910db4689945ec582",
          "transactionIndex": "0x2c",
          "logIndex": "0xbd",
          "removed": false
        },
        {
          "address": "0x6c26c61a97006888ea9E4FA36584c7df57Cd9dA3",
          "topics": [
            "0x61ed099e74a97a1d7f8bb0952a88ca8b7b8ebd00c126ea04671f92a81213318a"
          ],
          "data": "0x000000000000000000000000cd3f213ad101472e1713c72b1697e727c803885b00000000000000000000000000000000000000000000000002758d2c0cad16db",
          "blockHash": "0x6fc8725b71036eb4ff151fadd861466621dc1375ed44a6671478c087a72a83f8",
          "blockNumber": "0x40bedf8",
          "transactionHash": "0xd446ef99f18241f0496e9c8f1b9724e6a109f298d27536d910db4689945ec582",
          "transactionIndex": "0x2c",
          "logIndex": "0xbe",
          "removed": false
        },
        {
          "address": "0x6c26c61a97006888ea9E4FA36584c7df57Cd9dA3",
          "topics": [
            "0x07ea52d82345d6e838192107d8fd7123d9c2ec8e916cd0aad13fd2b60db24644"
          ],
          "data": "0x000000000000000000000000000000000000000000000000000000000000006000000000000000000000000000000000000000000000000000000000000000c000000000000000000000000000000000000000000000000000000000000000e0000000000000000000000000000000000000000000000000000000000000000200000000000000000000000023de2fe932d9043291f870324b74f820e11dc81a000000000000000000000000d56e4eab23cb81f43168f9f45211eb027b9ac7cc00000000000000000000000000000000000000000000000000000000000000000000000000000000000000000000000000000000000000000000000000000002000000000000000000000000000000000000000000000000000bddb40d81a0b600000000000000000000000000000000000000000000000004539fe7dcf49d8b",
          "blockHash": "0x6fc8725b71036eb4ff151fadd861466621dc1375ed44a6671478c087a72a83f8",
          "blockNumber": "0x40bedf8",
          "transactionHash": "0xd446ef99f18241f0496e9c8f1b9724e6a109f298d27536d910db4689945ec582",
          "transactionIndex": "0x2c",
          "logIndex": "0xbf",
          "removed": false
        },
        {
          "address": "0x1a44076050125825900e736c501f859c50fE728c",
          "topics": [
            "0x1ab700d4ced0c005b164c0f789fd09fcbb0156d4c2041b8a3bfbcd961cd1567f"
          ],
          "data": "0x000000000000000000000000000000000000000000000000000000000000006000000000000000000000000000000000000000000000000000000000000001200000000000000000000000006c26c61a97006888ea9e4fa36584c7df57cd9da300000000000000000000000000000000000000000000000000000000000000990100000000000006aa0000759d000000000000000000000000303b63e785b656ca56ea5a5c1634ab20c98895e1000075e8000000000000000000000000474f4cb764df9da079d94052fed39625c147c12c72152b134f0b537fbd17e84a6028f68082d3b20c65f3219a024d7708e229ee0000000000000000000000000021af1185734d213d45c6236146fb81e2b0e8b821000000746a52880000000000000000000000000000000000000000000000000000000000000000000000000000002a0003010011010000000000000000000000000001adb0010011010000000000000000000000000007a12000000000000000000000000000000000000000000000",
          "blockHash": "0x6fc8725b71036eb4ff151fadd861466621dc1375ed44a6671478c087a72a83f8",
          "blockNumber": "0x40bedf8",
          "transactionHash": "0xd446ef99f18241f0496e9c8f1b9724e6a109f298d27536d910db4689945ec582",
          "transactionIndex": "0x2c",
          "logIndex": "0xc0",
          "removed": false
        },
        {
          "address": "0x0000000000000000000000000000000000001010",
          "topics": [
            "0xe6497e3ee548a3372136af2fcb0696db31fc6cf20260707645068bd3fe97f3c4",
            "0x0000000000000000000000000000000000000000000000000000000000001010",
            "0x0000000000000000000000001a44076050125825900e736c501f859c50fe728c",
            "0x0000000000000000000000006c26c61a97006888ea9e4fa36584c7df57cd9da3"
          ],
          "data": "0x00000000000000000000000000000000000000000000000006d50ac7f723551c00000000000000000000000000000000000000000000000006d50ac7f723551c0000000000000000000000000000000000000000000010a5922846e3a3de73d600000000000000000000000000000000000000000000000000000000000000000000000000000000000000000000000000000000000010a598fd51ab9b01c8f2",
          "blockHash": "0x6fc8725b71036eb4ff151fadd861466621dc1375ed44a6671478c087a72a83f8",
          "blockNumber": "0x40bedf8",
          "transactionHash": "0xd446ef99f18241f0496e9c8f1b9724e6a109f298d27536d910db4689945ec582",
          "transactionIndex": "0x2c",
          "logIndex": "0xc1",
          "removed": false
        },
        {
          "address": "0x303b63e785B656ca56ea5A5C1634Ab20C98895e1",
          "topics": [
            "0x85496b760a4b7f8d66384b9df21b381f5d1b1e79f229a47aaf4c232edc2fe59a",
            "0x72152b134f0b537fbd17e84a6028f68082d3b20c65f3219a024d7708e229ee00",
            "0x00000000000000000000000021af1185734d213d45c6236146fb81e2b0e8b821"
          ],
          "data": "0x00000000000000000000000000000000000000000000000000000000000075e80000000000000000000000000000000000000000000069e10de76676d08000000000000000000000000000000000000000000000000069e10de76676d0800000",
          "blockHash": "0x6fc8725b71036eb4ff151fadd861466621dc1375ed44a6671478c087a72a83f8",
          "blockNumber": "0x40bedf8",
          "transactionHash": "0xd446ef99f18241f0496e9c8f1b9724e6a109f298d27536d910db4689945ec582",
          "transactionIndex": "0x2c",
          "logIndex": "0xc2",
          "removed": false
        },
        {
          "address": "0x0000000000000000000000000000000000001010",
          "topics": [
            "0x4dfe1bbbcf077ddc3e01291eea2d5c70c2b422b415d95645b9adcfd678cb1d63",
            "0x0000000000000000000000000000000000000000000000000000000000001010",
            "0x00000000000000000000000021af1185734d213d45c6236146fb81e2b0e8b821",
            "0x000000000000000000000000f0245f6251bef9447a08766b9da2b07b28ad80b0"
          ],
          "data": "0x000000000000000000000000000000000000000000000000001d74d216dac800000000000000000000000000000000000000000000000000177a9bbac23b07b90000000000000000000000000000000000000000000009febe8ca128fa9c49c1000000000000000000000000000000000000000000000000175d26e8ab603fb90000000000000000000000000000000000000000000009febeaa15fb117711c1",
          "blockHash": "0x6fc8725b71036eb4ff151fadd861466621dc1375ed44a6671478c087a72a83f8",
          "blockNumber": "0x40bedf8",
          "transactionHash": "0xd446ef99f18241f0496e9c8f1b9724e6a109f298d27536d910db4689945ec582",
          "transactionIndex": "0x2c",
          "logIndex": "0xc3",
          "removed": false
        }
      ],
      "logsBloom": "0x4000000000000000000004800008000000000000000000000000000400100000000000402000900000000010000a0000000080000000000000000000000000000000820420100000004000080000008000000000000000000001000000000000000000000000000080000000000008000000000000100000802040100000000000000000000000000000000800000000000000000000000000000100000800002000000080000000001000000000000000000000004000000004c0080000004000000002000000000001000080000000000800000000801000188000000000000000040000000000000000000000002000000000018000000000000000100000",
      "type": "0x2",
      "transactionHash": "0xd446ef99f18241f0496e9c8f1b9724e6a109f298d27536d910db4689945ec582",
      "transactionIndex": "0x2c",
      "blockHash": "0x6fc8725b71036eb4ff151fadd861466621dc1375ed44a6671478c087a72a83f8",
      "blockNumber": "0x40bedf8",
      "gasUsed": "0x43796",
      "effectiveGasPrice": "0x6fc23ac1b",
      "from": "0x21aF1185734D213D45C6236146fb81E2b0E8b821",
      "to": "0x303b63e785B656ca56ea5A5C1634Ab20C98895e1",
      "contractAddress": null
    },
    {
      "status": "0x1",
      "cumulativeGasUsed": "0x4d48c5",
      "logs": [
        {
          "address": "0x3d2bD0e15829AA5C362a4144FdF4A1112fa29B5c",
          "topics": [
            "0x8c5be1e5ebec7d5bd14f71427d1e84f3dd0314c0f7b2291e5b200ac8c7c3b925",
            "0x00000000000000000000000021af1185734d213d45c6236146fb81e2b0e8b821",
            "0x000000000000000000000000303b63e785b656ca56ea5a5c1634ab20c98895e1"
          ],
          "data": "0x000000000000000000000000000000000000000000002a5a058fc295ed000000",
          "blockHash": "0x6fc8725b71036eb4ff151fadd861466621dc1375ed44a6671478c087a72a83f8",
          "blockNumber": "0x40bedf8",
          "transactionHash": "0xbb5429b640a112caa0bfac077676abe747db50ed5c6567925557b8d7ad718044",
          "transactionIndex": "0x2d",
          "logIndex": "0xc4",
          "removed": false
        },
        {
          "address": "0x0000000000000000000000000000000000001010",
          "topics": [
            "0x4dfe1bbbcf077ddc3e01291eea2d5c70c2b422b415d95645b9adcfd678cb1d63",
            "0x0000000000000000000000000000000000000000000000000000000000001010",
            "0x00000000000000000000000021af1185734d213d45c6236146fb81e2b0e8b821",
            "0x000000000000000000000000f0245f6251bef9447a08766b9da2b07b28ad80b0"
          ],
          "data": "0x0000000000000000000000000000000000000000000000000004ec5e60aeec0000000000000000000000000000000000000000000000000010881c20b3cb0dcb0000000000000000000000000000000000000000000009febeaa15fb117711c100000000000000000000000000000000000000000000000010832fc2531c21cb0000000000000000000000000000000000000000000009febeaf02597225fdc1",
          "blockHash": "0x6fc8725b71036eb4ff151fadd861466621dc1375ed44a6671478c087a72a83f8",
          "blockNumber": "0x40bedf8",
          "transactionHash": "0xbb5429b640a112caa0bfac077676abe747db50ed5c6567925557b8d7ad718044",
          "transactionIndex": "0x2d",
          "logIndex": "0xc5",
          "removed": false
        }
      ],
      "logsBloom": "0x40000000000000000000000000080000000000000000000000000000000000000000000000009000000000000000000000008000000000000000000000200000000080042000000000000000000000800000000000000000000100000000000000000000000000000000000000000800000000000000000080004000000000000000000000000000000000000000000000000000000000000000000000080000220000000000000000000000000000000000000000000000000080080000004000000000000000000001000000000000000000000000000000100000000000000010000000000000000000000000000000000000000000000000000000100000",
      "type": "0x2",
      "transactionHash": "0xbb5429b640a112caa0bfac077676abe747db50ed5c6567925557b8d7ad718044",
      "transactionIndex": "0x2d",
      "blockHash": "0x6fc8725b71036eb4ff151fadd861466621dc1375ed44a6671478c087a72a83f8",
      "blockNumber": "0x40bedf8",
      "gasUsed": "0xb471",
      "effectiveGasPrice": "0x6fc23ac1b",
      "from": "0x21aF1185734D213D45C6236146fb81E2b0E8b821",
      "to": "0x3d2bD0e15829AA5C362a4144FdF4A1112fa29B5c",
      "contractAddress": null
    },
    {
      "status": "0x1",
      "cumulativeGasUsed": "0x518043",
      "logs": [
        {
          "address": "0x0000000000000000000000000000000000001010",
          "topics": [
            "0xe6497e3ee548a3372136af2fcb0696db31fc6cf20260707645068bd3fe97f3c4",
            "0x0000000000000000000000000000000000000000000000000000000000001010",
            "0x00000000000000000000000021af1185734d213d45c6236146fb81e2b0e8b821",
            "0x000000000000000000000000303b63e785b656ca56ea5a5c1634ab20c98895e1"
          ],
          "data": "0x00000000000000000000000000000000000000000000000006d50ac7f723551c000000000000000000000000000000000000000000000000105a80f1ba1f73b7000000000000000000000000000000000000000000000000000000000000000000000000000000000000000000000000000000000000000009857629c2fc1e9b00000000000000000000000000000000000000000000000006d50ac7f723551c",
          "blockHash": "0x6fc8725b71036eb4ff151fadd861466621dc1375ed44a6671478c087a72a83f8",
          "blockNumber": "0x40bedf8",
          "transactionHash": "0x110ee5046cc2f6fbba5b39949e1d2a74fa2f8cdafb5252b91f8b33783ec0cb69",
          "transactionIndex": "0x2e",
          "logIndex": "0xc6",
          "removed": false
        },
        {
          "address": "0x3d2bD0e15829AA5C362a4144FdF4A1112fa29B5c",
          "topics": [
            "0xddf252ad1be2c89b69c2b068fc378daa952ba7f163c4a11628f55a4df523b3ef",
            "0x00000000000000000000000021af1185734d213d45c6236146fb81e2b0e8b821",
            "0x000000000000000000000000303b63e785b656ca56ea5a5c1634ab20c98895e1"
          ],
          "data": "0x000000000000000000000000000000000000000000002a5a058fc295ed000000",
          "blockHash": "0x6fc8725b71036eb4ff151fadd861466621dc1375ed44a6671478c087a72a83f8",
          "blockNumber": "0x40bedf8",
          "transactionHash": "0x110ee5046cc2f6fbba5b39949e1d2a74fa2f8cdafb5252b91f8b33783ec0cb69",
          "transactionIndex": "0x2e",
          "logIndex": "0xc7",
          "removed": false
        },
        {
          "address": "0x0000000000000000000000000000000000001010",
          "topics": [
            "0xe6497e3ee548a3372136af2fcb0696db31fc6cf20260707645068bd3fe97f3c4",
            "0x0000000000000000000000000000000000000000000000000000000000001010",
            "0x000000000000000000000000303b63e785b656ca56ea5a5c1634ab20c98895e1",
            "0x0000000000000000000000001a44076050125825900e736c501f859c50fe728c"
          ],
          "data": "0x00000000000000000000000000000000000000000000000006d50ac7f723551c00000000000000000000000000000000000000000000000006d50ac7f723551c0000000000000000000000000000000000000000000000000000000000000000000000000000000000000000000000000000000000000000000000000000000000000000000000000000000000000000000000000000000006d50ac7f723551c",
          "blockHash": "0x6fc8725b71036eb4ff151fadd861466621dc1375ed44a6671478c087a72a83f8",
          "blockNumber": "0x40bedf8",
          "transactionHash": "0x110ee5046cc2f6fbba5b39949e1d2a74fa2f8cdafb5252b91f8b33783ec0cb69",
          "transactionIndex": "0x2e",
          "logIndex": "0xc8",
          "removed": false
        },
        {
          "address": "0x6c26c61a97006888ea9E4FA36584c7df57Cd9dA3",
          "topics": [
            "0x61ed099e74a97a1d7f8bb0952a88ca8b7b8ebd00c126ea04671f92a81213318a"
          ],
          "data": "0x000000000000000000000000cd3f213ad101472e1713c72b1697e727c803885b00000000000000000000000000000000000000000000000002758d2c0cad16db",
          "blockHash": "0x6fc8725b71036eb4ff151fadd861466621dc1375ed44a6671478c087a72a83f8",
          "blockNumber": "0x40bedf8",
          "transactionHash": "0x110ee5046cc2f6fbba5b39949e1d2a74fa2f8cdafb5252b91f8b33783ec0cb69",
          "transactionIndex": "0x2e",
          "logIndex": "0xc9",
          "removed": false
        },
        {
          "address": "0x6c26c61a97006888ea9E4FA36584c7df57Cd9dA3",
          "topics": [
            "0x07ea52d82345d6e838192107d8fd7123d9c2ec8e916cd0aad13fd2b60db24644"
          ],
          "data": "0x000000000000000000000000000000000000000000000000000000000000006000000000000000000000000000000000000000000000000000000000000000c000000000000000000000000000000000000000000000000000000000000000e0000000000000000000000000000000000000000000000000000000000000000200000000000000000000000023de2fe932d9043291f870324b74f820e11dc81a000000000000000000000000d56e4eab23cb81f43168f9f45211eb027b9ac7cc00000000000000000000000000000000000000000000000000000000000000000000000000000000000000000000000000000000000000000000000000000002000000000000000000000000000000000000000000000000000bddb40d81a0b600000000000000000000000000000000000000000000000004539fe7dcf49d8b",
          "blockHash": "0x6fc8725b71036eb4ff151fadd861466621dc1375ed44a6671478c087a72a83f8",
          "blockNumber": "0x40bedf8",
          "transactionHash": "0x110ee5046cc2f6fbba5b39949e1d2a74fa2f8cdafb5252b91f8b33783ec0cb69",
          "transactionIndex": "0x2e",
          "logIndex": "0xca",
          "removed": false
        },
        {
          "address": "0x1a44076050125825900e736c501f859c50fE728c",
          "topics": [
            "0x1ab700d4ced0c005b164c0f789fd09fcbb0156d4c2041b8a3bfbcd961cd1567f"
          ],
          "data": "0x000000000000000000000000000000000000000000000000000000000000006000000000000000000000000000000000000000000000000000000000000001200000000000000000000000006c26c61a97006888ea9e4fa36584c7df57cd9da300000000000000000000000000000000000000000000000000000000000000990100000000000006ab0000759d000000000000000000000000303b63e785b656ca56ea5a5c1634ab20c98895e1000075e8000000000000000000000000474f4cb764df9da079d94052fed39625c147c12c874cd04800cf5b29cf875dcc9d6cf3606cd62f22b56b8923d0bdf2f1d13814f300000000000000000000000021af1185734d213d45c6236146fb81e2b0e8b8210000002e90edd00000000000000000000000000000000000000000000000000000000000000000000000000000002a0003010011010000000000000000000000000001adb0010011010000000000000000000000000007a12000000000000000000000000000000000000000000000",
          "blockHash": "0x6fc8725b71036eb4ff151fadd861466621dc1375ed44a6671478c087a72a83f8",
          "blockNumber": "0x40bedf8",
          "transactionHash": "0x110ee5046cc2f6fbba5b39949e1d2a74fa2f8cdafb5252b91f8b33783ec0cb69",
          "transactionIndex": "0x2e",
          "logIndex": "0xcb",
          "removed": false
        },
        {
          "address": "0x0000000000000000000000000000000000001010",
          "topics": [
            "0xe6497e3ee548a3372136af2fcb0696db31fc6cf20260707645068bd3fe97f3c4",
            "0x0000000000000000000000000000000000000000000000000000000000001010",
            "0x0000000000000000000000001a44076050125825900e736c501f859c50fe728c",
            "0x0000000000000000000000006c26c61a97006888ea9e4fa36584c7df57cd9da3"
          ],
          "data": "0x00000000000000000000000000000000000000000000000006d50ac7f723551c00000000000000000000000000000000000000000000000006d50ac7f723551c0000000000000000000000000000000000000000000010a598fd51ab9b01c8f200000000000000000000000000000000000000000000000000000000000000000000000000000000000000000000000000000000000010a59fd25c7392251e0e",
          "blockHash": "0x6fc8725b71036eb4ff151fadd861466621dc1375ed44a6671478c087a72a83f8",
          "blockNumber": "0x40bedf8",
          "transactionHash": "0x110ee5046cc2f6fbba5b39949e1d2a74fa2f8cdafb5252b91f8b33783ec0cb69",
          "transactionIndex": "0x2e",
          "logIndex": "0xcc",
          "removed": false
        },
        {
          "address": "0x303b63e785B656ca56ea5A5C1634Ab20C98895e1",
          "topics": [
            "0x85496b760a4b7f8d66384b9df21b381f5d1b1e79f229a47aaf4c232edc2fe59a",
            "0x874cd04800cf5b29cf875dcc9d6cf3606cd62f22b56b8923d0bdf2f1d13814f3",
            "0x00000000000000000000000021af1185734d213d45c6236146fb81e2b0e8b821"
          ],
          "data": "0x00000000000000000000000000000000000000000000000000000000000075e8000000000000000000000000000000000000000000002a5a058fc295ed000000000000000000000000000000000000000000000000002a5a058fc295ed000000",
          "blockHash": "0x6fc8725b71036eb4ff151fadd861466621dc1375ed44a6671478c087a72a83f8",
          "blockNumber": "0x40bedf8",
          "transactionHash": "0x110ee5046cc2f6fbba5b39949e1d2a74fa2f8cdafb5252b91f8b33783ec0cb69",
          "transactionIndex": "0x2e",
          "logIndex": "0xcd",
          "removed": false
        },
        {
          "address": "0x0000000000000000000000000000000000001010",
          "topics": [
            "0x4dfe1bbbcf077ddc3e01291eea2d5c70c2b422b415d95645b9adcfd678cb1d63",
            "0x0000000000000000000000000000000000000000000000000000000000001010",
            "0x00000000000000000000000021af1185734d213d45c6236146fb81e2b0e8b821",
            "0x000000000000000000000000f0245f6251bef9447a08766b9da2b07b28ad80b0"
          ],
          "data": "0x000000000000000000000000000000000000000000000000001d742a7382a80000000000000000000000000000000000000000000000000010832fc2530919e00000000000000000000000000000000000000000000009febeaf02597225fdc10000000000000000000000000000000000000000000000001065bb97df8671e00000000000000000000000000000000000000000000009febecc7683e5a8a5c1",
          "blockHash": "0x6fc8725b71036eb4ff151fadd861466621dc1375ed44a6671478c087a72a83f8",
          "blockNumber": "0x40bedf8",
          "transactionHash": "0x110ee5046cc2f6fbba5b39949e1d2a74fa2f8cdafb5252b91f8b33783ec0cb69",
          "transactionIndex": "0x2e",
          "logIndex": "0xce",
          "removed": false
        }
      ],
      "logsBloom": "0x400000000000000000000480000800000000000000000000000000040010000000000040000090000000001000020000000080000000000800000000000000000000820420100000004000080000008000000000000000000001000000000000000000000000000080000000000008000000000000100000802040100000000000000000000000000000000800000000000000000000000000000100000800002000000080000000001000000000000000000000004000000004c0080000004000000002000000000001000080000000000000000000801000188000200000000000040000000000000000000000002000000000018000000000000000100000",
      "type": "0x2",
      "transactionHash": "0x110ee5046cc2f6fbba5b39949e1d2a74fa2f8cdafb5252b91f8b33783ec0cb69",
      "transactionIndex": "0x2e",
      "blockHash": "0x6fc8725b71036eb4ff151fadd861466621dc1375ed44a6671478c087a72a83f8",
      "blockNumber": "0x40bedf8",
      "gasUsed": "0x4377e",
      "effectiveGasPrice": "0x6fc23ac1b",
      "from": "0x21aF1185734D213D45C6236146fb81E2b0E8b821",
      "to": "0x303b63e785B656ca56ea5A5C1634Ab20C98895e1",
      "contractAddress": null
    }
  ],
  "libraries": [],
  "pending": [],
  "returns": {},
  "timestamp": 1739487893,
  "chain": 137,
  "commit": "9bc9372"
}