{
  "transactions": [
    {
      "hash": "0xadaf189914a0a7a3deb6cb1ef59c1f3047c16dea934e6f1cb6d6cdf8d55542a2",
      "transactionType": "CALL",
      "contractName": null,
      "contractAddress": "0x3d2bD0e15829AA5C362a4144FdF4A1112fa29B5c",
      "function": "approve(address,uint256)",
      "arguments": [
        "0x303b63e785B656ca56ea5A5C1634Ab20C98895e1",
        "50000000000000000000000"
      ],
      "transaction": {
        "from": "0x21aF1185734D213D45C6236146fb81E2b0E8b821",
        "to": "0x3d2bD0e15829AA5C362a4144FdF4A1112fa29B5c",
        "gas": "0xf94b",
        "value": "0x0",
        "input": "0x095ea7b3000000000000000000000000303b63e785b656ca56ea5a5c1634ab20c98895e1000000000000000000000000000000000000000000000a968163f0a57b400000",
        "nonce": "0x117",
        "chainId": "0x89"
      },
      "additionalContracts": [],
      "isFixedGasLimit": false
    },
    {
      "hash": "0xa5f4bfb8132d9bfdb27e203893b6a9f084a64808ed660adcf84141242bffaca6",
      "transactionType": "CALL",
      "contractName": null,
      "contractAddress": "0x303b63e785B656ca56ea5A5C1634Ab20C98895e1",
      "function": "send((uint32,bytes32,uint256,uint256,bytes,bytes,bytes),(uint256,uint256),address)",
      "arguments": [
        "(30184, 0x000000000000000000000000810b93f0dec3a84aa3b8a210d033858fbee41204, 50000000000000000000000, 50000000000000000000000, 0x0003010011010000000000000000000000000007a120, 0x, 0x)",
        "(467327868937419672, 0)",
        "0x5b73C5498c1E3b4dbA84de0F1833c4a029d90519"
      ],
      "transaction": {
        "from": "0x21aF1185734D213D45C6236146fb81E2b0E8b821",
        "to": "0x303b63e785B656ca56ea5A5C1634Ab20C98895e1",
        "gas": "0x5d32d",
        "value": "0x67c483885a7bb98",
        "input": "0xc7c7f5b30000000000000000000000000000000000000000000000000000000000000080000000000000000000000000000000000000000000000000067c483885a7bb9800000000000000000000000000000000000000000000000000000000000000000000000000000000000000005b73c5498c1e3b4dba84de0f1833c4a029d9051900000000000000000000000000000000000000000000000000000000000075e8000000000000000000000000810b93f0dec3a84aa3b8a210d033858fbee41204000000000000000000000000000000000000000000000a968163f0a57b400000000000000000000000000000000000000000000000000a968163f0a57b40000000000000000000000000000000000000000000000000000000000000000000e00000000000000000000000000000000000000000000000000000000000000120000000000000000000000000000000000000000000000000000000000000014000000000000000000000000000000000000000000000000000000000000000160003010011010000000000000000000000000007a1200000000000000000000000000000000000000000000000000000000000000000000000000000000000000000000000000000000000000000000000000000000000000000000000000000",
        "nonce": "0x118",
        "chainId": "0x89"
      },
      "additionalContracts": [],
      "isFixedGasLimit": false
    }
  ],
  "receipts": [
    {
      "status": "0x1",
      "cumulativeGasUsed": "0x4933b3",
      "logs": [
        {
          "address": "0x3d2bD0e15829AA5C362a4144FdF4A1112fa29B5c",
          "topics": [
            "0x8c5be1e5ebec7d5bd14f71427d1e84f3dd0314c0f7b2291e5b200ac8c7c3b925",
            "0x00000000000000000000000021af1185734d213d45c6236146fb81e2b0e8b821",
            "0x000000000000000000000000303b63e785b656ca56ea5a5c1634ab20c98895e1"
          ],
          "data": "0x000000000000000000000000000000000000000000000a968163f0a57b400000",
          "blockHash": "0xa90812e551c8baac940a0653b95fe787f4bba00431c12633792705b6be3217dd",
          "blockNumber": "0x3f58629",
          "transactionHash": "0xadaf189914a0a7a3deb6cb1ef59c1f3047c16dea934e6f1cb6d6cdf8d55542a2",
          "transactionIndex": "0x32",
          "logIndex": "0x9f",
          "removed": false
        },
        {
          "address": "0x0000000000000000000000000000000000001010",
          "topics": [
            "0x4dfe1bbbcf077ddc3e01291eea2d5c70c2b422b415d95645b9adcfd678cb1d63",
            "0x0000000000000000000000000000000000000000000000000000000000001010",
            "0x00000000000000000000000021af1185734d213d45c6236146fb81e2b0e8b821",
            "0x0000000000000000000000009ead03f7136fc6b4bdb0780b00a1c14ae5a8b6d0"
          ],
          "data": "0x00000000000000000000000000000000000000000000000000046ceb1062ebb30000000000000000000000000000000000000000000000009e63921548c1bcae0000000000000000000000000000000000000000000005cf685ea434eb42065b0000000000000000000000000000000000000000000000009e5f252a385ed0fb0000000000000000000000000000000000000000000005cf6863111ffba4f20e",
          "blockHash": "0xa90812e551c8baac940a0653b95fe787f4bba00431c12633792705b6be3217dd",
          "blockNumber": "0x3f58629",
          "transactionHash": "0xadaf189914a0a7a3deb6cb1ef59c1f3047c16dea934e6f1cb6d6cdf8d55542a2",
          "transactionIndex": "0x32",
          "logIndex": "0xa0",
          "removed": false
        }
      ],
      "logsBloom": "0x40000000000000000000000000080000000000000000000000000000000000000000000000001000000000000000000000008000000000000000000000200000000000042000000000000000000000800000000000000000000100000000000000000000000000000000000000000800000000000000000080004000000000000040000000040000000000000000000000000000000000000000000000000000220000000000000000000000000000000000000000000000000080080000004000000000000000000001000000000000000000000000000000120000000000000010000000000000000000000000000000000000000000000000000000100000",
      "type": "0x2",
      "transactionHash": "0xadaf189914a0a7a3deb6cb1ef59c1f3047c16dea934e6f1cb6d6cdf8d55542a2",
      "transactionIndex": "0x32",
      "blockHash": "0xa90812e551c8baac940a0653b95fe787f4bba00431c12633792705b6be3217dd",
      "blockNumber": "0x3f58629",
      "gasUsed": "0xb47d",
      "effectiveGasPrice": "0xa902e4d9f",
      "from": "0x21aF1185734D213D45C6236146fb81E2b0E8b821",
      "to": "0x3d2bD0e15829AA5C362a4144FdF4A1112fa29B5c",
      "contractAddress": null
    },
    {
      "status": "0x1",
      "cumulativeGasUsed": "0x4d6b49",
      "logs": [
        {
          "address": "0x0000000000000000000000000000000000001010",
          "topics": [
            "0xe6497e3ee548a3372136af2fcb0696db31fc6cf20260707645068bd3fe97f3c4",
            "0x0000000000000000000000000000000000000000000000000000000000001010",
            "0x00000000000000000000000021af1185734d213d45c6236146fb81e2b0e8b821",
            "0x000000000000000000000000303b63e785b656ca56ea5a5c1634ab20c98895e1"
          ],
          "data": "0x000000000000000000000000000000000000000000000000067c483885a7bb980000000000000000000000000000000000000000000000009e1e97f34d595818000000000000000000000000000000000000000000000000000000000000000000000000000000000000000000000000000000000000000097a24fbac7b19c80000000000000000000000000000000000000000000000000067c483885a7bb98",
          "blockHash": "0xa90812e551c8baac940a0653b95fe787f4bba00431c12633792705b6be3217dd",
          "blockNumber": "0x3f58629",
          "transactionHash": "0xa5f4bfb8132d9bfdb27e203893b6a9f084a64808ed660adcf84141242bffaca6",
          "transactionIndex": "0x33",
          "logIndex": "0xa1",
          "removed": false
        },
        {
          "address": "0x3d2bD0e15829AA5C362a4144FdF4A1112fa29B5c",
          "topics": [
            "0xddf252ad1be2c89b69c2b068fc378daa952ba7f163c4a11628f55a4df523b3ef",
            "0x00000000000000000000000021af1185734d213d45c6236146fb81e2b0e8b821",
            "0x000000000000000000000000303b63e785b656ca56ea5a5c1634ab20c98895e1"
          ],
          "data": "0x000000000000000000000000000000000000000000000a968163f0a57b400000",
          "blockHash": "0xa90812e551c8baac940a0653b95fe787f4bba00431c12633792705b6be3217dd",
          "blockNumber": "0x3f58629",
          "transactionHash": "0xa5f4bfb8132d9bfdb27e203893b6a9f084a64808ed660adcf84141242bffaca6",
          "transactionIndex": "0x33",
          "logIndex": "0xa2",
          "removed": false
        },
        {
          "address": "0x0000000000000000000000000000000000001010",
          "topics": [
            "0xe6497e3ee548a3372136af2fcb0696db31fc6cf20260707645068bd3fe97f3c4",
            "0x0000000000000000000000000000000000000000000000000000000000001010",
            "0x000000000000000000000000303b63e785b656ca56ea5a5c1634ab20c98895e1",
            "0x0000000000000000000000001a44076050125825900e736c501f859c50fe728c"
          ],
          "data": "0x000000000000000000000000000000000000000000000000067c483885a7bb98000000000000000000000000000000000000000000000000067c483885a7bb9800000000000000000000000000000000000000000000000000000000000000000000000000000000000000000000000000000000000000000000000000000000000000000000000000000000000000000000000000000000067c483885a7bb98",
          "blockHash": "0xa90812e551c8baac940a0653b95fe787f4bba00431c12633792705b6be3217dd",
          "blockNumber": "0x3f58629",
          "transactionHash": "0xa5f4bfb8132d9bfdb27e203893b6a9f084a64808ed660adcf84141242bffaca6",
          "transactionIndex": "0x33",
          "logIndex": "0xa3",
          "removed": false
        },
        {
          "address": "0x6c26c61a97006888ea9E4FA36584c7df57Cd9dA3",
          "topics": [
            "0x61ed099e74a97a1d7f8bb0952a88ca8b7b8ebd00c126ea04671f92a81213318a"
          ],
          "data": "0x000000000000000000000000cd3f213ad101472e1713c72b1697e727c803885b000000000000000000000000000000000000000000000000033c2c9203575db1",
          "blockHash": "0xa90812e551c8baac940a0653b95fe787f4bba00431c12633792705b6be3217dd",
          "blockNumber": "0x3f58629",
          "transactionHash": "0xa5f4bfb8132d9bfdb27e203893b6a9f084a64808ed660adcf84141242bffaca6",
          "transactionIndex": "0x33",
          "logIndex": "0xa4",
          "removed": false
        },
        {
          "address": "0x6c26c61a97006888ea9E4FA36584c7df57Cd9dA3",
          "topics": [
            "0x07ea52d82345d6e838192107d8fd7123d9c2ec8e916cd0aad13fd2b60db24644"
          ],
          "data": "0x000000000000000000000000000000000000000000000000000000000000006000000000000000000000000000000000000000000000000000000000000000c000000000000000000000000000000000000000000000000000000000000000e0000000000000000000000000000000000000000000000000000000000000000200000000000000000000000023de2fe932d9043291f870324b74f820e11dc81a000000000000000000000000d56e4eab23cb81f43168f9f45211eb027b9ac7cc0000000000000000000000000000000000000000000000000000000000000000000000000000000000000000000000000000000000000000000000000000000200000000000000000000000000000000000000000000000000460defcba5bb9200000000000000000000000000000000000000000000000002fa0db6b6aaa255",
          "blockHash": "0xa90812e551c8baac940a0653b95fe787f4bba00431c12633792705b6be3217dd",
          "blockNumber": "0x3f58629",
          "transactionHash": "0xa5f4bfb8132d9bfdb27e203893b6a9f084a64808ed660adcf84141242bffaca6",
          "transactionIndex": "0x33",
          "logIndex": "0xa5",
          "removed": false
        },
        {
          "address": "0x1a44076050125825900e736c501f859c50fE728c",
          "topics": [
            "0x1ab700d4ced0c005b164c0f789fd09fcbb0156d4c2041b8a3bfbcd961cd1567f"
          ],
          "data": "0x000000000000000000000000000000000000000000000000000000000000006000000000000000000000000000000000000000000000000000000000000001200000000000000000000000006c26c61a97006888ea9e4fa36584c7df57cd9da300000000000000000000000000000000000000000000000000000000000000990100000000000005b40000759d000000000000000000000000303b63e785b656ca56ea5a5c1634ab20c98895e1000075e8000000000000000000000000474f4cb764df9da079d94052fed39625c147c12c1e6dfd72d6bedb2ee64eb812fa65cfa8656b085c67322d6a79820f88fb2e985d000000000000000000000000810b93f0dec3a84aa3b8a210d033858fbee412040000000ba43b740000000000000000000000000000000000000000000000000000000000000000000000000000002a0003010011010000000000000000000000000001adb0010011010000000000000000000000000007a12000000000000000000000000000000000000000000000",
          "blockHash": "0xa90812e551c8baac940a0653b95fe787f4bba00431c12633792705b6be3217dd",
          "blockNumber": "0x3f58629",
          "transactionHash": "0xa5f4bfb8132d9bfdb27e203893b6a9f084a64808ed660adcf84141242bffaca6",
          "transactionIndex": "0x33",
          "logIndex": "0xa6",
          "removed": false
        },
        {
          "address": "0x0000000000000000000000000000000000001010",
          "topics": [
            "0xe6497e3ee548a3372136af2fcb0696db31fc6cf20260707645068bd3fe97f3c4",
            "0x0000000000000000000000000000000000000000000000000000000000001010",
            "0x0000000000000000000000001a44076050125825900e736c501f859c50fe728c",
            "0x0000000000000000000000006c26c61a97006888ea9e4fa36584c7df57cd9da3"
          ],
          "data": "0x000000000000000000000000000000000000000000000000067c483885a7bb98000000000000000000000000000000000000000000000000067c483885a7bb98000000000000000000000000000000000000000000001d1d632d55bb732fb5de0000000000000000000000000000000000000000000000000000000000000000000000000000000000000000000000000000000000001d1d69a99df3f8d77176",
          "blockHash": "0xa90812e551c8baac940a0653b95fe787f4bba00431c12633792705b6be3217dd",
          "blockNumber": "0x3f58629",
          "transactionHash": "0xa5f4bfb8132d9bfdb27e203893b6a9f084a64808ed660adcf84141242bffaca6",
          "transactionIndex": "0x33",
          "logIndex": "0xa7",
          "removed": false
        },
        {
          "address": "0x303b63e785B656ca56ea5A5C1634Ab20C98895e1",
          "topics": [
            "0x85496b760a4b7f8d66384b9df21b381f5d1b1e79f229a47aaf4c232edc2fe59a",
            "0x1e6dfd72d6bedb2ee64eb812fa65cfa8656b085c67322d6a79820f88fb2e985d",
            "0x00000000000000000000000021af1185734d213d45c6236146fb81e2b0e8b821"
          ],
          "data": "0x00000000000000000000000000000000000000000000000000000000000075e8000000000000000000000000000000000000000000000a968163f0a57b400000000000000000000000000000000000000000000000000a968163f0a57b400000",
          "blockHash": "0xa90812e551c8baac940a0653b95fe787f4bba00431c12633792705b6be3217dd",
          "blockNumber": "0x3f58629",
          "transactionHash": "0xa5f4bfb8132d9bfdb27e203893b6a9f084a64808ed660adcf84141242bffaca6",
          "transactionIndex": "0x33",
          "logIndex": "0xa8",
          "removed": false
        },
        {
          "address": "0x0000000000000000000000000000000000001010",
          "topics": [
            "0x4dfe1bbbcf077ddc3e01291eea2d5c70c2b422b415d95645b9adcfd678cb1d63",
            "0x0000000000000000000000000000000000000000000000000000000000001010",
            "0x00000000000000000000000021af1185734d213d45c6236146fb81e2b0e8b821",
            "0x0000000000000000000000009ead03f7136fc6b4bdb0780b00a1c14ae5a8b6d0"
          ],
          "data": "0x000000000000000000000000000000000000000000000000001a78854dceff0a0000000000000000000000000000000000000000000000009e5c1f8c53920a0b0000000000000000000000000000000000000000000005cf6863111ffba4f20e0000000000000000000000000000000000000000000000009e41a70705c30b010000000000000000000000000000000000000000000005cf687d89a54973f118",
          "blockHash": "0xa90812e551c8baac940a0653b95fe787f4bba00431c12633792705b6be3217dd",
          "blockNumber": "0x3f58629",
          "transactionHash": "0xa5f4bfb8132d9bfdb27e203893b6a9f084a64808ed660adcf84141242bffaca6",
          "transactionIndex": "0x33",
          "logIndex": "0xa9",
          "removed": false
        }
      ],
      "logsBloom": "0x400000000000000000000480000800000000000000000000000000040010000000000040000010000000001000020000000080000000000000000000000000000000820420100000004000080000008000000000000000000001000000000000080000000000000080000000000008000000000000100000802040100000000000400000000400000000080800000000000000000000000000000100000000002000000080000000001000000000000000000000004000000004c00800000040000000020000000000010000800000000000000000008010001a8000000000000000040000000000000000000000002000000000018000000000010000100000",
      "type": "0x2",
      "transactionHash": "0xa5f4bfb8132d9bfdb27e203893b6a9f084a64808ed660adcf84141242bffaca6",
      "transactionIndex": "0x33",
      "blockHash": "0xa90812e551c8baac940a0653b95fe787f4bba00431c12633792705b6be3217dd",
      "blockNumber": "0x3f58629",
      "gasUsed": "0x43796",
      "effectiveGasPrice": "0xa902e4d9f",
      "from": "0x21aF1185734D213D45C6236146fb81E2b0E8b821",
      "to": "0x303b63e785B656ca56ea5A5C1634Ab20C98895e1",
      "contractAddress": null
    }
  ],
  "libraries": [],
  "pending": [],
  "returns": {},
  "timestamp": 1736280734,
  "chain": 137,
  "commit": "9bc9372"
}