{
  "transactions": [
    {
      "hash": "0x091c6e1a0a36481f7042a787c1b277efeeaedd6703996b0299bff5218958a551",
      "transactionType": "CALL",
      "contractName": null,
      "contractAddress": "0x3d2bd0e15829aa5c362a4144fdf4a1112fa29b5c",
      "function": "approve(address,uint256)",
      "arguments": [
        "0x303b63e785B656ca56ea5A5C1634Ab20C98895e1",
        "10000000000000000000000"
      ],
      "transaction": {
        "from": "0x21af1185734d213d45c6236146fb81e2b0e8b821",
        "to": "0x3d2bd0e15829aa5c362a4144fdf4a1112fa29b5c",
        "gas": "0xf94b",
        "value": "0x0",
        "input": "0x095ea7b3000000000000000000000000303b63e785b656ca56ea5a5c1634ab20c98895e100000000000000000000000000000000000000000000021e19e0c9bab2400000",
        "nonce": "0x5e",
        "chainId": "0x89"
      },
      "additionalContracts": [],
      "isFixedGasLimit": false
    },
    {
      "hash": "0x860c4cc926f7183a706be0f320a6e0105ef2043298242f4fc7b26726a1d2108f",
      "transactionType": "CALL",
      "contractName": null,
      "contractAddress": "0x303b63e785b656ca56ea5a5c1634ab20c98895e1",
      "function": "send((uint32,bytes32,uint256,uint256,bytes,bytes,bytes),(uint256,uint256),address)",
      "arguments": [
        "(30184, 0x00000000000000000000000021af1185734d213d45c6236146fb81e2b0e8b821, 10000000000000000000000, 10000000000000000000000, 0x, 0x, 0x)",
        "(395770614057185710, 0)",
        "0x5b73C5498c1E3b4dbA84de0F1833c4a029d90519"
      ],
      "transaction": {
        "from": "0x21af1185734d213d45c6236146fb81e2b0e8b821",
        "to": "0x303b63e785b656ca56ea5a5c1634ab20c98895e1",
        "gas": "0x67656",
        "value": "0x57e0f46cf6ab1ae",
        "input": "0xc7c7f5b30000000000000000000000000000000000000000000000000000000000000080000000000000000000000000000000000000000000000000057e0f46cf6ab1ae00000000000000000000000000000000000000000000000000000000000000000000000000000000000000005b73c5498c1e3b4dba84de0f1833c4a029d9051900000000000000000000000000000000000000000000000000000000000075e800000000000000000000000021af1185734d213d45c6236146fb81e2b0e8b82100000000000000000000000000000000000000000000021e19e0c9bab240000000000000000000000000000000000000000000000000021e19e0c9bab240000000000000000000000000000000000000000000000000000000000000000000e000000000000000000000000000000000000000000000000000000000000001000000000000000000000000000000000000000000000000000000000000000120000000000000000000000000000000000000000000000000000000000000000000000000000000000000000000000000000000000000000000000000000000000000000000000000000000000000000000000000000000000000000000000000",
        "nonce": "0x5f",
        "chainId": "0x89"
      },
      "additionalContracts": [],
      "isFixedGasLimit": false
    }
  ],
  "receipts": [
    {
      "status": "0x1",
      "cumulativeGasUsed": "0x50b082",
      "logs": [
        {
          "address": "0x3d2bd0e15829aa5c362a4144fdf4a1112fa29b5c",
          "topics": [
            "0x8c5be1e5ebec7d5bd14f71427d1e84f3dd0314c0f7b2291e5b200ac8c7c3b925",
            "0x00000000000000000000000021af1185734d213d45c6236146fb81e2b0e8b821",
            "0x000000000000000000000000303b63e785b656ca56ea5a5c1634ab20c98895e1"
          ],
          "data": "0x00000000000000000000000000000000000000000000021e19e0c9bab2400000",
          "blockHash": "0xc67eb7c19df4b3101944ebe5d853890b4740a4f7747f7ca9d4668fe67a08ac85",
          "blockNumber": "0x3ba76ea",
          "transactionHash": "0x091c6e1a0a36481f7042a787c1b277efeeaedd6703996b0299bff5218958a551",
          "transactionIndex": "0x21",
          "logIndex": "0xab",
          "removed": false
        },
        {
          "address": "0x0000000000000000000000000000000000001010",
          "topics": [
            "0x4dfe1bbbcf077ddc3e01291eea2d5c70c2b422b415d95645b9adcfd678cb1d63",
            "0x0000000000000000000000000000000000000000000000000000000000001010",
            "0x00000000000000000000000021af1185734d213d45c6236146fb81e2b0e8b821",
            "0x000000000000000000000000365b3d473d137995ebf776e46a8ad233006c0049"
          ],
          "data": "0x0000000000000000000000000000000000000000000000000004ecb23267acca00000000000000000000000000000000000000000000000011c9b0185047c537000000000000000000000000000000000000000000000085a4ef8a9a4e6826f600000000000000000000000000000000000000000000000011c4c3661de0186d000000000000000000000000000000000000000000000085a4f4774c80cfd3c0",
          "blockHash": "0xc67eb7c19df4b3101944ebe5d853890b4740a4f7747f7ca9d4668fe67a08ac85",
          "blockNumber": "0x3ba76ea",
          "transactionHash": "0x091c6e1a0a36481f7042a787c1b277efeeaedd6703996b0299bff5218958a551",
          "transactionIndex": "0x21",
          "logIndex": "0xac",
          "removed": false
        }
      ],
      "logsBloom": "0x40000000000000000000000000080000000000000000000000000000000000000000000000001000000000000000000000008000000000000000000000200000000000042000000000000000000000800010000000000000000100400000000000000000000000000000000000000800000000000000000080004000000000000000000000000000000000000000000000000000000000000000000000000000220000000000000000000000000000000000000000000000000080080000004000000000000000000001000000000000000000000000000000100000000000000010000000000000000000000000000020000000000000000000000000100000",
      "type": "0x2",
      "transactionHash": "0x091c6e1a0a36481f7042a787c1b277efeeaedd6703996b0299bff5218958a551",
      "transactionIndex": "0x21",
      "blockHash": "0xc67eb7c19df4b3101944ebe5d853890b4740a4f7747f7ca9d4668fe67a08ac85",
      "blockNumber": "0x3ba76ea",
      "gasUsed": "0xb47d",
      "effectiveGasPrice": "0x6fc23ac6f",
      "from": "0x21af1185734d213d45c6236146fb81e2b0e8b821",
      "to": "0x3d2bd0e15829aa5c362a4144fdf4a1112fa29b5c",
      "contractAddress": null
    },
    {
      "status": "0x1",
      "cumulativeGasUsed": "0x555e38",
      "logs": [
        {
          "address": "0x0000000000000000000000000000000000001010",
          "topics": [
            "0xe6497e3ee548a3372136af2fcb0696db31fc6cf20260707645068bd3fe97f3c4",
            "0x0000000000000000000000000000000000000000000000000000000000001010",
            "0x00000000000000000000000021af1185734d213d45c6236146fb81e2b0e8b821",
            "0x000000000000000000000000303b63e785b656ca56ea5a5c1634ab20c98895e1"
          ],
          "data": "0x000000000000000000000000000000000000000000000000057e0f46cf6ab1ae00000000000000000000000000000000000000000000000011979ffeed8d6fba00000000000000000000000000000000000000000000000000000000000000000000000000000000000000000000000000000000000000000c1990b81e22be0c000000000000000000000000000000000000000000000000057e0f46cf6ab1ae",
          "blockHash": "0xc67eb7c19df4b3101944ebe5d853890b4740a4f7747f7ca9d4668fe67a08ac85",
          "blockNumber": "0x3ba76ea",
          "transactionHash": "0x860c4cc926f7183a706be0f320a6e0105ef2043298242f4fc7b26726a1d2108f",
          "transactionIndex": "0x22",
          "logIndex": "0xad",
          "removed": false
        },
        {
          "address": "0x3d2bd0e15829aa5c362a4144fdf4a1112fa29b5c",
          "topics": [
            "0xddf252ad1be2c89b69c2b068fc378daa952ba7f163c4a11628f55a4df523b3ef",
            "0x00000000000000000000000021af1185734d213d45c6236146fb81e2b0e8b821",
            "0x000000000000000000000000303b63e785b656ca56ea5a5c1634ab20c98895e1"
          ],
          "data": "0x00000000000000000000000000000000000000000000021e19e0c9bab2400000",
          "blockHash": "0xc67eb7c19df4b3101944ebe5d853890b4740a4f7747f7ca9d4668fe67a08ac85",
          "blockNumber": "0x3ba76ea",
          "transactionHash": "0x860c4cc926f7183a706be0f320a6e0105ef2043298242f4fc7b26726a1d2108f",
          "transactionIndex": "0x22",
          "logIndex": "0xae",
          "removed": false
        },
        {
          "address": "0x0000000000000000000000000000000000001010",
          "topics": [
            "0xe6497e3ee548a3372136af2fcb0696db31fc6cf20260707645068bd3fe97f3c4",
            "0x0000000000000000000000000000000000000000000000000000000000001010",
            "0x000000000000000000000000303b63e785b656ca56ea5a5c1634ab20c98895e1",
            "0x0000000000000000000000001a44076050125825900e736c501f859c50fe728c"
          ],
          "data": "0x000000000000000000000000000000000000000000000000057e0f46cf6ab1ae000000000000000000000000000000000000000000000000057e0f46cf6ab1ae00000000000000000000000000000000000000000000000000000000000000000000000000000000000000000000000000000000000000000000000000000000000000000000000000000000000000000000000000000000057e0f46cf6ab1ae",
          "blockHash": "0xc67eb7c19df4b3101944ebe5d853890b4740a4f7747f7ca9d4668fe67a08ac85",
          "blockNumber": "0x3ba76ea",
          "transactionHash": "0x860c4cc926f7183a706be0f320a6e0105ef2043298242f4fc7b26726a1d2108f",
          "transactionIndex": "0x22",
          "logIndex": "0xaf",
          "removed": false
        },
        {
          "address": "0x6c26c61a97006888ea9e4fa36584c7df57cd9da3",
          "topics": [
            "0x61ed099e74a97a1d7f8bb0952a88ca8b7b8ebd00c126ea04671f92a81213318a"
          ],
          "data": "0x000000000000000000000000cd3f213ad101472e1713c72b1697e727c803885b00000000000000000000000000000000000000000000000001e2f3a62d3bdde3",
          "blockHash": "0xc67eb7c19df4b3101944ebe5d853890b4740a4f7747f7ca9d4668fe67a08ac85",
          "blockNumber": "0x3ba76ea",
          "transactionHash": "0x860c4cc926f7183a706be0f320a6e0105ef2043298242f4fc7b26726a1d2108f",
          "transactionIndex": "0x22",
          "logIndex": "0xb0",
          "removed": false
        },
        {
          "address": "0x6c26c61a97006888ea9e4fa36584c7df57cd9da3",
          "topics": [
            "0x07ea52d82345d6e838192107d8fd7123d9c2ec8e916cd0aad13fd2b60db24644"
          ],
          "data": "0x000000000000000000000000000000000000000000000000000000000000006000000000000000000000000000000000000000000000000000000000000000c000000000000000000000000000000000000000000000000000000000000000e0000000000000000000000000000000000000000000000000000000000000000200000000000000000000000023de2fe932d9043291f870324b74f820e11dc81a000000000000000000000000d56e4eab23cb81f43168f9f45211eb027b9ac7cc00000000000000000000000000000000000000000000000000000000000000000000000000000000000000000000000000000000000000000000000000000002000000000000000000000000000000000000000000000000001e76fa155e3b32000000000000000000000000000000000000000000000000037ca4a68cd09899",
          "blockHash": "0xc67eb7c19df4b3101944ebe5d853890b4740a4f7747f7ca9d4668fe67a08ac85",
          "blockNumber": "0x3ba76ea",
          "transactionHash": "0x860c4cc926f7183a706be0f320a6e0105ef2043298242f4fc7b26726a1d2108f",
          "transactionIndex": "0x22",
          "logIndex": "0xb1",
          "removed": false
        },
        {
          "address": "0x1a44076050125825900e736c501f859c50fe728c",
          "topics": [
            "0x1ab700d4ced0c005b164c0f789fd09fcbb0156d4c2041b8a3bfbcd961cd1567f"
          ],
          "data": "0x000000000000000000000000000000000000000000000000000000000000006000000000000000000000000000000000000000000000000000000000000001200000000000000000000000006c26c61a97006888ea9e4fa36584c7df57cd9da300000000000000000000000000000000000000000000000000000000000000990100000000000000010000759d000000000000000000000000303b63e785b656ca56ea5a5c1634ab20c98895e1000075e8000000000000000000000000474f4cb764df9da079d94052fed39625c147c12c734ea011af7c5d04c3b54f253fc6b1b31e90f4ea812c93922f5a42e5370160ab00000000000000000000000021af1185734d213d45c6236146fb81e2b0e8b82100000002540be4000000000000000000000000000000000000000000000000000000000000000000000000000000160003010011010000000000000000000000000001388000000000000000000000",
          "blockHash": "0xc67eb7c19df4b3101944ebe5d853890b4740a4f7747f7ca9d4668fe67a08ac85",
          "blockNumber": "0x3ba76ea",
          "transactionHash": "0x860c4cc926f7183a706be0f320a6e0105ef2043298242f4fc7b26726a1d2108f",
          "transactionIndex": "0x22",
          "logIndex": "0xb2",
          "removed": false
        },
        {
          "address": "0x0000000000000000000000000000000000001010",
          "topics": [
            "0xe6497e3ee548a3372136af2fcb0696db31fc6cf20260707645068bd3fe97f3c4",
            "0x0000000000000000000000000000000000000000000000000000000000001010",
            "0x0000000000000000000000001a44076050125825900e736c501f859c50fe728c",
            "0x0000000000000000000000006c26c61a97006888ea9e4fa36584c7df57cd9da3"
          ],
          "data": "0x000000000000000000000000000000000000000000000000057e0f46cf6ab1ae000000000000000000000000000000000000000000000000057e0f46cf6ab1ae000000000000000000000000000000000000000000000305cdb91c59cc5185180000000000000000000000000000000000000000000000000000000000000000000000000000000000000000000000000000000000000305d3372ba09bbc36c6",
          "blockHash": "0xc67eb7c19df4b3101944ebe5d853890b4740a4f7747f7ca9d4668fe67a08ac85",
          "blockNumber": "0x3ba76ea",
          "transactionHash": "0x860c4cc926f7183a706be0f320a6e0105ef2043298242f4fc7b26726a1d2108f",
          "transactionIndex": "0x22",
          "logIndex": "0xb3",
          "removed": false
        },
        {
          "address": "0x303b63e785b656ca56ea5a5c1634ab20c98895e1",
          "topics": [
            "0x85496b760a4b7f8d66384b9df21b381f5d1b1e79f229a47aaf4c232edc2fe59a",
            "0x734ea011af7c5d04c3b54f253fc6b1b31e90f4ea812c93922f5a42e5370160ab",
            "0x00000000000000000000000021af1185734d213d45c6236146fb81e2b0e8b821"
          ],
          "data": "0x00000000000000000000000000000000000000000000000000000000000075e800000000000000000000000000000000000000000000021e19e0c9bab240000000000000000000000000000000000000000000000000021e19e0c9bab2400000",
          "blockHash": "0xc67eb7c19df4b3101944ebe5d853890b4740a4f7747f7ca9d4668fe67a08ac85",
          "blockNumber": "0x3ba76ea",
          "transactionHash": "0x860c4cc926f7183a706be0f320a6e0105ef2043298242f4fc7b26726a1d2108f",
          "transactionIndex": "0x22",
          "logIndex": "0xb4",
          "removed": false
        },
        {
          "address": "0x0000000000000000000000000000000000001010",
          "topics": [
            "0x4dfe1bbbcf077ddc3e01291eea2d5c70c2b422b415d95645b9adcfd678cb1d63",
            "0x0000000000000000000000000000000000000000000000000000000000001010",
            "0x00000000000000000000000021af1185734d213d45c6236146fb81e2b0e8b821",
            "0x000000000000000000000000365b3d473d137995ebf776e46a8ad233006c0049"
          ],
          "data": "0x0000000000000000000000000000000000000000000000000020adea0cec7ecc00000000000000000000000000000000000000000000000011c4c3661d9e8704000000000000000000000000000000000000000000000085a4f4774c80cfd3c000000000000000000000000000000000000000000000000011a4157c10b20838000000000000000000000000000000000000000000000085a51525368dbc528c",
          "blockHash": "0xc67eb7c19df4b3101944ebe5d853890b4740a4f7747f7ca9d4668fe67a08ac85",
          "blockNumber": "0x3ba76ea",
          "transactionHash": "0x860c4cc926f7183a706be0f320a6e0105ef2043298242f4fc7b26726a1d2108f",
          "transactionIndex": "0x22",
          "logIndex": "0xb5",
          "removed": false
        }
      ],
      "logsBloom": "0x400020000000000000000480000800000000000000000000000000040010000000000040000010000000001000020000000080000000000000000000000000000000820420100000004000080000008000100000000000000001004000000000000000000000000080000000000008000000000000100000802040100000000000000000000000000000000800000000000000200000000000800100000000002000000080000000001000000000000000000000004000000004c0080000004000000002000000000001000080000000000000000000801000188000000000000000040000000000000000000000002020000000018000000000000000100000",
      "type": "0x2",
      "transactionHash": "0x860c4cc926f7183a706be0f320a6e0105ef2043298242f4fc7b26726a1d2108f",
      "transactionIndex": "0x22",
      "blockHash": "0xc67eb7c19df4b3101944ebe5d853890b4740a4f7747f7ca9d4668fe67a08ac85",
      "blockNumber": "0x3ba76ea",
      "gasUsed": "0x4adb6",
      "effectiveGasPrice": "0x6fc23ac6f",
      "from": "0x21af1185734d213d45c6236146fb81e2b0e8b821",
      "to": "0x303b63e785b656ca56ea5a5c1634ab20c98895e1",
      "contractAddress": null
    }
  ],
  "libraries": [],
  "pending": [],
  "returns": {},
  "timestamp": 1727894200,
  "chain": 137,
  "commit": "d9dcac6"
}