{
  "transactions": [
    {
      "hash": "0x27d47bd7c8c49ae9834b394a1f239d2e9c4b4a4f7b54ab11436b30bdba15aa27",
      "transactionType": "CALL",
      "contractName": null,
      "contractAddress": "0x3d2bD0e15829AA5C362a4144FdF4A1112fa29B5c",
      "function": "approve(address,uint256)",
      "arguments": [
        "0x303b63e785B656ca56ea5A5C1634Ab20C98895e1",
        "500000000000000000000000"
      ],
      "transaction": {
        "from": "0x21aF1185734D213D45C6236146fb81E2b0E8b821",
        "to": "0x3d2bD0e15829AA5C362a4144FdF4A1112fa29B5c",
        "gas": "0xf94b",
        "value": "0x0",
        "input": "0x095ea7b3000000000000000000000000303b63e785b656ca56ea5a5c1634ab20c98895e10000000000000000000000000000000000000000000069e10de76676d0800000",
        "nonce": "0x128",
        "chainId": "0x89"
      },
      "additionalContracts": [],
      "isFixedGasLimit": false
    },
    {
      "hash": "0x80c7c0b9e9386b5c68c03c63563145d66f9f7bdb076c97146f8fa6e716a68c6c",
      "transactionType": "CALL",
      "contractName": "BonsaiOFTAdapter",
      "contractAddress": "0x303b63e785B656ca56ea5A5C1634Ab20C98895e1",
      "function": "send((uint32,bytes32,uint256,uint256,bytes,bytes,bytes),(uint256,uint256),address)",
      "arguments": [
        "(30184, 0x00000000000000000000000021af1185734d213d45c6236146fb81e2b0e8b821, 500000000000000000000000, 500000000000000000000000, 0x0003010011010000000000000000000000000007a120, 0x, 0x)",
        "(391949726776166943, 0)",
        "0x5b73C5498c1E3b4dbA84de0F1833c4a029d90519"
      ],
      "transaction": {
        "from": "0x21aF1185734D213D45C6236146fb81E2b0E8b821",
        "to": "0x303b63e785B656ca56ea5A5C1634Ab20C98895e1",
        "gas": "0x5d32d",
        "value": "0x5707c332a4e0a1f",
        "input": "0xc7c7f5b3000000000000000000000000000000000000000000000000000000000000008000000000000000000000000000000000000000000000000005707c332a4e0a1f00000000000000000000000000000000000000000000000000000000000000000000000000000000000000005b73c5498c1e3b4dba84de0f1833c4a029d9051900000000000000000000000000000000000000000000000000000000000075e800000000000000000000000021af1185734d213d45c6236146fb81e2b0e8b8210000000000000000000000000000000000000000000069e10de76676d08000000000000000000000000000000000000000000000000069e10de76676d080000000000000000000000000000000000000000000000000000000000000000000e00000000000000000000000000000000000000000000000000000000000000120000000000000000000000000000000000000000000000000000000000000014000000000000000000000000000000000000000000000000000000000000000160003010011010000000000000000000000000007a1200000000000000000000000000000000000000000000000000000000000000000000000000000000000000000000000000000000000000000000000000000000000000000000000000000",
        "nonce": "0x129",
        "chainId": "0x89"
      },
      "additionalContracts": [],
      "isFixedGasLimit": false
    },
    {
      "hash": "0xaa8a07ee9c50e000f33ee979464fb31fd7a43305a5d4f8bca7adb96eae5d82d9",
      "transactionType": "CALL",
      "contractName": null,
      "contractAddress": "0x3d2bD0e15829AA5C362a4144FdF4A1112fa29B5c",
      "function": "approve(address,uint256)",
      "arguments": [
        "0x303b63e785B656ca56ea5A5C1634Ab20C98895e1",
        "500000000000000000000000"
      ],
      "transaction": {
        "from": "0x21aF1185734D213D45C6236146fb81E2b0E8b821",
        "to": "0x3d2bD0e15829AA5C362a4144FdF4A1112fa29B5c",
        "gas": "0xf94b",
        "value": "0x0",
        "input": "0x095ea7b3000000000000000000000000303b63e785b656ca56ea5a5c1634ab20c98895e10000000000000000000000000000000000000000000069e10de76676d0800000",
        "nonce": "0x12a",
        "chainId": "0x89"
      },
      "additionalContracts": [],
      "isFixedGasLimit": false
    },
    {
      "hash": "0x9463c581c83bb3e33084d1a01280d434e67c8b6878eaa4ab2c4e00a06f484984",
      "transactionType": "CALL",
      "contractName": "BonsaiOFTAdapter",
      "contractAddress": "0x303b63e785B656ca56ea5A5C1634Ab20C98895e1",
      "function": "send((uint32,bytes32,uint256,uint256,bytes,bytes,bytes),(uint256,uint256),address)",
      "arguments": [
        "(30184, 0x00000000000000000000000021af1185734d213d45c6236146fb81e2b0e8b821, 500000000000000000000000, 500000000000000000000000, 0x0003010011010000000000000000000000000007a120, 0x, 0x)",
        "(391949726776166943, 0)",
        "0x5b73C5498c1E3b4dbA84de0F1833c4a029d90519"
      ],
      "transaction": {
        "from": "0x21aF1185734D213D45C6236146fb81E2b0E8b821",
        "to": "0x303b63e785B656ca56ea5A5C1634Ab20C98895e1",
        "gas": "0x5d32d",
        "value": "0x5707c332a4e0a1f",
        "input": "0xc7c7f5b3000000000000000000000000000000000000000000000000000000000000008000000000000000000000000000000000000000000000000005707c332a4e0a1f00000000000000000000000000000000000000000000000000000000000000000000000000000000000000005b73c5498c1e3b4dba84de0f1833c4a029d9051900000000000000000000000000000000000000000000000000000000000075e800000000000000000000000021af1185734d213d45c6236146fb81e2b0e8b8210000000000000000000000000000000000000000000069e10de76676d08000000000000000000000000000000000000000000000000069e10de76676d080000000000000000000000000000000000000000000000000000000000000000000e00000000000000000000000000000000000000000000000000000000000000120000000000000000000000000000000000000000000000000000000000000014000000000000000000000000000000000000000000000000000000000000000160003010011010000000000000000000000000007a1200000000000000000000000000000000000000000000000000000000000000000000000000000000000000000000000000000000000000000000000000000000000000000000000000000",
        "nonce": "0x12b",
        "chainId": "0x89"
      },
      "additionalContracts": [],
      "isFixedGasLimit": false
    }
  ],
  "receipts": [
    {
      "status": "0x1",
      "cumulativeGasUsed": "0x8440e1",
      "logs": [
        {
          "address": "0x3d2bD0e15829AA5C362a4144FdF4A1112fa29B5c",
          "topics": [
            "0x8c5be1e5ebec7d5bd14f71427d1e84f3dd0314c0f7b2291e5b200ac8c7c3b925",
            "0x00000000000000000000000021af1185734d213d45c6236146fb81e2b0e8b821",
            "0x000000000000000000000000303b63e785b656ca56ea5a5c1634ab20c98895e1"
          ],
          "data": "0x0000000000000000000000000000000000000000000069e10de76676d0800000",
          "blockHash": "0x38d4420ecc932d439415195131dae1f3214b08cf6763de1eecb8d9879424a014",
          "blockNumber": "0x402c54a",
          "transactionHash": "0x27d47bd7c8c49ae9834b394a1f239d2e9c4b4a4f7b54ab11436b30bdba15aa27",
          "transactionIndex": "0x44",
          "logIndex": "0x105",
          "removed": false
        },
        {
          "address": "0x0000000000000000000000000000000000001010",
          "topics": [
            "0x4dfe1bbbcf077ddc3e01291eea2d5c70c2b422b415d95645b9adcfd678cb1d63",
            "0x0000000000000000000000000000000000000000000000000000000000001010",
            "0x00000000000000000000000021af1185734d213d45c6236146fb81e2b0e8b821",
            "0x00000000000000000000000067b94473d81d0cd00849d563c94d0432ac988b49"
          ],
          "data": "0x0000000000000000000000000000000000000000000000000004a7816dbb72550000000000000000000000000000000000000000000000003090565abaa83bf800000000000000000000000000000000000000000000029e018daf60d6903c6e000000000000000000000000000000000000000000000000308baed94cecc9a300000000000000000000000000000000000000000000029e019256e2444baec3",
          "blockHash": "0x38d4420ecc932d439415195131dae1f3214b08cf6763de1eecb8d9879424a014",
          "blockNumber": "0x402c54a",
          "transactionHash": "0x27d47bd7c8c49ae9834b394a1f239d2e9c4b4a4f7b54ab11436b30bdba15aa27",
          "transactionIndex": "0x44",
          "logIndex": "0x106",
          "removed": false
        }
      ],
      "logsBloom": "0x40000000000000000000000000080000000000000000000000000000000000000000000000001000000000000000000000008000000000000000000000200000000000042000000000000000000000800000000000000000000100000000000000000000000000000000000000000800000000000000000080004000000000000000000000000000000000000000000000000000000000000000000000000000220000000000000000000000000000000000000000000000000080080000004000800000000000000001000000008000000000000000000000100000000000000010020000000000000000000000000000000000000000000000000000100000",
      "type": "0x2",
      "transactionHash": "0x27d47bd7c8c49ae9834b394a1f239d2e9c4b4a4f7b54ab11436b30bdba15aa27",
      "transactionIndex": "0x44",
      "blockHash": "0x38d4420ecc932d439415195131dae1f3214b08cf6763de1eecb8d9879424a014",
      "blockNumber": "0x402c54a",
      "gasUsed": "0xb47d",
      "effectiveGasPrice": "0x69a006a04",
      "from": "0x21aF1185734D213D45C6236146fb81E2b0E8b821",
      "to": "0x3d2bD0e15829AA5C362a4144FdF4A1112fa29B5c",
      "contractAddress": null
    },
    {
      "status": "0x1",
      "cumulativeGasUsed": "0x887877",
      "logs": [
        {
          "address": "0x0000000000000000000000000000000000001010",
          "topics": [
            "0xe6497e3ee548a3372136af2fcb0696db31fc6cf20260707645068bd3fe97f3c4",
            "0x0000000000000000000000000000000000000000000000000000000000001010",
            "0x00000000000000000000000021af1185734d213d45c6236146fb81e2b0e8b821",
            "0x000000000000000000000000303b63e785b656ca56ea5a5c1634ab20c98895e1"
          ],
          "data": "0x00000000000000000000000000000000000000000000000005707c332a4e0a1f00000000000000000000000000000000000000000000000030653abfc261b95000000000000000000000000000000000000000000000000000000000000000000000000000000000000000000000000000000000000000002af4be8c9813af3100000000000000000000000000000000000000000000000005707c332a4e0a1f",
          "blockHash": "0x38d4420ecc932d439415195131dae1f3214b08cf6763de1eecb8d9879424a014",
          "blockNumber": "0x402c54a",
          "transactionHash": "0x80c7c0b9e9386b5c68c03c63563145d66f9f7bdb076c97146f8fa6e716a68c6c",
          "transactionIndex": "0x45",
          "logIndex": "0x107",
          "removed": false
        },
        {
          "address": "0x3d2bD0e15829AA5C362a4144FdF4A1112fa29B5c",
          "topics": [
            "0xddf252ad1be2c89b69c2b068fc378daa952ba7f163c4a11628f55a4df523b3ef",
            "0x00000000000000000000000021af1185734d213d45c6236146fb81e2b0e8b821",
            "0x000000000000000000000000303b63e785b656ca56ea5a5c1634ab20c98895e1"
          ],
          "data": "0x0000000000000000000000000000000000000000000069e10de76676d0800000",
          "blockHash": "0x38d4420ecc932d439415195131dae1f3214b08cf6763de1eecb8d9879424a014",
          "blockNumber": "0x402c54a",
          "transactionHash": "0x80c7c0b9e9386b5c68c03c63563145d66f9f7bdb076c97146f8fa6e716a68c6c",
          "transactionIndex": "0x45",
          "logIndex": "0x108",
          "removed": false
        },
        {
          "address": "0x0000000000000000000000000000000000001010",
          "topics": [
            "0xe6497e3ee548a3372136af2fcb0696db31fc6cf20260707645068bd3fe97f3c4",
            "0x0000000000000000000000000000000000000000000000000000000000001010",
            "0x000000000000000000000000303b63e785b656ca56ea5a5c1634ab20c98895e1",
            "0x0000000000000000000000001a44076050125825900e736c501f859c50fe728c"
          ],
          "data": "0x00000000000000000000000000000000000000000000000005707c332a4e0a1f00000000000000000000000000000000000000000000000005707c332a4e0a1f0000000000000000000000000000000000000000000000000000000000000000000000000000000000000000000000000000000000000000000000000000000000000000000000000000000000000000000000000000000005707c332a4e0a1f",
          "blockHash": "0x38d4420ecc932d439415195131dae1f3214b08cf6763de1eecb8d9879424a014",
          "blockNumber": "0x402c54a",
          "transactionHash": "0x80c7c0b9e9386b5c68c03c63563145d66f9f7bdb076c97146f8fa6e716a68c6c",
          "transactionIndex": "0x45",
          "logIndex": "0x109",
          "removed": false
        },
        {
          "address": "0x6c26c61a97006888ea9E4FA36584c7df57Cd9dA3",
          "topics": [
            "0x61ed099e74a97a1d7f8bb0952a88ca8b7b8ebd00c126ea04671f92a81213318a"
          ],
          "data": "0x000000000000000000000000cd3f213ad101472e1713c72b1697e727c803885b00000000000000000000000000000000000000000000000001f757aebf591703",
          "blockHash": "0x38d4420ecc932d439415195131dae1f3214b08cf6763de1eecb8d9879424a014",
          "blockNumber": "0x402c54a",
          "transactionHash": "0x80c7c0b9e9386b5c68c03c63563145d66f9f7bdb076c97146f8fa6e716a68c6c",
          "transactionIndex": "0x45",
          "logIndex": "0x10a",
          "removed": false
        },
        {
          "address": "0x6c26c61a97006888ea9E4FA36584c7df57Cd9dA3",
          "topics": [
            "0x07ea52d82345d6e838192107d8fd7123d9c2ec8e916cd0aad13fd2b60db24644"
          ],
          "data": "0x000000000000000000000000000000000000000000000000000000000000006000000000000000000000000000000000000000000000000000000000000000c000000000000000000000000000000000000000000000000000000000000000e0000000000000000000000000000000000000000000000000000000000000000200000000000000000000000023de2fe932d9043291f870324b74f820e11dc81a000000000000000000000000d56e4eab23cb81f43168f9f45211eb027b9ac7cc000000000000000000000000000000000000000000000000000000000000000000000000000000000000000000000000000000000000000000000000000000020000000000000000000000000000000000000000000000000009fd80ff06f9ed000000000000000000000000000000000000000000000000036f27036bedf92f",
          "blockHash": "0x38d4420ecc932d439415195131dae1f3214b08cf6763de1eecb8d9879424a014",
          "blockNumber": "0x402c54a",
          "transactionHash": "0x80c7c0b9e9386b5c68c03c63563145d66f9f7bdb076c97146f8fa6e716a68c6c",
          "transactionIndex": "0x45",
          "logIndex": "0x10b",
          "removed": false
        },
        {
          "address": "0x1a44076050125825900e736c501f859c50fE728c",
          "topics": [
            "0x1ab700d4ced0c005b164c0f789fd09fcbb0156d4c2041b8a3bfbcd961cd1567f"
          ],
          "data": "0x000000000000000000000000000000000000000000000000000000000000006000000000000000000000000000000000000000000000000000000000000001200000000000000000000000006c26c61a97006888ea9e4fa36584c7df57cd9da300000000000000000000000000000000000000000000000000000000000000990100000000000006640000759d000000000000000000000000303b63e785b656ca56ea5a5c1634ab20c98895e1000075e8000000000000000000000000474f4cb764df9da079d94052fed39625c147c12c308d6843a36bbf7cd361431ff4655201600824b799ec4455396877efb32e660a00000000000000000000000021af1185734d213d45c6236146fb81e2b0e8b821000000746a52880000000000000000000000000000000000000000000000000000000000000000000000000000002a0003010011010000000000000000000000000001adb0010011010000000000000000000000000007a12000000000000000000000000000000000000000000000",
          "blockHash": "0x38d4420ecc932d439415195131dae1f3214b08cf6763de1eecb8d9879424a014",
          "blockNumber": "0x402c54a",
          "transactionHash": "0x80c7c0b9e9386b5c68c03c63563145d66f9f7bdb076c97146f8fa6e716a68c6c",
          "transactionIndex": "0x45",
          "logIndex": "0x10c",
          "removed": false
        },
        {
          "address": "0x0000000000000000000000000000000000001010",
          "topics": [
            "0xe6497e3ee548a3372136af2fcb0696db31fc6cf20260707645068bd3fe97f3c4",
            "0x0000000000000000000000000000000000000000000000000000000000001010",
            "0x0000000000000000000000001a44076050125825900e736c501f859c50fe728c",
            "0x0000000000000000000000006c26c61a97006888ea9e4fa36584c7df57cd9da3"
          ],
          "data": "0x00000000000000000000000000000000000000000000000005707c332a4e0a1f00000000000000000000000000000000000000000000000005707c332a4e0a1f000000000000000000000000000000000000000000000c31682bf8bab947638c0000000000000000000000000000000000000000000000000000000000000000000000000000000000000000000000000000000000000c316d9c74ede3956dab",
          "blockHash": "0x38d4420ecc932d439415195131dae1f3214b08cf6763de1eecb8d9879424a014",
          "blockNumber": "0x402c54a",
          "transactionHash": "0x80c7c0b9e9386b5c68c03c63563145d66f9f7bdb076c97146f8fa6e716a68c6c",
          "transactionIndex": "0x45",
          "logIndex": "0x10d",
          "removed": false
        },
        {
          "address": "0x303b63e785B656ca56ea5A5C1634Ab20C98895e1",
          "topics": [
            "0x85496b760a4b7f8d66384b9df21b381f5d1b1e79f229a47aaf4c232edc2fe59a",
            "0x308d6843a36bbf7cd361431ff4655201600824b799ec4455396877efb32e660a",
            "0x00000000000000000000000021af1185734d213d45c6236146fb81e2b0e8b821"
          ],
          "data": "0x00000000000000000000000000000000000000000000000000000000000075e80000000000000000000000000000000000000000000069e10de76676d08000000000000000000000000000000000000000000000000069e10de76676d0800000",
          "blockHash": "0x38d4420ecc932d439415195131dae1f3214b08cf6763de1eecb8d9879424a014",
          "blockNumber": "0x402c54a",
          "transactionHash": "0x80c7c0b9e9386b5c68c03c63563145d66f9f7bdb076c97146f8fa6e716a68c6c",
          "transactionIndex": "0x45",
          "logIndex": "0x10e",
          "removed": false
        },
        {
          "address": "0x0000000000000000000000000000000000001010",
          "topics": [
            "0x4dfe1bbbcf077ddc3e01291eea2d5c70c2b422b415d95645b9adcfd678cb1d63",
            "0x0000000000000000000000000000000000000000000000000000000000001010",
            "0x00000000000000000000000021af1185734d213d45c6236146fb81e2b0e8b821",
            "0x00000000000000000000000067b94473d81d0cd00849d563c94d0432ac988b49"
          ],
          "data": "0x000000000000000000000000000000000000000000000000001bd6f5a1496366000000000000000000000000000000000000000000000000308baed93de9a80400000000000000000000000000000000000000000000029e019256e2444baec3000000000000000000000000000000000000000000000000306fd7e39ca0449e00000000000000000000000000000000000000000000029e01ae2dd7e5951229",
          "blockHash": "0x38d4420ecc932d439415195131dae1f3214b08cf6763de1eecb8d9879424a014",
          "blockNumber": "0x402c54a",
          "transactionHash": "0x80c7c0b9e9386b5c68c03c63563145d66f9f7bdb076c97146f8fa6e716a68c6c",
          "transactionIndex": "0x45",
          "logIndex": "0x10f",
          "removed": false
        }
      ],
      "logsBloom": "0x400000000000000000000480000800000000000000000000000000040010000000000040000010000000001000020000000080000000000000000000000000004000820420100000004000080000008000000000000000000001000000000000000000000000004080000000000008000000000000100000802040100000000000000000000000000000000800000000000000000000000000000100000000002000000080000000001000000000000000000000004000000004c0080000004000800002000000000001000080008000000000000000841000188000000000000000060000000000000000000000002000000000018000000000000000100000",
      "type": "0x2",
      "transactionHash": "0x80c7c0b9e9386b5c68c03c63563145d66f9f7bdb076c97146f8fa6e716a68c6c",
      "transactionIndex": "0x45",
      "blockHash": "0x38d4420ecc932d439415195131dae1f3214b08cf6763de1eecb8d9879424a014",
      "blockNumber": "0x402c54a",
      "gasUsed": "0x43796",
      "effectiveGasPrice": "0x69a006a04",
      "from": "0x21aF1185734D213D45C6236146fb81E2b0E8b821",
      "to": "0x303b63e785B656ca56ea5A5C1634Ab20C98895e1",
      "contractAddress": null
    },
    {
      "status": "0x1",
      "cumulativeGasUsed": "0x892cf4",
      "logs": [
        {
          "address": "0x3d2bD0e15829AA5C362a4144FdF4A1112fa29B5c",
          "topics": [
            "0x8c5be1e5ebec7d5bd14f71427d1e84f3dd0314c0f7b2291e5b200ac8c7c3b925",
            "0x00000000000000000000000021af1185734d213d45c6236146fb81e2b0e8b821",
            "0x000000000000000000000000303b63e785b656ca56ea5a5c1634ab20c98895e1"
          ],
          "data": "0x0000000000000000000000000000000000000000000069e10de76676d0800000",
          "blockHash": "0x38d4420ecc932d439415195131dae1f3214b08cf6763de1eecb8d9879424a014",
          "blockNumber": "0x402c54a",
          "transactionHash": "0xaa8a07ee9c50e000f33ee979464fb31fd7a43305a5d4f8bca7adb96eae5d82d9",
          "transactionIndex": "0x46",
          "logIndex": "0x110",
          "removed": false
        },
        {
          "address": "0x0000000000000000000000000000000000001010",
          "topics": [
            "0x4dfe1bbbcf077ddc3e01291eea2d5c70c2b422b415d95645b9adcfd678cb1d63",
            "0x0000000000000000000000000000000000000000000000000000000000001010",
            "0x00000000000000000000000021af1185734d213d45c6236146fb81e2b0e8b821",
            "0x00000000000000000000000067b94473d81d0cd00849d563c94d0432ac988b49"
          ],
          "data": "0x0000000000000000000000000000000000000000000000000004a7816dbb72550000000000000000000000000000000000000000000000002aff5bb01886a38d00000000000000000000000000000000000000000000029e01ae2dd7e59512290000000000000000000000000000000000000000000000002afab42eaacb313800000000000000000000000000000000000000000000029e01b2d5595350847e",
          "blockHash": "0x38d4420ecc932d439415195131dae1f3214b08cf6763de1eecb8d9879424a014",
          "blockNumber": "0x402c54a",
          "transactionHash": "0xaa8a07ee9c50e000f33ee979464fb31fd7a43305a5d4f8bca7adb96eae5d82d9",
          "transactionIndex": "0x46",
          "logIndex": "0x111",
          "removed": false
        }
      ],
      "logsBloom": "0x40000000000000000000000000080000000000000000000000000000000000000000000000001000000000000000000000008000000000000000000000200000000000042000000000000000000000800000000000000000000100000000000000000000000000000000000000000800000000000000000080004000000000000000000000000000000000000000000000000000000000000000000000000000220000000000000000000000000000000000000000000000000080080000004000800000000000000001000000008000000000000000000000100000000000000010020000000000000000000000000000000000000000000000000000100000",
      "type": "0x2",
      "transactionHash": "0xaa8a07ee9c50e000f33ee979464fb31fd7a43305a5d4f8bca7adb96eae5d82d9",
      "transactionIndex": "0x46",
      "blockHash": "0x38d4420ecc932d439415195131dae1f3214b08cf6763de1eecb8d9879424a014",
      "blockNumber": "0x402c54a",
      "gasUsed": "0xb47d",
      "effectiveGasPrice": "0x69a006a04",
      "from": "0x21aF1185734D213D45C6236146fb81E2b0E8b821",
      "to": "0x3d2bD0e15829AA5C362a4144FdF4A1112fa29B5c",
      "contractAddress": null
    },
    {
      "status": "0x1",
      "cumulativeGasUsed": "0x8d648a",
      "logs": [
        {
          "address": "0x0000000000000000000000000000000000001010",
          "topics": [
            "0xe6497e3ee548a3372136af2fcb0696db31fc6cf20260707645068bd3fe97f3c4",
            "0x0000000000000000000000000000000000000000000000000000000000001010",
            "0x00000000000000000000000021af1185734d213d45c6236146fb81e2b0e8b821",
            "0x000000000000000000000000303b63e785b656ca56ea5a5c1634ab20c98895e1"
          ],
          "data": "0x00000000000000000000000000000000000000000000000005707c332a4e0a1f0000000000000000000000000000000000000000000000002ad44015204020e500000000000000000000000000000000000000000000000000000000000000000000000000000000000000000000000000000000000000002563c3e1f5f216c600000000000000000000000000000000000000000000000005707c332a4e0a1f",
          "blockHash": "0x38d4420ecc932d439415195131dae1f3214b08cf6763de1eecb8d9879424a014",
          "blockNumber": "0x402c54a",
          "transactionHash": "0x9463c581c83bb3e33084d1a01280d434e67c8b6878eaa4ab2c4e00a06f484984",
          "transactionIndex": "0x47",
          "logIndex": "0x112",
          "removed": false
        },
        {
          "address": "0x3d2bD0e15829AA5C362a4144FdF4A1112fa29B5c",
          "topics": [
            "0xddf252ad1be2c89b69c2b068fc378daa952ba7f163c4a11628f55a4df523b3ef",
            "0x00000000000000000000000021af1185734d213d45c6236146fb81e2b0e8b821",
            "0x000000000000000000000000303b63e785b656ca56ea5a5c1634ab20c98895e1"
          ],
          "data": "0x0000000000000000000000000000000000000000000069e10de76676d0800000",
          "blockHash": "0x38d4420ecc932d439415195131dae1f3214b08cf6763de1eecb8d9879424a014",
          "blockNumber": "0x402c54a",
          "transactionHash": "0x9463c581c83bb3e33084d1a01280d434e67c8b6878eaa4ab2c4e00a06f484984",
          "transactionIndex": "0x47",
          "logIndex": "0x113",
          "removed": false
        },
        {
          "address": "0x0000000000000000000000000000000000001010",
          "topics": [
            "0xe6497e3ee548a3372136af2fcb0696db31fc6cf20260707645068bd3fe97f3c4",
            "0x0000000000000000000000000000000000000000000000000000000000001010",
            "0x000000000000000000000000303b63e785b656ca56ea5a5c1634ab20c98895e1",
            "0x0000000000000000000000001a44076050125825900e736c501f859c50fe728c"
          ],
          "data": "0x00000000000000000000000000000000000000000000000005707c332a4e0a1f00000000000000000000000000000000000000000000000005707c332a4e0a1f0000000000000000000000000000000000000000000000000000000000000000000000000000000000000000000000000000000000000000000000000000000000000000000000000000000000000000000000000000000005707c332a4e0a1f",
          "blockHash": "0x38d4420ecc932d439415195131dae1f3214b08cf6763de1eecb8d9879424a014",
          "blockNumber": "0x402c54a",
          "transactionHash": "0x9463c581c83bb3e33084d1a01280d434e67c8b6878eaa4ab2c4e00a06f484984",
          "transactionIndex": "0x47",
          "logIndex": "0x114",
          "removed": false
        },
        {
          "address": "0x6c26c61a97006888ea9E4FA36584c7df57Cd9dA3",
          "topics": [
            "0x61ed099e74a97a1d7f8bb0952a88ca8b7b8ebd00c126ea04671f92a81213318a"
          ],
          "data": "0x000000000000000000000000cd3f213ad101472e1713c72b1697e727c803885b00000000000000000000000000000000000000000000000001f757aebf591703",
          "blockHash": "0x38d4420ecc932d439415195131dae1f3214b08cf6763de1eecb8d9879424a014",
          "blockNumber": "0x402c54a",
          "transactionHash": "0x9463c581c83bb3e33084d1a01280d434e67c8b6878eaa4ab2c4e00a06f484984",
          "transactionIndex": "0x47",
          "logIndex": "0x115",
          "removed": false
        },
        {
          "address": "0x6c26c61a97006888ea9E4FA36584c7df57Cd9dA3",
          "topics": [
            "0x07ea52d82345d6e838192107d8fd7123d9c2ec8e916cd0aad13fd2b60db24644"
          ],
          "data": "0x000000000000000000000000000000000000000000000000000000000000006000000000000000000000000000000000000000000000000000000000000000c000000000000000000000000000000000000000000000000000000000000000e0000000000000000000000000000000000000000000000000000000000000000200000000000000000000000023de2fe932d9043291f870324b74f820e11dc81a000000000000000000000000d56e4eab23cb81f43168f9f45211eb027b9ac7cc000000000000000000000000000000000000000000000000000000000000000000000000000000000000000000000000000000000000000000000000000000020000000000000000000000000000000000000000000000000009fd80ff06f9ed000000000000000000000000000000000000000000000000036f27036bedf92f",
          "blockHash": "0x38d4420ecc932d439415195131dae1f3214b08cf6763de1eecb8d9879424a014",
          "blockNumber": "0x402c54a",
          "transactionHash": "0x9463c581c83bb3e33084d1a01280d434e67c8b6878eaa4ab2c4e00a06f484984",
          "transactionIndex": "0x47",
          "logIndex": "0x116",
          "removed": false
        },
        {
          "address": "0x1a44076050125825900e736c501f859c50fE728c",
          "topics": [
            "0x1ab700d4ced0c005b164c0f789fd09fcbb0156d4c2041b8a3bfbcd961cd1567f"
          ],
          "data": "0x000000000000000000000000000000000000000000000000000000000000006000000000000000000000000000000000000000000000000000000000000001200000000000000000000000006c26c61a97006888ea9e4fa36584c7df57cd9da300000000000000000000000000000000000000000000000000000000000000990100000000000006650000759d000000000000000000000000303b63e785b656ca56ea5a5c1634ab20c98895e1000075e8000000000000000000000000474f4cb764df9da079d94052fed39625c147c12cf340d5c7461f1bb1bc70316fa8c942f3a365b2bd080421872c9369977196598600000000000000000000000021af1185734d213d45c6236146fb81e2b0e8b821000000746a52880000000000000000000000000000000000000000000000000000000000000000000000000000002a0003010011010000000000000000000000000001adb0010011010000000000000000000000000007a12000000000000000000000000000000000000000000000",
          "blockHash": "0x38d4420ecc932d439415195131dae1f3214b08cf6763de1eecb8d9879424a014",
          "blockNumber": "0x402c54a",
          "transactionHash": "0x9463c581c83bb3e33084d1a01280d434e67c8b6878eaa4ab2c4e00a06f484984",
          "transactionIndex": "0x47",
          "logIndex": "0x117",
          "removed": false
        },
        {
          "address": "0x0000000000000000000000000000000000001010",
          "topics": [
            "0xe6497e3ee548a3372136af2fcb0696db31fc6cf20260707645068bd3fe97f3c4",
            "0x0000000000000000000000000000000000000000000000000000000000001010",
            "0x0000000000000000000000001a44076050125825900e736c501f859c50fe728c",
            "0x0000000000000000000000006c26c61a97006888ea9e4fa36584c7df57cd9da3"
          ],
          "data": "0x00000000000000000000000000000000000000000000000005707c332a4e0a1f00000000000000000000000000000000000000000000000005707c332a4e0a1f000000000000000000000000000000000000000000000c316d9c74ede3956dab0000000000000000000000000000000000000000000000000000000000000000000000000000000000000000000000000000000000000c31730cf1210de377ca",
          "blockHash": "0x38d4420ecc932d439415195131dae1f3214b08cf6763de1eecb8d9879424a014",
          "blockNumber": "0x402c54a",
          "transactionHash": "0x9463c581c83bb3e33084d1a01280d434e67c8b6878eaa4ab2c4e00a06f484984",
          "transactionIndex": "0x47",
          "logIndex": "0x118",
          "removed": false
        },
        {
          "address": "0x303b63e785B656ca56ea5A5C1634Ab20C98895e1",
          "topics": [
            "0x85496b760a4b7f8d66384b9df21b381f5d1b1e79f229a47aaf4c232edc2fe59a",
            "0xf340d5c7461f1bb1bc70316fa8c942f3a365b2bd080421872c93699771965986",
            "0x00000000000000000000000021af1185734d213d45c6236146fb81e2b0e8b821"
          ],
          "data": "0x00000000000000000000000000000000000000000000000000000000000075e80000000000000000000000000000000000000000000069e10de76676d08000000000000000000000000000000000000000000000000069e10de76676d0800000",
          "blockHash": "0x38d4420ecc932d439415195131dae1f3214b08cf6763de1eecb8d9879424a014",
          "blockNumber": "0x402c54a",
          "transactionHash": "0x9463c581c83bb3e33084d1a01280d434e67c8b6878eaa4ab2c4e00a06f484984",
          "transactionIndex": "0x47",
          "logIndex": "0x119",
          "removed": false
        },
        {
          "address": "0x0000000000000000000000000000000000001010",
          "topics": [
            "0x4dfe1bbbcf077ddc3e01291eea2d5c70c2b422b415d95645b9adcfd678cb1d63",
            "0x0000000000000000000000000000000000000000000000000000000000001010",
            "0x00000000000000000000000021af1185734d213d45c6236146fb81e2b0e8b821",
            "0x00000000000000000000000067b94473d81d0cd00849d563c94d0432ac988b49"
          ],
          "data": "0x000000000000000000000000000000000000000000000000001bd6f5a14963660000000000000000000000000000000000000000000000002afab42e9bc80f9900000000000000000000000000000000000000000000029e01b2d5595350847e0000000000000000000000000000000000000000000000002adedd38fa7eac3300000000000000000000000000000000000000000000029e01ceac4ef499e7e4",
          "blockHash": "0x38d4420ecc932d439415195131dae1f3214b08cf6763de1eecb8d9879424a014",
          "blockNumber": "0x402c54a",
          "transactionHash": "0x9463c581c83bb3e33084d1a01280d434e67c8b6878eaa4ab2c4e00a06f484984",
          "transactionIndex": "0x47",
          "logIndex": "0x11a",
          "removed": false
        }
      ],
      "logsBloom": "0x400000000000000000000480000800000000000000000000000000040010000000000040000010000000001000020000000080000000000000000000000000000000820420100000004000080000008000000000000000000801000000000000000000000000000080000000000008000000000000100000802040100000000000000000000000000000000800000000000002000000000000000100000000002000000080000000001000000000000000000000004000000004c0080000004000800002000000000001000080008000000000000000801000188000000000000000060000000000000000000000002000000000018000000000000000100000",
      "type": "0x2",
      "transactionHash": "0x9463c581c83bb3e33084d1a01280d434e67c8b6878eaa4ab2c4e00a06f484984",
      "transactionIndex": "0x47",
      "blockHash": "0x38d4420ecc932d439415195131dae1f3214b08cf6763de1eecb8d9879424a014",
      "blockNumber": "0x402c54a",
      "gasUsed": "0x43796",
      "effectiveGasPrice": "0x69a006a04",
      "from": "0x21aF1185734D213D45C6236146fb81E2b0E8b821",
      "to": "0x303b63e785B656ca56ea5A5C1634Ab20C98895e1",
      "contractAddress": null
    }
  ],
  "libraries": [],
  "pending": [],
  "returns": {},
  "timestamp": 1738159012,
  "chain": 137,
  "commit": "9bc9372"
}