{
  "transactions": [
    {
      "hash": "0x54b4ae7c75c3e53afe5595cb95edc828ba3c2fec21e85bd70cc3626a0067b0fc",
      "transactionType": "CALL",
      "contractName": null,
      "contractAddress": "0x3d2bd0e15829aa5c362a4144fdf4a1112fa29b5c",
      "function": "approve(address,uint256)",
      "arguments": [
        "0x303b63e785B656ca56ea5A5C1634Ab20C98895e1",
        "3125000000000000000000000"
      ],
      "transaction": {
        "from": "0x21af1185734d213d45c6236146fb81e2b0e8b821",
        "to": "0x3d2bd0e15829aa5c362a4144fdf4a1112fa29b5c",
        "gas": "0x10808",
        "value": "0x0",
        "input": "0x095ea7b3000000000000000000000000303b63e785b656ca56ea5a5c1634ab20c98895e10000000000000000000000000000000000000000000295be96e6406697200000",
        "nonce": "0x68",
        "chainId": "0x89"
      },
      "additionalContracts": [],
      "isFixedGasLimit": false
    },
    {
      "hash": "0xcbe0e9fce5b6261f6b20994aac37065638a2cf438d19393b573d76fdf3be7059",
      "transactionType": "CALL",
      "contractName": null,
      "contractAddress": "0x303b63e785b656ca56ea5a5c1634ab20c98895e1",
      "function": "send((uint32,bytes32,uint256,uint256,bytes,bytes,bytes),(uint256,uint256),address)",
      "arguments": [
        "(30184, 0x00000000000000000000000021af1185734d213d45c6236146fb81e2b0e8b821, 3125000000000000000000000, 3125000000000000000000000, 0x, 0x, 0x)",
        "(422770017147288274, 0)",
        "0x5b73C5498c1E3b4dbA84de0F1833c4a029d90519"
      ],
      "transaction": {
        "from": "0x21af1185734d213d45c6236146fb81e2b0e8b821",
        "to": "0x303b63e785b656ca56ea5a5c1634ab20c98895e1",
        "gas": "0x5bbdc",
        "value": "0x5ddfb1735bffad2",
        "input": "0xc7c7f5b3000000000000000000000000000000000000000000000000000000000000008000000000000000000000000000000000000000000000000005ddfb1735bffad200000000000000000000000000000000000000000000000000000000000000000000000000000000000000005b73c5498c1e3b4dba84de0f1833c4a029d9051900000000000000000000000000000000000000000000000000000000000075e800000000000000000000000021af1185734d213d45c6236146fb81e2b0e8b8210000000000000000000000000000000000000000000295be96e64066972000000000000000000000000000000000000000000000000295be96e640669720000000000000000000000000000000000000000000000000000000000000000000e000000000000000000000000000000000000000000000000000000000000001000000000000000000000000000000000000000000000000000000000000000120000000000000000000000000000000000000000000000000000000000000000000000000000000000000000000000000000000000000000000000000000000000000000000000000000000000000000000000000000000000000000000000000",
        "nonce": "0x69",
        "chainId": "0x89"
      },
      "additionalContracts": [],
      "isFixedGasLimit": false
    }
  ],
  "receipts": [
    {
      "status": "0x1",
      "cumulativeGasUsed": "0x42acfa",
      "logs": [
        {
          "address": "0x3d2bd0e15829aa5c362a4144fdf4a1112fa29b5c",
          "topics": [
            "0x8c5be1e5ebec7d5bd14f71427d1e84f3dd0314c0f7b2291e5b200ac8c7c3b925",
            "0x00000000000000000000000021af1185734d213d45c6236146fb81e2b0e8b821",
            "0x000000000000000000000000303b63e785b656ca56ea5a5c1634ab20c98895e1"
          ],
          "data": "0x0000000000000000000000000000000000000000000295be96e6406697200000",
          "blockHash": "0x4c5466d9131876e819bc8a50333e912c49584c9f2d818c06021bbf6211a6d02f",
          "blockNumber": "0x3bd8cfd",
          "transactionHash": "0x54b4ae7c75c3e53afe5595cb95edc828ba3c2fec21e85bd70cc3626a0067b0fc",
          "transactionIndex": "0x2b",
          "logIndex": "0x90",
          "removed": false
        },
        {
          "address": "0x0000000000000000000000000000000000001010",
          "topics": [
            "0x4dfe1bbbcf077ddc3e01291eea2d5c70c2b422b415d95645b9adcfd678cb1d63",
            "0x0000000000000000000000000000000000000000000000000000000000001010",
            "0x00000000000000000000000021af1185734d213d45c6236146fb81e2b0e8b821",
            "0x0000000000000000000000004ed0ba39686283d61fb8845dc17e24e37d96fc3a"
          ],
          "data": "0x00000000000000000000000000000000000000000000000000052190766ec5130000000000000000000000000000000000000000000000005d123ac8e075167f00000000000000000000000000000000000000000000073d41672f97b51fd7d70000000000000000000000000000000000000000000000005d0d19386a06516c00000000000000000000000000000000000000000000073d416c51282b8e9cea",
          "blockHash": "0x4c5466d9131876e819bc8a50333e912c49584c9f2d818c06021bbf6211a6d02f",
          "blockNumber": "0x3bd8cfd",
          "transactionHash": "0x54b4ae7c75c3e53afe5595cb95edc828ba3c2fec21e85bd70cc3626a0067b0fc",
          "transactionIndex": "0x2b",
          "logIndex": "0x91",
          "removed": false
        }
      ],
      "logsBloom": "0x40000000000000000000000000080000000000000000000000000000000000000000000000001000000000000000000000008000000080000000000000200000000000042000000000000000000000800000000000000000000100000000000000000000000000000000000000000800000000000000000080004000000000000000000000000000000000000000000000000000000000000000000000000000220000000000000000000000000000000000000000000000000080080000004800000000000000000001000000000000000000000000000000100000000000000010000000000000000000000000000000000000000000000001000000100000",
      "type": "0x2",
      "transactionHash": "0x54b4ae7c75c3e53afe5595cb95edc828ba3c2fec21e85bd70cc3626a0067b0fc",
      "transactionIndex": "0x2b",
      "blockHash": "0x4c5466d9131876e819bc8a50333e912c49584c9f2d818c06021bbf6211a6d02f",
      "blockNumber": "0x3bd8cfd",
      "gasUsed": "0xb489",
      "effectiveGasPrice": "0x746a47dd4",
      "from": "0x21af1185734d213d45c6236146fb81e2b0e8b821",
      "to": "0x3d2bd0e15829aa5c362a4144fdf4a1112fa29b5c",
      "contractAddress": null
    },
    {
      "status": "0x1",
      "cumulativeGasUsed": "0x46d3af",
      "logs": [
        {
          "address": "0x0000000000000000000000000000000000001010",
          "topics": [
            "0xe6497e3ee548a3372136af2fcb0696db31fc6cf20260707645068bd3fe97f3c4",
            "0x0000000000000000000000000000000000000000000000000000000000001010",
            "0x00000000000000000000000021af1185734d213d45c6236146fb81e2b0e8b821",
            "0x000000000000000000000000303b63e785b656ca56ea5a5c1634ab20c98895e1"
          ],
          "data": "0x00000000000000000000000000000000000000000000000005ddfb1735bffad20000000000000000000000000000000000000000000000005ce36127178ab1db00000000000000000000000000000000000000000000000000000000000000000000000000000000000000000000000000000000000000005705660fe1cab70900000000000000000000000000000000000000000000000005ddfb1735bffad2",
          "blockHash": "0x4c5466d9131876e819bc8a50333e912c49584c9f2d818c06021bbf6211a6d02f",
          "blockNumber": "0x3bd8cfd",
          "transactionHash": "0xcbe0e9fce5b6261f6b20994aac37065638a2cf438d19393b573d76fdf3be7059",
          "transactionIndex": "0x2c",
          "logIndex": "0x92",
          "removed": false
        },
        {
          "address": "0x3d2bd0e15829aa5c362a4144fdf4a1112fa29b5c",
          "topics": [
            "0xddf252ad1be2c89b69c2b068fc378daa952ba7f163c4a11628f55a4df523b3ef",
            "0x00000000000000000000000021af1185734d213d45c6236146fb81e2b0e8b821",
            "0x000000000000000000000000303b63e785b656ca56ea5a5c1634ab20c98895e1"
          ],
          "data": "0x0000000000000000000000000000000000000000000295be96e6406697200000",
          "blockHash": "0x4c5466d9131876e819bc8a50333e912c49584c9f2d818c06021bbf6211a6d02f",
          "blockNumber": "0x3bd8cfd",
          "transactionHash": "0xcbe0e9fce5b6261f6b20994aac37065638a2cf438d19393b573d76fdf3be7059",
          "transactionIndex": "0x2c",
          "logIndex": "0x93",
          "removed": false
        },
        {
          "address": "0x0000000000000000000000000000000000001010",
          "topics": [
            "0xe6497e3ee548a3372136af2fcb0696db31fc6cf20260707645068bd3fe97f3c4",
            "0x0000000000000000000000000000000000000000000000000000000000001010",
            "0x000000000000000000000000303b63e785b656ca56ea5a5c1634ab20c98895e1",
            "0x0000000000000000000000001a44076050125825900e736c501f859c50fe728c"
          ],
          "data": "0x00000000000000000000000000000000000000000000000005ddfb1735bffad200000000000000000000000000000000000000000000000005ddfb1735bffad20000000000000000000000000000000000000000000000000000000000000000000000000000000000000000000000000000000000000000000000000000000000000000000000000000000000000000000000000000000005ddfb1735bffad2",
          "blockHash": "0x4c5466d9131876e819bc8a50333e912c49584c9f2d818c06021bbf6211a6d02f",
          "blockNumber": "0x3bd8cfd",
          "transactionHash": "0xcbe0e9fce5b6261f6b20994aac37065638a2cf438d19393b573d76fdf3be7059",
          "transactionIndex": "0x2c",
          "logIndex": "0x94",
          "removed": false
        },
        {
          "address": "0x6c26c61a97006888ea9e4fa36584c7df57cd9da3",
          "topics": [
            "0x61ed099e74a97a1d7f8bb0952a88ca8b7b8ebd00c126ea04671f92a81213318a"
          ],
          "data": "0x000000000000000000000000cd3f213ad101472e1713c72b1697e727c803885b00000000000000000000000000000000000000000000000001fec4d10bb1a2da",
          "blockHash": "0x4c5466d9131876e819bc8a50333e912c49584c9f2d818c06021bbf6211a6d02f",
          "blockNumber": "0x3bd8cfd",
          "transactionHash": "0xcbe0e9fce5b6261f6b20994aac37065638a2cf438d19393b573d76fdf3be7059",
          "transactionIndex": "0x2c",
          "logIndex": "0x95",
          "removed": false
        },
        {
          "address": "0x6c26c61a97006888ea9e4fa36584c7df57cd9da3",
          "topics": [
            "0x07ea52d82345d6e838192107d8fd7123d9c2ec8e916cd0aad13fd2b60db24644"
          ],
          "data": "0x000000000000000000000000000000000000000000000000000000000000006000000000000000000000000000000000000000000000000000000000000000c000000000000000000000000000000000000000000000000000000000000000e0000000000000000000000000000000000000000000000000000000000000000200000000000000000000000023de2fe932d9043291f870324b74f820e11dc81a000000000000000000000000d56e4eab23cb81f43168f9f45211eb027b9ac7cc00000000000000000000000000000000000000000000000000000000000000000000000000000000000000000000000000000000000000000000000000000002000000000000000000000000000000000000000000000000000f3ac85d99f54700000000000000000000000000000000000000000000000003cffb7dcc7462b1",
          "blockHash": "0x4c5466d9131876e819bc8a50333e912c49584c9f2d818c06021bbf6211a6d02f",
          "blockNumber": "0x3bd8cfd",
          "transactionHash": "0xcbe0e9fce5b6261f6b20994aac37065638a2cf438d19393b573d76fdf3be7059",
          "transactionIndex": "0x2c",
          "logIndex": "0x96",
          "removed": false
        },
        {
          "address": "0x1a44076050125825900e736c501f859c50fe728c",
          "topics": [
            "0x1ab700d4ced0c005b164c0f789fd09fcbb0156d4c2041b8a3bfbcd961cd1567f"
          ],
          "data": "0x000000000000000000000000000000000000000000000000000000000000006000000000000000000000000000000000000000000000000000000000000001200000000000000000000000006c26c61a97006888ea9e4fa36584c7df57cd9da300000000000000000000000000000000000000000000000000000000000000990100000000000000020000759d000000000000000000000000303b63e785b656ca56ea5a5c1634ab20c98895e1000075e8000000000000000000000000474f4cb764df9da079d94052fed39625c147c12c7ee1cacbe902ee6adbccbfaafcfc9b76c4274980ef81fd8b6902c083223e1e2a00000000000000000000000021af1185734d213d45c6236146fb81e2b0e8b821000002d79883d2000000000000000000000000000000000000000000000000000000000000000000000000000000160003010011010000000000000000000000000001adb000000000000000000000",
          "blockHash": "0x4c5466d9131876e819bc8a50333e912c49584c9f2d818c06021bbf6211a6d02f",
          "blockNumber": "0x3bd8cfd",
          "transactionHash": "0xcbe0e9fce5b6261f6b20994aac37065638a2cf438d19393b573d76fdf3be7059",
          "transactionIndex": "0x2c",
          "logIndex": "0x97",
          "removed": false
        },
        {
          "address": "0x0000000000000000000000000000000000001010",
          "topics": [
            "0xe6497e3ee548a3372136af2fcb0696db31fc6cf20260707645068bd3fe97f3c4",
            "0x0000000000000000000000000000000000000000000000000000000000001010",
            "0x0000000000000000000000001a44076050125825900e736c501f859c50fe728c",
            "0x0000000000000000000000006c26c61a97006888ea9e4fa36584c7df57cd9da3"
          ],
          "data": "0x00000000000000000000000000000000000000000000000005ddfb1735bffad200000000000000000000000000000000000000000000000005ddfb1735bffad200000000000000000000000000000000000000000000031557d5941238eb49da00000000000000000000000000000000000000000000000000000000000000000000000000000000000000000000000000000000000003155db38f296eab44ac",
          "blockHash": "0x4c5466d9131876e819bc8a50333e912c49584c9f2d818c06021bbf6211a6d02f",
          "blockNumber": "0x3bd8cfd",
          "transactionHash": "0xcbe0e9fce5b6261f6b20994aac37065638a2cf438d19393b573d76fdf3be7059",
          "transactionIndex": "0x2c",
          "logIndex": "0x98",
          "removed": false
        },
        {
          "address": "0x303b63e785b656ca56ea5a5c1634ab20c98895e1",
          "topics": [
            "0x85496b760a4b7f8d66384b9df21b381f5d1b1e79f229a47aaf4c232edc2fe59a",
            "0x7ee1cacbe902ee6adbccbfaafcfc9b76c4274980ef81fd8b6902c083223e1e2a",
            "0x00000000000000000000000021af1185734d213d45c6236146fb81e2b0e8b821"
          ],
          "data": "0x00000000000000000000000000000000000000000000000000000000000075e80000000000000000000000000000000000000000000295be96e64066972000000000000000000000000000000000000000000000000295be96e6406697200000",
          "blockHash": "0x4c5466d9131876e819bc8a50333e912c49584c9f2d818c06021bbf6211a6d02f",
          "blockNumber": "0x3bd8cfd",
          "transactionHash": "0xcbe0e9fce5b6261f6b20994aac37065638a2cf438d19393b573d76fdf3be7059",
          "transactionIndex": "0x2c",
          "logIndex": "0x99",
          "removed": false
        },
        {
          "address": "0x0000000000000000000000000000000000001010",
          "topics": [
            "0x4dfe1bbbcf077ddc3e01291eea2d5c70c2b422b415d95645b9adcfd678cb1d63",
            "0x0000000000000000000000000000000000000000000000000000000000001010",
            "0x00000000000000000000000021af1185734d213d45c6236146fb81e2b0e8b821",
            "0x0000000000000000000000004ed0ba39686283d61fb8845dc17e24e37d96fc3a"
          ],
          "data": "0x000000000000000000000000000000000000000000000000001e343353e2a7370000000000000000000000000000000000000000000000005d0d193869f4b00b00000000000000000000000000000000000000000000073d416c51282b8e9cea0000000000000000000000000000000000000000000000005ceee505161208d400000000000000000000000000000000000000000000073d418a855b7f714421",
          "blockHash": "0x4c5466d9131876e819bc8a50333e912c49584c9f2d818c06021bbf6211a6d02f",
          "blockNumber": "0x3bd8cfd",
          "transactionHash": "0xcbe0e9fce5b6261f6b20994aac37065638a2cf438d19393b573d76fdf3be7059",
          "transactionIndex": "0x2c",
          "logIndex": "0x9a",
          "removed": false
        }
      ],
      "logsBloom": "0x400000000000000000000480000800000000000000000000000000040010000000000040000110000000001000020000000080000000800000000000000000000000820420100000004000080000008000000000000000000001000000000000000000000000000080000000000008000000000000100000802040100000000000000000000000000000000800000000000000000000000000000100000000002000000080000000001000000000000000000000004000000004c0080000004800000002000000000801000080000000000000000000801000188000000004000000040000000000000000000000002000000000018000000001000000100000",
      "type": "0x2",
      "transactionHash": "0xcbe0e9fce5b6261f6b20994aac37065638a2cf438d19393b573d76fdf3be7059",
      "transactionIndex": "0x2c",
      "blockHash": "0x4c5466d9131876e819bc8a50333e912c49584c9f2d818c06021bbf6211a6d02f",
      "blockNumber": "0x3bd8cfd",
      "gasUsed": "0x426b5",
      "effectiveGasPrice": "0x746a47dd4",
      "from": "0x21af1185734d213d45c6236146fb81e2b0e8b821",
      "to": "0x303b63e785b656ca56ea5a5c1634ab20c98895e1",
      "contractAddress": null
    }
  ],
  "libraries": [],
  "pending": [],
  "returns": {},
  "timestamp": 1728325734,
  "chain": 137,
  "commit": "9bc9372"
}