{
  "transactions": [
    {
      "hash": "0x59ba08ac1010bea3ab6eb0e84a99e36c93088a1943d2258c5bd1716f01e42eaa",
      "transactionType": "CALL",
      "contractName": null,
      "contractAddress": "0x3d2bD0e15829AA5C362a4144FdF4A1112fa29B5c",
      "function": "approve(address,uint256)",
      "arguments": [
        "0x303b63e785B656ca56ea5A5C1634Ab20C98895e1",
        "500000000000000000000000"
      ],
      "transaction": {
        "from": "0x21aF1185734D213D45C6236146fb81E2b0E8b821",
        "to": "0x3d2bD0e15829AA5C362a4144FdF4A1112fa29B5c",
        "gas": "0xf94b",
        "value": "0x0",
        "input": "0x095ea7b3000000000000000000000000303b63e785b656ca56ea5a5c1634ab20c98895e10000000000000000000000000000000000000000000069e10de76676d0800000",
        "nonce": "0x114",
        "chainId": "0x89"
      },
      "additionalContracts": [],
      "isFixedGasLimit": false
    },
    {
      "hash": "0xa6b4b2035b966224ff6e88dd3fea44b615fadefeb75fcc6e6c36033f4a09c6cc",
      "transactionType": "CALL",
      "contractName": null,
      "contractAddress": "0x303b63e785B656ca56ea5A5C1634Ab20C98895e1",
      "function": "send((uint32,bytes32,uint256,uint256,bytes,bytes,bytes),(uint256,uint256),address)",
      "arguments": [
        "(30184, 0x00000000000000000000000021af1185734d213d45c6236146fb81e2b0e8b821, 500000000000000000000000, 500000000000000000000000, 0x0003010011010000000000000000000000000007a120, 0x, 0x)",
        "(390528632860044421, 0)",
        "0x5b73C5498c1E3b4dbA84de0F1833c4a029d90519"
      ],
      "transaction": {
        "from": "0x21aF1185734D213D45C6236146fb81E2b0E8b821",
        "to": "0x303b63e785B656ca56ea5A5C1634Ab20C98895e1",
        "gas": "0x5d32d",
        "value": "0x56b6fb8f43dec85",
        "input": "0xc7c7f5b30000000000000000000000000000000000000000000000000000000000000080000000000000000000000000000000000000000000000000056b6fb8f43dec8500000000000000000000000000000000000000000000000000000000000000000000000000000000000000005b73c5498c1e3b4dba84de0f1833c4a029d9051900000000000000000000000000000000000000000000000000000000000075e800000000000000000000000021af1185734d213d45c6236146fb81e2b0e8b8210000000000000000000000000000000000000000000069e10de76676d08000000000000000000000000000000000000000000000000069e10de76676d080000000000000000000000000000000000000000000000000000000000000000000e00000000000000000000000000000000000000000000000000000000000000120000000000000000000000000000000000000000000000000000000000000014000000000000000000000000000000000000000000000000000000000000000160003010011010000000000000000000000000007a1200000000000000000000000000000000000000000000000000000000000000000000000000000000000000000000000000000000000000000000000000000000000000000000000000000",
        "nonce": "0x115",
        "chainId": "0x89"
      },
      "additionalContracts": [],
      "isFixedGasLimit": false
    }
  ],
  "receipts": [
    {
      "status": "0x1",
      "cumulativeGasUsed": "0x9b5815",
      "logs": [
        {
          "address": "0x3d2bD0e15829AA5C362a4144FdF4A1112fa29B5c",
          "topics": [
            "0x8c5be1e5ebec7d5bd14f71427d1e84f3dd0314c0f7b2291e5b200ac8c7c3b925",
            "0x00000000000000000000000021af1185734d213d45c6236146fb81e2b0e8b821",
            "0x000000000000000000000000303b63e785b656ca56ea5a5c1634ab20c98895e1"
          ],
          "data": "0x0000000000000000000000000000000000000000000069e10de76676d0800000",
          "blockHash": "0xc158b7b3f5dd54e40538976569d6c266ba4ebc4b20093f673f88dc78419f42c8",
          "blockNumber": "0x3ec9482",
          "transactionHash": "0x59ba08ac1010bea3ab6eb0e84a99e36c93088a1943d2258c5bd1716f01e42eaa",
          "transactionIndex": "0x37",
          "logIndex": "0x138",
          "removed": false
        },
        {
          "address": "0x0000000000000000000000000000000000001010",
          "topics": [
            "0x4dfe1bbbcf077ddc3e01291eea2d5c70c2b422b415d95645b9adcfd678cb1d63",
            "0x0000000000000000000000000000000000000000000000000000000000001010",
            "0x00000000000000000000000021af1185734d213d45c6236146fb81e2b0e8b821",
            "0x000000000000000000000000a8b52f02108aa5f4b675bdcc973760022d7c6020"
          ],
          "data": "0x00000000000000000000000000000000000000000000000000084d9d4d5e1970000000000000000000000000000000000000000000000000a4fc25d7b21e04e200000000000000000000000000000000000000000000006fb6073ec3c6e80a6c000000000000000000000000000000000000000000000000a4f3d83a64bfeb7200000000000000000000000000000000000000000000006fb60f8c61144623dc",
          "blockHash": "0xc158b7b3f5dd54e40538976569d6c266ba4ebc4b20093f673f88dc78419f42c8",
          "blockNumber": "0x3ec9482",
          "transactionHash": "0x59ba08ac1010bea3ab6eb0e84a99e36c93088a1943d2258c5bd1716f01e42eaa",
          "transactionIndex": "0x37",
          "logIndex": "0x139",
          "removed": false
        }
      ],
      "logsBloom": "0x40000000000000000000000000080000000000000000000000000000000000000000000000001000000000000002000000008000000000000000000000200000000000042000000000000000000000800000000000000000000100000000000000000000000000000000000000000800000000000000000080004000000000000000000000000000000000000000000000000000000000040000000000000000220000000000004000000000000000000000000000000000000080080000004000000000000000000001000000000000000000000000000000100000000000000010000000000000000000000000000000000000000000000000000000100000",
      "type": "0x2",
      "transactionHash": "0x59ba08ac1010bea3ab6eb0e84a99e36c93088a1943d2258c5bd1716f01e42eaa",
      "transactionIndex": "0x37",
      "blockHash": "0xc158b7b3f5dd54e40538976569d6c266ba4ebc4b20093f673f88dc78419f42c8",
      "blockNumber": "0x3ec9482",
      "gasUsed": "0xb47d",
      "effectiveGasPrice": "0x3c5ec0f9e9",
      "from": "0x21aF1185734D213D45C6236146fb81E2b0E8b821",
      "to": "0x3d2bD0e15829AA5C362a4144FdF4A1112fa29B5c",
      "contractAddress": null
    },
    {
      "status": "0x1",
      "cumulativeGasUsed": "0x9f8fab",
      "logs": [
        {
          "address": "0x0000000000000000000000000000000000001010",
          "topics": [
            "0xe6497e3ee548a3372136af2fcb0696db31fc6cf20260707645068bd3fe97f3c4",
            "0x0000000000000000000000000000000000000000000000000000000000001010",
            "0x00000000000000000000000021af1185734d213d45c6236146fb81e2b0e8b821",
            "0x000000000000000000000000303b63e785b656ca56ea5a5c1634ab20c98895e1"
          ],
          "data": "0x000000000000000000000000000000000000000000000000056b6fb8f43dec85000000000000000000000000000000000000000000000000a371ef4326b8312800000000000000000000000000000000000000000000000000000000000000000000000000000000000000000000000000000000000000009e067f8a327a44a3000000000000000000000000000000000000000000000000056b6fb8f43dec85",
          "blockHash": "0xc158b7b3f5dd54e40538976569d6c266ba4ebc4b20093f673f88dc78419f42c8",
          "blockNumber": "0x3ec9482",
          "transactionHash": "0xa6b4b2035b966224ff6e88dd3fea44b615fadefeb75fcc6e6c36033f4a09c6cc",
          "transactionIndex": "0x38",
          "logIndex": "0x13a",
          "removed": false
        },
        {
          "address": "0x3d2bD0e15829AA5C362a4144FdF4A1112fa29B5c",
          "topics": [
            "0xddf252ad1be2c89b69c2b068fc378daa952ba7f163c4a11628f55a4df523b3ef",
            "0x00000000000000000000000021af1185734d213d45c6236146fb81e2b0e8b821",
            "0x000000000000000000000000303b63e785b656ca56ea5a5c1634ab20c98895e1"
          ],
          "data": "0x0000000000000000000000000000000000000000000069e10de76676d0800000",
          "blockHash": "0xc158b7b3f5dd54e40538976569d6c266ba4ebc4b20093f673f88dc78419f42c8",
          "blockNumber": "0x3ec9482",
          "transactionHash": "0xa6b4b2035b966224ff6e88dd3fea44b615fadefeb75fcc6e6c36033f4a09c6cc",
          "transactionIndex": "0x38",
          "logIndex": "0x13b",
          "removed": false
        },
        {
          "address": "0x0000000000000000000000000000000000001010",
          "topics": [
            "0xe6497e3ee548a3372136af2fcb0696db31fc6cf20260707645068bd3fe97f3c4",
            "0x0000000000000000000000000000000000000000000000000000000000001010",
            "0x000000000000000000000000303b63e785b656ca56ea5a5c1634ab20c98895e1",
            "0x0000000000000000000000001a44076050125825900e736c501f859c50fe728c"
          ],
          "data": "0x000000000000000000000000000000000000000000000000056b6fb8f43dec85000000000000000000000000000000000000000000000000056b6fb8f43dec8500000000000000000000000000000000000000000000000000000000000000000000000000000000000000000000000000000000000000000000000000000000000000000000000000000000000000000000000000000000056b6fb8f43dec85",
          "blockHash": "0xc158b7b3f5dd54e40538976569d6c266ba4ebc4b20093f673f88dc78419f42c8",
          "blockNumber": "0x3ec9482",
          "transactionHash": "0xa6b4b2035b966224ff6e88dd3fea44b615fadefeb75fcc6e6c36033f4a09c6cc",
          "transactionIndex": "0x38",
          "logIndex": "0x13c",
          "removed": false
        },
        {
          "address": "0x6c26c61a97006888ea9E4FA36584c7df57Cd9dA3",
          "topics": [
            "0x61ed099e74a97a1d7f8bb0952a88ca8b7b8ebd00c126ea04671f92a81213318a"
          ],
          "data": "0x000000000000000000000000cd3f213ad101472e1713c72b1697e727c803885b000000000000000000000000000000000000000000000000026378531155eb5a",
          "blockHash": "0xc158b7b3f5dd54e40538976569d6c266ba4ebc4b20093f673f88dc78419f42c8",
          "blockNumber": "0x3ec9482",
          "transactionHash": "0xa6b4b2035b966224ff6e88dd3fea44b615fadefeb75fcc6e6c36033f4a09c6cc",
          "transactionIndex": "0x38",
          "logIndex": "0x13d",
          "removed": false
        },
        {
          "address": "0x6c26c61a97006888ea9E4FA36584c7df57Cd9dA3",
          "topics": [
            "0x07ea52d82345d6e838192107d8fd7123d9c2ec8e916cd0aad13fd2b60db24644"
          ],
          "data": "0x000000000000000000000000000000000000000000000000000000000000006000000000000000000000000000000000000000000000000000000000000000c000000000000000000000000000000000000000000000000000000000000000e0000000000000000000000000000000000000000000000000000000000000000200000000000000000000000023de2fe932d9043291f870324b74f820e11dc81a000000000000000000000000d56e4eab23cb81f43168f9f45211eb027b9ac7cc000000000000000000000000000000000000000000000000000000000000000000000000000000000000000000000000000000000000000000000000000000020000000000000000000000000000000000000000000000000025fd510ff154ce00000000000000000000000000000000000000000000000002e1fa14d2f6ac5d",
          "blockHash": "0xc158b7b3f5dd54e40538976569d6c266ba4ebc4b20093f673f88dc78419f42c8",
          "blockNumber": "0x3ec9482",
          "transactionHash": "0xa6b4b2035b966224ff6e88dd3fea44b615fadefeb75fcc6e6c36033f4a09c6cc",
          "transactionIndex": "0x38",
          "logIndex": "0x13e",
          "removed": false
        },
        {
          "address": "0x1a44076050125825900e736c501f859c50fE728c",
          "topics": [
            "0x1ab700d4ced0c005b164c0f789fd09fcbb0156d4c2041b8a3bfbcd961cd1567f"
          ],
          "data": "0x000000000000000000000000000000000000000000000000000000000000006000000000000000000000000000000000000000000000000000000000000001200000000000000000000000006c26c61a97006888ea9e4fa36584c7df57cd9da300000000000000000000000000000000000000000000000000000000000000990100000000000004a20000759d000000000000000000000000303b63e785b656ca56ea5a5c1634ab20c98895e1000075e8000000000000000000000000474f4cb764df9da079d94052fed39625c147c12c0420ce608ebd0b46cd21f9c9da089e18655147cafaf79d25cb358c81d42637f700000000000000000000000021af1185734d213d45c6236146fb81e2b0e8b821000000746a52880000000000000000000000000000000000000000000000000000000000000000000000000000002a0003010011010000000000000000000000000001adb0010011010000000000000000000000000007a12000000000000000000000000000000000000000000000",
          "blockHash": "0xc158b7b3f5dd54e40538976569d6c266ba4ebc4b20093f673f88dc78419f42c8",
          "blockNumber": "0x3ec9482",
          "transactionHash": "0xa6b4b2035b966224ff6e88dd3fea44b615fadefeb75fcc6e6c36033f4a09c6cc",
          "transactionIndex": "0x38",
          "logIndex": "0x13f",
          "removed": false
        },
        {
          "address": "0x0000000000000000000000000000000000001010",
          "topics": [
            "0xe6497e3ee548a3372136af2fcb0696db31fc6cf20260707645068bd3fe97f3c4",
            "0x0000000000000000000000000000000000000000000000000000000000001010",
            "0x0000000000000000000000001a44076050125825900e736c501f859c50fe728c",
            "0x0000000000000000000000006c26c61a97006888ea9e4fa36584c7df57cd9da3"
          ],
          "data": "0x000000000000000000000000000000000000000000000000056b6fb8f43dec85000000000000000000000000000000000000000000000000056b6fb8f43dec85000000000000000000000000000000000000000000001905b63d293d6af24ac20000000000000000000000000000000000000000000000000000000000000000000000000000000000000000000000000000000000001905bba898f65f303747",
          "blockHash": "0xc158b7b3f5dd54e40538976569d6c266ba4ebc4b20093f673f88dc78419f42c8",
          "blockNumber": "0x3ec9482",
          "transactionHash": "0xa6b4b2035b966224ff6e88dd3fea44b615fadefeb75fcc6e6c36033f4a09c6cc",
          "transactionIndex": "0x38",
          "logIndex": "0x140",
          "removed": false
        },
        {
          "address": "0x303b63e785B656ca56ea5A5C1634Ab20C98895e1",
          "topics": [
            "0x85496b760a4b7f8d66384b9df21b381f5d1b1e79f229a47aaf4c232edc2fe59a",
            "0x0420ce608ebd0b46cd21f9c9da089e18655147cafaf79d25cb358c81d42637f7",
            "0x00000000000000000000000021af1185734d213d45c6236146fb81e2b0e8b821"
          ],
          "data": "0x00000000000000000000000000000000000000000000000000000000000075e80000000000000000000000000000000000000000000069e10de76676d08000000000000000000000000000000000000000000000000069e10de76676d0800000",
          "blockHash": "0xc158b7b3f5dd54e40538976569d6c266ba4ebc4b20093f673f88dc78419f42c8",
          "blockNumber": "0x3ec9482",
          "transactionHash": "0xa6b4b2035b966224ff6e88dd3fea44b615fadefeb75fcc6e6c36033f4a09c6cc",
          "transactionIndex": "0x38",
          "logIndex": "0x141",
          "removed": false
        },
        {
          "address": "0x0000000000000000000000000000000000001010",
          "topics": [
            "0x4dfe1bbbcf077ddc3e01291eea2d5c70c2b422b415d95645b9adcfd678cb1d63",
            "0x0000000000000000000000000000000000000000000000000000000000001010",
            "0x00000000000000000000000021af1185734d213d45c6236146fb81e2b0e8b821",
            "0x000000000000000000000000a8b52f02108aa5f4b675bdcc973760022d7c6020"
          ],
          "data": "0x0000000000000000000000000000000000000000000000000031aa4eaeb58820000000000000000000000000000000000000000000000000a4d195bdbe2c2a1d00000000000000000000000000000000000000000000006fb60f8c61144623dc000000000000000000000000000000000000000000000000a49feb6f0f76a1fd00000000000000000000000000000000000000000000006fb64136afc2fbabfc",
          "blockHash": "0xc158b7b3f5dd54e40538976569d6c266ba4ebc4b20093f673f88dc78419f42c8",
          "blockNumber": "0x3ec9482",
          "transactionHash": "0xa6b4b2035b966224ff6e88dd3fea44b615fadefeb75fcc6e6c36033f4a09c6cc",
          "transactionIndex": "0x38",
          "logIndex": "0x142",
          "removed": false
        }
      ],
      "logsBloom": "0x400000000000000000000480000800000000000000000000000000040010000000000040000010000000001000020000000080000000000000000000000000000000820420100000004000080000008000000000000000000001000000000000000000000000000080000000000008000000000000100000802040100000000000000000000000000000000800000000000000000000000400000100000000002000000080000040001000001000000000000000004000010004c0080000004000000002000000000001000080000000000000000000801000188000000000000000040000000000000000000000002000000000018000000002000000100000",
      "type": "0x2",
      "transactionHash": "0xa6b4b2035b966224ff6e88dd3fea44b615fadefeb75fcc6e6c36033f4a09c6cc",
      "transactionIndex": "0x38",
      "blockHash": "0xc158b7b3f5dd54e40538976569d6c266ba4ebc4b20093f673f88dc78419f42c8",
      "blockNumber": "0x3ec9482",
      "gasUsed": "0x43796",
      "effectiveGasPrice": "0x3c5ec0f9e9",
      "from": "0x21aF1185734D213D45C6236146fb81E2b0E8b821",
      "to": "0x303b63e785B656ca56ea5A5C1634Ab20C98895e1",
      "contractAddress": null
    }
  ],
  "libraries": [],
  "pending": [],
  "returns": {},
  "timestamp": 1734968269,
  "chain": 137,
  "commit": "9bc9372"
}