{
  "transactions": [
    {
      "hash": "0xc8096a83a5397a928bc218f446cdec7f093fe3c8e0a1e1b80a49d6134d240f9c",
      "transactionType": "CALL",
      "contractName": null,
      "contractAddress": "0x3d2bD0e15829AA5C362a4144FdF4A1112fa29B5c",
      "function": "approve(address,uint256)",
      "arguments": [
        "0x303b63e785B656ca56ea5A5C1634Ab20C98895e1",
        "50000000000000000000000"
      ],
      "transaction": {
        "from": "0x21aF1185734D213D45C6236146fb81E2b0E8b821",
        "to": "0x3d2bD0e15829AA5C362a4144FdF4A1112fa29B5c",
        "gas": "0xf94b",
        "value": "0x0",
        "input": "0x095ea7b3000000000000000000000000303b63e785b656ca56ea5a5c1634ab20c98895e1000000000000000000000000000000000000000000000a968163f0a57b400000",
        "nonce": "0x119",
        "chainId": "0x89"
      },
      "additionalContracts": [],
      "isFixedGasLimit": false
    },
    {
      "hash": "0x33dcd8debcb08499cdd9e51843ae9d858ed64572c5db955886d3a0dcb09c0e51",
      "transactionType": "CALL",
      "contractName": null,
      "contractAddress": "0x303b63e785B656ca56ea5A5C1634Ab20C98895e1",
      "function": "send((uint32,bytes32,uint256,uint256,bytes,bytes,bytes),(uint256,uint256),address)",
      "arguments": [
        "(30165, 0x0000000000000000000000006065bf717587a4ef25d7ceb1570f399673184b42, 50000000000000000000000, 50000000000000000000000, 0x0003010011010000000000000000000000000007a120, 0x, 0x)",
        "(4415718943482427883, 0)",
        "0x5b73C5498c1E3b4dbA84de0F1833c4a029d90519"
      ],
      "transaction": {
        "from": "0x21aF1185734D213D45C6236146fb81E2b0E8b821",
        "to": "0x303b63e785B656ca56ea5A5C1634Ab20C98895e1",
        "gas": "0x61f08",
        "value": "0x3d47c8fbce3bb9eb",
        "input": "0xc7c7f5b300000000000000000000000000000000000000000000000000000000000000800000000000000000000000000000000000000000000000003d47c8fbce3bb9eb00000000000000000000000000000000000000000000000000000000000000000000000000000000000000005b73c5498c1e3b4dba84de0f1833c4a029d9051900000000000000000000000000000000000000000000000000000000000075d50000000000000000000000006065bf717587a4ef25d7ceb1570f399673184b42000000000000000000000000000000000000000000000a968163f0a57b400000000000000000000000000000000000000000000000000a968163f0a57b40000000000000000000000000000000000000000000000000000000000000000000e00000000000000000000000000000000000000000000000000000000000000120000000000000000000000000000000000000000000000000000000000000014000000000000000000000000000000000000000000000000000000000000000160003010011010000000000000000000000000007a1200000000000000000000000000000000000000000000000000000000000000000000000000000000000000000000000000000000000000000000000000000000000000000000000000000",
        "nonce": "0x11a",
        "chainId": "0x89"
      },
      "additionalContracts": [],
      "isFixedGasLimit": false
    }
  ],
  "receipts": [
    {
      "status": "0x1",
      "cumulativeGasUsed": "0x619c85",
      "logs": [
        {
          "address": "0x3d2bD0e15829AA5C362a4144FdF4A1112fa29B5c",
          "topics": [
            "0x8c5be1e5ebec7d5bd14f71427d1e84f3dd0314c0f7b2291e5b200ac8c7c3b925",
            "0x00000000000000000000000021af1185734d213d45c6236146fb81e2b0e8b821",
            "0x000000000000000000000000303b63e785b656ca56ea5a5c1634ab20c98895e1"
          ],
          "data": "0x000000000000000000000000000000000000000000000a968163f0a57b400000",
          "blockHash": "0xeff593787310cddad863816de75642ac0338c0a8c19dc195728bcb6f28152ee5",
          "blockNumber": "0x3f60344",
          "transactionHash": "0xc8096a83a5397a928bc218f446cdec7f093fe3c8e0a1e1b80a49d6134d240f9c",
          "transactionIndex": "0x43",
          "logIndex": "0x12b",
          "removed": false
        },
        {
          "address": "0x0000000000000000000000000000000000001010",
          "topics": [
            "0x4dfe1bbbcf077ddc3e01291eea2d5c70c2b422b415d95645b9adcfd678cb1d63",
            "0x0000000000000000000000000000000000000000000000000000000000001010",
            "0x00000000000000000000000021af1185734d213d45c6236146fb81e2b0e8b821",
            "0x00000000000000000000000069f5c4d08f6bc8cd29fe5f004d46fb566270868d"
          ],
          "data": "0x000000000000000000000000000000000000000000000000000448416b10f6a500000000000000000000000000000000000000000000000097b34b70299faa490000000000000000000000000000000000000000000000243ba295b75005bfa900000000000000000000000000000000000000000000000097af032ebe8eb3a40000000000000000000000000000000000000000000000243ba6ddf8bb16b64e",
          "blockHash": "0xeff593787310cddad863816de75642ac0338c0a8c19dc195728bcb6f28152ee5",
          "blockNumber": "0x3f60344",
          "transactionHash": "0xc8096a83a5397a928bc218f446cdec7f093fe3c8e0a1e1b80a49d6134d240f9c",
          "transactionIndex": "0x43",
          "logIndex": "0x12c",
          "removed": false
        }
      ],
      "logsBloom": "0x40000000000000000000000002080000000000000000000000000000000000000000000000001000200000000000000000008000000000000000000000200000000000042000000000000000000040800000000000000000000100000000000000000000000000000000000000000800000000000000000080004000000000000000000000000000000000000000000000000000000000000000000000000000220000000000000000000000000000000000000000000000000080080000004000000000000000000001000000000000000000000000000000100000000000000010000000000000000000000000000000000000000000000000000000100000",
      "type": "0x2",
      "transactionHash": "0xc8096a83a5397a928bc218f446cdec7f093fe3c8e0a1e1b80a49d6134d240f9c",
      "transactionIndex": "0x43",
      "blockHash": "0xeff593787310cddad863816de75642ac0338c0a8c19dc195728bcb6f28152ee5",
      "blockNumber": "0x3f60344",
      "gasUsed": "0xb47d",
      "effectiveGasPrice": "0x154eb56f95",
      "from": "0x21aF1185734D213D45C6236146fb81E2b0E8b821",
      "to": "0x3d2bD0e15829AA5C362a4144FdF4A1112fa29B5c",
      "contractAddress": null
    },
    {
      "status": "0x1",
      "cumulativeGasUsed": "0x65cbff",
      "logs": [
        {
          "address": "0x0000000000000000000000000000000000001010",
          "topics": [
            "0xe6497e3ee548a3372136af2fcb0696db31fc6cf20260707645068bd3fe97f3c4",
            "0x0000000000000000000000000000000000000000000000000000000000001010",
            "0x00000000000000000000000021af1185734d213d45c6236146fb81e2b0e8b821",
            "0x000000000000000000000000303b63e785b656ca56ea5a5c1634ab20c98895e1"
          ],
          "data": "0x0000000000000000000000000000000000000000000000003d47c8fbce3bb9eb0000000000000000000000000000000000000000000000009721d83e1ce6e2e0000000000000000000000000000000000000000000000000000000000000000000000000000000000000000000000000000000000000000059da0f424eab28f50000000000000000000000000000000000000000000000003d47c8fbce3bb9eb",
          "blockHash": "0xeff593787310cddad863816de75642ac0338c0a8c19dc195728bcb6f28152ee5",
          "blockNumber": "0x3f60344",
          "transactionHash": "0x33dcd8debcb08499cdd9e51843ae9d858ed64572c5db955886d3a0dcb09c0e51",
          "transactionIndex": "0x44",
          "logIndex": "0x12d",
          "removed": false
        },
        {
          "address": "0x3d2bD0e15829AA5C362a4144FdF4A1112fa29B5c",
          "topics": [
            "0xddf252ad1be2c89b69c2b068fc378daa952ba7f163c4a11628f55a4df523b3ef",
            "0x00000000000000000000000021af1185734d213d45c6236146fb81e2b0e8b821",
            "0x000000000000000000000000303b63e785b656ca56ea5a5c1634ab20c98895e1"
          ],
          "data": "0x000000000000000000000000000000000000000000000a968163f0a57b400000",
          "blockHash": "0xeff593787310cddad863816de75642ac0338c0a8c19dc195728bcb6f28152ee5",
          "blockNumber": "0x3f60344",
          "transactionHash": "0x33dcd8debcb08499cdd9e51843ae9d858ed64572c5db955886d3a0dcb09c0e51",
          "transactionIndex": "0x44",
          "logIndex": "0x12e",
          "removed": false
        },
        {
          "address": "0x0000000000000000000000000000000000001010",
          "topics": [
            "0xe6497e3ee548a3372136af2fcb0696db31fc6cf20260707645068bd3fe97f3c4",
            "0x0000000000000000000000000000000000000000000000000000000000001010",
            "0x000000000000000000000000303b63e785b656ca56ea5a5c1634ab20c98895e1",
            "0x0000000000000000000000001a44076050125825900e736c501f859c50fe728c"
          ],
          "data": "0x0000000000000000000000000000000000000000000000003d47c8fbce3bb9eb0000000000000000000000000000000000000000000000003d47c8fbce3bb9eb000000000000000000000000000000000000000000000000000000000000000000000000000000000000000000000000000000000000000000000000000000000000000000000000000000000000000000000000000000003d47c8fbce3bb9eb",
          "blockHash": "0xeff593787310cddad863816de75642ac0338c0a8c19dc195728bcb6f28152ee5",
          "blockNumber": "0x3f60344",
          "transactionHash": "0x33dcd8debcb08499cdd9e51843ae9d858ed64572c5db955886d3a0dcb09c0e51",
          "transactionIndex": "0x44",
          "logIndex": "0x12f",
          "removed": false
        },
        {
          "address": "0x6c26c61a97006888ea9E4FA36584c7df57Cd9dA3",
          "topics": [
            "0x61ed099e74a97a1d7f8bb0952a88ca8b7b8ebd00c126ea04671f92a81213318a"
          ],
          "data": "0x000000000000000000000000cd3f213ad101472e1713c72b1697e727c803885b000000000000000000000000000000000000000000000000125ce9417d5f14e6",
          "blockHash": "0xeff593787310cddad863816de75642ac0338c0a8c19dc195728bcb6f28152ee5",
          "blockNumber": "0x3f60344",
          "transactionHash": "0x33dcd8debcb08499cdd9e51843ae9d858ed64572c5db955886d3a0dcb09c0e51",
          "transactionIndex": "0x44",
          "logIndex": "0x130",
          "removed": false
        },
        {
          "address": "0x6c26c61a97006888ea9E4FA36584c7df57Cd9dA3",
          "topics": [
            "0x07ea52d82345d6e838192107d8fd7123d9c2ec8e916cd0aad13fd2b60db24644"
          ],
          "data": "0x000000000000000000000000000000000000000000000000000000000000006000000000000000000000000000000000000000000000000000000000000000a000000000000000000000000000000000000000000000000000000000000000e0000000000000000000000000000000000000000000000000000000000000000100000000000000000000000023de2fe932d9043291f870324b74f820e11dc81a0000000000000000000000000000000000000000000000000000000000000001000000000000000000000000c79f0b1bcb7cdae9f9ba547dcfc57cbfcd2993a50000000000000000000000000000000000000000000000000000000000000002000000000000000000000000000000000000000000000000157623866780c5030000000000000000000000000000000000000000000000001574bc33e95be002",
          "blockHash": "0xeff593787310cddad863816de75642ac0338c0a8c19dc195728bcb6f28152ee5",
          "blockNumber": "0x3f60344",
          "transactionHash": "0x33dcd8debcb08499cdd9e51843ae9d858ed64572c5db955886d3a0dcb09c0e51",
          "transactionIndex": "0x44",
          "logIndex": "0x131",
          "removed": false
        },
        {
          "address": "0x1a44076050125825900e736c501f859c50fE728c",
          "topics": [
            "0x1ab700d4ced0c005b164c0f789fd09fcbb0156d4c2041b8a3bfbcd961cd1567f"
          ],
          "data": "0x000000000000000000000000000000000000000000000000000000000000006000000000000000000000000000000000000000000000000000000000000001200000000000000000000000006c26c61a97006888ea9e4fa36584c7df57cd9da3000000000000000000000000000000000000000000000000000000000000009901000000000000006e0000759d000000000000000000000000303b63e785b656ca56ea5a5c1634ab20c98895e1000075d5000000000000000000000000b0588f9a9cade7cd5f194a5fe77acd6a58250f825af3868c8300ba1948843c0fd62adf9c36496bc7e33c3a3cc2b828123316beaa0000000000000000000000006065bf717587a4ef25d7ceb1570f399673184b420000000ba43b740000000000000000000000000000000000000000000000000000000000000000000000000000002a0003010011010000000000000000000000000001adb0010011010000000000000000000000000007a12000000000000000000000000000000000000000000000",
          "blockHash": "0xeff593787310cddad863816de75642ac0338c0a8c19dc195728bcb6f28152ee5",
          "blockNumber": "0x3f60344",
          "transactionHash": "0x33dcd8debcb08499cdd9e51843ae9d858ed64572c5db955886d3a0dcb09c0e51",
          "transactionIndex": "0x44",
          "logIndex": "0x132",
          "removed": false
        },
        {
          "address": "0x0000000000000000000000000000000000001010",
          "topics": [
            "0xe6497e3ee548a3372136af2fcb0696db31fc6cf20260707645068bd3fe97f3c4",
            "0x0000000000000000000000000000000000000000000000000000000000001010",
            "0x0000000000000000000000001a44076050125825900e736c501f859c50fe728c",
            "0x0000000000000000000000006c26c61a97006888ea9e4fa36584c7df57cd9da3"
          ],
          "data": "0x0000000000000000000000000000000000000000000000003d47c8fbce3bb9eb0000000000000000000000000000000000000000000000003d47c8fbce3bb9eb00000000000000000000000000000000000000000000064e44e2fe1c2bdd065e000000000000000000000000000000000000000000000000000000000000000000000000000000000000000000000000000000000000064e822ac717fa18c049",
          "blockHash": "0xeff593787310cddad863816de75642ac0338c0a8c19dc195728bcb6f28152ee5",
          "blockNumber": "0x3f60344",
          "transactionHash": "0x33dcd8debcb08499cdd9e51843ae9d858ed64572c5db955886d3a0dcb09c0e51",
          "transactionIndex": "0x44",
          "logIndex": "0x133",
          "removed": false
        },
        {
          "address": "0x303b63e785B656ca56ea5A5C1634Ab20C98895e1",
          "topics": [
            "0x85496b760a4b7f8d66384b9df21b381f5d1b1e79f229a47aaf4c232edc2fe59a",
            "0x5af3868c8300ba1948843c0fd62adf9c36496bc7e33c3a3cc2b828123316beaa",
            "0x00000000000000000000000021af1185734d213d45c6236146fb81e2b0e8b821"
          ],
          "data": "0x00000000000000000000000000000000000000000000000000000000000075d5000000000000000000000000000000000000000000000a968163f0a57b400000000000000000000000000000000000000000000000000a968163f0a57b400000",
          "blockHash": "0xeff593787310cddad863816de75642ac0338c0a8c19dc195728bcb6f28152ee5",
          "blockNumber": "0x3f60344",
          "transactionHash": "0x33dcd8debcb08499cdd9e51843ae9d858ed64572c5db955886d3a0dcb09c0e51",
          "transactionIndex": "0x44",
          "logIndex": "0x134",
          "removed": false
        },
        {
          "address": "0x0000000000000000000000000000000000001010",
          "topics": [
            "0x4dfe1bbbcf077ddc3e01291eea2d5c70c2b422b415d95645b9adcfd678cb1d63",
            "0x0000000000000000000000000000000000000000000000000000000000001010",
            "0x00000000000000000000000021af1185734d213d45c6236146fb81e2b0e8b821",
            "0x00000000000000000000000069f5c4d08f6bc8cd29fe5f004d46fb566270868d"
          ],
          "data": "0x00000000000000000000000000000000000000000000000000196bf8088407ca00000000000000000000000000000000000000000000000097a445b128936a880000000000000000000000000000000000000000000000243ba6ddf8bb16b64e000000000000000000000000000000000000000000000000978ad9b9200f62be0000000000000000000000000000000000000000000000243bc049f0c39abe18",
          "blockHash": "0xeff593787310cddad863816de75642ac0338c0a8c19dc195728bcb6f28152ee5",
          "blockNumber": "0x3f60344",
          "transactionHash": "0x33dcd8debcb08499cdd9e51843ae9d858ed64572c5db955886d3a0dcb09c0e51",
          "transactionIndex": "0x44",
          "logIndex": "0x135",
          "removed": false
        }
      ],
      "logsBloom": "0x400000000000000000000480020800000000000000000000000000040010000000000040000010002000001000020000000080000000800000000000000000000000820420100000004000090000408000000000000000000001000000000000000000000000000080000000000008000000000000100000802040100000000000000000000000000000000800000000000000000000000000000100000000002000000080000000001000000000000000000000004000000004c0080000004000000002000000000001000080000000000000000000801000188000000000000000040000000000000000000000002000000000018000000000000000140000",
      "type": "0x2",
      "transactionHash": "0x33dcd8debcb08499cdd9e51843ae9d858ed64572c5db955886d3a0dcb09c0e51",
      "transactionIndex": "0x44",
      "blockHash": "0xeff593787310cddad863816de75642ac0338c0a8c19dc195728bcb6f28152ee5",
      "blockNumber": "0x3f60344",
      "gasUsed": "0x42f7a",
      "effectiveGasPrice": "0x154eb56f95",
      "from": "0x21aF1185734D213D45C6236146fb81E2b0E8b821",
      "to": "0x303b63e785B656ca56ea5A5C1634Ab20C98895e1",
      "contractAddress": null
    }
  ],
  "libraries": [],
  "pending": [],
  "returns": {},
  "timestamp": 1736349698,
  "chain": 137,
  "commit": "9bc9372"
}