{
  "transactions": [
    {
      "hash": "0x7b0a9a33fe8b50b6d6026577081361f7c933ca611cbb446de7437e3b179abf78",
      "transactionType": "CALL",
      "contractName": null,
      "contractAddress": "0x3d2bD0e15829AA5C362a4144FdF4A1112fa29B5c",
      "function": "approve(address,uint256)",
      "arguments": [
        "0x303b63e785B656ca56ea5A5C1634Ab20C98895e1",
        "500000000000000000000000"
      ],
      "transaction": {
        "from": "0x21aF1185734D213D45C6236146fb81E2b0E8b821",
        "to": "0x3d2bD0e15829AA5C362a4144FdF4A1112fa29B5c",
        "gas": "0xf94b",
        "value": "0x0",
        "input": "0x095ea7b3000000000000000000000000303b63e785b656ca56ea5a5c1634ab20c98895e10000000000000000000000000000000000000000000069e10de76676d0800000",
        "nonce": "0x101",
        "chainId": "0x89"
      },
      "additionalContracts": [],
      "isFixedGasLimit": false
    },
    {
      "hash": "0x65694c7aa28cf9fed9277fe9cdddc4627b01ecdd57abf01356692d64b06d0c35",
      "transactionType": "CALL",
      "contractName": "BonsaiOFTAdapter",
      "contractAddress": "0x303b63e785B656ca56ea5A5C1634Ab20C98895e1",
      "function": "send((uint32,bytes32,uint256,uint256,bytes,bytes,bytes),(uint256,uint256),address)",
      "arguments": [
        "(30184, 0x00000000000000000000000021af1185734d213d45c6236146fb81e2b0e8b821, 500000000000000000000000, 500000000000000000000000, 0x0003010011010000000000000000000000000007a120, 0x, 0x)",
        "(831684566519666333, 0)",
        "0x5b73C5498c1E3b4dbA84de0F1833c4a029d90519"
      ],
      "transaction": {
        "from": "0x21aF1185734D213D45C6236146fb81E2b0E8b821",
        "to": "0x303b63e785B656ca56ea5A5C1634Ab20C98895e1",
        "gas": "0x5d33b",
        "value": "0xb8abcb4f094569d",
        "input": "0xc7c7f5b300000000000000000000000000000000000000000000000000000000000000800000000000000000000000000000000000000000000000000b8abcb4f094569d00000000000000000000000000000000000000000000000000000000000000000000000000000000000000005b73c5498c1e3b4dba84de0f1833c4a029d9051900000000000000000000000000000000000000000000000000000000000075e800000000000000000000000021af1185734d213d45c6236146fb81e2b0e8b8210000000000000000000000000000000000000000000069e10de76676d08000000000000000000000000000000000000000000000000069e10de76676d080000000000000000000000000000000000000000000000000000000000000000000e00000000000000000000000000000000000000000000000000000000000000120000000000000000000000000000000000000000000000000000000000000014000000000000000000000000000000000000000000000000000000000000000160003010011010000000000000000000000000007a1200000000000000000000000000000000000000000000000000000000000000000000000000000000000000000000000000000000000000000000000000000000000000000000000000000",
        "nonce": "0x102",
        "chainId": "0x89"
      },
      "additionalContracts": [],
      "isFixedGasLimit": false
    },
    {
      "hash": "0xac89a2789e40eaa275c381efbc6d787a9fb4b0c011f05a61b05a00ea22baa727",
      "transactionType": "CALL",
      "contractName": null,
      "contractAddress": "0x3d2bD0e15829AA5C362a4144FdF4A1112fa29B5c",
      "function": "approve(address,uint256)",
      "arguments": [
        "0x303b63e785B656ca56ea5A5C1634Ab20C98895e1",
        "500000000000000000000000"
      ],
      "transaction": {
        "from": "0x21aF1185734D213D45C6236146fb81E2b0E8b821",
        "to": "0x3d2bD0e15829AA5C362a4144FdF4A1112fa29B5c",
        "gas": "0xf94b",
        "value": "0x0",
        "input": "0x095ea7b3000000000000000000000000303b63e785b656ca56ea5a5c1634ab20c98895e10000000000000000000000000000000000000000000069e10de76676d0800000",
        "nonce": "0x103",
        "chainId": "0x89"
      },
      "additionalContracts": [],
      "isFixedGasLimit": false
    },
    {
      "hash": "0xb121434d394b0644ad51a1ce87701108a968b62b54488efc7291eb540644d99c",
      "transactionType": "CALL",
      "contractName": "BonsaiOFTAdapter",
      "contractAddress": "0x303b63e785B656ca56ea5A5C1634Ab20C98895e1",
      "function": "send((uint32,bytes32,uint256,uint256,bytes,bytes,bytes),(uint256,uint256),address)",
      "arguments": [
        "(30184, 0x00000000000000000000000021af1185734d213d45c6236146fb81e2b0e8b821, 500000000000000000000000, 500000000000000000000000, 0x0003010011010000000000000000000000000007a120, 0x, 0x)",
        "(831684566519666333, 0)",
        "0x5b73C5498c1E3b4dbA84de0F1833c4a029d90519"
      ],
      "transaction": {
        "from": "0x21aF1185734D213D45C6236146fb81E2b0E8b821",
        "to": "0x303b63e785B656ca56ea5A5C1634Ab20C98895e1",
        "gas": "0x5d33b",
        "value": "0xb8abcb4f094569d",
        "input": "0xc7c7f5b300000000000000000000000000000000000000000000000000000000000000800000000000000000000000000000000000000000000000000b8abcb4f094569d00000000000000000000000000000000000000000000000000000000000000000000000000000000000000005b73c5498c1e3b4dba84de0f1833c4a029d9051900000000000000000000000000000000000000000000000000000000000075e800000000000000000000000021af1185734d213d45c6236146fb81e2b0e8b8210000000000000000000000000000000000000000000069e10de76676d08000000000000000000000000000000000000000000000000069e10de76676d080000000000000000000000000000000000000000000000000000000000000000000e00000000000000000000000000000000000000000000000000000000000000120000000000000000000000000000000000000000000000000000000000000014000000000000000000000000000000000000000000000000000000000000000160003010011010000000000000000000000000007a1200000000000000000000000000000000000000000000000000000000000000000000000000000000000000000000000000000000000000000000000000000000000000000000000000000",
        "nonce": "0x104",
        "chainId": "0x89"
      },
      "additionalContracts": [],
      "isFixedGasLimit": false
    }
  ],
  "receipts": [
    {
      "status": "0x1",
      "cumulativeGasUsed": "0xabddb7",
      "logs": [
        {
          "address": "0x3d2bD0e15829AA5C362a4144FdF4A1112fa29B5c",
          "topics": [
            "0x8c5be1e5ebec7d5bd14f71427d1e84f3dd0314c0f7b2291e5b200ac8c7c3b925",
            "0x00000000000000000000000021af1185734d213d45c6236146fb81e2b0e8b821",
            "0x000000000000000000000000303b63e785b656ca56ea5a5c1634ab20c98895e1"
          ],
          "data": "0x0000000000000000000000000000000000000000000069e10de76676d0800000",
          "blockHash": "0x5405e08a6bc1373aa0656bf7a7bb5d8a054ed1f91a3e5ca035113c8d61aefe1f",
          "blockNumber": "0x3ddf21b",
          "transactionHash": "0x7b0a9a33fe8b50b6d6026577081361f7c933ca611cbb446de7437e3b179abf78",
          "transactionIndex": "0x41",
          "logIndex": "0x2b7",
          "removed": false
        },
        {
          "address": "0x0000000000000000000000000000000000001010",
          "topics": [
            "0x4dfe1bbbcf077ddc3e01291eea2d5c70c2b422b415d95645b9adcfd678cb1d63",
            "0x0000000000000000000000000000000000000000000000000000000000001010",
            "0x00000000000000000000000021af1185734d213d45c6236146fb81e2b0e8b821",
            "0x000000000000000000000000959c65b72147faf3450d8b50a0de57e72ffc5e0d"
          ],
          "data": "0x0000000000000000000000000000000000000000000000000004ecb2325afc000000000000000000000000000000000000000000000000015c383422c45f93f90000000000000000000000000000000000000000000009ffc61ec4f738817ff50000000000000000000000000000000000000000000000015c334770920497f90000000000000000000000000000000000000000000009ffc623b1a96adc7bf5",
          "blockHash": "0x5405e08a6bc1373aa0656bf7a7bb5d8a054ed1f91a3e5ca035113c8d61aefe1f",
          "blockNumber": "0x3ddf21b",
          "transactionHash": "0x7b0a9a33fe8b50b6d6026577081361f7c933ca611cbb446de7437e3b179abf78",
          "transactionIndex": "0x41",
          "logIndex": "0x2b8",
          "removed": false
        }
      ],
      "logsBloom": "0x40000000000000000000000000080000000000000000000000000000000000000000000000001000000000000000000000008800000000000000000000200000000000042000000000000000000000800000000000000000000100000000000000000000000000000000000000000800000000000000000080004000000000000000000000000000000000000000000000000000000000000000000000000000220000000000000000000000000000000000000000000000000080080000004000000000000000000001000000000000000000000000000000100000020000000010000000000000000000000000000002000000000000000000000000100000",
      "type": "0x2",
      "transactionHash": "0x7b0a9a33fe8b50b6d6026577081361f7c933ca611cbb446de7437e3b179abf78",
      "transactionIndex": "0x41",
      "blockHash": "0x5405e08a6bc1373aa0656bf7a7bb5d8a054ed1f91a3e5ca035113c8d61aefe1f",
      "blockNumber": "0x3ddf21b",
      "gasUsed": "0xb47d",
      "effectiveGasPrice": "0x1420ba6403",
      "from": "0x21aF1185734D213D45C6236146fb81E2b0E8b821",
      "to": "0x3d2bD0e15829AA5C362a4144FdF4A1112fa29B5c",
      "contractAddress": null
    },
    {
      "status": "0x1",
      "cumulativeGasUsed": "0xb01557",
      "logs": [
        {
          "address": "0x0000000000000000000000000000000000001010",
          "topics": [
            "0xe6497e3ee548a3372136af2fcb0696db31fc6cf20260707645068bd3fe97f3c4",
            "0x0000000000000000000000000000000000000000000000000000000000001010",
            "0x00000000000000000000000021af1185734d213d45c6236146fb81e2b0e8b821",
            "0x000000000000000000000000303b63e785b656ca56ea5a5c1634ab20c98895e1"
          ],
          "data": "0x0000000000000000000000000000000000000000000000000b8abcb4f094569d0000000000000000000000000000000000000000000000015bb4c40a9b981cd10000000000000000000000000000000000000000000000000000000000000000000000000000000000000000000000000000000000000001502a0755ab03c6340000000000000000000000000000000000000000000000000b8abcb4f094569d",
          "blockHash": "0x5405e08a6bc1373aa0656bf7a7bb5d8a054ed1f91a3e5ca035113c8d61aefe1f",
          "blockNumber": "0x3ddf21b",
          "transactionHash": "0x65694c7aa28cf9fed9277fe9cdddc4627b01ecdd57abf01356692d64b06d0c35",
          "transactionIndex": "0x42",
          "logIndex": "0x2b9",
          "removed": false
        },
        {
          "address": "0x3d2bD0e15829AA5C362a4144FdF4A1112fa29B5c",
          "topics": [
            "0xddf252ad1be2c89b69c2b068fc378daa952ba7f163c4a11628f55a4df523b3ef",
            "0x00000000000000000000000021af1185734d213d45c6236146fb81e2b0e8b821",
            "0x000000000000000000000000303b63e785b656ca56ea5a5c1634ab20c98895e1"
          ],
          "data": "0x0000000000000000000000000000000000000000000069e10de76676d0800000",
          "blockHash": "0x5405e08a6bc1373aa0656bf7a7bb5d8a054ed1f91a3e5ca035113c8d61aefe1f",
          "blockNumber": "0x3ddf21b",
          "transactionHash": "0x65694c7aa28cf9fed9277fe9cdddc4627b01ecdd57abf01356692d64b06d0c35",
          "transactionIndex": "0x42",
          "logIndex": "0x2ba",
          "removed": false
        },
        {
          "address": "0x0000000000000000000000000000000000001010",
          "topics": [
            "0xe6497e3ee548a3372136af2fcb0696db31fc6cf20260707645068bd3fe97f3c4",
            "0x0000000000000000000000000000000000000000000000000000000000001010",
            "0x000000000000000000000000303b63e785b656ca56ea5a5c1634ab20c98895e1",
            "0x0000000000000000000000001a44076050125825900e736c501f859c50fe728c"
          ],
          "data": "0x0000000000000000000000000000000000000000000000000b8abcb4f094569d0000000000000000000000000000000000000000000000000b8abcb4f094569d000000000000000000000000000000000000000000000000000000000000000000000000000000000000000000000000000000000000000000000000000000000000000000000000000000000000000000000000000000000b8abcb4f094569d",
          "blockHash": "0x5405e08a6bc1373aa0656bf7a7bb5d8a054ed1f91a3e5ca035113c8d61aefe1f",
          "blockNumber": "0x3ddf21b",
          "transactionHash": "0x65694c7aa28cf9fed9277fe9cdddc4627b01ecdd57abf01356692d64b06d0c35",
          "transactionIndex": "0x42",
          "logIndex": "0x2bb",
          "removed": false
        },
        {
          "address": "0x6c26c61a97006888ea9E4FA36584c7df57Cd9dA3",
          "topics": [
            "0x61ed099e74a97a1d7f8bb0952a88ca8b7b8ebd00c126ea04671f92a81213318a"
          ],
          "data": "0x000000000000000000000000cd3f213ad101472e1713c72b1697e727c803885b000000000000000000000000000000000000000000000000077818ef2dfde357",
          "blockHash": "0x5405e08a6bc1373aa0656bf7a7bb5d8a054ed1f91a3e5ca035113c8d61aefe1f",
          "blockNumber": "0x3ddf21b",
          "transactionHash": "0x65694c7aa28cf9fed9277fe9cdddc4627b01ecdd57abf01356692d64b06d0c35",
          "transactionIndex": "0x42",
          "logIndex": "0x2bc",
          "removed": false
        },
        {
          "address": "0x6c26c61a97006888ea9E4FA36584c7df57Cd9dA3",
          "topics": [
            "0x07ea52d82345d6e838192107d8fd7123d9c2ec8e916cd0aad13fd2b60db24644"
          ],
          "data": "0x000000000000000000000000000000000000000000000000000000000000006000000000000000000000000000000000000000000000000000000000000000c000000000000000000000000000000000000000000000000000000000000000e0000000000000000000000000000000000000000000000000000000000000000200000000000000000000000023de2fe932d9043291f870324b74f820e11dc81a000000000000000000000000d56e4eab23cb81f43168f9f45211eb027b9ac7cc0000000000000000000000000000000000000000000000000000000000000000000000000000000000000000000000000000000000000000000000000000000200000000000000000000000000000000000000000000000000ea579764ef82b600000000000000000000000000000000000000000000000003284c2e5da6f090",
          "blockHash": "0x5405e08a6bc1373aa0656bf7a7bb5d8a054ed1f91a3e5ca035113c8d61aefe1f",
          "blockNumber": "0x3ddf21b",
          "transactionHash": "0x65694c7aa28cf9fed9277fe9cdddc4627b01ecdd57abf01356692d64b06d0c35",
          "transactionIndex": "0x42",
          "logIndex": "0x2bd",
          "removed": false
        },
        {
          "address": "0x1a44076050125825900e736c501f859c50fE728c",
          "topics": [
            "0x1ab700d4ced0c005b164c0f789fd09fcbb0156d4c2041b8a3bfbcd961cd1567f"
          ],
          "data": "0x000000000000000000000000000000000000000000000000000000000000006000000000000000000000000000000000000000000000000000000000000001200000000000000000000000006c26c61a97006888ea9e4fa36584c7df57cd9da300000000000000000000000000000000000000000000000000000000000000990100000000000001ae0000759d000000000000000000000000303b63e785b656ca56ea5a5c1634ab20c98895e1000075e8000000000000000000000000474f4cb764df9da079d94052fed39625c147c12cd9688b034f46877618d8bf697ad3ea9398e112c63a8bbf56ed46ac81ac7cdb6e00000000000000000000000021af1185734d213d45c6236146fb81e2b0e8b821000000746a52880000000000000000000000000000000000000000000000000000000000000000000000000000002a0003010011010000000000000000000000000001adb0010011010000000000000000000000000007a12000000000000000000000000000000000000000000000",
          "blockHash": "0x5405e08a6bc1373aa0656bf7a7bb5d8a054ed1f91a3e5ca035113c8d61aefe1f",
          "blockNumber": "0x3ddf21b",
          "transactionHash": "0x65694c7aa28cf9fed9277fe9cdddc4627b01ecdd57abf01356692d64b06d0c35",
          "transactionIndex": "0x42",
          "logIndex": "0x2be",
          "removed": false
        },
        {
          "address": "0x0000000000000000000000000000000000001010",
          "topics": [
            "0xe6497e3ee548a3372136af2fcb0696db31fc6cf20260707645068bd3fe97f3c4",
            "0x0000000000000000000000000000000000000000000000000000000000001010",
            "0x0000000000000000000000001a44076050125825900e736c501f859c50fe728c",
            "0x0000000000000000000000006c26c61a97006888ea9e4fa36584c7df57cd9da3"
          ],
          "data": "0x0000000000000000000000000000000000000000000000000b8abcb4f094569d0000000000000000000000000000000000000000000000000b8abcb4f094569d0000000000000000000000000000000000000000000010463e72418529742253000000000000000000000000000000000000000000000000000000000000000000000000000000000000000000000000000000000000104649fcfe3a1a0878f0",
          "blockHash": "0x5405e08a6bc1373aa0656bf7a7bb5d8a054ed1f91a3e5ca035113c8d61aefe1f",
          "blockNumber": "0x3ddf21b",
          "transactionHash": "0x65694c7aa28cf9fed9277fe9cdddc4627b01ecdd57abf01356692d64b06d0c35",
          "transactionIndex": "0x42",
          "logIndex": "0x2bf",
          "removed": false
        },
        {
          "address": "0x303b63e785B656ca56ea5A5C1634Ab20C98895e1",
          "topics": [
            "0x85496b760a4b7f8d66384b9df21b381f5d1b1e79f229a47aaf4c232edc2fe59a",
            "0xd9688b034f46877618d8bf697ad3ea9398e112c63a8bbf56ed46ac81ac7cdb6e",
            "0x00000000000000000000000021af1185734d213d45c6236146fb81e2b0e8b821"
          ],
          "data": "0x00000000000000000000000000000000000000000000000000000000000075e80000000000000000000000000000000000000000000069e10de76676d08000000000000000000000000000000000000000000000000069e10de76676d0800000",
          "blockHash": "0x5405e08a6bc1373aa0656bf7a7bb5d8a054ed1f91a3e5ca035113c8d61aefe1f",
          "blockNumber": "0x3ddf21b",
          "transactionHash": "0x65694c7aa28cf9fed9277fe9cdddc4627b01ecdd57abf01356692d64b06d0c35",
          "transactionIndex": "0x42",
          "logIndex": "0x2c0",
          "removed": false
        },
        {
          "address": "0x0000000000000000000000000000000000001010",
          "topics": [
            "0x4dfe1bbbcf077ddc3e01291eea2d5c70c2b422b415d95645b9adcfd678cb1d63",
            "0x0000000000000000000000000000000000000000000000000000000000001010",
            "0x00000000000000000000000021af1185734d213d45c6236146fb81e2b0e8b821",
            "0x000000000000000000000000959c65b72147faf3450d8b50a0de57e72ffc5e0d"
          ],
          "data": "0x000000000000000000000000000000000000000000000000001d7517f03f80000000000000000000000000000000000000000000000000015c2a034bbb0aa2820000000000000000000000000000000000000000000009ffc623b1a96adc7bf50000000000000000000000000000000000000000000000015c0c8e33cacb22820000000000000000000000000000000000000000000009ffc64126c15b1bfbf5",
          "blockHash": "0x5405e08a6bc1373aa0656bf7a7bb5d8a054ed1f91a3e5ca035113c8d61aefe1f",
          "blockNumber": "0x3ddf21b",
          "transactionHash": "0x65694c7aa28cf9fed9277fe9cdddc4627b01ecdd57abf01356692d64b06d0c35",
          "transactionIndex": "0x42",
          "logIndex": "0x2c1",
          "removed": false
        }
      ],
      "logsBloom": "0x400000000400000000000480000800000000002000000000000000040010000000000040000010000000001000020000000088000000000000000008000000000000820420100000004000080000008000000000000000000001000000000000000000000000000080000000000008000000000000100000802040100000000000000000000000000000000800000000000000000000000000000100000000002000000080000000001000000000000000000000004000000004c0080000004000000002000000000001000080000000000000000000801000188000020000000000040000000000000000000000002002000000018000000000000000100000",
      "type": "0x2",
      "transactionHash": "0x65694c7aa28cf9fed9277fe9cdddc4627b01ecdd57abf01356692d64b06d0c35",
      "transactionIndex": "0x42",
      "blockHash": "0x5405e08a6bc1373aa0656bf7a7bb5d8a054ed1f91a3e5ca035113c8d61aefe1f",
      "blockNumber": "0x3ddf21b",
      "gasUsed": "0x437a0",
      "effectiveGasPrice": "0x1420ba6403",
      "from": "0x21aF1185734D213D45C6236146fb81E2b0E8b821",
      "to": "0x303b63e785B656ca56ea5A5C1634Ab20C98895e1",
      "contractAddress": null
    },
    {
      "status": "0x1",
      "cumulativeGasUsed": "0x10f17c6",
      "logs": [
        {
          "address": "0x3d2bD0e15829AA5C362a4144FdF4A1112fa29B5c",
          "topics": [
            "0x8c5be1e5ebec7d5bd14f71427d1e84f3dd0314c0f7b2291e5b200ac8c7c3b925",
            "0x00000000000000000000000021af1185734d213d45c6236146fb81e2b0e8b821",
            "0x000000000000000000000000303b63e785b656ca56ea5a5c1634ab20c98895e1"
          ],
          "data": "0x0000000000000000000000000000000000000000000069e10de76676d0800000",
          "blockHash": "0x16cd74207e351743a801d53860067492ad594ef837ba04b3932eb0da12984551",
          "blockNumber": "0x3ddf21c",
          "transactionHash": "0xac89a2789e40eaa275c381efbc6d787a9fb4b0c011f05a61b05a00ea22baa727",
          "transactionIndex": "0x3f",
          "logIndex": "0x166",
          "removed": false
        },
        {
          "address": "0x0000000000000000000000000000000000001010",
          "topics": [
            "0x4dfe1bbbcf077ddc3e01291eea2d5c70c2b422b415d95645b9adcfd678cb1d63",
            "0x0000000000000000000000000000000000000000000000000000000000001010",
            "0x00000000000000000000000021af1185734d213d45c6236146fb81e2b0e8b821",
            "0x000000000000000000000000959c65b72147faf3450d8b50a0de57e72ffc5e0d"
          ],
          "data": "0x0000000000000000000000000000000000000000000000000004ecb2325afc00000000000000000000000000000000000000000000000001504a6410ba6f25050000000000000000000000000000000000000000000009ffd1085c4059f70a5f0000000000000000000000000000000000000000000000015045775e881429050000000000000000000000000000000000000000000009ffd10d48f28c52065f",
          "blockHash": "0x16cd74207e351743a801d53860067492ad594ef837ba04b3932eb0da12984551",
          "blockNumber": "0x3ddf21c",
          "transactionHash": "0xac89a2789e40eaa275c381efbc6d787a9fb4b0c011f05a61b05a00ea22baa727",
          "transactionIndex": "0x3f",
          "logIndex": "0x167",
          "removed": false
        }
      ],
      "logsBloom": "0x40000000000000000000000000080000000000000000000000000000000000000000000000001000000000000000000000008800000000000000000000200000000000042000000000000000000000800000000000000000000100000000000000000000000000000000000000000800000000000000000080004000000000000000000000000000000000000000000000000000000000000000000000000000220000000000000000000000000000000000000000000000000080080000004000000000000000000001000000000000000000000000000000100000020000000010000000000000000000000000000002000000000000000000000000100000",
      "type": "0x2",
      "transactionHash": "0xac89a2789e40eaa275c381efbc6d787a9fb4b0c011f05a61b05a00ea22baa727",
      "transactionIndex": "0x3f",
      "blockHash": "0x16cd74207e351743a801d53860067492ad594ef837ba04b3932eb0da12984551",
      "blockNumber": "0x3ddf21c",
      "gasUsed": "0xb47d",
      "effectiveGasPrice": "0x1405b7f8ef",
      "from": "0x21aF1185734D213D45C6236146fb81E2b0E8b821",
      "to": "0x3d2bD0e15829AA5C362a4144FdF4A1112fa29B5c",
      "contractAddress": null
    },
    {
      "status": "0x1",
      "cumulativeGasUsed": "0x1134f66",
      "logs": [
        {
          "address": "0x0000000000000000000000000000000000001010",
          "topics": [
            "0xe6497e3ee548a3372136af2fcb0696db31fc6cf20260707645068bd3fe97f3c4",
            "0x0000000000000000000000000000000000000000000000000000000000001010",
            "0x00000000000000000000000021af1185734d213d45c6236146fb81e2b0e8b821",
            "0x000000000000000000000000303b63e785b656ca56ea5a5c1634ab20c98895e1"
          ],
          "data": "0x0000000000000000000000000000000000000000000000000b8abcb4f094569d0000000000000000000000000000000000000000000000014fc7a458c454303d0000000000000000000000000000000000000000000000000000000000000000000000000000000000000000000000000000000000000001443ce7a3d3bfd9a00000000000000000000000000000000000000000000000000b8abcb4f094569d",
          "blockHash": "0x16cd74207e351743a801d53860067492ad594ef837ba04b3932eb0da12984551",
          "blockNumber": "0x3ddf21c",
          "transactionHash": "0xb121434d394b0644ad51a1ce87701108a968b62b54488efc7291eb540644d99c",
          "transactionIndex": "0x40",
          "logIndex": "0x168",
          "removed": false
        },
        {
          "address": "0x3d2bD0e15829AA5C362a4144FdF4A1112fa29B5c",
          "topics": [
            "0xddf252ad1be2c89b69c2b068fc378daa952ba7f163c4a11628f55a4df523b3ef",
            "0x00000000000000000000000021af1185734d213d45c6236146fb81e2b0e8b821",
            "0x000000000000000000000000303b63e785b656ca56ea5a5c1634ab20c98895e1"
          ],
          "data": "0x0000000000000000000000000000000000000000000069e10de76676d0800000",
          "blockHash": "0x16cd74207e351743a801d53860067492ad594ef837ba04b3932eb0da12984551",
          "blockNumber": "0x3ddf21c",
          "transactionHash": "0xb121434d394b0644ad51a1ce87701108a968b62b54488efc7291eb540644d99c",
          "transactionIndex": "0x40",
          "logIndex": "0x169",
          "removed": false
        },
        {
          "address": "0x0000000000000000000000000000000000001010",
          "topics": [
            "0xe6497e3ee548a3372136af2fcb0696db31fc6cf20260707645068bd3fe97f3c4",
            "0x0000000000000000000000000000000000000000000000000000000000001010",
            "0x000000000000000000000000303b63e785b656ca56ea5a5c1634ab20c98895e1",
            "0x0000000000000000000000001a44076050125825900e736c501f859c50fe728c"
          ],
          "data": "0x0000000000000000000000000000000000000000000000000b8abcb4f094569d0000000000000000000000000000000000000000000000000b8abcb4f094569d000000000000000000000000000000000000000000000000000000000000000000000000000000000000000000000000000000000000000000000000000000000000000000000000000000000000000000000000000000000b8abcb4f094569d",
          "blockHash": "0x16cd74207e351743a801d53860067492ad594ef837ba04b3932eb0da12984551",
          "blockNumber": "0x3ddf21c",
          "transactionHash": "0xb121434d394b0644ad51a1ce87701108a968b62b54488efc7291eb540644d99c",
          "transactionIndex": "0x40",
          "logIndex": "0x16a",
          "removed": false
        },
        {
          "address": "0x6c26c61a97006888ea9E4FA36584c7df57Cd9dA3",
          "topics": [
            "0x61ed099e74a97a1d7f8bb0952a88ca8b7b8ebd00c126ea04671f92a81213318a"
          ],
          "data": "0x000000000000000000000000cd3f213ad101472e1713c72b1697e727c803885b000000000000000000000000000000000000000000000000077818ef2dfde357",
          "blockHash": "0x16cd74207e351743a801d53860067492ad594ef837ba04b3932eb0da12984551",
          "blockNumber": "0x3ddf21c",
          "transactionHash": "0xb121434d394b0644ad51a1ce87701108a968b62b54488efc7291eb540644d99c",
          "transactionIndex": "0x40",
          "logIndex": "0x16b",
          "removed": false
        },
        {
          "address": "0x6c26c61a97006888ea9E4FA36584c7df57Cd9dA3",
          "topics": [
            "0x07ea52d82345d6e838192107d8fd7123d9c2ec8e916cd0aad13fd2b60db24644"
          ],
          "data": "0x000000000000000000000000000000000000000000000000000000000000006000000000000000000000000000000000000000000000000000000000000000c000000000000000000000000000000000000000000000000000000000000000e0000000000000000000000000000000000000000000000000000000000000000200000000000000000000000023de2fe932d9043291f870324b74f820e11dc81a000000000000000000000000d56e4eab23cb81f43168f9f45211eb027b9ac7cc0000000000000000000000000000000000000000000000000000000000000000000000000000000000000000000000000000000000000000000000000000000200000000000000000000000000000000000000000000000000ea579764ef82b600000000000000000000000000000000000000000000000003284c2e5da6f090",
          "blockHash": "0x16cd74207e351743a801d53860067492ad594ef837ba04b3932eb0da12984551",
          "blockNumber": "0x3ddf21c",
          "transactionHash": "0xb121434d394b0644ad51a1ce87701108a968b62b54488efc7291eb540644d99c",
          "transactionIndex": "0x40",
          "logIndex": "0x16c",
          "removed": false
        },
        {
          "address": "0x1a44076050125825900e736c501f859c50fE728c",
          "topics": [
            "0x1ab700d4ced0c005b164c0f789fd09fcbb0156d4c2041b8a3bfbcd961cd1567f"
          ],
          "data": "0x000000000000000000000000000000000000000000000000000000000000006000000000000000000000000000000000000000000000000000000000000001200000000000000000000000006c26c61a97006888ea9e4fa36584c7df57cd9da300000000000000000000000000000000000000000000000000000000000000990100000000000001af0000759d000000000000000000000000303b63e785b656ca56ea5a5c1634ab20c98895e1000075e8000000000000000000000000474f4cb764df9da079d94052fed39625c147c12c69db03a4c9b950dab56dc60abbf971988b6901e523155d2c69a4ec86af3715e100000000000000000000000021af1185734d213d45c6236146fb81e2b0e8b821000000746a52880000000000000000000000000000000000000000000000000000000000000000000000000000002a0003010011010000000000000000000000000001adb0010011010000000000000000000000000007a12000000000000000000000000000000000000000000000",
          "blockHash": "0x16cd74207e351743a801d53860067492ad594ef837ba04b3932eb0da12984551",
          "blockNumber": "0x3ddf21c",
          "transactionHash": "0xb121434d394b0644ad51a1ce87701108a968b62b54488efc7291eb540644d99c",
          "transactionIndex": "0x40",
          "logIndex": "0x16d",
          "removed": false
        },
        {
          "address": "0x0000000000000000000000000000000000001010",
          "topics": [
            "0xe6497e3ee548a3372136af2fcb0696db31fc6cf20260707645068bd3fe97f3c4",
            "0x0000000000000000000000000000000000000000000000000000000000001010",
            "0x0000000000000000000000001a44076050125825900e736c501f859c50fe728c",
            "0x0000000000000000000000006c26c61a97006888ea9e4fa36584c7df57cd9da3"
          ],
          "data": "0x0000000000000000000000000000000000000000000000000b8abcb4f094569d0000000000000000000000000000000000000000000000000b8abcb4f094569d00000000000000000000000000000000000000000000104649fcfe3a1a0878f000000000000000000000000000000000000000000000000000000000000000000000000000000000000000000000000000000000000010465587baef0a9ccf8d",
          "blockHash": "0x16cd74207e351743a801d53860067492ad594ef837ba04b3932eb0da12984551",
          "blockNumber": "0x3ddf21c",
          "transactionHash": "0xb121434d394b0644ad51a1ce87701108a968b62b54488efc7291eb540644d99c",
          "transactionIndex": "0x40",
          "logIndex": "0x16e",
          "removed": false
        },
        {
          "address": "0x303b63e785B656ca56ea5A5C1634Ab20C98895e1",
          "topics": [
            "0x85496b760a4b7f8d66384b9df21b381f5d1b1e79f229a47aaf4c232edc2fe59a",
            "0x69db03a4c9b950dab56dc60abbf971988b6901e523155d2c69a4ec86af3715e1",
            "0x00000000000000000000000021af1185734d213d45c6236146fb81e2b0e8b821"
          ],
          "data": "0x00000000000000000000000000000000000000000000000000000000000075e80000000000000000000000000000000000000000000069e10de76676d08000000000000000000000000000000000000000000000000069e10de76676d0800000",
          "blockHash": "0x16cd74207e351743a801d53860067492ad594ef837ba04b3932eb0da12984551",
          "blockNumber": "0x3ddf21c",
          "transactionHash": "0xb121434d394b0644ad51a1ce87701108a968b62b54488efc7291eb540644d99c",
          "transactionIndex": "0x40",
          "logIndex": "0x16f",
          "removed": false
        },
        {
          "address": "0x0000000000000000000000000000000000001010",
          "topics": [
            "0x4dfe1bbbcf077ddc3e01291eea2d5c70c2b422b415d95645b9adcfd678cb1d63",
            "0x0000000000000000000000000000000000000000000000000000000000001010",
            "0x00000000000000000000000021af1185734d213d45c6236146fb81e2b0e8b821",
            "0x000000000000000000000000959c65b72147faf3450d8b50a0de57e72ffc5e0d"
          ],
          "data": "0x000000000000000000000000000000000000000000000000001d7517f03f8000000000000000000000000000000000000000000000000001503c464494928c520000000000000000000000000000000000000000000009ffd10d48f28c52065f000000000000000000000000000000000000000000000001501ed12ca4530c520000000000000000000000000000000000000000000009ffd12abe0a7c91865f",
          "blockHash": "0x16cd74207e351743a801d53860067492ad594ef837ba04b3932eb0da12984551",
          "blockNumber": "0x3ddf21c",
          "transactionHash": "0xb121434d394b0644ad51a1ce87701108a968b62b54488efc7291eb540644d99c",
          "transactionIndex": "0x40",
          "logIndex": "0x170",
          "removed": false
        }
      ],
      "logsBloom": "0x400000000000000000000480000800000000000000000000000000040010000000000040000010000000001000020000000088000000000000000000000000000000820420102000004000080000008000000000000000000001000000000000000000000000000080000000000008000000000000100000802040100000000000000000000000000000000800000000000000000000000000000100000000002000000080000000001000000000000000000010004000000004c0080000004000000022000000000001000080000000000000000000801000188000020000000000040000000000000000000000002002000000018000000000000000100000",
      "type": "0x2",
      "transactionHash": "0xb121434d394b0644ad51a1ce87701108a968b62b54488efc7291eb540644d99c",
      "transactionIndex": "0x40",
      "blockHash": "0x16cd74207e351743a801d53860067492ad594ef837ba04b3932eb0da12984551",
      "blockNumber": "0x3ddf21c",
      "gasUsed": "0x437a0",
      "effectiveGasPrice": "0x1405b7f8ef",
      "from": "0x21aF1185734D213D45C6236146fb81E2b0E8b821",
      "to": "0x303b63e785B656ca56ea5A5C1634Ab20C98895e1",
      "contractAddress": null
    }
  ],
  "libraries": [],
  "pending": [],
  "returns": {},
  "timestamp": 1732891697,
  "chain": 137,
  "commit": "9bc9372"
}