{
  "transactions": [
    {
      "hash": "0xea3f99358c398cce522130d620c9ae821171ea4b272d11f7b78e130647973e32",
      "transactionType": "CALL",
      "contractName": null,
      "contractAddress": "0x3d2bd0e15829aa5c362a4144fdf4a1112fa29b5c",
      "function": "approve(address,uint256)",
      "arguments": [
        "0x9918889E93e8c4357a2D4bCE0965dcC493FFFDA8",
        "10000000000000000000000"
      ],
      "transaction": {
        "from": "0x21af1185734d213d45c6236146fb81e2b0e8b821",
        "to": "0x3d2bd0e15829aa5c362a4144fdf4a1112fa29b5c",
        "gas": "0xf94b",
        "value": "0x0",
        "input": "0x095ea7b30000000000000000000000009918889e93e8c4357a2d4bce0965dcc493fffda800000000000000000000000000000000000000000000021e19e0c9bab2400000",
        "nonce": "0x1f",
        "chainId": "0x13882"
      },
      "additionalContracts": [],
      "isFixedGasLimit": false
    },
    {
      "hash": "0x46aa612385c39d5028e5c678812f2da8296534a31849029dcdebc538b10e60d2",
      "transactionType": "CALL",
      "contractName": null,
      "contractAddress": "0x9918889e93e8c4357a2d4bce0965dcc493fffda8",
      "function": "send((uint32,bytes32,uint256,uint256,bytes,bytes,bytes),(uint256,uint256),address)",
      "arguments": [
        "(40305, 0x00000000000000000000000021af1185734d213d45c6236146fb81e2b0e8b821, 10000000000000000000000, 10000000000000000000000, 0x, 0x, 0x)",
        "(403799561589047416, 0)",
        "0x5b73C5498c1E3b4dbA84de0F1833c4a029d90519"
      ],
      "transaction": {
        "from": "0x21af1185734d213d45c6236146fb81e2b0e8b821",
        "to": "0x9918889e93e8c4357a2d4bce0965dcc493fffda8",
        "gas": "0x4f262",
        "value": "0x59a958fd4f94078",
        "input": "0xc7c7f5b30000000000000000000000000000000000000000000000000000000000000080000000000000000000000000000000000000000000000000059a958fd4f9407800000000000000000000000000000000000000000000000000000000000000000000000000000000000000005b73c5498c1e3b4dba84de0f1833c4a029d905190000000000000000000000000000000000000000000000000000000000009d7100000000000000000000000021af1185734d213d45c6236146fb81e2b0e8b82100000000000000000000000000000000000000000000021e19e0c9bab240000000000000000000000000000000000000000000000000021e19e0c9bab240000000000000000000000000000000000000000000000000000000000000000000e000000000000000000000000000000000000000000000000000000000000001000000000000000000000000000000000000000000000000000000000000000120000000000000000000000000000000000000000000000000000000000000000000000000000000000000000000000000000000000000000000000000000000000000000000000000000000000000000000000000000000000000000000000000",
        "nonce": "0x20",
        "chainId": "0x13882"
      },
      "additionalContracts": [],
      "isFixedGasLimit": false
    }
  ],
  "receipts": [
    {
      "status": "0x1",
      "cumulativeGasUsed": "0x397fb",
      "logs": [
        {
          "address": "0x3d2bd0e15829aa5c362a4144fdf4a1112fa29b5c",
          "topics": [
            "0x8c5be1e5ebec7d5bd14f71427d1e84f3dd0314c0f7b2291e5b200ac8c7c3b925",
            "0x00000000000000000000000021af1185734d213d45c6236146fb81e2b0e8b821",
            "0x0000000000000000000000009918889e93e8c4357a2d4bce0965dcc493fffda8"
          ],
          "data": "0x00000000000000000000000000000000000000000000021e19e0c9bab2400000",
          "blockHash": "0xe2271ece008dbf4fd9661556627ec43a7d0d301894086b7d85ac6bd465c88855",
          "blockNumber": "0xab99e1",
          "transactionHash": "0xea3f99358c398cce522130d620c9ae821171ea4b272d11f7b78e130647973e32",
          "transactionIndex": "0x2",
          "logIndex": "0x6",
          "removed": false
        },
        {
          "address": "0x0000000000000000000000000000000000001010",
          "topics": [
            "0x4dfe1bbbcf077ddc3e01291eea2d5c70c2b422b415d95645b9adcfd678cb1d63",
            "0x0000000000000000000000000000000000000000000000000000000000001010",
            "0x00000000000000000000000021af1185734d213d45c6236146fb81e2b0e8b821",
            "0x000000000000000000000000915a2284d28bd93de7d6f31173b981204bb666e6"
          ],
          "data": "0x0000000000000000000000000000000000000000000000000005a8bffa408a6d0000000000000000000000000000000000000000000000055bb99163222e298f000000000000000000000000000000000000000000000365df4a0505a19d00400000000000000000000000000000000000000000000000055bb3e8a327ed9f22000000000000000000000000000000000000000000000365df4fadc59bdd8aad",
          "blockHash": "0xe2271ece008dbf4fd9661556627ec43a7d0d301894086b7d85ac6bd465c88855",
          "blockNumber": "0xab99e1",
          "transactionHash": "0xea3f99358c398cce522130d620c9ae821171ea4b272d11f7b78e130647973e32",
          "transactionIndex": "0x2",
          "logIndex": "0x7",
          "removed": false
        }
      ],
      "logsBloom": "0x40000000000000000010000000080000000000000000000000000000000000000000000000001000000000000000000000008000000000000000000000200000000000002000000000000000000000800000000000000000000100000000000000000020000000000000000000000000000000000000000080004000000000000000000000000000000000000000000000000000000000000000000000000000220000000000000008000000000000000000000000000000000080000000004000000000000000000001000000000000000002000000000000100000000000000012000000000000000000000000000000000000400000000000000000100000",
      "type": "0x2",
      "transactionHash": "0xea3f99358c398cce522130d620c9ae821171ea4b272d11f7b78e130647973e32",
      "transactionIndex": "0x2",
      "blockHash": "0xe2271ece008dbf4fd9661556627ec43a7d0d301894086b7d85ac6bd465c88855",
      "blockNumber": "0xab99e1",
      "gasUsed": "0xb47d",
      "effectiveGasPrice": "0x806dec0c0",
      "from": "0x21af1185734d213d45c6236146fb81e2b0e8b821",
      "to": "0x3d2bd0e15829aa5c362a4144fdf4a1112fa29b5c",
      "contractAddress": null
    },
    {
      "status": "0x1",
      "cumulativeGasUsed": "0x72cd2",
      "logs": [
        {
          "address": "0x0000000000000000000000000000000000001010",
          "topics": [
            "0xe6497e3ee548a3372136af2fcb0696db31fc6cf20260707645068bd3fe97f3c4",
            "0x0000000000000000000000000000000000000000000000000000000000001010",
            "0x00000000000000000000000021af1185734d213d45c6236146fb81e2b0e8b821",
            "0x0000000000000000000000009918889e93e8c4357a2d4bce0965dcc493fffda8"
          ],
          "data": "0x000000000000000000000000000000000000000000000000059a958fd4f940780000000000000000000000000000000000000000000000055b8c3396f167c24f000000000000000000000000000000000000000000000000000000000000000000000000000000000000000000000000000000000000000555f19e071c6e81d7000000000000000000000000000000000000000000000000059a958fd4f94078",
          "blockHash": "0xe2271ece008dbf4fd9661556627ec43a7d0d301894086b7d85ac6bd465c88855",
          "blockNumber": "0xab99e1",
          "transactionHash": "0x46aa612385c39d5028e5c678812f2da8296534a31849029dcdebc538b10e60d2",
          "transactionIndex": "0x3",
          "logIndex": "0x8",
          "removed": false
        },
        {
          "address": "0x3d2bd0e15829aa5c362a4144fdf4a1112fa29b5c",
          "topics": [
            "0xddf252ad1be2c89b69c2b068fc378daa952ba7f163c4a11628f55a4df523b3ef",
            "0x00000000000000000000000021af1185734d213d45c6236146fb81e2b0e8b821",
            "0x0000000000000000000000009918889e93e8c4357a2d4bce0965dcc493fffda8"
          ],
          "data": "0x00000000000000000000000000000000000000000000021e19e0c9bab2400000",
          "blockHash": "0xe2271ece008dbf4fd9661556627ec43a7d0d301894086b7d85ac6bd465c88855",
          "blockNumber": "0xab99e1",
          "transactionHash": "0x46aa612385c39d5028e5c678812f2da8296534a31849029dcdebc538b10e60d2",
          "transactionIndex": "0x3",
          "logIndex": "0x9",
          "removed": false
        },
        {
          "address": "0x0000000000000000000000000000000000001010",
          "topics": [
            "0xe6497e3ee548a3372136af2fcb0696db31fc6cf20260707645068bd3fe97f3c4",
            "0x0000000000000000000000000000000000000000000000000000000000001010",
            "0x0000000000000000000000009918889e93e8c4357a2d4bce0965dcc493fffda8",
            "0x0000000000000000000000006edce65403992e310a62460808c4b910d972f10f"
          ],
          "data": "0x000000000000000000000000000000000000000000000000059a958fd4f94078000000000000000000000000000000000000000000000000059a958fd4f9407800000000000000000000000000000000000000000000000000000000000000000000000000000000000000000000000000000000000000000000000000000000000000000000000000000000000000000000000000000000059a958fd4f94078",
          "blockHash": "0xe2271ece008dbf4fd9661556627ec43a7d0d301894086b7d85ac6bd465c88855",
          "blockNumber": "0xab99e1",
          "transactionHash": "0x46aa612385c39d5028e5c678812f2da8296534a31849029dcdebc538b10e60d2",
          "transactionIndex": "0x3",
          "logIndex": "0xa",
          "removed": false
        },
        {
          "address": "0x1d186c560281b8f1af831957ed5047fd3ab902f9",
          "topics": [
            "0x61ed099e74a97a1d7f8bb0952a88ca8b7b8ebd00c126ea04671f92a81213318a"
          ],
          "data": "0x0000000000000000000000004cf1b3fa61465c2c907f82fc488b43223ba0cf930000000000000000000000000000000000000000000000000556454c07c8cfb0",
          "blockHash": "0xe2271ece008dbf4fd9661556627ec43a7d0d301894086b7d85ac6bd465c88855",
          "blockNumber": "0xab99e1",
          "transactionHash": "0x46aa612385c39d5028e5c678812f2da8296534a31849029dcdebc538b10e60d2",
          "transactionIndex": "0x3",
          "logIndex": "0xb",
          "removed": false
        },
        {
          "address": "0x1d186c560281b8f1af831957ed5047fd3ab902f9",
          "topics": [
            "0x07ea52d82345d6e838192107d8fd7123d9c2ec8e916cd0aad13fd2b60db24644"
          ],
          "data": "0x000000000000000000000000000000000000000000000000000000000000006000000000000000000000000000000000000000000000000000000000000000a000000000000000000000000000000000000000000000000000000000000000c0000000000000000000000000000000000000000000000000000000000000000100000000000000000000000055c175dd5b039331db251424538169d8495c18d10000000000000000000000000000000000000000000000000000000000000000000000000000000000000000000000000000000000000000000000000000000100000000000000000000000000000000000000000000000000445043cd3070c8",
          "blockHash": "0xe2271ece008dbf4fd9661556627ec43a7d0d301894086b7d85ac6bd465c88855",
          "blockNumber": "0xab99e1",
          "transactionHash": "0x46aa612385c39d5028e5c678812f2da8296534a31849029dcdebc538b10e60d2",
          "transactionIndex": "0x3",
          "logIndex": "0xc",
          "removed": false
        },
        {
          "address": "0x6edce65403992e310a62460808c4b910d972f10f",
          "topics": [
            "0x1ab700d4ced0c005b164c0f789fd09fcbb0156d4c2041b8a3bfbcd961cd1567f"
          ],
          "data": "0x000000000000000000000000000000000000000000000000000000000000006000000000000000000000000000000000000000000000000000000000000001200000000000000000000000001d186c560281b8f1af831957ed5047fd3ab902f9000000000000000000000000000000000000000000000000000000000000009901000000000000000400009d4b0000000000000000000000009918889e93e8c4357a2d4bce0965dcc493fffda800009d71000000000000000000000000b0588f9a9cade7cd5f194a5fe77acd6a58250f824aa0700cf2855da07771241f441aca190789e633b153c0d1a19ecc808e5c55d700000000000000000000000021af1185734d213d45c6236146fb81e2b0e8b82100000002540be4000000000000000000000000000000000000000000000000000000000000000000000000000000160003010011010000000000000000000000000000fde800000000000000000000",
          "blockHash": "0xe2271ece008dbf4fd9661556627ec43a7d0d301894086b7d85ac6bd465c88855",
          "blockNumber": "0xab99e1",
          "transactionHash": "0x46aa612385c39d5028e5c678812f2da8296534a31849029dcdebc538b10e60d2",
          "transactionIndex": "0x3",
          "logIndex": "0xd",
          "removed": false
        },
        {
          "address": "0x0000000000000000000000000000000000001010",
          "topics": [
            "0xe6497e3ee548a3372136af2fcb0696db31fc6cf20260707645068bd3fe97f3c4",
            "0x0000000000000000000000000000000000000000000000000000000000001010",
            "0x0000000000000000000000006edce65403992e310a62460808c4b910d972f10f",
            "0x0000000000000000000000001d186c560281b8f1af831957ed5047fd3ab902f9"
          ],
          "data": "0x000000000000000000000000000000000000000000000000059a958fd4f94078000000000000000000000000000000000000000000000000059a958fd4f9407800000000000000000000000000000000000000000000004061b034d12d532f2b0000000000000000000000000000000000000000000000000000000000000000000000000000000000000000000000000000000000000040674aca61024c6fa3",
          "blockHash": "0xe2271ece008dbf4fd9661556627ec43a7d0d301894086b7d85ac6bd465c88855",
          "blockNumber": "0xab99e1",
          "transactionHash": "0x46aa612385c39d5028e5c678812f2da8296534a31849029dcdebc538b10e60d2",
          "transactionIndex": "0x3",
          "logIndex": "0xe",
          "removed": false
        },
        {
          "address": "0x9918889e93e8c4357a2d4bce0965dcc493fffda8",
          "topics": [
            "0x85496b760a4b7f8d66384b9df21b381f5d1b1e79f229a47aaf4c232edc2fe59a",
            "0x4aa0700cf2855da07771241f441aca190789e633b153c0d1a19ecc808e5c55d7",
            "0x00000000000000000000000021af1185734d213d45c6236146fb81e2b0e8b821"
          ],
          "data": "0x0000000000000000000000000000000000000000000000000000000000009d7100000000000000000000000000000000000000000000021e19e0c9bab240000000000000000000000000000000000000000000000000021e19e0c9bab2400000",
          "blockHash": "0xe2271ece008dbf4fd9661556627ec43a7d0d301894086b7d85ac6bd465c88855",
          "blockNumber": "0xab99e1",
          "transactionHash": "0x46aa612385c39d5028e5c678812f2da8296534a31849029dcdebc538b10e60d2",
          "transactionIndex": "0x3",
          "logIndex": "0xf",
          "removed": false
        },
        {
          "address": "0x0000000000000000000000000000000000001010",
          "topics": [
            "0x4dfe1bbbcf077ddc3e01291eea2d5c70c2b422b415d95645b9adcfd678cb1d63",
            "0x0000000000000000000000000000000000000000000000000000000000001010",
            "0x00000000000000000000000021af1185734d213d45c6236146fb81e2b0e8b821",
            "0x000000000000000000000000915a2284d28bd93de7d6f31173b981204bb666e6"
          ],
          "data": "0x000000000000000000000000000000000000000000000000001cbf52ce8d28a70000000000000000000000000000000000000000000000055bb3e8a327e30bcf000000000000000000000000000000000000000000000365df4fadc59bdd8aad0000000000000000000000000000000000000000000000055b9729505955e328000000000000000000000000000000000000000000000365df6c6d186a6ab354",
          "blockHash": "0xe2271ece008dbf4fd9661556627ec43a7d0d301894086b7d85ac6bd465c88855",
          "blockNumber": "0xab99e1",
          "transactionHash": "0x46aa612385c39d5028e5c678812f2da8296534a31849029dcdebc538b10e60d2",
          "transactionIndex": "0x3",
          "logIndex": "0x10",
          "removed": false
        }
      ],
      "logsBloom": "0x400000000000000000100000000810000000000000000000000000000000000000000000000010002000001000000000000080000000000000000000000040000000028020200000000000080000008000000000000000000001000000020000000000200000000082000010000000000000000000000000800040100000000000000000000000200000000800000000000000000000000000000000000000002000000080000000081000240000000000000800004000000004c0000000004000004002000000000001002080000000000002000008801200108000000000000002040000000000000000000000002008000000408000000000000000100000",
      "type": "0x2",
      "transactionHash": "0x46aa612385c39d5028e5c678812f2da8296534a31849029dcdebc538b10e60d2",
      "transactionIndex": "0x3",
      "blockHash": "0xe2271ece008dbf4fd9661556627ec43a7d0d301894086b7d85ac6bd465c88855",
      "blockNumber": "0xab99e1",
      "gasUsed": "0x394d7",
      "effectiveGasPrice": "0x806dec0c0",
      "from": "0x21af1185734d213d45c6236146fb81e2b0e8b821",
      "to": "0x9918889e93e8c4357a2d4bce0965dcc493fffda8",
      "contractAddress": null
    }
  ],
  "libraries": [],
  "pending": [],
  "returns": {},
  "timestamp": 1724790554,
  "chain": 80002,
  "commit": "3f5ecff"
}