{
  "transactions": [
    {
      "hash": "0x6e3cc51c8d715951040557aacce693b979eca76de547f4ca32d831ff4c39ef3e",
      "transactionType": "CALL",
      "contractName": null,
      "contractAddress": "0x3d2bd0e15829aa5c362a4144fdf4a1112fa29b5c",
      "function": "approve(address,uint256)",
      "arguments": [
        "0x9918889E93e8c4357a2D4bCE0965dcC493FFFDA8",
        "50000000000000000000"
      ],
      "transaction": {
        "from": "0x21af1185734d213d45c6236146fb81e2b0e8b821",
        "to": "0x3d2bd0e15829aa5c362a4144fdf4a1112fa29b5c",
        "gas": "0x107e5",
        "value": "0x0",
        "input": "0x095ea7b30000000000000000000000009918889e93e8c4357a2d4bce0965dcc493fffda8000000000000000000000000000000000000000000000002b5e3af16b1880000",
        "nonce": "0x49",
        "chainId": "0x13882"
      },
      "additionalContracts": [],
      "isFixedGasLimit": false
    },
    {
      "hash": "0xadbe2bdf0c108734865938245a979669636bebaeb061510549276b4821c231ef",
      "transactionType": "CALL",
      "contractName": null,
      "contractAddress": "0x9918889e93e8c4357a2d4bce0965dcc493fffda8",
      "function": "send((uint32,bytes32,uint256,uint256,bytes,bytes,bytes),(uint256,uint256),address)",
      "arguments": [
        "(40245, 0x00000000000000000000000021af1185734d213d45c6236146fb81e2b0e8b821, 50000000000000000000, 50000000000000000000, 0x, 0x, 0x)",
        "(558088765632431438, 0)",
        "0x5b73C5498c1E3b4dbA84de0F1833c4a029d90519"
      ],
      "transaction": {
        "from": "0x21af1185734d213d45c6236146fb81e2b0e8b821",
        "to": "0x9918889e93e8c4357a2d4bce0965dcc493fffda8",
        "gas": "0x4f240",
        "value": "0x7bebac684a8454e",
        "input": "0xc7c7f5b3000000000000000000000000000000000000000000000000000000000000008000000000000000000000000000000000000000000000000007bebac684a8454e00000000000000000000000000000000000000000000000000000000000000000000000000000000000000005b73c5498c1e3b4dba84de0f1833c4a029d905190000000000000000000000000000000000000000000000000000000000009d3500000000000000000000000021af1185734d213d45c6236146fb81e2b0e8b821000000000000000000000000000000000000000000000002b5e3af16b1880000000000000000000000000000000000000000000000000002b5e3af16b188000000000000000000000000000000000000000000000000000000000000000000e000000000000000000000000000000000000000000000000000000000000001000000000000000000000000000000000000000000000000000000000000000120000000000000000000000000000000000000000000000000000000000000000000000000000000000000000000000000000000000000000000000000000000000000000000000000000000000000000000000000000000000000000000000000",
        "nonce": "0x4a",
        "chainId": "0x13882"
      },
      "additionalContracts": [],
      "isFixedGasLimit": false
    },
    {
      "hash": "0x0c75fc25e60ea1c89b2b94f0f076fa841e1a873d2b79217392a3aebef27e67ed",
      "transactionType": "CALL",
      "contractName": null,
      "contractAddress": "0x3d2bd0e15829aa5c362a4144fdf4a1112fa29b5c",
      "function": "approve(address,uint256)",
      "arguments": [
        "0x9918889E93e8c4357a2D4bCE0965dcC493FFFDA8",
        "100000000000000000000"
      ],
      "transaction": {
        "from": "0x21af1185734d213d45c6236146fb81e2b0e8b821",
        "to": "0x3d2bd0e15829aa5c362a4144fdf4a1112fa29b5c",
        "gas": "0x107e5",
        "value": "0x0",
        "input": "0x095ea7b30000000000000000000000009918889e93e8c4357a2d4bce0965dcc493fffda80000000000000000000000000000000000000000000000056bc75e2d63100000",
        "nonce": "0x4b",
        "chainId": "0x13882"
      },
      "additionalContracts": [],
      "isFixedGasLimit": false
    },
    {
      "hash": "0xa9d2b5007d19b28e5913e8d198e2cf8e788e4abead00eb78f3b1a08273b278a6",
      "transactionType": "CALL",
      "contractName": null,
      "contractAddress": "0x9918889e93e8c4357a2d4bce0965dcc493fffda8",
      "function": "send((uint32,bytes32,uint256,uint256,bytes,bytes,bytes),(uint256,uint256),address)",
      "arguments": [
        "(40245, 0x00000000000000000000000021af1185734d213d45c6236146fb81e2b0e8b821, 100000000000000000000, 100000000000000000000, 0x, 0x, 0x)",
        "(558088765632431438, 0)",
        "0x5b73C5498c1E3b4dbA84de0F1833c4a029d90519"
      ],
      "transaction": {
        "from": "0x21af1185734d213d45c6236146fb81e2b0e8b821",
        "to": "0x9918889e93e8c4357a2d4bce0965dcc493fffda8",
        "gas": "0x4f240",
        "value": "0x7bebac684a8454e",
        "input": "0xc7c7f5b3000000000000000000000000000000000000000000000000000000000000008000000000000000000000000000000000000000000000000007bebac684a8454e00000000000000000000000000000000000000000000000000000000000000000000000000000000000000005b73c5498c1e3b4dba84de0f1833c4a029d905190000000000000000000000000000000000000000000000000000000000009d3500000000000000000000000021af1185734d213d45c6236146fb81e2b0e8b8210000000000000000000000000000000000000000000000056bc75e2d631000000000000000000000000000000000000000000000000000056bc75e2d6310000000000000000000000000000000000000000000000000000000000000000000e000000000000000000000000000000000000000000000000000000000000001000000000000000000000000000000000000000000000000000000000000000120000000000000000000000000000000000000000000000000000000000000000000000000000000000000000000000000000000000000000000000000000000000000000000000000000000000000000000000000000000000000000000000000",
        "nonce": "0x4c",
        "chainId": "0x13882"
      },
      "additionalContracts": [],
      "isFixedGasLimit": false
    },
    {
      "hash": "0x627bc69a95b867b220a9b97a94a0e6683bb4c3841cee51c51e25c57f906a2506",
      "transactionType": "CALL",
      "contractName": null,
      "contractAddress": "0x3d2bd0e15829aa5c362a4144fdf4a1112fa29b5c",
      "function": "approve(address,uint256)",
      "arguments": [
        "0x9918889E93e8c4357a2D4bCE0965dcC493FFFDA8",
        "1000000000000000000000"
      ],
      "transaction": {
        "from": "0x21af1185734d213d45c6236146fb81e2b0e8b821",
        "to": "0x3d2bd0e15829aa5c362a4144fdf4a1112fa29b5c",
        "gas": "0x107e5",
        "value": "0x0",
        "input": "0x095ea7b30000000000000000000000009918889e93e8c4357a2d4bce0965dcc493fffda800000000000000000000000000000000000000000000003635c9adc5dea00000",
        "nonce": "0x4d",
        "chainId": "0x13882"
      },
      "additionalContracts": [],
      "isFixedGasLimit": false
    },
    {
      "hash": "0xf312ef8e1b748265143112df89c1ef934e45296e9ce061c1cee5f757f84bae71",
      "transactionType": "CALL",
      "contractName": null,
      "contractAddress": "0x9918889e93e8c4357a2d4bce0965dcc493fffda8",
      "function": "send((uint32,bytes32,uint256,uint256,bytes,bytes,bytes),(uint256,uint256),address)",
      "arguments": [
        "(40245, 0x00000000000000000000000021af1185734d213d45c6236146fb81e2b0e8b821, 1000000000000000000000, 1000000000000000000000, 0x, 0x, 0x)",
        "(558088765632431438, 0)",
        "0x5b73C5498c1E3b4dbA84de0F1833c4a029d90519"
      ],
      "transaction": {
        "from": "0x21af1185734d213d45c6236146fb81e2b0e8b821",
        "to": "0x9918889e93e8c4357a2d4bce0965dcc493fffda8",
        "gas": "0x4f240",
        "value": "0x7bebac684a8454e",
        "input": "0xc7c7f5b3000000000000000000000000000000000000000000000000000000000000008000000000000000000000000000000000000000000000000007bebac684a8454e00000000000000000000000000000000000000000000000000000000000000000000000000000000000000005b73c5498c1e3b4dba84de0f1833c4a029d905190000000000000000000000000000000000000000000000000000000000009d3500000000000000000000000021af1185734d213d45c6236146fb81e2b0e8b82100000000000000000000000000000000000000000000003635c9adc5dea0000000000000000000000000000000000000000000000000003635c9adc5dea0000000000000000000000000000000000000000000000000000000000000000000e000000000000000000000000000000000000000000000000000000000000001000000000000000000000000000000000000000000000000000000000000000120000000000000000000000000000000000000000000000000000000000000000000000000000000000000000000000000000000000000000000000000000000000000000000000000000000000000000000000000000000000000000000000000",
        "nonce": "0x4e",
        "chainId": "0x13882"
      },
      "additionalContracts": [],
      "isFixedGasLimit": false
    },
    {
      "hash": "0x4e012747be3e0b7b478d8e619c8fae492017f55c56af32e60e2da35b7d86c3f7",
      "transactionType": "CALL",
      "contractName": null,
      "contractAddress": "0x3d2bd0e15829aa5c362a4144fdf4a1112fa29b5c",
      "function": "approve(address,uint256)",
      "arguments": [
        "0x9918889E93e8c4357a2D4bCE0965dcC493FFFDA8",
        "10000000000000000000000"
      ],
      "transaction": {
        "from": "0x21af1185734d213d45c6236146fb81e2b0e8b821",
        "to": "0x3d2bd0e15829aa5c362a4144fdf4a1112fa29b5c",
        "gas": "0xf94b",
        "value": "0x0",
        "input": "0x095ea7b30000000000000000000000009918889e93e8c4357a2d4bce0965dcc493fffda800000000000000000000000000000000000000000000021e19e0c9bab2400000",
        "nonce": "0x4f",
        "chainId": "0x13882"
      },
      "additionalContracts": [],
      "isFixedGasLimit": false
    },
    {
      "hash": "0x5eb620aa5146835305a21c7fcc7347f90ef830ceb464ed19e2cf3b6afa0c2f86",
      "transactionType": "CALL",
      "contractName": null,
      "contractAddress": "0x9918889e93e8c4357a2d4bce0965dcc493fffda8",
      "function": "send((uint32,bytes32,uint256,uint256,bytes,bytes,bytes),(uint256,uint256),address)",
      "arguments": [
        "(40245, 0x00000000000000000000000021af1185734d213d45c6236146fb81e2b0e8b821, 10000000000000000000000, 10000000000000000000000, 0x, 0x, 0x)",
        "(558088765632431438, 0)",
        "0x5b73C5498c1E3b4dbA84de0F1833c4a029d90519"
      ],
      "transaction": {
        "from": "0x21af1185734d213d45c6236146fb81e2b0e8b821",
        "to": "0x9918889e93e8c4357a2d4bce0965dcc493fffda8",
        "gas": "0x4f262",
        "value": "0x7bebac684a8454e",
        "input": "0xc7c7f5b3000000000000000000000000000000000000000000000000000000000000008000000000000000000000000000000000000000000000000007bebac684a8454e00000000000000000000000000000000000000000000000000000000000000000000000000000000000000005b73c5498c1e3b4dba84de0f1833c4a029d905190000000000000000000000000000000000000000000000000000000000009d3500000000000000000000000021af1185734d213d45c6236146fb81e2b0e8b82100000000000000000000000000000000000000000000021e19e0c9bab240000000000000000000000000000000000000000000000000021e19e0c9bab240000000000000000000000000000000000000000000000000000000000000000000e000000000000000000000000000000000000000000000000000000000000001000000000000000000000000000000000000000000000000000000000000000120000000000000000000000000000000000000000000000000000000000000000000000000000000000000000000000000000000000000000000000000000000000000000000000000000000000000000000000000000000000000000000000000",
        "nonce": "0x50",
        "chainId": "0x13882"
      },
      "additionalContracts": [],
      "isFixedGasLimit": false
    },
    {
      "hash": "0xaa2b5bfd95e9cd4376f5759c4382bf4e7402b69d5860f589acdbb630d1234abc",
      "transactionType": "CALL",
      "contractName": null,
      "contractAddress": "0x3d2bd0e15829aa5c362a4144fdf4a1112fa29b5c",
      "function": "approve(address,uint256)",
      "arguments": [
        "0x9918889E93e8c4357a2D4bCE0965dcC493FFFDA8",
        "100000000000000000000000"
      ],
      "transaction": {
        "from": "0x21af1185734d213d45c6236146fb81e2b0e8b821",
        "to": "0x3d2bd0e15829aa5c362a4144fdf4a1112fa29b5c",
        "gas": "0xf94b",
        "value": "0x0",
        "input": "0x095ea7b30000000000000000000000009918889e93e8c4357a2d4bce0965dcc493fffda800000000000000000000000000000000000000000000152d02c7e14af6800000",
        "nonce": "0x51",
        "chainId": "0x13882"
      },
      "additionalContracts": [],
      "isFixedGasLimit": false
    },
    {
      "hash": "0x220095be6f9620761b3466c96ae92b45cd784687c09ee0bdf269ac1b71ae65b1",
      "transactionType": "CALL",
      "contractName": null,
      "contractAddress": "0x9918889e93e8c4357a2d4bce0965dcc493fffda8",
      "function": "send((uint32,bytes32,uint256,uint256,bytes,bytes,bytes),(uint256,uint256),address)",
      "arguments": [
        "(40245, 0x00000000000000000000000021af1185734d213d45c6236146fb81e2b0e8b821, 100000000000000000000000, 100000000000000000000000, 0x, 0x, 0x)",
        "(558088765632431438, 0)",
        "0x5b73C5498c1E3b4dbA84de0F1833c4a029d90519"
      ],
      "transaction": {
        "from": "0x21af1185734d213d45c6236146fb81e2b0e8b821",
        "to": "0x9918889e93e8c4357a2d4bce0965dcc493fffda8",
        "gas": "0x4f262",
        "value": "0x7bebac684a8454e",
        "input": "0xc7c7f5b3000000000000000000000000000000000000000000000000000000000000008000000000000000000000000000000000000000000000000007bebac684a8454e00000000000000000000000000000000000000000000000000000000000000000000000000000000000000005b73c5498c1e3b4dba84de0f1833c4a029d905190000000000000000000000000000000000000000000000000000000000009d3500000000000000000000000021af1185734d213d45c6236146fb81e2b0e8b82100000000000000000000000000000000000000000000152d02c7e14af680000000000000000000000000000000000000000000000000152d02c7e14af680000000000000000000000000000000000000000000000000000000000000000000e000000000000000000000000000000000000000000000000000000000000001000000000000000000000000000000000000000000000000000000000000000120000000000000000000000000000000000000000000000000000000000000000000000000000000000000000000000000000000000000000000000000000000000000000000000000000000000000000000000000000000000000000000000000",
        "nonce": "0x52",
        "chainId": "0x13882"
      },
      "additionalContracts": [],
      "isFixedGasLimit": false
    },
    {
      "hash": "0x3ccad51d96c9d6cb8b0bdb7a911a5fedb563cd675850cc405ec424a0682392dd",
      "transactionType": "CALL",
      "contractName": null,
      "contractAddress": "0x3d2bd0e15829aa5c362a4144fdf4a1112fa29b5c",
      "function": "approve(address,uint256)",
      "arguments": [
        "0x9918889E93e8c4357a2D4bCE0965dcC493FFFDA8",
        "200000000000000000000000"
      ],
      "transaction": {
        "from": "0x21af1185734d213d45c6236146fb81e2b0e8b821",
        "to": "0x3d2bd0e15829aa5c362a4144fdf4a1112fa29b5c",
        "gas": "0x107e5",
        "value": "0x0",
        "input": "0x095ea7b30000000000000000000000009918889e93e8c4357a2d4bce0965dcc493fffda8000000000000000000000000000000000000000000002a5a058fc295ed000000",
        "nonce": "0x53",
        "chainId": "0x13882"
      },
      "additionalContracts": [],
      "isFixedGasLimit": false
    },
    {
      "hash": "0x01b47e4e584a8fc723fbe284b6f2c164c29df773f7d0c48e84256f27e8eb1293",
      "transactionType": "CALL",
      "contractName": null,
      "contractAddress": "0x9918889e93e8c4357a2d4bce0965dcc493fffda8",
      "function": "send((uint32,bytes32,uint256,uint256,bytes,bytes,bytes),(uint256,uint256),address)",
      "arguments": [
        "(40245, 0x00000000000000000000000021af1185734d213d45c6236146fb81e2b0e8b821, 200000000000000000000000, 200000000000000000000000, 0x, 0x, 0x)",
        "(558088765632431438, 0)",
        "0x5b73C5498c1E3b4dbA84de0F1833c4a029d90519"
      ],
      "transaction": {
        "from": "0x21af1185734d213d45c6236146fb81e2b0e8b821",
        "to": "0x9918889e93e8c4357a2d4bce0965dcc493fffda8",
        "gas": "0x4f240",
        "value": "0x7bebac684a8454e",
        "input": "0xc7c7f5b3000000000000000000000000000000000000000000000000000000000000008000000000000000000000000000000000000000000000000007bebac684a8454e00000000000000000000000000000000000000000000000000000000000000000000000000000000000000005b73c5498c1e3b4dba84de0f1833c4a029d905190000000000000000000000000000000000000000000000000000000000009d3500000000000000000000000021af1185734d213d45c6236146fb81e2b0e8b821000000000000000000000000000000000000000000002a5a058fc295ed000000000000000000000000000000000000000000000000002a5a058fc295ed00000000000000000000000000000000000000000000000000000000000000000000e000000000000000000000000000000000000000000000000000000000000001000000000000000000000000000000000000000000000000000000000000000120000000000000000000000000000000000000000000000000000000000000000000000000000000000000000000000000000000000000000000000000000000000000000000000000000000000000000000000000000000000000000000000000",
        "nonce": "0x54",
        "chainId": "0x13882"
      },
      "additionalContracts": [],
      "isFixedGasLimit": false
    }
  ],
  "receipts": [
    {
      "status": "0x1",
      "cumulativeGasUsed": "0x16b89e",
      "logs": [
        {
          "address": "0x3d2bd0e15829aa5c362a4144fdf4a1112fa29b5c",
          "topics": [
            "0x8c5be1e5ebec7d5bd14f71427d1e84f3dd0314c0f7b2291e5b200ac8c7c3b925",
            "0x00000000000000000000000021af1185734d213d45c6236146fb81e2b0e8b821",
            "0x0000000000000000000000009918889e93e8c4357a2d4bce0965dcc493fffda8"
          ],
          "data": "0x000000000000000000000000000000000000000000000002b5e3af16b1880000",
          "blockHash": "0xae1758ed35db889034340416c219f98c5192bbc10b2b23bc83e62c28b59eeb0e",
          "blockNumber": "0xb560b0",
          "transactionHash": "0x6e3cc51c8d715951040557aacce693b979eca76de547f4ca32d831ff4c39ef3e",
          "transactionIndex": "0x2",
          "logIndex": "0x1f",
          "removed": false
        },
        {
          "address": "0x0000000000000000000000000000000000001010",
          "topics": [
            "0x4dfe1bbbcf077ddc3e01291eea2d5c70c2b422b415d95645b9adcfd678cb1d63",
            "0x0000000000000000000000000000000000000000000000000000000000001010",
            "0x00000000000000000000000021af1185734d213d45c6236146fb81e2b0e8b821",
            "0x00000000000000000000000004ba3ef4c023c1006019a0f9baf6e70455e41fcf"
          ],
          "data": "0x00000000000000000000000000000000000000000000000000050e80ef035a980000000000000000000000000000000000000000000000047f54de673ea8c9d4000000000000000000000000000000000000000000000126706290610846ca040000000000000000000000000000000000000000000000047f4fcfe64fa56f3c00000000000000000000000000000000000000000000012670679ee1f74a249c",
          "blockHash": "0xae1758ed35db889034340416c219f98c5192bbc10b2b23bc83e62c28b59eeb0e",
          "blockNumber": "0xb560b0",
          "transactionHash": "0x6e3cc51c8d715951040557aacce693b979eca76de547f4ca32d831ff4c39ef3e",
          "transactionIndex": "0x2",
          "logIndex": "0x20",
          "removed": false
        }
      ],
      "logsBloom": "0x40000000000000000000000000080000000000000000000000000000000004000000000000001000000000000000000000008000000000000000000000200000000000002000000000000000000000800000000000000000000100000000000000000020000000000000000000000000000000000000000080004000000000000000000000004000000000000000000000000000000000000000000000000000220000000000000008000000000000000000000000000000000080000000004000000000000000000001000000000000000000000000000000100000000000000012000000000000000000000000000000000000000000000000000000100000",
      "type": "0x2",
      "transactionHash": "0x6e3cc51c8d715951040557aacce693b979eca76de547f4ca32d831ff4c39ef3e",
      "transactionIndex": "0x2",
      "blockHash": "0xae1758ed35db889034340416c219f98c5192bbc10b2b23bc83e62c28b59eeb0e",
      "blockNumber": "0xb560b0",
      "gasUsed": "0xb471",
      "effectiveGasPrice": "0x72c917027",
      "from": "0x21af1185734d213d45c6236146fb81e2b0e8b821",
      "to": "0x3d2bd0e15829aa5c362a4144fdf4a1112fa29b5c",
      "contractAddress": null
    },
    {
      "status": "0x1",
      "cumulativeGasUsed": "0x1a4d5d",
      "logs": [
        {
          "address": "0x0000000000000000000000000000000000001010",
          "topics": [
            "0xe6497e3ee548a3372136af2fcb0696db31fc6cf20260707645068bd3fe97f3c4",
            "0x0000000000000000000000000000000000000000000000000000000000001010",
            "0x00000000000000000000000021af1185734d213d45c6236146fb81e2b0e8b821",
            "0x0000000000000000000000009918889e93e8c4357a2d4bce0965dcc493fffda8"
          ],
          "data": "0x00000000000000000000000000000000000000000000000007bebac684a8454e0000000000000000000000000000000000000000000000047f2c53b3ee9df4dd0000000000000000000000000000000000000000000000000000000000000000000000000000000000000000000000000000000000000004776d98ed69f5af8f00000000000000000000000000000000000000000000000007bebac684a8454e",
          "blockHash": "0xae1758ed35db889034340416c219f98c5192bbc10b2b23bc83e62c28b59eeb0e",
          "blockNumber": "0xb560b0",
          "transactionHash": "0xadbe2bdf0c108734865938245a979669636bebaeb061510549276b4821c231ef",
          "transactionIndex": "0x3",
          "logIndex": "0x21",
          "removed": false
        },
        {
          "address": "0x3d2bd0e15829aa5c362a4144fdf4a1112fa29b5c",
          "topics": [
            "0xddf252ad1be2c89b69c2b068fc378daa952ba7f163c4a11628f55a4df523b3ef",
            "0x00000000000000000000000021af1185734d213d45c6236146fb81e2b0e8b821",
            "0x0000000000000000000000009918889e93e8c4357a2d4bce0965dcc493fffda8"
          ],
          "data": "0x000000000000000000000000000000000000000000000002b5e3af16b1880000",
          "blockHash": "0xae1758ed35db889034340416c219f98c5192bbc10b2b23bc83e62c28b59eeb0e",
          "blockNumber": "0xb560b0",
          "transactionHash": "0xadbe2bdf0c108734865938245a979669636bebaeb061510549276b4821c231ef",
          "transactionIndex": "0x3",
          "logIndex": "0x22",
          "removed": false
        },
        {
          "address": "0x0000000000000000000000000000000000001010",
          "topics": [
            "0xe6497e3ee548a3372136af2fcb0696db31fc6cf20260707645068bd3fe97f3c4",
            "0x0000000000000000000000000000000000000000000000000000000000001010",
            "0x0000000000000000000000009918889e93e8c4357a2d4bce0965dcc493fffda8",
            "0x0000000000000000000000006edce65403992e310a62460808c4b910d972f10f"
          ],
          "data": "0x00000000000000000000000000000000000000000000000007bebac684a8454e00000000000000000000000000000000000000000000000007bebac684a8454e0000000000000000000000000000000000000000000000000000000000000000000000000000000000000000000000000000000000000000000000000000000000000000000000000000000000000000000000000000000007bebac684a8454e",
          "blockHash": "0xae1758ed35db889034340416c219f98c5192bbc10b2b23bc83e62c28b59eeb0e",
          "blockNumber": "0xb560b0",
          "transactionHash": "0xadbe2bdf0c108734865938245a979669636bebaeb061510549276b4821c231ef",
          "transactionIndex": "0x3",
          "logIndex": "0x23",
          "removed": false
        },
        {
          "address": "0x1d186c560281b8f1af831957ed5047fd3ab902f9",
          "topics": [
            "0x61ed099e74a97a1d7f8bb0952a88ca8b7b8ebd00c126ea04671f92a81213318a"
          ],
          "data": "0x0000000000000000000000004cf1b3fa61465c2c907f82fc488b43223ba0cf93000000000000000000000000000000000000000000000000075d22a0e6094885",
          "blockHash": "0xae1758ed35db889034340416c219f98c5192bbc10b2b23bc83e62c28b59eeb0e",
          "blockNumber": "0xb560b0",
          "transactionHash": "0xadbe2bdf0c108734865938245a979669636bebaeb061510549276b4821c231ef",
          "transactionIndex": "0x3",
          "logIndex": "0x24",
          "removed": false
        },
        {
          "address": "0x1d186c560281b8f1af831957ed5047fd3ab902f9",
          "topics": [
            "0x07ea52d82345d6e838192107d8fd7123d9c2ec8e916cd0aad13fd2b60db24644"
          ],
          "data": "0x000000000000000000000000000000000000000000000000000000000000006000000000000000000000000000000000000000000000000000000000000000a000000000000000000000000000000000000000000000000000000000000000c0000000000000000000000000000000000000000000000000000000000000000100000000000000000000000055c175dd5b039331db251424538169d8495c18d100000000000000000000000000000000000000000000000000000000000000000000000000000000000000000000000000000000000000000000000000000001000000000000000000000000000000000000000000000000006198259e9efcc9",
          "blockHash": "0xae1758ed35db889034340416c219f98c5192bbc10b2b23bc83e62c28b59eeb0e",
          "blockNumber": "0xb560b0",
          "transactionHash": "0xadbe2bdf0c108734865938245a979669636bebaeb061510549276b4821c231ef",
          "transactionIndex": "0x3",
          "logIndex": "0x25",
          "removed": false
        },
        {
          "address": "0x6edce65403992e310a62460808c4b910d972f10f",
          "topics": [
            "0x1ab700d4ced0c005b164c0f789fd09fcbb0156d4c2041b8a3bfbcd961cd1567f"
          ],
          "data": "0x000000000000000000000000000000000000000000000000000000000000006000000000000000000000000000000000000000000000000000000000000001200000000000000000000000001d186c560281b8f1af831957ed5047fd3ab902f9000000000000000000000000000000000000000000000000000000000000009901000000000000000b00009d4b0000000000000000000000009918889e93e8c4357a2d4bce0965dcc493fffda800009d350000000000000000000000003d2bd0e15829aa5c362a4144fdf4a1112fa29b5ced9b6077a50a3a9fedf5753626d80f4fce7c1ed74ec877b0e38371d6283ac05b00000000000000000000000021af1185734d213d45c6236146fb81e2b0e8b8210000000002faf0800000000000000000000000000000000000000000000000000000000000000000000000000000160003010011010000000000000000000000000000fde800000000000000000000",
          "blockHash": "0xae1758ed35db889034340416c219f98c5192bbc10b2b23bc83e62c28b59eeb0e",
          "blockNumber": "0xb560b0",
          "transactionHash": "0xadbe2bdf0c108734865938245a979669636bebaeb061510549276b4821c231ef",
          "transactionIndex": "0x3",
          "logIndex": "0x26",
          "removed": false
        },
        {
          "address": "0x0000000000000000000000000000000000001010",
          "topics": [
            "0xe6497e3ee548a3372136af2fcb0696db31fc6cf20260707645068bd3fe97f3c4",
            "0x0000000000000000000000000000000000000000000000000000000000001010",
            "0x0000000000000000000000006edce65403992e310a62460808c4b910d972f10f",
            "0x0000000000000000000000001d186c560281b8f1af831957ed5047fd3ab902f9"
          ],
          "data": "0x00000000000000000000000000000000000000000000000007bebac684a8454e00000000000000000000000000000000000000000000000007bebac684a8454e000000000000000000000000000000000000000000000045de3f4b88a0a6bdc80000000000000000000000000000000000000000000000000000000000000000000000000000000000000000000000000000000000000045e5fe064f254f0316",
          "blockHash": "0xae1758ed35db889034340416c219f98c5192bbc10b2b23bc83e62c28b59eeb0e",
          "blockNumber": "0xb560b0",
          "transactionHash": "0xadbe2bdf0c108734865938245a979669636bebaeb061510549276b4821c231ef",
          "transactionIndex": "0x3",
          "logIndex": "0x27",
          "removed": false
        },
        {
          "address": "0x9918889e93e8c4357a2d4bce0965dcc493fffda8",
          "topics": [
            "0x85496b760a4b7f8d66384b9df21b381f5d1b1e79f229a47aaf4c232edc2fe59a",
            "0xed9b6077a50a3a9fedf5753626d80f4fce7c1ed74ec877b0e38371d6283ac05b",
            "0x00000000000000000000000021af1185734d213d45c6236146fb81e2b0e8b821"
          ],
          "data": "0x0000000000000000000000000000000000000000000000000000000000009d35000000000000000000000000000000000000000000000002b5e3af16b1880000000000000000000000000000000000000000000000000002b5e3af16b1880000",
          "blockHash": "0xae1758ed35db889034340416c219f98c5192bbc10b2b23bc83e62c28b59eeb0e",
          "blockNumber": "0xb560b0",
          "transactionHash": "0xadbe2bdf0c108734865938245a979669636bebaeb061510549276b4821c231ef",
          "transactionIndex": "0x3",
          "logIndex": "0x28",
          "removed": false
        },
        {
          "address": "0x0000000000000000000000000000000000001010",
          "topics": [
            "0x4dfe1bbbcf077ddc3e01291eea2d5c70c2b422b415d95645b9adcfd678cb1d63",
            "0x0000000000000000000000000000000000000000000000000000000000001010",
            "0x00000000000000000000000021af1185734d213d45c6236146fb81e2b0e8b821",
            "0x00000000000000000000000004ba3ef4c023c1006019a0f9baf6e70455e41fcf"
          ],
          "data": "0x0000000000000000000000000000000000000000000000000019b0d2a59881e80000000000000000000000000000000000000000000000047f4fcfe64f9adc9d00000000000000000000000000000000000000000000012670679ee1f74a249c0000000000000000000000000000000000000000000000047f361f13aa025ab500000000000000000000000000000000000000000000012670814fb49ce2a684",
          "blockHash": "0xae1758ed35db889034340416c219f98c5192bbc10b2b23bc83e62c28b59eeb0e",
          "blockNumber": "0xb560b0",
          "transactionHash": "0xadbe2bdf0c108734865938245a979669636bebaeb061510549276b4821c231ef",
          "transactionIndex": "0x3",
          "logIndex": "0x29",
          "removed": false
        }
      ],
      "logsBloom": "0x400000000000000000000000000800000000000000000000000000000000040000000000000010002000001000000000400080000000000000000000000040000000028020000000000000080000008000000000000000000001008000020000000000200000000082000110000000000000000000000000800040100000000000000000000040200000000800000000000000000000000000000000000000002000000080000000081000240000000000000800004000000004c0000000004000000002000000000001002080000000000000000008801200108000000000000002040000000000000000000000002008000000008000000000000000100000",
      "type": "0x2",
      "transactionHash": "0xadbe2bdf0c108734865938245a979669636bebaeb061510549276b4821c231ef",
      "transactionIndex": "0x3",
      "blockHash": "0xae1758ed35db889034340416c219f98c5192bbc10b2b23bc83e62c28b59eeb0e",
      "blockNumber": "0xb560b0",
      "gasUsed": "0x394bf",
      "effectiveGasPrice": "0x72c917027",
      "from": "0x21af1185734d213d45c6236146fb81e2b0e8b821",
      "to": "0x9918889e93e8c4357a2d4bce0965dcc493fffda8",
      "contractAddress": null
    },
    {
      "status": "0x1",
      "cumulativeGasUsed": "0x1b01ce",
      "logs": [
        {
          "address": "0x3d2bd0e15829aa5c362a4144fdf4a1112fa29b5c",
          "topics": [
            "0x8c5be1e5ebec7d5bd14f71427d1e84f3dd0314c0f7b2291e5b200ac8c7c3b925",
            "0x00000000000000000000000021af1185734d213d45c6236146fb81e2b0e8b821",
            "0x0000000000000000000000009918889e93e8c4357a2d4bce0965dcc493fffda8"
          ],
          "data": "0x0000000000000000000000000000000000000000000000056bc75e2d63100000",
          "blockHash": "0xae1758ed35db889034340416c219f98c5192bbc10b2b23bc83e62c28b59eeb0e",
          "blockNumber": "0xb560b0",
          "transactionHash": "0x0c75fc25e60ea1c89b2b94f0f076fa841e1a873d2b79217392a3aebef27e67ed",
          "transactionIndex": "0x4",
          "logIndex": "0x2a",
          "removed": false
        },
        {
          "address": "0x0000000000000000000000000000000000001010",
          "topics": [
            "0x4dfe1bbbcf077ddc3e01291eea2d5c70c2b422b415d95645b9adcfd678cb1d63",
            "0x0000000000000000000000000000000000000000000000000000000000001010",
            "0x00000000000000000000000021af1185734d213d45c6236146fb81e2b0e8b821",
            "0x00000000000000000000000004ba3ef4c023c1006019a0f9baf6e70455e41fcf"
          ],
          "data": "0x00000000000000000000000000000000000000000000000000050e80ef035a980000000000000000000000000000000000000000000000047777644d25245e3600000000000000000000000000000000000000000000012670814fb49ce2a684000000000000000000000000000000000000000000000004777255cc3621039e00000000000000000000000000000000000000000000012670865e358be6011c",
          "blockHash": "0xae1758ed35db889034340416c219f98c5192bbc10b2b23bc83e62c28b59eeb0e",
          "blockNumber": "0xb560b0",
          "transactionHash": "0x0c75fc25e60ea1c89b2b94f0f076fa841e1a873d2b79217392a3aebef27e67ed",
          "transactionIndex": "0x4",
          "logIndex": "0x2b",
          "removed": false
        }
      ],
      "logsBloom": "0x40000000000000000000000000080000000000000000000000000000000004000000000000001000000000000000000000008000000000000000000000200000000000002000000000000000000000800000000000000000000100000000000000000020000000000000000000000000000000000000000080004000000000000000000000004000000000000000000000000000000000000000000000000000220000000000000008000000000000000000000000000000000080000000004000000000000000000001000000000000000000000000000000100000000000000012000000000000000000000000000000000000000000000000000000100000",
      "type": "0x2",
      "transactionHash": "0x0c75fc25e60ea1c89b2b94f0f076fa841e1a873d2b79217392a3aebef27e67ed",
      "transactionIndex": "0x4",
      "blockHash": "0xae1758ed35db889034340416c219f98c5192bbc10b2b23bc83e62c28b59eeb0e",
      "blockNumber": "0xb560b0",
      "gasUsed": "0xb471",
      "effectiveGasPrice": "0x72c917027",
      "from": "0x21af1185734d213d45c6236146fb81e2b0e8b821",
      "to": "0x3d2bd0e15829aa5c362a4144fdf4a1112fa29b5c",
      "contractAddress": null
    },
    {
      "status": "0x1",
      "cumulativeGasUsed": "0x1e968d",
      "logs": [
        {
          "address": "0x0000000000000000000000000000000000001010",
          "topics": [
            "0xe6497e3ee548a3372136af2fcb0696db31fc6cf20260707645068bd3fe97f3c4",
            "0x0000000000000000000000000000000000000000000000000000000000001010",
            "0x00000000000000000000000021af1185734d213d45c6236146fb81e2b0e8b821",
            "0x0000000000000000000000009918889e93e8c4357a2d4bce0965dcc493fffda8"
          ],
          "data": "0x00000000000000000000000000000000000000000000000007bebac684a8454e000000000000000000000000000000000000000000000004774ed999d519893f00000000000000000000000000000000000000000000000000000000000000000000000000000000000000000000000000000000000000046f901ed3507143f100000000000000000000000000000000000000000000000007bebac684a8454e",
          "blockHash": "0xae1758ed35db889034340416c219f98c5192bbc10b2b23bc83e62c28b59eeb0e",
          "blockNumber": "0xb560b0",
          "transactionHash": "0xa9d2b5007d19b28e5913e8d198e2cf8e788e4abead00eb78f3b1a08273b278a6",
          "transactionIndex": "0x5",
          "logIndex": "0x2c",
          "removed": false
        },
        {
          "address": "0x3d2bd0e15829aa5c362a4144fdf4a1112fa29b5c",
          "topics": [
            "0xddf252ad1be2c89b69c2b068fc378daa952ba7f163c4a11628f55a4df523b3ef",
            "0x00000000000000000000000021af1185734d213d45c6236146fb81e2b0e8b821",
            "0x0000000000000000000000009918889e93e8c4357a2d4bce0965dcc493fffda8"
          ],
          "data": "0x0000000000000000000000000000000000000000000000056bc75e2d63100000",
          "blockHash": "0xae1758ed35db889034340416c219f98c5192bbc10b2b23bc83e62c28b59eeb0e",
          "blockNumber": "0xb560b0",
          "transactionHash": "0xa9d2b5007d19b28e5913e8d198e2cf8e788e4abead00eb78f3b1a08273b278a6",
          "transactionIndex": "0x5",
          "logIndex": "0x2d",
          "removed": false
        },
        {
          "address": "0x0000000000000000000000000000000000001010",
          "topics": [
            "0xe6497e3ee548a3372136af2fcb0696db31fc6cf20260707645068bd3fe97f3c4",
            "0x0000000000000000000000000000000000000000000000000000000000001010",
            "0x0000000000000000000000009918889e93e8c4357a2d4bce0965dcc493fffda8",
            "0x0000000000000000000000006edce65403992e310a62460808c4b910d972f10f"
          ],
          "data": "0x00000000000000000000000000000000000000000000000007bebac684a8454e00000000000000000000000000000000000000000000000007bebac684a8454e0000000000000000000000000000000000000000000000000000000000000000000000000000000000000000000000000000000000000000000000000000000000000000000000000000000000000000000000000000000007bebac684a8454e",
          "blockHash": "0xae1758ed35db889034340416c219f98c5192bbc10b2b23bc83e62c28b59eeb0e",
          "blockNumber": "0xb560b0",
          "transactionHash": "0xa9d2b5007d19b28e5913e8d198e2cf8e788e4abead00eb78f3b1a08273b278a6",
          "transactionIndex": "0x5",
          "logIndex": "0x2e",
          "removed": false
        },
        {
          "address": "0x1d186c560281b8f1af831957ed5047fd3ab902f9",
          "topics": [
            "0x61ed099e74a97a1d7f8bb0952a88ca8b7b8ebd00c126ea04671f92a81213318a"
          ],
          "data": "0x0000000000000000000000004cf1b3fa61465c2c907f82fc488b43223ba0cf93000000000000000000000000000000000000000000000000075d22a0e6094885",
          "blockHash": "0xae1758ed35db889034340416c219f98c5192bbc10b2b23bc83e62c28b59eeb0e",
          "blockNumber": "0xb560b0",
          "transactionHash": "0xa9d2b5007d19b28e5913e8d198e2cf8e788e4abead00eb78f3b1a08273b278a6",
          "transactionIndex": "0x5",
          "logIndex": "0x2f",
          "removed": false
        },
        {
          "address": "0x1d186c560281b8f1af831957ed5047fd3ab902f9",
          "topics": [
            "0x07ea52d82345d6e838192107d8fd7123d9c2ec8e916cd0aad13fd2b60db24644"
          ],
          "data": "0x000000000000000000000000000000000000000000000000000000000000006000000000000000000000000000000000000000000000000000000000000000a000000000000000000000000000000000000000000000000000000000000000c0000000000000000000000000000000000000000000000000000000000000000100000000000000000000000055c175dd5b039331db251424538169d8495c18d100000000000000000000000000000000000000000000000000000000000000000000000000000000000000000000000000000000000000000000000000000001000000000000000000000000000000000000000000000000006198259e9efcc9",
          "blockHash": "0xae1758ed35db889034340416c219f98c5192bbc10b2b23bc83e62c28b59eeb0e",
          "blockNumber": "0xb560b0",
          "transactionHash": "0xa9d2b5007d19b28e5913e8d198e2cf8e788e4abead00eb78f3b1a08273b278a6",
          "transactionIndex": "0x5",
          "logIndex": "0x30",
          "removed": false
        },
        {
          "address": "0x6edce65403992e310a62460808c4b910d972f10f",
          "topics": [
            "0x1ab700d4ced0c005b164c0f789fd09fcbb0156d4c2041b8a3bfbcd961cd1567f"
          ],
          "data": "0x000000000000000000000000000000000000000000000000000000000000006000000000000000000000000000000000000000000000000000000000000001200000000000000000000000001d186c560281b8f1af831957ed5047fd3ab902f9000000000000000000000000000000000000000000000000000000000000009901000000000000000c00009d4b0000000000000000000000009918889e93e8c4357a2d4bce0965dcc493fffda800009d350000000000000000000000003d2bd0e15829aa5c362a4144fdf4a1112fa29b5cb389c54da9d059bd75ce7b66ecc8e3bb1f9812d11d270f656442671edf8b19a900000000000000000000000021af1185734d213d45c6236146fb81e2b0e8b8210000000005f5e1000000000000000000000000000000000000000000000000000000000000000000000000000000160003010011010000000000000000000000000000fde800000000000000000000",
          "blockHash": "0xae1758ed35db889034340416c219f98c5192bbc10b2b23bc83e62c28b59eeb0e",
          "blockNumber": "0xb560b0",
          "transactionHash": "0xa9d2b5007d19b28e5913e8d198e2cf8e788e4abead00eb78f3b1a08273b278a6",
          "transactionIndex": "0x5",
          "logIndex": "0x31",
          "removed": false
        },
        {
          "address": "0x0000000000000000000000000000000000001010",
          "topics": [
            "0xe6497e3ee548a3372136af2fcb0696db31fc6cf20260707645068bd3fe97f3c4",
            "0x0000000000000000000000000000000000000000000000000000000000001010",
            "0x0000000000000000000000006edce65403992e310a62460808c4b910d972f10f",
            "0x0000000000000000000000001d186c560281b8f1af831957ed5047fd3ab902f9"
          ],
          "data": "0x00000000000000000000000000000000000000000000000007bebac684a8454e00000000000000000000000000000000000000000000000007bebac684a8454e000000000000000000000000000000000000000000000045e5fe064f254f03160000000000000000000000000000000000000000000000000000000000000000000000000000000000000000000000000000000000000045edbcc115a9f74864",
          "blockHash": "0xae1758ed35db889034340416c219f98c5192bbc10b2b23bc83e62c28b59eeb0e",
          "blockNumber": "0xb560b0",
          "transactionHash": "0xa9d2b5007d19b28e5913e8d198e2cf8e788e4abead00eb78f3b1a08273b278a6",
          "transactionIndex": "0x5",
          "logIndex": "0x32",
          "removed": false
        },
        {
          "address": "0x9918889e93e8c4357a2d4bce0965dcc493fffda8",
          "topics": [
            "0x85496b760a4b7f8d66384b9df21b381f5d1b1e79f229a47aaf4c232edc2fe59a",
            "0xb389c54da9d059bd75ce7b66ecc8e3bb1f9812d11d270f656442671edf8b19a9",
            "0x00000000000000000000000021af1185734d213d45c6236146fb81e2b0e8b821"
          ],
          "data": "0x0000000000000000000000000000000000000000000000000000000000009d350000000000000000000000000000000000000000000000056bc75e2d631000000000000000000000000000000000000000000000000000056bc75e2d63100000",
          "blockHash": "0xae1758ed35db889034340416c219f98c5192bbc10b2b23bc83e62c28b59eeb0e",
          "blockNumber": "0xb560b0",
          "transactionHash": "0xa9d2b5007d19b28e5913e8d198e2cf8e788e4abead00eb78f3b1a08273b278a6",
          "transactionIndex": "0x5",
          "logIndex": "0x33",
          "removed": false
        },
        {
          "address": "0x0000000000000000000000000000000000001010",
          "topics": [
            "0x4dfe1bbbcf077ddc3e01291eea2d5c70c2b422b415d95645b9adcfd678cb1d63",
            "0x0000000000000000000000000000000000000000000000000000000000001010",
            "0x00000000000000000000000021af1185734d213d45c6236146fb81e2b0e8b821",
            "0x00000000000000000000000004ba3ef4c023c1006019a0f9baf6e70455e41fcf"
          ],
          "data": "0x0000000000000000000000000000000000000000000000000019b0d2a59881e8000000000000000000000000000000000000000000000004777255cc361670ff00000000000000000000000000000000000000000000012670865e358be6011c0000000000000000000000000000000000000000000000047758a4f9907def1700000000000000000000000000000000000000000000012670a00f08317e8304",
          "blockHash": "0xae1758ed35db889034340416c219f98c5192bbc10b2b23bc83e62c28b59eeb0e",
          "blockNumber": "0xb560b0",
          "transactionHash": "0xa9d2b5007d19b28e5913e8d198e2cf8e788e4abead00eb78f3b1a08273b278a6",
          "transactionIndex": "0x5",
          "logIndex": "0x34",
          "removed": false
        }
      ],
      "logsBloom": "0x400000400000000000000000000800000000000000000000000000000000040000000000000010002000001000000000000080000000000000000000000040000000028020000000000000080000008000000000000000000001000000020000000000200000004082000010000000000000000000000000800040100000000000000000000040200000000800000000000000000000000000000000000000002000000080000000081000240000000000000800004000000004c0000000004000000002000000000001002080000000000000000008801200108000000000000002040000000000000000000000002008000000008000000000000000100000",
      "type": "0x2",
      "transactionHash": "0xa9d2b5007d19b28e5913e8d198e2cf8e788e4abead00eb78f3b1a08273b278a6",
      "transactionIndex": "0x5",
      "blockHash": "0xae1758ed35db889034340416c219f98c5192bbc10b2b23bc83e62c28b59eeb0e",
      "blockNumber": "0xb560b0",
      "gasUsed": "0x394bf",
      "effectiveGasPrice": "0x72c917027",
      "from": "0x21af1185734d213d45c6236146fb81e2b0e8b821",
      "to": "0x9918889e93e8c4357a2d4bce0965dcc493fffda8",
      "contractAddress": null
    },
    {
      "status": "0x1",
      "cumulativeGasUsed": "0x1f4afe",
      "logs": [
        {
          "address": "0x3d2bd0e15829aa5c362a4144fdf4a1112fa29b5c",
          "topics": [
            "0x8c5be1e5ebec7d5bd14f71427d1e84f3dd0314c0f7b2291e5b200ac8c7c3b925",
            "0x00000000000000000000000021af1185734d213d45c6236146fb81e2b0e8b821",
            "0x0000000000000000000000009918889e93e8c4357a2d4bce0965dcc493fffda8"
          ],
          "data": "0x00000000000000000000000000000000000000000000003635c9adc5dea00000",
          "blockHash": "0xae1758ed35db889034340416c219f98c5192bbc10b2b23bc83e62c28b59eeb0e",
          "blockNumber": "0xb560b0",
          "transactionHash": "0x627bc69a95b867b220a9b97a94a0e6683bb4c3841cee51c51e25c57f906a2506",
          "transactionIndex": "0x6",
          "logIndex": "0x35",
          "removed": false
        },
        {
          "address": "0x0000000000000000000000000000000000001010",
          "topics": [
            "0x4dfe1bbbcf077ddc3e01291eea2d5c70c2b422b415d95645b9adcfd678cb1d63",
            "0x0000000000000000000000000000000000000000000000000000000000001010",
            "0x00000000000000000000000021af1185734d213d45c6236146fb81e2b0e8b821",
            "0x00000000000000000000000004ba3ef4c023c1006019a0f9baf6e70455e41fcf"
          ],
          "data": "0x00000000000000000000000000000000000000000000000000050e80ef035a980000000000000000000000000000000000000000000000046f99ea330b9ff29800000000000000000000000000000000000000000000012670a00f08317e83040000000000000000000000000000000000000000000000046f94dbb21c9c980000000000000000000000000000000000000000000000012670a51d892081dd9c",
          "blockHash": "0xae1758ed35db889034340416c219f98c5192bbc10b2b23bc83e62c28b59eeb0e",
          "blockNumber": "0xb560b0",
          "transactionHash": "0x627bc69a95b867b220a9b97a94a0e6683bb4c3841cee51c51e25c57f906a2506",
          "transactionIndex": "0x6",
          "logIndex": "0x36",
          "removed": false
        }
      ],
      "logsBloom": "0x40000000000000000000000000080000000000000000000000000000000004000000000000001000000000000000000000008000000000000000000000200000000000002000000000000000000000800000000000000000000100000000000000000020000000000000000000000000000000000000000080004000000000000000000000004000000000000000000000000000000000000000000000000000220000000000000008000000000000000000000000000000000080000000004000000000000000000001000000000000000000000000000000100000000000000012000000000000000000000000000000000000000000000000000000100000",
      "type": "0x2",
      "transactionHash": "0x627bc69a95b867b220a9b97a94a0e6683bb4c3841cee51c51e25c57f906a2506",
      "transactionIndex": "0x6",
      "blockHash": "0xae1758ed35db889034340416c219f98c5192bbc10b2b23bc83e62c28b59eeb0e",
      "blockNumber": "0xb560b0",
      "gasUsed": "0xb471",
      "effectiveGasPrice": "0x72c917027",
      "from": "0x21af1185734d213d45c6236146fb81e2b0e8b821",
      "to": "0x3d2bd0e15829aa5c362a4144fdf4a1112fa29b5c",
      "contractAddress": null
    },
    {
      "status": "0x1",
      "cumulativeGasUsed": "0x22dfbd",
      "logs": [
        {
          "address": "0x0000000000000000000000000000000000001010",
          "topics": [
            "0xe6497e3ee548a3372136af2fcb0696db31fc6cf20260707645068bd3fe97f3c4",
            "0x0000000000000000000000000000000000000000000000000000000000001010",
            "0x00000000000000000000000021af1185734d213d45c6236146fb81e2b0e8b821",
            "0x0000000000000000000000009918889e93e8c4357a2d4bce0965dcc493fffda8"
          ],
          "data": "0x00000000000000000000000000000000000000000000000007bebac684a8454e0000000000000000000000000000000000000000000000046f715f7fbb951da1000000000000000000000000000000000000000000000000000000000000000000000000000000000000000000000000000000000000000467b2a4b936ecd85300000000000000000000000000000000000000000000000007bebac684a8454e",
          "blockHash": "0xae1758ed35db889034340416c219f98c5192bbc10b2b23bc83e62c28b59eeb0e",
          "blockNumber": "0xb560b0",
          "transactionHash": "0xf312ef8e1b748265143112df89c1ef934e45296e9ce061c1cee5f757f84bae71",
          "transactionIndex": "0x7",
          "logIndex": "0x37",
          "removed": false
        },
        {
          "address": "0x3d2bd0e15829aa5c362a4144fdf4a1112fa29b5c",
          "topics": [
            "0xddf252ad1be2c89b69c2b068fc378daa952ba7f163c4a11628f55a4df523b3ef",
            "0x00000000000000000000000021af1185734d213d45c6236146fb81e2b0e8b821",
            "0x0000000000000000000000009918889e93e8c4357a2d4bce0965dcc493fffda8"
          ],
          "data": "0x00000000000000000000000000000000000000000000003635c9adc5dea00000",
          "blockHash": "0xae1758ed35db889034340416c219f98c5192bbc10b2b23bc83e62c28b59eeb0e",
          "blockNumber": "0xb560b0",
          "transactionHash": "0xf312ef8e1b748265143112df89c1ef934e45296e9ce061c1cee5f757f84bae71",
          "transactionIndex": "0x7",
          "logIndex": "0x38",
          "removed": false
        },
        {
          "address": "0x0000000000000000000000000000000000001010",
          "topics": [
            "0xe6497e3ee548a3372136af2fcb0696db31fc6cf20260707645068bd3fe97f3c4",
            "0x0000000000000000000000000000000000000000000000000000000000001010",
            "0x0000000000000000000000009918889e93e8c4357a2d4bce0965dcc493fffda8",
            "0x0000000000000000000000006edce65403992e310a62460808c4b910d972f10f"
          ],
          "data": "0x00000000000000000000000000000000000000000000000007bebac684a8454e00000000000000000000000000000000000000000000000007bebac684a8454e0000000000000000000000000000000000000000000000000000000000000000000000000000000000000000000000000000000000000000000000000000000000000000000000000000000000000000000000000000000007bebac684a8454e",
          "blockHash": "0xae1758ed35db889034340416c219f98c5192bbc10b2b23bc83e62c28b59eeb0e",
          "blockNumber": "0xb560b0",
          "transactionHash": "0xf312ef8e1b748265143112df89c1ef934e45296e9ce061c1cee5f757f84bae71",
          "transactionIndex": "0x7",
          "logIndex": "0x39",
          "removed": false
        },
        {
          "address": "0x1d186c560281b8f1af831957ed5047fd3ab902f9",
          "topics": [
            "0x61ed099e74a97a1d7f8bb0952a88ca8b7b8ebd00c126ea04671f92a81213318a"
          ],
          "data": "0x0000000000000000000000004cf1b3fa61465c2c907f82fc488b43223ba0cf93000000000000000000000000000000000000000000000000075d22a0e6094885",
          "blockHash": "0xae1758ed35db889034340416c219f98c5192bbc10b2b23bc83e62c28b59eeb0e",
          "blockNumber": "0xb560b0",
          "transactionHash": "0xf312ef8e1b748265143112df89c1ef934e45296e9ce061c1cee5f757f84bae71",
          "transactionIndex": "0x7",
          "logIndex": "0x3a",
          "removed": false
        },
        {
          "address": "0x1d186c560281b8f1af831957ed5047fd3ab902f9",
          "topics": [
            "0x07ea52d82345d6e838192107d8fd7123d9c2ec8e916cd0aad13fd2b60db24644"
          ],
          "data": "0x000000000000000000000000000000000000000000000000000000000000006000000000000000000000000000000000000000000000000000000000000000a000000000000000000000000000000000000000000000000000000000000000c0000000000000000000000000000000000000000000000000000000000000000100000000000000000000000055c175dd5b039331db251424538169d8495c18d100000000000000000000000000000000000000000000000000000000000000000000000000000000000000000000000000000000000000000000000000000001000000000000000000000000000000000000000000000000006198259e9efcc9",
          "blockHash": "0xae1758ed35db889034340416c219f98c5192bbc10b2b23bc83e62c28b59eeb0e",
          "blockNumber": "0xb560b0",
          "transactionHash": "0xf312ef8e1b748265143112df89c1ef934e45296e9ce061c1cee5f757f84bae71",
          "transactionIndex": "0x7",
          "logIndex": "0x3b",
          "removed": false
        },
        {
          "address": "0x6edce65403992e310a62460808c4b910d972f10f",
          "topics": [
            "0x1ab700d4ced0c005b164c0f789fd09fcbb0156d4c2041b8a3bfbcd961cd1567f"
          ],
          "data": "0x000000000000000000000000000000000000000000000000000000000000006000000000000000000000000000000000000000000000000000000000000001200000000000000000000000001d186c560281b8f1af831957ed5047fd3ab902f9000000000000000000000000000000000000000000000000000000000000009901000000000000000d00009d4b0000000000000000000000009918889e93e8c4357a2d4bce0965dcc493fffda800009d350000000000000000000000003d2bd0e15829aa5c362a4144fdf4a1112fa29b5c8a27517ce8a00109620f042059b342e0f075072647e18c853652494fd6d443b100000000000000000000000021af1185734d213d45c6236146fb81e2b0e8b821000000003b9aca000000000000000000000000000000000000000000000000000000000000000000000000000000160003010011010000000000000000000000000000fde800000000000000000000",
          "blockHash": "0xae1758ed35db889034340416c219f98c5192bbc10b2b23bc83e62c28b59eeb0e",
          "blockNumber": "0xb560b0",
          "transactionHash": "0xf312ef8e1b748265143112df89c1ef934e45296e9ce061c1cee5f757f84bae71",
          "transactionIndex": "0x7",
          "logIndex": "0x3c",
          "removed": false
        },
        {
          "address": "0x0000000000000000000000000000000000001010",
          "topics": [
            "0xe6497e3ee548a3372136af2fcb0696db31fc6cf20260707645068bd3fe97f3c4",
            "0x0000000000000000000000000000000000000000000000000000000000001010",
            "0x0000000000000000000000006edce65403992e310a62460808c4b910d972f10f",
            "0x0000000000000000000000001d186c560281b8f1af831957ed5047fd3ab902f9"
          ],
          "data": "0x00000000000000000000000000000000000000000000000007bebac684a8454e00000000000000000000000000000000000000000000000007bebac684a8454e000000000000000000000000000000000000000000000045edbcc115a9f748640000000000000000000000000000000000000000000000000000000000000000000000000000000000000000000000000000000000000045f57b7bdc2e9f8db2",
          "blockHash": "0xae1758ed35db889034340416c219f98c5192bbc10b2b23bc83e62c28b59eeb0e",
          "blockNumber": "0xb560b0",
          "transactionHash": "0xf312ef8e1b748265143112df89c1ef934e45296e9ce061c1cee5f757f84bae71",
          "transactionIndex": "0x7",
          "logIndex": "0x3d",
          "removed": false
        },
        {
          "address": "0x9918889e93e8c4357a2d4bce0965dcc493fffda8",
          "topics": [
            "0x85496b760a4b7f8d66384b9df21b381f5d1b1e79f229a47aaf4c232edc2fe59a",
            "0x8a27517ce8a00109620f042059b342e0f075072647e18c853652494fd6d443b1",
            "0x00000000000000000000000021af1185734d213d45c6236146fb81e2b0e8b821"
          ],
          "data": "0x0000000000000000000000000000000000000000000000000000000000009d3500000000000000000000000000000000000000000000003635c9adc5dea0000000000000000000000000000000000000000000000000003635c9adc5dea00000",
          "blockHash": "0xae1758ed35db889034340416c219f98c5192bbc10b2b23bc83e62c28b59eeb0e",
          "blockNumber": "0xb560b0",
          "transactionHash": "0xf312ef8e1b748265143112df89c1ef934e45296e9ce061c1cee5f757f84bae71",
          "transactionIndex": "0x7",
          "logIndex": "0x3e",
          "removed": false
        },
        {
          "address": "0x0000000000000000000000000000000000001010",
          "topics": [
            "0x4dfe1bbbcf077ddc3e01291eea2d5c70c2b422b415d95645b9adcfd678cb1d63",
            "0x0000000000000000000000000000000000000000000000000000000000001010",
            "0x00000000000000000000000021af1185734d213d45c6236146fb81e2b0e8b821",
            "0x00000000000000000000000004ba3ef4c023c1006019a0f9baf6e70455e41fcf"
          ],
          "data": "0x0000000000000000000000000000000000000000000000000019b0d2a59881e80000000000000000000000000000000000000000000000046f94dbb21c92056100000000000000000000000000000000000000000000012670a51d892081dd9c0000000000000000000000000000000000000000000000046f7b2adf76f9837900000000000000000000000000000000000000000000012670bece5bc61a5f84",
          "blockHash": "0xae1758ed35db889034340416c219f98c5192bbc10b2b23bc83e62c28b59eeb0e",
          "blockNumber": "0xb560b0",
          "transactionHash": "0xf312ef8e1b748265143112df89c1ef934e45296e9ce061c1cee5f757f84bae71",
          "transactionIndex": "0x7",
          "logIndex": "0x3f",
          "removed": false
        }
      ],
      "logsBloom": "0x400000000000000000000000000800000000000000000000000000100000040000000000000010002000001000000000000080000000000000000000000040000000028020000000000000080000008000000000000000000001000000020000000000200000000082000010000000000000000000000000800040100000000000000000000040200000000800000000000000000000000000000000000000002000008080000000081000240000000000000800004000000004c0000000004000000002000000000001002080000000000000000008801200108000000000000002040000000000000000000000002008000000008000000000000000100080",
      "type": "0x2",
      "transactionHash": "0xf312ef8e1b748265143112df89c1ef934e45296e9ce061c1cee5f757f84bae71",
      "transactionIndex": "0x7",
      "blockHash": "0xae1758ed35db889034340416c219f98c5192bbc10b2b23bc83e62c28b59eeb0e",
      "blockNumber": "0xb560b0",
      "gasUsed": "0x394bf",
      "effectiveGasPrice": "0x72c917027",
      "from": "0x21af1185734d213d45c6236146fb81e2b0e8b821",
      "to": "0x9918889e93e8c4357a2d4bce0965dcc493fffda8",
      "contractAddress": null
    },
    {
      "status": "0x1",
      "cumulativeGasUsed": "0x23943a",
      "logs": [
        {
          "address": "0x3d2bd0e15829aa5c362a4144fdf4a1112fa29b5c",
          "topics": [
            "0x8c5be1e5ebec7d5bd14f71427d1e84f3dd0314c0f7b2291e5b200ac8c7c3b925",
            "0x00000000000000000000000021af1185734d213d45c6236146fb81e2b0e8b821",
            "0x0000000000000000000000009918889e93e8c4357a2d4bce0965dcc493fffda8"
          ],
          "data": "0x00000000000000000000000000000000000000000000021e19e0c9bab2400000",
          "blockHash": "0xae1758ed35db889034340416c219f98c5192bbc10b2b23bc83e62c28b59eeb0e",
          "blockNumber": "0xb560b0",
          "transactionHash": "0x4e012747be3e0b7b478d8e619c8fae492017f55c56af32e60e2da35b7d86c3f7",
          "transactionIndex": "0x8",
          "logIndex": "0x40",
          "removed": false
        },
        {
          "address": "0x0000000000000000000000000000000000001010",
          "topics": [
            "0x4dfe1bbbcf077ddc3e01291eea2d5c70c2b422b415d95645b9adcfd678cb1d63",
            "0x0000000000000000000000000000000000000000000000000000000000001010",
            "0x00000000000000000000000021af1185734d213d45c6236146fb81e2b0e8b821",
            "0x00000000000000000000000004ba3ef4c023c1006019a0f9baf6e70455e41fcf"
          ],
          "data": "0x00000000000000000000000000000000000000000000000000050ed705d49bb800000000000000000000000000000000000000000000000467bc7018f21b86fa00000000000000000000000000000000000000000000012670bece5bc61a5f8400000000000000000000000000000000000000000000000467b76141ec46eb4200000000000000000000000000000000000000000000012670c3dd32cbeefb3c",
          "blockHash": "0xae1758ed35db889034340416c219f98c5192bbc10b2b23bc83e62c28b59eeb0e",
          "blockNumber": "0xb560b0",
          "transactionHash": "0x4e012747be3e0b7b478d8e619c8fae492017f55c56af32e60e2da35b7d86c3f7",
          "transactionIndex": "0x8",
          "logIndex": "0x41",
          "removed": false
        }
      ],
      "logsBloom": "0x40000000000000000000000000080000000000000000000000000000000004000000000000001000000000000000000000008000000000000000000000200000000000002000000000000000000000800000000000000000000100000000000000000020000000000000000000000000000000000000000080004000000000000000000000004000000000000000000000000000000000000000000000000000220000000000000008000000000000000000000000000000000080000000004000000000000000000001000000000000000000000000000000100000000000000012000000000000000000000000000000000000000000000000000000100000",
      "type": "0x2",
      "transactionHash": "0x4e012747be3e0b7b478d8e619c8fae492017f55c56af32e60e2da35b7d86c3f7",
      "transactionIndex": "0x8",
      "blockHash": "0xae1758ed35db889034340416c219f98c5192bbc10b2b23bc83e62c28b59eeb0e",
      "blockNumber": "0xb560b0",
      "gasUsed": "0xb47d",
      "effectiveGasPrice": "0x72c917027",
      "from": "0x21af1185734d213d45c6236146fb81e2b0e8b821",
      "to": "0x3d2bd0e15829aa5c362a4144fdf4a1112fa29b5c",
      "contractAddress": null
    },
    {
      "status": "0x1",
      "cumulativeGasUsed": "0x272911",
      "logs": [
        {
          "address": "0x0000000000000000000000000000000000001010",
          "topics": [
            "0xe6497e3ee548a3372136af2fcb0696db31fc6cf20260707645068bd3fe97f3c4",
            "0x0000000000000000000000000000000000000000000000000000000000001010",
            "0x00000000000000000000000021af1185734d213d45c6236146fb81e2b0e8b821",
            "0x0000000000000000000000009918889e93e8c4357a2d4bce0965dcc493fffda8"
          ],
          "data": "0x00000000000000000000000000000000000000000000000007bebac684a8454e0000000000000000000000000000000000000000000000046793e41b9fee8b0100000000000000000000000000000000000000000000000000000000000000000000000000000000000000000000000000000000000000045fd529551b4645b300000000000000000000000000000000000000000000000007bebac684a8454e",
          "blockHash": "0xae1758ed35db889034340416c219f98c5192bbc10b2b23bc83e62c28b59eeb0e",
          "blockNumber": "0xb560b0",
          "transactionHash": "0x5eb620aa5146835305a21c7fcc7347f90ef830ceb464ed19e2cf3b6afa0c2f86",
          "transactionIndex": "0x9",
          "logIndex": "0x42",
          "removed": false
        },
        {
          "address": "0x3d2bd0e15829aa5c362a4144fdf4a1112fa29b5c",
          "topics": [
            "0xddf252ad1be2c89b69c2b068fc378daa952ba7f163c4a11628f55a4df523b3ef",
            "0x00000000000000000000000021af1185734d213d45c6236146fb81e2b0e8b821",
            "0x0000000000000000000000009918889e93e8c4357a2d4bce0965dcc493fffda8"
          ],
          "data": "0x00000000000000000000000000000000000000000000021e19e0c9bab2400000",
          "blockHash": "0xae1758ed35db889034340416c219f98c5192bbc10b2b23bc83e62c28b59eeb0e",
          "blockNumber": "0xb560b0",
          "transactionHash": "0x5eb620aa5146835305a21c7fcc7347f90ef830ceb464ed19e2cf3b6afa0c2f86",
          "transactionIndex": "0x9",
          "logIndex": "0x43",
          "removed": false
        },
        {
          "address": "0x0000000000000000000000000000000000001010",
          "topics": [
            "0xe6497e3ee548a3372136af2fcb0696db31fc6cf20260707645068bd3fe97f3c4",
            "0x0000000000000000000000000000000000000000000000000000000000001010",
            "0x0000000000000000000000009918889e93e8c4357a2d4bce0965dcc493fffda8",
            "0x0000000000000000000000006edce65403992e310a62460808c4b910d972f10f"
          ],
          "data": "0x00000000000000000000000000000000000000000000000007bebac684a8454e00000000000000000000000000000000000000000000000007bebac684a8454e0000000000000000000000000000000000000000000000000000000000000000000000000000000000000000000000000000000000000000000000000000000000000000000000000000000000000000000000000000000007bebac684a8454e",
          "blockHash": "0xae1758ed35db889034340416c219f98c5192bbc10b2b23bc83e62c28b59eeb0e",
          "blockNumber": "0xb560b0",
          "transactionHash": "0x5eb620aa5146835305a21c7fcc7347f90ef830ceb464ed19e2cf3b6afa0c2f86",
          "transactionIndex": "0x9",
          "logIndex": "0x44",
          "removed": false
        },
        {
          "address": "0x1d186c560281b8f1af831957ed5047fd3ab902f9",
          "topics": [
            "0x61ed099e74a97a1d7f8bb0952a88ca8b7b8ebd00c126ea04671f92a81213318a"
          ],
          "data": "0x0000000000000000000000004cf1b3fa61465c2c907f82fc488b43223ba0cf93000000000000000000000000000000000000000000000000075d22a0e6094885",
          "blockHash": "0xae1758ed35db889034340416c219f98c5192bbc10b2b23bc83e62c28b59eeb0e",
          "blockNumber": "0xb560b0",
          "transactionHash": "0x5eb620aa5146835305a21c7fcc7347f90ef830ceb464ed19e2cf3b6afa0c2f86",
          "transactionIndex": "0x9",
          "logIndex": "0x45",
          "removed": false
        },
        {
          "address": "0x1d186c560281b8f1af831957ed5047fd3ab902f9",
          "topics": [
            "0x07ea52d82345d6e838192107d8fd7123d9c2ec8e916cd0aad13fd2b60db24644"
          ],
          "data": "0x000000000000000000000000000000000000000000000000000000000000006000000000000000000000000000000000000000000000000000000000000000a000000000000000000000000000000000000000000000000000000000000000c0000000000000000000000000000000000000000000000000000000000000000100000000000000000000000055c175dd5b039331db251424538169d8495c18d100000000000000000000000000000000000000000000000000000000000000000000000000000000000000000000000000000000000000000000000000000001000000000000000000000000000000000000000000000000006198259e9efcc9",
          "blockHash": "0xae1758ed35db889034340416c219f98c5192bbc10b2b23bc83e62c28b59eeb0e",
          "blockNumber": "0xb560b0",
          "transactionHash": "0x5eb620aa5146835305a21c7fcc7347f90ef830ceb464ed19e2cf3b6afa0c2f86",
          "transactionIndex": "0x9",
          "logIndex": "0x46",
          "removed": false
        },
        {
          "address": "0x6edce65403992e310a62460808c4b910d972f10f",
          "topics": [
            "0x1ab700d4ced0c005b164c0f789fd09fcbb0156d4c2041b8a3bfbcd961cd1567f"
          ],
          "data": "0x000000000000000000000000000000000000000000000000000000000000006000000000000000000000000000000000000000000000000000000000000001200000000000000000000000001d186c560281b8f1af831957ed5047fd3ab902f9000000000000000000000000000000000000000000000000000000000000009901000000000000000e00009d4b0000000000000000000000009918889e93e8c4357a2d4bce0965dcc493fffda800009d350000000000000000000000003d2bd0e15829aa5c362a4144fdf4a1112fa29b5c0628bb310b7122289144bb97a9e56a35fdbe1aeacc15c275003c763ebc51579200000000000000000000000021af1185734d213d45c6236146fb81e2b0e8b82100000002540be4000000000000000000000000000000000000000000000000000000000000000000000000000000160003010011010000000000000000000000000000fde800000000000000000000",
          "blockHash": "0xae1758ed35db889034340416c219f98c5192bbc10b2b23bc83e62c28b59eeb0e",
          "blockNumber": "0xb560b0",
          "transactionHash": "0x5eb620aa5146835305a21c7fcc7347f90ef830ceb464ed19e2cf3b6afa0c2f86",
          "transactionIndex": "0x9",
          "logIndex": "0x47",
          "removed": false
        },
        {
          "address": "0x0000000000000000000000000000000000001010",
          "topics": [
            "0xe6497e3ee548a3372136af2fcb0696db31fc6cf20260707645068bd3fe97f3c4",
            "0x0000000000000000000000000000000000000000000000000000000000001010",
            "0x0000000000000000000000006edce65403992e310a62460808c4b910d972f10f",
            "0x0000000000000000000000001d186c560281b8f1af831957ed5047fd3ab902f9"
          ],
          "data": "0x00000000000000000000000000000000000000000000000007bebac684a8454e00000000000000000000000000000000000000000000000007bebac684a8454e000000000000000000000000000000000000000000000045f57b7bdc2e9f8db20000000000000000000000000000000000000000000000000000000000000000000000000000000000000000000000000000000000000045fd3a36a2b347d300",
          "blockHash": "0xae1758ed35db889034340416c219f98c5192bbc10b2b23bc83e62c28b59eeb0e",
          "blockNumber": "0xb560b0",
          "transactionHash": "0x5eb620aa5146835305a21c7fcc7347f90ef830ceb464ed19e2cf3b6afa0c2f86",
          "transactionIndex": "0x9",
          "logIndex": "0x48",
          "removed": false
        },
        {
          "address": "0x9918889e93e8c4357a2d4bce0965dcc493fffda8",
          "topics": [
            "0x85496b760a4b7f8d66384b9df21b381f5d1b1e79f229a47aaf4c232edc2fe59a",
            "0x0628bb310b7122289144bb97a9e56a35fdbe1aeacc15c275003c763ebc515792",
            "0x00000000000000000000000021af1185734d213d45c6236146fb81e2b0e8b821"
          ],
          "data": "0x0000000000000000000000000000000000000000000000000000000000009d3500000000000000000000000000000000000000000000021e19e0c9bab240000000000000000000000000000000000000000000000000021e19e0c9bab2400000",
          "blockHash": "0xae1758ed35db889034340416c219f98c5192bbc10b2b23bc83e62c28b59eeb0e",
          "blockNumber": "0xb560b0",
          "transactionHash": "0x5eb620aa5146835305a21c7fcc7347f90ef830ceb464ed19e2cf3b6afa0c2f86",
          "transactionIndex": "0x9",
          "logIndex": "0x49",
          "removed": false
        },
        {
          "address": "0x0000000000000000000000000000000000001010",
          "topics": [
            "0x4dfe1bbbcf077ddc3e01291eea2d5c70c2b422b415d95645b9adcfd678cb1d63",
            "0x0000000000000000000000000000000000000000000000000000000000001010",
            "0x00000000000000000000000021af1185734d213d45c6236146fb81e2b0e8b821",
            "0x00000000000000000000000004ba3ef4c023c1006019a0f9baf6e70455e41fcf"
          ],
          "data": "0x0000000000000000000000000000000000000000000000000019b17ed33b042800000000000000000000000000000000000000000000000467b76141ec3c57ef00000000000000000000000000000000000000000000012670c3dd32cbeefb3c000000000000000000000000000000000000000000000004679dafc3190153c700000000000000000000000000000000000000000000012670dd8eb19f29ff64",
          "blockHash": "0xae1758ed35db889034340416c219f98c5192bbc10b2b23bc83e62c28b59eeb0e",
          "blockNumber": "0xb560b0",
          "transactionHash": "0x5eb620aa5146835305a21c7fcc7347f90ef830ceb464ed19e2cf3b6afa0c2f86",
          "transactionIndex": "0x9",
          "logIndex": "0x4a",
          "removed": false
        }
      ],
      "logsBloom": "0x400000000000000000000000000800000000000000000000000000000000040000000800000010002000001000000000000080000000000000000000000040000000028020000000000000080040008000000000000000000001000000020000000000200000000082000010000000000000000000000000800040100000000200000000000040200000000800000000000000000000000000000000000000002000000080000000081000240000000000000800004000000004c0000000004000000002000000000001002080000000000000000008801200108000000000000002040000000000000000000000002008000000008000000000000000100000",
      "type": "0x2",
      "transactionHash": "0x5eb620aa5146835305a21c7fcc7347f90ef830ceb464ed19e2cf3b6afa0c2f86",
      "transactionIndex": "0x9",
      "blockHash": "0xae1758ed35db889034340416c219f98c5192bbc10b2b23bc83e62c28b59eeb0e",
      "blockNumber": "0xb560b0",
      "gasUsed": "0x394d7",
      "effectiveGasPrice": "0x72c917027",
      "from": "0x21af1185734d213d45c6236146fb81e2b0e8b821",
      "to": "0x9918889e93e8c4357a2d4bce0965dcc493fffda8",
      "contractAddress": null
    },
    {
      "status": "0x1",
      "cumulativeGasUsed": "0x27dd8e",
      "logs": [
        {
          "address": "0x3d2bd0e15829aa5c362a4144fdf4a1112fa29b5c",
          "topics": [
            "0x8c5be1e5ebec7d5bd14f71427d1e84f3dd0314c0f7b2291e5b200ac8c7c3b925",
            "0x00000000000000000000000021af1185734d213d45c6236146fb81e2b0e8b821",
            "0x0000000000000000000000009918889e93e8c4357a2d4bce0965dcc493fffda8"
          ],
          "data": "0x00000000000000000000000000000000000000000000152d02c7e14af6800000",
          "blockHash": "0xae1758ed35db889034340416c219f98c5192bbc10b2b23bc83e62c28b59eeb0e",
          "blockNumber": "0xb560b0",
          "transactionHash": "0xaa2b5bfd95e9cd4376f5759c4382bf4e7402b69d5860f589acdbb630d1234abc",
          "transactionIndex": "0xa",
          "logIndex": "0x4b",
          "removed": false
        },
        {
          "address": "0x0000000000000000000000000000000000001010",
          "topics": [
            "0x4dfe1bbbcf077ddc3e01291eea2d5c70c2b422b415d95645b9adcfd678cb1d63",
            "0x0000000000000000000000000000000000000000000000000000000000001010",
            "0x00000000000000000000000021af1185734d213d45c6236146fb81e2b0e8b821",
            "0x00000000000000000000000004ba3ef4c023c1006019a0f9baf6e70455e41fcf"
          ],
          "data": "0x00000000000000000000000000000000000000000000000000050ed705d49bb80000000000000000000000000000000000000000000000045fdef4fc942355e000000000000000000000000000000000000000000000012670dd8eb19f29ff640000000000000000000000000000000000000000000000045fd9e6258e4eba2800000000000000000000000000000000000000000000012670e29d88a4fe9b1c",
          "blockHash": "0xae1758ed35db889034340416c219f98c5192bbc10b2b23bc83e62c28b59eeb0e",
          "blockNumber": "0xb560b0",
          "transactionHash": "0xaa2b5bfd95e9cd4376f5759c4382bf4e7402b69d5860f589acdbb630d1234abc",
          "transactionIndex": "0xa",
          "logIndex": "0x4c",
          "removed": false
        }
      ],
      "logsBloom": "0x40000000000000000000000000080000000000000000000000000000000004000000000000001000000000000000000000008000000000000000000000200000000000002000000000000000000000800000000000000000000100000000000000000020000000000000000000000000000000000000000080004000000000000000000000004000000000000000000000000000000000000000000000000000220000000000000008000000000000000000000000000000000080000000004000000000000000000001000000000000000000000000000000100000000000000012000000000000000000000000000000000000000000000000000000100000",
      "type": "0x2",
      "transactionHash": "0xaa2b5bfd95e9cd4376f5759c4382bf4e7402b69d5860f589acdbb630d1234abc",
      "transactionIndex": "0xa",
      "blockHash": "0xae1758ed35db889034340416c219f98c5192bbc10b2b23bc83e62c28b59eeb0e",
      "blockNumber": "0xb560b0",
      "gasUsed": "0xb47d",
      "effectiveGasPrice": "0x72c917027",
      "from": "0x21af1185734d213d45c6236146fb81e2b0e8b821",
      "to": "0x3d2bd0e15829aa5c362a4144fdf4a1112fa29b5c",
      "contractAddress": null
    },
    {
      "status": "0x1",
      "cumulativeGasUsed": "0x2b7265",
      "logs": [
        {
          "address": "0x0000000000000000000000000000000000001010",
          "topics": [
            "0xe6497e3ee548a3372136af2fcb0696db31fc6cf20260707645068bd3fe97f3c4",
            "0x0000000000000000000000000000000000000000000000000000000000001010",
            "0x00000000000000000000000021af1185734d213d45c6236146fb81e2b0e8b821",
            "0x0000000000000000000000009918889e93e8c4357a2d4bce0965dcc493fffda8"
          ],
          "data": "0x00000000000000000000000000000000000000000000000007bebac684a8454e0000000000000000000000000000000000000000000000045fb668ff41f659e7000000000000000000000000000000000000000000000000000000000000000000000000000000000000000000000000000000000000000457f7ae38bd4e149900000000000000000000000000000000000000000000000007bebac684a8454e",
          "blockHash": "0xae1758ed35db889034340416c219f98c5192bbc10b2b23bc83e62c28b59eeb0e",
          "blockNumber": "0xb560b0",
          "transactionHash": "0x220095be6f9620761b3466c96ae92b45cd784687c09ee0bdf269ac1b71ae65b1",
          "transactionIndex": "0xb",
          "logIndex": "0x4d",
          "removed": false
        },
        {
          "address": "0x3d2bd0e15829aa5c362a4144fdf4a1112fa29b5c",
          "topics": [
            "0xddf252ad1be2c89b69c2b068fc378daa952ba7f163c4a11628f55a4df523b3ef",
            "0x00000000000000000000000021af1185734d213d45c6236146fb81e2b0e8b821",
            "0x0000000000000000000000009918889e93e8c4357a2d4bce0965dcc493fffda8"
          ],
          "data": "0x00000000000000000000000000000000000000000000152d02c7e14af6800000",
          "blockHash": "0xae1758ed35db889034340416c219f98c5192bbc10b2b23bc83e62c28b59eeb0e",
          "blockNumber": "0xb560b0",
          "transactionHash": "0x220095be6f9620761b3466c96ae92b45cd784687c09ee0bdf269ac1b71ae65b1",
          "transactionIndex": "0xb",
          "logIndex": "0x4e",
          "removed": false
        },
        {
          "address": "0x0000000000000000000000000000000000001010",
          "topics": [
            "0xe6497e3ee548a3372136af2fcb0696db31fc6cf20260707645068bd3fe97f3c4",
            "0x0000000000000000000000000000000000000000000000000000000000001010",
            "0x0000000000000000000000009918889e93e8c4357a2d4bce0965dcc493fffda8",
            "0x0000000000000000000000006edce65403992e310a62460808c4b910d972f10f"
          ],
          "data": "0x00000000000000000000000000000000000000000000000007bebac684a8454e00000000000000000000000000000000000000000000000007bebac684a8454e0000000000000000000000000000000000000000000000000000000000000000000000000000000000000000000000000000000000000000000000000000000000000000000000000000000000000000000000000000000007bebac684a8454e",
          "blockHash": "0xae1758ed35db889034340416c219f98c5192bbc10b2b23bc83e62c28b59eeb0e",
          "blockNumber": "0xb560b0",
          "transactionHash": "0x220095be6f9620761b3466c96ae92b45cd784687c09ee0bdf269ac1b71ae65b1",
          "transactionIndex": "0xb",
          "logIndex": "0x4f",
          "removed": false
        },
        {
          "address": "0x1d186c560281b8f1af831957ed5047fd3ab902f9",
          "topics": [
            "0x61ed099e74a97a1d7f8bb0952a88ca8b7b8ebd00c126ea04671f92a81213318a"
          ],
          "data": "0x0000000000000000000000004cf1b3fa61465c2c907f82fc488b43223ba0cf93000000000000000000000000000000000000000000000000075d22a0e6094885",
          "blockHash": "0xae1758ed35db889034340416c219f98c5192bbc10b2b23bc83e62c28b59eeb0e",
          "blockNumber": "0xb560b0",
          "transactionHash": "0x220095be6f9620761b3466c96ae92b45cd784687c09ee0bdf269ac1b71ae65b1",
          "transactionIndex": "0xb",
          "logIndex": "0x50",
          "removed": false
        },
        {
          "address": "0x1d186c560281b8f1af831957ed5047fd3ab902f9",
          "topics": [
            "0x07ea52d82345d6e838192107d8fd7123d9c2ec8e916cd0aad13fd2b60db24644"
          ],
          "data": "0x000000000000000000000000000000000000000000000000000000000000006000000000000000000000000000000000000000000000000000000000000000a000000000000000000000000000000000000000000000000000000000000000c0000000000000000000000000000000000000000000000000000000000000000100000000000000000000000055c175dd5b039331db251424538169d8495c18d100000000000000000000000000000000000000000000000000000000000000000000000000000000000000000000000000000000000000000000000000000001000000000000000000000000000000000000000000000000006198259e9efcc9",
          "blockHash": "0xae1758ed35db889034340416c219f98c5192bbc10b2b23bc83e62c28b59eeb0e",
          "blockNumber": "0xb560b0",
          "transactionHash": "0x220095be6f9620761b3466c96ae92b45cd784687c09ee0bdf269ac1b71ae65b1",
          "transactionIndex": "0xb",
          "logIndex": "0x51",
          "removed": false
        },
        {
          "address": "0x6edce65403992e310a62460808c4b910d972f10f",
          "topics": [
            "0x1ab700d4ced0c005b164c0f789fd09fcbb0156d4c2041b8a3bfbcd961cd1567f"
          ],
          "data": "0x000000000000000000000000000000000000000000000000000000000000006000000000000000000000000000000000000000000000000000000000000001200000000000000000000000001d186c560281b8f1af831957ed5047fd3ab902f9000000000000000000000000000000000000000000000000000000000000009901000000000000000f00009d4b0000000000000000000000009918889e93e8c4357a2d4bce0965dcc493fffda800009d350000000000000000000000003d2bd0e15829aa5c362a4144fdf4a1112fa29b5c5db92648ef297fec4ebfad4fab94639a727823472f97a27bebbb3124830f673c00000000000000000000000021af1185734d213d45c6236146fb81e2b0e8b821000000174876e8000000000000000000000000000000000000000000000000000000000000000000000000000000160003010011010000000000000000000000000000fde800000000000000000000",
          "blockHash": "0xae1758ed35db889034340416c219f98c5192bbc10b2b23bc83e62c28b59eeb0e",
          "blockNumber": "0xb560b0",
          "transactionHash": "0x220095be6f9620761b3466c96ae92b45cd784687c09ee0bdf269ac1b71ae65b1",
          "transactionIndex": "0xb",
          "logIndex": "0x52",
          "removed": false
        },
        {
          "address": "0x0000000000000000000000000000000000001010",
          "topics": [
            "0xe6497e3ee548a3372136af2fcb0696db31fc6cf20260707645068bd3fe97f3c4",
            "0x0000000000000000000000000000000000000000000000000000000000001010",
            "0x0000000000000000000000006edce65403992e310a62460808c4b910d972f10f",
            "0x0000000000000000000000001d186c560281b8f1af831957ed5047fd3ab902f9"
          ],
          "data": "0x00000000000000000000000000000000000000000000000007bebac684a8454e00000000000000000000000000000000000000000000000007bebac684a8454e000000000000000000000000000000000000000000000045fd3a36a2b347d300000000000000000000000000000000000000000000000000000000000000000000000000000000000000000000000000000000000000004604f8f16937f0184e",
          "blockHash": "0xae1758ed35db889034340416c219f98c5192bbc10b2b23bc83e62c28b59eeb0e",
          "blockNumber": "0xb560b0",
          "transactionHash": "0x220095be6f9620761b3466c96ae92b45cd784687c09ee0bdf269ac1b71ae65b1",
          "transactionIndex": "0xb",
          "logIndex": "0x53",
          "removed": false
        },
        {
          "address": "0x9918889e93e8c4357a2d4bce0965dcc493fffda8",
          "topics": [
            "0x85496b760a4b7f8d66384b9df21b381f5d1b1e79f229a47aaf4c232edc2fe59a",
            "0x5db92648ef297fec4ebfad4fab94639a727823472f97a27bebbb3124830f673c",
            "0x00000000000000000000000021af1185734d213d45c6236146fb81e2b0e8b821"
          ],
          "data": "0x0000000000000000000000000000000000000000000000000000000000009d3500000000000000000000000000000000000000000000152d02c7e14af680000000000000000000000000000000000000000000000000152d02c7e14af6800000",
          "blockHash": "0xae1758ed35db889034340416c219f98c5192bbc10b2b23bc83e62c28b59eeb0e",
          "blockNumber": "0xb560b0",
          "transactionHash": "0x220095be6f9620761b3466c96ae92b45cd784687c09ee0bdf269ac1b71ae65b1",
          "transactionIndex": "0xb",
          "logIndex": "0x54",
          "removed": false
        },
        {
          "address": "0x0000000000000000000000000000000000001010",
          "topics": [
            "0x4dfe1bbbcf077ddc3e01291eea2d5c70c2b422b415d95645b9adcfd678cb1d63",
            "0x0000000000000000000000000000000000000000000000000000000000001010",
            "0x00000000000000000000000021af1185734d213d45c6236146fb81e2b0e8b821",
            "0x00000000000000000000000004ba3ef4c023c1006019a0f9baf6e70455e41fcf"
          ],
          "data": "0x0000000000000000000000000000000000000000000000000019b17ed33b04280000000000000000000000000000000000000000000000045fd9e6258e4426d500000000000000000000000000000000000000000000012670e29d88a4fe9b1c0000000000000000000000000000000000000000000000045fc034a6bb0922ad00000000000000000000000000000000000000000000012670fc4f0778399f44",
          "blockHash": "0xae1758ed35db889034340416c219f98c5192bbc10b2b23bc83e62c28b59eeb0e",
          "blockNumber": "0xb560b0",
          "transactionHash": "0x220095be6f9620761b3466c96ae92b45cd784687c09ee0bdf269ac1b71ae65b1",
          "transactionIndex": "0xb",
          "logIndex": "0x55",
          "removed": false
        }
      ],
      "logsBloom": "0x400000000000000000000000000800000000000000000000000000000000040000000000000010002000001000000000000080000000000000000000000040000000028020000800000000080000008000000000000000000001000000020000000000200000000082000010000000000000000000000000800040100000000000000000000040200000000800002000000000000000000000000000000000002000000080000000081000240000000000000800004000000004c0000000004000000002000000000001002080000000000000000008801200108000000000000002040000000000000000000000002008000000008000000000000000100000",
      "type": "0x2",
      "transactionHash": "0x220095be6f9620761b3466c96ae92b45cd784687c09ee0bdf269ac1b71ae65b1",
      "transactionIndex": "0xb",
      "blockHash": "0xae1758ed35db889034340416c219f98c5192bbc10b2b23bc83e62c28b59eeb0e",
      "blockNumber": "0xb560b0",
      "gasUsed": "0x394d7",
      "effectiveGasPrice": "0x72c917027",
      "from": "0x21af1185734d213d45c6236146fb81e2b0e8b821",
      "to": "0x9918889e93e8c4357a2d4bce0965dcc493fffda8",
      "contractAddress": null
    },
    {
      "status": "0x1",
      "cumulativeGasUsed": "0x2c26d6",
      "logs": [
        {
          "address": "0x3d2bd0e15829aa5c362a4144fdf4a1112fa29b5c",
          "topics": [
            "0x8c5be1e5ebec7d5bd14f71427d1e84f3dd0314c0f7b2291e5b200ac8c7c3b925",
            "0x00000000000000000000000021af1185734d213d45c6236146fb81e2b0e8b821",
            "0x0000000000000000000000009918889e93e8c4357a2d4bce0965dcc493fffda8"
          ],
          "data": "0x000000000000000000000000000000000000000000002a5a058fc295ed000000",
          "blockHash": "0xae1758ed35db889034340416c219f98c5192bbc10b2b23bc83e62c28b59eeb0e",
          "blockNumber": "0xb560b0",
          "transactionHash": "0x3ccad51d96c9d6cb8b0bdb7a911a5fedb563cd675850cc405ec424a0682392dd",
          "transactionIndex": "0xc",
          "logIndex": "0x56",
          "removed": false
        },
        {
          "address": "0x0000000000000000000000000000000000001010",
          "topics": [
            "0x4dfe1bbbcf077ddc3e01291eea2d5c70c2b422b415d95645b9adcfd678cb1d63",
            "0x0000000000000000000000000000000000000000000000000000000000001010",
            "0x00000000000000000000000021af1185734d213d45c6236146fb81e2b0e8b821",
            "0x00000000000000000000000004ba3ef4c023c1006019a0f9baf6e70455e41fcf"
          ],
          "data": "0x00000000000000000000000000000000000000000000000000050e80ef035a98000000000000000000000000000000000000000000000004580179e0362b24c600000000000000000000000000000000000000000000012670fc4f0778399f4400000000000000000000000000000000000000000000000457fc6b5f4727ca2e00000000000000000000000000000000000000000000012671015d88673cf9dc",
          "blockHash": "0xae1758ed35db889034340416c219f98c5192bbc10b2b23bc83e62c28b59eeb0e",
          "blockNumber": "0xb560b0",
          "transactionHash": "0x3ccad51d96c9d6cb8b0bdb7a911a5fedb563cd675850cc405ec424a0682392dd",
          "transactionIndex": "0xc",
          "logIndex": "0x57",
          "removed": false
        }
      ],
      "logsBloom": "0x40000000000000000000000000080000000000000000000000000000000004000000000000001000000000000000000000008000000000000000000000200000000000002000000000000000000000800000000000000000000100000000000000000020000000000000000000000000000000000000000080004000000000000000000000004000000000000000000000000000000000000000000000000000220000000000000008000000000000000000000000000000000080000000004000000000000000000001000000000000000000000000000000100000000000000012000000000000000000000000000000000000000000000000000000100000",
      "type": "0x2",
      "transactionHash": "0x3ccad51d96c9d6cb8b0bdb7a911a5fedb563cd675850cc405ec424a0682392dd",
      "transactionIndex": "0xc",
      "blockHash": "0xae1758ed35db889034340416c219f98c5192bbc10b2b23bc83e62c28b59eeb0e",
      "blockNumber": "0xb560b0",
      "gasUsed": "0xb471",
      "effectiveGasPrice": "0x72c917027",
      "from": "0x21af1185734d213d45c6236146fb81e2b0e8b821",
      "to": "0x3d2bd0e15829aa5c362a4144fdf4a1112fa29b5c",
      "contractAddress": null
    },
    {
      "status": "0x1",
      "cumulativeGasUsed": "0x2fbb95",
      "logs": [
        {
          "address": "0x0000000000000000000000000000000000001010",
          "topics": [
            "0xe6497e3ee548a3372136af2fcb0696db31fc6cf20260707645068bd3fe97f3c4",
            "0x0000000000000000000000000000000000000000000000000000000000001010",
            "0x00000000000000000000000021af1185734d213d45c6236146fb81e2b0e8b821",
            "0x0000000000000000000000009918889e93e8c4357a2d4bce0965dcc493fffda8"
          ],
          "data": "0x00000000000000000000000000000000000000000000000007bebac684a8454e00000000000000000000000000000000000000000000000457d8ef2ce6204fcf0000000000000000000000000000000000000000000000000000000000000000000000000000000000000000000000000000000000000004501a346661780a8100000000000000000000000000000000000000000000000007bebac684a8454e",
          "blockHash": "0xae1758ed35db889034340416c219f98c5192bbc10b2b23bc83e62c28b59eeb0e",
          "blockNumber": "0xb560b0",
          "transactionHash": "0x01b47e4e584a8fc723fbe284b6f2c164c29df773f7d0c48e84256f27e8eb1293",
          "transactionIndex": "0xd",
          "logIndex": "0x58",
          "removed": false
        },
        {
          "address": "0x3d2bd0e15829aa5c362a4144fdf4a1112fa29b5c",
          "topics": [
            "0xddf252ad1be2c89b69c2b068fc378daa952ba7f163c4a11628f55a4df523b3ef",
            "0x00000000000000000000000021af1185734d213d45c6236146fb81e2b0e8b821",
            "0x0000000000000000000000009918889e93e8c4357a2d4bce0965dcc493fffda8"
          ],
          "data": "0x000000000000000000000000000000000000000000002a5a058fc295ed000000",
          "blockHash": "0xae1758ed35db889034340416c219f98c5192bbc10b2b23bc83e62c28b59eeb0e",
          "blockNumber": "0xb560b0",
          "transactionHash": "0x01b47e4e584a8fc723fbe284b6f2c164c29df773f7d0c48e84256f27e8eb1293",
          "transactionIndex": "0xd",
          "logIndex": "0x59",
          "removed": false
        },
        {
          "address": "0x0000000000000000000000000000000000001010",
          "topics": [
            "0xe6497e3ee548a3372136af2fcb0696db31fc6cf20260707645068bd3fe97f3c4",
            "0x0000000000000000000000000000000000000000000000000000000000001010",
            "0x0000000000000000000000009918889e93e8c4357a2d4bce0965dcc493fffda8",
            "0x0000000000000000000000006edce65403992e310a62460808c4b910d972f10f"
          ],
          "data": "0x00000000000000000000000000000000000000000000000007bebac684a8454e00000000000000000000000000000000000000000000000007bebac684a8454e0000000000000000000000000000000000000000000000000000000000000000000000000000000000000000000000000000000000000000000000000000000000000000000000000000000000000000000000000000000007bebac684a8454e",
          "blockHash": "0xae1758ed35db889034340416c219f98c5192bbc10b2b23bc83e62c28b59eeb0e",
          "blockNumber": "0xb560b0",
          "transactionHash": "0x01b47e4e584a8fc723fbe284b6f2c164c29df773f7d0c48e84256f27e8eb1293",
          "transactionIndex": "0xd",
          "logIndex": "0x5a",
          "removed": false
        },
        {
          "address": "0x1d186c560281b8f1af831957ed5047fd3ab902f9",
          "topics": [
            "0x61ed099e74a97a1d7f8bb0952a88ca8b7b8ebd00c126ea04671f92a81213318a"
          ],
          "data": "0x0000000000000000000000004cf1b3fa61465c2c907f82fc488b43223ba0cf93000000000000000000000000000000000000000000000000075d22a0e6094885",
          "blockHash": "0xae1758ed35db889034340416c219f98c5192bbc10b2b23bc83e62c28b59eeb0e",
          "blockNumber": "0xb560b0",
          "transactionHash": "0x01b47e4e584a8fc723fbe284b6f2c164c29df773f7d0c48e84256f27e8eb1293",
          "transactionIndex": "0xd",
          "logIndex": "0x5b",
          "removed": false
        },
        {
          "address": "0x1d186c560281b8f1af831957ed5047fd3ab902f9",
          "topics": [
            "0x07ea52d82345d6e838192107d8fd7123d9c2ec8e916cd0aad13fd2b60db24644"
          ],
          "data": "0x000000000000000000000000000000000000000000000000000000000000006000000000000000000000000000000000000000000000000000000000000000a000000000000000000000000000000000000000000000000000000000000000c0000000000000000000000000000000000000000000000000000000000000000100000000000000000000000055c175dd5b039331db251424538169d8495c18d100000000000000000000000000000000000000000000000000000000000000000000000000000000000000000000000000000000000000000000000000000001000000000000000000000000000000000000000000000000006198259e9efcc9",
          "blockHash": "0xae1758ed35db889034340416c219f98c5192bbc10b2b23bc83e62c28b59eeb0e",
          "blockNumber": "0xb560b0",
          "transactionHash": "0x01b47e4e584a8fc723fbe284b6f2c164c29df773f7d0c48e84256f27e8eb1293",
          "transactionIndex": "0xd",
          "logIndex": "0x5c",
          "removed": false
        },
        {
          "address": "0x6edce65403992e310a62460808c4b910d972f10f",
          "topics": [
            "0x1ab700d4ced0c005b164c0f789fd09fcbb0156d4c2041b8a3bfbcd961cd1567f"
          ],
          "data": "0x000000000000000000000000000000000000000000000000000000000000006000000000000000000000000000000000000000000000000000000000000001200000000000000000000000001d186c560281b8f1af831957ed5047fd3ab902f9000000000000000000000000000000000000000000000000000000000000009901000000000000001000009d4b0000000000000000000000009918889e93e8c4357a2d4bce0965dcc493fffda800009d350000000000000000000000003d2bd0e15829aa5c362a4144fdf4a1112fa29b5c8b3ec168e6a60976948cca0c44f57eee1e79353aa240323ac979b75cacc0f82200000000000000000000000021af1185734d213d45c6236146fb81e2b0e8b8210000002e90edd0000000000000000000000000000000000000000000000000000000000000000000000000000000160003010011010000000000000000000000000000fde800000000000000000000",
          "blockHash": "0xae1758ed35db889034340416c219f98c5192bbc10b2b23bc83e62c28b59eeb0e",
          "blockNumber": "0xb560b0",
          "transactionHash": "0x01b47e4e584a8fc723fbe284b6f2c164c29df773f7d0c48e84256f27e8eb1293",
          "transactionIndex": "0xd",
          "logIndex": "0x5d",
          "removed": false
        },
        {
          "address": "0x0000000000000000000000000000000000001010",
          "topics": [
            "0xe6497e3ee548a3372136af2fcb0696db31fc6cf20260707645068bd3fe97f3c4",
            "0x0000000000000000000000000000000000000000000000000000000000001010",
            "0x0000000000000000000000006edce65403992e310a62460808c4b910d972f10f",
            "0x0000000000000000000000001d186c560281b8f1af831957ed5047fd3ab902f9"
          ],
          "data": "0x00000000000000000000000000000000000000000000000007bebac684a8454e00000000000000000000000000000000000000000000000007bebac684a8454e00000000000000000000000000000000000000000000004604f8f16937f0184e00000000000000000000000000000000000000000000000000000000000000000000000000000000000000000000000000000000000000460cb7ac2fbc985d9c",
          "blockHash": "0xae1758ed35db889034340416c219f98c5192bbc10b2b23bc83e62c28b59eeb0e",
          "blockNumber": "0xb560b0",
          "transactionHash": "0x01b47e4e584a8fc723fbe284b6f2c164c29df773f7d0c48e84256f27e8eb1293",
          "transactionIndex": "0xd",
          "logIndex": "0x5e",
          "removed": false
        },
        {
          "address": "0x9918889e93e8c4357a2d4bce0965dcc493fffda8",
          "topics": [
            "0x85496b760a4b7f8d66384b9df21b381f5d1b1e79f229a47aaf4c232edc2fe59a",
            "0x8b3ec168e6a60976948cca0c44f57eee1e79353aa240323ac979b75cacc0f822",
            "0x00000000000000000000000021af1185734d213d45c6236146fb81e2b0e8b821"
          ],
          "data": "0x0000000000000000000000000000000000000000000000000000000000009d35000000000000000000000000000000000000000000002a5a058fc295ed000000000000000000000000000000000000000000000000002a5a058fc295ed000000",
          "blockHash": "0xae1758ed35db889034340416c219f98c5192bbc10b2b23bc83e62c28b59eeb0e",
          "blockNumber": "0xb560b0",
          "transactionHash": "0x01b47e4e584a8fc723fbe284b6f2c164c29df773f7d0c48e84256f27e8eb1293",
          "transactionIndex": "0xd",
          "logIndex": "0x5f",
          "removed": false
        },
        {
          "address": "0x0000000000000000000000000000000000001010",
          "topics": [
            "0x4dfe1bbbcf077ddc3e01291eea2d5c70c2b422b415d95645b9adcfd678cb1d63",
            "0x0000000000000000000000000000000000000000000000000000000000001010",
            "0x00000000000000000000000021af1185734d213d45c6236146fb81e2b0e8b821",
            "0x00000000000000000000000004ba3ef4c023c1006019a0f9baf6e70455e41fcf"
          ],
          "data": "0x0000000000000000000000000000000000000000000000000019b0d2a59881e800000000000000000000000000000000000000000000000457fc6b5f471d378f00000000000000000000000000000000000000000000012671015d88673cf9dc00000000000000000000000000000000000000000000000457e2ba8ca184b5a7000000000000000000000000000000000000000000000126711b0e5b0cd57bc4",
          "blockHash": "0xae1758ed35db889034340416c219f98c5192bbc10b2b23bc83e62c28b59eeb0e",
          "blockNumber": "0xb560b0",
          "transactionHash": "0x01b47e4e584a8fc723fbe284b6f2c164c29df773f7d0c48e84256f27e8eb1293",
          "transactionIndex": "0xd",
          "logIndex": "0x60",
          "removed": false
        }
      ],
      "logsBloom": "0x400000000000000000000000000800000000000000000000000000000000040000000000000010002000001000000000000080002000000000000000000040000000028020000000000000080000008000000000000000000001000000020000000000200000000082000010000000000000000000000000800040100040000000000000000040200000000800004000000000000000000000000000000000002000000080000000081000240000000000000800004000000004c0000000004000000002000000000001002080000000000000000008801200108000000000000002040000000000000000000000002008000000008000000000000000100000",
      "type": "0x2",
      "transactionHash": "0x01b47e4e584a8fc723fbe284b6f2c164c29df773f7d0c48e84256f27e8eb1293",
      "transactionIndex": "0xd",
      "blockHash": "0xae1758ed35db889034340416c219f98c5192bbc10b2b23bc83e62c28b59eeb0e",
      "blockNumber": "0xb560b0",
      "gasUsed": "0x394bf",
      "effectiveGasPrice": "0x72c917027",
      "from": "0x21af1185734d213d45c6236146fb81e2b0e8b821",
      "to": "0x9918889e93e8c4357a2d4bce0965dcc493fffda8",
      "contractAddress": null
    }
  ],
  "libraries": [],
  "pending": [],
  "returns": {},
  "timestamp": 1726157236,
  "chain": 80002,
  "commit": "ca84423"
}