{
  "transactions": [
    {
      "hash": "0xd888f786850ff8e5b11e148ea1d019178faee34967a6a127b2aa2b527cb5c0f7",
      "transactionType": "CALL",
      "contractName": null,
      "contractAddress": "0x28ff8e457fef9870b9d1529fe68fbb95c3181f64",
      "function": null,
      "arguments": null,
      "transaction": {
        "from": "0x21af1185734d213d45c6236146fb81e2b0e8b821",
        "to": "0x28ff8e457fef9870b9d1529fe68fbb95c3181f64",
        "gas": "0x714d",
        "value": "0xde0b6b3a7640000",
        "input": "0x",
        "nonce": "0x6f",
        "chainId": "0x13882"
      },
      "additionalContracts": [],
      "isFixedGasLimit": false
    },
    {
      "hash": "0x92df74af99cfcfdc92025b378c2a34c6ffa38a9493367f4e4f30a92513c839db",
      "transactionType": "CALL",
      "contractName": null,
      "contractAddress": "0x3d2bd0e15829aa5c362a4144fdf4a1112fa29b5c",
      "function": "approve(address,uint256)",
      "arguments": [
        "0x9918889E93e8c4357a2D4bCE0965dcC493FFFDA8",
        "100000000000000000000000"
      ],
      "transaction": {
        "from": "0x28ff8e457fef9870b9d1529fe68fbb95c3181f64",
        "to": "0x3d2bd0e15829aa5c362a4144fdf4a1112fa29b5c",
        "gas": "0xf94b",
        "value": "0x0",
        "input": "0x095ea7b30000000000000000000000009918889e93e8c4357a2d4bce0965dcc493fffda800000000000000000000000000000000000000000000152d02c7e14af6800000",
        "nonce": "0x24",
        "chainId": "0x13882"
      },
      "additionalContracts": [],
      "isFixedGasLimit": false
    },
    {
      "hash": "0x67045ac289701622fdff5263fb6fa0c019d65ba13aa90d3deb415a5f0e9a75fd",
      "transactionType": "CALL",
      "contractName": null,
      "contractAddress": "0x9918889e93e8c4357a2d4bce0965dcc493fffda8",
      "function": "send((uint32,bytes32,uint256,uint256,bytes,bytes,bytes),(uint256,uint256),address)",
      "arguments": [
        "(40305, 0x00000000000000000000000021af1185734d213d45c6236146fb81e2b0e8b821, 100000000000000000000000, 100000000000000000000000, 0x, 0x, 0x)",
        "(553972776194998416, 0)",
        "0x5b73C5498c1E3b4dbA84de0F1833c4a029d90519"
      ],
      "transaction": {
        "from": "0x28ff8e457fef9870b9d1529fe68fbb95c3181f64",
        "to": "0x9918889e93e8c4357a2d4bce0965dcc493fffda8",
        "gas": "0x5bebc",
        "value": "0x7b01b4e0c570090",
        "input": "0xc7c7f5b3000000000000000000000000000000000000000000000000000000000000008000000000000000000000000000000000000000000000000007b01b4e0c57009000000000000000000000000000000000000000000000000000000000000000000000000000000000000000005b73c5498c1e3b4dba84de0f1833c4a029d905190000000000000000000000000000000000000000000000000000000000009d7100000000000000000000000021af1185734d213d45c6236146fb81e2b0e8b82100000000000000000000000000000000000000000000152d02c7e14af680000000000000000000000000000000000000000000000000152d02c7e14af680000000000000000000000000000000000000000000000000000000000000000000e000000000000000000000000000000000000000000000000000000000000001000000000000000000000000000000000000000000000000000000000000000120000000000000000000000000000000000000000000000000000000000000000000000000000000000000000000000000000000000000000000000000000000000000000000000000000000000000000000000000000000000000000000000000",
        "nonce": "0x25",
        "chainId": "0x13882"
      },
      "additionalContracts": [],
      "isFixedGasLimit": false
    }
  ],
  "receipts": [
    {
      "status": "0x1",
      "cumulativeGasUsed": "0x5208",
      "logs": [
        {
          "address": "0x0000000000000000000000000000000000001010",
          "topics": [
            "0xe6497e3ee548a3372136af2fcb0696db31fc6cf20260707645068bd3fe97f3c4",
            "0x0000000000000000000000000000000000000000000000000000000000001010",
            "0x00000000000000000000000021af1185734d213d45c6236146fb81e2b0e8b821",
            "0x00000000000000000000000028ff8e457fef9870b9d1529fe68fbb95c3181f64"
          ],
          "data": "0x0000000000000000000000000000000000000000000000000de0b6b3a7640000000000000000000000000000000000000000000000000003f643b1bee670f7a000000000000000000000000000000000000000000000000001d40e457c494983000000000000000000000000000000000000000000000003e862fb0b3f0cf7a00000000000000000000000000000000000000000000000000fb4c4f923ad4983",
          "blockHash": "0x2c166678ad24be9523cba7683c88cabfd4d72d6634fea5fd00449136c2f67587",
          "blockNumber": "0xbe1e33",
          "transactionHash": "0xd888f786850ff8e5b11e148ea1d019178faee34967a6a127b2aa2b527cb5c0f7",
          "transactionIndex": "0x0",
          "logIndex": "0x0",
          "removed": false
        },
        {
          "address": "0x0000000000000000000000000000000000001010",
          "topics": [
            "0x4dfe1bbbcf077ddc3e01291eea2d5c70c2b422b415d95645b9adcfd678cb1d63",
            "0x0000000000000000000000000000000000000000000000000000000000001010",
            "0x00000000000000000000000021af1185734d213d45c6236146fb81e2b0e8b821",
            "0x0000000000000000000000004631753190f2f5a15a7ba172bbac102b7d95fa22"
          ],
          "data": "0x0000000000000000000000000000000000000000000000000002468806f7f7c0000000000000000000000000000000000000000000000003f646d6551c772dbb0000000000000000000000000000000000000000000001dfb3b9725e421f4072000000000000000000000000000000000000000000000003f6448fcd157f35fb0000000000000000000000000000000000000000000001dfb3bbb8e649173832",
          "blockHash": "0x2c166678ad24be9523cba7683c88cabfd4d72d6634fea5fd00449136c2f67587",
          "blockNumber": "0xbe1e33",
          "transactionHash": "0xd888f786850ff8e5b11e148ea1d019178faee34967a6a127b2aa2b527cb5c0f7",
          "transactionIndex": "0x0",
          "logIndex": "0x1",
          "removed": false
        }
      ],
      "logsBloom": "0x00000000000000000000000000080000000000002000000000000000000040000000000000000000000000100000000000008000000000000000000040000000000000000000000000000000000000800000000000000000000100000000000000000000000000100000000000000000000000000000000080004000000000000000000000000000000000000000000000000000000000000000000000000000200000000000000000000000000000000000000000000000000080800000004000000000000000008001000000000000000000000000800000108000000000000000000000000000000000000000000000000000000000000000000000100000",
      "type": "0x2",
      "transactionHash": "0xd888f786850ff8e5b11e148ea1d019178faee34967a6a127b2aa2b527cb5c0f7",
      "transactionIndex": "0x0",
      "blockHash": "0x2c166678ad24be9523cba7683c88cabfd4d72d6634fea5fd00449136c2f67587",
      "blockNumber": "0xbe1e33",
      "gasUsed": "0x5208",
      "effectiveGasPrice": "0x719f11107",
      "from": "0x21af1185734d213d45c6236146fb81e2b0e8b821",
      "to": "0x28ff8e457fef9870b9d1529fe68fbb95c3181f64",
      "contractAddress": null
    },
    {
      "status": "0x1",
      "cumulativeGasUsed": "0x7fb22",
      "logs": [
        {
          "address": "0x3d2bd0e15829aa5c362a4144fdf4a1112fa29b5c",
          "topics": [
            "0x8c5be1e5ebec7d5bd14f71427d1e84f3dd0314c0f7b2291e5b200ac8c7c3b925",
            "0x00000000000000000000000028ff8e457fef9870b9d1529fe68fbb95c3181f64",
            "0x0000000000000000000000009918889e93e8c4357a2d4bce0965dcc493fffda8"
          ],
          "data": "0x00000000000000000000000000000000000000000000152d02c7e14af6800000",
          "blockHash": "0x635720f7cb8d7a4fb2443813ece0c5816146593385e9f5a1fe4e01bc7a9db0d0",
          "blockNumber": "0xbe1e37",
          "transactionHash": "0x92df74af99cfcfdc92025b378c2a34c6ffa38a9493367f4e4f30a92513c839db",
          "transactionIndex": "0x1",
          "logIndex": "0x1",
          "removed": false
        },
        {
          "address": "0x0000000000000000000000000000000000001010",
          "topics": [
            "0x4dfe1bbbcf077ddc3e01291eea2d5c70c2b422b415d95645b9adcfd678cb1d63",
            "0x0000000000000000000000000000000000000000000000000000000000001010",
            "0x00000000000000000000000028ff8e457fef9870b9d1529fe68fbb95c3181f64",
            "0x0000000000000000000000004631753190f2f5a15a7ba172bbac102b7d95fa22"
          ],
          "data": "0x000000000000000000000000000000000000000000000000000501b52aa3a9180000000000000000000000000000000000000000000000000fb4c4f923ad49830000000000000000000000000000000000000000000001dfb42fba0132dc8b4c0000000000000000000000000000000000000000000000000fafc343f909a06b0000000000000000000000000000000000000000000001dfb434bbb65d803464",
          "blockHash": "0x635720f7cb8d7a4fb2443813ece0c5816146593385e9f5a1fe4e01bc7a9db0d0",
          "blockNumber": "0xbe1e37",
          "transactionHash": "0x92df74af99cfcfdc92025b378c2a34c6ffa38a9493367f4e4f30a92513c839db",
          "transactionIndex": "0x1",
          "logIndex": "0x2",
          "removed": false
        }
      ],
      "logsBloom": "0x40000000000000000000000000000000000000002000000000000000000040000000000000001000000000000000000000008000000000000000000040200000000000002000000000000000000000800000000000000000000100000000000000000020000000100000000000000000000000000000000080000000000000000000000000000000000000000000000000000000000000000000000000000000220000000000000008000000000000000000000000000000000000800000004000000000000000008001000000000000000000000000000000100000000000000012000000000000000000000000000000000000000000000000000000100000",
      "type": "0x2",
      "transactionHash": "0x92df74af99cfcfdc92025b378c2a34c6ffa38a9493367f4e4f30a92513c839db",
      "transactionIndex": "0x1",
      "blockHash": "0x635720f7cb8d7a4fb2443813ece0c5816146593385e9f5a1fe4e01bc7a9db0d0",
      "blockNumber": "0xbe1e37",
      "gasUsed": "0xb47d",
      "effectiveGasPrice": "0x719f11107",
      "from": "0x28ff8e457fef9870b9d1529fe68fbb95c3181f64",
      "to": "0x3d2bd0e15829aa5c362a4144fdf4a1112fa29b5c",
      "contractAddress": null
    },
    {
      "status": "0x1",
      "cumulativeGasUsed": "0x3eda2",
      "logs": [
        {
          "address": "0x0000000000000000000000000000000000001010",
          "topics": [
            "0xe6497e3ee548a3372136af2fcb0696db31fc6cf20260707645068bd3fe97f3c4",
            "0x0000000000000000000000000000000000000000000000000000000000001010",
            "0x00000000000000000000000028ff8e457fef9870b9d1529fe68fbb95c3181f64",
            "0x0000000000000000000000009918889e93e8c4357a2d4bce0965dcc493fffda8"
          ],
          "data": "0x00000000000000000000000000000000000000000000000007b01b4e0c5700900000000000000000000000000000000000000000000000000f86f716ac3059f4000000000000000000000000000000000000000000000000000000000000000000000000000000000000000000000000000000000000000007d6dbc89fd9596400000000000000000000000000000000000000000000000007b01b4e0c570090",
          "blockHash": "0x8b65a31488b2f14e96dba317616c4bdafa60365252e386e63b3b14ef88457332",
          "blockNumber": "0xbe1e3b",
          "transactionHash": "0x67045ac289701622fdff5263fb6fa0c019d65ba13aa90d3deb415a5f0e9a75fd",
          "transactionIndex": "0x0",
          "logIndex": "0x0",
          "removed": false
        },
        {
          "address": "0xe9d2fa815b95a9d087862a09079549f351dab9bd",
          "topics": [
            "0xddf252ad1be2c89b69c2b068fc378daa952ba7f163c4a11628f55a4df523b3ef",
            "0x00000000000000000000000028ff8e457fef9870b9d1529fe68fbb95c3181f64",
            "0x0000000000000000000000000000000000000000000000000000000000000000",
            "0x000000000000000000000000000000000000000000000000000000000000006d"
          ],
          "data": "0x",
          "blockHash": "0x8b65a31488b2f14e96dba317616c4bdafa60365252e386e63b3b14ef88457332",
          "blockNumber": "0xbe1e3b",
          "transactionHash": "0x67045ac289701622fdff5263fb6fa0c019d65ba13aa90d3deb415a5f0e9a75fd",
          "transactionIndex": "0x0",
          "logIndex": "0x1",
          "removed": false
        },
        {
          "address": "0x3d2bd0e15829aa5c362a4144fdf4a1112fa29b5c",
          "topics": [
            "0xddf252ad1be2c89b69c2b068fc378daa952ba7f163c4a11628f55a4df523b3ef",
            "0x00000000000000000000000028ff8e457fef9870b9d1529fe68fbb95c3181f64",
            "0x0000000000000000000000009918889e93e8c4357a2d4bce0965dcc493fffda8"
          ],
          "data": "0x00000000000000000000000000000000000000000000152d02c7e14af6800000",
          "blockHash": "0x8b65a31488b2f14e96dba317616c4bdafa60365252e386e63b3b14ef88457332",
          "blockNumber": "0xbe1e3b",
          "transactionHash": "0x67045ac289701622fdff5263fb6fa0c019d65ba13aa90d3deb415a5f0e9a75fd",
          "transactionIndex": "0x0",
          "logIndex": "0x2",
          "removed": false
        },
        {
          "address": "0x0000000000000000000000000000000000001010",
          "topics": [
            "0xe6497e3ee548a3372136af2fcb0696db31fc6cf20260707645068bd3fe97f3c4",
            "0x0000000000000000000000000000000000000000000000000000000000001010",
            "0x0000000000000000000000009918889e93e8c4357a2d4bce0965dcc493fffda8",
            "0x0000000000000000000000006edce65403992e310a62460808c4b910d972f10f"
          ],
          "data": "0x00000000000000000000000000000000000000000000000007b01b4e0c57009000000000000000000000000000000000000000000000000007b01b4e0c5700900000000000000000000000000000000000000000000000000000000000000000000000000000000000000000000000000000000000000000000000000000000000000000000000000000000000000000000000000000000007b01b4e0c570090",
          "blockHash": "0x8b65a31488b2f14e96dba317616c4bdafa60365252e386e63b3b14ef88457332",
          "blockNumber": "0xbe1e3b",
          "transactionHash": "0x67045ac289701622fdff5263fb6fa0c019d65ba13aa90d3deb415a5f0e9a75fd",
          "transactionIndex": "0x0",
          "logIndex": "0x3",
          "removed": false
        },
        {
          "address": "0x1d186c560281b8f1af831957ed5047fd3ab902f9",
          "topics": [
            "0x61ed099e74a97a1d7f8bb0952a88ca8b7b8ebd00c126ea04671f92a81213318a"
          ],
          "data": "0x0000000000000000000000004cf1b3fa61465c2c907f82fc488b43223ba0cf9300000000000000000000000000000000000000000000000007526325c29c008a",
          "blockHash": "0x8b65a31488b2f14e96dba317616c4bdafa60365252e386e63b3b14ef88457332",
          "blockNumber": "0xbe1e3b",
          "transactionHash": "0x67045ac289701622fdff5263fb6fa0c019d65ba13aa90d3deb415a5f0e9a75fd",
          "transactionIndex": "0x0",
          "logIndex": "0x4",
          "removed": false
        },
        {
          "address": "0x1d186c560281b8f1af831957ed5047fd3ab902f9",
          "topics": [
            "0x07ea52d82345d6e838192107d8fd7123d9c2ec8e916cd0aad13fd2b60db24644"
          ],
          "data": "0x000000000000000000000000000000000000000000000000000000000000006000000000000000000000000000000000000000000000000000000000000000a000000000000000000000000000000000000000000000000000000000000000c0000000000000000000000000000000000000000000000000000000000000000100000000000000000000000055c175dd5b039331db251424538169d8495c18d100000000000000000000000000000000000000000000000000000000000000000000000000000000000000000000000000000000000000000000000000000001000000000000000000000000000000000000000000000000005db82849bb0006",
          "blockHash": "0x8b65a31488b2f14e96dba317616c4bdafa60365252e386e63b3b14ef88457332",
          "blockNumber": "0xbe1e3b",
          "transactionHash": "0x67045ac289701622fdff5263fb6fa0c019d65ba13aa90d3deb415a5f0e9a75fd",
          "transactionIndex": "0x0",
          "logIndex": "0x5",
          "removed": false
        },
        {
          "address": "0x6edce65403992e310a62460808c4b910d972f10f",
          "topics": [
            "0x1ab700d4ced0c005b164c0f789fd09fcbb0156d4c2041b8a3bfbcd961cd1567f"
          ],
          "data": "0x000000000000000000000000000000000000000000000000000000000000006000000000000000000000000000000000000000000000000000000000000001200000000000000000000000001d186c560281b8f1af831957ed5047fd3ab902f9000000000000000000000000000000000000000000000000000000000000009901000000000000001100009d4b0000000000000000000000009918889e93e8c4357a2d4bce0965dcc493fffda800009d71000000000000000000000000b0588f9a9cade7cd5f194a5fe77acd6a58250f82de5043e95ea9153606350b19b276ce84a2e299404e510346e80d39fc146a372900000000000000000000000021af1185734d213d45c6236146fb81e2b0e8b821000000174876e8000000000000000000000000000000000000000000000000000000000000000000000000000000160003010011010000000000000000000000000001388000000000000000000000",
          "blockHash": "0x8b65a31488b2f14e96dba317616c4bdafa60365252e386e63b3b14ef88457332",
          "blockNumber": "0xbe1e3b",
          "transactionHash": "0x67045ac289701622fdff5263fb6fa0c019d65ba13aa90d3deb415a5f0e9a75fd",
          "transactionIndex": "0x0",
          "logIndex": "0x6",
          "removed": false
        },
        {
          "address": "0x0000000000000000000000000000000000001010",
          "topics": [
            "0xe6497e3ee548a3372136af2fcb0696db31fc6cf20260707645068bd3fe97f3c4",
            "0x0000000000000000000000000000000000000000000000000000000000001010",
            "0x0000000000000000000000006edce65403992e310a62460808c4b910d972f10f",
            "0x0000000000000000000000001d186c560281b8f1af831957ed5047fd3ab902f9"
          ],
          "data": "0x00000000000000000000000000000000000000000000000007b01b4e0c57009000000000000000000000000000000000000000000000000007b01b4e0c5700900000000000000000000000000000000000000000000000486db52583c0d7560c0000000000000000000000000000000000000000000000000000000000000000000000000000000000000000000000000000000000000048756540d1cd2e569c",
          "blockHash": "0x8b65a31488b2f14e96dba317616c4bdafa60365252e386e63b3b14ef88457332",
          "blockNumber": "0xbe1e3b",
          "transactionHash": "0x67045ac289701622fdff5263fb6fa0c019d65ba13aa90d3deb415a5f0e9a75fd",
          "transactionIndex": "0x0",
          "logIndex": "0x7",
          "removed": false
        },
        {
          "address": "0x9918889e93e8c4357a2d4bce0965dcc493fffda8",
          "topics": [
            "0x85496b760a4b7f8d66384b9df21b381f5d1b1e79f229a47aaf4c232edc2fe59a",
            "0xde5043e95ea9153606350b19b276ce84a2e299404e510346e80d39fc146a3729",
            "0x00000000000000000000000028ff8e457fef9870b9d1529fe68fbb95c3181f64"
          ],
          "data": "0x0000000000000000000000000000000000000000000000000000000000009d7100000000000000000000000000000000000000000000152d02c7e14af680000000000000000000000000000000000000000000000000152d02c7e14af6800000",
          "blockHash": "0x8b65a31488b2f14e96dba317616c4bdafa60365252e386e63b3b14ef88457332",
          "blockNumber": "0xbe1e3b",
          "transactionHash": "0x67045ac289701622fdff5263fb6fa0c019d65ba13aa90d3deb415a5f0e9a75fd",
          "transactionIndex": "0x0",
          "logIndex": "0x8",
          "removed": false
        },
        {
          "address": "0x0000000000000000000000000000000000001010",
          "topics": [
            "0x4dfe1bbbcf077ddc3e01291eea2d5c70c2b422b415d95645b9adcfd678cb1d63",
            "0x0000000000000000000000000000000000000000000000000000000000001010",
            "0x00000000000000000000000028ff8e457fef9870b9d1529fe68fbb95c3181f64",
            "0x0000000000000000000000004631753190f2f5a15a7ba172bbac102b7d95fa22"
          ],
          "data": "0x000000000000000000000000000000000000000000000000001be555ca2a54f00000000000000000000000000000000000000000000000000fafc343f8ff0d180000000000000000000000000000000000000000000001dfb4425dd5324c9ff00000000000000000000000000000000000000000000000000f93ddee2ed4b8280000000000000000000000000000000000000000000001dfb45e432afc76f4e0",
          "blockHash": "0x8b65a31488b2f14e96dba317616c4bdafa60365252e386e63b3b14ef88457332",
          "blockNumber": "0xbe1e3b",
          "transactionHash": "0x67045ac289701622fdff5263fb6fa0c019d65ba13aa90d3deb415a5f0e9a75fd",
          "transactionIndex": "0x0",
          "logIndex": "0x9",
          "removed": false
        }
      ],
      "logsBloom": "0x4000000000000000000000000000000000000000200000000000000000004000000000000040100020000010000000000000a000000000000000000040104000000002802000000000000008000000800000000000000000000108000002000000000020020000108200001000000800000000000000000080000010000000000000000002000020000000080000000000000000000000000000000000000000200000008000000008140024000000000000080000400000000440800000004000000002000000008001002080000000000000000008801200108000000020000002040000000000000000000000002018000000008000000100000000100040",
      "type": "0x2",
      "transactionHash": "0x67045ac289701622fdff5263fb6fa0c019d65ba13aa90d3deb415a5f0e9a75fd",
      "transactionIndex": "0x0",
      "blockHash": "0x8b65a31488b2f14e96dba317616c4bdafa60365252e386e63b3b14ef88457332",
      "blockNumber": "0xbe1e3b",
      "gasUsed": "0x3eda2",
      "effectiveGasPrice": "0x719f11107",
      "from": "0x28ff8e457fef9870b9d1529fe68fbb95c3181f64",
      "to": "0x9918889e93e8c4357a2d4bce0965dcc493fffda8",
      "contractAddress": null
    }
  ],
  "libraries": [],
  "pending": [],
  "returns": {},
  "timestamp": 1727389573,
  "chain": 80002,
  "commit": "ca84423"
}