{
  "transactions": [
    {
      "hash": "0x9d412fd8cbe70a4de672e09a641006926bf98a37d5c05c91a9b9d41591954215",
      "transactionType": "CALL",
      "contractName": null,
      "contractAddress": "0x3d2bd0e15829aa5c362a4144fdf4a1112fa29b5c",
      "function": "approve(address,uint256)",
      "arguments": [
        "0x9918889E93e8c4357a2D4bCE0965dcC493FFFDA8",
        "100000000000000000000"
      ],
      "transaction": {
        "from": "0x21af1185734d213d45c6236146fb81e2b0e8b821",
        "to": "0x3d2bd0e15829aa5c362a4144fdf4a1112fa29b5c",
        "gas": "0x107e5",
        "value": "0x0",
        "input": "0x095ea7b30000000000000000000000009918889e93e8c4357a2d4bce0965dcc493fffda80000000000000000000000000000000000000000000000056bc75e2d63100000",
        "nonce": "0x17",
        "chainId": "0x13882"
      },
      "additionalContracts": [],
      "isFixedGasLimit": false
    },
    {
      "hash": "0x621eced6c933a8bf674401d898a1b9d787982f782b7742136e2257137741d09a",
      "transactionType": "CALL",
      "contractName": null,
      "contractAddress": "0x9918889e93e8c4357a2d4bce0965dcc493fffda8",
      "function": "send((uint32,bytes32,uint256,uint256,bytes,bytes,bytes),(uint256,uint256),address)",
      "arguments": [
        "(40245, 0x00000000000000000000000021af1185734d213d45c6236146fb81e2b0e8b821, 100000000000000000000, 100000000000000000000, 0x, 0x, 0x)",
        "(417409973362199505, 0)",
        "0x5b73C5498c1E3b4dbA84de0F1833c4a029d90519"
      ],
      "transaction": {
        "from": "0x21af1185734d213d45c6236146fb81e2b0e8b821",
        "to": "0x9918889e93e8c4357a2d4bce0965dcc493fffda8",
        "gas": "0x59e6e",
        "value": "0x5caf028c3f58bd1",
        "input": "0xc7c7f5b3000000000000000000000000000000000000000000000000000000000000008000000000000000000000000000000000000000000000000005caf028c3f58bd100000000000000000000000000000000000000000000000000000000000000000000000000000000000000005b73c5498c1e3b4dba84de0f1833c4a029d905190000000000000000000000000000000000000000000000000000000000009d3500000000000000000000000021af1185734d213d45c6236146fb81e2b0e8b8210000000000000000000000000000000000000000000000056bc75e2d631000000000000000000000000000000000000000000000000000056bc75e2d6310000000000000000000000000000000000000000000000000000000000000000000e000000000000000000000000000000000000000000000000000000000000001000000000000000000000000000000000000000000000000000000000000000120000000000000000000000000000000000000000000000000000000000000000000000000000000000000000000000000000000000000000000000000000000000000000000000000000000000000000000000000000000000000000000000000",
        "nonce": "0x18",
        "chainId": "0x13882"
      },
      "additionalContracts": [],
      "isFixedGasLimit": false
    }
  ],
  "receipts": [
    {
      "status": "0x1",
      "cumulativeGasUsed": "0xb471",
      "logs": [
        {
          "address": "0x3d2bd0e15829aa5c362a4144fdf4a1112fa29b5c",
          "topics": [
            "0x8c5be1e5ebec7d5bd14f71427d1e84f3dd0314c0f7b2291e5b200ac8c7c3b925",
            "0x00000000000000000000000021af1185734d213d45c6236146fb81e2b0e8b821",
            "0x0000000000000000000000009918889e93e8c4357a2d4bce0965dcc493fffda8"
          ],
          "data": "0x0000000000000000000000000000000000000000000000056bc75e2d63100000",
          "blockHash": "0xe06aaff5a3dab5624f38a2964029a88bc39ddaea400523280dc1ca1dec3bf286",
          "blockNumber": "0xab0af9",
          "transactionHash": "0x9d412fd8cbe70a4de672e09a641006926bf98a37d5c05c91a9b9d41591954215",
          "transactionIndex": "0x0",
          "logIndex": "0x0",
          "removed": false
        },
        {
          "address": "0x0000000000000000000000000000000000001010",
          "topics": [
            "0x4dfe1bbbcf077ddc3e01291eea2d5c70c2b422b415d95645b9adcfd678cb1d63",
            "0x0000000000000000000000000000000000000000000000000000000000001010",
            "0x00000000000000000000000021af1185734d213d45c6236146fb81e2b0e8b821",
            "0x00000000000000000000000093feed2cc3d58c2b1bb62ce63125fa7fcaae7177"
          ],
          "data": "0x0000000000000000000000000000000000000000000000000004b97b668ff7b40000000000000000000000000000000000000000000000000709d597e5bd07a4000000000000000000000000000000000000000000000008e601f2efde5961c200000000000000000000000000000000000000000000000007051c1c7f2d0ff0000000000000000000000000000000000000000000000008e606ac6b44e95976",
          "blockHash": "0xe06aaff5a3dab5624f38a2964029a88bc39ddaea400523280dc1ca1dec3bf286",
          "blockNumber": "0xab0af9",
          "transactionHash": "0x9d412fd8cbe70a4de672e09a641006926bf98a37d5c05c91a9b9d41591954215",
          "transactionIndex": "0x0",
          "logIndex": "0x1",
          "removed": false
        }
      ],
      "logsBloom": "0x40000000000000000000000000080000000000000000000000000000000000000000000000001000000000000000000000008000000000000000000000200000000000002000000004000000000000800000000000000000000100000000000000000020000000000000000000000000000000000000000080004000000000000000000000000000000000000000000000000000000000000000040000000000220000000400000008000000000000000000000000000000000080000000004000000000000000000001000000000000000000000000000000100000000000000012000000000000000000000000000000000000000000000000000000100000",
      "type": "0x2",
      "transactionHash": "0x9d412fd8cbe70a4de672e09a641006926bf98a37d5c05c91a9b9d41591954215",
      "transactionIndex": "0x0",
      "blockHash": "0xe06aaff5a3dab5624f38a2964029a88bc39ddaea400523280dc1ca1dec3bf286",
      "blockNumber": "0xab0af9",
      "gasUsed": "0xb471",
      "effectiveGasPrice": "0x6b3f1bd03",
      "from": "0x21af1185734d213d45c6236146fb81e2b0e8b821",
      "to": "0x3d2bd0e15829aa5c362a4144fdf4a1112fa29b5c",
      "contractAddress": null
    },
    {
      "status": "0x1",
      "cumulativeGasUsed": "0x48bfc",
      "logs": [
        {
          "address": "0x0000000000000000000000000000000000001010",
          "topics": [
            "0xe6497e3ee548a3372136af2fcb0696db31fc6cf20260707645068bd3fe97f3c4",
            "0x0000000000000000000000000000000000000000000000000000000000001010",
            "0x00000000000000000000000021af1185734d213d45c6236146fb81e2b0e8b821",
            "0x0000000000000000000000009918889e93e8c4357a2d4bce0965dcc493fffda8"
          ],
          "data": "0x00000000000000000000000000000000000000000000000005caf028c3f58bd100000000000000000000000000000000000000000000000006df7273498c6c0700000000000000000000000000000000000000000000000000000000000000000000000000000000000000000000000000000000000000000114824a8596e03600000000000000000000000000000000000000000000000005caf028c3f58bd1",
          "blockHash": "0xe06aaff5a3dab5624f38a2964029a88bc39ddaea400523280dc1ca1dec3bf286",
          "blockNumber": "0xab0af9",
          "transactionHash": "0x621eced6c933a8bf674401d898a1b9d787982f782b7742136e2257137741d09a",
          "transactionIndex": "0x1",
          "logIndex": "0x2",
          "removed": false
        },
        {
          "address": "0x3d2bd0e15829aa5c362a4144fdf4a1112fa29b5c",
          "topics": [
            "0xddf252ad1be2c89b69c2b068fc378daa952ba7f163c4a11628f55a4df523b3ef",
            "0x00000000000000000000000021af1185734d213d45c6236146fb81e2b0e8b821",
            "0x0000000000000000000000009918889e93e8c4357a2d4bce0965dcc493fffda8"
          ],
          "data": "0x0000000000000000000000000000000000000000000000056bc75e2d63100000",
          "blockHash": "0xe06aaff5a3dab5624f38a2964029a88bc39ddaea400523280dc1ca1dec3bf286",
          "blockNumber": "0xab0af9",
          "transactionHash": "0x621eced6c933a8bf674401d898a1b9d787982f782b7742136e2257137741d09a",
          "transactionIndex": "0x1",
          "logIndex": "0x3",
          "removed": false
        },
        {
          "address": "0x0000000000000000000000000000000000001010",
          "topics": [
            "0xe6497e3ee548a3372136af2fcb0696db31fc6cf20260707645068bd3fe97f3c4",
            "0x0000000000000000000000000000000000000000000000000000000000001010",
            "0x0000000000000000000000009918889e93e8c4357a2d4bce0965dcc493fffda8",
            "0x0000000000000000000000006edce65403992e310a62460808c4b910d972f10f"
          ],
          "data": "0x00000000000000000000000000000000000000000000000005caf028c3f58bd100000000000000000000000000000000000000000000000005caf028c3f58bd10000000000000000000000000000000000000000000000000000000000000000000000000000000000000000000000000000000000000000000000000000000000000000000000000000000000000000000000000000000005caf028c3f58bd1",
          "blockHash": "0xe06aaff5a3dab5624f38a2964029a88bc39ddaea400523280dc1ca1dec3bf286",
          "blockNumber": "0xab0af9",
          "transactionHash": "0x621eced6c933a8bf674401d898a1b9d787982f782b7742136e2257137741d09a",
          "transactionIndex": "0x1",
          "logIndex": "0x4",
          "removed": false
        },
        {
          "address": "0x1d186c560281b8f1af831957ed5047fd3ab902f9",
          "topics": [
            "0x61ed099e74a97a1d7f8bb0952a88ca8b7b8ebd00c126ea04671f92a81213318a"
          ],
          "data": "0x0000000000000000000000004cf1b3fa61465c2c907f82fc488b43223ba0cf930000000000000000000000000000000000000000000000000573893aa096ba9c",
          "blockHash": "0xe06aaff5a3dab5624f38a2964029a88bc39ddaea400523280dc1ca1dec3bf286",
          "blockNumber": "0xab0af9",
          "transactionHash": "0x621eced6c933a8bf674401d898a1b9d787982f782b7742136e2257137741d09a",
          "transactionIndex": "0x1",
          "logIndex": "0x5",
          "removed": false
        },
        {
          "address": "0x1d186c560281b8f1af831957ed5047fd3ab902f9",
          "topics": [
            "0x07ea52d82345d6e838192107d8fd7123d9c2ec8e916cd0aad13fd2b60db24644"
          ],
          "data": "0x000000000000000000000000000000000000000000000000000000000000006000000000000000000000000000000000000000000000000000000000000000a000000000000000000000000000000000000000000000000000000000000000c0000000000000000000000000000000000000000000000000000000000000000100000000000000000000000055c175dd5b039331db251424538169d8495c18d100000000000000000000000000000000000000000000000000000000000000000000000000000000000000000000000000000000000000000000000000000001000000000000000000000000000000000000000000000000005766ee235ed135",
          "blockHash": "0xe06aaff5a3dab5624f38a2964029a88bc39ddaea400523280dc1ca1dec3bf286",
          "blockNumber": "0xab0af9",
          "transactionHash": "0x621eced6c933a8bf674401d898a1b9d787982f782b7742136e2257137741d09a",
          "transactionIndex": "0x1",
          "logIndex": "0x6",
          "removed": false
        },
        {
          "address": "0x6edce65403992e310a62460808c4b910d972f10f",
          "topics": [
            "0x1ab700d4ced0c005b164c0f789fd09fcbb0156d4c2041b8a3bfbcd961cd1567f"
          ],
          "data": "0x000000000000000000000000000000000000000000000000000000000000006000000000000000000000000000000000000000000000000000000000000001200000000000000000000000001d186c560281b8f1af831957ed5047fd3ab902f9000000000000000000000000000000000000000000000000000000000000009901000000000000000100009d4b0000000000000000000000009918889e93e8c4357a2d4bce0965dcc493fffda800009d350000000000000000000000003d2bd0e15829aa5c362a4144fdf4a1112fa29b5c308dde239bf196fa2fd71d538fd0433da1e221d9cc8fbd887beac62a61f8d80900000000000000000000000021af1185734d213d45c6236146fb81e2b0e8b8210000000005f5e1000000000000000000000000000000000000000000000000000000000000000000000000000000160003010011010000000000000000000000000000fde800000000000000000000",
          "blockHash": "0xe06aaff5a3dab5624f38a2964029a88bc39ddaea400523280dc1ca1dec3bf286",
          "blockNumber": "0xab0af9",
          "transactionHash": "0x621eced6c933a8bf674401d898a1b9d787982f782b7742136e2257137741d09a",
          "transactionIndex": "0x1",
          "logIndex": "0x7",
          "removed": false
        },
        {
          "address": "0x0000000000000000000000000000000000001010",
          "topics": [
            "0xe6497e3ee548a3372136af2fcb0696db31fc6cf20260707645068bd3fe97f3c4",
            "0x0000000000000000000000000000000000000000000000000000000000001010",
            "0x0000000000000000000000006edce65403992e310a62460808c4b910d972f10f",
            "0x0000000000000000000000001d186c560281b8f1af831957ed5047fd3ab902f9"
          ],
          "data": "0x00000000000000000000000000000000000000000000000005caf028c3f58bd100000000000000000000000000000000000000000000000005caf028c3f58bd10000000000000000000000000000000000000000000000404b10dec22618e8e2000000000000000000000000000000000000000000000000000000000000000000000000000000000000000000000000000000000000004050dbceeaea0e74b3",
          "blockHash": "0xe06aaff5a3dab5624f38a2964029a88bc39ddaea400523280dc1ca1dec3bf286",
          "blockNumber": "0xab0af9",
          "transactionHash": "0x621eced6c933a8bf674401d898a1b9d787982f782b7742136e2257137741d09a",
          "transactionIndex": "0x1",
          "logIndex": "0x8",
          "removed": false
        },
        {
          "address": "0x9918889e93e8c4357a2d4bce0965dcc493fffda8",
          "topics": [
            "0x85496b760a4b7f8d66384b9df21b381f5d1b1e79f229a47aaf4c232edc2fe59a",
            "0x308dde239bf196fa2fd71d538fd0433da1e221d9cc8fbd887beac62a61f8d809",
            "0x00000000000000000000000021af1185734d213d45c6236146fb81e2b0e8b821"
          ],
          "data": "0x0000000000000000000000000000000000000000000000000000000000009d350000000000000000000000000000000000000000000000056bc75e2d631000000000000000000000000000000000000000000000000000056bc75e2d63100000",
          "blockHash": "0xe06aaff5a3dab5624f38a2964029a88bc39ddaea400523280dc1ca1dec3bf286",
          "blockNumber": "0xab0af9",
          "transactionHash": "0x621eced6c933a8bf674401d898a1b9d787982f782b7742136e2257137741d09a",
          "transactionIndex": "0x1",
          "logIndex": "0x9",
          "removed": false
        },
        {
          "address": "0x0000000000000000000000000000000000001010",
          "topics": [
            "0x4dfe1bbbcf077ddc3e01291eea2d5c70c2b422b415d95645b9adcfd678cb1d63",
            "0x0000000000000000000000000000000000000000000000000000000000001010",
            "0x00000000000000000000000021af1185734d213d45c6236146fb81e2b0e8b821",
            "0x00000000000000000000000093feed2cc3d58c2b1bb62ce63125fa7fcaae7177"
          ],
          "data": "0x0000000000000000000000000000000000000000000000000019c098f0ce847c00000000000000000000000000000000000000000000000007051c1c7f227d51000000000000000000000000000000000000000000000008e606ac6b44e9597600000000000000000000000000000000000000000000000006eb5b838e53f8d5000000000000000000000000000000000000000000000008e6206d0435b7ddf2",
          "blockHash": "0xe06aaff5a3dab5624f38a2964029a88bc39ddaea400523280dc1ca1dec3bf286",
          "blockNumber": "0xab0af9",
          "transactionHash": "0x621eced6c933a8bf674401d898a1b9d787982f782b7742136e2257137741d09a",
          "transactionIndex": "0x1",
          "logIndex": "0xa",
          "removed": false
        }
      ],
      "logsBloom": "0x400000000000000000000000000800000000000000000000000000000000000000000000000010002000001000000000000080000000000000000000000040080000028020000000040000080000008000000000000000000001000000020000000000200000000082000010400000000000000000000000800040100000000000000000000000200000000800000000000000000000000000000400000000002000000084000000081000240000000000000800004000000004c0000000004000000002000000000001002080000000000000000008801200108000000000000002040000000000000000000040002008000000008000000000000000100000",
      "type": "0x2",
      "transactionHash": "0x621eced6c933a8bf674401d898a1b9d787982f782b7742136e2257137741d09a",
      "transactionIndex": "0x1",
      "blockHash": "0xe06aaff5a3dab5624f38a2964029a88bc39ddaea400523280dc1ca1dec3bf286",
      "blockNumber": "0xab0af9",
      "gasUsed": "0x3d78b",
      "effectiveGasPrice": "0x6b3f1bd03",
      "from": "0x21af1185734d213d45c6236146fb81e2b0e8b821",
      "to": "0x9918889e93e8c4357a2d4bce0965dcc493fffda8",
      "contractAddress": null
    }
  ],
  "libraries": [],
  "pending": [],
  "returns": {},
  "timestamp": 1724712576,
  "chain": 80002,
  "commit": "73dba9d"
}