{
  "transactions": [
    {
      "hash": "0x956e206eb28d83834552d072e5a029db4534a611d9fdff1f73c56cb55664526c",
      "transactionType": "CALL",
      "contractName": null,
      "contractAddress": "0x3d2bd0e15829aa5c362a4144fdf4a1112fa29b5c",
      "function": "approve(address,uint256)",
      "arguments": [
        "0x9918889E93e8c4357a2D4bCE0965dcC493FFFDA8",
        "100000000000000000000000"
      ],
      "transaction": {
        "from": "0x21af1185734d213d45c6236146fb81e2b0e8b821",
        "to": "0x3d2bd0e15829aa5c362a4144fdf4a1112fa29b5c",
        "gas": "0xf94b",
        "value": "0x0",
        "input": "0x095ea7b30000000000000000000000009918889e93e8c4357a2d4bce0965dcc493fffda800000000000000000000000000000000000000000000152d02c7e14af6800000",
        "nonce": "0x28",
        "chainId": "0x13882"
      },
      "additionalContracts": [],
      "isFixedGasLimit": false
    },
    {
      "hash": "0xc289f3b3a17ef227deb0f656992f4e854d06f4b5241353cdeea5668b8beffe9a",
      "transactionType": "CALL",
      "contractName": null,
      "contractAddress": "0x9918889e93e8c4357a2d4bce0965dcc493fffda8",
      "function": "send((uint32,bytes32,uint256,uint256,bytes,bytes,bytes),(uint256,uint256),address)",
      "arguments": [
        "(40305, 0x00000000000000000000000021af1185734d213d45c6236146fb81e2b0e8b821, 100000000000000000000000, 100000000000000000000000, 0x, 0x, 0x)",
        "(499274862699412756, 0)",
        "0x5b73C5498c1E3b4dbA84de0F1833c4a029d90519"
      ],
      "transaction": {
        "from": "0x21af1185734d213d45c6236146fb81e2b0e8b821",
        "to": "0x9918889e93e8c4357a2d4bce0965dcc493fffda8",
        "gas": "0x4f262",
        "value": "0x6edc7d7a47afd14",
        "input": "0xc7c7f5b3000000000000000000000000000000000000000000000000000000000000008000000000000000000000000000000000000000000000000006edc7d7a47afd1400000000000000000000000000000000000000000000000000000000000000000000000000000000000000005b73c5498c1e3b4dba84de0f1833c4a029d905190000000000000000000000000000000000000000000000000000000000009d7100000000000000000000000021af1185734d213d45c6236146fb81e2b0e8b82100000000000000000000000000000000000000000000152d02c7e14af680000000000000000000000000000000000000000000000000152d02c7e14af680000000000000000000000000000000000000000000000000000000000000000000e000000000000000000000000000000000000000000000000000000000000001000000000000000000000000000000000000000000000000000000000000000120000000000000000000000000000000000000000000000000000000000000000000000000000000000000000000000000000000000000000000000000000000000000000000000000000000000000000000000000000000000000000000000000",
        "nonce": "0x29",
        "chainId": "0x13882"
      },
      "additionalContracts": [],
      "isFixedGasLimit": false
    }
  ],
  "receipts": [
    {
      "status": "0x1",
      "cumulativeGasUsed": "0xb47d",
      "logs": [
        {
          "address": "0x3d2bd0e15829aa5c362a4144fdf4a1112fa29b5c",
          "topics": [
            "0x8c5be1e5ebec7d5bd14f71427d1e84f3dd0314c0f7b2291e5b200ac8c7c3b925",
            "0x00000000000000000000000021af1185734d213d45c6236146fb81e2b0e8b821",
            "0x0000000000000000000000009918889e93e8c4357a2d4bce0965dcc493fffda8"
          ],
          "data": "0x00000000000000000000000000000000000000000000152d02c7e14af6800000",
          "blockHash": "0x1aecc12f53deb22ab033fde14977418f46148451548d86aaf3b5ffabd556669d",
          "blockNumber": "0xaead4c",
          "transactionHash": "0x956e206eb28d83834552d072e5a029db4534a611d9fdff1f73c56cb55664526c",
          "transactionIndex": "0x0",
          "logIndex": "0x0",
          "removed": false
        },
        {
          "address": "0x0000000000000000000000000000000000001010",
          "topics": [
            "0x4dfe1bbbcf077ddc3e01291eea2d5c70c2b422b415d95645b9adcfd678cb1d63",
            "0x0000000000000000000000000000000000000000000000000000000000001010",
            "0x00000000000000000000000021af1185734d213d45c6236146fb81e2b0e8b821",
            "0x0000000000000000000000004ad84f7014b7b44f723f284a85b1662337971439"
          ],
          "data": "0x000000000000000000000000000000000000000000000000000c79c36e7584ad00000000000000000000000000000000000000000000000543787b2e4ca0573600000000000000000000000000000000000000000000025b970b252522ebde64000000000000000000000000000000000000000000000005436c016ade2ad28900000000000000000000000000000000000000000000025b97179ee891616311",
          "blockHash": "0x1aecc12f53deb22ab033fde14977418f46148451548d86aaf3b5ffabd556669d",
          "blockNumber": "0xaead4c",
          "transactionHash": "0x956e206eb28d83834552d072e5a029db4534a611d9fdff1f73c56cb55664526c",
          "transactionIndex": "0x0",
          "logIndex": "0x1",
          "removed": false
        }
      ],
      "logsBloom": "0x40000000000000000000000000080000000000000000000000000000000000000000000000001000000000000000000000008000000000000000000000600000000000002000000000000000000000800000000000000000000100001000000000000020000000000000000000000000000000000000000080004000000000000000000000000000000000000000000000000000000000000000000000000000220000000000000008000000000000000000000000000000000080000000004000000000000000000001000000000000000000000000000000100000000000000012000000000000000000000000008000000000000000000000000000100000",
      "type": "0x2",
      "transactionHash": "0x956e206eb28d83834552d072e5a029db4534a611d9fdff1f73c56cb55664526c",
      "transactionIndex": "0x0",
      "blockHash": "0x1aecc12f53deb22ab033fde14977418f46148451548d86aaf3b5ffabd556669d",
      "blockNumber": "0xaead4c",
      "gasUsed": "0xb47d",
      "effectiveGasPrice": "0x11b1f3f800",
      "from": "0x21af1185734d213d45c6236146fb81e2b0e8b821",
      "to": "0x3d2bd0e15829aa5c362a4144fdf4a1112fa29b5c",
      "contractAddress": null
    },
    {
      "status": "0x1",
      "cumulativeGasUsed": "0x44954",
      "logs": [
        {
          "address": "0x0000000000000000000000000000000000001010",
          "topics": [
            "0xe6497e3ee548a3372136af2fcb0696db31fc6cf20260707645068bd3fe97f3c4",
            "0x0000000000000000000000000000000000000000000000000000000000001010",
            "0x00000000000000000000000021af1185734d213d45c6236146fb81e2b0e8b821",
            "0x0000000000000000000000009918889e93e8c4357a2d4bce0965dcc493fffda8"
          ],
          "data": "0x00000000000000000000000000000000000000000000000006edc7d7a47afd140000000000000000000000000000000000000000000000054314789c3e4b4f3600000000000000000000000000000000000000000000000000000000000000000000000000000000000000000000000000000000000000053c26b0c499d0522200000000000000000000000000000000000000000000000006edc7d7a47afd14",
          "blockHash": "0x1aecc12f53deb22ab033fde14977418f46148451548d86aaf3b5ffabd556669d",
          "blockNumber": "0xaead4c",
          "transactionHash": "0xc289f3b3a17ef227deb0f656992f4e854d06f4b5241353cdeea5668b8beffe9a",
          "transactionIndex": "0x1",
          "logIndex": "0x2",
          "removed": false
        },
        {
          "address": "0x3d2bd0e15829aa5c362a4144fdf4a1112fa29b5c",
          "topics": [
            "0xddf252ad1be2c89b69c2b068fc378daa952ba7f163c4a11628f55a4df523b3ef",
            "0x00000000000000000000000021af1185734d213d45c6236146fb81e2b0e8b821",
            "0x0000000000000000000000009918889e93e8c4357a2d4bce0965dcc493fffda8"
          ],
          "data": "0x00000000000000000000000000000000000000000000152d02c7e14af6800000",
          "blockHash": "0x1aecc12f53deb22ab033fde14977418f46148451548d86aaf3b5ffabd556669d",
          "blockNumber": "0xaead4c",
          "transactionHash": "0xc289f3b3a17ef227deb0f656992f4e854d06f4b5241353cdeea5668b8beffe9a",
          "transactionIndex": "0x1",
          "logIndex": "0x3",
          "removed": false
        },
        {
          "address": "0x0000000000000000000000000000000000001010",
          "topics": [
            "0xe6497e3ee548a3372136af2fcb0696db31fc6cf20260707645068bd3fe97f3c4",
            "0x0000000000000000000000000000000000000000000000000000000000001010",
            "0x0000000000000000000000009918889e93e8c4357a2d4bce0965dcc493fffda8",
            "0x0000000000000000000000006edce65403992e310a62460808c4b910d972f10f"
          ],
          "data": "0x00000000000000000000000000000000000000000000000006edc7d7a47afd1400000000000000000000000000000000000000000000000006edc7d7a47afd140000000000000000000000000000000000000000000000000000000000000000000000000000000000000000000000000000000000000000000000000000000000000000000000000000000000000000000000000000000006edc7d7a47afd14",
          "blockHash": "0x1aecc12f53deb22ab033fde14977418f46148451548d86aaf3b5ffabd556669d",
          "blockNumber": "0xaead4c",
          "transactionHash": "0xc289f3b3a17ef227deb0f656992f4e854d06f4b5241353cdeea5668b8beffe9a",
          "transactionIndex": "0x1",
          "logIndex": "0x4",
          "removed": false
        },
        {
          "address": "0x1d186c560281b8f1af831957ed5047fd3ab902f9",
          "topics": [
            "0x61ed099e74a97a1d7f8bb0952a88ca8b7b8ebd00c126ea04671f92a81213318a"
          ],
          "data": "0x0000000000000000000000004cf1b3fa61465c2c907f82fc488b43223ba0cf930000000000000000000000000000000000000000000000000699509c9ca5e4d7",
          "blockHash": "0x1aecc12f53deb22ab033fde14977418f46148451548d86aaf3b5ffabd556669d",
          "blockNumber": "0xaead4c",
          "transactionHash": "0xc289f3b3a17ef227deb0f656992f4e854d06f4b5241353cdeea5668b8beffe9a",
          "transactionIndex": "0x1",
          "logIndex": "0x5",
          "removed": false
        },
        {
          "address": "0x1d186c560281b8f1af831957ed5047fd3ab902f9",
          "topics": [
            "0x07ea52d82345d6e838192107d8fd7123d9c2ec8e916cd0aad13fd2b60db24644"
          ],
          "data": "0x000000000000000000000000000000000000000000000000000000000000006000000000000000000000000000000000000000000000000000000000000000a000000000000000000000000000000000000000000000000000000000000000c0000000000000000000000000000000000000000000000000000000000000000100000000000000000000000055c175dd5b039331db251424538169d8495c18d1000000000000000000000000000000000000000000000000000000000000000000000000000000000000000000000000000000000000000000000000000000010000000000000000000000000000000000000000000000000054773b07d5183d",
          "blockHash": "0x1aecc12f53deb22ab033fde14977418f46148451548d86aaf3b5ffabd556669d",
          "blockNumber": "0xaead4c",
          "transactionHash": "0xc289f3b3a17ef227deb0f656992f4e854d06f4b5241353cdeea5668b8beffe9a",
          "transactionIndex": "0x1",
          "logIndex": "0x6",
          "removed": false
        },
        {
          "address": "0x6edce65403992e310a62460808c4b910d972f10f",
          "topics": [
            "0x1ab700d4ced0c005b164c0f789fd09fcbb0156d4c2041b8a3bfbcd961cd1567f"
          ],
          "data": "0x000000000000000000000000000000000000000000000000000000000000006000000000000000000000000000000000000000000000000000000000000001200000000000000000000000001d186c560281b8f1af831957ed5047fd3ab902f9000000000000000000000000000000000000000000000000000000000000009901000000000000000800009d4b0000000000000000000000009918889e93e8c4357a2d4bce0965dcc493fffda800009d71000000000000000000000000b0588f9a9cade7cd5f194a5fe77acd6a58250f8277011eeb031f99983747db8cac1cb4ba13d5a9bf86a63e1fbaeac7f21ccf2ea900000000000000000000000021af1185734d213d45c6236146fb81e2b0e8b821000000174876e8000000000000000000000000000000000000000000000000000000000000000000000000000000160003010011010000000000000000000000000001388000000000000000000000",
          "blockHash": "0x1aecc12f53deb22ab033fde14977418f46148451548d86aaf3b5ffabd556669d",
          "blockNumber": "0xaead4c",
          "transactionHash": "0xc289f3b3a17ef227deb0f656992f4e854d06f4b5241353cdeea5668b8beffe9a",
          "transactionIndex": "0x1",
          "logIndex": "0x7",
          "removed": false
        },
        {
          "address": "0x0000000000000000000000000000000000001010",
          "topics": [
            "0xe6497e3ee548a3372136af2fcb0696db31fc6cf20260707645068bd3fe97f3c4",
            "0x0000000000000000000000000000000000000000000000000000000000001010",
            "0x0000000000000000000000006edce65403992e310a62460808c4b910d972f10f",
            "0x0000000000000000000000001d186c560281b8f1af831957ed5047fd3ab902f9"
          ],
          "data": "0x00000000000000000000000000000000000000000000000006edc7d7a47afd1400000000000000000000000000000000000000000000000006edc7d7a47afd14000000000000000000000000000000000000000000000040b1d0af4874f3e4d00000000000000000000000000000000000000000000000000000000000000000000000000000000000000000000000000000000000000040b8be7720196ee1e4",
          "blockHash": "0x1aecc12f53deb22ab033fde14977418f46148451548d86aaf3b5ffabd556669d",
          "blockNumber": "0xaead4c",
          "transactionHash": "0xc289f3b3a17ef227deb0f656992f4e854d06f4b5241353cdeea5668b8beffe9a",
          "transactionIndex": "0x1",
          "logIndex": "0x8",
          "removed": false
        },
        {
          "address": "0x9918889e93e8c4357a2d4bce0965dcc493fffda8",
          "topics": [
            "0x85496b760a4b7f8d66384b9df21b381f5d1b1e79f229a47aaf4c232edc2fe59a",
            "0x77011eeb031f99983747db8cac1cb4ba13d5a9bf86a63e1fbaeac7f21ccf2ea9",
            "0x00000000000000000000000021af1185734d213d45c6236146fb81e2b0e8b821"
          ],
          "data": "0x0000000000000000000000000000000000000000000000000000000000009d7100000000000000000000000000000000000000000000152d02c7e14af680000000000000000000000000000000000000000000000000152d02c7e14af6800000",
          "blockHash": "0x1aecc12f53deb22ab033fde14977418f46148451548d86aaf3b5ffabd556669d",
          "blockNumber": "0xaead4c",
          "transactionHash": "0xc289f3b3a17ef227deb0f656992f4e854d06f4b5241353cdeea5668b8beffe9a",
          "transactionIndex": "0x1",
          "logIndex": "0x9",
          "removed": false
        },
        {
          "address": "0x0000000000000000000000000000000000001010",
          "topics": [
            "0x4dfe1bbbcf077ddc3e01291eea2d5c70c2b422b415d95645b9adcfd678cb1d63",
            "0x0000000000000000000000000000000000000000000000000000000000001010",
            "0x00000000000000000000000021af1185734d213d45c6236146fb81e2b0e8b821",
            "0x0000000000000000000000004ad84f7014b7b44f723f284a85b1662337971439"
          ],
          "data": "0x000000000000000000000000000000000000000000000000003f5f99670f8f67000000000000000000000000000000000000000000000005436c016ade203f3600000000000000000000000000000000000000000000025b97179ee891616311000000000000000000000000000000000000000000000005432ca1d17710afcf00000000000000000000000000000000000000000000025b9756fe81f870f278",
          "blockHash": "0x1aecc12f53deb22ab033fde14977418f46148451548d86aaf3b5ffabd556669d",
          "blockNumber": "0xaead4c",
          "transactionHash": "0xc289f3b3a17ef227deb0f656992f4e854d06f4b5241353cdeea5668b8beffe9a",
          "transactionIndex": "0x1",
          "logIndex": "0xa",
          "removed": false
        }
      ],
      "logsBloom": "0x400000000000000000000000000800000000000000000000000000000000000000000000000010002000001000000000000080000000000000000000004040000000028020000000000000080000008000000000000000000001000010020000000000200000000082000010000000000000000000000000800040100000000000000000000000200000000800000000000000001000000000000080000000002000000080000000081000240000000000000800004000000004c000000000400000000200000000000100208000000000000000000980120010800000000000000204000000000000000000000000a008000000008000000000000000100000",
      "type": "0x2",
      "transactionHash": "0xc289f3b3a17ef227deb0f656992f4e854d06f4b5241353cdeea5668b8beffe9a",
      "transactionIndex": "0x1",
      "blockHash": "0x1aecc12f53deb22ab033fde14977418f46148451548d86aaf3b5ffabd556669d",
      "blockNumber": "0xaead4c",
      "gasUsed": "0x394d7",
      "effectiveGasPrice": "0x11b1f3f800",
      "from": "0x21af1185734d213d45c6236146fb81e2b0e8b821",
      "to": "0x9918889e93e8c4357a2d4bce0965dcc493fffda8",
      "contractAddress": null
    }
  ],
  "libraries": [],
  "pending": [],
  "returns": {},
  "timestamp": 1725220448,
  "chain": 80002,
  "commit": "42c0d8e"
}