{
  "transactions": [
    {
      "hash": "0x9cc822dd8906f64ee64300459648d089e27e96c20881acbf72c98df7664921c7",
      "transactionType": "CALL",
      "contractName": null,
      "contractAddress": "0x3d2bd0e15829aa5c362a4144fdf4a1112fa29b5c",
      "function": "approve(address,uint256)",
      "arguments": [
        "0x9918889E93e8c4357a2D4bCE0965dcC493FFFDA8",
        "100000000000000000000000"
      ],
      "transaction": {
        "from": "0x21af1185734d213d45c6236146fb81e2b0e8b821",
        "to": "0x3d2bd0e15829aa5c362a4144fdf4a1112fa29b5c",
        "gas": "0xf94b",
        "value": "0x0",
        "input": "0x095ea7b30000000000000000000000009918889e93e8c4357a2d4bce0965dcc493fffda800000000000000000000000000000000000000000000152d02c7e14af6800000",
        "nonce": "0x26",
        "chainId": "0x13882"
      },
      "additionalContracts": [],
      "isFixedGasLimit": false
    },
    {
      "hash": "0xa8c9c416e63bebbdc3971a496b2d1a4b60b85369051f7da05b10b9b2b988bdb8",
      "transactionType": "CALL",
      "contractName": null,
      "contractAddress": "0x9918889e93e8c4357a2d4bce0965dcc493fffda8",
      "function": "send((uint32,bytes32,uint256,uint256,bytes,bytes,bytes),(uint256,uint256),address)",
      "arguments": [
        "(40305, 0x00000000000000000000000021af1185734d213d45c6236146fb81e2b0e8b821, 100000000000000000000000, 100000000000000000000000, 0x, 0x, 0x)",
        "(499274862699412756, 0)",
        "0x5b73C5498c1E3b4dbA84de0F1833c4a029d90519"
      ],
      "transaction": {
        "from": "0x21af1185734d213d45c6236146fb81e2b0e8b821",
        "to": "0x9918889e93e8c4357a2d4bce0965dcc493fffda8",
        "gas": "0x4f262",
        "value": "0x6edc7d7a47afd14",
        "input": "0xc7c7f5b3000000000000000000000000000000000000000000000000000000000000008000000000000000000000000000000000000000000000000006edc7d7a47afd1400000000000000000000000000000000000000000000000000000000000000000000000000000000000000005b73c5498c1e3b4dba84de0f1833c4a029d905190000000000000000000000000000000000000000000000000000000000009d7100000000000000000000000021af1185734d213d45c6236146fb81e2b0e8b82100000000000000000000000000000000000000000000152d02c7e14af680000000000000000000000000000000000000000000000000152d02c7e14af680000000000000000000000000000000000000000000000000000000000000000000e000000000000000000000000000000000000000000000000000000000000001000000000000000000000000000000000000000000000000000000000000000120000000000000000000000000000000000000000000000000000000000000000000000000000000000000000000000000000000000000000000000000000000000000000000000000000000000000000000000000000000000000000000000000",
        "nonce": "0x27",
        "chainId": "0x13882"
      },
      "additionalContracts": [],
      "isFixedGasLimit": false
    }
  ],
  "receipts": [
    {
      "status": "0x1",
      "cumulativeGasUsed": "0xb47d",
      "logs": [
        {
          "address": "0x3d2bd0e15829aa5c362a4144fdf4a1112fa29b5c",
          "topics": [
            "0x8c5be1e5ebec7d5bd14f71427d1e84f3dd0314c0f7b2291e5b200ac8c7c3b925",
            "0x00000000000000000000000021af1185734d213d45c6236146fb81e2b0e8b821",
            "0x0000000000000000000000009918889e93e8c4357a2d4bce0965dcc493fffda8"
          ],
          "data": "0x00000000000000000000000000000000000000000000152d02c7e14af6800000",
          "blockHash": "0x2e984e297a497b1012040803cf2cedbd6fb0b7770926e18ce7ef3834eeff6a71",
          "blockNumber": "0xacccc1",
          "transactionHash": "0x9cc822dd8906f64ee64300459648d089e27e96c20881acbf72c98df7664921c7",
          "transactionIndex": "0x0",
          "logIndex": "0x0",
          "removed": false
        },
        {
          "address": "0x0000000000000000000000000000000000001010",
          "topics": [
            "0x4dfe1bbbcf077ddc3e01291eea2d5c70c2b422b415d95645b9adcfd678cb1d63",
            "0x0000000000000000000000000000000000000000000000000000000000001010",
            "0x00000000000000000000000021af1185734d213d45c6236146fb81e2b0e8b821",
            "0x000000000000000000000000bb583a9dde59ca64aaa14807f37a4c665c0d72c7"
          ],
          "data": "0x0000000000000000000000000000000000000000000000000004ecb2325558180000000000000000000000000000000000000000000000054a8433c588f9c5960000000000000000000000000000000000000000000000d18e4dd4d085ad669b0000000000000000000000000000000000000000000000054a7f471356a46d7e0000000000000000000000000000000000000000000000d18e52c182b802beb3",
          "blockHash": "0x2e984e297a497b1012040803cf2cedbd6fb0b7770926e18ce7ef3834eeff6a71",
          "blockNumber": "0xacccc1",
          "transactionHash": "0x9cc822dd8906f64ee64300459648d089e27e96c20881acbf72c98df7664921c7",
          "transactionIndex": "0x0",
          "logIndex": "0x1",
          "removed": false
        }
      ],
      "logsBloom": "0x40000000000000000000000000080000000000000000000000000000000000000000000000001000002000000000000000008000000000000000000000200000000000002000000000000000000000800000000000000000000100000000000000000020000000000000000000000000000000000000000080004000000000000000000000000000000000000000000000000000000000000008000000000000228000000000000008000000000000000000000000000000000080000000004000000000000000000001000000000000000000000000000000100000000000000012000000000000000000000000000000000000000000000000000000100000",
      "type": "0x2",
      "transactionHash": "0x9cc822dd8906f64ee64300459648d089e27e96c20881acbf72c98df7664921c7",
      "transactionIndex": "0x0",
      "blockHash": "0x2e984e297a497b1012040803cf2cedbd6fb0b7770926e18ce7ef3834eeff6a71",
      "blockNumber": "0xacccc1",
      "gasUsed": "0xb47d",
      "effectiveGasPrice": "0x6fc23ac07",
      "from": "0x21af1185734d213d45c6236146fb81e2b0e8b821",
      "to": "0x3d2bd0e15829aa5c362a4144fdf4a1112fa29b5c",
      "contractAddress": null
    },
    {
      "status": "0x1",
      "cumulativeGasUsed": "0x44954",
      "logs": [
        {
          "address": "0x0000000000000000000000000000000000001010",
          "topics": [
            "0xe6497e3ee548a3372136af2fcb0696db31fc6cf20260707645068bd3fe97f3c4",
            "0x0000000000000000000000000000000000000000000000000000000000001010",
            "0x00000000000000000000000021af1185734d213d45c6236146fb81e2b0e8b821",
            "0x0000000000000000000000009918889e93e8c4357a2d4bce0965dcc493fffda8"
          ],
          "data": "0x00000000000000000000000000000000000000000000000006edc7d7a47afd140000000000000000000000000000000000000000000000054a5cb97e6837617d0000000000000000000000000000000000000000000000000000000000000000000000000000000000000000000000000000000000000005436ef1a6c3bc646900000000000000000000000000000000000000000000000006edc7d7a47afd14",
          "blockHash": "0x2e984e297a497b1012040803cf2cedbd6fb0b7770926e18ce7ef3834eeff6a71",
          "blockNumber": "0xacccc1",
          "transactionHash": "0xa8c9c416e63bebbdc3971a496b2d1a4b60b85369051f7da05b10b9b2b988bdb8",
          "transactionIndex": "0x1",
          "logIndex": "0x2",
          "removed": false
        },
        {
          "address": "0x3d2bd0e15829aa5c362a4144fdf4a1112fa29b5c",
          "topics": [
            "0xddf252ad1be2c89b69c2b068fc378daa952ba7f163c4a11628f55a4df523b3ef",
            "0x00000000000000000000000021af1185734d213d45c6236146fb81e2b0e8b821",
            "0x0000000000000000000000009918889e93e8c4357a2d4bce0965dcc493fffda8"
          ],
          "data": "0x00000000000000000000000000000000000000000000152d02c7e14af6800000",
          "blockHash": "0x2e984e297a497b1012040803cf2cedbd6fb0b7770926e18ce7ef3834eeff6a71",
          "blockNumber": "0xacccc1",
          "transactionHash": "0xa8c9c416e63bebbdc3971a496b2d1a4b60b85369051f7da05b10b9b2b988bdb8",
          "transactionIndex": "0x1",
          "logIndex": "0x3",
          "removed": false
        },
        {
          "address": "0x0000000000000000000000000000000000001010",
          "topics": [
            "0xe6497e3ee548a3372136af2fcb0696db31fc6cf20260707645068bd3fe97f3c4",
            "0x0000000000000000000000000000000000000000000000000000000000001010",
            "0x0000000000000000000000009918889e93e8c4357a2d4bce0965dcc493fffda8",
            "0x0000000000000000000000006edce65403992e310a62460808c4b910d972f10f"
          ],
          "data": "0x00000000000000000000000000000000000000000000000006edc7d7a47afd1400000000000000000000000000000000000000000000000006edc7d7a47afd140000000000000000000000000000000000000000000000000000000000000000000000000000000000000000000000000000000000000000000000000000000000000000000000000000000000000000000000000000000006edc7d7a47afd14",
          "blockHash": "0x2e984e297a497b1012040803cf2cedbd6fb0b7770926e18ce7ef3834eeff6a71",
          "blockNumber": "0xacccc1",
          "transactionHash": "0xa8c9c416e63bebbdc3971a496b2d1a4b60b85369051f7da05b10b9b2b988bdb8",
          "transactionIndex": "0x1",
          "logIndex": "0x4",
          "removed": false
        },
        {
          "address": "0x1d186c560281b8f1af831957ed5047fd3ab902f9",
          "topics": [
            "0x61ed099e74a97a1d7f8bb0952a88ca8b7b8ebd00c126ea04671f92a81213318a"
          ],
          "data": "0x0000000000000000000000004cf1b3fa61465c2c907f82fc488b43223ba0cf930000000000000000000000000000000000000000000000000699509c9ca5e4d7",
          "blockHash": "0x2e984e297a497b1012040803cf2cedbd6fb0b7770926e18ce7ef3834eeff6a71",
          "blockNumber": "0xacccc1",
          "transactionHash": "0xa8c9c416e63bebbdc3971a496b2d1a4b60b85369051f7da05b10b9b2b988bdb8",
          "transactionIndex": "0x1",
          "logIndex": "0x5",
          "removed": false
        },
        {
          "address": "0x1d186c560281b8f1af831957ed5047fd3ab902f9",
          "topics": [
            "0x07ea52d82345d6e838192107d8fd7123d9c2ec8e916cd0aad13fd2b60db24644"
          ],
          "data": "0x000000000000000000000000000000000000000000000000000000000000006000000000000000000000000000000000000000000000000000000000000000a000000000000000000000000000000000000000000000000000000000000000c0000000000000000000000000000000000000000000000000000000000000000100000000000000000000000055c175dd5b039331db251424538169d8495c18d1000000000000000000000000000000000000000000000000000000000000000000000000000000000000000000000000000000000000000000000000000000010000000000000000000000000000000000000000000000000054773b07d5183d",
          "blockHash": "0x2e984e297a497b1012040803cf2cedbd6fb0b7770926e18ce7ef3834eeff6a71",
          "blockNumber": "0xacccc1",
          "transactionHash": "0xa8c9c416e63bebbdc3971a496b2d1a4b60b85369051f7da05b10b9b2b988bdb8",
          "transactionIndex": "0x1",
          "logIndex": "0x6",
          "removed": false
        },
        {
          "address": "0x6edce65403992e310a62460808c4b910d972f10f",
          "topics": [
            "0x1ab700d4ced0c005b164c0f789fd09fcbb0156d4c2041b8a3bfbcd961cd1567f"
          ],
          "data": "0x000000000000000000000000000000000000000000000000000000000000006000000000000000000000000000000000000000000000000000000000000001200000000000000000000000001d186c560281b8f1af831957ed5047fd3ab902f9000000000000000000000000000000000000000000000000000000000000009901000000000000000700009d4b0000000000000000000000009918889e93e8c4357a2d4bce0965dcc493fffda800009d71000000000000000000000000b0588f9a9cade7cd5f194a5fe77acd6a58250f823b0422c1bd417a842c0ab36cc0276db5a2154ccf5316a45349d445d774487e1e00000000000000000000000021af1185734d213d45c6236146fb81e2b0e8b821000000174876e8000000000000000000000000000000000000000000000000000000000000000000000000000000160003010011010000000000000000000000000001388000000000000000000000",
          "blockHash": "0x2e984e297a497b1012040803cf2cedbd6fb0b7770926e18ce7ef3834eeff6a71",
          "blockNumber": "0xacccc1",
          "transactionHash": "0xa8c9c416e63bebbdc3971a496b2d1a4b60b85369051f7da05b10b9b2b988bdb8",
          "transactionIndex": "0x1",
          "logIndex": "0x7",
          "removed": false
        },
        {
          "address": "0x0000000000000000000000000000000000001010",
          "topics": [
            "0xe6497e3ee548a3372136af2fcb0696db31fc6cf20260707645068bd3fe97f3c4",
            "0x0000000000000000000000000000000000000000000000000000000000001010",
            "0x0000000000000000000000006edce65403992e310a62460808c4b910d972f10f",
            "0x0000000000000000000000001d186c560281b8f1af831957ed5047fd3ab902f9"
          ],
          "data": "0x00000000000000000000000000000000000000000000000006edc7d7a47afd1400000000000000000000000000000000000000000000000006edc7d7a47afd14000000000000000000000000000000000000000000000040aae2e770d078e7bc0000000000000000000000000000000000000000000000000000000000000000000000000000000000000000000000000000000000000040b1d0af4874f3e4d0",
          "blockHash": "0x2e984e297a497b1012040803cf2cedbd6fb0b7770926e18ce7ef3834eeff6a71",
          "blockNumber": "0xacccc1",
          "transactionHash": "0xa8c9c416e63bebbdc3971a496b2d1a4b60b85369051f7da05b10b9b2b988bdb8",
          "transactionIndex": "0x1",
          "logIndex": "0x8",
          "removed": false
        },
        {
          "address": "0x9918889e93e8c4357a2d4bce0965dcc493fffda8",
          "topics": [
            "0x85496b760a4b7f8d66384b9df21b381f5d1b1e79f229a47aaf4c232edc2fe59a",
            "0x3b0422c1bd417a842c0ab36cc0276db5a2154ccf5316a45349d445d774487e1e",
            "0x00000000000000000000000021af1185734d213d45c6236146fb81e2b0e8b821"
          ],
          "data": "0x0000000000000000000000000000000000000000000000000000000000009d7100000000000000000000000000000000000000000000152d02c7e14af680000000000000000000000000000000000000000000000000152d02c7e14af6800000",
          "blockHash": "0x2e984e297a497b1012040803cf2cedbd6fb0b7770926e18ce7ef3834eeff6a71",
          "blockNumber": "0xacccc1",
          "transactionHash": "0xa8c9c416e63bebbdc3971a496b2d1a4b60b85369051f7da05b10b9b2b988bdb8",
          "transactionIndex": "0x1",
          "logIndex": "0x9",
          "removed": false
        },
        {
          "address": "0x0000000000000000000000000000000000001010",
          "topics": [
            "0x4dfe1bbbcf077ddc3e01291eea2d5c70c2b422b415d95645b9adcfd678cb1d63",
            "0x0000000000000000000000000000000000000000000000000000000000001010",
            "0x00000000000000000000000021af1185734d213d45c6236146fb81e2b0e8b821",
            "0x000000000000000000000000bb583a9dde59ca64aaa14807f37a4c665c0d72c7"
          ],
          "data": "0x0000000000000000000000000000000000000000000000000019040d6548cd480000000000000000000000000000000000000000000000054a7f47135699da2b0000000000000000000000000000000000000000000000d18e52c182b802beb30000000000000000000000000000000000000000000000054a664305f1510ce30000000000000000000000000000000000000000000000d18e6bc5901d4b8bfb",
          "blockHash": "0x2e984e297a497b1012040803cf2cedbd6fb0b7770926e18ce7ef3834eeff6a71",
          "blockNumber": "0xacccc1",
          "transactionHash": "0xa8c9c416e63bebbdc3971a496b2d1a4b60b85369051f7da05b10b9b2b988bdb8",
          "transactionIndex": "0x1",
          "logIndex": "0xa",
          "removed": false
        }
      ],
      "logsBloom": "0x400000000000000000000000000800000000000000000000000040000000000000000000000010002020001000000000000080000000000000000001000040000000028020000000000000080000008000000000000000000001000000020000000000200000000082000010000000000000000000000000800040100000000000000000000000200000000800000000000000000000000000080000000000002080000080000000081000240000000000000800004000000004c0000000004000000002000000000001002080000000000000000008801200108000000000000002040000000040000000000000002008000000008000000000000000100000",
      "type": "0x2",
      "transactionHash": "0xa8c9c416e63bebbdc3971a496b2d1a4b60b85369051f7da05b10b9b2b988bdb8",
      "transactionIndex": "0x1",
      "blockHash": "0x2e984e297a497b1012040803cf2cedbd6fb0b7770926e18ce7ef3834eeff6a71",
      "blockNumber": "0xacccc1",
      "gasUsed": "0x394d7",
      "effectiveGasPrice": "0x6fc23ac07",
      "from": "0x21af1185734d213d45c6236146fb81e2b0e8b821",
      "to": "0x9918889e93e8c4357a2d4bce0965dcc493fffda8",
      "contractAddress": null
    }
  ],
  "libraries": [],
  "pending": [],
  "returns": {},
  "timestamp": 1724958188,
  "chain": 80002,
  "commit": "42c0d8e"
}