{
  "transactions": [
    {
      "hash": "0x310400a9b995b18a60d195edc9863b8383adf58810660508a8bdf6a547f54390",
      "transactionType": "CALL",
      "contractName": null,
      "contractAddress": "0x28ff8e457fef9870b9d1529fe68fbb95c3181f64",
      "function": null,
      "arguments": null,
      "transaction": {
        "from": "0x21af1185734d213d45c6236146fb81e2b0e8b821",
        "to": "0x28ff8e457fef9870b9d1529fe68fbb95c3181f64",
        "gas": "0x714d",
        "value": "0xde0b6b3a7640000",
        "input": "0x",
        "nonce": "0x70",
        "chainId": "0x13882"
      },
      "additionalContracts": [],
      "isFixedGasLimit": false
    },
    {
      "hash": "0xf658acaaa8ec14e92dbd4ec6c684c5b3d1f938ecec0a2965b9c01536326c39e2",
      "transactionType": "CALL",
      "contractName": null,
      "contractAddress": "0x3d2bd0e15829aa5c362a4144fdf4a1112fa29b5c",
      "function": "approve(address,uint256)",
      "arguments": [
        "0x9918889E93e8c4357a2D4bCE0965dcC493FFFDA8",
        "100000000000000000000000"
      ],
      "transaction": {
        "from": "0x28ff8e457fef9870b9d1529fe68fbb95c3181f64",
        "to": "0x3d2bd0e15829aa5c362a4144fdf4a1112fa29b5c",
        "gas": "0xf94b",
        "value": "0x0",
        "input": "0x095ea7b30000000000000000000000009918889e93e8c4357a2d4bce0965dcc493fffda800000000000000000000000000000000000000000000152d02c7e14af6800000",
        "nonce": "0x26",
        "chainId": "0x13882"
      },
      "additionalContracts": [],
      "isFixedGasLimit": false
    },
    {
      "hash": "0xda6db50b8eb605071ff3750b782cc83ef8f7b4e5ec47c0f42a2d2b23df293afd",
      "transactionType": "CALL",
      "contractName": null,
      "contractAddress": "0x9918889e93e8c4357a2d4bce0965dcc493fffda8",
      "function": "send((uint32,bytes32,uint256,uint256,bytes,bytes,bytes),(uint256,uint256),address)",
      "arguments": [
        "(40305, 0x00000000000000000000000028ff8e457fef9870b9d1529fe68fbb95c3181f64, 100000000000000000000000, 100000000000000000000000, 0x, 0x, 0x)",
        "(553972776194998416, 0)",
        "0x5b73C5498c1E3b4dbA84de0F1833c4a029d90519"
      ],
      "transaction": {
        "from": "0x28ff8e457fef9870b9d1529fe68fbb95c3181f64",
        "to": "0x9918889e93e8c4357a2d4bce0965dcc493fffda8",
        "gas": "0x5a350",
        "value": "0x7b01b4e0c570090",
        "input": "0xc7c7f5b3000000000000000000000000000000000000000000000000000000000000008000000000000000000000000000000000000000000000000007b01b4e0c57009000000000000000000000000000000000000000000000000000000000000000000000000000000000000000005b73c5498c1e3b4dba84de0f1833c4a029d905190000000000000000000000000000000000000000000000000000000000009d7100000000000000000000000028ff8e457fef9870b9d1529fe68fbb95c3181f6400000000000000000000000000000000000000000000152d02c7e14af680000000000000000000000000000000000000000000000000152d02c7e14af680000000000000000000000000000000000000000000000000000000000000000000e000000000000000000000000000000000000000000000000000000000000001000000000000000000000000000000000000000000000000000000000000000120000000000000000000000000000000000000000000000000000000000000000000000000000000000000000000000000000000000000000000000000000000000000000000000000000000000000000000000000000000000000000000000000",
        "nonce": "0x27",
        "chainId": "0x13882"
      },
      "additionalContracts": [],
      "isFixedGasLimit": false
    }
  ],
  "receipts": [
    {
      "status": "0x1",
      "cumulativeGasUsed": "0x5208",
      "logs": [
        {
          "address": "0x0000000000000000000000000000000000001010",
          "topics": [
            "0xe6497e3ee548a3372136af2fcb0696db31fc6cf20260707645068bd3fe97f3c4",
            "0x0000000000000000000000000000000000000000000000000000000000001010",
            "0x00000000000000000000000021af1185734d213d45c6236146fb81e2b0e8b821",
            "0x00000000000000000000000028ff8e457fef9870b9d1529fe68fbb95c3181f64"
          ],
          "data": "0x0000000000000000000000000000000000000000000000000de0b6b3a7640000000000000000000000000000000000000000000000000003e86124a08b14942f00000000000000000000000000000000000000000000000007e3c2a02242cb1a000000000000000000000000000000000000000000000003da806dece3b0942f00000000000000000000000000000000000000000000000015c47953c9a6cb1a",
          "blockHash": "0xa4015966317b21983db065b4c0abc0053ce3173782619400c1522b89512457de",
          "blockNumber": "0xbe1f22",
          "transactionHash": "0x310400a9b995b18a60d195edc9863b8383adf58810660508a8bdf6a547f54390",
          "transactionIndex": "0x0",
          "logIndex": "0x0",
          "removed": false
        },
        {
          "address": "0x0000000000000000000000000000000000001010",
          "topics": [
            "0x4dfe1bbbcf077ddc3e01291eea2d5c70c2b422b415d95645b9adcfd678cb1d63",
            "0x0000000000000000000000000000000000000000000000000000000000001010",
            "0x00000000000000000000000021af1185734d213d45c6236146fb81e2b0e8b821",
            "0x00000000000000000000000009207a6efee346cb3e4a54ac18523e3715d38b3f"
          ],
          "data": "0x0000000000000000000000000000000000000000000000000001f55be4756ea8000000000000000000000000000000000000000000000003e863d9196e1667830000000000000000000000000000000000000000000002a2dd5eba650cf10171000000000000000000000000000000000000000000000003e861e3bd89a0f8db0000000000000000000000000000000000000000000002a2dd60afc0f1667019",
          "blockHash": "0xa4015966317b21983db065b4c0abc0053ce3173782619400c1522b89512457de",
          "blockNumber": "0xbe1f22",
          "transactionHash": "0x310400a9b995b18a60d195edc9863b8383adf58810660508a8bdf6a547f54390",
          "transactionIndex": "0x0",
          "logIndex": "0x1",
          "removed": false
        }
      ],
      "logsBloom": "0x00000000000000000000000000080000000000000000000000000000000040000000000000000000000000100000000000008000000000000000010000000000000000000000000000000000000000800000000000000000000100000000000000000000000000000000000000000000000000000000000080004000000000000000000000000000000000000000000000004000000000000000000000000000200000000000000000000000000000000000000000000000000080800000004000000000000000008001000000000000000000000000800000108000000000000000000000000000000000010000000000000000000000000000000000100000",
      "type": "0x2",
      "transactionHash": "0x310400a9b995b18a60d195edc9863b8383adf58810660508a8bdf6a547f54390",
      "transactionIndex": "0x0",
      "blockHash": "0xa4015966317b21983db065b4c0abc0053ce3173782619400c1522b89512457de",
      "blockNumber": "0xbe1f22",
      "gasUsed": "0x5208",
      "effectiveGasPrice": "0x61c9f36a4",
      "from": "0x21af1185734d213d45c6236146fb81e2b0e8b821",
      "to": "0x28ff8e457fef9870b9d1529fe68fbb95c3181f64",
      "contractAddress": null
    },
    {
      "status": "0x1",
      "cumulativeGasUsed": "0xb47d",
      "logs": [
        {
          "address": "0x3d2bd0e15829aa5c362a4144fdf4a1112fa29b5c",
          "topics": [
            "0x8c5be1e5ebec7d5bd14f71427d1e84f3dd0314c0f7b2291e5b200ac8c7c3b925",
            "0x00000000000000000000000028ff8e457fef9870b9d1529fe68fbb95c3181f64",
            "0x0000000000000000000000009918889e93e8c4357a2d4bce0965dcc493fffda8"
          ],
          "data": "0x00000000000000000000000000000000000000000000152d02c7e14af6800000",
          "blockHash": "0xb9a97700351b86d3fa9517ee2e5769685e89de1b53013c10190d573376250a2b",
          "blockNumber": "0xbe1f25",
          "transactionHash": "0xf658acaaa8ec14e92dbd4ec6c684c5b3d1f938ecec0a2965b9c01536326c39e2",
          "transactionIndex": "0x0",
          "logIndex": "0x0",
          "removed": false
        },
        {
          "address": "0x0000000000000000000000000000000000001010",
          "topics": [
            "0x4dfe1bbbcf077ddc3e01291eea2d5c70c2b422b415d95645b9adcfd678cb1d63",
            "0x0000000000000000000000000000000000000000000000000000000000001010",
            "0x00000000000000000000000028ff8e457fef9870b9d1529fe68fbb95c3181f64",
            "0x00000000000000000000000009207a6efee346cb3e4a54ac18523e3715d38b3f"
          ],
          "data": "0x00000000000000000000000000000000000000000000000000044f1bec1e6ac100000000000000000000000000000000000000000000000015c47953c9a6cb1a0000000000000000000000000000000000000000000002a2dd71b5aa6f3382c800000000000000000000000000000000000000000000000015c02a37dd8860590000000000000000000000000000000000000000000002a2dd7604c65b51ed89",
          "blockHash": "0xb9a97700351b86d3fa9517ee2e5769685e89de1b53013c10190d573376250a2b",
          "blockNumber": "0xbe1f25",
          "transactionHash": "0xf658acaaa8ec14e92dbd4ec6c684c5b3d1f938ecec0a2965b9c01536326c39e2",
          "transactionIndex": "0x0",
          "logIndex": "0x1",
          "removed": false
        }
      ],
      "logsBloom": "0x40000000000000000000000000000000000000000000000000000000000040000000000000001000000000000000000000008000000000000000010000200000000000002000000000000000000000800000000000000000000100000000000000000020000000000000000000000000000000000000000080000000000000000000000000000000000000000000000000004000000000000000000000000000220000000000000008000000000000000000000000000000000000800000004000000000000000008001000000000000000000000000000000100000000000000012000000000000000000010000000000000000000000000000000000100000",
      "type": "0x2",
      "transactionHash": "0xf658acaaa8ec14e92dbd4ec6c684c5b3d1f938ecec0a2965b9c01536326c39e2",
      "transactionIndex": "0x0",
      "blockHash": "0xb9a97700351b86d3fa9517ee2e5769685e89de1b53013c10190d573376250a2b",
      "blockNumber": "0xbe1f25",
      "gasUsed": "0xb47d",
      "effectiveGasPrice": "0x61c9f36a4",
      "from": "0x28ff8e457fef9870b9d1529fe68fbb95c3181f64",
      "to": "0x3d2bd0e15829aa5c362a4144fdf4a1112fa29b5c",
      "contractAddress": null
    },
    {
      "status": "0x1",
      "cumulativeGasUsed": "0x3dae2",
      "logs": [
        {
          "address": "0x0000000000000000000000000000000000001010",
          "topics": [
            "0xe6497e3ee548a3372136af2fcb0696db31fc6cf20260707645068bd3fe97f3c4",
            "0x0000000000000000000000000000000000000000000000000000000000001010",
            "0x00000000000000000000000028ff8e457fef9870b9d1529fe68fbb95c3181f64",
            "0x0000000000000000000000009918889e93e8c4357a2d4bce0965dcc493fffda8"
          ],
          "data": "0x00000000000000000000000000000000000000000000000007b01b4e0c570090000000000000000000000000000000000000000000000000159db4f97abe4dc600000000000000000000000000000000000000000000000000000000000000000000000000000000000000000000000000000000000000000ded99ab6e674d3600000000000000000000000000000000000000000000000007b01b4e0c570090",
          "blockHash": "0xea3f631f5b007697f0128f6d2741d538521ec2c56d4ce1e765d99ab513bf5521",
          "blockNumber": "0xbe1f29",
          "transactionHash": "0xda6db50b8eb605071ff3750b782cc83ef8f7b4e5ec47c0f42a2d2b23df293afd",
          "transactionIndex": "0x0",
          "logIndex": "0x0",
          "removed": false
        },
        {
          "address": "0xe9d2fa815b95a9d087862a09079549f351dab9bd",
          "topics": [
            "0xddf252ad1be2c89b69c2b068fc378daa952ba7f163c4a11628f55a4df523b3ef",
            "0x00000000000000000000000028ff8e457fef9870b9d1529fe68fbb95c3181f64",
            "0x0000000000000000000000000000000000000000000000000000000000000000",
            "0x000000000000000000000000000000000000000000000000000000000000006c"
          ],
          "data": "0x",
          "blockHash": "0xea3f631f5b007697f0128f6d2741d538521ec2c56d4ce1e765d99ab513bf5521",
          "blockNumber": "0xbe1f29",
          "transactionHash": "0xda6db50b8eb605071ff3750b782cc83ef8f7b4e5ec47c0f42a2d2b23df293afd",
          "transactionIndex": "0x0",
          "logIndex": "0x1",
          "removed": false
        },
        {
          "address": "0x3d2bd0e15829aa5c362a4144fdf4a1112fa29b5c",
          "topics": [
            "0xddf252ad1be2c89b69c2b068fc378daa952ba7f163c4a11628f55a4df523b3ef",
            "0x00000000000000000000000028ff8e457fef9870b9d1529fe68fbb95c3181f64",
            "0x0000000000000000000000009918889e93e8c4357a2d4bce0965dcc493fffda8"
          ],
          "data": "0x00000000000000000000000000000000000000000000152d02c7e14af6800000",
          "blockHash": "0xea3f631f5b007697f0128f6d2741d538521ec2c56d4ce1e765d99ab513bf5521",
          "blockNumber": "0xbe1f29",
          "transactionHash": "0xda6db50b8eb605071ff3750b782cc83ef8f7b4e5ec47c0f42a2d2b23df293afd",
          "transactionIndex": "0x0",
          "logIndex": "0x2",
          "removed": false
        },
        {
          "address": "0x0000000000000000000000000000000000001010",
          "topics": [
            "0xe6497e3ee548a3372136af2fcb0696db31fc6cf20260707645068bd3fe97f3c4",
            "0x0000000000000000000000000000000000000000000000000000000000001010",
            "0x0000000000000000000000009918889e93e8c4357a2d4bce0965dcc493fffda8",
            "0x0000000000000000000000006edce65403992e310a62460808c4b910d972f10f"
          ],
          "data": "0x00000000000000000000000000000000000000000000000007b01b4e0c57009000000000000000000000000000000000000000000000000007b01b4e0c5700900000000000000000000000000000000000000000000000000000000000000000000000000000000000000000000000000000000000000000000000000000000000000000000000000000000000000000000000000000000007b01b4e0c570090",
          "blockHash": "0xea3f631f5b007697f0128f6d2741d538521ec2c56d4ce1e765d99ab513bf5521",
          "blockNumber": "0xbe1f29",
          "transactionHash": "0xda6db50b8eb605071ff3750b782cc83ef8f7b4e5ec47c0f42a2d2b23df293afd",
          "transactionIndex": "0x0",
          "logIndex": "0x3",
          "removed": false
        },
        {
          "address": "0x1d186c560281b8f1af831957ed5047fd3ab902f9",
          "topics": [
            "0x61ed099e74a97a1d7f8bb0952a88ca8b7b8ebd00c126ea04671f92a81213318a"
          ],
          "data": "0x0000000000000000000000004cf1b3fa61465c2c907f82fc488b43223ba0cf9300000000000000000000000000000000000000000000000007526325c29c008a",
          "blockHash": "0xea3f631f5b007697f0128f6d2741d538521ec2c56d4ce1e765d99ab513bf5521",
          "blockNumber": "0xbe1f29",
          "transactionHash": "0xda6db50b8eb605071ff3750b782cc83ef8f7b4e5ec47c0f42a2d2b23df293afd",
          "transactionIndex": "0x0",
          "logIndex": "0x4",
          "removed": false
        },
        {
          "address": "0x1d186c560281b8f1af831957ed5047fd3ab902f9",
          "topics": [
            "0x07ea52d82345d6e838192107d8fd7123d9c2ec8e916cd0aad13fd2b60db24644"
          ],
          "data": "0x000000000000000000000000000000000000000000000000000000000000006000000000000000000000000000000000000000000000000000000000000000a000000000000000000000000000000000000000000000000000000000000000c0000000000000000000000000000000000000000000000000000000000000000100000000000000000000000055c175dd5b039331db251424538169d8495c18d100000000000000000000000000000000000000000000000000000000000000000000000000000000000000000000000000000000000000000000000000000001000000000000000000000000000000000000000000000000005db82849bb0006",
          "blockHash": "0xea3f631f5b007697f0128f6d2741d538521ec2c56d4ce1e765d99ab513bf5521",
          "blockNumber": "0xbe1f29",
          "transactionHash": "0xda6db50b8eb605071ff3750b782cc83ef8f7b4e5ec47c0f42a2d2b23df293afd",
          "transactionIndex": "0x0",
          "logIndex": "0x5",
          "removed": false
        },
        {
          "address": "0x6edce65403992e310a62460808c4b910d972f10f",
          "topics": [
            "0x1ab700d4ced0c005b164c0f789fd09fcbb0156d4c2041b8a3bfbcd961cd1567f"
          ],
          "data": "0x000000000000000000000000000000000000000000000000000000000000006000000000000000000000000000000000000000000000000000000000000001200000000000000000000000001d186c560281b8f1af831957ed5047fd3ab902f9000000000000000000000000000000000000000000000000000000000000009901000000000000001200009d4b0000000000000000000000009918889e93e8c4357a2d4bce0965dcc493fffda800009d71000000000000000000000000b0588f9a9cade7cd5f194a5fe77acd6a58250f82cfd2d250bb1102f62a019cfa428dbdaeecf011b9bfa717f8d6c77fe5a657b6a400000000000000000000000028ff8e457fef9870b9d1529fe68fbb95c3181f64000000174876e8000000000000000000000000000000000000000000000000000000000000000000000000000000160003010011010000000000000000000000000001388000000000000000000000",
          "blockHash": "0xea3f631f5b007697f0128f6d2741d538521ec2c56d4ce1e765d99ab513bf5521",
          "blockNumber": "0xbe1f29",
          "transactionHash": "0xda6db50b8eb605071ff3750b782cc83ef8f7b4e5ec47c0f42a2d2b23df293afd",
          "transactionIndex": "0x0",
          "logIndex": "0x6",
          "removed": false
        },
        {
          "address": "0x0000000000000000000000000000000000001010",
          "topics": [
            "0xe6497e3ee548a3372136af2fcb0696db31fc6cf20260707645068bd3fe97f3c4",
            "0x0000000000000000000000000000000000000000000000000000000000001010",
            "0x0000000000000000000000006edce65403992e310a62460808c4b910d972f10f",
            "0x0000000000000000000000001d186c560281b8f1af831957ed5047fd3ab902f9"
          ],
          "data": "0x00000000000000000000000000000000000000000000000007b01b4e0c57009000000000000000000000000000000000000000000000000007b01b4e0c570090000000000000000000000000000000000000000000000048756540d1cd2e569c00000000000000000000000000000000000000000000000000000000000000000000000000000000000000000000000000000000000000487d155c1fd985572c",
          "blockHash": "0xea3f631f5b007697f0128f6d2741d538521ec2c56d4ce1e765d99ab513bf5521",
          "blockNumber": "0xbe1f29",
          "transactionHash": "0xda6db50b8eb605071ff3750b782cc83ef8f7b4e5ec47c0f42a2d2b23df293afd",
          "transactionIndex": "0x0",
          "logIndex": "0x7",
          "removed": false
        },
        {
          "address": "0x9918889e93e8c4357a2d4bce0965dcc493fffda8",
          "topics": [
            "0x85496b760a4b7f8d66384b9df21b381f5d1b1e79f229a47aaf4c232edc2fe59a",
            "0xcfd2d250bb1102f62a019cfa428dbdaeecf011b9bfa717f8d6c77fe5a657b6a4",
            "0x00000000000000000000000028ff8e457fef9870b9d1529fe68fbb95c3181f64"
          ],
          "data": "0x0000000000000000000000000000000000000000000000000000000000009d7100000000000000000000000000000000000000000000152d02c7e14af680000000000000000000000000000000000000000000000000152d02c7e14af6800000",
          "blockHash": "0xea3f631f5b007697f0128f6d2741d538521ec2c56d4ce1e765d99ab513bf5521",
          "blockNumber": "0xbe1f29",
          "transactionHash": "0xda6db50b8eb605071ff3750b782cc83ef8f7b4e5ec47c0f42a2d2b23df293afd",
          "transactionIndex": "0x0",
          "logIndex": "0x8",
          "removed": false
        },
        {
          "address": "0x0000000000000000000000000000000000001010",
          "topics": [
            "0x4dfe1bbbcf077ddc3e01291eea2d5c70c2b422b415d95645b9adcfd678cb1d63",
            "0x0000000000000000000000000000000000000000000000000000000000001010",
            "0x00000000000000000000000028ff8e457fef9870b9d1529fe68fbb95c3181f64",
            "0x00000000000000000000000009207a6efee346cb3e4a54ac18523e3715d38b3f"
          ],
          "data": "0x00000000000000000000000000000000000000000000000000178fa27cc8118a00000000000000000000000000000000000000000000000015c02a37dd7dcd060000000000000000000000000000000000000000000002a2dda0ce364b68bf4700000000000000000000000000000000000000000000000015a89a9560b5bb7c0000000000000000000000000000000000000000000002a2ddb85dd8c830d0d1",
          "blockHash": "0xea3f631f5b007697f0128f6d2741d538521ec2c56d4ce1e765d99ab513bf5521",
          "blockNumber": "0xbe1f29",
          "transactionHash": "0xda6db50b8eb605071ff3750b782cc83ef8f7b4e5ec47c0f42a2d2b23df293afd",
          "transactionIndex": "0x0",
          "logIndex": "0x9",
          "removed": false
        }
      ],
      "logsBloom": "0x4000000000000000000020000000000000000000000000000000000000004000000000000000100020000010000000000000a000000000000000010000104000000002802000000000000008000000800000000000000000000100000002000000000020020000008200001000000800000000000000000080000010000000000000000002000020000000080000000000004000000004000000000000800000200000008000000008100024000000000000080000400000000440800000004000000002000000008001082080000000000000000008801200108000000020000002040000000000000400010000002008000000808000000000000000100000",
      "type": "0x2",
      "transactionHash": "0xda6db50b8eb605071ff3750b782cc83ef8f7b4e5ec47c0f42a2d2b23df293afd",
      "transactionIndex": "0x0",
      "blockHash": "0xea3f631f5b007697f0128f6d2741d538521ec2c56d4ce1e765d99ab513bf5521",
      "blockNumber": "0xbe1f29",
      "gasUsed": "0x3dae2",
      "effectiveGasPrice": "0x61c9f36a4",
      "from": "0x28ff8e457fef9870b9d1529fe68fbb95c3181f64",
      "to": "0x9918889e93e8c4357a2d4bce0965dcc493fffda8",
      "contractAddress": null
    }
  ],
  "libraries": [],
  "pending": [],
  "returns": {},
  "timestamp": 1727390080,
  "chain": 80002,
  "commit": "ca84423"
}