{
  "transactions": [
    {
      "hash": "0xdc1d68ec5b2c35881cf8bccc5a60f7cabe0f0e1729980d8d5c677f5734db2941",
      "transactionType": "CALL",
      "contractName": null,
      "contractAddress": "0x3d2bd0e15829aa5c362a4144fdf4a1112fa29b5c",
      "function": "approve(address,uint256)",
      "arguments": [
        "0x9918889E93e8c4357a2D4bCE0965dcC493FFFDA8",
        "100000000000000000000000"
      ],
      "transaction": {
        "from": "0x21af1185734d213d45c6236146fb81e2b0e8b821",
        "to": "0x3d2bd0e15829aa5c362a4144fdf4a1112fa29b5c",
        "gas": "0xf94b",
        "value": "0x0",
        "input": "0x095ea7b30000000000000000000000009918889e93e8c4357a2d4bce0965dcc493fffda800000000000000000000000000000000000000000000152d02c7e14af6800000",
        "nonce": "0x2c",
        "chainId": "0x13882"
      },
      "additionalContracts": [],
      "isFixedGasLimit": false
    },
    {
      "hash": "0x7aea1b0ea69b5f5a78fe854ca01d6e67f0f76c96a33c636af7c53b151d8e8aad",
      "transactionType": "CALL",
      "contractName": null,
      "contractAddress": "0x9918889e93e8c4357a2d4bce0965dcc493fffda8",
      "function": "send((uint32,bytes32,uint256,uint256,bytes,bytes,bytes),(uint256,uint256),address)",
      "arguments": [
        "(40305, 0x00000000000000000000000021af1185734d213d45c6236146fb81e2b0e8b821, 100000000000000000000000, 100000000000000000000000, 0x, 0x, 0x)",
        "(499274862699412756, 0)",
        "0x5b73C5498c1E3b4dbA84de0F1833c4a029d90519"
      ],
      "transaction": {
        "from": "0x21af1185734d213d45c6236146fb81e2b0e8b821",
        "to": "0x9918889e93e8c4357a2d4bce0965dcc493fffda8",
        "gas": "0x4f262",
        "value": "0x6edc7d7a47afd14",
        "input": "0xc7c7f5b3000000000000000000000000000000000000000000000000000000000000008000000000000000000000000000000000000000000000000006edc7d7a47afd1400000000000000000000000000000000000000000000000000000000000000000000000000000000000000005b73c5498c1e3b4dba84de0f1833c4a029d905190000000000000000000000000000000000000000000000000000000000009d7100000000000000000000000021af1185734d213d45c6236146fb81e2b0e8b82100000000000000000000000000000000000000000000152d02c7e14af680000000000000000000000000000000000000000000000000152d02c7e14af680000000000000000000000000000000000000000000000000000000000000000000e000000000000000000000000000000000000000000000000000000000000001000000000000000000000000000000000000000000000000000000000000000120000000000000000000000000000000000000000000000000000000000000000000000000000000000000000000000000000000000000000000000000000000000000000000000000000000000000000000000000000000000000000000000000",
        "nonce": "0x2d",
        "chainId": "0x13882"
      },
      "additionalContracts": [],
      "isFixedGasLimit": false
    }
  ],
  "receipts": [
    {
      "status": "0x1",
      "cumulativeGasUsed": "0xb47d",
      "logs": [
        {
          "address": "0x3d2bd0e15829aa5c362a4144fdf4a1112fa29b5c",
          "topics": [
            "0x8c5be1e5ebec7d5bd14f71427d1e84f3dd0314c0f7b2291e5b200ac8c7c3b925",
            "0x00000000000000000000000021af1185734d213d45c6236146fb81e2b0e8b821",
            "0x0000000000000000000000009918889e93e8c4357a2d4bce0965dcc493fffda8"
          ],
          "data": "0x00000000000000000000000000000000000000000000152d02c7e14af6800000",
          "blockHash": "0x868442d74477158dd0ed5ee617f9e86ebb89ec2219d51c00425c4c6adbad3a6d",
          "blockNumber": "0xaeadac",
          "transactionHash": "0xdc1d68ec5b2c35881cf8bccc5a60f7cabe0f0e1729980d8d5c677f5734db2941",
          "transactionIndex": "0x0",
          "logIndex": "0x0",
          "removed": false
        },
        {
          "address": "0x0000000000000000000000000000000000001010",
          "topics": [
            "0x4dfe1bbbcf077ddc3e01291eea2d5c70c2b422b415d95645b9adcfd678cb1d63",
            "0x0000000000000000000000000000000000000000000000000000000000001010",
            "0x00000000000000000000000021af1185734d213d45c6236146fb81e2b0e8b821",
            "0x00000000000000000000000004ba3ef4c023c1006019a0f9baf6e70455e41fcf"
          ],
          "data": "0x000000000000000000000000000000000000000000000000000c79c36e7584ad0000000000000000000000000000000000000000000000053c28ff22b2696a2200000000000000000000000000000000000000000000011ec046d6f6c325ae580000000000000000000000000000000000000000000000053c1c855f43f3e57500000000000000000000000000000000000000000000011ec05350ba319b3305",
          "blockHash": "0x868442d74477158dd0ed5ee617f9e86ebb89ec2219d51c00425c4c6adbad3a6d",
          "blockNumber": "0xaeadac",
          "transactionHash": "0xdc1d68ec5b2c35881cf8bccc5a60f7cabe0f0e1729980d8d5c677f5734db2941",
          "transactionIndex": "0x0",
          "logIndex": "0x1",
          "removed": false
        }
      ],
      "logsBloom": "0x40000000000000000000000000080000000000000000000000000000000004000000000000001000000000000000000000008000000000000000000000200000000000002000000000000000000000800000000000000000000100000000000000000020000000000000000000000000000000000000000080004000000000000000000000004000000000000000000000000000000000000000000000000000220000000000000008000000000000000000000000000000000080000000004000000000000000000001000000000000000000000000000000100000000000000012000000000000000000000000000000000000000000000000000000100000",
      "type": "0x2",
      "transactionHash": "0xdc1d68ec5b2c35881cf8bccc5a60f7cabe0f0e1729980d8d5c677f5734db2941",
      "transactionIndex": "0x0",
      "blockHash": "0x868442d74477158dd0ed5ee617f9e86ebb89ec2219d51c00425c4c6adbad3a6d",
      "blockNumber": "0xaeadac",
      "gasUsed": "0xb47d",
      "effectiveGasPrice": "0x11b1f3f800",
      "from": "0x21af1185734d213d45c6236146fb81e2b0e8b821",
      "to": "0x3d2bd0e15829aa5c362a4144fdf4a1112fa29b5c",
      "contractAddress": null
    },
    {
      "status": "0x1",
      "cumulativeGasUsed": "0x44954",
      "logs": [
        {
          "address": "0x0000000000000000000000000000000000001010",
          "topics": [
            "0xe6497e3ee548a3372136af2fcb0696db31fc6cf20260707645068bd3fe97f3c4",
            "0x0000000000000000000000000000000000000000000000000000000000001010",
            "0x00000000000000000000000021af1185734d213d45c6236146fb81e2b0e8b821",
            "0x0000000000000000000000009918889e93e8c4357a2d4bce0965dcc493fffda8"
          ],
          "data": "0x00000000000000000000000000000000000000000000000006edc7d7a47afd140000000000000000000000000000000000000000000000053bc4fc90a4146222000000000000000000000000000000000000000000000000000000000000000000000000000000000000000000000000000000000000000534d734b8ff99650e00000000000000000000000000000000000000000000000006edc7d7a47afd14",
          "blockHash": "0x868442d74477158dd0ed5ee617f9e86ebb89ec2219d51c00425c4c6adbad3a6d",
          "blockNumber": "0xaeadac",
          "transactionHash": "0x7aea1b0ea69b5f5a78fe854ca01d6e67f0f76c96a33c636af7c53b151d8e8aad",
          "transactionIndex": "0x1",
          "logIndex": "0x2",
          "removed": false
        },
        {
          "address": "0x3d2bd0e15829aa5c362a4144fdf4a1112fa29b5c",
          "topics": [
            "0xddf252ad1be2c89b69c2b068fc378daa952ba7f163c4a11628f55a4df523b3ef",
            "0x00000000000000000000000021af1185734d213d45c6236146fb81e2b0e8b821",
            "0x0000000000000000000000009918889e93e8c4357a2d4bce0965dcc493fffda8"
          ],
          "data": "0x00000000000000000000000000000000000000000000152d02c7e14af6800000",
          "blockHash": "0x868442d74477158dd0ed5ee617f9e86ebb89ec2219d51c00425c4c6adbad3a6d",
          "blockNumber": "0xaeadac",
          "transactionHash": "0x7aea1b0ea69b5f5a78fe854ca01d6e67f0f76c96a33c636af7c53b151d8e8aad",
          "transactionIndex": "0x1",
          "logIndex": "0x3",
          "removed": false
        },
        {
          "address": "0x0000000000000000000000000000000000001010",
          "topics": [
            "0xe6497e3ee548a3372136af2fcb0696db31fc6cf20260707645068bd3fe97f3c4",
            "0x0000000000000000000000000000000000000000000000000000000000001010",
            "0x0000000000000000000000009918889e93e8c4357a2d4bce0965dcc493fffda8",
            "0x0000000000000000000000006edce65403992e310a62460808c4b910d972f10f"
          ],
          "data": "0x00000000000000000000000000000000000000000000000006edc7d7a47afd1400000000000000000000000000000000000000000000000006edc7d7a47afd140000000000000000000000000000000000000000000000000000000000000000000000000000000000000000000000000000000000000000000000000000000000000000000000000000000000000000000000000000000006edc7d7a47afd14",
          "blockHash": "0x868442d74477158dd0ed5ee617f9e86ebb89ec2219d51c00425c4c6adbad3a6d",
          "blockNumber": "0xaeadac",
          "transactionHash": "0x7aea1b0ea69b5f5a78fe854ca01d6e67f0f76c96a33c636af7c53b151d8e8aad",
          "transactionIndex": "0x1",
          "logIndex": "0x4",
          "removed": false
        },
        {
          "address": "0x1d186c560281b8f1af831957ed5047fd3ab902f9",
          "topics": [
            "0x61ed099e74a97a1d7f8bb0952a88ca8b7b8ebd00c126ea04671f92a81213318a"
          ],
          "data": "0x0000000000000000000000004cf1b3fa61465c2c907f82fc488b43223ba0cf930000000000000000000000000000000000000000000000000699509c9ca5e4d7",
          "blockHash": "0x868442d74477158dd0ed5ee617f9e86ebb89ec2219d51c00425c4c6adbad3a6d",
          "blockNumber": "0xaeadac",
          "transactionHash": "0x7aea1b0ea69b5f5a78fe854ca01d6e67f0f76c96a33c636af7c53b151d8e8aad",
          "transactionIndex": "0x1",
          "logIndex": "0x5",
          "removed": false
        },
        {
          "address": "0x1d186c560281b8f1af831957ed5047fd3ab902f9",
          "topics": [
            "0x07ea52d82345d6e838192107d8fd7123d9c2ec8e916cd0aad13fd2b60db24644"
          ],
          "data": "0x000000000000000000000000000000000000000000000000000000000000006000000000000000000000000000000000000000000000000000000000000000a000000000000000000000000000000000000000000000000000000000000000c0000000000000000000000000000000000000000000000000000000000000000100000000000000000000000055c175dd5b039331db251424538169d8495c18d1000000000000000000000000000000000000000000000000000000000000000000000000000000000000000000000000000000000000000000000000000000010000000000000000000000000000000000000000000000000054773b07d5183d",
          "blockHash": "0x868442d74477158dd0ed5ee617f9e86ebb89ec2219d51c00425c4c6adbad3a6d",
          "blockNumber": "0xaeadac",
          "transactionHash": "0x7aea1b0ea69b5f5a78fe854ca01d6e67f0f76c96a33c636af7c53b151d8e8aad",
          "transactionIndex": "0x1",
          "logIndex": "0x6",
          "removed": false
        },
        {
          "address": "0x6edce65403992e310a62460808c4b910d972f10f",
          "topics": [
            "0x1ab700d4ced0c005b164c0f789fd09fcbb0156d4c2041b8a3bfbcd961cd1567f"
          ],
          "data": "0x000000000000000000000000000000000000000000000000000000000000006000000000000000000000000000000000000000000000000000000000000001200000000000000000000000001d186c560281b8f1af831957ed5047fd3ab902f9000000000000000000000000000000000000000000000000000000000000009901000000000000000900009d4b0000000000000000000000009918889e93e8c4357a2d4bce0965dcc493fffda800009d71000000000000000000000000b0588f9a9cade7cd5f194a5fe77acd6a58250f82359575ea728269275cef070a3e4127f23846585042028f686cdd453b511b6ae000000000000000000000000021af1185734d213d45c6236146fb81e2b0e8b821000000174876e8000000000000000000000000000000000000000000000000000000000000000000000000000000160003010011010000000000000000000000000001388000000000000000000000",
          "blockHash": "0x868442d74477158dd0ed5ee617f9e86ebb89ec2219d51c00425c4c6adbad3a6d",
          "blockNumber": "0xaeadac",
          "transactionHash": "0x7aea1b0ea69b5f5a78fe854ca01d6e67f0f76c96a33c636af7c53b151d8e8aad",
          "transactionIndex": "0x1",
          "logIndex": "0x7",
          "removed": false
        },
        {
          "address": "0x0000000000000000000000000000000000001010",
          "topics": [
            "0xe6497e3ee548a3372136af2fcb0696db31fc6cf20260707645068bd3fe97f3c4",
            "0x0000000000000000000000000000000000000000000000000000000000001010",
            "0x0000000000000000000000006edce65403992e310a62460808c4b910d972f10f",
            "0x0000000000000000000000001d186c560281b8f1af831957ed5047fd3ab902f9"
          ],
          "data": "0x00000000000000000000000000000000000000000000000006edc7d7a47afd1400000000000000000000000000000000000000000000000006edc7d7a47afd14000000000000000000000000000000000000000000000040b8be7720196ee1e40000000000000000000000000000000000000000000000000000000000000000000000000000000000000000000000000000000000000040bfac3ef7bde9def8",
          "blockHash": "0x868442d74477158dd0ed5ee617f9e86ebb89ec2219d51c00425c4c6adbad3a6d",
          "blockNumber": "0xaeadac",
          "transactionHash": "0x7aea1b0ea69b5f5a78fe854ca01d6e67f0f76c96a33c636af7c53b151d8e8aad",
          "transactionIndex": "0x1",
          "logIndex": "0x8",
          "removed": false
        },
        {
          "address": "0x9918889e93e8c4357a2d4bce0965dcc493fffda8",
          "topics": [
            "0x85496b760a4b7f8d66384b9df21b381f5d1b1e79f229a47aaf4c232edc2fe59a",
            "0x359575ea728269275cef070a3e4127f23846585042028f686cdd453b511b6ae0",
            "0x00000000000000000000000021af1185734d213d45c6236146fb81e2b0e8b821"
          ],
          "data": "0x0000000000000000000000000000000000000000000000000000000000009d7100000000000000000000000000000000000000000000152d02c7e14af680000000000000000000000000000000000000000000000000152d02c7e14af6800000",
          "blockHash": "0x868442d74477158dd0ed5ee617f9e86ebb89ec2219d51c00425c4c6adbad3a6d",
          "blockNumber": "0xaeadac",
          "transactionHash": "0x7aea1b0ea69b5f5a78fe854ca01d6e67f0f76c96a33c636af7c53b151d8e8aad",
          "transactionIndex": "0x1",
          "logIndex": "0x9",
          "removed": false
        },
        {
          "address": "0x0000000000000000000000000000000000001010",
          "topics": [
            "0x4dfe1bbbcf077ddc3e01291eea2d5c70c2b422b415d95645b9adcfd678cb1d63",
            "0x0000000000000000000000000000000000000000000000000000000000001010",
            "0x00000000000000000000000021af1185734d213d45c6236146fb81e2b0e8b821",
            "0x00000000000000000000000004ba3ef4c023c1006019a0f9baf6e70455e41fcf"
          ],
          "data": "0x000000000000000000000000000000000000000000000000003f5f99670f8f670000000000000000000000000000000000000000000000053c1c855f43e9522200000000000000000000000000000000000000000000011ec05350ba319b33050000000000000000000000000000000000000000000000053bdd25c5dcd9c2bb00000000000000000000000000000000000000000000011ec092b05398aac26c",
          "blockHash": "0x868442d74477158dd0ed5ee617f9e86ebb89ec2219d51c00425c4c6adbad3a6d",
          "blockNumber": "0xaeadac",
          "transactionHash": "0x7aea1b0ea69b5f5a78fe854ca01d6e67f0f76c96a33c636af7c53b151d8e8aad",
          "transactionIndex": "0x1",
          "logIndex": "0xa",
          "removed": false
        }
      ],
      "logsBloom": "0x400000000000000000000000000800000000000000000000000000000000040000000000000010002000001000000000000080000000000000000000000040000000028020000000000000080000008000000000000000000001000000020000000000200000000082000010000000000000000000000000a00040100000000000000000000040200000000800000000000000000000000000000000000000002000000080000000081000240000000000000800004000000004c0000000004000000002000000000001002080000000000000000008801200108000000000000002040000000000000000000000002008000000008000000000000000101000",
      "type": "0x2",
      "transactionHash": "0x7aea1b0ea69b5f5a78fe854ca01d6e67f0f76c96a33c636af7c53b151d8e8aad",
      "transactionIndex": "0x1",
      "blockHash": "0x868442d74477158dd0ed5ee617f9e86ebb89ec2219d51c00425c4c6adbad3a6d",
      "blockNumber": "0xaeadac",
      "gasUsed": "0x394d7",
      "effectiveGasPrice": "0x11b1f3f800",
      "from": "0x21af1185734d213d45c6236146fb81e2b0e8b821",
      "to": "0x9918889e93e8c4357a2d4bce0965dcc493fffda8",
      "contractAddress": null
    }
  ],
  "libraries": [],
  "pending": [],
  "returns": {},
  "timestamp": 1725220652,
  "chain": 80002,
  "commit": "42c0d8e"
}