{
  "transactions": [
    {
      "hash": "0x1b4e94ed3154308a7bd3e7493dc4bba768c04daf0b56da4c7fe4903e01469cce",
      "transactionType": "CALL",
      "contractName": null,
      "contractAddress": "0x3d2bd0e15829aa5c362a4144fdf4a1112fa29b5c",
      "function": "approve(address,uint256)",
      "arguments": [
        "0x9918889E93e8c4357a2D4bCE0965dcC493FFFDA8",
        "100000000000000000000000"
      ],
      "transaction": {
        "from": "0x21af1185734d213d45c6236146fb81e2b0e8b821",
        "to": "0x3d2bd0e15829aa5c362a4144fdf4a1112fa29b5c",
        "gas": "0xf94b",
        "value": "0x0",
        "input": "0x095ea7b30000000000000000000000009918889e93e8c4357a2d4bce0965dcc493fffda800000000000000000000000000000000000000000000152d02c7e14af6800000",
        "nonce": "0x19",
        "chainId": "0x13882"
      },
      "additionalContracts": [],
      "isFixedGasLimit": false
    },
    {
      "hash": "0xf0a5b5ace81360fceab7f3101ac1a67ca459d12fb9789579f2436cc6b3f2513a",
      "transactionType": "CALL",
      "contractName": null,
      "contractAddress": "0x9918889e93e8c4357a2d4bce0965dcc493fffda8",
      "function": "send((uint32,bytes32,uint256,uint256,bytes,bytes,bytes),(uint256,uint256),address)",
      "arguments": [
        "(40305, 0x00000000000000000000000021af1185734d213d45c6236146fb81e2b0e8b821, 100000000000000000000000, 100000000000000000000000, 0x, 0x, 0x)",
        "(403799561589047416, 0)",
        "0x5b73C5498c1E3b4dbA84de0F1833c4a029d90519"
      ],
      "transaction": {
        "from": "0x21af1185734d213d45c6236146fb81e2b0e8b821",
        "to": "0x9918889e93e8c4357a2d4bce0965dcc493fffda8",
        "gas": "0x4f262",
        "value": "0x59a958fd4f94078",
        "input": "0xc7c7f5b30000000000000000000000000000000000000000000000000000000000000080000000000000000000000000000000000000000000000000059a958fd4f9407800000000000000000000000000000000000000000000000000000000000000000000000000000000000000005b73c5498c1e3b4dba84de0f1833c4a029d905190000000000000000000000000000000000000000000000000000000000009d7100000000000000000000000021af1185734d213d45c6236146fb81e2b0e8b82100000000000000000000000000000000000000000000152d02c7e14af680000000000000000000000000000000000000000000000000152d02c7e14af680000000000000000000000000000000000000000000000000000000000000000000e000000000000000000000000000000000000000000000000000000000000001000000000000000000000000000000000000000000000000000000000000000120000000000000000000000000000000000000000000000000000000000000000000000000000000000000000000000000000000000000000000000000000000000000000000000000000000000000000000000000000000000000000000000000",
        "nonce": "0x1a",
        "chainId": "0x13882"
      },
      "additionalContracts": [],
      "isFixedGasLimit": false
    }
  ],
  "receipts": [
    {
      "status": "0x1",
      "cumulativeGasUsed": "0x1f3055",
      "logs": [
        {
          "address": "0x3d2bd0e15829aa5c362a4144fdf4a1112fa29b5c",
          "topics": [
            "0x8c5be1e5ebec7d5bd14f71427d1e84f3dd0314c0f7b2291e5b200ac8c7c3b925",
            "0x00000000000000000000000021af1185734d213d45c6236146fb81e2b0e8b821",
            "0x0000000000000000000000009918889e93e8c4357a2d4bce0965dcc493fffda8"
          ],
          "data": "0x00000000000000000000000000000000000000000000152d02c7e14af6800000",
          "blockHash": "0x187a19af503094c613c0e9c2719a6d8994a72cdba59637d944a822976adb6553",
          "blockNumber": "0xab6923",
          "transactionHash": "0x1b4e94ed3154308a7bd3e7493dc4bba768c04daf0b56da4c7fe4903e01469cce",
          "transactionIndex": "0x3",
          "logIndex": "0x4b",
          "removed": false
        },
        {
          "address": "0x0000000000000000000000000000000000001010",
          "topics": [
            "0x4dfe1bbbcf077ddc3e01291eea2d5c70c2b422b415d95645b9adcfd678cb1d63",
            "0x0000000000000000000000000000000000000000000000000000000000001010",
            "0x00000000000000000000000021af1185734d213d45c6236146fb81e2b0e8b821",
            "0x000000000000000000000000d07dd60077d3a5628837ada6002ea8ac5e689795"
          ],
          "data": "0x00000000000000000000000000000000000000000000000000041a947f4bd2000000000000000000000000000000000000000000000000056ce7c9882d34cbdf00000000000000000000000000000000000000000000001770cda165205f4cce0000000000000000000000000000000000000000000000056ce3aef3ade8f9df00000000000000000000000000000000000000000000001770d1bbf99fab1ece",
          "blockHash": "0x187a19af503094c613c0e9c2719a6d8994a72cdba59637d944a822976adb6553",
          "blockNumber": "0xab6923",
          "transactionHash": "0x1b4e94ed3154308a7bd3e7493dc4bba768c04daf0b56da4c7fe4903e01469cce",
          "transactionIndex": "0x3",
          "logIndex": "0x4c",
          "removed": false
        }
      ],
      "logsBloom": "0x40000000000000000200000000080000000000000000000000000000000000000000000000001000000000000000000000008000000000000000000000200000000000002000000000000000000000800000000000000000000100000000000000000020000000000000000000000000000000000000000080004000000000000000000000000000000000000000000000000000000000000000000000000001220000000000000008000000000000000000000000000000000080000000004000000000000000000001000000000000000000000000000000100000000000000012000000000000000000000000000000000000000000000020000000100000",
      "type": "0x2",
      "transactionHash": "0x1b4e94ed3154308a7bd3e7493dc4bba768c04daf0b56da4c7fe4903e01469cce",
      "transactionIndex": "0x3",
      "blockHash": "0x187a19af503094c613c0e9c2719a6d8994a72cdba59637d944a822976adb6553",
      "blockNumber": "0xab6923",
      "gasUsed": "0xb47d",
      "effectiveGasPrice": "0x5d21dba0f",
      "from": "0x21af1185734d213d45c6236146fb81e2b0e8b821",
      "to": "0x3d2bd0e15829aa5c362a4144fdf4a1112fa29b5c",
      "contractAddress": null
    },
    {
      "status": "0x1",
      "cumulativeGasUsed": "0x22c52c",
      "logs": [
        {
          "address": "0x0000000000000000000000000000000000001010",
          "topics": [
            "0xe6497e3ee548a3372136af2fcb0696db31fc6cf20260707645068bd3fe97f3c4",
            "0x0000000000000000000000000000000000000000000000000000000000001010",
            "0x00000000000000000000000021af1185734d213d45c6236146fb81e2b0e8b821",
            "0x0000000000000000000000009918889e93e8c4357a2d4bce0965dcc493fffda8"
          ],
          "data": "0x000000000000000000000000000000000000000000000000059a958fd4f940780000000000000000000000000000000000000000000000056cc6e3a23c5efece0000000000000000000000000000000000000000000000000000000000000000000000000000000000000000000000000000000000000005672c4e126765be56000000000000000000000000000000000000000000000000059a958fd4f94078",
          "blockHash": "0x187a19af503094c613c0e9c2719a6d8994a72cdba59637d944a822976adb6553",
          "blockNumber": "0xab6923",
          "transactionHash": "0xf0a5b5ace81360fceab7f3101ac1a67ca459d12fb9789579f2436cc6b3f2513a",
          "transactionIndex": "0x4",
          "logIndex": "0x4d",
          "removed": false
        },
        {
          "address": "0x3d2bd0e15829aa5c362a4144fdf4a1112fa29b5c",
          "topics": [
            "0xddf252ad1be2c89b69c2b068fc378daa952ba7f163c4a11628f55a4df523b3ef",
            "0x00000000000000000000000021af1185734d213d45c6236146fb81e2b0e8b821",
            "0x0000000000000000000000009918889e93e8c4357a2d4bce0965dcc493fffda8"
          ],
          "data": "0x00000000000000000000000000000000000000000000152d02c7e14af6800000",
          "blockHash": "0x187a19af503094c613c0e9c2719a6d8994a72cdba59637d944a822976adb6553",
          "blockNumber": "0xab6923",
          "transactionHash": "0xf0a5b5ace81360fceab7f3101ac1a67ca459d12fb9789579f2436cc6b3f2513a",
          "transactionIndex": "0x4",
          "logIndex": "0x4e",
          "removed": false
        },
        {
          "address": "0x0000000000000000000000000000000000001010",
          "topics": [
            "0xe6497e3ee548a3372136af2fcb0696db31fc6cf20260707645068bd3fe97f3c4",
            "0x0000000000000000000000000000000000000000000000000000000000001010",
            "0x0000000000000000000000009918889e93e8c4357a2d4bce0965dcc493fffda8",
            "0x0000000000000000000000006edce65403992e310a62460808c4b910d972f10f"
          ],
          "data": "0x000000000000000000000000000000000000000000000000059a958fd4f94078000000000000000000000000000000000000000000000000059a958fd4f9407800000000000000000000000000000000000000000000000000000000000000000000000000000000000000000000000000000000000000000000000000000000000000000000000000000000000000000000000000000000059a958fd4f94078",
          "blockHash": "0x187a19af503094c613c0e9c2719a6d8994a72cdba59637d944a822976adb6553",
          "blockNumber": "0xab6923",
          "transactionHash": "0xf0a5b5ace81360fceab7f3101ac1a67ca459d12fb9789579f2436cc6b3f2513a",
          "transactionIndex": "0x4",
          "logIndex": "0x4f",
          "removed": false
        },
        {
          "address": "0x1d186c560281b8f1af831957ed5047fd3ab902f9",
          "topics": [
            "0x61ed099e74a97a1d7f8bb0952a88ca8b7b8ebd00c126ea04671f92a81213318a"
          ],
          "data": "0x0000000000000000000000004cf1b3fa61465c2c907f82fc488b43223ba0cf930000000000000000000000000000000000000000000000000556454c07c8cfb0",
          "blockHash": "0x187a19af503094c613c0e9c2719a6d8994a72cdba59637d944a822976adb6553",
          "blockNumber": "0xab6923",
          "transactionHash": "0xf0a5b5ace81360fceab7f3101ac1a67ca459d12fb9789579f2436cc6b3f2513a",
          "transactionIndex": "0x4",
          "logIndex": "0x50",
          "removed": false
        },
        {
          "address": "0x1d186c560281b8f1af831957ed5047fd3ab902f9",
          "topics": [
            "0x07ea52d82345d6e838192107d8fd7123d9c2ec8e916cd0aad13fd2b60db24644"
          ],
          "data": "0x000000000000000000000000000000000000000000000000000000000000006000000000000000000000000000000000000000000000000000000000000000a000000000000000000000000000000000000000000000000000000000000000c0000000000000000000000000000000000000000000000000000000000000000100000000000000000000000055c175dd5b039331db251424538169d8495c18d10000000000000000000000000000000000000000000000000000000000000000000000000000000000000000000000000000000000000000000000000000000100000000000000000000000000000000000000000000000000445043cd3070c8",
          "blockHash": "0x187a19af503094c613c0e9c2719a6d8994a72cdba59637d944a822976adb6553",
          "blockNumber": "0xab6923",
          "transactionHash": "0xf0a5b5ace81360fceab7f3101ac1a67ca459d12fb9789579f2436cc6b3f2513a",
          "transactionIndex": "0x4",
          "logIndex": "0x51",
          "removed": false
        },
        {
          "address": "0x6edce65403992e310a62460808c4b910d972f10f",
          "topics": [
            "0x1ab700d4ced0c005b164c0f789fd09fcbb0156d4c2041b8a3bfbcd961cd1567f"
          ],
          "data": "0x000000000000000000000000000000000000000000000000000000000000006000000000000000000000000000000000000000000000000000000000000001200000000000000000000000001d186c560281b8f1af831957ed5047fd3ab902f9000000000000000000000000000000000000000000000000000000000000009901000000000000000200009d4b0000000000000000000000009918889e93e8c4357a2d4bce0965dcc493fffda800009d71000000000000000000000000b0588f9a9cade7cd5f194a5fe77acd6a58250f828af7116af7a7f0432a0124c2b579840770411974b44581d2f5081d60d554513b00000000000000000000000021af1185734d213d45c6236146fb81e2b0e8b821000000174876e8000000000000000000000000000000000000000000000000000000000000000000000000000000160003010011010000000000000000000000000000fde800000000000000000000",
          "blockHash": "0x187a19af503094c613c0e9c2719a6d8994a72cdba59637d944a822976adb6553",
          "blockNumber": "0xab6923",
          "transactionHash": "0xf0a5b5ace81360fceab7f3101ac1a67ca459d12fb9789579f2436cc6b3f2513a",
          "transactionIndex": "0x4",
          "logIndex": "0x52",
          "removed": false
        },
        {
          "address": "0x0000000000000000000000000000000000001010",
          "topics": [
            "0xe6497e3ee548a3372136af2fcb0696db31fc6cf20260707645068bd3fe97f3c4",
            "0x0000000000000000000000000000000000000000000000000000000000001010",
            "0x0000000000000000000000006edce65403992e310a62460808c4b910d972f10f",
            "0x0000000000000000000000001d186c560281b8f1af831957ed5047fd3ab902f9"
          ],
          "data": "0x000000000000000000000000000000000000000000000000059a958fd4f94078000000000000000000000000000000000000000000000000059a958fd4f9407800000000000000000000000000000000000000000000004050dbceeaea0e74b300000000000000000000000000000000000000000000000000000000000000000000000000000000000000000000000000000000000000405676647abf07b52b",
          "blockHash": "0x187a19af503094c613c0e9c2719a6d8994a72cdba59637d944a822976adb6553",
          "blockNumber": "0xab6923",
          "transactionHash": "0xf0a5b5ace81360fceab7f3101ac1a67ca459d12fb9789579f2436cc6b3f2513a",
          "transactionIndex": "0x4",
          "logIndex": "0x53",
          "removed": false
        },
        {
          "address": "0x9918889e93e8c4357a2d4bce0965dcc493fffda8",
          "topics": [
            "0x85496b760a4b7f8d66384b9df21b381f5d1b1e79f229a47aaf4c232edc2fe59a",
            "0x8af7116af7a7f0432a0124c2b579840770411974b44581d2f5081d60d554513b",
            "0x00000000000000000000000021af1185734d213d45c6236146fb81e2b0e8b821"
          ],
          "data": "0x0000000000000000000000000000000000000000000000000000000000009d7100000000000000000000000000000000000000000000152d02c7e14af680000000000000000000000000000000000000000000000000152d02c7e14af6800000",
          "blockHash": "0x187a19af503094c613c0e9c2719a6d8994a72cdba59637d944a822976adb6553",
          "blockNumber": "0xab6923",
          "transactionHash": "0xf0a5b5ace81360fceab7f3101ac1a67ca459d12fb9789579f2436cc6b3f2513a",
          "transactionIndex": "0x4",
          "logIndex": "0x54",
          "removed": false
        },
        {
          "address": "0x0000000000000000000000000000000000001010",
          "topics": [
            "0x4dfe1bbbcf077ddc3e01291eea2d5c70c2b422b415d95645b9adcfd678cb1d63",
            "0x0000000000000000000000000000000000000000000000000000000000001010",
            "0x00000000000000000000000021af1185734d213d45c6236146fb81e2b0e8b821",
            "0x000000000000000000000000d07dd60077d3a5628837ada6002ea8ac5e689795"
          ],
          "data": "0x0000000000000000000000000000000000000000000000000014d8b5d47f36000000000000000000000000000000000000000000000000056ce3aef3adde668c00000000000000000000000000000000000000000000001770d1bbf99fab1ece0000000000000000000000000000000000000000000000056cced63dd95f308c00000000000000000000000000000000000000000000001770e694af742a54ce",
          "blockHash": "0x187a19af503094c613c0e9c2719a6d8994a72cdba59637d944a822976adb6553",
          "blockNumber": "0xab6923",
          "transactionHash": "0xf0a5b5ace81360fceab7f3101ac1a67ca459d12fb9789579f2436cc6b3f2513a",
          "transactionIndex": "0x4",
          "logIndex": "0x55",
          "removed": false
        }
      ],
      "logsBloom": "0x400000000000000002000000000800002000000000000000000000000000000000000000000010002000001000800000000080000000000000000000000040000000028020000000000000080000008000000000000000000001000000020000000000200000000082000010000000000000000000000000800040100000000000000000000000200000000800000000000000000000000000000000000000012000000080000000081000240000000000000800004000000004c0000000004000000002000000000001002080200000000000000008801200108000000000000002040000000000000000000000002008000000008000000020000000100000",
      "type": "0x2",
      "transactionHash": "0xf0a5b5ace81360fceab7f3101ac1a67ca459d12fb9789579f2436cc6b3f2513a",
      "transactionIndex": "0x4",
      "blockHash": "0x187a19af503094c613c0e9c2719a6d8994a72cdba59637d944a822976adb6553",
      "blockNumber": "0xab6923",
      "gasUsed": "0x394d7",
      "effectiveGasPrice": "0x5d21dba0f",
      "from": "0x21af1185734d213d45c6236146fb81e2b0e8b821",
      "to": "0x9918889e93e8c4357a2d4bce0965dcc493fffda8",
      "contractAddress": null
    }
  ],
  "libraries": [],
  "pending": [],
  "returns": {},
  "timestamp": 1724764041,
  "chain": 80002,
  "commit": "3f5ecff"
}