{
  "transactions": [
    {
      "hash": "0x80676516b09f2667c250515215ba42ff9419ad8c8cebacd141217e3fa3bb23e4",
      "transactionType": "CALL",
      "contractName": null,
      "contractAddress": "0x3d2bd0e15829aa5c362a4144fdf4a1112fa29b5c",
      "function": "approve(address,uint256)",
      "arguments": [
        "0x9918889E93e8c4357a2D4bCE0965dcC493FFFDA8",
        "50000000000000000000"
      ],
      "transaction": {
        "from": "0x21af1185734d213d45c6236146fb81e2b0e8b821",
        "to": "0x3d2bd0e15829aa5c362a4144fdf4a1112fa29b5c",
        "gas": "0x107e5",
        "value": "0x0",
        "input": "0x095ea7b30000000000000000000000009918889e93e8c4357a2d4bce0965dcc493fffda8000000000000000000000000000000000000000000000002b5e3af16b1880000",
        "nonce": "0x55",
        "chainId": "0x13882"
      },
      "additionalContracts": [],
      "isFixedGasLimit": false
    },
    {
      "hash": "0x4c0e074f049dde542e1d7b7d981954012c5d40b635bc197f63b5993eca2f28a0",
      "transactionType": "CALL",
      "contractName": null,
      "contractAddress": "0x9918889e93e8c4357a2d4bce0965dcc493fffda8",
      "function": "send((uint32,bytes32,uint256,uint256,bytes,bytes,bytes),(uint256,uint256),address)",
      "arguments": [
        "(40245, 0x00000000000000000000000021af1185734d213d45c6236146fb81e2b0e8b821, 50000000000000000000, 50000000000000000000, 0x, 0x, 0x)",
        "(557298754843210181, 0)",
        "0x5b73C5498c1E3b4dbA84de0F1833c4a029d90519"
      ],
      "transaction": {
        "from": "0x21af1185734d213d45c6236146fb81e2b0e8b821",
        "to": "0x9918889e93e8c4357a2d4bce0965dcc493fffda8",
        "gas": "0x4f240",
        "value": "0x7bbec43cc3271c5",
        "input": "0xc7c7f5b3000000000000000000000000000000000000000000000000000000000000008000000000000000000000000000000000000000000000000007bbec43cc3271c500000000000000000000000000000000000000000000000000000000000000000000000000000000000000005b73c5498c1e3b4dba84de0f1833c4a029d905190000000000000000000000000000000000000000000000000000000000009d3500000000000000000000000021af1185734d213d45c6236146fb81e2b0e8b821000000000000000000000000000000000000000000000002b5e3af16b1880000000000000000000000000000000000000000000000000002b5e3af16b188000000000000000000000000000000000000000000000000000000000000000000e000000000000000000000000000000000000000000000000000000000000001000000000000000000000000000000000000000000000000000000000000000120000000000000000000000000000000000000000000000000000000000000000000000000000000000000000000000000000000000000000000000000000000000000000000000000000000000000000000000000000000000000000000000000",
        "nonce": "0x56",
        "chainId": "0x13882"
      },
      "additionalContracts": [],
      "isFixedGasLimit": false
    },
    {
      "hash": "0xab852ef683be32d203df0259b2c9cc63b8b698192955528b1ef3d215a2fd5fe5",
      "transactionType": "CALL",
      "contractName": null,
      "contractAddress": "0x3d2bd0e15829aa5c362a4144fdf4a1112fa29b5c",
      "function": "approve(address,uint256)",
      "arguments": [
        "0x9918889E93e8c4357a2D4bCE0965dcC493FFFDA8",
        "100000000000000000000"
      ],
      "transaction": {
        "from": "0x21af1185734d213d45c6236146fb81e2b0e8b821",
        "to": "0x3d2bd0e15829aa5c362a4144fdf4a1112fa29b5c",
        "gas": "0x107e5",
        "value": "0x0",
        "input": "0x095ea7b30000000000000000000000009918889e93e8c4357a2d4bce0965dcc493fffda80000000000000000000000000000000000000000000000056bc75e2d63100000",
        "nonce": "0x57",
        "chainId": "0x13882"
      },
      "additionalContracts": [],
      "isFixedGasLimit": false
    },
    {
      "hash": "0xcf1e8dce48b36480aa80818109778d493fd665ae3d9ff45ccb2578b07cf25100",
      "transactionType": "CALL",
      "contractName": null,
      "contractAddress": "0x9918889e93e8c4357a2d4bce0965dcc493fffda8",
      "function": "send((uint32,bytes32,uint256,uint256,bytes,bytes,bytes),(uint256,uint256),address)",
      "arguments": [
        "(40245, 0x00000000000000000000000021af1185734d213d45c6236146fb81e2b0e8b821, 100000000000000000000, 100000000000000000000, 0x, 0x, 0x)",
        "(557298754843210181, 0)",
        "0x5b73C5498c1E3b4dbA84de0F1833c4a029d90519"
      ],
      "transaction": {
        "from": "0x21af1185734d213d45c6236146fb81e2b0e8b821",
        "to": "0x9918889e93e8c4357a2d4bce0965dcc493fffda8",
        "gas": "0x4f240",
        "value": "0x7bbec43cc3271c5",
        "input": "0xc7c7f5b3000000000000000000000000000000000000000000000000000000000000008000000000000000000000000000000000000000000000000007bbec43cc3271c500000000000000000000000000000000000000000000000000000000000000000000000000000000000000005b73c5498c1e3b4dba84de0f1833c4a029d905190000000000000000000000000000000000000000000000000000000000009d3500000000000000000000000021af1185734d213d45c6236146fb81e2b0e8b8210000000000000000000000000000000000000000000000056bc75e2d631000000000000000000000000000000000000000000000000000056bc75e2d6310000000000000000000000000000000000000000000000000000000000000000000e000000000000000000000000000000000000000000000000000000000000001000000000000000000000000000000000000000000000000000000000000000120000000000000000000000000000000000000000000000000000000000000000000000000000000000000000000000000000000000000000000000000000000000000000000000000000000000000000000000000000000000000000000000000",
        "nonce": "0x58",
        "chainId": "0x13882"
      },
      "additionalContracts": [],
      "isFixedGasLimit": false
    },
    {
      "hash": "0x1045fcc5a6aabcb94dda36e4a775067a2e163ef6cbc077a73840f1faf0ecdc56",
      "transactionType": "CALL",
      "contractName": null,
      "contractAddress": "0x3d2bd0e15829aa5c362a4144fdf4a1112fa29b5c",
      "function": "approve(address,uint256)",
      "arguments": [
        "0x9918889E93e8c4357a2D4bCE0965dcC493FFFDA8",
        "1000000000000000000000"
      ],
      "transaction": {
        "from": "0x21af1185734d213d45c6236146fb81e2b0e8b821",
        "to": "0x3d2bd0e15829aa5c362a4144fdf4a1112fa29b5c",
        "gas": "0x107e5",
        "value": "0x0",
        "input": "0x095ea7b30000000000000000000000009918889e93e8c4357a2d4bce0965dcc493fffda800000000000000000000000000000000000000000000003635c9adc5dea00000",
        "nonce": "0x59",
        "chainId": "0x13882"
      },
      "additionalContracts": [],
      "isFixedGasLimit": false
    },
    {
      "hash": "0x9a4dfd417a8cf920f8f638a387f02a20701a1b0840d71bff8465c5fb7d50e5b6",
      "transactionType": "CALL",
      "contractName": null,
      "contractAddress": "0x9918889e93e8c4357a2d4bce0965dcc493fffda8",
      "function": "send((uint32,bytes32,uint256,uint256,bytes,bytes,bytes),(uint256,uint256),address)",
      "arguments": [
        "(40245, 0x00000000000000000000000021af1185734d213d45c6236146fb81e2b0e8b821, 1000000000000000000000, 1000000000000000000000, 0x, 0x, 0x)",
        "(557298754843210181, 0)",
        "0x5b73C5498c1E3b4dbA84de0F1833c4a029d90519"
      ],
      "transaction": {
        "from": "0x21af1185734d213d45c6236146fb81e2b0e8b821",
        "to": "0x9918889e93e8c4357a2d4bce0965dcc493fffda8",
        "gas": "0x4f240",
        "value": "0x7bbec43cc3271c5",
        "input": "0xc7c7f5b3000000000000000000000000000000000000000000000000000000000000008000000000000000000000000000000000000000000000000007bbec43cc3271c500000000000000000000000000000000000000000000000000000000000000000000000000000000000000005b73c5498c1e3b4dba84de0f1833c4a029d905190000000000000000000000000000000000000000000000000000000000009d3500000000000000000000000021af1185734d213d45c6236146fb81e2b0e8b82100000000000000000000000000000000000000000000003635c9adc5dea0000000000000000000000000000000000000000000000000003635c9adc5dea0000000000000000000000000000000000000000000000000000000000000000000e000000000000000000000000000000000000000000000000000000000000001000000000000000000000000000000000000000000000000000000000000000120000000000000000000000000000000000000000000000000000000000000000000000000000000000000000000000000000000000000000000000000000000000000000000000000000000000000000000000000000000000000000000000000",
        "nonce": "0x5a",
        "chainId": "0x13882"
      },
      "additionalContracts": [],
      "isFixedGasLimit": false
    },
    {
      "hash": "0xcc03ad3069f7486628363ce4799d65654d4ac17b6d965e3d7fc5d84b55473666",
      "transactionType": "CALL",
      "contractName": null,
      "contractAddress": "0x3d2bd0e15829aa5c362a4144fdf4a1112fa29b5c",
      "function": "approve(address,uint256)",
      "arguments": [
        "0x9918889E93e8c4357a2D4bCE0965dcC493FFFDA8",
        "10000000000000000000000"
      ],
      "transaction": {
        "from": "0x21af1185734d213d45c6236146fb81e2b0e8b821",
        "to": "0x3d2bd0e15829aa5c362a4144fdf4a1112fa29b5c",
        "gas": "0xf94b",
        "value": "0x0",
        "input": "0x095ea7b30000000000000000000000009918889e93e8c4357a2d4bce0965dcc493fffda800000000000000000000000000000000000000000000021e19e0c9bab2400000",
        "nonce": "0x5b",
        "chainId": "0x13882"
      },
      "additionalContracts": [],
      "isFixedGasLimit": false
    },
    {
      "hash": "0x54d48afb81174706a2d8031a226e11fba328358a6a1fad08581c2dd1c9f680ff",
      "transactionType": "CALL",
      "contractName": null,
      "contractAddress": "0x9918889e93e8c4357a2d4bce0965dcc493fffda8",
      "function": "send((uint32,bytes32,uint256,uint256,bytes,bytes,bytes),(uint256,uint256),address)",
      "arguments": [
        "(40245, 0x00000000000000000000000021af1185734d213d45c6236146fb81e2b0e8b821, 10000000000000000000000, 10000000000000000000000, 0x, 0x, 0x)",
        "(557298754843210181, 0)",
        "0x5b73C5498c1E3b4dbA84de0F1833c4a029d90519"
      ],
      "transaction": {
        "from": "0x21af1185734d213d45c6236146fb81e2b0e8b821",
        "to": "0x9918889e93e8c4357a2d4bce0965dcc493fffda8",
        "gas": "0x4f262",
        "value": "0x7bbec43cc3271c5",
        "input": "0xc7c7f5b3000000000000000000000000000000000000000000000000000000000000008000000000000000000000000000000000000000000000000007bbec43cc3271c500000000000000000000000000000000000000000000000000000000000000000000000000000000000000005b73c5498c1e3b4dba84de0f1833c4a029d905190000000000000000000000000000000000000000000000000000000000009d3500000000000000000000000021af1185734d213d45c6236146fb81e2b0e8b82100000000000000000000000000000000000000000000021e19e0c9bab240000000000000000000000000000000000000000000000000021e19e0c9bab240000000000000000000000000000000000000000000000000000000000000000000e000000000000000000000000000000000000000000000000000000000000001000000000000000000000000000000000000000000000000000000000000000120000000000000000000000000000000000000000000000000000000000000000000000000000000000000000000000000000000000000000000000000000000000000000000000000000000000000000000000000000000000000000000000000",
        "nonce": "0x5c",
        "chainId": "0x13882"
      },
      "additionalContracts": [],
      "isFixedGasLimit": false
    },
    {
      "hash": "0x62607d6f9bd5e762eef8ee410a5b2178a1cd1b63ca207a87e2293d1c8e41a9a8",
      "transactionType": "CALL",
      "contractName": null,
      "contractAddress": "0x3d2bd0e15829aa5c362a4144fdf4a1112fa29b5c",
      "function": "approve(address,uint256)",
      "arguments": [
        "0x9918889E93e8c4357a2D4bCE0965dcC493FFFDA8",
        "100000000000000000000000"
      ],
      "transaction": {
        "from": "0x21af1185734d213d45c6236146fb81e2b0e8b821",
        "to": "0x3d2bd0e15829aa5c362a4144fdf4a1112fa29b5c",
        "gas": "0xf94b",
        "value": "0x0",
        "input": "0x095ea7b30000000000000000000000009918889e93e8c4357a2d4bce0965dcc493fffda800000000000000000000000000000000000000000000152d02c7e14af6800000",
        "nonce": "0x5d",
        "chainId": "0x13882"
      },
      "additionalContracts": [],
      "isFixedGasLimit": false
    },
    {
      "hash": "0x3fc97ce47eda4709212023bdcc37ade46de5d26b425b40a033d855c8bfea9088",
      "transactionType": "CALL",
      "contractName": null,
      "contractAddress": "0x9918889e93e8c4357a2d4bce0965dcc493fffda8",
      "function": "send((uint32,bytes32,uint256,uint256,bytes,bytes,bytes),(uint256,uint256),address)",
      "arguments": [
        "(40245, 0x00000000000000000000000021af1185734d213d45c6236146fb81e2b0e8b821, 100000000000000000000000, 100000000000000000000000, 0x, 0x, 0x)",
        "(557298754843210181, 0)",
        "0x5b73C5498c1E3b4dbA84de0F1833c4a029d90519"
      ],
      "transaction": {
        "from": "0x21af1185734d213d45c6236146fb81e2b0e8b821",
        "to": "0x9918889e93e8c4357a2d4bce0965dcc493fffda8",
        "gas": "0x4f262",
        "value": "0x7bbec43cc3271c5",
        "input": "0xc7c7f5b3000000000000000000000000000000000000000000000000000000000000008000000000000000000000000000000000000000000000000007bbec43cc3271c500000000000000000000000000000000000000000000000000000000000000000000000000000000000000005b73c5498c1e3b4dba84de0f1833c4a029d905190000000000000000000000000000000000000000000000000000000000009d3500000000000000000000000021af1185734d213d45c6236146fb81e2b0e8b82100000000000000000000000000000000000000000000152d02c7e14af680000000000000000000000000000000000000000000000000152d02c7e14af680000000000000000000000000000000000000000000000000000000000000000000e000000000000000000000000000000000000000000000000000000000000001000000000000000000000000000000000000000000000000000000000000000120000000000000000000000000000000000000000000000000000000000000000000000000000000000000000000000000000000000000000000000000000000000000000000000000000000000000000000000000000000000000000000000000",
        "nonce": "0x5e",
        "chainId": "0x13882"
      },
      "additionalContracts": [],
      "isFixedGasLimit": false
    },
    {
      "hash": "0x8b2945110e4a72a26618c121bec0dcef3254837fca3c2d12d6e827e2e8c74bac",
      "transactionType": "CALL",
      "contractName": null,
      "contractAddress": "0x3d2bd0e15829aa5c362a4144fdf4a1112fa29b5c",
      "function": "approve(address,uint256)",
      "arguments": [
        "0x9918889E93e8c4357a2D4bCE0965dcC493FFFDA8",
        "200000000000000000000000"
      ],
      "transaction": {
        "from": "0x21af1185734d213d45c6236146fb81e2b0e8b821",
        "to": "0x3d2bd0e15829aa5c362a4144fdf4a1112fa29b5c",
        "gas": "0x107e5",
        "value": "0x0",
        "input": "0x095ea7b30000000000000000000000009918889e93e8c4357a2d4bce0965dcc493fffda8000000000000000000000000000000000000000000002a5a058fc295ed000000",
        "nonce": "0x5f",
        "chainId": "0x13882"
      },
      "additionalContracts": [],
      "isFixedGasLimit": false
    },
    {
      "hash": "0x9b58b7750ebae25ec65772678780d7143d31313db195832f8bbdb12fbc7071c4",
      "transactionType": "CALL",
      "contractName": null,
      "contractAddress": "0x9918889e93e8c4357a2d4bce0965dcc493fffda8",
      "function": "send((uint32,bytes32,uint256,uint256,bytes,bytes,bytes),(uint256,uint256),address)",
      "arguments": [
        "(40245, 0x00000000000000000000000021af1185734d213d45c6236146fb81e2b0e8b821, 200000000000000000000000, 200000000000000000000000, 0x, 0x, 0x)",
        "(557298754843210181, 0)",
        "0x5b73C5498c1E3b4dbA84de0F1833c4a029d90519"
      ],
      "transaction": {
        "from": "0x21af1185734d213d45c6236146fb81e2b0e8b821",
        "to": "0x9918889e93e8c4357a2d4bce0965dcc493fffda8",
        "gas": "0x4f240",
        "value": "0x7bbec43cc3271c5",
        "input": "0xc7c7f5b3000000000000000000000000000000000000000000000000000000000000008000000000000000000000000000000000000000000000000007bbec43cc3271c500000000000000000000000000000000000000000000000000000000000000000000000000000000000000005b73c5498c1e3b4dba84de0f1833c4a029d905190000000000000000000000000000000000000000000000000000000000009d3500000000000000000000000021af1185734d213d45c6236146fb81e2b0e8b821000000000000000000000000000000000000000000002a5a058fc295ed000000000000000000000000000000000000000000000000002a5a058fc295ed00000000000000000000000000000000000000000000000000000000000000000000e000000000000000000000000000000000000000000000000000000000000001000000000000000000000000000000000000000000000000000000000000000120000000000000000000000000000000000000000000000000000000000000000000000000000000000000000000000000000000000000000000000000000000000000000000000000000000000000000000000000000000000000000000000000",
        "nonce": "0x60",
        "chainId": "0x13882"
      },
      "additionalContracts": [],
      "isFixedGasLimit": false
    }
  ],
  "receipts": [
    {
      "status": "0x1",
      "cumulativeGasUsed": "0xb471",
      "logs": [
        {
          "address": "0x3d2bd0e15829aa5c362a4144fdf4a1112fa29b5c",
          "topics": [
            "0x8c5be1e5ebec7d5bd14f71427d1e84f3dd0314c0f7b2291e5b200ac8c7c3b925",
            "0x00000000000000000000000021af1185734d213d45c6236146fb81e2b0e8b821",
            "0x0000000000000000000000009918889e93e8c4357a2d4bce0965dcc493fffda8"
          ],
          "data": "0x000000000000000000000000000000000000000000000002b5e3af16b1880000",
          "blockHash": "0xa31c57c57dbed89bc477654bd408d11b1338f7f6be09b68da9fee0aaa9df5d2b",
          "blockNumber": "0xb57c20",
          "transactionHash": "0x80676516b09f2667c250515215ba42ff9419ad8c8cebacd141217e3fa3bb23e4",
          "transactionIndex": "0x0",
          "logIndex": "0x0",
          "removed": false
        },
        {
          "address": "0x0000000000000000000000000000000000001010",
          "topics": [
            "0x4dfe1bbbcf077ddc3e01291eea2d5c70c2b422b415d95645b9adcfd678cb1d63",
            "0x0000000000000000000000000000000000000000000000000000000000001010",
            "0x00000000000000000000000021af1185734d213d45c6236146fb81e2b0e8b821",
            "0x000000000000000000000000915a2284d28bd93de7d6f31173b981204bb666e6"
          ],
          "data": "0x00000000000000000000000000000000000000000000000000056a67d0b5d7610000000000000000000000000000000000000000000000045023ffc61ca6b92800000000000000000000000000000000000000000000039a795d4e58beeefe67000000000000000000000000000000000000000000000004501e955e4bf0e1c700000000000000000000000000000000000000000000039a7962b8c08fa4d5c8",
          "blockHash": "0xa31c57c57dbed89bc477654bd408d11b1338f7f6be09b68da9fee0aaa9df5d2b",
          "blockNumber": "0xb57c20",
          "transactionHash": "0x80676516b09f2667c250515215ba42ff9419ad8c8cebacd141217e3fa3bb23e4",
          "transactionIndex": "0x0",
          "logIndex": "0x1",
          "removed": false
        }
      ],
      "logsBloom": "0x40000000000000000010000000080000000000000000000000000000000000000000000000001000000000000000000000008000000000000000000000200000000000002000000000000000000000800000000000000000000100000000000000000020000000000000000000000000000000000000000080004000000000000000000000000000000000000000000000000000000000000000000000000000220000000000000008000000000000000000000000000000000080000000004000000000000000000001000000000000000002000000000000100000000000000012000000000000000000000000000000000000400000000000000000100000",
      "type": "0x2",
      "transactionHash": "0x80676516b09f2667c250515215ba42ff9419ad8c8cebacd141217e3fa3bb23e4",
      "transactionIndex": "0x0",
      "blockHash": "0xa31c57c57dbed89bc477654bd408d11b1338f7f6be09b68da9fee0aaa9df5d2b",
      "blockNumber": "0xb57c20",
      "gasUsed": "0xb471",
      "effectiveGasPrice": "0x7aef40a00",
      "from": "0x21af1185734d213d45c6236146fb81e2b0e8b821",
      "to": "0x3d2bd0e15829aa5c362a4144fdf4a1112fa29b5c",
      "contractAddress": null
    },
    {
      "status": "0x1",
      "cumulativeGasUsed": "0x44930",
      "logs": [
        {
          "address": "0x0000000000000000000000000000000000001010",
          "topics": [
            "0xe6497e3ee548a3372136af2fcb0696db31fc6cf20260707645068bd3fe97f3c4",
            "0x0000000000000000000000000000000000000000000000000000000000001010",
            "0x00000000000000000000000021af1185734d213d45c6236146fb81e2b0e8b821",
            "0x0000000000000000000000009918889e93e8c4357a2d4bce0965dcc493fffda8"
          ],
          "data": "0x00000000000000000000000000000000000000000000000007bbec43cc3271c50000000000000000000000000000000000000000000000044ff8943fb56fcf280000000000000000000000000000000000000000000000000000000000000000000000000000000000000000000000000000000000000004483ca7fbe93d5d6300000000000000000000000000000000000000000000000007bbec43cc3271c5",
          "blockHash": "0xa31c57c57dbed89bc477654bd408d11b1338f7f6be09b68da9fee0aaa9df5d2b",
          "blockNumber": "0xb57c20",
          "transactionHash": "0x4c0e074f049dde542e1d7b7d981954012c5d40b635bc197f63b5993eca2f28a0",
          "transactionIndex": "0x1",
          "logIndex": "0x2",
          "removed": false
        },
        {
          "address": "0x3d2bd0e15829aa5c362a4144fdf4a1112fa29b5c",
          "topics": [
            "0xddf252ad1be2c89b69c2b068fc378daa952ba7f163c4a11628f55a4df523b3ef",
            "0x00000000000000000000000021af1185734d213d45c6236146fb81e2b0e8b821",
            "0x0000000000000000000000009918889e93e8c4357a2d4bce0965dcc493fffda8"
          ],
          "data": "0x000000000000000000000000000000000000000000000002b5e3af16b1880000",
          "blockHash": "0xa31c57c57dbed89bc477654bd408d11b1338f7f6be09b68da9fee0aaa9df5d2b",
          "blockNumber": "0xb57c20",
          "transactionHash": "0x4c0e074f049dde542e1d7b7d981954012c5d40b635bc197f63b5993eca2f28a0",
          "transactionIndex": "0x1",
          "logIndex": "0x3",
          "removed": false
        },
        {
          "address": "0x0000000000000000000000000000000000001010",
          "topics": [
            "0xe6497e3ee548a3372136af2fcb0696db31fc6cf20260707645068bd3fe97f3c4",
            "0x0000000000000000000000000000000000000000000000000000000000001010",
            "0x0000000000000000000000009918889e93e8c4357a2d4bce0965dcc493fffda8",
            "0x0000000000000000000000006edce65403992e310a62460808c4b910d972f10f"
          ],
          "data": "0x00000000000000000000000000000000000000000000000007bbec43cc3271c500000000000000000000000000000000000000000000000007bbec43cc3271c50000000000000000000000000000000000000000000000000000000000000000000000000000000000000000000000000000000000000000000000000000000000000000000000000000000000000000000000000000000007bbec43cc3271c5",
          "blockHash": "0xa31c57c57dbed89bc477654bd408d11b1338f7f6be09b68da9fee0aaa9df5d2b",
          "blockNumber": "0xb57c20",
          "transactionHash": "0x4c0e074f049dde542e1d7b7d981954012c5d40b635bc197f63b5993eca2f28a0",
          "transactionIndex": "0x1",
          "logIndex": "0x4",
          "removed": false
        },
        {
          "address": "0x1d186c560281b8f1af831957ed5047fd3ab902f9",
          "topics": [
            "0x61ed099e74a97a1d7f8bb0952a88ca8b7b8ebd00c126ea04671f92a81213318a"
          ],
          "data": "0x0000000000000000000000004cf1b3fa61465c2c907f82fc488b43223ba0cf93000000000000000000000000000000000000000000000000075b6fc32b301958",
          "blockHash": "0xa31c57c57dbed89bc477654bd408d11b1338f7f6be09b68da9fee0aaa9df5d2b",
          "blockNumber": "0xb57c20",
          "transactionHash": "0x4c0e074f049dde542e1d7b7d981954012c5d40b635bc197f63b5993eca2f28a0",
          "transactionIndex": "0x1",
          "logIndex": "0x5",
          "removed": false
        },
        {
          "address": "0x1d186c560281b8f1af831957ed5047fd3ab902f9",
          "topics": [
            "0x07ea52d82345d6e838192107d8fd7123d9c2ec8e916cd0aad13fd2b60db24644"
          ],
          "data": "0x000000000000000000000000000000000000000000000000000000000000006000000000000000000000000000000000000000000000000000000000000000a000000000000000000000000000000000000000000000000000000000000000c0000000000000000000000000000000000000000000000000000000000000000100000000000000000000000055c175dd5b039331db251424538169d8495c18d10000000000000000000000000000000000000000000000000000000000000000000000000000000000000000000000000000000000000000000000000000000100000000000000000000000000000000000000000000000000607c80a102586d",
          "blockHash": "0xa31c57c57dbed89bc477654bd408d11b1338f7f6be09b68da9fee0aaa9df5d2b",
          "blockNumber": "0xb57c20",
          "transactionHash": "0x4c0e074f049dde542e1d7b7d981954012c5d40b635bc197f63b5993eca2f28a0",
          "transactionIndex": "0x1",
          "logIndex": "0x6",
          "removed": false
        },
        {
          "address": "0x6edce65403992e310a62460808c4b910d972f10f",
          "topics": [
            "0x1ab700d4ced0c005b164c0f789fd09fcbb0156d4c2041b8a3bfbcd961cd1567f"
          ],
          "data": "0x000000000000000000000000000000000000000000000000000000000000006000000000000000000000000000000000000000000000000000000000000001200000000000000000000000001d186c560281b8f1af831957ed5047fd3ab902f9000000000000000000000000000000000000000000000000000000000000009901000000000000001100009d4b0000000000000000000000009918889e93e8c4357a2d4bce0965dcc493fffda800009d350000000000000000000000003d2bd0e15829aa5c362a4144fdf4a1112fa29b5c8f8897d644841088c84fb8d9daca52a2789a1290fc2fb01d08cb2dce4a64ce6600000000000000000000000021af1185734d213d45c6236146fb81e2b0e8b8210000000002faf0800000000000000000000000000000000000000000000000000000000000000000000000000000160003010011010000000000000000000000000000fde800000000000000000000",
          "blockHash": "0xa31c57c57dbed89bc477654bd408d11b1338f7f6be09b68da9fee0aaa9df5d2b",
          "blockNumber": "0xb57c20",
          "transactionHash": "0x4c0e074f049dde542e1d7b7d981954012c5d40b635bc197f63b5993eca2f28a0",
          "transactionIndex": "0x1",
          "logIndex": "0x7",
          "removed": false
        },
        {
          "address": "0x0000000000000000000000000000000000001010",
          "topics": [
            "0xe6497e3ee548a3372136af2fcb0696db31fc6cf20260707645068bd3fe97f3c4",
            "0x0000000000000000000000000000000000000000000000000000000000001010",
            "0x0000000000000000000000006edce65403992e310a62460808c4b910d972f10f",
            "0x0000000000000000000000001d186c560281b8f1af831957ed5047fd3ab902f9"
          ],
          "data": "0x00000000000000000000000000000000000000000000000007bbec43cc3271c500000000000000000000000000000000000000000000000007bbec43cc3271c50000000000000000000000000000000000000000000000460cb7ac2fbc985d9c00000000000000000000000000000000000000000000000000000000000000000000000000000000000000000000000000000000000000461473987388cacf61",
          "blockHash": "0xa31c57c57dbed89bc477654bd408d11b1338f7f6be09b68da9fee0aaa9df5d2b",
          "blockNumber": "0xb57c20",
          "transactionHash": "0x4c0e074f049dde542e1d7b7d981954012c5d40b635bc197f63b5993eca2f28a0",
          "transactionIndex": "0x1",
          "logIndex": "0x8",
          "removed": false
        },
        {
          "address": "0x9918889e93e8c4357a2d4bce0965dcc493fffda8",
          "topics": [
            "0x85496b760a4b7f8d66384b9df21b381f5d1b1e79f229a47aaf4c232edc2fe59a",
            "0x8f8897d644841088c84fb8d9daca52a2789a1290fc2fb01d08cb2dce4a64ce66",
            "0x00000000000000000000000021af1185734d213d45c6236146fb81e2b0e8b821"
          ],
          "data": "0x0000000000000000000000000000000000000000000000000000000000009d35000000000000000000000000000000000000000000000002b5e3af16b1880000000000000000000000000000000000000000000000000002b5e3af16b1880000",
          "blockHash": "0xa31c57c57dbed89bc477654bd408d11b1338f7f6be09b68da9fee0aaa9df5d2b",
          "blockNumber": "0xb57c20",
          "transactionHash": "0x4c0e074f049dde542e1d7b7d981954012c5d40b635bc197f63b5993eca2f28a0",
          "transactionIndex": "0x1",
          "logIndex": "0x9",
          "removed": false
        },
        {
          "address": "0x0000000000000000000000000000000000001010",
          "topics": [
            "0x4dfe1bbbcf077ddc3e01291eea2d5c70c2b422b415d95645b9adcfd678cb1d63",
            "0x0000000000000000000000000000000000000000000000000000000000001010",
            "0x00000000000000000000000021af1185734d213d45c6236146fb81e2b0e8b821",
            "0x000000000000000000000000915a2284d28bd93de7d6f31173b981204bb666e6"
          ],
          "data": "0x000000000000000000000000000000000000000000000000001b83bcbba5becf000000000000000000000000000000000000000000000004501e955e4be64f2800000000000000000000000000000000000000000000039a7962b8c08fa4d5c8000000000000000000000000000000000000000000000004500311a19040905900000000000000000000000000000000000000000000039a797e3c7d4b4a9497",
          "blockHash": "0xa31c57c57dbed89bc477654bd408d11b1338f7f6be09b68da9fee0aaa9df5d2b",
          "blockNumber": "0xb57c20",
          "transactionHash": "0x4c0e074f049dde542e1d7b7d981954012c5d40b635bc197f63b5993eca2f28a0",
          "transactionIndex": "0x1",
          "logIndex": "0xa",
          "removed": false
        }
      ],
      "logsBloom": "0x400000000000000800100000000800000000000000000000000100000000000000000000000010002000001000000000000080000000000000000000000040000000028020000000000000080000008000000000000000000001000000020000000000200000000082000010000000000000000000000000800040100000000000000000000000200000000800000000000000000000000000000000000000002000000080000000081000240000000800000800004000000004c0000000004000000002000000000001002080000000000002000008801200108000000000000002040000000000000000000000002008000000408000000000000000100000",
      "type": "0x2",
      "transactionHash": "0x4c0e074f049dde542e1d7b7d981954012c5d40b635bc197f63b5993eca2f28a0",
      "transactionIndex": "0x1",
      "blockHash": "0xa31c57c57dbed89bc477654bd408d11b1338f7f6be09b68da9fee0aaa9df5d2b",
      "blockNumber": "0xb57c20",
      "gasUsed": "0x394bf",
      "effectiveGasPrice": "0x7aef40a00",
      "from": "0x21af1185734d213d45c6236146fb81e2b0e8b821",
      "to": "0x9918889e93e8c4357a2d4bce0965dcc493fffda8",
      "contractAddress": null
    },
    {
      "status": "0x1",
      "cumulativeGasUsed": "0x4fda1",
      "logs": [
        {
          "address": "0x3d2bd0e15829aa5c362a4144fdf4a1112fa29b5c",
          "topics": [
            "0x8c5be1e5ebec7d5bd14f71427d1e84f3dd0314c0f7b2291e5b200ac8c7c3b925",
            "0x00000000000000000000000021af1185734d213d45c6236146fb81e2b0e8b821",
            "0x0000000000000000000000009918889e93e8c4357a2d4bce0965dcc493fffda8"
          ],
          "data": "0x0000000000000000000000000000000000000000000000056bc75e2d63100000",
          "blockHash": "0xa31c57c57dbed89bc477654bd408d11b1338f7f6be09b68da9fee0aaa9df5d2b",
          "blockNumber": "0xb57c20",
          "transactionHash": "0xab852ef683be32d203df0259b2c9cc63b8b698192955528b1ef3d215a2fd5fe5",
          "transactionIndex": "0x2",
          "logIndex": "0xb",
          "removed": false
        },
        {
          "address": "0x0000000000000000000000000000000000001010",
          "topics": [
            "0x4dfe1bbbcf077ddc3e01291eea2d5c70c2b422b415d95645b9adcfd678cb1d63",
            "0x0000000000000000000000000000000000000000000000000000000000001010",
            "0x00000000000000000000000021af1185734d213d45c6236146fb81e2b0e8b821",
            "0x000000000000000000000000915a2284d28bd93de7d6f31173b981204bb666e6"
          ],
          "data": "0x00000000000000000000000000000000000000000000000000056a67d0b5d7610000000000000000000000000000000000000000000000044847255dc3d8676300000000000000000000000000000000000000000000039a797e3c7d4b4a94970000000000000000000000000000000000000000000000044841baf5f322900200000000000000000000000000000000000000000000039a7983a6e51c006bf8",
          "blockHash": "0xa31c57c57dbed89bc477654bd408d11b1338f7f6be09b68da9fee0aaa9df5d2b",
          "blockNumber": "0xb57c20",
          "transactionHash": "0xab852ef683be32d203df0259b2c9cc63b8b698192955528b1ef3d215a2fd5fe5",
          "transactionIndex": "0x2",
          "logIndex": "0xc",
          "removed": false
        }
      ],
      "logsBloom": "0x40000000000000000010000000080000000000000000000000000000000000000000000000001000000000000000000000008000000000000000000000200000000000002000000000000000000000800000000000000000000100000000000000000020000000000000000000000000000000000000000080004000000000000000000000000000000000000000000000000000000000000000000000000000220000000000000008000000000000000000000000000000000080000000004000000000000000000001000000000000000002000000000000100000000000000012000000000000000000000000000000000000400000000000000000100000",
      "type": "0x2",
      "transactionHash": "0xab852ef683be32d203df0259b2c9cc63b8b698192955528b1ef3d215a2fd5fe5",
      "transactionIndex": "0x2",
      "blockHash": "0xa31c57c57dbed89bc477654bd408d11b1338f7f6be09b68da9fee0aaa9df5d2b",
      "blockNumber": "0xb57c20",
      "gasUsed": "0xb471",
      "effectiveGasPrice": "0x7aef40a00",
      "from": "0x21af1185734d213d45c6236146fb81e2b0e8b821",
      "to": "0x3d2bd0e15829aa5c362a4144fdf4a1112fa29b5c",
      "contractAddress": null
    },
    {
      "status": "0x1",
      "cumulativeGasUsed": "0x89260",
      "logs": [
        {
          "address": "0x0000000000000000000000000000000000001010",
          "topics": [
            "0xe6497e3ee548a3372136af2fcb0696db31fc6cf20260707645068bd3fe97f3c4",
            "0x0000000000000000000000000000000000000000000000000000000000001010",
            "0x00000000000000000000000021af1185734d213d45c6236146fb81e2b0e8b821",
            "0x0000000000000000000000009918889e93e8c4357a2d4bce0965dcc493fffda8"
          ],
          "data": "0x00000000000000000000000000000000000000000000000007bbec43cc3271c5000000000000000000000000000000000000000000000004481bb9d75ca17d630000000000000000000000000000000000000000000000000000000000000000000000000000000000000000000000000000000000000004405fcd93906f0b9e00000000000000000000000000000000000000000000000007bbec43cc3271c5",
          "blockHash": "0xa31c57c57dbed89bc477654bd408d11b1338f7f6be09b68da9fee0aaa9df5d2b",
          "blockNumber": "0xb57c20",
          "transactionHash": "0xcf1e8dce48b36480aa80818109778d493fd665ae3d9ff45ccb2578b07cf25100",
          "transactionIndex": "0x3",
          "logIndex": "0xd",
          "removed": false
        },
        {
          "address": "0x3d2bd0e15829aa5c362a4144fdf4a1112fa29b5c",
          "topics": [
            "0xddf252ad1be2c89b69c2b068fc378daa952ba7f163c4a11628f55a4df523b3ef",
            "0x00000000000000000000000021af1185734d213d45c6236146fb81e2b0e8b821",
            "0x0000000000000000000000009918889e93e8c4357a2d4bce0965dcc493fffda8"
          ],
          "data": "0x0000000000000000000000000000000000000000000000056bc75e2d63100000",
          "blockHash": "0xa31c57c57dbed89bc477654bd408d11b1338f7f6be09b68da9fee0aaa9df5d2b",
          "blockNumber": "0xb57c20",
          "transactionHash": "0xcf1e8dce48b36480aa80818109778d493fd665ae3d9ff45ccb2578b07cf25100",
          "transactionIndex": "0x3",
          "logIndex": "0xe",
          "removed": false
        },
        {
          "address": "0x0000000000000000000000000000000000001010",
          "topics": [
            "0xe6497e3ee548a3372136af2fcb0696db31fc6cf20260707645068bd3fe97f3c4",
            "0x0000000000000000000000000000000000000000000000000000000000001010",
            "0x0000000000000000000000009918889e93e8c4357a2d4bce0965dcc493fffda8",
            "0x0000000000000000000000006edce65403992e310a62460808c4b910d972f10f"
          ],
          "data": "0x00000000000000000000000000000000000000000000000007bbec43cc3271c500000000000000000000000000000000000000000000000007bbec43cc3271c50000000000000000000000000000000000000000000000000000000000000000000000000000000000000000000000000000000000000000000000000000000000000000000000000000000000000000000000000000000007bbec43cc3271c5",
          "blockHash": "0xa31c57c57dbed89bc477654bd408d11b1338f7f6be09b68da9fee0aaa9df5d2b",
          "blockNumber": "0xb57c20",
          "transactionHash": "0xcf1e8dce48b36480aa80818109778d493fd665ae3d9ff45ccb2578b07cf25100",
          "transactionIndex": "0x3",
          "logIndex": "0xf",
          "removed": false
        },
        {
          "address": "0x1d186c560281b8f1af831957ed5047fd3ab902f9",
          "topics": [
            "0x61ed099e74a97a1d7f8bb0952a88ca8b7b8ebd00c126ea04671f92a81213318a"
          ],
          "data": "0x0000000000000000000000004cf1b3fa61465c2c907f82fc488b43223ba0cf93000000000000000000000000000000000000000000000000075b6fc32b301958",
          "blockHash": "0xa31c57c57dbed89bc477654bd408d11b1338f7f6be09b68da9fee0aaa9df5d2b",
          "blockNumber": "0xb57c20",
          "transactionHash": "0xcf1e8dce48b36480aa80818109778d493fd665ae3d9ff45ccb2578b07cf25100",
          "transactionIndex": "0x3",
          "logIndex": "0x10",
          "removed": false
        },
        {
          "address": "0x1d186c560281b8f1af831957ed5047fd3ab902f9",
          "topics": [
            "0x07ea52d82345d6e838192107d8fd7123d9c2ec8e916cd0aad13fd2b60db24644"
          ],
          "data": "0x000000000000000000000000000000000000000000000000000000000000006000000000000000000000000000000000000000000000000000000000000000a000000000000000000000000000000000000000000000000000000000000000c0000000000000000000000000000000000000000000000000000000000000000100000000000000000000000055c175dd5b039331db251424538169d8495c18d10000000000000000000000000000000000000000000000000000000000000000000000000000000000000000000000000000000000000000000000000000000100000000000000000000000000000000000000000000000000607c80a102586d",
          "blockHash": "0xa31c57c57dbed89bc477654bd408d11b1338f7f6be09b68da9fee0aaa9df5d2b",
          "blockNumber": "0xb57c20",
          "transactionHash": "0xcf1e8dce48b36480aa80818109778d493fd665ae3d9ff45ccb2578b07cf25100",
          "transactionIndex": "0x3",
          "logIndex": "0x11",
          "removed": false
        },
        {
          "address": "0x6edce65403992e310a62460808c4b910d972f10f",
          "topics": [
            "0x1ab700d4ced0c005b164c0f789fd09fcbb0156d4c2041b8a3bfbcd961cd1567f"
          ],
          "data": "0x000000000000000000000000000000000000000000000000000000000000006000000000000000000000000000000000000000000000000000000000000001200000000000000000000000001d186c560281b8f1af831957ed5047fd3ab902f9000000000000000000000000000000000000000000000000000000000000009901000000000000001200009d4b0000000000000000000000009918889e93e8c4357a2d4bce0965dcc493fffda800009d350000000000000000000000003d2bd0e15829aa5c362a4144fdf4a1112fa29b5c40f3bae4fb16d2f2f42897a6fcda44702335239b90f73884250de0397ee2f97800000000000000000000000021af1185734d213d45c6236146fb81e2b0e8b8210000000005f5e1000000000000000000000000000000000000000000000000000000000000000000000000000000160003010011010000000000000000000000000000fde800000000000000000000",
          "blockHash": "0xa31c57c57dbed89bc477654bd408d11b1338f7f6be09b68da9fee0aaa9df5d2b",
          "blockNumber": "0xb57c20",
          "transactionHash": "0xcf1e8dce48b36480aa80818109778d493fd665ae3d9ff45ccb2578b07cf25100",
          "transactionIndex": "0x3",
          "logIndex": "0x12",
          "removed": false
        },
        {
          "address": "0x0000000000000000000000000000000000001010",
          "topics": [
            "0xe6497e3ee548a3372136af2fcb0696db31fc6cf20260707645068bd3fe97f3c4",
            "0x0000000000000000000000000000000000000000000000000000000000001010",
            "0x0000000000000000000000006edce65403992e310a62460808c4b910d972f10f",
            "0x0000000000000000000000001d186c560281b8f1af831957ed5047fd3ab902f9"
          ],
          "data": "0x00000000000000000000000000000000000000000000000007bbec43cc3271c500000000000000000000000000000000000000000000000007bbec43cc3271c50000000000000000000000000000000000000000000000461473987388cacf6100000000000000000000000000000000000000000000000000000000000000000000000000000000000000000000000000000000000000461c2f84b754fd4126",
          "blockHash": "0xa31c57c57dbed89bc477654bd408d11b1338f7f6be09b68da9fee0aaa9df5d2b",
          "blockNumber": "0xb57c20",
          "transactionHash": "0xcf1e8dce48b36480aa80818109778d493fd665ae3d9ff45ccb2578b07cf25100",
          "transactionIndex": "0x3",
          "logIndex": "0x13",
          "removed": false
        },
        {
          "address": "0x9918889e93e8c4357a2d4bce0965dcc493fffda8",
          "topics": [
            "0x85496b760a4b7f8d66384b9df21b381f5d1b1e79f229a47aaf4c232edc2fe59a",
            "0x40f3bae4fb16d2f2f42897a6fcda44702335239b90f73884250de0397ee2f978",
            "0x00000000000000000000000021af1185734d213d45c6236146fb81e2b0e8b821"
          ],
          "data": "0x0000000000000000000000000000000000000000000000000000000000009d350000000000000000000000000000000000000000000000056bc75e2d631000000000000000000000000000000000000000000000000000056bc75e2d63100000",
          "blockHash": "0xa31c57c57dbed89bc477654bd408d11b1338f7f6be09b68da9fee0aaa9df5d2b",
          "blockNumber": "0xb57c20",
          "transactionHash": "0xcf1e8dce48b36480aa80818109778d493fd665ae3d9ff45ccb2578b07cf25100",
          "transactionIndex": "0x3",
          "logIndex": "0x14",
          "removed": false
        },
        {
          "address": "0x0000000000000000000000000000000000001010",
          "topics": [
            "0x4dfe1bbbcf077ddc3e01291eea2d5c70c2b422b415d95645b9adcfd678cb1d63",
            "0x0000000000000000000000000000000000000000000000000000000000001010",
            "0x00000000000000000000000021af1185734d213d45c6236146fb81e2b0e8b821",
            "0x000000000000000000000000915a2284d28bd93de7d6f31173b981204bb666e6"
          ],
          "data": "0x000000000000000000000000000000000000000000000000001b83bcbba5becf0000000000000000000000000000000000000000000000044841baf5f317fd6300000000000000000000000000000000000000000000039a7983a6e51c006bf80000000000000000000000000000000000000000000000044826373937723e9400000000000000000000000000000000000000000000039a799f2aa1d7a62ac7",
          "blockHash": "0xa31c57c57dbed89bc477654bd408d11b1338f7f6be09b68da9fee0aaa9df5d2b",
          "blockNumber": "0xb57c20",
          "transactionHash": "0xcf1e8dce48b36480aa80818109778d493fd665ae3d9ff45ccb2578b07cf25100",
          "transactionIndex": "0x3",
          "logIndex": "0x15",
          "removed": false
        }
      ],
      "logsBloom": "0x400000000000000000100000000800000000000000000000000000000000000000000000000010002000001000000000000080000000000000000080000040000000028020000000000000080000008000000000000000000001000000020000000000200000000082000010000000000000000000000000800040100000000000000000000000200000000800000000000000000000000000000000000000002000000080000000081000240000000000000800004000000004c0000000004000000002000000000001002080000000000002000008803200118000000000000002040000000000000000000000002008000000408000000000000000100000",
      "type": "0x2",
      "transactionHash": "0xcf1e8dce48b36480aa80818109778d493fd665ae3d9ff45ccb2578b07cf25100",
      "transactionIndex": "0x3",
      "blockHash": "0xa31c57c57dbed89bc477654bd408d11b1338f7f6be09b68da9fee0aaa9df5d2b",
      "blockNumber": "0xb57c20",
      "gasUsed": "0x394bf",
      "effectiveGasPrice": "0x7aef40a00",
      "from": "0x21af1185734d213d45c6236146fb81e2b0e8b821",
      "to": "0x9918889e93e8c4357a2d4bce0965dcc493fffda8",
      "contractAddress": null
    },
    {
      "status": "0x1",
      "cumulativeGasUsed": "0x946d1",
      "logs": [
        {
          "address": "0x3d2bd0e15829aa5c362a4144fdf4a1112fa29b5c",
          "topics": [
            "0x8c5be1e5ebec7d5bd14f71427d1e84f3dd0314c0f7b2291e5b200ac8c7c3b925",
            "0x00000000000000000000000021af1185734d213d45c6236146fb81e2b0e8b821",
            "0x0000000000000000000000009918889e93e8c4357a2d4bce0965dcc493fffda8"
          ],
          "data": "0x00000000000000000000000000000000000000000000003635c9adc5dea00000",
          "blockHash": "0xa31c57c57dbed89bc477654bd408d11b1338f7f6be09b68da9fee0aaa9df5d2b",
          "blockNumber": "0xb57c20",
          "transactionHash": "0x1045fcc5a6aabcb94dda36e4a775067a2e163ef6cbc077a73840f1faf0ecdc56",
          "transactionIndex": "0x4",
          "logIndex": "0x16",
          "removed": false
        },
        {
          "address": "0x0000000000000000000000000000000000001010",
          "topics": [
            "0x4dfe1bbbcf077ddc3e01291eea2d5c70c2b422b415d95645b9adcfd678cb1d63",
            "0x0000000000000000000000000000000000000000000000000000000000001010",
            "0x00000000000000000000000021af1185734d213d45c6236146fb81e2b0e8b821",
            "0x000000000000000000000000915a2284d28bd93de7d6f31173b981204bb666e6"
          ],
          "data": "0x00000000000000000000000000000000000000000000000000056a67d0b5d761000000000000000000000000000000000000000000000004406a4af56b0a159e00000000000000000000000000000000000000000000039a799f2aa1d7a62ac70000000000000000000000000000000000000000000000044064e08d9a543e3d00000000000000000000000000000000000000000000039a79a49509a85c0228",
          "blockHash": "0xa31c57c57dbed89bc477654bd408d11b1338f7f6be09b68da9fee0aaa9df5d2b",
          "blockNumber": "0xb57c20",
          "transactionHash": "0x1045fcc5a6aabcb94dda36e4a775067a2e163ef6cbc077a73840f1faf0ecdc56",
          "transactionIndex": "0x4",
          "logIndex": "0x17",
          "removed": false
        }
      ],
      "logsBloom": "0x40000000000000000010000000080000000000000000000000000000000000000000000000001000000000000000000000008000000000000000000000200000000000002000000000000000000000800000000000000000000100000000000000000020000000000000000000000000000000000000000080004000000000000000000000000000000000000000000000000000000000000000000000000000220000000000000008000000000000000000000000000000000080000000004000000000000000000001000000000000000002000000000000100000000000000012000000000000000000000000000000000000400000000000000000100000",
      "type": "0x2",
      "transactionHash": "0x1045fcc5a6aabcb94dda36e4a775067a2e163ef6cbc077a73840f1faf0ecdc56",
      "transactionIndex": "0x4",
      "blockHash": "0xa31c57c57dbed89bc477654bd408d11b1338f7f6be09b68da9fee0aaa9df5d2b",
      "blockNumber": "0xb57c20",
      "gasUsed": "0xb471",
      "effectiveGasPrice": "0x7aef40a00",
      "from": "0x21af1185734d213d45c6236146fb81e2b0e8b821",
      "to": "0x3d2bd0e15829aa5c362a4144fdf4a1112fa29b5c",
      "contractAddress": null
    },
    {
      "status": "0x1",
      "cumulativeGasUsed": "0xcdb90",
      "logs": [
        {
          "address": "0x0000000000000000000000000000000000001010",
          "topics": [
            "0xe6497e3ee548a3372136af2fcb0696db31fc6cf20260707645068bd3fe97f3c4",
            "0x0000000000000000000000000000000000000000000000000000000000001010",
            "0x00000000000000000000000021af1185734d213d45c6236146fb81e2b0e8b821",
            "0x0000000000000000000000009918889e93e8c4357a2d4bce0965dcc493fffda8"
          ],
          "data": "0x00000000000000000000000000000000000000000000000007bbec43cc3271c5000000000000000000000000000000000000000000000004403edf6f03d32b9e00000000000000000000000000000000000000000000000000000000000000000000000000000000000000000000000000000000000000043882f32b37a0b9d900000000000000000000000000000000000000000000000007bbec43cc3271c5",
          "blockHash": "0xa31c57c57dbed89bc477654bd408d11b1338f7f6be09b68da9fee0aaa9df5d2b",
          "blockNumber": "0xb57c20",
          "transactionHash": "0x9a4dfd417a8cf920f8f638a387f02a20701a1b0840d71bff8465c5fb7d50e5b6",
          "transactionIndex": "0x5",
          "logIndex": "0x18",
          "removed": false
        },
        {
          "address": "0x3d2bd0e15829aa5c362a4144fdf4a1112fa29b5c",
          "topics": [
            "0xddf252ad1be2c89b69c2b068fc378daa952ba7f163c4a11628f55a4df523b3ef",
            "0x00000000000000000000000021af1185734d213d45c6236146fb81e2b0e8b821",
            "0x0000000000000000000000009918889e93e8c4357a2d4bce0965dcc493fffda8"
          ],
          "data": "0x00000000000000000000000000000000000000000000003635c9adc5dea00000",
          "blockHash": "0xa31c57c57dbed89bc477654bd408d11b1338f7f6be09b68da9fee0aaa9df5d2b",
          "blockNumber": "0xb57c20",
          "transactionHash": "0x9a4dfd417a8cf920f8f638a387f02a20701a1b0840d71bff8465c5fb7d50e5b6",
          "transactionIndex": "0x5",
          "logIndex": "0x19",
          "removed": false
        },
        {
          "address": "0x0000000000000000000000000000000000001010",
          "topics": [
            "0xe6497e3ee548a3372136af2fcb0696db31fc6cf20260707645068bd3fe97f3c4",
            "0x0000000000000000000000000000000000000000000000000000000000001010",
            "0x0000000000000000000000009918889e93e8c4357a2d4bce0965dcc493fffda8",
            "0x0000000000000000000000006edce65403992e310a62460808c4b910d972f10f"
          ],
          "data": "0x00000000000000000000000000000000000000000000000007bbec43cc3271c500000000000000000000000000000000000000000000000007bbec43cc3271c50000000000000000000000000000000000000000000000000000000000000000000000000000000000000000000000000000000000000000000000000000000000000000000000000000000000000000000000000000000007bbec43cc3271c5",
          "blockHash": "0xa31c57c57dbed89bc477654bd408d11b1338f7f6be09b68da9fee0aaa9df5d2b",
          "blockNumber": "0xb57c20",
          "transactionHash": "0x9a4dfd417a8cf920f8f638a387f02a20701a1b0840d71bff8465c5fb7d50e5b6",
          "transactionIndex": "0x5",
          "logIndex": "0x1a",
          "removed": false
        },
        {
          "address": "0x1d186c560281b8f1af831957ed5047fd3ab902f9",
          "topics": [
            "0x61ed099e74a97a1d7f8bb0952a88ca8b7b8ebd00c126ea04671f92a81213318a"
          ],
          "data": "0x0000000000000000000000004cf1b3fa61465c2c907f82fc488b43223ba0cf93000000000000000000000000000000000000000000000000075b6fc32b301958",
          "blockHash": "0xa31c57c57dbed89bc477654bd408d11b1338f7f6be09b68da9fee0aaa9df5d2b",
          "blockNumber": "0xb57c20",
          "transactionHash": "0x9a4dfd417a8cf920f8f638a387f02a20701a1b0840d71bff8465c5fb7d50e5b6",
          "transactionIndex": "0x5",
          "logIndex": "0x1b",
          "removed": false
        },
        {
          "address": "0x1d186c560281b8f1af831957ed5047fd3ab902f9",
          "topics": [
            "0x07ea52d82345d6e838192107d8fd7123d9c2ec8e916cd0aad13fd2b60db24644"
          ],
          "data": "0x000000000000000000000000000000000000000000000000000000000000006000000000000000000000000000000000000000000000000000000000000000a000000000000000000000000000000000000000000000000000000000000000c0000000000000000000000000000000000000000000000000000000000000000100000000000000000000000055c175dd5b039331db251424538169d8495c18d10000000000000000000000000000000000000000000000000000000000000000000000000000000000000000000000000000000000000000000000000000000100000000000000000000000000000000000000000000000000607c80a102586d",
          "blockHash": "0xa31c57c57dbed89bc477654bd408d11b1338f7f6be09b68da9fee0aaa9df5d2b",
          "blockNumber": "0xb57c20",
          "transactionHash": "0x9a4dfd417a8cf920f8f638a387f02a20701a1b0840d71bff8465c5fb7d50e5b6",
          "transactionIndex": "0x5",
          "logIndex": "0x1c",
          "removed": false
        },
        {
          "address": "0x6edce65403992e310a62460808c4b910d972f10f",
          "topics": [
            "0x1ab700d4ced0c005b164c0f789fd09fcbb0156d4c2041b8a3bfbcd961cd1567f"
          ],
          "data": "0x000000000000000000000000000000000000000000000000000000000000006000000000000000000000000000000000000000000000000000000000000001200000000000000000000000001d186c560281b8f1af831957ed5047fd3ab902f9000000000000000000000000000000000000000000000000000000000000009901000000000000001300009d4b0000000000000000000000009918889e93e8c4357a2d4bce0965dcc493fffda800009d350000000000000000000000003d2bd0e15829aa5c362a4144fdf4a1112fa29b5c25947d85d218907a6f5cbb9784987905f62687260693d46384cb4d1e6a7f755e00000000000000000000000021af1185734d213d45c6236146fb81e2b0e8b821000000003b9aca000000000000000000000000000000000000000000000000000000000000000000000000000000160003010011010000000000000000000000000000fde800000000000000000000",
          "blockHash": "0xa31c57c57dbed89bc477654bd408d11b1338f7f6be09b68da9fee0aaa9df5d2b",
          "blockNumber": "0xb57c20",
          "transactionHash": "0x9a4dfd417a8cf920f8f638a387f02a20701a1b0840d71bff8465c5fb7d50e5b6",
          "transactionIndex": "0x5",
          "logIndex": "0x1d",
          "removed": false
        },
        {
          "address": "0x0000000000000000000000000000000000001010",
          "topics": [
            "0xe6497e3ee548a3372136af2fcb0696db31fc6cf20260707645068bd3fe97f3c4",
            "0x0000000000000000000000000000000000000000000000000000000000001010",
            "0x0000000000000000000000006edce65403992e310a62460808c4b910d972f10f",
            "0x0000000000000000000000001d186c560281b8f1af831957ed5047fd3ab902f9"
          ],
          "data": "0x00000000000000000000000000000000000000000000000007bbec43cc3271c500000000000000000000000000000000000000000000000007bbec43cc3271c50000000000000000000000000000000000000000000000461c2f84b754fd4126000000000000000000000000000000000000000000000000000000000000000000000000000000000000000000000000000000000000004623eb70fb212fb2eb",
          "blockHash": "0xa31c57c57dbed89bc477654bd408d11b1338f7f6be09b68da9fee0aaa9df5d2b",
          "blockNumber": "0xb57c20",
          "transactionHash": "0x9a4dfd417a8cf920f8f638a387f02a20701a1b0840d71bff8465c5fb7d50e5b6",
          "transactionIndex": "0x5",
          "logIndex": "0x1e",
          "removed": false
        },
        {
          "address": "0x9918889e93e8c4357a2d4bce0965dcc493fffda8",
          "topics": [
            "0x85496b760a4b7f8d66384b9df21b381f5d1b1e79f229a47aaf4c232edc2fe59a",
            "0x25947d85d218907a6f5cbb9784987905f62687260693d46384cb4d1e6a7f755e",
            "0x00000000000000000000000021af1185734d213d45c6236146fb81e2b0e8b821"
          ],
          "data": "0x0000000000000000000000000000000000000000000000000000000000009d3500000000000000000000000000000000000000000000003635c9adc5dea0000000000000000000000000000000000000000000000000003635c9adc5dea00000",
          "blockHash": "0xa31c57c57dbed89bc477654bd408d11b1338f7f6be09b68da9fee0aaa9df5d2b",
          "blockNumber": "0xb57c20",
          "transactionHash": "0x9a4dfd417a8cf920f8f638a387f02a20701a1b0840d71bff8465c5fb7d50e5b6",
          "transactionIndex": "0x5",
          "logIndex": "0x1f",
          "removed": false
        },
        {
          "address": "0x0000000000000000000000000000000000001010",
          "topics": [
            "0x4dfe1bbbcf077ddc3e01291eea2d5c70c2b422b415d95645b9adcfd678cb1d63",
            "0x0000000000000000000000000000000000000000000000000000000000001010",
            "0x00000000000000000000000021af1185734d213d45c6236146fb81e2b0e8b821",
            "0x000000000000000000000000915a2284d28bd93de7d6f31173b981204bb666e6"
          ],
          "data": "0x000000000000000000000000000000000000000000000000001b83bcbba5becf0000000000000000000000000000000000000000000000044064e08d9a49ab9e00000000000000000000000000000000000000000000039a79a49509a85c022800000000000000000000000000000000000000000000000440495cd0dea3eccf00000000000000000000000000000000000000000000039a79c018c66401c0f7",
          "blockHash": "0xa31c57c57dbed89bc477654bd408d11b1338f7f6be09b68da9fee0aaa9df5d2b",
          "blockNumber": "0xb57c20",
          "transactionHash": "0x9a4dfd417a8cf920f8f638a387f02a20701a1b0840d71bff8465c5fb7d50e5b6",
          "transactionIndex": "0x5",
          "logIndex": "0x20",
          "removed": false
        }
      ],
      "logsBloom": "0x400000000000000000100000000800000000000000000000000000000000000000000000000010002000001000000000000080000000000000000000000040000000028020000000000000080000008000000000000000000001000000020000000000200000000082000010000000000000000000000000800040100000000000000000000000200000000800000000000000000000000000000000000000002000000080000000081000240000000000000800004000000004c0000000004000000002000000000001002080000000000002000008901200108000400000000002040000040000000000000000002008000000408000000000000000100000",
      "type": "0x2",
      "transactionHash": "0x9a4dfd417a8cf920f8f638a387f02a20701a1b0840d71bff8465c5fb7d50e5b6",
      "transactionIndex": "0x5",
      "blockHash": "0xa31c57c57dbed89bc477654bd408d11b1338f7f6be09b68da9fee0aaa9df5d2b",
      "blockNumber": "0xb57c20",
      "gasUsed": "0x394bf",
      "effectiveGasPrice": "0x7aef40a00",
      "from": "0x21af1185734d213d45c6236146fb81e2b0e8b821",
      "to": "0x9918889e93e8c4357a2d4bce0965dcc493fffda8",
      "contractAddress": null
    },
    {
      "status": "0x1",
      "cumulativeGasUsed": "0xd900d",
      "logs": [
        {
          "address": "0x3d2bd0e15829aa5c362a4144fdf4a1112fa29b5c",
          "topics": [
            "0x8c5be1e5ebec7d5bd14f71427d1e84f3dd0314c0f7b2291e5b200ac8c7c3b925",
            "0x00000000000000000000000021af1185734d213d45c6236146fb81e2b0e8b821",
            "0x0000000000000000000000009918889e93e8c4357a2d4bce0965dcc493fffda8"
          ],
          "data": "0x00000000000000000000000000000000000000000000021e19e0c9bab2400000",
          "blockHash": "0xa31c57c57dbed89bc477654bd408d11b1338f7f6be09b68da9fee0aaa9df5d2b",
          "blockNumber": "0xb57c20",
          "transactionHash": "0xcc03ad3069f7486628363ce4799d65654d4ac17b6d965e3d7fc5d84b55473666",
          "transactionIndex": "0x6",
          "logIndex": "0x21",
          "removed": false
        },
        {
          "address": "0x0000000000000000000000000000000000001010",
          "topics": [
            "0x4dfe1bbbcf077ddc3e01291eea2d5c70c2b422b415d95645b9adcfd678cb1d63",
            "0x0000000000000000000000000000000000000000000000000000000000001010",
            "0x00000000000000000000000021af1185734d213d45c6236146fb81e2b0e8b821",
            "0x000000000000000000000000915a2284d28bd93de7d6f31173b981204bb666e6"
          ],
          "data": "0x00000000000000000000000000000000000000000000000000056ac404264ead000000000000000000000000000000000000000000000004388d708d123bc3d900000000000000000000000000000000000000000000039a79c018c66401c0f7000000000000000000000000000000000000000000000004388805c90e15752c00000000000000000000000000000000000000000000039a79c5838a68280fa4",
          "blockHash": "0xa31c57c57dbed89bc477654bd408d11b1338f7f6be09b68da9fee0aaa9df5d2b",
          "blockNumber": "0xb57c20",
          "transactionHash": "0xcc03ad3069f7486628363ce4799d65654d4ac17b6d965e3d7fc5d84b55473666",
          "transactionIndex": "0x6",
          "logIndex": "0x22",
          "removed": false
        }
      ],
      "logsBloom": "0x40000000000000000010000000080000000000000000000000000000000000000000000000001000000000000000000000008000000000000000000000200000000000002000000000000000000000800000000000000000000100000000000000000020000000000000000000000000000000000000000080004000000000000000000000000000000000000000000000000000000000000000000000000000220000000000000008000000000000000000000000000000000080000000004000000000000000000001000000000000000002000000000000100000000000000012000000000000000000000000000000000000400000000000000000100000",
      "type": "0x2",
      "transactionHash": "0xcc03ad3069f7486628363ce4799d65654d4ac17b6d965e3d7fc5d84b55473666",
      "transactionIndex": "0x6",
      "blockHash": "0xa31c57c57dbed89bc477654bd408d11b1338f7f6be09b68da9fee0aaa9df5d2b",
      "blockNumber": "0xb57c20",
      "gasUsed": "0xb47d",
      "effectiveGasPrice": "0x7aef40a00",
      "from": "0x21af1185734d213d45c6236146fb81e2b0e8b821",
      "to": "0x3d2bd0e15829aa5c362a4144fdf4a1112fa29b5c",
      "contractAddress": null
    },
    {
      "status": "0x1",
      "cumulativeGasUsed": "0x1124e4",
      "logs": [
        {
          "address": "0x0000000000000000000000000000000000001010",
          "topics": [
            "0xe6497e3ee548a3372136af2fcb0696db31fc6cf20260707645068bd3fe97f3c4",
            "0x0000000000000000000000000000000000000000000000000000000000001010",
            "0x00000000000000000000000021af1185734d213d45c6236146fb81e2b0e8b821",
            "0x0000000000000000000000009918889e93e8c4357a2d4bce0965dcc493fffda8"
          ],
          "data": "0x00000000000000000000000000000000000000000000000007bbec43cc3271c5000000000000000000000000000000000000000000000004386203a53b2b0dd9000000000000000000000000000000000000000000000000000000000000000000000000000000000000000000000000000000000000000430a617616ef89c1400000000000000000000000000000000000000000000000007bbec43cc3271c5",
          "blockHash": "0xa31c57c57dbed89bc477654bd408d11b1338f7f6be09b68da9fee0aaa9df5d2b",
          "blockNumber": "0xb57c20",
          "transactionHash": "0x54d48afb81174706a2d8031a226e11fba328358a6a1fad08581c2dd1c9f680ff",
          "transactionIndex": "0x7",
          "logIndex": "0x23",
          "removed": false
        },
        {
          "address": "0x3d2bd0e15829aa5c362a4144fdf4a1112fa29b5c",
          "topics": [
            "0xddf252ad1be2c89b69c2b068fc378daa952ba7f163c4a11628f55a4df523b3ef",
            "0x00000000000000000000000021af1185734d213d45c6236146fb81e2b0e8b821",
            "0x0000000000000000000000009918889e93e8c4357a2d4bce0965dcc493fffda8"
          ],
          "data": "0x00000000000000000000000000000000000000000000021e19e0c9bab2400000",
          "blockHash": "0xa31c57c57dbed89bc477654bd408d11b1338f7f6be09b68da9fee0aaa9df5d2b",
          "blockNumber": "0xb57c20",
          "transactionHash": "0x54d48afb81174706a2d8031a226e11fba328358a6a1fad08581c2dd1c9f680ff",
          "transactionIndex": "0x7",
          "logIndex": "0x24",
          "removed": false
        },
        {
          "address": "0x0000000000000000000000000000000000001010",
          "topics": [
            "0xe6497e3ee548a3372136af2fcb0696db31fc6cf20260707645068bd3fe97f3c4",
            "0x0000000000000000000000000000000000000000000000000000000000001010",
            "0x0000000000000000000000009918889e93e8c4357a2d4bce0965dcc493fffda8",
            "0x0000000000000000000000006edce65403992e310a62460808c4b910d972f10f"
          ],
          "data": "0x00000000000000000000000000000000000000000000000007bbec43cc3271c500000000000000000000000000000000000000000000000007bbec43cc3271c50000000000000000000000000000000000000000000000000000000000000000000000000000000000000000000000000000000000000000000000000000000000000000000000000000000000000000000000000000000007bbec43cc3271c5",
          "blockHash": "0xa31c57c57dbed89bc477654bd408d11b1338f7f6be09b68da9fee0aaa9df5d2b",
          "blockNumber": "0xb57c20",
          "transactionHash": "0x54d48afb81174706a2d8031a226e11fba328358a6a1fad08581c2dd1c9f680ff",
          "transactionIndex": "0x7",
          "logIndex": "0x25",
          "removed": false
        },
        {
          "address": "0x1d186c560281b8f1af831957ed5047fd3ab902f9",
          "topics": [
            "0x61ed099e74a97a1d7f8bb0952a88ca8b7b8ebd00c126ea04671f92a81213318a"
          ],
          "data": "0x0000000000000000000000004cf1b3fa61465c2c907f82fc488b43223ba0cf93000000000000000000000000000000000000000000000000075b6fc32b301958",
          "blockHash": "0xa31c57c57dbed89bc477654bd408d11b1338f7f6be09b68da9fee0aaa9df5d2b",
          "blockNumber": "0xb57c20",
          "transactionHash": "0x54d48afb81174706a2d8031a226e11fba328358a6a1fad08581c2dd1c9f680ff",
          "transactionIndex": "0x7",
          "logIndex": "0x26",
          "removed": false
        },
        {
          "address": "0x1d186c560281b8f1af831957ed5047fd3ab902f9",
          "topics": [
            "0x07ea52d82345d6e838192107d8fd7123d9c2ec8e916cd0aad13fd2b60db24644"
          ],
          "data": "0x000000000000000000000000000000000000000000000000000000000000006000000000000000000000000000000000000000000000000000000000000000a000000000000000000000000000000000000000000000000000000000000000c0000000000000000000000000000000000000000000000000000000000000000100000000000000000000000055c175dd5b039331db251424538169d8495c18d10000000000000000000000000000000000000000000000000000000000000000000000000000000000000000000000000000000000000000000000000000000100000000000000000000000000000000000000000000000000607c80a102586d",
          "blockHash": "0xa31c57c57dbed89bc477654bd408d11b1338f7f6be09b68da9fee0aaa9df5d2b",
          "blockNumber": "0xb57c20",
          "transactionHash": "0x54d48afb81174706a2d8031a226e11fba328358a6a1fad08581c2dd1c9f680ff",
          "transactionIndex": "0x7",
          "logIndex": "0x27",
          "removed": false
        },
        {
          "address": "0x6edce65403992e310a62460808c4b910d972f10f",
          "topics": [
            "0x1ab700d4ced0c005b164c0f789fd09fcbb0156d4c2041b8a3bfbcd961cd1567f"
          ],
          "data": "0x000000000000000000000000000000000000000000000000000000000000006000000000000000000000000000000000000000000000000000000000000001200000000000000000000000001d186c560281b8f1af831957ed5047fd3ab902f9000000000000000000000000000000000000000000000000000000000000009901000000000000001400009d4b0000000000000000000000009918889e93e8c4357a2d4bce0965dcc493fffda800009d350000000000000000000000003d2bd0e15829aa5c362a4144fdf4a1112fa29b5ca21d18a7af4ac80a2833147ec9a0a994bf33cbc8668163b117d9467f3f85f9f700000000000000000000000021af1185734d213d45c6236146fb81e2b0e8b82100000002540be4000000000000000000000000000000000000000000000000000000000000000000000000000000160003010011010000000000000000000000000000fde800000000000000000000",
          "blockHash": "0xa31c57c57dbed89bc477654bd408d11b1338f7f6be09b68da9fee0aaa9df5d2b",
          "blockNumber": "0xb57c20",
          "transactionHash": "0x54d48afb81174706a2d8031a226e11fba328358a6a1fad08581c2dd1c9f680ff",
          "transactionIndex": "0x7",
          "logIndex": "0x28",
          "removed": false
        },
        {
          "address": "0x0000000000000000000000000000000000001010",
          "topics": [
            "0xe6497e3ee548a3372136af2fcb0696db31fc6cf20260707645068bd3fe97f3c4",
            "0x0000000000000000000000000000000000000000000000000000000000001010",
            "0x0000000000000000000000006edce65403992e310a62460808c4b910d972f10f",
            "0x0000000000000000000000001d186c560281b8f1af831957ed5047fd3ab902f9"
          ],
          "data": "0x00000000000000000000000000000000000000000000000007bbec43cc3271c500000000000000000000000000000000000000000000000007bbec43cc3271c500000000000000000000000000000000000000000000004623eb70fb212fb2eb00000000000000000000000000000000000000000000000000000000000000000000000000000000000000000000000000000000000000462ba75d3eed6224b0",
          "blockHash": "0xa31c57c57dbed89bc477654bd408d11b1338f7f6be09b68da9fee0aaa9df5d2b",
          "blockNumber": "0xb57c20",
          "transactionHash": "0x54d48afb81174706a2d8031a226e11fba328358a6a1fad08581c2dd1c9f680ff",
          "transactionIndex": "0x7",
          "logIndex": "0x29",
          "removed": false
        },
        {
          "address": "0x9918889e93e8c4357a2d4bce0965dcc493fffda8",
          "topics": [
            "0x85496b760a4b7f8d66384b9df21b381f5d1b1e79f229a47aaf4c232edc2fe59a",
            "0xa21d18a7af4ac80a2833147ec9a0a994bf33cbc8668163b117d9467f3f85f9f7",
            "0x00000000000000000000000021af1185734d213d45c6236146fb81e2b0e8b821"
          ],
          "data": "0x0000000000000000000000000000000000000000000000000000000000009d3500000000000000000000000000000000000000000000021e19e0c9bab240000000000000000000000000000000000000000000000000021e19e0c9bab2400000",
          "blockHash": "0xa31c57c57dbed89bc477654bd408d11b1338f7f6be09b68da9fee0aaa9df5d2b",
          "blockNumber": "0xb57c20",
          "transactionHash": "0x54d48afb81174706a2d8031a226e11fba328358a6a1fad08581c2dd1c9f680ff",
          "transactionIndex": "0x7",
          "logIndex": "0x2a",
          "removed": false
        },
        {
          "address": "0x0000000000000000000000000000000000001010",
          "topics": [
            "0x4dfe1bbbcf077ddc3e01291eea2d5c70c2b422b415d95645b9adcfd678cb1d63",
            "0x0000000000000000000000000000000000000000000000000000000000001010",
            "0x00000000000000000000000021af1185734d213d45c6236146fb81e2b0e8b821",
            "0x000000000000000000000000915a2284d28bd93de7d6f31173b981204bb666e6"
          ],
          "data": "0x000000000000000000000000000000000000000000000000001b84752286ad67000000000000000000000000000000000000000000000004388805c90e0ae1d900000000000000000000000000000000000000000000039a79c5838a68280fa4000000000000000000000000000000000000000000000004386c8153eb84347200000000000000000000000000000000000000000000039a79e107ff8aaebd0b",
          "blockHash": "0xa31c57c57dbed89bc477654bd408d11b1338f7f6be09b68da9fee0aaa9df5d2b",
          "blockNumber": "0xb57c20",
          "transactionHash": "0x54d48afb81174706a2d8031a226e11fba328358a6a1fad08581c2dd1c9f680ff",
          "transactionIndex": "0x7",
          "logIndex": "0x2b",
          "removed": false
        }
      ],
      "logsBloom": "0x400000000000000000100000000800000000000000000000000000000000000000000000000010002000001000000000000080000000000000000000000040000000028020000000000000080000008000400000000000000001000000020000000000200000000082000010000000000000000000000000800040100000000040000000000000200000000800000000000000000000000000000000000000002000000080000000081000240000000000000800004000000004c0000000004000000002000000000001002080000000000082000008801200108000000000000002040000000000000000000000002008000000408000000000000000100000",
      "type": "0x2",
      "transactionHash": "0x54d48afb81174706a2d8031a226e11fba328358a6a1fad08581c2dd1c9f680ff",
      "transactionIndex": "0x7",
      "blockHash": "0xa31c57c57dbed89bc477654bd408d11b1338f7f6be09b68da9fee0aaa9df5d2b",
      "blockNumber": "0xb57c20",
      "gasUsed": "0x394d7",
      "effectiveGasPrice": "0x7aef40a00",
      "from": "0x21af1185734d213d45c6236146fb81e2b0e8b821",
      "to": "0x9918889e93e8c4357a2d4bce0965dcc493fffda8",
      "contractAddress": null
    },
    {
      "status": "0x1",
      "cumulativeGasUsed": "0x11d961",
      "logs": [
        {
          "address": "0x3d2bd0e15829aa5c362a4144fdf4a1112fa29b5c",
          "topics": [
            "0x8c5be1e5ebec7d5bd14f71427d1e84f3dd0314c0f7b2291e5b200ac8c7c3b925",
            "0x00000000000000000000000021af1185734d213d45c6236146fb81e2b0e8b821",
            "0x0000000000000000000000009918889e93e8c4357a2d4bce0965dcc493fffda8"
          ],
          "data": "0x00000000000000000000000000000000000000000000152d02c7e14af6800000",
          "blockHash": "0xa31c57c57dbed89bc477654bd408d11b1338f7f6be09b68da9fee0aaa9df5d2b",
          "blockNumber": "0xb57c20",
          "transactionHash": "0x62607d6f9bd5e762eef8ee410a5b2178a1cd1b63ca207a87e2293d1c8e41a9a8",
          "transactionIndex": "0x8",
          "logIndex": "0x2c",
          "removed": false
        },
        {
          "address": "0x0000000000000000000000000000000000001010",
          "topics": [
            "0x4dfe1bbbcf077ddc3e01291eea2d5c70c2b422b415d95645b9adcfd678cb1d63",
            "0x0000000000000000000000000000000000000000000000000000000000001010",
            "0x00000000000000000000000021af1185734d213d45c6236146fb81e2b0e8b821",
            "0x000000000000000000000000915a2284d28bd93de7d6f31173b981204bb666e6"
          ],
          "data": "0x00000000000000000000000000000000000000000000000000056ac404264ead00000000000000000000000000000000000000000000000430b095101f1c0a1400000000000000000000000000000000000000000000039a79e107ff8aaebd0b00000000000000000000000000000000000000000000000430ab2a4c1af5bb6700000000000000000000000000000000000000000000039a79e672c38ed50bb8",
          "blockHash": "0xa31c57c57dbed89bc477654bd408d11b1338f7f6be09b68da9fee0aaa9df5d2b",
          "blockNumber": "0xb57c20",
          "transactionHash": "0x62607d6f9bd5e762eef8ee410a5b2178a1cd1b63ca207a87e2293d1c8e41a9a8",
          "transactionIndex": "0x8",
          "logIndex": "0x2d",
          "removed": false
        }
      ],
      "logsBloom": "0x40000000000000000010000000080000000000000000000000000000000000000000000000001000000000000000000000008000000000000000000000200000000000002000000000000000000000800000000000000000000100000000000000000020000000000000000000000000000000000000000080004000000000000000000000000000000000000000000000000000000000000000000000000000220000000000000008000000000000000000000000000000000080000000004000000000000000000001000000000000000002000000000000100000000000000012000000000000000000000000000000000000400000000000000000100000",
      "type": "0x2",
      "transactionHash": "0x62607d6f9bd5e762eef8ee410a5b2178a1cd1b63ca207a87e2293d1c8e41a9a8",
      "transactionIndex": "0x8",
      "blockHash": "0xa31c57c57dbed89bc477654bd408d11b1338f7f6be09b68da9fee0aaa9df5d2b",
      "blockNumber": "0xb57c20",
      "gasUsed": "0xb47d",
      "effectiveGasPrice": "0x7aef40a00",
      "from": "0x21af1185734d213d45c6236146fb81e2b0e8b821",
      "to": "0x3d2bd0e15829aa5c362a4144fdf4a1112fa29b5c",
      "contractAddress": null
    },
    {
      "status": "0x1",
      "cumulativeGasUsed": "0x156e38",
      "logs": [
        {
          "address": "0x0000000000000000000000000000000000001010",
          "topics": [
            "0xe6497e3ee548a3372136af2fcb0696db31fc6cf20260707645068bd3fe97f3c4",
            "0x0000000000000000000000000000000000000000000000000000000000001010",
            "0x00000000000000000000000021af1185734d213d45c6236146fb81e2b0e8b821",
            "0x0000000000000000000000009918889e93e8c4357a2d4bce0965dcc493fffda8"
          ],
          "data": "0x00000000000000000000000000000000000000000000000007bbec43cc3271c500000000000000000000000000000000000000000000000430852828480b5414000000000000000000000000000000000000000000000000000000000000000000000000000000000000000000000000000000000000000428c93be47bd8e24f00000000000000000000000000000000000000000000000007bbec43cc3271c5",
          "blockHash": "0xa31c57c57dbed89bc477654bd408d11b1338f7f6be09b68da9fee0aaa9df5d2b",
          "blockNumber": "0xb57c20",
          "transactionHash": "0x3fc97ce47eda4709212023bdcc37ade46de5d26b425b40a033d855c8bfea9088",
          "transactionIndex": "0x9",
          "logIndex": "0x2e",
          "removed": false
        },
        {
          "address": "0x3d2bd0e15829aa5c362a4144fdf4a1112fa29b5c",
          "topics": [
            "0xddf252ad1be2c89b69c2b068fc378daa952ba7f163c4a11628f55a4df523b3ef",
            "0x00000000000000000000000021af1185734d213d45c6236146fb81e2b0e8b821",
            "0x0000000000000000000000009918889e93e8c4357a2d4bce0965dcc493fffda8"
          ],
          "data": "0x00000000000000000000000000000000000000000000152d02c7e14af6800000",
          "blockHash": "0xa31c57c57dbed89bc477654bd408d11b1338f7f6be09b68da9fee0aaa9df5d2b",
          "blockNumber": "0xb57c20",
          "transactionHash": "0x3fc97ce47eda4709212023bdcc37ade46de5d26b425b40a033d855c8bfea9088",
          "transactionIndex": "0x9",
          "logIndex": "0x2f",
          "removed": false
        },
        {
          "address": "0x0000000000000000000000000000000000001010",
          "topics": [
            "0xe6497e3ee548a3372136af2fcb0696db31fc6cf20260707645068bd3fe97f3c4",
            "0x0000000000000000000000000000000000000000000000000000000000001010",
            "0x0000000000000000000000009918889e93e8c4357a2d4bce0965dcc493fffda8",
            "0x0000000000000000000000006edce65403992e310a62460808c4b910d972f10f"
          ],
          "data": "0x00000000000000000000000000000000000000000000000007bbec43cc3271c500000000000000000000000000000000000000000000000007bbec43cc3271c50000000000000000000000000000000000000000000000000000000000000000000000000000000000000000000000000000000000000000000000000000000000000000000000000000000000000000000000000000000007bbec43cc3271c5",
          "blockHash": "0xa31c57c57dbed89bc477654bd408d11b1338f7f6be09b68da9fee0aaa9df5d2b",
          "blockNumber": "0xb57c20",
          "transactionHash": "0x3fc97ce47eda4709212023bdcc37ade46de5d26b425b40a033d855c8bfea9088",
          "transactionIndex": "0x9",
          "logIndex": "0x30",
          "removed": false
        },
        {
          "address": "0x1d186c560281b8f1af831957ed5047fd3ab902f9",
          "topics": [
            "0x61ed099e74a97a1d7f8bb0952a88ca8b7b8ebd00c126ea04671f92a81213318a"
          ],
          "data": "0x0000000000000000000000004cf1b3fa61465c2c907f82fc488b43223ba0cf93000000000000000000000000000000000000000000000000075b6fc32b301958",
          "blockHash": "0xa31c57c57dbed89bc477654bd408d11b1338f7f6be09b68da9fee0aaa9df5d2b",
          "blockNumber": "0xb57c20",
          "transactionHash": "0x3fc97ce47eda4709212023bdcc37ade46de5d26b425b40a033d855c8bfea9088",
          "transactionIndex": "0x9",
          "logIndex": "0x31",
          "removed": false
        },
        {
          "address": "0x1d186c560281b8f1af831957ed5047fd3ab902f9",
          "topics": [
            "0x07ea52d82345d6e838192107d8fd7123d9c2ec8e916cd0aad13fd2b60db24644"
          ],
          "data": "0x000000000000000000000000000000000000000000000000000000000000006000000000000000000000000000000000000000000000000000000000000000a000000000000000000000000000000000000000000000000000000000000000c0000000000000000000000000000000000000000000000000000000000000000100000000000000000000000055c175dd5b039331db251424538169d8495c18d10000000000000000000000000000000000000000000000000000000000000000000000000000000000000000000000000000000000000000000000000000000100000000000000000000000000000000000000000000000000607c80a102586d",
          "blockHash": "0xa31c57c57dbed89bc477654bd408d11b1338f7f6be09b68da9fee0aaa9df5d2b",
          "blockNumber": "0xb57c20",
          "transactionHash": "0x3fc97ce47eda4709212023bdcc37ade46de5d26b425b40a033d855c8bfea9088",
          "transactionIndex": "0x9",
          "logIndex": "0x32",
          "removed": false
        },
        {
          "address": "0x6edce65403992e310a62460808c4b910d972f10f",
          "topics": [
            "0x1ab700d4ced0c005b164c0f789fd09fcbb0156d4c2041b8a3bfbcd961cd1567f"
          ],
          "data": "0x000000000000000000000000000000000000000000000000000000000000006000000000000000000000000000000000000000000000000000000000000001200000000000000000000000001d186c560281b8f1af831957ed5047fd3ab902f9000000000000000000000000000000000000000000000000000000000000009901000000000000001500009d4b0000000000000000000000009918889e93e8c4357a2d4bce0965dcc493fffda800009d350000000000000000000000003d2bd0e15829aa5c362a4144fdf4a1112fa29b5c9270c3390fd9d22d7ecf79d8c145b9ef82f063ee4e0d31f329c2f635e5c9a4bb00000000000000000000000021af1185734d213d45c6236146fb81e2b0e8b821000000174876e8000000000000000000000000000000000000000000000000000000000000000000000000000000160003010011010000000000000000000000000000fde800000000000000000000",
          "blockHash": "0xa31c57c57dbed89bc477654bd408d11b1338f7f6be09b68da9fee0aaa9df5d2b",
          "blockNumber": "0xb57c20",
          "transactionHash": "0x3fc97ce47eda4709212023bdcc37ade46de5d26b425b40a033d855c8bfea9088",
          "transactionIndex": "0x9",
          "logIndex": "0x33",
          "removed": false
        },
        {
          "address": "0x0000000000000000000000000000000000001010",
          "topics": [
            "0xe6497e3ee548a3372136af2fcb0696db31fc6cf20260707645068bd3fe97f3c4",
            "0x0000000000000000000000000000000000000000000000000000000000001010",
            "0x0000000000000000000000006edce65403992e310a62460808c4b910d972f10f",
            "0x0000000000000000000000001d186c560281b8f1af831957ed5047fd3ab902f9"
          ],
          "data": "0x00000000000000000000000000000000000000000000000007bbec43cc3271c500000000000000000000000000000000000000000000000007bbec43cc3271c50000000000000000000000000000000000000000000000462ba75d3eed6224b0000000000000000000000000000000000000000000000000000000000000000000000000000000000000000000000000000000000000004633634982b9949675",
          "blockHash": "0xa31c57c57dbed89bc477654bd408d11b1338f7f6be09b68da9fee0aaa9df5d2b",
          "blockNumber": "0xb57c20",
          "transactionHash": "0x3fc97ce47eda4709212023bdcc37ade46de5d26b425b40a033d855c8bfea9088",
          "transactionIndex": "0x9",
          "logIndex": "0x34",
          "removed": false
        },
        {
          "address": "0x9918889e93e8c4357a2d4bce0965dcc493fffda8",
          "topics": [
            "0x85496b760a4b7f8d66384b9df21b381f5d1b1e79f229a47aaf4c232edc2fe59a",
            "0x9270c3390fd9d22d7ecf79d8c145b9ef82f063ee4e0d31f329c2f635e5c9a4bb",
            "0x00000000000000000000000021af1185734d213d45c6236146fb81e2b0e8b821"
          ],
          "data": "0x0000000000000000000000000000000000000000000000000000000000009d3500000000000000000000000000000000000000000000152d02c7e14af680000000000000000000000000000000000000000000000000152d02c7e14af6800000",
          "blockHash": "0xa31c57c57dbed89bc477654bd408d11b1338f7f6be09b68da9fee0aaa9df5d2b",
          "blockNumber": "0xb57c20",
          "transactionHash": "0x3fc97ce47eda4709212023bdcc37ade46de5d26b425b40a033d855c8bfea9088",
          "transactionIndex": "0x9",
          "logIndex": "0x35",
          "removed": false
        },
        {
          "address": "0x0000000000000000000000000000000000001010",
          "topics": [
            "0x4dfe1bbbcf077ddc3e01291eea2d5c70c2b422b415d95645b9adcfd678cb1d63",
            "0x0000000000000000000000000000000000000000000000000000000000001010",
            "0x00000000000000000000000021af1185734d213d45c6236146fb81e2b0e8b821",
            "0x000000000000000000000000915a2284d28bd93de7d6f31173b981204bb666e6"
          ],
          "data": "0x000000000000000000000000000000000000000000000000001b84752286ad6700000000000000000000000000000000000000000000000430ab2a4c1aeb281400000000000000000000000000000000000000000000039a79e672c38ed50bb8000000000000000000000000000000000000000000000004308fa5d6f8647aad00000000000000000000000000000000000000000000039a7a01f738b15bb91f",
          "blockHash": "0xa31c57c57dbed89bc477654bd408d11b1338f7f6be09b68da9fee0aaa9df5d2b",
          "blockNumber": "0xb57c20",
          "transactionHash": "0x3fc97ce47eda4709212023bdcc37ade46de5d26b425b40a033d855c8bfea9088",
          "transactionIndex": "0x9",
          "logIndex": "0x36",
          "removed": false
        }
      ],
      "logsBloom": "0x400000000000000000100000000800000000000000000000000000000000000000000000000010002000001000000000000080000000000000000000000040000000028020000000000000080001008000000000000010000001000000020000000000200000000082000010000000000000000000000000800040100000000020000000000000200000000800000000000000000000000000000000000000002000000080000000081000240000000000000800004000000004c0000000004000000002000000000001002080000000000002000008801200108000000000000002040000000000000000000000002008000000408000000000000000100000",
      "type": "0x2",
      "transactionHash": "0x3fc97ce47eda4709212023bdcc37ade46de5d26b425b40a033d855c8bfea9088",
      "transactionIndex": "0x9",
      "blockHash": "0xa31c57c57dbed89bc477654bd408d11b1338f7f6be09b68da9fee0aaa9df5d2b",
      "blockNumber": "0xb57c20",
      "gasUsed": "0x394d7",
      "effectiveGasPrice": "0x7aef40a00",
      "from": "0x21af1185734d213d45c6236146fb81e2b0e8b821",
      "to": "0x9918889e93e8c4357a2d4bce0965dcc493fffda8",
      "contractAddress": null
    },
    {
      "status": "0x1",
      "cumulativeGasUsed": "0x1622a9",
      "logs": [
        {
          "address": "0x3d2bd0e15829aa5c362a4144fdf4a1112fa29b5c",
          "topics": [
            "0x8c5be1e5ebec7d5bd14f71427d1e84f3dd0314c0f7b2291e5b200ac8c7c3b925",
            "0x00000000000000000000000021af1185734d213d45c6236146fb81e2b0e8b821",
            "0x0000000000000000000000009918889e93e8c4357a2d4bce0965dcc493fffda8"
          ],
          "data": "0x000000000000000000000000000000000000000000002a5a058fc295ed000000",
          "blockHash": "0xa31c57c57dbed89bc477654bd408d11b1338f7f6be09b68da9fee0aaa9df5d2b",
          "blockNumber": "0xb57c20",
          "transactionHash": "0x8b2945110e4a72a26618c121bec0dcef3254837fca3c2d12d6e827e2e8c74bac",
          "transactionIndex": "0xa",
          "logIndex": "0x37",
          "removed": false
        },
        {
          "address": "0x0000000000000000000000000000000000001010",
          "topics": [
            "0x4dfe1bbbcf077ddc3e01291eea2d5c70c2b422b415d95645b9adcfd678cb1d63",
            "0x0000000000000000000000000000000000000000000000000000000000001010",
            "0x00000000000000000000000021af1185734d213d45c6236146fb81e2b0e8b821",
            "0x000000000000000000000000915a2284d28bd93de7d6f31173b981204bb666e6"
          ],
          "data": "0x00000000000000000000000000000000000000000000000000056a67d0b5d76100000000000000000000000000000000000000000000000428d3b9932bfc504f00000000000000000000000000000000000000000000039a7a01f738b15bb91f00000000000000000000000000000000000000000000000428ce4f2b5b4678ee00000000000000000000000000000000000000000000039a7a0761a082119080",
          "blockHash": "0xa31c57c57dbed89bc477654bd408d11b1338f7f6be09b68da9fee0aaa9df5d2b",
          "blockNumber": "0xb57c20",
          "transactionHash": "0x8b2945110e4a72a26618c121bec0dcef3254837fca3c2d12d6e827e2e8c74bac",
          "transactionIndex": "0xa",
          "logIndex": "0x38",
          "removed": false
        }
      ],
      "logsBloom": "0x40000000000000000010000000080000000000000000000000000000000000000000000000001000000000000000000000008000000000000000000000200000000000002000000000000000000000800000000000000000000100000000000000000020000000000000000000000000000000000000000080004000000000000000000000000000000000000000000000000000000000000000000000000000220000000000000008000000000000000000000000000000000080000000004000000000000000000001000000000000000002000000000000100000000000000012000000000000000000000000000000000000400000000000000000100000",
      "type": "0x2",
      "transactionHash": "0x8b2945110e4a72a26618c121bec0dcef3254837fca3c2d12d6e827e2e8c74bac",
      "transactionIndex": "0xa",
      "blockHash": "0xa31c57c57dbed89bc477654bd408d11b1338f7f6be09b68da9fee0aaa9df5d2b",
      "blockNumber": "0xb57c20",
      "gasUsed": "0xb471",
      "effectiveGasPrice": "0x7aef40a00",
      "from": "0x21af1185734d213d45c6236146fb81e2b0e8b821",
      "to": "0x3d2bd0e15829aa5c362a4144fdf4a1112fa29b5c",
      "contractAddress": null
    },
    {
      "status": "0x1",
      "cumulativeGasUsed": "0x19b768",
      "logs": [
        {
          "address": "0x0000000000000000000000000000000000001010",
          "topics": [
            "0xe6497e3ee548a3372136af2fcb0696db31fc6cf20260707645068bd3fe97f3c4",
            "0x0000000000000000000000000000000000000000000000000000000000001010",
            "0x00000000000000000000000021af1185734d213d45c6236146fb81e2b0e8b821",
            "0x0000000000000000000000009918889e93e8c4357a2d4bce0965dcc493fffda8"
          ],
          "data": "0x00000000000000000000000000000000000000000000000007bbec43cc3271c500000000000000000000000000000000000000000000000428a84e0cc4c5664f000000000000000000000000000000000000000000000000000000000000000000000000000000000000000000000000000000000000000420ec61c8f892f48a00000000000000000000000000000000000000000000000007bbec43cc3271c5",
          "blockHash": "0xa31c57c57dbed89bc477654bd408d11b1338f7f6be09b68da9fee0aaa9df5d2b",
          "blockNumber": "0xb57c20",
          "transactionHash": "0x9b58b7750ebae25ec65772678780d7143d31313db195832f8bbdb12fbc7071c4",
          "transactionIndex": "0xb",
          "logIndex": "0x39",
          "removed": false
        },
        {
          "address": "0x3d2bd0e15829aa5c362a4144fdf4a1112fa29b5c",
          "topics": [
            "0xddf252ad1be2c89b69c2b068fc378daa952ba7f163c4a11628f55a4df523b3ef",
            "0x00000000000000000000000021af1185734d213d45c6236146fb81e2b0e8b821",
            "0x0000000000000000000000009918889e93e8c4357a2d4bce0965dcc493fffda8"
          ],
          "data": "0x000000000000000000000000000000000000000000002a5a058fc295ed000000",
          "blockHash": "0xa31c57c57dbed89bc477654bd408d11b1338f7f6be09b68da9fee0aaa9df5d2b",
          "blockNumber": "0xb57c20",
          "transactionHash": "0x9b58b7750ebae25ec65772678780d7143d31313db195832f8bbdb12fbc7071c4",
          "transactionIndex": "0xb",
          "logIndex": "0x3a",
          "removed": false
        },
        {
          "address": "0x0000000000000000000000000000000000001010",
          "topics": [
            "0xe6497e3ee548a3372136af2fcb0696db31fc6cf20260707645068bd3fe97f3c4",
            "0x0000000000000000000000000000000000000000000000000000000000001010",
            "0x0000000000000000000000009918889e93e8c4357a2d4bce0965dcc493fffda8",
            "0x0000000000000000000000006edce65403992e310a62460808c4b910d972f10f"
          ],
          "data": "0x00000000000000000000000000000000000000000000000007bbec43cc3271c500000000000000000000000000000000000000000000000007bbec43cc3271c50000000000000000000000000000000000000000000000000000000000000000000000000000000000000000000000000000000000000000000000000000000000000000000000000000000000000000000000000000000007bbec43cc3271c5",
          "blockHash": "0xa31c57c57dbed89bc477654bd408d11b1338f7f6be09b68da9fee0aaa9df5d2b",
          "blockNumber": "0xb57c20",
          "transactionHash": "0x9b58b7750ebae25ec65772678780d7143d31313db195832f8bbdb12fbc7071c4",
          "transactionIndex": "0xb",
          "logIndex": "0x3b",
          "removed": false
        },
        {
          "address": "0x1d186c560281b8f1af831957ed5047fd3ab902f9",
          "topics": [
            "0x61ed099e74a97a1d7f8bb0952a88ca8b7b8ebd00c126ea04671f92a81213318a"
          ],
          "data": "0x0000000000000000000000004cf1b3fa61465c2c907f82fc488b43223ba0cf93000000000000000000000000000000000000000000000000075b6fc32b301958",
          "blockHash": "0xa31c57c57dbed89bc477654bd408d11b1338f7f6be09b68da9fee0aaa9df5d2b",
          "blockNumber": "0xb57c20",
          "transactionHash": "0x9b58b7750ebae25ec65772678780d7143d31313db195832f8bbdb12fbc7071c4",
          "transactionIndex": "0xb",
          "logIndex": "0x3c",
          "removed": false
        },
        {
          "address": "0x1d186c560281b8f1af831957ed5047fd3ab902f9",
          "topics": [
            "0x07ea52d82345d6e838192107d8fd7123d9c2ec8e916cd0aad13fd2b60db24644"
          ],
          "data": "0x000000000000000000000000000000000000000000000000000000000000006000000000000000000000000000000000000000000000000000000000000000a000000000000000000000000000000000000000000000000000000000000000c0000000000000000000000000000000000000000000000000000000000000000100000000000000000000000055c175dd5b039331db251424538169d8495c18d10000000000000000000000000000000000000000000000000000000000000000000000000000000000000000000000000000000000000000000000000000000100000000000000000000000000000000000000000000000000607c80a102586d",
          "blockHash": "0xa31c57c57dbed89bc477654bd408d11b1338f7f6be09b68da9fee0aaa9df5d2b",
          "blockNumber": "0xb57c20",
          "transactionHash": "0x9b58b7750ebae25ec65772678780d7143d31313db195832f8bbdb12fbc7071c4",
          "transactionIndex": "0xb",
          "logIndex": "0x3d",
          "removed": false
        },
        {
          "address": "0x6edce65403992e310a62460808c4b910d972f10f",
          "topics": [
            "0x1ab700d4ced0c005b164c0f789fd09fcbb0156d4c2041b8a3bfbcd961cd1567f"
          ],
          "data": "0x000000000000000000000000000000000000000000000000000000000000006000000000000000000000000000000000000000000000000000000000000001200000000000000000000000001d186c560281b8f1af831957ed5047fd3ab902f9000000000000000000000000000000000000000000000000000000000000009901000000000000001600009d4b0000000000000000000000009918889e93e8c4357a2d4bce0965dcc493fffda800009d350000000000000000000000003d2bd0e15829aa5c362a4144fdf4a1112fa29b5ccdb78d3110783642d9ed1900d91c40e8213ba638be3d0edb915a5e592763125800000000000000000000000021af1185734d213d45c6236146fb81e2b0e8b8210000002e90edd0000000000000000000000000000000000000000000000000000000000000000000000000000000160003010011010000000000000000000000000000fde800000000000000000000",
          "blockHash": "0xa31c57c57dbed89bc477654bd408d11b1338f7f6be09b68da9fee0aaa9df5d2b",
          "blockNumber": "0xb57c20",
          "transactionHash": "0x9b58b7750ebae25ec65772678780d7143d31313db195832f8bbdb12fbc7071c4",
          "transactionIndex": "0xb",
          "logIndex": "0x3e",
          "removed": false
        },
        {
          "address": "0x0000000000000000000000000000000000001010",
          "topics": [
            "0xe6497e3ee548a3372136af2fcb0696db31fc6cf20260707645068bd3fe97f3c4",
            "0x0000000000000000000000000000000000000000000000000000000000001010",
            "0x0000000000000000000000006edce65403992e310a62460808c4b910d972f10f",
            "0x0000000000000000000000001d186c560281b8f1af831957ed5047fd3ab902f9"
          ],
          "data": "0x00000000000000000000000000000000000000000000000007bbec43cc3271c500000000000000000000000000000000000000000000000007bbec43cc3271c500000000000000000000000000000000000000000000004633634982b994967500000000000000000000000000000000000000000000000000000000000000000000000000000000000000000000000000000000000000463b1f35c685c7083a",
          "blockHash": "0xa31c57c57dbed89bc477654bd408d11b1338f7f6be09b68da9fee0aaa9df5d2b",
          "blockNumber": "0xb57c20",
          "transactionHash": "0x9b58b7750ebae25ec65772678780d7143d31313db195832f8bbdb12fbc7071c4",
          "transactionIndex": "0xb",
          "logIndex": "0x3f",
          "removed": false
        },
        {
          "address": "0x9918889e93e8c4357a2d4bce0965dcc493fffda8",
          "topics": [
            "0x85496b760a4b7f8d66384b9df21b381f5d1b1e79f229a47aaf4c232edc2fe59a",
            "0xcdb78d3110783642d9ed1900d91c40e8213ba638be3d0edb915a5e5927631258",
            "0x00000000000000000000000021af1185734d213d45c6236146fb81e2b0e8b821"
          ],
          "data": "0x0000000000000000000000000000000000000000000000000000000000009d35000000000000000000000000000000000000000000002a5a058fc295ed000000000000000000000000000000000000000000000000002a5a058fc295ed000000",
          "blockHash": "0xa31c57c57dbed89bc477654bd408d11b1338f7f6be09b68da9fee0aaa9df5d2b",
          "blockNumber": "0xb57c20",
          "transactionHash": "0x9b58b7750ebae25ec65772678780d7143d31313db195832f8bbdb12fbc7071c4",
          "transactionIndex": "0xb",
          "logIndex": "0x40",
          "removed": false
        },
        {
          "address": "0x0000000000000000000000000000000000001010",
          "topics": [
            "0x4dfe1bbbcf077ddc3e01291eea2d5c70c2b422b415d95645b9adcfd678cb1d63",
            "0x0000000000000000000000000000000000000000000000000000000000001010",
            "0x00000000000000000000000021af1185734d213d45c6236146fb81e2b0e8b821",
            "0x000000000000000000000000915a2284d28bd93de7d6f31173b981204bb666e6"
          ],
          "data": "0x000000000000000000000000000000000000000000000000001b83bcbba5becf00000000000000000000000000000000000000000000000428ce4f2b5b3be64f00000000000000000000000000000000000000000000039a7a0761a08211908000000000000000000000000000000000000000000000000428b2cb6e9f96278000000000000000000000000000000000000000000000039a7a22e55d3db74f4f",
          "blockHash": "0xa31c57c57dbed89bc477654bd408d11b1338f7f6be09b68da9fee0aaa9df5d2b",
          "blockNumber": "0xb57c20",
          "transactionHash": "0x9b58b7750ebae25ec65772678780d7143d31313db195832f8bbdb12fbc7071c4",
          "transactionIndex": "0xb",
          "logIndex": "0x41",
          "removed": false
        }
      ],
      "logsBloom": "0x400000000000000000100000000800000000000000000000000000000000000000000000000010002000001000000000000080000000000000000000000040000000028020000000000000080000008000000000000000000001000000020001000000300000000082000010000000000000000000000000800040100000000000000000000000200000000800000000000000000000000000000000000000002000002080000000081000240000000000000800004000000004c0000000004000000002000000000001002080000000000002000008801200108000000000000002040000000000000000000000002008000000408000000000000000100000",
      "type": "0x2",
      "transactionHash": "0x9b58b7750ebae25ec65772678780d7143d31313db195832f8bbdb12fbc7071c4",
      "transactionIndex": "0xb",
      "blockHash": "0xa31c57c57dbed89bc477654bd408d11b1338f7f6be09b68da9fee0aaa9df5d2b",
      "blockNumber": "0xb57c20",
      "gasUsed": "0x394bf",
      "effectiveGasPrice": "0x7aef40a00",
      "from": "0x21af1185734d213d45c6236146fb81e2b0e8b821",
      "to": "0x9918889e93e8c4357a2d4bce0965dcc493fffda8",
      "contractAddress": null
    }
  ],
  "libraries": [],
  "pending": [],
  "returns": {},
  "timestamp": 1726172163,
  "chain": 80002,
  "commit": "ca84423"
}