{
  "transactions": [
    {
      "hash": "0x62855fb721852f34fe99c0a4f616d30888ebe34fde584bebd462082c72778b92",
      "transactionType": "CALL",
      "contractName": null,
      "contractAddress": "0x3d2bd0e15829aa5c362a4144fdf4a1112fa29b5c",
      "function": "approve(address,uint256)",
      "arguments": [
        "0x9918889E93e8c4357a2D4bCE0965dcC493FFFDA8",
        "50000000000000000000"
      ],
      "transaction": {
        "from": "0x21af1185734d213d45c6236146fb81e2b0e8b821",
        "to": "0x3d2bd0e15829aa5c362a4144fdf4a1112fa29b5c",
        "gas": "0x107e5",
        "value": "0x0",
        "input": "0x095ea7b30000000000000000000000009918889e93e8c4357a2d4bce0965dcc493fffda8000000000000000000000000000000000000000000000002b5e3af16b1880000",
        "nonce": "0x3d",
        "chainId": "0x13882"
      },
      "additionalContracts": [],
      "isFixedGasLimit": false
    },
    {
      "hash": "0x8e45c6a041412766227de457c40f2faa3bdf8c76db5e20bd786ebed63b5085a9",
      "transactionType": "CALL",
      "contractName": null,
      "contractAddress": "0x9918889e93e8c4357a2d4bce0965dcc493fffda8",
      "function": "send((uint32,bytes32,uint256,uint256,bytes,bytes,bytes),(uint256,uint256),address)",
      "arguments": [
        "(40305, 0x00000000000000000000000021af1185734d213d45c6236146fb81e2b0e8b821, 50000000000000000000, 50000000000000000000, 0x, 0x, 0x)",
        "(555511467343861597, 0)",
        "0x5b73C5498c1E3b4dbA84de0F1833c4a029d90519"
      ],
      "transaction": {
        "from": "0x21af1185734d213d45c6236146fb81e2b0e8b821",
        "to": "0x9918889e93e8c4357a2d4bce0965dcc493fffda8",
        "gas": "0x4f240",
        "value": "0x7b592bc7fafd75d",
        "input": "0xc7c7f5b3000000000000000000000000000000000000000000000000000000000000008000000000000000000000000000000000000000000000000007b592bc7fafd75d00000000000000000000000000000000000000000000000000000000000000000000000000000000000000005b73c5498c1e3b4dba84de0f1833c4a029d905190000000000000000000000000000000000000000000000000000000000009d7100000000000000000000000021af1185734d213d45c6236146fb81e2b0e8b821000000000000000000000000000000000000000000000002b5e3af16b1880000000000000000000000000000000000000000000000000002b5e3af16b188000000000000000000000000000000000000000000000000000000000000000000e000000000000000000000000000000000000000000000000000000000000001000000000000000000000000000000000000000000000000000000000000000120000000000000000000000000000000000000000000000000000000000000000000000000000000000000000000000000000000000000000000000000000000000000000000000000000000000000000000000000000000000000000000000000",
        "nonce": "0x3e",
        "chainId": "0x13882"
      },
      "additionalContracts": [],
      "isFixedGasLimit": false
    },
    {
      "hash": "0x6f32b84feef4df74101365218f8e4930ae8ec3536e6cad7473b08dca9ce5af9d",
      "transactionType": "CALL",
      "contractName": null,
      "contractAddress": "0x3d2bd0e15829aa5c362a4144fdf4a1112fa29b5c",
      "function": "approve(address,uint256)",
      "arguments": [
        "0x9918889E93e8c4357a2D4bCE0965dcC493FFFDA8",
        "100000000000000000000"
      ],
      "transaction": {
        "from": "0x21af1185734d213d45c6236146fb81e2b0e8b821",
        "to": "0x3d2bd0e15829aa5c362a4144fdf4a1112fa29b5c",
        "gas": "0x107e5",
        "value": "0x0",
        "input": "0x095ea7b30000000000000000000000009918889e93e8c4357a2d4bce0965dcc493fffda80000000000000000000000000000000000000000000000056bc75e2d63100000",
        "nonce": "0x3f",
        "chainId": "0x13882"
      },
      "additionalContracts": [],
      "isFixedGasLimit": false
    },
    {
      "hash": "0x555f2bb1b859e8e4815b8b27e15bf07beea88960a84c95ee9b53f473f3957a93",
      "transactionType": "CALL",
      "contractName": null,
      "contractAddress": "0x9918889e93e8c4357a2d4bce0965dcc493fffda8",
      "function": "send((uint32,bytes32,uint256,uint256,bytes,bytes,bytes),(uint256,uint256),address)",
      "arguments": [
        "(40305, 0x00000000000000000000000021af1185734d213d45c6236146fb81e2b0e8b821, 100000000000000000000, 100000000000000000000, 0x, 0x, 0x)",
        "(555511467343861597, 0)",
        "0x5b73C5498c1E3b4dbA84de0F1833c4a029d90519"
      ],
      "transaction": {
        "from": "0x21af1185734d213d45c6236146fb81e2b0e8b821",
        "to": "0x9918889e93e8c4357a2d4bce0965dcc493fffda8",
        "gas": "0x4f240",
        "value": "0x7b592bc7fafd75d",
        "input": "0xc7c7f5b3000000000000000000000000000000000000000000000000000000000000008000000000000000000000000000000000000000000000000007b592bc7fafd75d00000000000000000000000000000000000000000000000000000000000000000000000000000000000000005b73c5498c1e3b4dba84de0f1833c4a029d905190000000000000000000000000000000000000000000000000000000000009d7100000000000000000000000021af1185734d213d45c6236146fb81e2b0e8b8210000000000000000000000000000000000000000000000056bc75e2d631000000000000000000000000000000000000000000000000000056bc75e2d6310000000000000000000000000000000000000000000000000000000000000000000e000000000000000000000000000000000000000000000000000000000000001000000000000000000000000000000000000000000000000000000000000000120000000000000000000000000000000000000000000000000000000000000000000000000000000000000000000000000000000000000000000000000000000000000000000000000000000000000000000000000000000000000000000000000",
        "nonce": "0x40",
        "chainId": "0x13882"
      },
      "additionalContracts": [],
      "isFixedGasLimit": false
    },
    {
      "hash": "0x46cc39e979d8fa6bd9f89e66cd01928fe726a4b5c02a2895983b78e4a6080f76",
      "transactionType": "CALL",
      "contractName": null,
      "contractAddress": "0x3d2bd0e15829aa5c362a4144fdf4a1112fa29b5c",
      "function": "approve(address,uint256)",
      "arguments": [
        "0x9918889E93e8c4357a2D4bCE0965dcC493FFFDA8",
        "1000000000000000000000"
      ],
      "transaction": {
        "from": "0x21af1185734d213d45c6236146fb81e2b0e8b821",
        "to": "0x3d2bd0e15829aa5c362a4144fdf4a1112fa29b5c",
        "gas": "0x107e5",
        "value": "0x0",
        "input": "0x095ea7b30000000000000000000000009918889e93e8c4357a2d4bce0965dcc493fffda800000000000000000000000000000000000000000000003635c9adc5dea00000",
        "nonce": "0x41",
        "chainId": "0x13882"
      },
      "additionalContracts": [],
      "isFixedGasLimit": false
    },
    {
      "hash": "0x554b72b4fcb8cc491edb8854cf1f2545320c8e96c31e8c2af6ea932802961a0a",
      "transactionType": "CALL",
      "contractName": null,
      "contractAddress": "0x9918889e93e8c4357a2d4bce0965dcc493fffda8",
      "function": "send((uint32,bytes32,uint256,uint256,bytes,bytes,bytes),(uint256,uint256),address)",
      "arguments": [
        "(40305, 0x00000000000000000000000021af1185734d213d45c6236146fb81e2b0e8b821, 1000000000000000000000, 1000000000000000000000, 0x, 0x, 0x)",
        "(555511467343861597, 0)",
        "0x5b73C5498c1E3b4dbA84de0F1833c4a029d90519"
      ],
      "transaction": {
        "from": "0x21af1185734d213d45c6236146fb81e2b0e8b821",
        "to": "0x9918889e93e8c4357a2d4bce0965dcc493fffda8",
        "gas": "0x4f240",
        "value": "0x7b592bc7fafd75d",
        "input": "0xc7c7f5b3000000000000000000000000000000000000000000000000000000000000008000000000000000000000000000000000000000000000000007b592bc7fafd75d00000000000000000000000000000000000000000000000000000000000000000000000000000000000000005b73c5498c1e3b4dba84de0f1833c4a029d905190000000000000000000000000000000000000000000000000000000000009d7100000000000000000000000021af1185734d213d45c6236146fb81e2b0e8b82100000000000000000000000000000000000000000000003635c9adc5dea0000000000000000000000000000000000000000000000000003635c9adc5dea0000000000000000000000000000000000000000000000000000000000000000000e000000000000000000000000000000000000000000000000000000000000001000000000000000000000000000000000000000000000000000000000000000120000000000000000000000000000000000000000000000000000000000000000000000000000000000000000000000000000000000000000000000000000000000000000000000000000000000000000000000000000000000000000000000000",
        "nonce": "0x42",
        "chainId": "0x13882"
      },
      "additionalContracts": [],
      "isFixedGasLimit": false
    },
    {
      "hash": "0xb848c5d70eb85a51937f506636423faf8938ba089b06ce63bb52a85b4691d7a0",
      "transactionType": "CALL",
      "contractName": null,
      "contractAddress": "0x3d2bd0e15829aa5c362a4144fdf4a1112fa29b5c",
      "function": "approve(address,uint256)",
      "arguments": [
        "0x9918889E93e8c4357a2D4bCE0965dcC493FFFDA8",
        "10000000000000000000000"
      ],
      "transaction": {
        "from": "0x21af1185734d213d45c6236146fb81e2b0e8b821",
        "to": "0x3d2bd0e15829aa5c362a4144fdf4a1112fa29b5c",
        "gas": "0xf94b",
        "value": "0x0",
        "input": "0x095ea7b30000000000000000000000009918889e93e8c4357a2d4bce0965dcc493fffda800000000000000000000000000000000000000000000021e19e0c9bab2400000",
        "nonce": "0x43",
        "chainId": "0x13882"
      },
      "additionalContracts": [],
      "isFixedGasLimit": false
    },
    {
      "hash": "0x77b5d1d3e2fe380ddfa7d5f2347209e5daefb5d3915fb0a60c874844d1941768",
      "transactionType": "CALL",
      "contractName": null,
      "contractAddress": "0x9918889e93e8c4357a2d4bce0965dcc493fffda8",
      "function": "send((uint32,bytes32,uint256,uint256,bytes,bytes,bytes),(uint256,uint256),address)",
      "arguments": [
        "(40305, 0x00000000000000000000000021af1185734d213d45c6236146fb81e2b0e8b821, 10000000000000000000000, 10000000000000000000000, 0x, 0x, 0x)",
        "(555511467343861597, 0)",
        "0x5b73C5498c1E3b4dbA84de0F1833c4a029d90519"
      ],
      "transaction": {
        "from": "0x21af1185734d213d45c6236146fb81e2b0e8b821",
        "to": "0x9918889e93e8c4357a2d4bce0965dcc493fffda8",
        "gas": "0x4f262",
        "value": "0x7b592bc7fafd75d",
        "input": "0xc7c7f5b3000000000000000000000000000000000000000000000000000000000000008000000000000000000000000000000000000000000000000007b592bc7fafd75d00000000000000000000000000000000000000000000000000000000000000000000000000000000000000005b73c5498c1e3b4dba84de0f1833c4a029d905190000000000000000000000000000000000000000000000000000000000009d7100000000000000000000000021af1185734d213d45c6236146fb81e2b0e8b82100000000000000000000000000000000000000000000021e19e0c9bab240000000000000000000000000000000000000000000000000021e19e0c9bab240000000000000000000000000000000000000000000000000000000000000000000e000000000000000000000000000000000000000000000000000000000000001000000000000000000000000000000000000000000000000000000000000000120000000000000000000000000000000000000000000000000000000000000000000000000000000000000000000000000000000000000000000000000000000000000000000000000000000000000000000000000000000000000000000000000",
        "nonce": "0x44",
        "chainId": "0x13882"
      },
      "additionalContracts": [],
      "isFixedGasLimit": false
    },
    {
      "hash": "0xe47882ac6aac350f4210a8f2d0520f5d832bb4889d0403d0d5fa11b192d57629",
      "transactionType": "CALL",
      "contractName": null,
      "contractAddress": "0x3d2bd0e15829aa5c362a4144fdf4a1112fa29b5c",
      "function": "approve(address,uint256)",
      "arguments": [
        "0x9918889E93e8c4357a2D4bCE0965dcC493FFFDA8",
        "100000000000000000000000"
      ],
      "transaction": {
        "from": "0x21af1185734d213d45c6236146fb81e2b0e8b821",
        "to": "0x3d2bd0e15829aa5c362a4144fdf4a1112fa29b5c",
        "gas": "0xf94b",
        "value": "0x0",
        "input": "0x095ea7b30000000000000000000000009918889e93e8c4357a2d4bce0965dcc493fffda800000000000000000000000000000000000000000000152d02c7e14af6800000",
        "nonce": "0x45",
        "chainId": "0x13882"
      },
      "additionalContracts": [],
      "isFixedGasLimit": false
    },
    {
      "hash": "0x6fe4cb282c19cb97f8b46c367acfd8701f1ce68ec4e18948fd32d4fd2f20e933",
      "transactionType": "CALL",
      "contractName": null,
      "contractAddress": "0x9918889e93e8c4357a2d4bce0965dcc493fffda8",
      "function": "send((uint32,bytes32,uint256,uint256,bytes,bytes,bytes),(uint256,uint256),address)",
      "arguments": [
        "(40305, 0x00000000000000000000000021af1185734d213d45c6236146fb81e2b0e8b821, 100000000000000000000000, 100000000000000000000000, 0x, 0x, 0x)",
        "(555511467343861597, 0)",
        "0x5b73C5498c1E3b4dbA84de0F1833c4a029d90519"
      ],
      "transaction": {
        "from": "0x21af1185734d213d45c6236146fb81e2b0e8b821",
        "to": "0x9918889e93e8c4357a2d4bce0965dcc493fffda8",
        "gas": "0x4f262",
        "value": "0x7b592bc7fafd75d",
        "input": "0xc7c7f5b3000000000000000000000000000000000000000000000000000000000000008000000000000000000000000000000000000000000000000007b592bc7fafd75d00000000000000000000000000000000000000000000000000000000000000000000000000000000000000005b73c5498c1e3b4dba84de0f1833c4a029d905190000000000000000000000000000000000000000000000000000000000009d7100000000000000000000000021af1185734d213d45c6236146fb81e2b0e8b82100000000000000000000000000000000000000000000152d02c7e14af680000000000000000000000000000000000000000000000000152d02c7e14af680000000000000000000000000000000000000000000000000000000000000000000e000000000000000000000000000000000000000000000000000000000000001000000000000000000000000000000000000000000000000000000000000000120000000000000000000000000000000000000000000000000000000000000000000000000000000000000000000000000000000000000000000000000000000000000000000000000000000000000000000000000000000000000000000000000",
        "nonce": "0x46",
        "chainId": "0x13882"
      },
      "additionalContracts": [],
      "isFixedGasLimit": false
    },
    {
      "hash": "0xe293a2e6d350cee0ef3ee3ccf6f4e43be8e2c4e842f5fe8cf5029f5582cae9b9",
      "transactionType": "CALL",
      "contractName": null,
      "contractAddress": "0x3d2bd0e15829aa5c362a4144fdf4a1112fa29b5c",
      "function": "approve(address,uint256)",
      "arguments": [
        "0x9918889E93e8c4357a2D4bCE0965dcC493FFFDA8",
        "200000000000000000000000"
      ],
      "transaction": {
        "from": "0x21af1185734d213d45c6236146fb81e2b0e8b821",
        "to": "0x3d2bd0e15829aa5c362a4144fdf4a1112fa29b5c",
        "gas": "0x107e5",
        "value": "0x0",
        "input": "0x095ea7b30000000000000000000000009918889e93e8c4357a2d4bce0965dcc493fffda8000000000000000000000000000000000000000000002a5a058fc295ed000000",
        "nonce": "0x47",
        "chainId": "0x13882"
      },
      "additionalContracts": [],
      "isFixedGasLimit": false
    },
    {
      "hash": "0x7d351bbb30cf422907bbf28f401682e6616f5b88d13de95345b928bd53ae2d32",
      "transactionType": "CALL",
      "contractName": null,
      "contractAddress": "0x9918889e93e8c4357a2d4bce0965dcc493fffda8",
      "function": "send((uint32,bytes32,uint256,uint256,bytes,bytes,bytes),(uint256,uint256),address)",
      "arguments": [
        "(40305, 0x00000000000000000000000021af1185734d213d45c6236146fb81e2b0e8b821, 200000000000000000000000, 200000000000000000000000, 0x, 0x, 0x)",
        "(555511467343861597, 0)",
        "0x5b73C5498c1E3b4dbA84de0F1833c4a029d90519"
      ],
      "transaction": {
        "from": "0x21af1185734d213d45c6236146fb81e2b0e8b821",
        "to": "0x9918889e93e8c4357a2d4bce0965dcc493fffda8",
        "gas": "0x4f240",
        "value": "0x7b592bc7fafd75d",
        "input": "0xc7c7f5b3000000000000000000000000000000000000000000000000000000000000008000000000000000000000000000000000000000000000000007b592bc7fafd75d00000000000000000000000000000000000000000000000000000000000000000000000000000000000000005b73c5498c1e3b4dba84de0f1833c4a029d905190000000000000000000000000000000000000000000000000000000000009d7100000000000000000000000021af1185734d213d45c6236146fb81e2b0e8b821000000000000000000000000000000000000000000002a5a058fc295ed000000000000000000000000000000000000000000000000002a5a058fc295ed00000000000000000000000000000000000000000000000000000000000000000000e000000000000000000000000000000000000000000000000000000000000001000000000000000000000000000000000000000000000000000000000000000120000000000000000000000000000000000000000000000000000000000000000000000000000000000000000000000000000000000000000000000000000000000000000000000000000000000000000000000000000000000000000000000000",
        "nonce": "0x48",
        "chainId": "0x13882"
      },
      "additionalContracts": [],
      "isFixedGasLimit": false
    }
  ],
  "receipts": [
    {
      "status": "0x1",
      "cumulativeGasUsed": "0x10679",
      "logs": [
        {
          "address": "0x3d2bd0e15829aa5c362a4144fdf4a1112fa29b5c",
          "topics": [
            "0x8c5be1e5ebec7d5bd14f71427d1e84f3dd0314c0f7b2291e5b200ac8c7c3b925",
            "0x00000000000000000000000021af1185734d213d45c6236146fb81e2b0e8b821",
            "0x0000000000000000000000009918889e93e8c4357a2d4bce0965dcc493fffda8"
          ],
          "data": "0x000000000000000000000000000000000000000000000002b5e3af16b1880000",
          "blockHash": "0xf9565f9947e66b79d39257d44a606aebb5491ce35ed81de41cb9f51a25b5e63d",
          "blockNumber": "0xb56020",
          "transactionHash": "0x62855fb721852f34fe99c0a4f616d30888ebe34fde584bebd462082c72778b92",
          "transactionIndex": "0x1",
          "logIndex": "0x2",
          "removed": false
        },
        {
          "address": "0x0000000000000000000000000000000000001010",
          "topics": [
            "0x4dfe1bbbcf077ddc3e01291eea2d5c70c2b422b415d95645b9adcfd678cb1d63",
            "0x0000000000000000000000000000000000000000000000000000000000001010",
            "0x00000000000000000000000021af1185734d213d45c6236146fb81e2b0e8b821",
            "0x00000000000000000000000009207a6efee346cb3e4a54ac18523e3715d38b3f"
          ],
          "data": "0x00000000000000000000000000000000000000000000000000062b86841b541a000000000000000000000000000000000000000000000004ae776bd228a766aa0000000000000000000000000000000000000000000002636c84e36807e49f41000000000000000000000000000000000000000000000004ae71404ba48c12900000000000000000000000000000000000000000000002636c8b0eee8bfff35b",
          "blockHash": "0xf9565f9947e66b79d39257d44a606aebb5491ce35ed81de41cb9f51a25b5e63d",
          "blockNumber": "0xb56020",
          "transactionHash": "0x62855fb721852f34fe99c0a4f616d30888ebe34fde584bebd462082c72778b92",
          "transactionIndex": "0x1",
          "logIndex": "0x3",
          "removed": false
        }
      ],
      "logsBloom": "0x40000000000000000000000000080000000000000000000000000000000000000000000000001000000000000000000000008000000000000000010000200000000000002000000000000000000000800000000000000000000100000000000000000020000000000000000000000000000000000000000080004000000000000000000000000000000000000000000000004000000000000000000000000000220000000000000008000000000000000000000000000000000080000000004000000000000000000001000000000000000000000000000000100000000000000012000000000000000000010000000000000000000000000000000000100000",
      "type": "0x2",
      "transactionHash": "0x62855fb721852f34fe99c0a4f616d30888ebe34fde584bebd462082c72778b92",
      "transactionIndex": "0x1",
      "blockHash": "0xf9565f9947e66b79d39257d44a606aebb5491ce35ed81de41cb9f51a25b5e63d",
      "blockNumber": "0xb56020",
      "gasUsed": "0xb471",
      "effectiveGasPrice": "0x8c0f0dac9",
      "from": "0x21af1185734d213d45c6236146fb81e2b0e8b821",
      "to": "0x3d2bd0e15829aa5c362a4144fdf4a1112fa29b5c",
      "contractAddress": null
    },
    {
      "status": "0x1",
      "cumulativeGasUsed": "0x49b38",
      "logs": [
        {
          "address": "0x0000000000000000000000000000000000001010",
          "topics": [
            "0xe6497e3ee548a3372136af2fcb0696db31fc6cf20260707645068bd3fe97f3c4",
            "0x0000000000000000000000000000000000000000000000000000000000001010",
            "0x00000000000000000000000021af1185734d213d45c6236146fb81e2b0e8b821",
            "0x0000000000000000000000009918889e93e8c4357a2d4bce0965dcc493fffda8"
          ],
          "data": "0x00000000000000000000000000000000000000000000000007b592bc7fafd75d000000000000000000000000000000000000000000000004ae45f3f44e54cbb10000000000000000000000000000000000000000000000000000000000000000000000000000000000000000000000000000000000000004a6906137cea4f45400000000000000000000000000000000000000000000000007b592bc7fafd75d",
          "blockHash": "0xf9565f9947e66b79d39257d44a606aebb5491ce35ed81de41cb9f51a25b5e63d",
          "blockNumber": "0xb56020",
          "transactionHash": "0x8e45c6a041412766227de457c40f2faa3bdf8c76db5e20bd786ebed63b5085a9",
          "transactionIndex": "0x2",
          "logIndex": "0x4",
          "removed": false
        },
        {
          "address": "0x3d2bd0e15829aa5c362a4144fdf4a1112fa29b5c",
          "topics": [
            "0xddf252ad1be2c89b69c2b068fc378daa952ba7f163c4a11628f55a4df523b3ef",
            "0x00000000000000000000000021af1185734d213d45c6236146fb81e2b0e8b821",
            "0x0000000000000000000000009918889e93e8c4357a2d4bce0965dcc493fffda8"
          ],
          "data": "0x000000000000000000000000000000000000000000000002b5e3af16b1880000",
          "blockHash": "0xf9565f9947e66b79d39257d44a606aebb5491ce35ed81de41cb9f51a25b5e63d",
          "blockNumber": "0xb56020",
          "transactionHash": "0x8e45c6a041412766227de457c40f2faa3bdf8c76db5e20bd786ebed63b5085a9",
          "transactionIndex": "0x2",
          "logIndex": "0x5",
          "removed": false
        },
        {
          "address": "0x0000000000000000000000000000000000001010",
          "topics": [
            "0xe6497e3ee548a3372136af2fcb0696db31fc6cf20260707645068bd3fe97f3c4",
            "0x0000000000000000000000000000000000000000000000000000000000001010",
            "0x0000000000000000000000009918889e93e8c4357a2d4bce0965dcc493fffda8",
            "0x0000000000000000000000006edce65403992e310a62460808c4b910d972f10f"
          ],
          "data": "0x00000000000000000000000000000000000000000000000007b592bc7fafd75d00000000000000000000000000000000000000000000000007b592bc7fafd75d0000000000000000000000000000000000000000000000000000000000000000000000000000000000000000000000000000000000000000000000000000000000000000000000000000000000000000000000000000000007b592bc7fafd75d",
          "blockHash": "0xf9565f9947e66b79d39257d44a606aebb5491ce35ed81de41cb9f51a25b5e63d",
          "blockNumber": "0xb56020",
          "transactionHash": "0x8e45c6a041412766227de457c40f2faa3bdf8c76db5e20bd786ebed63b5085a9",
          "transactionIndex": "0x2",
          "logIndex": "0x6",
          "removed": false
        },
        {
          "address": "0x1d186c560281b8f1af831957ed5047fd3ab902f9",
          "topics": [
            "0x61ed099e74a97a1d7f8bb0952a88ca8b7b8ebd00c126ea04671f92a81213318a"
          ],
          "data": "0x0000000000000000000000004cf1b3fa61465c2c907f82fc488b43223ba0cf93000000000000000000000000000000000000000000000000075797f0799b4704",
          "blockHash": "0xf9565f9947e66b79d39257d44a606aebb5491ce35ed81de41cb9f51a25b5e63d",
          "blockNumber": "0xb56020",
          "transactionHash": "0x8e45c6a041412766227de457c40f2faa3bdf8c76db5e20bd786ebed63b5085a9",
          "transactionIndex": "0x2",
          "logIndex": "0x7",
          "removed": false
        },
        {
          "address": "0x1d186c560281b8f1af831957ed5047fd3ab902f9",
          "topics": [
            "0x07ea52d82345d6e838192107d8fd7123d9c2ec8e916cd0aad13fd2b60db24644"
          ],
          "data": "0x000000000000000000000000000000000000000000000000000000000000006000000000000000000000000000000000000000000000000000000000000000a000000000000000000000000000000000000000000000000000000000000000c0000000000000000000000000000000000000000000000000000000000000000100000000000000000000000055c175dd5b039331db251424538169d8495c18d100000000000000000000000000000000000000000000000000000000000000000000000000000000000000000000000000000000000000000000000000000001000000000000000000000000000000000000000000000000005dfacc06149059",
          "blockHash": "0xf9565f9947e66b79d39257d44a606aebb5491ce35ed81de41cb9f51a25b5e63d",
          "blockNumber": "0xb56020",
          "transactionHash": "0x8e45c6a041412766227de457c40f2faa3bdf8c76db5e20bd786ebed63b5085a9",
          "transactionIndex": "0x2",
          "logIndex": "0x8",
          "removed": false
        },
        {
          "address": "0x6edce65403992e310a62460808c4b910d972f10f",
          "topics": [
            "0x1ab700d4ced0c005b164c0f789fd09fcbb0156d4c2041b8a3bfbcd961cd1567f"
          ],
          "data": "0x000000000000000000000000000000000000000000000000000000000000006000000000000000000000000000000000000000000000000000000000000001200000000000000000000000001d186c560281b8f1af831957ed5047fd3ab902f9000000000000000000000000000000000000000000000000000000000000009901000000000000000b00009d4b0000000000000000000000009918889e93e8c4357a2d4bce0965dcc493fffda800009d71000000000000000000000000b0588f9a9cade7cd5f194a5fe77acd6a58250f8271d2dd8d2c1303ade8b141522a0542598af96f3a044aa5b78d622c00d937fb1900000000000000000000000021af1185734d213d45c6236146fb81e2b0e8b8210000000002faf0800000000000000000000000000000000000000000000000000000000000000000000000000000160003010011010000000000000000000000000000fde800000000000000000000",
          "blockHash": "0xf9565f9947e66b79d39257d44a606aebb5491ce35ed81de41cb9f51a25b5e63d",
          "blockNumber": "0xb56020",
          "transactionHash": "0x8e45c6a041412766227de457c40f2faa3bdf8c76db5e20bd786ebed63b5085a9",
          "transactionIndex": "0x2",
          "logIndex": "0x9",
          "removed": false
        },
        {
          "address": "0x0000000000000000000000000000000000001010",
          "topics": [
            "0xe6497e3ee548a3372136af2fcb0696db31fc6cf20260707645068bd3fe97f3c4",
            "0x0000000000000000000000000000000000000000000000000000000000001010",
            "0x0000000000000000000000006edce65403992e310a62460808c4b910d972f10f",
            "0x0000000000000000000000001d186c560281b8f1af831957ed5047fd3ab902f9"
          ],
          "data": "0x00000000000000000000000000000000000000000000000007b592bc7fafd75d00000000000000000000000000000000000000000000000007b592bc7fafd75d000000000000000000000000000000000000000000000045affddb1da287b19a0000000000000000000000000000000000000000000000000000000000000000000000000000000000000000000000000000000000000045b7b36dda223788f7",
          "blockHash": "0xf9565f9947e66b79d39257d44a606aebb5491ce35ed81de41cb9f51a25b5e63d",
          "blockNumber": "0xb56020",
          "transactionHash": "0x8e45c6a041412766227de457c40f2faa3bdf8c76db5e20bd786ebed63b5085a9",
          "transactionIndex": "0x2",
          "logIndex": "0xa",
          "removed": false
        },
        {
          "address": "0x9918889e93e8c4357a2d4bce0965dcc493fffda8",
          "topics": [
            "0x85496b760a4b7f8d66384b9df21b381f5d1b1e79f229a47aaf4c232edc2fe59a",
            "0x71d2dd8d2c1303ade8b141522a0542598af96f3a044aa5b78d622c00d937fb19",
            "0x00000000000000000000000021af1185734d213d45c6236146fb81e2b0e8b821"
          ],
          "data": "0x0000000000000000000000000000000000000000000000000000000000009d71000000000000000000000000000000000000000000000002b5e3af16b1880000000000000000000000000000000000000000000000000002b5e3af16b1880000",
          "blockHash": "0xf9565f9947e66b79d39257d44a606aebb5491ce35ed81de41cb9f51a25b5e63d",
          "blockNumber": "0xb56020",
          "transactionHash": "0x8e45c6a041412766227de457c40f2faa3bdf8c76db5e20bd786ebed63b5085a9",
          "transactionIndex": "0x2",
          "logIndex": "0xb",
          "removed": false
        },
        {
          "address": "0x0000000000000000000000000000000000001010",
          "topics": [
            "0x4dfe1bbbcf077ddc3e01291eea2d5c70c2b422b415d95645b9adcfd678cb1d63",
            "0x0000000000000000000000000000000000000000000000000000000000001010",
            "0x00000000000000000000000021af1185734d213d45c6236146fb81e2b0e8b821",
            "0x00000000000000000000000009207a6efee346cb3e4a54ac18523e3715d38b3f"
          ],
          "data": "0x000000000000000000000000000000000000000000000000001f58e5c254b8c6000000000000000000000000000000000000000000000004ae71404ba4817ff10000000000000000000000000000000000000000000002636c8b0eee8bfff35b000000000000000000000000000000000000000000000004ae51e765e22cc72b0000000000000000000000000000000000000000000002636caa67d44e54ac21",
          "blockHash": "0xf9565f9947e66b79d39257d44a606aebb5491ce35ed81de41cb9f51a25b5e63d",
          "blockNumber": "0xb56020",
          "transactionHash": "0x8e45c6a041412766227de457c40f2faa3bdf8c76db5e20bd786ebed63b5085a9",
          "transactionIndex": "0x2",
          "logIndex": "0xc",
          "removed": false
        }
      ],
      "logsBloom": "0x400000000000000000000000000800000000000000000000000000000000000000000000000010002000001000000000000080000000000000000100000040000000028020000000000000080000008000000000000004000001000000020000000000a00000000082000010000000000000000000000000800040100000000000000000000000200000000800000000000040000000000000000000000000002000000080000000081000240000000000000800004000000004c0000000004000000002000000000001002080000000000800000008801200108000000000000002040000000000000000010000002008000000008000000000000000100000",
      "type": "0x2",
      "transactionHash": "0x8e45c6a041412766227de457c40f2faa3bdf8c76db5e20bd786ebed63b5085a9",
      "transactionIndex": "0x2",
      "blockHash": "0xf9565f9947e66b79d39257d44a606aebb5491ce35ed81de41cb9f51a25b5e63d",
      "blockNumber": "0xb56020",
      "gasUsed": "0x394bf",
      "effectiveGasPrice": "0x8c0f0dac9",
      "from": "0x21af1185734d213d45c6236146fb81e2b0e8b821",
      "to": "0x9918889e93e8c4357a2d4bce0965dcc493fffda8",
      "contractAddress": null
    },
    {
      "status": "0x1",
      "cumulativeGasUsed": "0x54fa9",
      "logs": [
        {
          "address": "0x3d2bd0e15829aa5c362a4144fdf4a1112fa29b5c",
          "topics": [
            "0x8c5be1e5ebec7d5bd14f71427d1e84f3dd0314c0f7b2291e5b200ac8c7c3b925",
            "0x00000000000000000000000021af1185734d213d45c6236146fb81e2b0e8b821",
            "0x0000000000000000000000009918889e93e8c4357a2d4bce0965dcc493fffda8"
          ],
          "data": "0x0000000000000000000000000000000000000000000000056bc75e2d63100000",
          "blockHash": "0xf9565f9947e66b79d39257d44a606aebb5491ce35ed81de41cb9f51a25b5e63d",
          "blockNumber": "0xb56020",
          "transactionHash": "0x6f32b84feef4df74101365218f8e4930ae8ec3536e6cad7473b08dca9ce5af9d",
          "transactionIndex": "0x3",
          "logIndex": "0xd",
          "removed": false
        },
        {
          "address": "0x0000000000000000000000000000000000001010",
          "topics": [
            "0x4dfe1bbbcf077ddc3e01291eea2d5c70c2b422b415d95645b9adcfd678cb1d63",
            "0x0000000000000000000000000000000000000000000000000000000000001010",
            "0x00000000000000000000000021af1185734d213d45c6236146fb81e2b0e8b821",
            "0x00000000000000000000000009207a6efee346cb3e4a54ac18523e3715d38b3f"
          ],
          "data": "0x00000000000000000000000000000000000000000000000000062b86841b541a000000000000000000000000000000000000000000000004a69c54a96247389d0000000000000000000000000000000000000000000002636caa67d44e54ac21000000000000000000000000000000000000000000000004a6962922de2be4830000000000000000000000000000000000000000000002636cb0935ad270003b",
          "blockHash": "0xf9565f9947e66b79d39257d44a606aebb5491ce35ed81de41cb9f51a25b5e63d",
          "blockNumber": "0xb56020",
          "transactionHash": "0x6f32b84feef4df74101365218f8e4930ae8ec3536e6cad7473b08dca9ce5af9d",
          "transactionIndex": "0x3",
          "logIndex": "0xe",
          "removed": false
        }
      ],
      "logsBloom": "0x40000000000000000000000000080000000000000000000000000000000000000000000000001000000000000000000000008000000000000000010000200000000000002000000000000000000000800000000000000000000100000000000000000020000000000000000000000000000000000000000080004000000000000000000000000000000000000000000000004000000000000000000000000000220000000000000008000000000000000000000000000000000080000000004000000000000000000001000000000000000000000000000000100000000000000012000000000000000000010000000000000000000000000000000000100000",
      "type": "0x2",
      "transactionHash": "0x6f32b84feef4df74101365218f8e4930ae8ec3536e6cad7473b08dca9ce5af9d",
      "transactionIndex": "0x3",
      "blockHash": "0xf9565f9947e66b79d39257d44a606aebb5491ce35ed81de41cb9f51a25b5e63d",
      "blockNumber": "0xb56020",
      "gasUsed": "0xb471",
      "effectiveGasPrice": "0x8c0f0dac9",
      "from": "0x21af1185734d213d45c6236146fb81e2b0e8b821",
      "to": "0x3d2bd0e15829aa5c362a4144fdf4a1112fa29b5c",
      "contractAddress": null
    },
    {
      "status": "0x1",
      "cumulativeGasUsed": "0x8e468",
      "logs": [
        {
          "address": "0x0000000000000000000000000000000000001010",
          "topics": [
            "0xe6497e3ee548a3372136af2fcb0696db31fc6cf20260707645068bd3fe97f3c4",
            "0x0000000000000000000000000000000000000000000000000000000000001010",
            "0x00000000000000000000000021af1185734d213d45c6236146fb81e2b0e8b821",
            "0x0000000000000000000000009918889e93e8c4357a2d4bce0965dcc493fffda8"
          ],
          "data": "0x00000000000000000000000000000000000000000000000007b592bc7fafd75d000000000000000000000000000000000000000000000004a66adccb87f49da400000000000000000000000000000000000000000000000000000000000000000000000000000000000000000000000000000000000000049eb54a0f0844c64700000000000000000000000000000000000000000000000007b592bc7fafd75d",
          "blockHash": "0xf9565f9947e66b79d39257d44a606aebb5491ce35ed81de41cb9f51a25b5e63d",
          "blockNumber": "0xb56020",
          "transactionHash": "0x555f2bb1b859e8e4815b8b27e15bf07beea88960a84c95ee9b53f473f3957a93",
          "transactionIndex": "0x4",
          "logIndex": "0xf",
          "removed": false
        },
        {
          "address": "0x3d2bd0e15829aa5c362a4144fdf4a1112fa29b5c",
          "topics": [
            "0xddf252ad1be2c89b69c2b068fc378daa952ba7f163c4a11628f55a4df523b3ef",
            "0x00000000000000000000000021af1185734d213d45c6236146fb81e2b0e8b821",
            "0x0000000000000000000000009918889e93e8c4357a2d4bce0965dcc493fffda8"
          ],
          "data": "0x0000000000000000000000000000000000000000000000056bc75e2d63100000",
          "blockHash": "0xf9565f9947e66b79d39257d44a606aebb5491ce35ed81de41cb9f51a25b5e63d",
          "blockNumber": "0xb56020",
          "transactionHash": "0x555f2bb1b859e8e4815b8b27e15bf07beea88960a84c95ee9b53f473f3957a93",
          "transactionIndex": "0x4",
          "logIndex": "0x10",
          "removed": false
        },
        {
          "address": "0x0000000000000000000000000000000000001010",
          "topics": [
            "0xe6497e3ee548a3372136af2fcb0696db31fc6cf20260707645068bd3fe97f3c4",
            "0x0000000000000000000000000000000000000000000000000000000000001010",
            "0x0000000000000000000000009918889e93e8c4357a2d4bce0965dcc493fffda8",
            "0x0000000000000000000000006edce65403992e310a62460808c4b910d972f10f"
          ],
          "data": "0x00000000000000000000000000000000000000000000000007b592bc7fafd75d00000000000000000000000000000000000000000000000007b592bc7fafd75d0000000000000000000000000000000000000000000000000000000000000000000000000000000000000000000000000000000000000000000000000000000000000000000000000000000000000000000000000000000007b592bc7fafd75d",
          "blockHash": "0xf9565f9947e66b79d39257d44a606aebb5491ce35ed81de41cb9f51a25b5e63d",
          "blockNumber": "0xb56020",
          "transactionHash": "0x555f2bb1b859e8e4815b8b27e15bf07beea88960a84c95ee9b53f473f3957a93",
          "transactionIndex": "0x4",
          "logIndex": "0x11",
          "removed": false
        },
        {
          "address": "0x1d186c560281b8f1af831957ed5047fd3ab902f9",
          "topics": [
            "0x61ed099e74a97a1d7f8bb0952a88ca8b7b8ebd00c126ea04671f92a81213318a"
          ],
          "data": "0x0000000000000000000000004cf1b3fa61465c2c907f82fc488b43223ba0cf93000000000000000000000000000000000000000000000000075797f0799b4704",
          "blockHash": "0xf9565f9947e66b79d39257d44a606aebb5491ce35ed81de41cb9f51a25b5e63d",
          "blockNumber": "0xb56020",
          "transactionHash": "0x555f2bb1b859e8e4815b8b27e15bf07beea88960a84c95ee9b53f473f3957a93",
          "transactionIndex": "0x4",
          "logIndex": "0x12",
          "removed": false
        },
        {
          "address": "0x1d186c560281b8f1af831957ed5047fd3ab902f9",
          "topics": [
            "0x07ea52d82345d6e838192107d8fd7123d9c2ec8e916cd0aad13fd2b60db24644"
          ],
          "data": "0x000000000000000000000000000000000000000000000000000000000000006000000000000000000000000000000000000000000000000000000000000000a000000000000000000000000000000000000000000000000000000000000000c0000000000000000000000000000000000000000000000000000000000000000100000000000000000000000055c175dd5b039331db251424538169d8495c18d100000000000000000000000000000000000000000000000000000000000000000000000000000000000000000000000000000000000000000000000000000001000000000000000000000000000000000000000000000000005dfacc06149059",
          "blockHash": "0xf9565f9947e66b79d39257d44a606aebb5491ce35ed81de41cb9f51a25b5e63d",
          "blockNumber": "0xb56020",
          "transactionHash": "0x555f2bb1b859e8e4815b8b27e15bf07beea88960a84c95ee9b53f473f3957a93",
          "transactionIndex": "0x4",
          "logIndex": "0x13",
          "removed": false
        },
        {
          "address": "0x6edce65403992e310a62460808c4b910d972f10f",
          "topics": [
            "0x1ab700d4ced0c005b164c0f789fd09fcbb0156d4c2041b8a3bfbcd961cd1567f"
          ],
          "data": "0x000000000000000000000000000000000000000000000000000000000000006000000000000000000000000000000000000000000000000000000000000001200000000000000000000000001d186c560281b8f1af831957ed5047fd3ab902f9000000000000000000000000000000000000000000000000000000000000009901000000000000000c00009d4b0000000000000000000000009918889e93e8c4357a2d4bce0965dcc493fffda800009d71000000000000000000000000b0588f9a9cade7cd5f194a5fe77acd6a58250f823ba4219db3f1f800d92426b354ed84ecc3c4020780c3159ca187e3d9523bb8c400000000000000000000000021af1185734d213d45c6236146fb81e2b0e8b8210000000005f5e1000000000000000000000000000000000000000000000000000000000000000000000000000000160003010011010000000000000000000000000000fde800000000000000000000",
          "blockHash": "0xf9565f9947e66b79d39257d44a606aebb5491ce35ed81de41cb9f51a25b5e63d",
          "blockNumber": "0xb56020",
          "transactionHash": "0x555f2bb1b859e8e4815b8b27e15bf07beea88960a84c95ee9b53f473f3957a93",
          "transactionIndex": "0x4",
          "logIndex": "0x14",
          "removed": false
        },
        {
          "address": "0x0000000000000000000000000000000000001010",
          "topics": [
            "0xe6497e3ee548a3372136af2fcb0696db31fc6cf20260707645068bd3fe97f3c4",
            "0x0000000000000000000000000000000000000000000000000000000000001010",
            "0x0000000000000000000000006edce65403992e310a62460808c4b910d972f10f",
            "0x0000000000000000000000001d186c560281b8f1af831957ed5047fd3ab902f9"
          ],
          "data": "0x00000000000000000000000000000000000000000000000007b592bc7fafd75d00000000000000000000000000000000000000000000000007b592bc7fafd75d000000000000000000000000000000000000000000000045b7b36dda223788f70000000000000000000000000000000000000000000000000000000000000000000000000000000000000000000000000000000000000045bf690096a1e76054",
          "blockHash": "0xf9565f9947e66b79d39257d44a606aebb5491ce35ed81de41cb9f51a25b5e63d",
          "blockNumber": "0xb56020",
          "transactionHash": "0x555f2bb1b859e8e4815b8b27e15bf07beea88960a84c95ee9b53f473f3957a93",
          "transactionIndex": "0x4",
          "logIndex": "0x15",
          "removed": false
        },
        {
          "address": "0x9918889e93e8c4357a2d4bce0965dcc493fffda8",
          "topics": [
            "0x85496b760a4b7f8d66384b9df21b381f5d1b1e79f229a47aaf4c232edc2fe59a",
            "0x3ba4219db3f1f800d92426b354ed84ecc3c4020780c3159ca187e3d9523bb8c4",
            "0x00000000000000000000000021af1185734d213d45c6236146fb81e2b0e8b821"
          ],
          "data": "0x0000000000000000000000000000000000000000000000000000000000009d710000000000000000000000000000000000000000000000056bc75e2d631000000000000000000000000000000000000000000000000000056bc75e2d63100000",
          "blockHash": "0xf9565f9947e66b79d39257d44a606aebb5491ce35ed81de41cb9f51a25b5e63d",
          "blockNumber": "0xb56020",
          "transactionHash": "0x555f2bb1b859e8e4815b8b27e15bf07beea88960a84c95ee9b53f473f3957a93",
          "transactionIndex": "0x4",
          "logIndex": "0x16",
          "removed": false
        },
        {
          "address": "0x0000000000000000000000000000000000001010",
          "topics": [
            "0x4dfe1bbbcf077ddc3e01291eea2d5c70c2b422b415d95645b9adcfd678cb1d63",
            "0x0000000000000000000000000000000000000000000000000000000000001010",
            "0x00000000000000000000000021af1185734d213d45c6236146fb81e2b0e8b821",
            "0x00000000000000000000000009207a6efee346cb3e4a54ac18523e3715d38b3f"
          ],
          "data": "0x000000000000000000000000000000000000000000000000001f58e5c254b8c6000000000000000000000000000000000000000000000004a6962922de2151e40000000000000000000000000000000000000000000002636cb0935ad270003b000000000000000000000000000000000000000000000004a676d03d1bcc991e0000000000000000000000000000000000000000000002636ccfec4094c4b901",
          "blockHash": "0xf9565f9947e66b79d39257d44a606aebb5491ce35ed81de41cb9f51a25b5e63d",
          "blockNumber": "0xb56020",
          "transactionHash": "0x555f2bb1b859e8e4815b8b27e15bf07beea88960a84c95ee9b53f473f3957a93",
          "transactionIndex": "0x4",
          "logIndex": "0x17",
          "removed": false
        }
      ],
      "logsBloom": "0x400000000000000000000000000800000000000000000000000000000000000000000000000010002000001000000000000080000000000000000100000040000000028020000000000000080000008000000000000000000001000000020000000000200008000082000010000000001000000000000000800040100000000000000000000000200000000800000000000040000000000000000000000000002000004080000000081000240000000000000800004000000004c0000000004000000002000000000001002080000000000000000008801200108000000000000002040000000000000000010000002008000000008000000000000000100000",
      "type": "0x2",
      "transactionHash": "0x555f2bb1b859e8e4815b8b27e15bf07beea88960a84c95ee9b53f473f3957a93",
      "transactionIndex": "0x4",
      "blockHash": "0xf9565f9947e66b79d39257d44a606aebb5491ce35ed81de41cb9f51a25b5e63d",
      "blockNumber": "0xb56020",
      "gasUsed": "0x394bf",
      "effectiveGasPrice": "0x8c0f0dac9",
      "from": "0x21af1185734d213d45c6236146fb81e2b0e8b821",
      "to": "0x9918889e93e8c4357a2d4bce0965dcc493fffda8",
      "contractAddress": null
    },
    {
      "status": "0x1",
      "cumulativeGasUsed": "0x998d9",
      "logs": [
        {
          "address": "0x3d2bd0e15829aa5c362a4144fdf4a1112fa29b5c",
          "topics": [
            "0x8c5be1e5ebec7d5bd14f71427d1e84f3dd0314c0f7b2291e5b200ac8c7c3b925",
            "0x00000000000000000000000021af1185734d213d45c6236146fb81e2b0e8b821",
            "0x0000000000000000000000009918889e93e8c4357a2d4bce0965dcc493fffda8"
          ],
          "data": "0x00000000000000000000000000000000000000000000003635c9adc5dea00000",
          "blockHash": "0xf9565f9947e66b79d39257d44a606aebb5491ce35ed81de41cb9f51a25b5e63d",
          "blockNumber": "0xb56020",
          "transactionHash": "0x46cc39e979d8fa6bd9f89e66cd01928fe726a4b5c02a2895983b78e4a6080f76",
          "transactionIndex": "0x5",
          "logIndex": "0x18",
          "removed": false
        },
        {
          "address": "0x0000000000000000000000000000000000001010",
          "topics": [
            "0x4dfe1bbbcf077ddc3e01291eea2d5c70c2b422b415d95645b9adcfd678cb1d63",
            "0x0000000000000000000000000000000000000000000000000000000000001010",
            "0x00000000000000000000000021af1185734d213d45c6236146fb81e2b0e8b821",
            "0x00000000000000000000000009207a6efee346cb3e4a54ac18523e3715d38b3f"
          ],
          "data": "0x00000000000000000000000000000000000000000000000000062b86841b541a0000000000000000000000000000000000000000000000049ec13d809be70a900000000000000000000000000000000000000000000002636ccfec4094c4b9010000000000000000000000000000000000000000000000049ebb11fa17cbb6760000000000000000000000000000000000000000000002636cd617c718e00d1b",
          "blockHash": "0xf9565f9947e66b79d39257d44a606aebb5491ce35ed81de41cb9f51a25b5e63d",
          "blockNumber": "0xb56020",
          "transactionHash": "0x46cc39e979d8fa6bd9f89e66cd01928fe726a4b5c02a2895983b78e4a6080f76",
          "transactionIndex": "0x5",
          "logIndex": "0x19",
          "removed": false
        }
      ],
      "logsBloom": "0x40000000000000000000000000080000000000000000000000000000000000000000000000001000000000000000000000008000000000000000010000200000000000002000000000000000000000800000000000000000000100000000000000000020000000000000000000000000000000000000000080004000000000000000000000000000000000000000000000004000000000000000000000000000220000000000000008000000000000000000000000000000000080000000004000000000000000000001000000000000000000000000000000100000000000000012000000000000000000010000000000000000000000000000000000100000",
      "type": "0x2",
      "transactionHash": "0x46cc39e979d8fa6bd9f89e66cd01928fe726a4b5c02a2895983b78e4a6080f76",
      "transactionIndex": "0x5",
      "blockHash": "0xf9565f9947e66b79d39257d44a606aebb5491ce35ed81de41cb9f51a25b5e63d",
      "blockNumber": "0xb56020",
      "gasUsed": "0xb471",
      "effectiveGasPrice": "0x8c0f0dac9",
      "from": "0x21af1185734d213d45c6236146fb81e2b0e8b821",
      "to": "0x3d2bd0e15829aa5c362a4144fdf4a1112fa29b5c",
      "contractAddress": null
    },
    {
      "status": "0x1",
      "cumulativeGasUsed": "0xd2d98",
      "logs": [
        {
          "address": "0x0000000000000000000000000000000000001010",
          "topics": [
            "0xe6497e3ee548a3372136af2fcb0696db31fc6cf20260707645068bd3fe97f3c4",
            "0x0000000000000000000000000000000000000000000000000000000000001010",
            "0x00000000000000000000000021af1185734d213d45c6236146fb81e2b0e8b821",
            "0x0000000000000000000000009918889e93e8c4357a2d4bce0965dcc493fffda8"
          ],
          "data": "0x00000000000000000000000000000000000000000000000007b592bc7fafd75d0000000000000000000000000000000000000000000000049e8fc5a2c1946f97000000000000000000000000000000000000000000000000000000000000000000000000000000000000000000000000000000000000000496da32e641e4983a00000000000000000000000000000000000000000000000007b592bc7fafd75d",
          "blockHash": "0xf9565f9947e66b79d39257d44a606aebb5491ce35ed81de41cb9f51a25b5e63d",
          "blockNumber": "0xb56020",
          "transactionHash": "0x554b72b4fcb8cc491edb8854cf1f2545320c8e96c31e8c2af6ea932802961a0a",
          "transactionIndex": "0x6",
          "logIndex": "0x1a",
          "removed": false
        },
        {
          "address": "0x3d2bd0e15829aa5c362a4144fdf4a1112fa29b5c",
          "topics": [
            "0xddf252ad1be2c89b69c2b068fc378daa952ba7f163c4a11628f55a4df523b3ef",
            "0x00000000000000000000000021af1185734d213d45c6236146fb81e2b0e8b821",
            "0x0000000000000000000000009918889e93e8c4357a2d4bce0965dcc493fffda8"
          ],
          "data": "0x00000000000000000000000000000000000000000000003635c9adc5dea00000",
          "blockHash": "0xf9565f9947e66b79d39257d44a606aebb5491ce35ed81de41cb9f51a25b5e63d",
          "blockNumber": "0xb56020",
          "transactionHash": "0x554b72b4fcb8cc491edb8854cf1f2545320c8e96c31e8c2af6ea932802961a0a",
          "transactionIndex": "0x6",
          "logIndex": "0x1b",
          "removed": false
        },
        {
          "address": "0x0000000000000000000000000000000000001010",
          "topics": [
            "0xe6497e3ee548a3372136af2fcb0696db31fc6cf20260707645068bd3fe97f3c4",
            "0x0000000000000000000000000000000000000000000000000000000000001010",
            "0x0000000000000000000000009918889e93e8c4357a2d4bce0965dcc493fffda8",
            "0x0000000000000000000000006edce65403992e310a62460808c4b910d972f10f"
          ],
          "data": "0x00000000000000000000000000000000000000000000000007b592bc7fafd75d00000000000000000000000000000000000000000000000007b592bc7fafd75d0000000000000000000000000000000000000000000000000000000000000000000000000000000000000000000000000000000000000000000000000000000000000000000000000000000000000000000000000000000007b592bc7fafd75d",
          "blockHash": "0xf9565f9947e66b79d39257d44a606aebb5491ce35ed81de41cb9f51a25b5e63d",
          "blockNumber": "0xb56020",
          "transactionHash": "0x554b72b4fcb8cc491edb8854cf1f2545320c8e96c31e8c2af6ea932802961a0a",
          "transactionIndex": "0x6",
          "logIndex": "0x1c",
          "removed": false
        },
        {
          "address": "0x1d186c560281b8f1af831957ed5047fd3ab902f9",
          "topics": [
            "0x61ed099e74a97a1d7f8bb0952a88ca8b7b8ebd00c126ea04671f92a81213318a"
          ],
          "data": "0x0000000000000000000000004cf1b3fa61465c2c907f82fc488b43223ba0cf93000000000000000000000000000000000000000000000000075797f0799b4704",
          "blockHash": "0xf9565f9947e66b79d39257d44a606aebb5491ce35ed81de41cb9f51a25b5e63d",
          "blockNumber": "0xb56020",
          "transactionHash": "0x554b72b4fcb8cc491edb8854cf1f2545320c8e96c31e8c2af6ea932802961a0a",
          "transactionIndex": "0x6",
          "logIndex": "0x1d",
          "removed": false
        },
        {
          "address": "0x1d186c560281b8f1af831957ed5047fd3ab902f9",
          "topics": [
            "0x07ea52d82345d6e838192107d8fd7123d9c2ec8e916cd0aad13fd2b60db24644"
          ],
          "data": "0x000000000000000000000000000000000000000000000000000000000000006000000000000000000000000000000000000000000000000000000000000000a000000000000000000000000000000000000000000000000000000000000000c0000000000000000000000000000000000000000000000000000000000000000100000000000000000000000055c175dd5b039331db251424538169d8495c18d100000000000000000000000000000000000000000000000000000000000000000000000000000000000000000000000000000000000000000000000000000001000000000000000000000000000000000000000000000000005dfacc06149059",
          "blockHash": "0xf9565f9947e66b79d39257d44a606aebb5491ce35ed81de41cb9f51a25b5e63d",
          "blockNumber": "0xb56020",
          "transactionHash": "0x554b72b4fcb8cc491edb8854cf1f2545320c8e96c31e8c2af6ea932802961a0a",
          "transactionIndex": "0x6",
          "logIndex": "0x1e",
          "removed": false
        },
        {
          "address": "0x6edce65403992e310a62460808c4b910d972f10f",
          "topics": [
            "0x1ab700d4ced0c005b164c0f789fd09fcbb0156d4c2041b8a3bfbcd961cd1567f"
          ],
          "data": "0x000000000000000000000000000000000000000000000000000000000000006000000000000000000000000000000000000000000000000000000000000001200000000000000000000000001d186c560281b8f1af831957ed5047fd3ab902f9000000000000000000000000000000000000000000000000000000000000009901000000000000000d00009d4b0000000000000000000000009918889e93e8c4357a2d4bce0965dcc493fffda800009d71000000000000000000000000b0588f9a9cade7cd5f194a5fe77acd6a58250f823e78be56dc6462cd7be2646817c5910a11d18067f541cf0ae908d662379fb09c00000000000000000000000021af1185734d213d45c6236146fb81e2b0e8b821000000003b9aca000000000000000000000000000000000000000000000000000000000000000000000000000000160003010011010000000000000000000000000000fde800000000000000000000",
          "blockHash": "0xf9565f9947e66b79d39257d44a606aebb5491ce35ed81de41cb9f51a25b5e63d",
          "blockNumber": "0xb56020",
          "transactionHash": "0x554b72b4fcb8cc491edb8854cf1f2545320c8e96c31e8c2af6ea932802961a0a",
          "transactionIndex": "0x6",
          "logIndex": "0x1f",
          "removed": false
        },
        {
          "address": "0x0000000000000000000000000000000000001010",
          "topics": [
            "0xe6497e3ee548a3372136af2fcb0696db31fc6cf20260707645068bd3fe97f3c4",
            "0x0000000000000000000000000000000000000000000000000000000000001010",
            "0x0000000000000000000000006edce65403992e310a62460808c4b910d972f10f",
            "0x0000000000000000000000001d186c560281b8f1af831957ed5047fd3ab902f9"
          ],
          "data": "0x00000000000000000000000000000000000000000000000007b592bc7fafd75d00000000000000000000000000000000000000000000000007b592bc7fafd75d000000000000000000000000000000000000000000000045bf690096a1e760540000000000000000000000000000000000000000000000000000000000000000000000000000000000000000000000000000000000000045c71e9353219737b1",
          "blockHash": "0xf9565f9947e66b79d39257d44a606aebb5491ce35ed81de41cb9f51a25b5e63d",
          "blockNumber": "0xb56020",
          "transactionHash": "0x554b72b4fcb8cc491edb8854cf1f2545320c8e96c31e8c2af6ea932802961a0a",
          "transactionIndex": "0x6",
          "logIndex": "0x20",
          "removed": false
        },
        {
          "address": "0x9918889e93e8c4357a2d4bce0965dcc493fffda8",
          "topics": [
            "0x85496b760a4b7f8d66384b9df21b381f5d1b1e79f229a47aaf4c232edc2fe59a",
            "0x3e78be56dc6462cd7be2646817c5910a11d18067f541cf0ae908d662379fb09c",
            "0x00000000000000000000000021af1185734d213d45c6236146fb81e2b0e8b821"
          ],
          "data": "0x0000000000000000000000000000000000000000000000000000000000009d7100000000000000000000000000000000000000000000003635c9adc5dea0000000000000000000000000000000000000000000000000003635c9adc5dea00000",
          "blockHash": "0xf9565f9947e66b79d39257d44a606aebb5491ce35ed81de41cb9f51a25b5e63d",
          "blockNumber": "0xb56020",
          "transactionHash": "0x554b72b4fcb8cc491edb8854cf1f2545320c8e96c31e8c2af6ea932802961a0a",
          "transactionIndex": "0x6",
          "logIndex": "0x21",
          "removed": false
        },
        {
          "address": "0x0000000000000000000000000000000000001010",
          "topics": [
            "0x4dfe1bbbcf077ddc3e01291eea2d5c70c2b422b415d95645b9adcfd678cb1d63",
            "0x0000000000000000000000000000000000000000000000000000000000001010",
            "0x00000000000000000000000021af1185734d213d45c6236146fb81e2b0e8b821",
            "0x00000000000000000000000009207a6efee346cb3e4a54ac18523e3715d38b3f"
          ],
          "data": "0x000000000000000000000000000000000000000000000000001f58e5c254b8c60000000000000000000000000000000000000000000000049ebb11fa17c123d70000000000000000000000000000000000000000000002636cd617c718e00d1b0000000000000000000000000000000000000000000000049e9bb914556c6b110000000000000000000000000000000000000000000002636cf570acdb34c5e1",
          "blockHash": "0xf9565f9947e66b79d39257d44a606aebb5491ce35ed81de41cb9f51a25b5e63d",
          "blockNumber": "0xb56020",
          "transactionHash": "0x554b72b4fcb8cc491edb8854cf1f2545320c8e96c31e8c2af6ea932802961a0a",
          "transactionIndex": "0x6",
          "logIndex": "0x22",
          "removed": false
        }
      ],
      "logsBloom": "0x400000000000000000000000000800000000000000000000000000000000000000000000000010402000001000000000000080000000000000000100000040000000028020000000000000080000008000000000000000000001000000020000000000200000000082000010000000000000000000000000800040100000000000000000000000200000000800000000000040000000000000000000000000002000000080040000081000240000000000000800004000000004c000000000400000000200000000000100208000000000000000000880120010800000000000000a040000000000000000010000002008000000008000000000000000100000",
      "type": "0x2",
      "transactionHash": "0x554b72b4fcb8cc491edb8854cf1f2545320c8e96c31e8c2af6ea932802961a0a",
      "transactionIndex": "0x6",
      "blockHash": "0xf9565f9947e66b79d39257d44a606aebb5491ce35ed81de41cb9f51a25b5e63d",
      "blockNumber": "0xb56020",
      "gasUsed": "0x394bf",
      "effectiveGasPrice": "0x8c0f0dac9",
      "from": "0x21af1185734d213d45c6236146fb81e2b0e8b821",
      "to": "0x9918889e93e8c4357a2d4bce0965dcc493fffda8",
      "contractAddress": null
    },
    {
      "status": "0x1",
      "cumulativeGasUsed": "0xde215",
      "logs": [
        {
          "address": "0x3d2bd0e15829aa5c362a4144fdf4a1112fa29b5c",
          "topics": [
            "0x8c5be1e5ebec7d5bd14f71427d1e84f3dd0314c0f7b2291e5b200ac8c7c3b925",
            "0x00000000000000000000000021af1185734d213d45c6236146fb81e2b0e8b821",
            "0x0000000000000000000000009918889e93e8c4357a2d4bce0965dcc493fffda8"
          ],
          "data": "0x00000000000000000000000000000000000000000000021e19e0c9bab2400000",
          "blockHash": "0xf9565f9947e66b79d39257d44a606aebb5491ce35ed81de41cb9f51a25b5e63d",
          "blockNumber": "0xb56020",
          "transactionHash": "0xb848c5d70eb85a51937f506636423faf8938ba089b06ce63bb52a85b4691d7a0",
          "transactionIndex": "0x7",
          "logIndex": "0x23",
          "removed": false
        },
        {
          "address": "0x0000000000000000000000000000000000001010",
          "topics": [
            "0x4dfe1bbbcf077ddc3e01291eea2d5c70c2b422b415d95645b9adcfd678cb1d63",
            "0x0000000000000000000000000000000000000000000000000000000000001010",
            "0x00000000000000000000000021af1185734d213d45c6236146fb81e2b0e8b821",
            "0x00000000000000000000000009207a6efee346cb3e4a54ac18523e3715d38b3f"
          ],
          "data": "0x00000000000000000000000000000000000000000000000000062bef8f6594d200000000000000000000000000000000000000000000000496e62657d586dc830000000000000000000000000000000000000000000002636cf570acdb34c5e100000000000000000000000000000000000000000000000496dffa68462147b10000000000000000000000000000000000000000000002636cfb9c9c6a9a5ab3",
          "blockHash": "0xf9565f9947e66b79d39257d44a606aebb5491ce35ed81de41cb9f51a25b5e63d",
          "blockNumber": "0xb56020",
          "transactionHash": "0xb848c5d70eb85a51937f506636423faf8938ba089b06ce63bb52a85b4691d7a0",
          "transactionIndex": "0x7",
          "logIndex": "0x24",
          "removed": false
        }
      ],
      "logsBloom": "0x40000000000000000000000000080000000000000000000000000000000000000000000000001000000000000000000000008000000000000000010000200000000000002000000000000000000000800000000000000000000100000000000000000020000000000000000000000000000000000000000080004000000000000000000000000000000000000000000000004000000000000000000000000000220000000000000008000000000000000000000000000000000080000000004000000000000000000001000000000000000000000000000000100000000000000012000000000000000000010000000000000000000000000000000000100000",
      "type": "0x2",
      "transactionHash": "0xb848c5d70eb85a51937f506636423faf8938ba089b06ce63bb52a85b4691d7a0",
      "transactionIndex": "0x7",
      "blockHash": "0xf9565f9947e66b79d39257d44a606aebb5491ce35ed81de41cb9f51a25b5e63d",
      "blockNumber": "0xb56020",
      "gasUsed": "0xb47d",
      "effectiveGasPrice": "0x8c0f0dac9",
      "from": "0x21af1185734d213d45c6236146fb81e2b0e8b821",
      "to": "0x3d2bd0e15829aa5c362a4144fdf4a1112fa29b5c",
      "contractAddress": null
    },
    {
      "status": "0x1",
      "cumulativeGasUsed": "0x1176ec",
      "logs": [
        {
          "address": "0x0000000000000000000000000000000000001010",
          "topics": [
            "0xe6497e3ee548a3372136af2fcb0696db31fc6cf20260707645068bd3fe97f3c4",
            "0x0000000000000000000000000000000000000000000000000000000000001010",
            "0x00000000000000000000000021af1185734d213d45c6236146fb81e2b0e8b821",
            "0x0000000000000000000000009918889e93e8c4357a2d4bce0965dcc493fffda8"
          ],
          "data": "0x00000000000000000000000000000000000000000000000007b592bc7fafd75d00000000000000000000000000000000000000000000000496b4ace74fecf16c00000000000000000000000000000000000000000000000000000000000000000000000000000000000000000000000000000000000000048eff1a2ad03d1a0f00000000000000000000000000000000000000000000000007b592bc7fafd75d",
          "blockHash": "0xf9565f9947e66b79d39257d44a606aebb5491ce35ed81de41cb9f51a25b5e63d",
          "blockNumber": "0xb56020",
          "transactionHash": "0x77b5d1d3e2fe380ddfa7d5f2347209e5daefb5d3915fb0a60c874844d1941768",
          "transactionIndex": "0x8",
          "logIndex": "0x25",
          "removed": false
        },
        {
          "address": "0x3d2bd0e15829aa5c362a4144fdf4a1112fa29b5c",
          "topics": [
            "0xddf252ad1be2c89b69c2b068fc378daa952ba7f163c4a11628f55a4df523b3ef",
            "0x00000000000000000000000021af1185734d213d45c6236146fb81e2b0e8b821",
            "0x0000000000000000000000009918889e93e8c4357a2d4bce0965dcc493fffda8"
          ],
          "data": "0x00000000000000000000000000000000000000000000021e19e0c9bab2400000",
          "blockHash": "0xf9565f9947e66b79d39257d44a606aebb5491ce35ed81de41cb9f51a25b5e63d",
          "blockNumber": "0xb56020",
          "transactionHash": "0x77b5d1d3e2fe380ddfa7d5f2347209e5daefb5d3915fb0a60c874844d1941768",
          "transactionIndex": "0x8",
          "logIndex": "0x26",
          "removed": false
        },
        {
          "address": "0x0000000000000000000000000000000000001010",
          "topics": [
            "0xe6497e3ee548a3372136af2fcb0696db31fc6cf20260707645068bd3fe97f3c4",
            "0x0000000000000000000000000000000000000000000000000000000000001010",
            "0x0000000000000000000000009918889e93e8c4357a2d4bce0965dcc493fffda8",
            "0x0000000000000000000000006edce65403992e310a62460808c4b910d972f10f"
          ],
          "data": "0x00000000000000000000000000000000000000000000000007b592bc7fafd75d00000000000000000000000000000000000000000000000007b592bc7fafd75d0000000000000000000000000000000000000000000000000000000000000000000000000000000000000000000000000000000000000000000000000000000000000000000000000000000000000000000000000000000007b592bc7fafd75d",
          "blockHash": "0xf9565f9947e66b79d39257d44a606aebb5491ce35ed81de41cb9f51a25b5e63d",
          "blockNumber": "0xb56020",
          "transactionHash": "0x77b5d1d3e2fe380ddfa7d5f2347209e5daefb5d3915fb0a60c874844d1941768",
          "transactionIndex": "0x8",
          "logIndex": "0x27",
          "removed": false
        },
        {
          "address": "0x1d186c560281b8f1af831957ed5047fd3ab902f9",
          "topics": [
            "0x61ed099e74a97a1d7f8bb0952a88ca8b7b8ebd00c126ea04671f92a81213318a"
          ],
          "data": "0x0000000000000000000000004cf1b3fa61465c2c907f82fc488b43223ba0cf93000000000000000000000000000000000000000000000000075797f0799b4704",
          "blockHash": "0xf9565f9947e66b79d39257d44a606aebb5491ce35ed81de41cb9f51a25b5e63d",
          "blockNumber": "0xb56020",
          "transactionHash": "0x77b5d1d3e2fe380ddfa7d5f2347209e5daefb5d3915fb0a60c874844d1941768",
          "transactionIndex": "0x8",
          "logIndex": "0x28",
          "removed": false
        },
        {
          "address": "0x1d186c560281b8f1af831957ed5047fd3ab902f9",
          "topics": [
            "0x07ea52d82345d6e838192107d8fd7123d9c2ec8e916cd0aad13fd2b60db24644"
          ],
          "data": "0x000000000000000000000000000000000000000000000000000000000000006000000000000000000000000000000000000000000000000000000000000000a000000000000000000000000000000000000000000000000000000000000000c0000000000000000000000000000000000000000000000000000000000000000100000000000000000000000055c175dd5b039331db251424538169d8495c18d100000000000000000000000000000000000000000000000000000000000000000000000000000000000000000000000000000000000000000000000000000001000000000000000000000000000000000000000000000000005dfacc06149059",
          "blockHash": "0xf9565f9947e66b79d39257d44a606aebb5491ce35ed81de41cb9f51a25b5e63d",
          "blockNumber": "0xb56020",
          "transactionHash": "0x77b5d1d3e2fe380ddfa7d5f2347209e5daefb5d3915fb0a60c874844d1941768",
          "transactionIndex": "0x8",
          "logIndex": "0x29",
          "removed": false
        },
        {
          "address": "0x6edce65403992e310a62460808c4b910d972f10f",
          "topics": [
            "0x1ab700d4ced0c005b164c0f789fd09fcbb0156d4c2041b8a3bfbcd961cd1567f"
          ],
          "data": "0x000000000000000000000000000000000000000000000000000000000000006000000000000000000000000000000000000000000000000000000000000001200000000000000000000000001d186c560281b8f1af831957ed5047fd3ab902f9000000000000000000000000000000000000000000000000000000000000009901000000000000000e00009d4b0000000000000000000000009918889e93e8c4357a2d4bce0965dcc493fffda800009d71000000000000000000000000b0588f9a9cade7cd5f194a5fe77acd6a58250f82eb9615f36f63b14b24be578e2cf9f782f29c353e324d8ed22d9e0faf1903693300000000000000000000000021af1185734d213d45c6236146fb81e2b0e8b82100000002540be4000000000000000000000000000000000000000000000000000000000000000000000000000000160003010011010000000000000000000000000000fde800000000000000000000",
          "blockHash": "0xf9565f9947e66b79d39257d44a606aebb5491ce35ed81de41cb9f51a25b5e63d",
          "blockNumber": "0xb56020",
          "transactionHash": "0x77b5d1d3e2fe380ddfa7d5f2347209e5daefb5d3915fb0a60c874844d1941768",
          "transactionIndex": "0x8",
          "logIndex": "0x2a",
          "removed": false
        },
        {
          "address": "0x0000000000000000000000000000000000001010",
          "topics": [
            "0xe6497e3ee548a3372136af2fcb0696db31fc6cf20260707645068bd3fe97f3c4",
            "0x0000000000000000000000000000000000000000000000000000000000001010",
            "0x0000000000000000000000006edce65403992e310a62460808c4b910d972f10f",
            "0x0000000000000000000000001d186c560281b8f1af831957ed5047fd3ab902f9"
          ],
          "data": "0x00000000000000000000000000000000000000000000000007b592bc7fafd75d00000000000000000000000000000000000000000000000007b592bc7fafd75d000000000000000000000000000000000000000000000045c71e9353219737b10000000000000000000000000000000000000000000000000000000000000000000000000000000000000000000000000000000000000045ced4260fa1470f0e",
          "blockHash": "0xf9565f9947e66b79d39257d44a606aebb5491ce35ed81de41cb9f51a25b5e63d",
          "blockNumber": "0xb56020",
          "transactionHash": "0x77b5d1d3e2fe380ddfa7d5f2347209e5daefb5d3915fb0a60c874844d1941768",
          "transactionIndex": "0x8",
          "logIndex": "0x2b",
          "removed": false
        },
        {
          "address": "0x9918889e93e8c4357a2d4bce0965dcc493fffda8",
          "topics": [
            "0x85496b760a4b7f8d66384b9df21b381f5d1b1e79f229a47aaf4c232edc2fe59a",
            "0xeb9615f36f63b14b24be578e2cf9f782f29c353e324d8ed22d9e0faf19036933",
            "0x00000000000000000000000021af1185734d213d45c6236146fb81e2b0e8b821"
          ],
          "data": "0x0000000000000000000000000000000000000000000000000000000000009d7100000000000000000000000000000000000000000000021e19e0c9bab240000000000000000000000000000000000000000000000000021e19e0c9bab2400000",
          "blockHash": "0xf9565f9947e66b79d39257d44a606aebb5491ce35ed81de41cb9f51a25b5e63d",
          "blockNumber": "0xb56020",
          "transactionHash": "0x77b5d1d3e2fe380ddfa7d5f2347209e5daefb5d3915fb0a60c874844d1941768",
          "transactionIndex": "0x8",
          "logIndex": "0x2c",
          "removed": false
        },
        {
          "address": "0x0000000000000000000000000000000000001010",
          "topics": [
            "0x4dfe1bbbcf077ddc3e01291eea2d5c70c2b422b415d95645b9adcfd678cb1d63",
            "0x0000000000000000000000000000000000000000000000000000000000001010",
            "0x00000000000000000000000021af1185734d213d45c6236146fb81e2b0e8b821",
            "0x00000000000000000000000009207a6efee346cb3e4a54ac18523e3715d38b3f"
          ],
          "data": "0x000000000000000000000000000000000000000000000000001f59b7d8e93a3600000000000000000000000000000000000000000000000496dffa684616b45e0000000000000000000000000000000000000000000002636cfb9c9c6a9a5ab300000000000000000000000000000000000000000000000496c0a0b06d2d7a280000000000000000000000000000000000000000000002636d1af654438394e9",
          "blockHash": "0xf9565f9947e66b79d39257d44a606aebb5491ce35ed81de41cb9f51a25b5e63d",
          "blockNumber": "0xb56020",
          "transactionHash": "0x77b5d1d3e2fe380ddfa7d5f2347209e5daefb5d3915fb0a60c874844d1941768",
          "transactionIndex": "0x8",
          "logIndex": "0x2d",
          "removed": false
        }
      ],
      "logsBloom": "0x400000000000000000000000000800400000000000000000000000000000000000000000000010002000001000000000000080000000000000000100000040000000028020000000000000080000008000000000000000000001000000020000000000200000000082000010000000000000000000000000800040100000000000000000000000200000000808000000000040000000000000000000000000002000000080000000081000240000000000000800004200000004c0000000004000000002000000000001002080000000000000000008801200108000000000000002040000000000000000010000002008000000008000000000000000100000",
      "type": "0x2",
      "transactionHash": "0x77b5d1d3e2fe380ddfa7d5f2347209e5daefb5d3915fb0a60c874844d1941768",
      "transactionIndex": "0x8",
      "blockHash": "0xf9565f9947e66b79d39257d44a606aebb5491ce35ed81de41cb9f51a25b5e63d",
      "blockNumber": "0xb56020",
      "gasUsed": "0x394d7",
      "effectiveGasPrice": "0x8c0f0dac9",
      "from": "0x21af1185734d213d45c6236146fb81e2b0e8b821",
      "to": "0x9918889e93e8c4357a2d4bce0965dcc493fffda8",
      "contractAddress": null
    },
    {
      "status": "0x1",
      "cumulativeGasUsed": "0x122b69",
      "logs": [
        {
          "address": "0x3d2bd0e15829aa5c362a4144fdf4a1112fa29b5c",
          "topics": [
            "0x8c5be1e5ebec7d5bd14f71427d1e84f3dd0314c0f7b2291e5b200ac8c7c3b925",
            "0x00000000000000000000000021af1185734d213d45c6236146fb81e2b0e8b821",
            "0x0000000000000000000000009918889e93e8c4357a2d4bce0965dcc493fffda8"
          ],
          "data": "0x00000000000000000000000000000000000000000000152d02c7e14af6800000",
          "blockHash": "0xf9565f9947e66b79d39257d44a606aebb5491ce35ed81de41cb9f51a25b5e63d",
          "blockNumber": "0xb56020",
          "transactionHash": "0xe47882ac6aac350f4210a8f2d0520f5d832bb4889d0403d0d5fa11b192d57629",
          "transactionIndex": "0x9",
          "logIndex": "0x2e",
          "removed": false
        },
        {
          "address": "0x0000000000000000000000000000000000001010",
          "topics": [
            "0x4dfe1bbbcf077ddc3e01291eea2d5c70c2b422b415d95645b9adcfd678cb1d63",
            "0x0000000000000000000000000000000000000000000000000000000000001010",
            "0x00000000000000000000000021af1185734d213d45c6236146fb81e2b0e8b821",
            "0x00000000000000000000000009207a6efee346cb3e4a54ac18523e3715d38b3f"
          ],
          "data": "0x00000000000000000000000000000000000000000000000000062bef8f6594d20000000000000000000000000000000000000000000000048f0b0df3ed47ea320000000000000000000000000000000000000000000002636d1af654438394e90000000000000000000000000000000000000000000000048f04e2045de255600000000000000000000000000000000000000000000002636d212243d2e929bb",
          "blockHash": "0xf9565f9947e66b79d39257d44a606aebb5491ce35ed81de41cb9f51a25b5e63d",
          "blockNumber": "0xb56020",
          "transactionHash": "0xe47882ac6aac350f4210a8f2d0520f5d832bb4889d0403d0d5fa11b192d57629",
          "transactionIndex": "0x9",
          "logIndex": "0x2f",
          "removed": false
        }
      ],
      "logsBloom": "0x40000000000000000000000000080000000000000000000000000000000000000000000000001000000000000000000000008000000000000000010000200000000000002000000000000000000000800000000000000000000100000000000000000020000000000000000000000000000000000000000080004000000000000000000000000000000000000000000000004000000000000000000000000000220000000000000008000000000000000000000000000000000080000000004000000000000000000001000000000000000000000000000000100000000000000012000000000000000000010000000000000000000000000000000000100000",
      "type": "0x2",
      "transactionHash": "0xe47882ac6aac350f4210a8f2d0520f5d832bb4889d0403d0d5fa11b192d57629",
      "transactionIndex": "0x9",
      "blockHash": "0xf9565f9947e66b79d39257d44a606aebb5491ce35ed81de41cb9f51a25b5e63d",
      "blockNumber": "0xb56020",
      "gasUsed": "0xb47d",
      "effectiveGasPrice": "0x8c0f0dac9",
      "from": "0x21af1185734d213d45c6236146fb81e2b0e8b821",
      "to": "0x3d2bd0e15829aa5c362a4144fdf4a1112fa29b5c",
      "contractAddress": null
    },
    {
      "status": "0x1",
      "cumulativeGasUsed": "0x161248",
      "logs": [
        {
          "address": "0x0000000000000000000000000000000000001010",
          "topics": [
            "0xe6497e3ee548a3372136af2fcb0696db31fc6cf20260707645068bd3fe97f3c4",
            "0x0000000000000000000000000000000000000000000000000000000000001010",
            "0x00000000000000000000000021af1185734d213d45c6236146fb81e2b0e8b821",
            "0x0000000000000000000000009918889e93e8c4357a2d4bce0965dcc493fffda8"
          ],
          "data": "0x00000000000000000000000000000000000000000000000007b592bc7fafd75d0000000000000000000000000000000000000000000000048ed9948367adff1b0000000000000000000000000000000000000000000000000000000000000000000000000000000000000000000000000000000000000004872401c6e7fe27be00000000000000000000000000000000000000000000000007b592bc7fafd75d",
          "blockHash": "0xf9565f9947e66b79d39257d44a606aebb5491ce35ed81de41cb9f51a25b5e63d",
          "blockNumber": "0xb56020",
          "transactionHash": "0x6fe4cb282c19cb97f8b46c367acfd8701f1ce68ec4e18948fd32d4fd2f20e933",
          "transactionIndex": "0xb",
          "logIndex": "0x32",
          "removed": false
        },
        {
          "address": "0x3d2bd0e15829aa5c362a4144fdf4a1112fa29b5c",
          "topics": [
            "0xddf252ad1be2c89b69c2b068fc378daa952ba7f163c4a11628f55a4df523b3ef",
            "0x00000000000000000000000021af1185734d213d45c6236146fb81e2b0e8b821",
            "0x0000000000000000000000009918889e93e8c4357a2d4bce0965dcc493fffda8"
          ],
          "data": "0x00000000000000000000000000000000000000000000152d02c7e14af6800000",
          "blockHash": "0xf9565f9947e66b79d39257d44a606aebb5491ce35ed81de41cb9f51a25b5e63d",
          "blockNumber": "0xb56020",
          "transactionHash": "0x6fe4cb282c19cb97f8b46c367acfd8701f1ce68ec4e18948fd32d4fd2f20e933",
          "transactionIndex": "0xb",
          "logIndex": "0x33",
          "removed": false
        },
        {
          "address": "0x0000000000000000000000000000000000001010",
          "topics": [
            "0xe6497e3ee548a3372136af2fcb0696db31fc6cf20260707645068bd3fe97f3c4",
            "0x0000000000000000000000000000000000000000000000000000000000001010",
            "0x0000000000000000000000009918889e93e8c4357a2d4bce0965dcc493fffda8",
            "0x0000000000000000000000006edce65403992e310a62460808c4b910d972f10f"
          ],
          "data": "0x00000000000000000000000000000000000000000000000007b592bc7fafd75d00000000000000000000000000000000000000000000000007b592bc7fafd75d0000000000000000000000000000000000000000000000000000000000000000000000000000000000000000000000000000000000000000000000000000000000000000000000000000000000000000000000000000000007b592bc7fafd75d",
          "blockHash": "0xf9565f9947e66b79d39257d44a606aebb5491ce35ed81de41cb9f51a25b5e63d",
          "blockNumber": "0xb56020",
          "transactionHash": "0x6fe4cb282c19cb97f8b46c367acfd8701f1ce68ec4e18948fd32d4fd2f20e933",
          "transactionIndex": "0xb",
          "logIndex": "0x34",
          "removed": false
        },
        {
          "address": "0x1d186c560281b8f1af831957ed5047fd3ab902f9",
          "topics": [
            "0x61ed099e74a97a1d7f8bb0952a88ca8b7b8ebd00c126ea04671f92a81213318a"
          ],
          "data": "0x0000000000000000000000004cf1b3fa61465c2c907f82fc488b43223ba0cf93000000000000000000000000000000000000000000000000075797f0799b4704",
          "blockHash": "0xf9565f9947e66b79d39257d44a606aebb5491ce35ed81de41cb9f51a25b5e63d",
          "blockNumber": "0xb56020",
          "transactionHash": "0x6fe4cb282c19cb97f8b46c367acfd8701f1ce68ec4e18948fd32d4fd2f20e933",
          "transactionIndex": "0xb",
          "logIndex": "0x35",
          "removed": false
        },
        {
          "address": "0x1d186c560281b8f1af831957ed5047fd3ab902f9",
          "topics": [
            "0x07ea52d82345d6e838192107d8fd7123d9c2ec8e916cd0aad13fd2b60db24644"
          ],
          "data": "0x000000000000000000000000000000000000000000000000000000000000006000000000000000000000000000000000000000000000000000000000000000a000000000000000000000000000000000000000000000000000000000000000c0000000000000000000000000000000000000000000000000000000000000000100000000000000000000000055c175dd5b039331db251424538169d8495c18d100000000000000000000000000000000000000000000000000000000000000000000000000000000000000000000000000000000000000000000000000000001000000000000000000000000000000000000000000000000005dfacc06149059",
          "blockHash": "0xf9565f9947e66b79d39257d44a606aebb5491ce35ed81de41cb9f51a25b5e63d",
          "blockNumber": "0xb56020",
          "transactionHash": "0x6fe4cb282c19cb97f8b46c367acfd8701f1ce68ec4e18948fd32d4fd2f20e933",
          "transactionIndex": "0xb",
          "logIndex": "0x36",
          "removed": false
        },
        {
          "address": "0x6edce65403992e310a62460808c4b910d972f10f",
          "topics": [
            "0x1ab700d4ced0c005b164c0f789fd09fcbb0156d4c2041b8a3bfbcd961cd1567f"
          ],
          "data": "0x000000000000000000000000000000000000000000000000000000000000006000000000000000000000000000000000000000000000000000000000000001200000000000000000000000001d186c560281b8f1af831957ed5047fd3ab902f9000000000000000000000000000000000000000000000000000000000000009901000000000000000f00009d4b0000000000000000000000009918889e93e8c4357a2d4bce0965dcc493fffda800009d71000000000000000000000000b0588f9a9cade7cd5f194a5fe77acd6a58250f82da9bcc99337b69830474f47af06ba203fb7cc660d464c166ecebfb26f5a3a27f00000000000000000000000021af1185734d213d45c6236146fb81e2b0e8b821000000174876e8000000000000000000000000000000000000000000000000000000000000000000000000000000160003010011010000000000000000000000000000fde800000000000000000000",
          "blockHash": "0xf9565f9947e66b79d39257d44a606aebb5491ce35ed81de41cb9f51a25b5e63d",
          "blockNumber": "0xb56020",
          "transactionHash": "0x6fe4cb282c19cb97f8b46c367acfd8701f1ce68ec4e18948fd32d4fd2f20e933",
          "transactionIndex": "0xb",
          "logIndex": "0x37",
          "removed": false
        },
        {
          "address": "0x0000000000000000000000000000000000001010",
          "topics": [
            "0xe6497e3ee548a3372136af2fcb0696db31fc6cf20260707645068bd3fe97f3c4",
            "0x0000000000000000000000000000000000000000000000000000000000001010",
            "0x0000000000000000000000006edce65403992e310a62460808c4b910d972f10f",
            "0x0000000000000000000000001d186c560281b8f1af831957ed5047fd3ab902f9"
          ],
          "data": "0x00000000000000000000000000000000000000000000000007b592bc7fafd75d00000000000000000000000000000000000000000000000007b592bc7fafd75d000000000000000000000000000000000000000000000045ced4260fa1470f0e0000000000000000000000000000000000000000000000000000000000000000000000000000000000000000000000000000000000000045d689b8cc20f6e66b",
          "blockHash": "0xf9565f9947e66b79d39257d44a606aebb5491ce35ed81de41cb9f51a25b5e63d",
          "blockNumber": "0xb56020",
          "transactionHash": "0x6fe4cb282c19cb97f8b46c367acfd8701f1ce68ec4e18948fd32d4fd2f20e933",
          "transactionIndex": "0xb",
          "logIndex": "0x38",
          "removed": false
        },
        {
          "address": "0x9918889e93e8c4357a2d4bce0965dcc493fffda8",
          "topics": [
            "0x85496b760a4b7f8d66384b9df21b381f5d1b1e79f229a47aaf4c232edc2fe59a",
            "0xda9bcc99337b69830474f47af06ba203fb7cc660d464c166ecebfb26f5a3a27f",
            "0x00000000000000000000000021af1185734d213d45c6236146fb81e2b0e8b821"
          ],
          "data": "0x0000000000000000000000000000000000000000000000000000000000009d7100000000000000000000000000000000000000000000152d02c7e14af680000000000000000000000000000000000000000000000000152d02c7e14af6800000",
          "blockHash": "0xf9565f9947e66b79d39257d44a606aebb5491ce35ed81de41cb9f51a25b5e63d",
          "blockNumber": "0xb56020",
          "transactionHash": "0x6fe4cb282c19cb97f8b46c367acfd8701f1ce68ec4e18948fd32d4fd2f20e933",
          "transactionIndex": "0xb",
          "logIndex": "0x39",
          "removed": false
        },
        {
          "address": "0x0000000000000000000000000000000000001010",
          "topics": [
            "0x4dfe1bbbcf077ddc3e01291eea2d5c70c2b422b415d95645b9adcfd678cb1d63",
            "0x0000000000000000000000000000000000000000000000000000000000001010",
            "0x00000000000000000000000021af1185734d213d45c6236146fb81e2b0e8b821",
            "0x00000000000000000000000009207a6efee346cb3e4a54ac18523e3715d38b3f"
          ],
          "data": "0x000000000000000000000000000000000000000000000000001f59b7d8e93a360000000000000000000000000000000000000000000000048f04e2045dd7c20d0000000000000000000000000000000000000000000002636d23f057007f938b0000000000000000000000000000000000000000000000048ee5884c84ee87d70000000000000000000000000000000000000000000002636d434a0ed968cdc1",
          "blockHash": "0xf9565f9947e66b79d39257d44a606aebb5491ce35ed81de41cb9f51a25b5e63d",
          "blockNumber": "0xb56020",
          "transactionHash": "0x6fe4cb282c19cb97f8b46c367acfd8701f1ce68ec4e18948fd32d4fd2f20e933",
          "transactionIndex": "0xb",
          "logIndex": "0x3a",
          "removed": false
        }
      ],
      "logsBloom": "0x400000000000000000000000000800000000000000000000000000000000000000000000000010002000001000000000000080000000000000000100000040000000028020000000000000080000008000000000000000000011000000020000000000200000000082000010000000040000000000000000800040100000000000000000000000200000000800000000000040000000000000000000000000002000000080000000081000240000000000000800004000000004c0000000004000000002000000000001002080000000000000001008801200108000000000000002040000000000000000010000002008000000008000000000000000100000",
      "type": "0x2",
      "transactionHash": "0x6fe4cb282c19cb97f8b46c367acfd8701f1ce68ec4e18948fd32d4fd2f20e933",
      "transactionIndex": "0xb",
      "blockHash": "0xf9565f9947e66b79d39257d44a606aebb5491ce35ed81de41cb9f51a25b5e63d",
      "blockNumber": "0xb56020",
      "gasUsed": "0x394d7",
      "effectiveGasPrice": "0x8c0f0dac9",
      "from": "0x21af1185734d213d45c6236146fb81e2b0e8b821",
      "to": "0x9918889e93e8c4357a2d4bce0965dcc493fffda8",
      "contractAddress": null
    },
    {
      "status": "0x1",
      "cumulativeGasUsed": "0x16c6b9",
      "logs": [
        {
          "address": "0x3d2bd0e15829aa5c362a4144fdf4a1112fa29b5c",
          "topics": [
            "0x8c5be1e5ebec7d5bd14f71427d1e84f3dd0314c0f7b2291e5b200ac8c7c3b925",
            "0x00000000000000000000000021af1185734d213d45c6236146fb81e2b0e8b821",
            "0x0000000000000000000000009918889e93e8c4357a2d4bce0965dcc493fffda8"
          ],
          "data": "0x000000000000000000000000000000000000000000002a5a058fc295ed000000",
          "blockHash": "0xf9565f9947e66b79d39257d44a606aebb5491ce35ed81de41cb9f51a25b5e63d",
          "blockNumber": "0xb56020",
          "transactionHash": "0xe293a2e6d350cee0ef3ee3ccf6f4e43be8e2c4e842f5fe8cf5029f5582cae9b9",
          "transactionIndex": "0xc",
          "logIndex": "0x3b",
          "removed": false
        },
        {
          "address": "0x0000000000000000000000000000000000001010",
          "topics": [
            "0x4dfe1bbbcf077ddc3e01291eea2d5c70c2b422b415d95645b9adcfd678cb1d63",
            "0x0000000000000000000000000000000000000000000000000000000000001010",
            "0x00000000000000000000000021af1185734d213d45c6236146fb81e2b0e8b821",
            "0x00000000000000000000000009207a6efee346cb3e4a54ac18523e3715d38b3f"
          ],
          "data": "0x00000000000000000000000000000000000000000000000000062b86841b541a000000000000000000000000000000000000000000000004872ff5900508f7e10000000000000000000000000000000000000000000002636d434a0ed968cdc10000000000000000000000000000000000000000000000048729ca0980eda3c70000000000000000000000000000000000000000000002636d4975955d8421db",
          "blockHash": "0xf9565f9947e66b79d39257d44a606aebb5491ce35ed81de41cb9f51a25b5e63d",
          "blockNumber": "0xb56020",
          "transactionHash": "0xe293a2e6d350cee0ef3ee3ccf6f4e43be8e2c4e842f5fe8cf5029f5582cae9b9",
          "transactionIndex": "0xc",
          "logIndex": "0x3c",
          "removed": false
        }
      ],
      "logsBloom": "0x40000000000000000000000000080000000000000000000000000000000000000000000000001000000000000000000000008000000000000000010000200000000000002000000000000000000000800000000000000000000100000000000000000020000000000000000000000000000000000000000080004000000000000000000000000000000000000000000000004000000000000000000000000000220000000000000008000000000000000000000000000000000080000000004000000000000000000001000000000000000000000000000000100000000000000012000000000000000000010000000000000000000000000000000000100000",
      "type": "0x2",
      "transactionHash": "0xe293a2e6d350cee0ef3ee3ccf6f4e43be8e2c4e842f5fe8cf5029f5582cae9b9",
      "transactionIndex": "0xc",
      "blockHash": "0xf9565f9947e66b79d39257d44a606aebb5491ce35ed81de41cb9f51a25b5e63d",
      "blockNumber": "0xb56020",
      "gasUsed": "0xb471",
      "effectiveGasPrice": "0x8c0f0dac9",
      "from": "0x21af1185734d213d45c6236146fb81e2b0e8b821",
      "to": "0x3d2bd0e15829aa5c362a4144fdf4a1112fa29b5c",
      "contractAddress": null
    },
    {
      "status": "0x1",
      "cumulativeGasUsed": "0x1a5b78",
      "logs": [
        {
          "address": "0x0000000000000000000000000000000000001010",
          "topics": [
            "0xe6497e3ee548a3372136af2fcb0696db31fc6cf20260707645068bd3fe97f3c4",
            "0x0000000000000000000000000000000000000000000000000000000000001010",
            "0x00000000000000000000000021af1185734d213d45c6236146fb81e2b0e8b821",
            "0x0000000000000000000000009918889e93e8c4357a2d4bce0965dcc493fffda8"
          ],
          "data": "0x00000000000000000000000000000000000000000000000007b592bc7fafd75d00000000000000000000000000000000000000000000000486fe7db22ab65ce800000000000000000000000000000000000000000000000000000000000000000000000000000000000000000000000000000000000000047f48eaf5ab06858b00000000000000000000000000000000000000000000000007b592bc7fafd75d",
          "blockHash": "0xf9565f9947e66b79d39257d44a606aebb5491ce35ed81de41cb9f51a25b5e63d",
          "blockNumber": "0xb56020",
          "transactionHash": "0x7d351bbb30cf422907bbf28f401682e6616f5b88d13de95345b928bd53ae2d32",
          "transactionIndex": "0xd",
          "logIndex": "0x3d",
          "removed": false
        },
        {
          "address": "0x3d2bd0e15829aa5c362a4144fdf4a1112fa29b5c",
          "topics": [
            "0xddf252ad1be2c89b69c2b068fc378daa952ba7f163c4a11628f55a4df523b3ef",
            "0x00000000000000000000000021af1185734d213d45c6236146fb81e2b0e8b821",
            "0x0000000000000000000000009918889e93e8c4357a2d4bce0965dcc493fffda8"
          ],
          "data": "0x000000000000000000000000000000000000000000002a5a058fc295ed000000",
          "blockHash": "0xf9565f9947e66b79d39257d44a606aebb5491ce35ed81de41cb9f51a25b5e63d",
          "blockNumber": "0xb56020",
          "transactionHash": "0x7d351bbb30cf422907bbf28f401682e6616f5b88d13de95345b928bd53ae2d32",
          "transactionIndex": "0xd",
          "logIndex": "0x3e",
          "removed": false
        },
        {
          "address": "0x0000000000000000000000000000000000001010",
          "topics": [
            "0xe6497e3ee548a3372136af2fcb0696db31fc6cf20260707645068bd3fe97f3c4",
            "0x0000000000000000000000000000000000000000000000000000000000001010",
            "0x0000000000000000000000009918889e93e8c4357a2d4bce0965dcc493fffda8",
            "0x0000000000000000000000006edce65403992e310a62460808c4b910d972f10f"
          ],
          "data": "0x00000000000000000000000000000000000000000000000007b592bc7fafd75d00000000000000000000000000000000000000000000000007b592bc7fafd75d0000000000000000000000000000000000000000000000000000000000000000000000000000000000000000000000000000000000000000000000000000000000000000000000000000000000000000000000000000000007b592bc7fafd75d",
          "blockHash": "0xf9565f9947e66b79d39257d44a606aebb5491ce35ed81de41cb9f51a25b5e63d",
          "blockNumber": "0xb56020",
          "transactionHash": "0x7d351bbb30cf422907bbf28f401682e6616f5b88d13de95345b928bd53ae2d32",
          "transactionIndex": "0xd",
          "logIndex": "0x3f",
          "removed": false
        },
        {
          "address": "0x1d186c560281b8f1af831957ed5047fd3ab902f9",
          "topics": [
            "0x61ed099e74a97a1d7f8bb0952a88ca8b7b8ebd00c126ea04671f92a81213318a"
          ],
          "data": "0x0000000000000000000000004cf1b3fa61465c2c907f82fc488b43223ba0cf93000000000000000000000000000000000000000000000000075797f0799b4704",
          "blockHash": "0xf9565f9947e66b79d39257d44a606aebb5491ce35ed81de41cb9f51a25b5e63d",
          "blockNumber": "0xb56020",
          "transactionHash": "0x7d351bbb30cf422907bbf28f401682e6616f5b88d13de95345b928bd53ae2d32",
          "transactionIndex": "0xd",
          "logIndex": "0x40",
          "removed": false
        },
        {
          "address": "0x1d186c560281b8f1af831957ed5047fd3ab902f9",
          "topics": [
            "0x07ea52d82345d6e838192107d8fd7123d9c2ec8e916cd0aad13fd2b60db24644"
          ],
          "data": "0x000000000000000000000000000000000000000000000000000000000000006000000000000000000000000000000000000000000000000000000000000000a000000000000000000000000000000000000000000000000000000000000000c0000000000000000000000000000000000000000000000000000000000000000100000000000000000000000055c175dd5b039331db251424538169d8495c18d100000000000000000000000000000000000000000000000000000000000000000000000000000000000000000000000000000000000000000000000000000001000000000000000000000000000000000000000000000000005dfacc06149059",
          "blockHash": "0xf9565f9947e66b79d39257d44a606aebb5491ce35ed81de41cb9f51a25b5e63d",
          "blockNumber": "0xb56020",
          "transactionHash": "0x7d351bbb30cf422907bbf28f401682e6616f5b88d13de95345b928bd53ae2d32",
          "transactionIndex": "0xd",
          "logIndex": "0x41",
          "removed": false
        },
        {
          "address": "0x6edce65403992e310a62460808c4b910d972f10f",
          "topics": [
            "0x1ab700d4ced0c005b164c0f789fd09fcbb0156d4c2041b8a3bfbcd961cd1567f"
          ],
          "data": "0x000000000000000000000000000000000000000000000000000000000000006000000000000000000000000000000000000000000000000000000000000001200000000000000000000000001d186c560281b8f1af831957ed5047fd3ab902f9000000000000000000000000000000000000000000000000000000000000009901000000000000001000009d4b0000000000000000000000009918889e93e8c4357a2d4bce0965dcc493fffda800009d71000000000000000000000000b0588f9a9cade7cd5f194a5fe77acd6a58250f8207e42e8d1179d55b5832aec750e80bea57ca61aeee01851d9ade0268d99d478b00000000000000000000000021af1185734d213d45c6236146fb81e2b0e8b8210000002e90edd0000000000000000000000000000000000000000000000000000000000000000000000000000000160003010011010000000000000000000000000000fde800000000000000000000",
          "blockHash": "0xf9565f9947e66b79d39257d44a606aebb5491ce35ed81de41cb9f51a25b5e63d",
          "blockNumber": "0xb56020",
          "transactionHash": "0x7d351bbb30cf422907bbf28f401682e6616f5b88d13de95345b928bd53ae2d32",
          "transactionIndex": "0xd",
          "logIndex": "0x42",
          "removed": false
        },
        {
          "address": "0x0000000000000000000000000000000000001010",
          "topics": [
            "0xe6497e3ee548a3372136af2fcb0696db31fc6cf20260707645068bd3fe97f3c4",
            "0x0000000000000000000000000000000000000000000000000000000000001010",
            "0x0000000000000000000000006edce65403992e310a62460808c4b910d972f10f",
            "0x0000000000000000000000001d186c560281b8f1af831957ed5047fd3ab902f9"
          ],
          "data": "0x00000000000000000000000000000000000000000000000007b592bc7fafd75d00000000000000000000000000000000000000000000000007b592bc7fafd75d000000000000000000000000000000000000000000000045d689b8cc20f6e66b0000000000000000000000000000000000000000000000000000000000000000000000000000000000000000000000000000000000000045de3f4b88a0a6bdc8",
          "blockHash": "0xf9565f9947e66b79d39257d44a606aebb5491ce35ed81de41cb9f51a25b5e63d",
          "blockNumber": "0xb56020",
          "transactionHash": "0x7d351bbb30cf422907bbf28f401682e6616f5b88d13de95345b928bd53ae2d32",
          "transactionIndex": "0xd",
          "logIndex": "0x43",
          "removed": false
        },
        {
          "address": "0x9918889e93e8c4357a2d4bce0965dcc493fffda8",
          "topics": [
            "0x85496b760a4b7f8d66384b9df21b381f5d1b1e79f229a47aaf4c232edc2fe59a",
            "0x07e42e8d1179d55b5832aec750e80bea57ca61aeee01851d9ade0268d99d478b",
            "0x00000000000000000000000021af1185734d213d45c6236146fb81e2b0e8b821"
          ],
          "data": "0x0000000000000000000000000000000000000000000000000000000000009d71000000000000000000000000000000000000000000002a5a058fc295ed000000000000000000000000000000000000000000000000002a5a058fc295ed000000",
          "blockHash": "0xf9565f9947e66b79d39257d44a606aebb5491ce35ed81de41cb9f51a25b5e63d",
          "blockNumber": "0xb56020",
          "transactionHash": "0x7d351bbb30cf422907bbf28f401682e6616f5b88d13de95345b928bd53ae2d32",
          "transactionIndex": "0xd",
          "logIndex": "0x44",
          "removed": false
        },
        {
          "address": "0x0000000000000000000000000000000000001010",
          "topics": [
            "0x4dfe1bbbcf077ddc3e01291eea2d5c70c2b422b415d95645b9adcfd678cb1d63",
            "0x0000000000000000000000000000000000000000000000000000000000001010",
            "0x00000000000000000000000021af1185734d213d45c6236146fb81e2b0e8b821",
            "0x00000000000000000000000009207a6efee346cb3e4a54ac18523e3715d38b3f"
          ],
          "data": "0x000000000000000000000000000000000000000000000000001f58e5c254b8c60000000000000000000000000000000000000000000000048729ca0980e311280000000000000000000000000000000000000000000002636d4975955d8421db000000000000000000000000000000000000000000000004870a7123be8e58620000000000000000000000000000000000000000000002636d68ce7b1fd8daa1",
          "blockHash": "0xf9565f9947e66b79d39257d44a606aebb5491ce35ed81de41cb9f51a25b5e63d",
          "blockNumber": "0xb56020",
          "transactionHash": "0x7d351bbb30cf422907bbf28f401682e6616f5b88d13de95345b928bd53ae2d32",
          "transactionIndex": "0xd",
          "logIndex": "0x45",
          "removed": false
        }
      ],
      "logsBloom": "0x400000000000000000000000000800000000000000000000000000000000000000000000000010002000001000000000000480000000000000000100000040000000028020000000000000080000008000000000000000000001000000020000000000200000000082000110000000000000000000000000800040100000000000000000000000200000000800000000000040000000000000000000000000002000000080000000081000240000000000000800004000000004c0000000004000000002000000000001002080000000000000000008801200108000000000000002040000000000000000010000002008000000008000000000000000100000",
      "type": "0x2",
      "transactionHash": "0x7d351bbb30cf422907bbf28f401682e6616f5b88d13de95345b928bd53ae2d32",
      "transactionIndex": "0xd",
      "blockHash": "0xf9565f9947e66b79d39257d44a606aebb5491ce35ed81de41cb9f51a25b5e63d",
      "blockNumber": "0xb56020",
      "gasUsed": "0x394bf",
      "effectiveGasPrice": "0x8c0f0dac9",
      "from": "0x21af1185734d213d45c6236146fb81e2b0e8b821",
      "to": "0x9918889e93e8c4357a2d4bce0965dcc493fffda8",
      "contractAddress": null
    }
  ],
  "libraries": [],
  "pending": [],
  "returns": {},
  "timestamp": 1726156929,
  "chain": 80002,
  "commit": "ca84423"
}