{
  "transactions": [
    {
      "hash": "0x5d51b4ee902de1aff4c38eb126f36248eb7c628dc72a59b171803e82748392b2",
      "transactionType": "CALL",
      "contractName": null,
      "contractAddress": "0x3d2bd0e15829aa5c362a4144fdf4a1112fa29b5c",
      "function": "approve(address,uint256)",
      "arguments": [
        "0x9918889E93e8c4357a2D4bCE0965dcC493FFFDA8",
        "100000000000000000000000"
      ],
      "transaction": {
        "from": "0x21af1185734d213d45c6236146fb81e2b0e8b821",
        "to": "0x3d2bd0e15829aa5c362a4144fdf4a1112fa29b5c",
        "gas": "0xf94b",
        "value": "0x0",
        "input": "0x095ea7b30000000000000000000000009918889e93e8c4357a2d4bce0965dcc493fffda800000000000000000000000000000000000000000000152d02c7e14af6800000",
        "nonce": "0x1d",
        "chainId": "0x13882"
      },
      "additionalContracts": [],
      "isFixedGasLimit": false
    },
    {
      "hash": "0x626ec62bd318bcd0ede96e72e6a0dfd47ef557a5757a6bb48d9c21c5aec53bc3",
      "transactionType": "CALL",
      "contractName": null,
      "contractAddress": "0x9918889e93e8c4357a2d4bce0965dcc493fffda8",
      "function": "send((uint32,bytes32,uint256,uint256,bytes,bytes,bytes),(uint256,uint256),address)",
      "arguments": [
        "(40245, 0x00000000000000000000000021af1185734d213d45c6236146fb81e2b0e8b821, 100000000000000000000000, 100000000000000000000000, 0x, 0x, 0x)",
        "(405107116136872328, 0)",
        "0x5b73C5498c1E3b4dbA84de0F1833c4a029d90519"
      ],
      "transaction": {
        "from": "0x21af1185734d213d45c6236146fb81e2b0e8b821",
        "to": "0x9918889e93e8c4357a2d4bce0965dcc493fffda8",
        "gas": "0x4f262",
        "value": "0x59f3ac699523988",
        "input": "0xc7c7f5b30000000000000000000000000000000000000000000000000000000000000080000000000000000000000000000000000000000000000000059f3ac69952398800000000000000000000000000000000000000000000000000000000000000000000000000000000000000005b73c5498c1e3b4dba84de0f1833c4a029d905190000000000000000000000000000000000000000000000000000000000009d3500000000000000000000000021af1185734d213d45c6236146fb81e2b0e8b82100000000000000000000000000000000000000000000152d02c7e14af680000000000000000000000000000000000000000000000000152d02c7e14af680000000000000000000000000000000000000000000000000000000000000000000e000000000000000000000000000000000000000000000000000000000000001000000000000000000000000000000000000000000000000000000000000000120000000000000000000000000000000000000000000000000000000000000000000000000000000000000000000000000000000000000000000000000000000000000000000000000000000000000000000000000000000000000000000000000",
        "nonce": "0x1e",
        "chainId": "0x13882"
      },
      "additionalContracts": [],
      "isFixedGasLimit": false
    }
  ],
  "receipts": [
    {
      "status": "0x1",
      "cumulativeGasUsed": "0xb47d",
      "logs": [
        {
          "address": "0x3d2bd0e15829aa5c362a4144fdf4a1112fa29b5c",
          "topics": [
            "0x8c5be1e5ebec7d5bd14f71427d1e84f3dd0314c0f7b2291e5b200ac8c7c3b925",
            "0x00000000000000000000000021af1185734d213d45c6236146fb81e2b0e8b821",
            "0x0000000000000000000000009918889e93e8c4357a2d4bce0965dcc493fffda8"
          ],
          "data": "0x00000000000000000000000000000000000000000000152d02c7e14af6800000",
          "blockHash": "0x2f7a48f81efe0224fc50334e429473d0bc502a9f10c589ce318cb608a053ceec",
          "blockNumber": "0xab98af",
          "transactionHash": "0x5d51b4ee902de1aff4c38eb126f36248eb7c628dc72a59b171803e82748392b2",
          "transactionIndex": "0x0",
          "logIndex": "0x0",
          "removed": false
        },
        {
          "address": "0x0000000000000000000000000000000000001010",
          "topics": [
            "0x4dfe1bbbcf077ddc3e01291eea2d5c70c2b422b415d95645b9adcfd678cb1d63",
            "0x0000000000000000000000000000000000000000000000000000000000001010",
            "0x00000000000000000000000021af1185734d213d45c6236146fb81e2b0e8b821",
            "0x0000000000000000000000006dc2dd54f24979ec26212794c71afefed722280c"
          ],
          "data": "0x0000000000000000000000000000000000000000000000000005becfe55f92ad000000000000000000000000000000000000000000000005617bba5e97363b170000000000000000000000000000000000000000000002afe26534e0d30200210000000000000000000000000000000000000000000000056175fb8eb1d6a86a0000000000000000000000000000000000000000000002afe26af3b0b86192ce",
          "blockHash": "0x2f7a48f81efe0224fc50334e429473d0bc502a9f10c589ce318cb608a053ceec",
          "blockNumber": "0xab98af",
          "transactionHash": "0x5d51b4ee902de1aff4c38eb126f36248eb7c628dc72a59b171803e82748392b2",
          "transactionIndex": "0x0",
          "logIndex": "0x1",
          "removed": false
        }
      ],
      "logsBloom": "0x40000000000000000000000000080000000000000000000000000000000000000000000000001000000000000000000000008000000000000000000000200000000000002000000000000000000000800000000000000000000100080000000000000020000000000000000000000000000000000000000080004000000000020000000000000000000000000040000000000000000000000000000000000000220000000000000008000000000000000000000000000000000080000000004000000000000000000001000000000000000000000000000000100000000000000012000000000000000000000000000000000000000000000000000000100000",
      "type": "0x2",
      "transactionHash": "0x5d51b4ee902de1aff4c38eb126f36248eb7c628dc72a59b171803e82748392b2",
      "transactionIndex": "0x0",
      "blockHash": "0x2f7a48f81efe0224fc50334e429473d0bc502a9f10c589ce318cb608a053ceec",
      "blockNumber": "0xab98af",
      "gasUsed": "0xb47d",
      "effectiveGasPrice": "0x826299e00",
      "from": "0x21af1185734d213d45c6236146fb81e2b0e8b821",
      "to": "0x3d2bd0e15829aa5c362a4144fdf4a1112fa29b5c",
      "contractAddress": null
    },
    {
      "status": "0x1",
      "cumulativeGasUsed": "0x44954",
      "logs": [
        {
          "address": "0x0000000000000000000000000000000000001010",
          "topics": [
            "0xe6497e3ee548a3372136af2fcb0696db31fc6cf20260707645068bd3fe97f3c4",
            "0x0000000000000000000000000000000000000000000000000000000000001010",
            "0x00000000000000000000000021af1185734d213d45c6236146fb81e2b0e8b821",
            "0x0000000000000000000000009918889e93e8c4357a2d4bce0965dcc493fffda8"
          ],
          "data": "0x000000000000000000000000000000000000000000000000059f3ac699523988000000000000000000000000000000000000000000000005614dabb64681991700000000000000000000000000000000000000000000000000000000000000000000000000000000000000000000000000000000000000055bae70efad2f5f8f000000000000000000000000000000000000000000000000059f3ac699523988",
          "blockHash": "0x2f7a48f81efe0224fc50334e429473d0bc502a9f10c589ce318cb608a053ceec",
          "blockNumber": "0xab98af",
          "transactionHash": "0x626ec62bd318bcd0ede96e72e6a0dfd47ef557a5757a6bb48d9c21c5aec53bc3",
          "transactionIndex": "0x1",
          "logIndex": "0x2",
          "removed": false
        },
        {
          "address": "0x3d2bd0e15829aa5c362a4144fdf4a1112fa29b5c",
          "topics": [
            "0xddf252ad1be2c89b69c2b068fc378daa952ba7f163c4a11628f55a4df523b3ef",
            "0x00000000000000000000000021af1185734d213d45c6236146fb81e2b0e8b821",
            "0x0000000000000000000000009918889e93e8c4357a2d4bce0965dcc493fffda8"
          ],
          "data": "0x00000000000000000000000000000000000000000000152d02c7e14af6800000",
          "blockHash": "0x2f7a48f81efe0224fc50334e429473d0bc502a9f10c589ce318cb608a053ceec",
          "blockNumber": "0xab98af",
          "transactionHash": "0x626ec62bd318bcd0ede96e72e6a0dfd47ef557a5757a6bb48d9c21c5aec53bc3",
          "transactionIndex": "0x1",
          "logIndex": "0x3",
          "removed": false
        },
        {
          "address": "0x0000000000000000000000000000000000001010",
          "topics": [
            "0xe6497e3ee548a3372136af2fcb0696db31fc6cf20260707645068bd3fe97f3c4",
            "0x0000000000000000000000000000000000000000000000000000000000001010",
            "0x0000000000000000000000009918889e93e8c4357a2d4bce0965dcc493fffda8",
            "0x0000000000000000000000006edce65403992e310a62460808c4b910d972f10f"
          ],
          "data": "0x000000000000000000000000000000000000000000000000059f3ac699523988000000000000000000000000000000000000000000000000059f3ac69952398800000000000000000000000000000000000000000000000000000000000000000000000000000000000000000000000000000000000000000000000000000000000000000000000000000000000000000000000000000000059f3ac699523988",
          "blockHash": "0x2f7a48f81efe0224fc50334e429473d0bc502a9f10c589ce318cb608a053ceec",
          "blockNumber": "0xab98af",
          "transactionHash": "0x626ec62bd318bcd0ede96e72e6a0dfd47ef557a5757a6bb48d9c21c5aec53bc3",
          "transactionIndex": "0x1",
          "logIndex": "0x4",
          "removed": false
        },
        {
          "address": "0x1d186c560281b8f1af831957ed5047fd3ab902f9",
          "topics": [
            "0x61ed099e74a97a1d7f8bb0952a88ca8b7b8ebd00c126ea04671f92a81213318a"
          ],
          "data": "0x0000000000000000000000004cf1b3fa61465c2c907f82fc488b43223ba0cf930000000000000000000000000000000000000000000000000559150c54647e96",
          "blockHash": "0x2f7a48f81efe0224fc50334e429473d0bc502a9f10c589ce318cb608a053ceec",
          "blockNumber": "0xab98af",
          "transactionHash": "0x626ec62bd318bcd0ede96e72e6a0dfd47ef557a5757a6bb48d9c21c5aec53bc3",
          "transactionIndex": "0x1",
          "logIndex": "0x5",
          "removed": false
        },
        {
          "address": "0x1d186c560281b8f1af831957ed5047fd3ab902f9",
          "topics": [
            "0x07ea52d82345d6e838192107d8fd7123d9c2ec8e916cd0aad13fd2b60db24644"
          ],
          "data": "0x000000000000000000000000000000000000000000000000000000000000006000000000000000000000000000000000000000000000000000000000000000a000000000000000000000000000000000000000000000000000000000000000c0000000000000000000000000000000000000000000000000000000000000000100000000000000000000000055c175dd5b039331db251424538169d8495c18d100000000000000000000000000000000000000000000000000000000000000000000000000000000000000000000000000000000000000000000000000000001000000000000000000000000000000000000000000000000004625ba44edbaf2",
          "blockHash": "0x2f7a48f81efe0224fc50334e429473d0bc502a9f10c589ce318cb608a053ceec",
          "blockNumber": "0xab98af",
          "transactionHash": "0x626ec62bd318bcd0ede96e72e6a0dfd47ef557a5757a6bb48d9c21c5aec53bc3",
          "transactionIndex": "0x1",
          "logIndex": "0x6",
          "removed": false
        },
        {
          "address": "0x6edce65403992e310a62460808c4b910d972f10f",
          "topics": [
            "0x1ab700d4ced0c005b164c0f789fd09fcbb0156d4c2041b8a3bfbcd961cd1567f"
          ],
          "data": "0x000000000000000000000000000000000000000000000000000000000000006000000000000000000000000000000000000000000000000000000000000001200000000000000000000000001d186c560281b8f1af831957ed5047fd3ab902f9000000000000000000000000000000000000000000000000000000000000009901000000000000000200009d4b0000000000000000000000009918889e93e8c4357a2d4bce0965dcc493fffda800009d350000000000000000000000003d2bd0e15829aa5c362a4144fdf4a1112fa29b5c5420e5454be622763dd6db49d171258b48c00a846f7169d1d39f7a9a55dd365e00000000000000000000000021af1185734d213d45c6236146fb81e2b0e8b821000000174876e8000000000000000000000000000000000000000000000000000000000000000000000000000000160003010011010000000000000000000000000000fde800000000000000000000",
          "blockHash": "0x2f7a48f81efe0224fc50334e429473d0bc502a9f10c589ce318cb608a053ceec",
          "blockNumber": "0xab98af",
          "transactionHash": "0x626ec62bd318bcd0ede96e72e6a0dfd47ef557a5757a6bb48d9c21c5aec53bc3",
          "transactionIndex": "0x1",
          "logIndex": "0x7",
          "removed": false
        },
        {
          "address": "0x0000000000000000000000000000000000001010",
          "topics": [
            "0xe6497e3ee548a3372136af2fcb0696db31fc6cf20260707645068bd3fe97f3c4",
            "0x0000000000000000000000000000000000000000000000000000000000001010",
            "0x0000000000000000000000006edce65403992e310a62460808c4b910d972f10f",
            "0x0000000000000000000000001d186c560281b8f1af831957ed5047fd3ab902f9"
          ],
          "data": "0x000000000000000000000000000000000000000000000000059f3ac699523988000000000000000000000000000000000000000000000000059f3ac6995239880000000000000000000000000000000000000000000000405c10fa0a9400f5a3000000000000000000000000000000000000000000000000000000000000000000000000000000000000000000000000000000000000004061b034d12d532f2b",
          "blockHash": "0x2f7a48f81efe0224fc50334e429473d0bc502a9f10c589ce318cb608a053ceec",
          "blockNumber": "0xab98af",
          "transactionHash": "0x626ec62bd318bcd0ede96e72e6a0dfd47ef557a5757a6bb48d9c21c5aec53bc3",
          "transactionIndex": "0x1",
          "logIndex": "0x8",
          "removed": false
        },
        {
          "address": "0x9918889e93e8c4357a2d4bce0965dcc493fffda8",
          "topics": [
            "0x85496b760a4b7f8d66384b9df21b381f5d1b1e79f229a47aaf4c232edc2fe59a",
            "0x5420e5454be622763dd6db49d171258b48c00a846f7169d1d39f7a9a55dd365e",
            "0x00000000000000000000000021af1185734d213d45c6236146fb81e2b0e8b821"
          ],
          "data": "0x0000000000000000000000000000000000000000000000000000000000009d3500000000000000000000000000000000000000000000152d02c7e14af680000000000000000000000000000000000000000000000000152d02c7e14af6800000",
          "blockHash": "0x2f7a48f81efe0224fc50334e429473d0bc502a9f10c589ce318cb608a053ceec",
          "blockNumber": "0xab98af",
          "transactionHash": "0x626ec62bd318bcd0ede96e72e6a0dfd47ef557a5757a6bb48d9c21c5aec53bc3",
          "transactionIndex": "0x1",
          "logIndex": "0x9",
          "removed": false
        },
        {
          "address": "0x0000000000000000000000000000000000001010",
          "topics": [
            "0x4dfe1bbbcf077ddc3e01291eea2d5c70c2b422b415d95645b9adcfd678cb1d63",
            "0x0000000000000000000000000000000000000000000000000000000000001010",
            "0x00000000000000000000000021af1185734d213d45c6236146fb81e2b0e8b821",
            "0x0000000000000000000000006dc2dd54f24979ec26212794c71afefed722280c"
          ],
          "data": "0x000000000000000000000000000000000000000000000000001d2f64f615f9670000000000000000000000000000000000000000000000056175fb8eb1cc15170000000000000000000000000000000000000000000002afe26af3b0b86192ce0000000000000000000000000000000000000000000000056158cc29bbb61bb00000000000000000000000000000000000000000000002afe2882315ae778c35",
          "blockHash": "0x2f7a48f81efe0224fc50334e429473d0bc502a9f10c589ce318cb608a053ceec",
          "blockNumber": "0xab98af",
          "transactionHash": "0x626ec62bd318bcd0ede96e72e6a0dfd47ef557a5757a6bb48d9c21c5aec53bc3",
          "transactionIndex": "0x1",
          "logIndex": "0xa",
          "removed": false
        }
      ],
      "logsBloom": "0x400000000000000000000000000800000000000000000000000000000000000000000000000010002000001000000000000080000000000000000000000040000000028020000000000000080000008000000000000000000001000800020000000000200000000082000010000000200000000000000000800040100000000200000000000000200000000800400000000000000000000000000400000000002000000080000000081000240000000000000800004000000004c0000000004000000002000000000001002080000000000000000008801200108000000000000002040000000000000000000000002008000000028000000000000000100000",
      "type": "0x2",
      "transactionHash": "0x626ec62bd318bcd0ede96e72e6a0dfd47ef557a5757a6bb48d9c21c5aec53bc3",
      "transactionIndex": "0x1",
      "blockHash": "0x2f7a48f81efe0224fc50334e429473d0bc502a9f10c589ce318cb608a053ceec",
      "blockNumber": "0xab98af",
      "gasUsed": "0x394d7",
      "effectiveGasPrice": "0x826299e00",
      "from": "0x21af1185734d213d45c6236146fb81e2b0e8b821",
      "to": "0x9918889e93e8c4357a2d4bce0965dcc493fffda8",
      "contractAddress": null
    }
  ],
  "libraries": [],
  "pending": [],
  "returns": {},
  "timestamp": 1724789903,
  "chain": 80002,
  "commit": "3f5ecff"
}