{
  "transactions": [
    {
      "hash": "0xb309e7dcf87157d3825c1388b975f02b1bef2712fec73b868e56ad7623f4ec58",
      "transactionType": "CALL",
      "contractName": null,
      "contractAddress": "0x3d2bd0e15829aa5c362a4144fdf4a1112fa29b5c",
      "function": "approve(address,uint256)",
      "arguments": [
        "0x9918889E93e8c4357a2D4bCE0965dcC493FFFDA8",
        "10000000000000000000000"
      ],
      "transaction": {
        "from": "0x21af1185734d213d45c6236146fb81e2b0e8b821",
        "to": "0x3d2bd0e15829aa5c362a4144fdf4a1112fa29b5c",
        "gas": "0xf94b",
        "value": "0x0",
        "input": "0x095ea7b30000000000000000000000009918889e93e8c4357a2d4bce0965dcc493fffda800000000000000000000000000000000000000000000021e19e0c9bab2400000",
        "nonce": "0x24",
        "chainId": "0x13882"
      },
      "additionalContracts": [],
      "isFixedGasLimit": false
    },
    {
      "hash": "0xa479f4dd3ef94ee9430a79bf831614e4800676b5e813056cb4b972668cd844bd",
      "transactionType": "CALL",
      "contractName": null,
      "contractAddress": "0x9918889e93e8c4357a2d4bce0965dcc493fffda8",
      "function": "send((uint32,bytes32,uint256,uint256,bytes,bytes,bytes),(uint256,uint256),address)",
      "arguments": [
        "(40305, 0x00000000000000000000000021af1185734d213d45c6236146fb81e2b0e8b821, 10000000000000000000000, 10000000000000000000000, 0x, 0x, 0x)",
        "(403799561589047416, 0)",
        "0x5b73C5498c1E3b4dbA84de0F1833c4a029d90519"
      ],
      "transaction": {
        "from": "0x21af1185734d213d45c6236146fb81e2b0e8b821",
        "to": "0x9918889e93e8c4357a2d4bce0965dcc493fffda8",
        "gas": "0x4f262",
        "value": "0x59a958fd4f94078",
        "input": "0xc7c7f5b30000000000000000000000000000000000000000000000000000000000000080000000000000000000000000000000000000000000000000059a958fd4f9407800000000000000000000000000000000000000000000000000000000000000000000000000000000000000005b73c5498c1e3b4dba84de0f1833c4a029d905190000000000000000000000000000000000000000000000000000000000009d7100000000000000000000000021af1185734d213d45c6236146fb81e2b0e8b82100000000000000000000000000000000000000000000021e19e0c9bab240000000000000000000000000000000000000000000000000021e19e0c9bab240000000000000000000000000000000000000000000000000000000000000000000e000000000000000000000000000000000000000000000000000000000000001000000000000000000000000000000000000000000000000000000000000000120000000000000000000000000000000000000000000000000000000000000000000000000000000000000000000000000000000000000000000000000000000000000000000000000000000000000000000000000000000000000000000000000",
        "nonce": "0x25",
        "chainId": "0x13882"
      },
      "additionalContracts": [],
      "isFixedGasLimit": false
    }
  ],
  "receipts": [
    {
      "status": "0x1",
      "cumulativeGasUsed": "0xb47d",
      "logs": [
        {
          "address": "0x3d2bd0e15829aa5c362a4144fdf4a1112fa29b5c",
          "topics": [
            "0x8c5be1e5ebec7d5bd14f71427d1e84f3dd0314c0f7b2291e5b200ac8c7c3b925",
            "0x00000000000000000000000021af1185734d213d45c6236146fb81e2b0e8b821",
            "0x0000000000000000000000009918889e93e8c4357a2d4bce0965dcc493fffda8"
          ],
          "data": "0x00000000000000000000000000000000000000000000021e19e0c9bab2400000",
          "blockHash": "0x8863c415af34290ba011681eb8c752065f9bc83a42fc646f23c782bdf02d28c5",
          "blockNumber": "0xab9ba4",
          "transactionHash": "0xb309e7dcf87157d3825c1388b975f02b1bef2712fec73b868e56ad7623f4ec58",
          "transactionIndex": "0x0",
          "logIndex": "0x0",
          "removed": false
        },
        {
          "address": "0x0000000000000000000000000000000000001010",
          "topics": [
            "0x4dfe1bbbcf077ddc3e01291eea2d5c70c2b422b415d95645b9adcfd678cb1d63",
            "0x0000000000000000000000000000000000000000000000000000000000001010",
            "0x00000000000000000000000021af1185734d213d45c6236146fb81e2b0e8b821",
            "0x00000000000000000000000004ba3ef4c023c1006019a0f9baf6e70455e41fcf"
          ],
          "data": "0x000000000000000000000000000000000000000000000000000483a358d36700000000000000000000000000000000000000000000000005503a3b5a53f90dfa00000000000000000000000000000000000000000000011b8d47f0189062434b0000000000000000000000000000000000000000000000055035b7b6fb25a6fa00000000000000000000000000000000000000000000011b8d4c73bbe935aa4b",
          "blockHash": "0x8863c415af34290ba011681eb8c752065f9bc83a42fc646f23c782bdf02d28c5",
          "blockNumber": "0xab9ba4",
          "transactionHash": "0xb309e7dcf87157d3825c1388b975f02b1bef2712fec73b868e56ad7623f4ec58",
          "transactionIndex": "0x0",
          "logIndex": "0x1",
          "removed": false
        }
      ],
      "logsBloom": "0x40000000000000000000000000080000000000000000000000000000000004000000000000001000000000000000000000008000000000000000000000200000000000002000000000000000000000800000000000000000000100000000000000000020000000000000000000000000000000000000000080004000000000000000000000004000000000000000000000000000000000000000000000000000220000000000000008000000000000000000000000000000000080000000004000000000000000000001000000000000000000000000000000100000000000000012000000000000000000000000000000000000000000000000000000100000",
      "type": "0x2",
      "transactionHash": "0xb309e7dcf87157d3825c1388b975f02b1bef2712fec73b868e56ad7623f4ec58",
      "transactionIndex": "0x0",
      "blockHash": "0x8863c415af34290ba011681eb8c752065f9bc83a42fc646f23c782bdf02d28c5",
      "blockNumber": "0xab9ba4",
      "gasUsed": "0xb47d",
      "effectiveGasPrice": "0x66720b30f",
      "from": "0x21af1185734d213d45c6236146fb81e2b0e8b821",
      "to": "0x3d2bd0e15829aa5c362a4144fdf4a1112fa29b5c",
      "contractAddress": null
    },
    {
      "status": "0x1",
      "cumulativeGasUsed": "0x44954",
      "logs": [
        {
          "address": "0x0000000000000000000000000000000000001010",
          "topics": [
            "0xe6497e3ee548a3372136af2fcb0696db31fc6cf20260707645068bd3fe97f3c4",
            "0x0000000000000000000000000000000000000000000000000000000000001010",
            "0x00000000000000000000000021af1185734d213d45c6236146fb81e2b0e8b821",
            "0x0000000000000000000000009918889e93e8c4357a2d4bce0965dcc493fffda8"
          ],
          "data": "0x000000000000000000000000000000000000000000000000059a958fd4f9407800000000000000000000000000000000000000000000000550160b43cb1659e900000000000000000000000000000000000000000000000000000000000000000000000000000000000000000000000000000000000000054a7b75b3f61d1971000000000000000000000000000000000000000000000000059a958fd4f94078",
          "blockHash": "0x8863c415af34290ba011681eb8c752065f9bc83a42fc646f23c782bdf02d28c5",
          "blockNumber": "0xab9ba4",
          "transactionHash": "0xa479f4dd3ef94ee9430a79bf831614e4800676b5e813056cb4b972668cd844bd",
          "transactionIndex": "0x1",
          "logIndex": "0x2",
          "removed": false
        },
        {
          "address": "0x3d2bd0e15829aa5c362a4144fdf4a1112fa29b5c",
          "topics": [
            "0xddf252ad1be2c89b69c2b068fc378daa952ba7f163c4a11628f55a4df523b3ef",
            "0x00000000000000000000000021af1185734d213d45c6236146fb81e2b0e8b821",
            "0x0000000000000000000000009918889e93e8c4357a2d4bce0965dcc493fffda8"
          ],
          "data": "0x00000000000000000000000000000000000000000000021e19e0c9bab2400000",
          "blockHash": "0x8863c415af34290ba011681eb8c752065f9bc83a42fc646f23c782bdf02d28c5",
          "blockNumber": "0xab9ba4",
          "transactionHash": "0xa479f4dd3ef94ee9430a79bf831614e4800676b5e813056cb4b972668cd844bd",
          "transactionIndex": "0x1",
          "logIndex": "0x3",
          "removed": false
        },
        {
          "address": "0x0000000000000000000000000000000000001010",
          "topics": [
            "0xe6497e3ee548a3372136af2fcb0696db31fc6cf20260707645068bd3fe97f3c4",
            "0x0000000000000000000000000000000000000000000000000000000000001010",
            "0x0000000000000000000000009918889e93e8c4357a2d4bce0965dcc493fffda8",
            "0x0000000000000000000000006edce65403992e310a62460808c4b910d972f10f"
          ],
          "data": "0x000000000000000000000000000000000000000000000000059a958fd4f94078000000000000000000000000000000000000000000000000059a958fd4f9407800000000000000000000000000000000000000000000000000000000000000000000000000000000000000000000000000000000000000000000000000000000000000000000000000000000000000000000000000000000059a958fd4f94078",
          "blockHash": "0x8863c415af34290ba011681eb8c752065f9bc83a42fc646f23c782bdf02d28c5",
          "blockNumber": "0xab9ba4",
          "transactionHash": "0xa479f4dd3ef94ee9430a79bf831614e4800676b5e813056cb4b972668cd844bd",
          "transactionIndex": "0x1",
          "logIndex": "0x4",
          "removed": false
        },
        {
          "address": "0x1d186c560281b8f1af831957ed5047fd3ab902f9",
          "topics": [
            "0x61ed099e74a97a1d7f8bb0952a88ca8b7b8ebd00c126ea04671f92a81213318a"
          ],
          "data": "0x0000000000000000000000004cf1b3fa61465c2c907f82fc488b43223ba0cf930000000000000000000000000000000000000000000000000556454c07c8cfb0",
          "blockHash": "0x8863c415af34290ba011681eb8c752065f9bc83a42fc646f23c782bdf02d28c5",
          "blockNumber": "0xab9ba4",
          "transactionHash": "0xa479f4dd3ef94ee9430a79bf831614e4800676b5e813056cb4b972668cd844bd",
          "transactionIndex": "0x1",
          "logIndex": "0x5",
          "removed": false
        },
        {
          "address": "0x1d186c560281b8f1af831957ed5047fd3ab902f9",
          "topics": [
            "0x07ea52d82345d6e838192107d8fd7123d9c2ec8e916cd0aad13fd2b60db24644"
          ],
          "data": "0x000000000000000000000000000000000000000000000000000000000000006000000000000000000000000000000000000000000000000000000000000000a000000000000000000000000000000000000000000000000000000000000000c0000000000000000000000000000000000000000000000000000000000000000100000000000000000000000055c175dd5b039331db251424538169d8495c18d10000000000000000000000000000000000000000000000000000000000000000000000000000000000000000000000000000000000000000000000000000000100000000000000000000000000000000000000000000000000445043cd3070c8",
          "blockHash": "0x8863c415af34290ba011681eb8c752065f9bc83a42fc646f23c782bdf02d28c5",
          "blockNumber": "0xab9ba4",
          "transactionHash": "0xa479f4dd3ef94ee9430a79bf831614e4800676b5e813056cb4b972668cd844bd",
          "transactionIndex": "0x1",
          "logIndex": "0x6",
          "removed": false
        },
        {
          "address": "0x6edce65403992e310a62460808c4b910d972f10f",
          "topics": [
            "0x1ab700d4ced0c005b164c0f789fd09fcbb0156d4c2041b8a3bfbcd961cd1567f"
          ],
          "data": "0x000000000000000000000000000000000000000000000000000000000000006000000000000000000000000000000000000000000000000000000000000001200000000000000000000000001d186c560281b8f1af831957ed5047fd3ab902f9000000000000000000000000000000000000000000000000000000000000009901000000000000000600009d4b0000000000000000000000009918889e93e8c4357a2d4bce0965dcc493fffda800009d71000000000000000000000000b0588f9a9cade7cd5f194a5fe77acd6a58250f82fc55ff489f8ec5ec179bb2ca16b05373d5a775f8996c07e880b420aac759924000000000000000000000000021af1185734d213d45c6236146fb81e2b0e8b82100000002540be4000000000000000000000000000000000000000000000000000000000000000000000000000000160003010011010000000000000000000000000001388000000000000000000000",
          "blockHash": "0x8863c415af34290ba011681eb8c752065f9bc83a42fc646f23c782bdf02d28c5",
          "blockNumber": "0xab9ba4",
          "transactionHash": "0xa479f4dd3ef94ee9430a79bf831614e4800676b5e813056cb4b972668cd844bd",
          "transactionIndex": "0x1",
          "logIndex": "0x7",
          "removed": false
        },
        {
          "address": "0x0000000000000000000000000000000000001010",
          "topics": [
            "0xe6497e3ee548a3372136af2fcb0696db31fc6cf20260707645068bd3fe97f3c4",
            "0x0000000000000000000000000000000000000000000000000000000000001010",
            "0x0000000000000000000000006edce65403992e310a62460808c4b910d972f10f",
            "0x0000000000000000000000001d186c560281b8f1af831957ed5047fd3ab902f9"
          ],
          "data": "0x000000000000000000000000000000000000000000000000059a958fd4f94078000000000000000000000000000000000000000000000000059a958fd4f940780000000000000000000000000000000000000000000000406ce55ff0d745b01b0000000000000000000000000000000000000000000000000000000000000000000000000000000000000000000000000000000000000040727ff580ac3ef093",
          "blockHash": "0x8863c415af34290ba011681eb8c752065f9bc83a42fc646f23c782bdf02d28c5",
          "blockNumber": "0xab9ba4",
          "transactionHash": "0xa479f4dd3ef94ee9430a79bf831614e4800676b5e813056cb4b972668cd844bd",
          "transactionIndex": "0x1",
          "logIndex": "0x8",
          "removed": false
        },
        {
          "address": "0x9918889e93e8c4357a2d4bce0965dcc493fffda8",
          "topics": [
            "0x85496b760a4b7f8d66384b9df21b381f5d1b1e79f229a47aaf4c232edc2fe59a",
            "0xfc55ff489f8ec5ec179bb2ca16b05373d5a775f8996c07e880b420aac7599240",
            "0x00000000000000000000000021af1185734d213d45c6236146fb81e2b0e8b821"
          ],
          "data": "0x0000000000000000000000000000000000000000000000000000000000009d7100000000000000000000000000000000000000000000021e19e0c9bab240000000000000000000000000000000000000000000000000021e19e0c9bab2400000",
          "blockHash": "0x8863c415af34290ba011681eb8c752065f9bc83a42fc646f23c782bdf02d28c5",
          "blockNumber": "0xab9ba4",
          "transactionHash": "0xa479f4dd3ef94ee9430a79bf831614e4800676b5e813056cb4b972668cd844bd",
          "transactionIndex": "0x1",
          "logIndex": "0x9",
          "removed": false
        },
        {
          "address": "0x0000000000000000000000000000000000001010",
          "topics": [
            "0x4dfe1bbbcf077ddc3e01291eea2d5c70c2b422b415d95645b9adcfd678cb1d63",
            "0x0000000000000000000000000000000000000000000000000000000000001010",
            "0x00000000000000000000000021af1185734d213d45c6236146fb81e2b0e8b821",
            "0x00000000000000000000000004ba3ef4c023c1006019a0f9baf6e70455e41fcf"
          ],
          "data": "0x0000000000000000000000000000000000000000000000000016ee619cf255000000000000000000000000000000000000000000000000055035b7b6fb1b13a700000000000000000000000000000000000000000000011b8d4c73bbe935aa4b000000000000000000000000000000000000000000000005501ec9555e28bea700000000000000000000000000000000000000000000011b8d63621d8627ff4b",
          "blockHash": "0x8863c415af34290ba011681eb8c752065f9bc83a42fc646f23c782bdf02d28c5",
          "blockNumber": "0xab9ba4",
          "transactionHash": "0xa479f4dd3ef94ee9430a79bf831614e4800676b5e813056cb4b972668cd844bd",
          "transactionIndex": "0x1",
          "logIndex": "0xa",
          "removed": false
        }
      ],
      "logsBloom": "0x400000000000000000000000000800000000000000000000000000000000040000000000000010002000001000000000000080000000000000000000000040000000028020000000000000080000008000000000000000000001100000020000000020200000000082000010000000000000000000000000800040100000000000000000000040200000000800000000000000000000000000040000000000002000000080000000081000240000000000000800004000000004c0000000004000000002000000000001002080000000000000000008801200108000000000000002040000000000000000000000002008000000008000000000000000100000",
      "type": "0x2",
      "transactionHash": "0xa479f4dd3ef94ee9430a79bf831614e4800676b5e813056cb4b972668cd844bd",
      "transactionIndex": "0x1",
      "blockHash": "0x8863c415af34290ba011681eb8c752065f9bc83a42fc646f23c782bdf02d28c5",
      "blockNumber": "0xab9ba4",
      "gasUsed": "0x394d7",
      "effectiveGasPrice": "0x66720b30f",
      "from": "0x21af1185734d213d45c6236146fb81e2b0e8b821",
      "to": "0x9918889e93e8c4357a2d4bce0965dcc493fffda8",
      "contractAddress": null
    }
  ],
  "libraries": [],
  "pending": [],
  "returns": {},
  "timestamp": 1724791514,
  "chain": 80002,
  "commit": "3f5ecff"
}