{
  "transactions": [
    {
      "hash": "0xf1c552726f61b9144783fc04b889f2d28cdf56639a3fe62a8a3a985c6b752968",
      "transactionType": "CALL",
      "contractName": null,
      "contractAddress": "0x3d2bd0e15829aa5c362a4144fdf4a1112fa29b5c",
      "function": "approve(address,uint256)",
      "arguments": [
        "0x9918889E93e8c4357a2D4bCE0965dcC493FFFDA8",
        "50000000000000000000"
      ],
      "transaction": {
        "from": "0x21af1185734d213d45c6236146fb81e2b0e8b821",
        "to": "0x3d2bd0e15829aa5c362a4144fdf4a1112fa29b5c",
        "gas": "0x107e5",
        "value": "0x0",
        "input": "0x095ea7b30000000000000000000000009918889e93e8c4357a2d4bce0965dcc493fffda8000000000000000000000000000000000000000000000002b5e3af16b1880000",
        "nonce": "0x62",
        "chainId": "0x13882"
      },
      "additionalContracts": [],
      "isFixedGasLimit": false
    },
    {
      "hash": "0xef8d598f710618859e3b8e0ea098f71c2b8ce403e444b83c511d3123cfc5f780",
      "transactionType": "CALL",
      "contractName": null,
      "contractAddress": "0x9918889e93e8c4357a2d4bce0965dcc493fffda8",
      "function": "send((uint32,bytes32,uint256,uint256,bytes,bytes,bytes),(uint256,uint256),address)",
      "arguments": [
        "(40245, 0x00000000000000000000000021af1185734d213d45c6236146fb81e2b0e8b821, 50000000000000000000, 50000000000000000000, 0x, 0x, 0x)",
        "(501504526185555657, 0)",
        "0x5b73C5498c1E3b4dbA84de0F1833c4a029d90519"
      ],
      "transaction": {
        "from": "0x21af1185734d213d45c6236146fb81e2b0e8b821",
        "to": "0x9918889e93e8c4357a2d4bce0965dcc493fffda8",
        "gas": "0x4f240",
        "value": "0x6f5b3b5a08a66c9",
        "input": "0xc7c7f5b3000000000000000000000000000000000000000000000000000000000000008000000000000000000000000000000000000000000000000006f5b3b5a08a66c900000000000000000000000000000000000000000000000000000000000000000000000000000000000000005b73c5498c1e3b4dba84de0f1833c4a029d905190000000000000000000000000000000000000000000000000000000000009d3500000000000000000000000021af1185734d213d45c6236146fb81e2b0e8b821000000000000000000000000000000000000000000000002b5e3af16b1880000000000000000000000000000000000000000000000000002b5e3af16b188000000000000000000000000000000000000000000000000000000000000000000e000000000000000000000000000000000000000000000000000000000000001000000000000000000000000000000000000000000000000000000000000000120000000000000000000000000000000000000000000000000000000000000000000000000000000000000000000000000000000000000000000000000000000000000000000000000000000000000000000000000000000000000000000000000",
        "nonce": "0x63",
        "chainId": "0x13882"
      },
      "additionalContracts": [],
      "isFixedGasLimit": false
    },
    {
      "hash": "0xe9b9a8aeddb55a41f2b42e9584360b70b662e38bdeac34d118a17a48085c4d33",
      "transactionType": "CALL",
      "contractName": null,
      "contractAddress": "0x3d2bd0e15829aa5c362a4144fdf4a1112fa29b5c",
      "function": "approve(address,uint256)",
      "arguments": [
        "0x9918889E93e8c4357a2D4bCE0965dcC493FFFDA8",
        "100000000000000000000"
      ],
      "transaction": {
        "from": "0x21af1185734d213d45c6236146fb81e2b0e8b821",
        "to": "0x3d2bd0e15829aa5c362a4144fdf4a1112fa29b5c",
        "gas": "0x107e5",
        "value": "0x0",
        "input": "0x095ea7b30000000000000000000000009918889e93e8c4357a2d4bce0965dcc493fffda80000000000000000000000000000000000000000000000056bc75e2d63100000",
        "nonce": "0x64",
        "chainId": "0x13882"
      },
      "additionalContracts": [],
      "isFixedGasLimit": false
    },
    {
      "hash": "0xabe669c7d09afd685b1ed225bee3c79c7f02abf11df6ea12d4613d7d81ed2920",
      "transactionType": "CALL",
      "contractName": null,
      "contractAddress": "0x9918889e93e8c4357a2d4bce0965dcc493fffda8",
      "function": "send((uint32,bytes32,uint256,uint256,bytes,bytes,bytes),(uint256,uint256),address)",
      "arguments": [
        "(40245, 0x00000000000000000000000021af1185734d213d45c6236146fb81e2b0e8b821, 100000000000000000000, 100000000000000000000, 0x, 0x, 0x)",
        "(501504526185555657, 0)",
        "0x5b73C5498c1E3b4dbA84de0F1833c4a029d90519"
      ],
      "transaction": {
        "from": "0x21af1185734d213d45c6236146fb81e2b0e8b821",
        "to": "0x9918889e93e8c4357a2d4bce0965dcc493fffda8",
        "gas": "0x4f240",
        "value": "0x6f5b3b5a08a66c9",
        "input": "0xc7c7f5b3000000000000000000000000000000000000000000000000000000000000008000000000000000000000000000000000000000000000000006f5b3b5a08a66c900000000000000000000000000000000000000000000000000000000000000000000000000000000000000005b73c5498c1e3b4dba84de0f1833c4a029d905190000000000000000000000000000000000000000000000000000000000009d3500000000000000000000000021af1185734d213d45c6236146fb81e2b0e8b8210000000000000000000000000000000000000000000000056bc75e2d631000000000000000000000000000000000000000000000000000056bc75e2d6310000000000000000000000000000000000000000000000000000000000000000000e000000000000000000000000000000000000000000000000000000000000001000000000000000000000000000000000000000000000000000000000000000120000000000000000000000000000000000000000000000000000000000000000000000000000000000000000000000000000000000000000000000000000000000000000000000000000000000000000000000000000000000000000000000000",
        "nonce": "0x65",
        "chainId": "0x13882"
      },
      "additionalContracts": [],
      "isFixedGasLimit": false
    },
    {
      "hash": "0x5f4f0bda08c3e243f2127197a0111e523101e6a5572cb2adbd841aaa9f35308c",
      "transactionType": "CALL",
      "contractName": null,
      "contractAddress": "0x3d2bd0e15829aa5c362a4144fdf4a1112fa29b5c",
      "function": "approve(address,uint256)",
      "arguments": [
        "0x9918889E93e8c4357a2D4bCE0965dcC493FFFDA8",
        "1000000000000000000000"
      ],
      "transaction": {
        "from": "0x21af1185734d213d45c6236146fb81e2b0e8b821",
        "to": "0x3d2bd0e15829aa5c362a4144fdf4a1112fa29b5c",
        "gas": "0x107e5",
        "value": "0x0",
        "input": "0x095ea7b30000000000000000000000009918889e93e8c4357a2d4bce0965dcc493fffda800000000000000000000000000000000000000000000003635c9adc5dea00000",
        "nonce": "0x66",
        "chainId": "0x13882"
      },
      "additionalContracts": [],
      "isFixedGasLimit": false
    },
    {
      "hash": "0x407b27821cb1e6ac24694ed781463526b3d26c35563dd7e2574e0767056780ad",
      "transactionType": "CALL",
      "contractName": null,
      "contractAddress": "0x9918889e93e8c4357a2d4bce0965dcc493fffda8",
      "function": "send((uint32,bytes32,uint256,uint256,bytes,bytes,bytes),(uint256,uint256),address)",
      "arguments": [
        "(40245, 0x00000000000000000000000021af1185734d213d45c6236146fb81e2b0e8b821, 1000000000000000000000, 1000000000000000000000, 0x, 0x, 0x)",
        "(501504526185555657, 0)",
        "0x5b73C5498c1E3b4dbA84de0F1833c4a029d90519"
      ],
      "transaction": {
        "from": "0x21af1185734d213d45c6236146fb81e2b0e8b821",
        "to": "0x9918889e93e8c4357a2d4bce0965dcc493fffda8",
        "gas": "0x4f240",
        "value": "0x6f5b3b5a08a66c9",
        "input": "0xc7c7f5b3000000000000000000000000000000000000000000000000000000000000008000000000000000000000000000000000000000000000000006f5b3b5a08a66c900000000000000000000000000000000000000000000000000000000000000000000000000000000000000005b73c5498c1e3b4dba84de0f1833c4a029d905190000000000000000000000000000000000000000000000000000000000009d3500000000000000000000000021af1185734d213d45c6236146fb81e2b0e8b82100000000000000000000000000000000000000000000003635c9adc5dea0000000000000000000000000000000000000000000000000003635c9adc5dea0000000000000000000000000000000000000000000000000000000000000000000e000000000000000000000000000000000000000000000000000000000000001000000000000000000000000000000000000000000000000000000000000000120000000000000000000000000000000000000000000000000000000000000000000000000000000000000000000000000000000000000000000000000000000000000000000000000000000000000000000000000000000000000000000000000",
        "nonce": "0x67",
        "chainId": "0x13882"
      },
      "additionalContracts": [],
      "isFixedGasLimit": false
    },
    {
      "hash": "0x0fa79b28629d544c8c86f0e72a76c37082351423bfa09907227e154350c481f7",
      "transactionType": "CALL",
      "contractName": null,
      "contractAddress": "0x3d2bd0e15829aa5c362a4144fdf4a1112fa29b5c",
      "function": "approve(address,uint256)",
      "arguments": [
        "0x9918889E93e8c4357a2D4bCE0965dcC493FFFDA8",
        "10000000000000000000000"
      ],
      "transaction": {
        "from": "0x21af1185734d213d45c6236146fb81e2b0e8b821",
        "to": "0x3d2bd0e15829aa5c362a4144fdf4a1112fa29b5c",
        "gas": "0xf94b",
        "value": "0x0",
        "input": "0x095ea7b30000000000000000000000009918889e93e8c4357a2d4bce0965dcc493fffda800000000000000000000000000000000000000000000021e19e0c9bab2400000",
        "nonce": "0x68",
        "chainId": "0x13882"
      },
      "additionalContracts": [],
      "isFixedGasLimit": false
    },
    {
      "hash": "0xe9647224d80ea1466da2bea6e023755280375e53a51025a62911b66eb851374b",
      "transactionType": "CALL",
      "contractName": null,
      "contractAddress": "0x9918889e93e8c4357a2d4bce0965dcc493fffda8",
      "function": "send((uint32,bytes32,uint256,uint256,bytes,bytes,bytes),(uint256,uint256),address)",
      "arguments": [
        "(40245, 0x00000000000000000000000021af1185734d213d45c6236146fb81e2b0e8b821, 10000000000000000000000, 10000000000000000000000, 0x, 0x, 0x)",
        "(501504526185555657, 0)",
        "0x5b73C5498c1E3b4dbA84de0F1833c4a029d90519"
      ],
      "transaction": {
        "from": "0x21af1185734d213d45c6236146fb81e2b0e8b821",
        "to": "0x9918889e93e8c4357a2d4bce0965dcc493fffda8",
        "gas": "0x4f262",
        "value": "0x6f5b3b5a08a66c9",
        "input": "0xc7c7f5b3000000000000000000000000000000000000000000000000000000000000008000000000000000000000000000000000000000000000000006f5b3b5a08a66c900000000000000000000000000000000000000000000000000000000000000000000000000000000000000005b73c5498c1e3b4dba84de0f1833c4a029d905190000000000000000000000000000000000000000000000000000000000009d3500000000000000000000000021af1185734d213d45c6236146fb81e2b0e8b82100000000000000000000000000000000000000000000021e19e0c9bab240000000000000000000000000000000000000000000000000021e19e0c9bab240000000000000000000000000000000000000000000000000000000000000000000e000000000000000000000000000000000000000000000000000000000000001000000000000000000000000000000000000000000000000000000000000000120000000000000000000000000000000000000000000000000000000000000000000000000000000000000000000000000000000000000000000000000000000000000000000000000000000000000000000000000000000000000000000000000",
        "nonce": "0x69",
        "chainId": "0x13882"
      },
      "additionalContracts": [],
      "isFixedGasLimit": false
    },
    {
      "hash": "0x357f7b33dff87c9bc3655f8ffe2cc8adda00e7128366430f5a1750cd1ffb8a2d",
      "transactionType": "CALL",
      "contractName": null,
      "contractAddress": "0x3d2bd0e15829aa5c362a4144fdf4a1112fa29b5c",
      "function": "approve(address,uint256)",
      "arguments": [
        "0x9918889E93e8c4357a2D4bCE0965dcC493FFFDA8",
        "100000000000000000000000"
      ],
      "transaction": {
        "from": "0x21af1185734d213d45c6236146fb81e2b0e8b821",
        "to": "0x3d2bd0e15829aa5c362a4144fdf4a1112fa29b5c",
        "gas": "0xf94b",
        "value": "0x0",
        "input": "0x095ea7b30000000000000000000000009918889e93e8c4357a2d4bce0965dcc493fffda800000000000000000000000000000000000000000000152d02c7e14af6800000",
        "nonce": "0x6a",
        "chainId": "0x13882"
      },
      "additionalContracts": [],
      "isFixedGasLimit": false
    },
    {
      "hash": "0x13d0d22c2eadd954df99310b99ab95e4c17ff538ebdda39a8e57a96835d27e38",
      "transactionType": "CALL",
      "contractName": null,
      "contractAddress": "0x9918889e93e8c4357a2d4bce0965dcc493fffda8",
      "function": "send((uint32,bytes32,uint256,uint256,bytes,bytes,bytes),(uint256,uint256),address)",
      "arguments": [
        "(40245, 0x00000000000000000000000021af1185734d213d45c6236146fb81e2b0e8b821, 100000000000000000000000, 100000000000000000000000, 0x, 0x, 0x)",
        "(501504526185555657, 0)",
        "0x5b73C5498c1E3b4dbA84de0F1833c4a029d90519"
      ],
      "transaction": {
        "from": "0x21af1185734d213d45c6236146fb81e2b0e8b821",
        "to": "0x9918889e93e8c4357a2d4bce0965dcc493fffda8",
        "gas": "0x4f262",
        "value": "0x6f5b3b5a08a66c9",
        "input": "0xc7c7f5b3000000000000000000000000000000000000000000000000000000000000008000000000000000000000000000000000000000000000000006f5b3b5a08a66c900000000000000000000000000000000000000000000000000000000000000000000000000000000000000005b73c5498c1e3b4dba84de0f1833c4a029d905190000000000000000000000000000000000000000000000000000000000009d3500000000000000000000000021af1185734d213d45c6236146fb81e2b0e8b82100000000000000000000000000000000000000000000152d02c7e14af680000000000000000000000000000000000000000000000000152d02c7e14af680000000000000000000000000000000000000000000000000000000000000000000e000000000000000000000000000000000000000000000000000000000000001000000000000000000000000000000000000000000000000000000000000000120000000000000000000000000000000000000000000000000000000000000000000000000000000000000000000000000000000000000000000000000000000000000000000000000000000000000000000000000000000000000000000000000",
        "nonce": "0x6b",
        "chainId": "0x13882"
      },
      "additionalContracts": [],
      "isFixedGasLimit": false
    },
    {
      "hash": "0x6623e2480bd8a9e721ca63763a061cb2ffc0a481061574ce06b7d2a32ee8b60d",
      "transactionType": "CALL",
      "contractName": null,
      "contractAddress": "0x3d2bd0e15829aa5c362a4144fdf4a1112fa29b5c",
      "function": "approve(address,uint256)",
      "arguments": [
        "0x9918889E93e8c4357a2D4bCE0965dcC493FFFDA8",
        "200000000000000000000000"
      ],
      "transaction": {
        "from": "0x21af1185734d213d45c6236146fb81e2b0e8b821",
        "to": "0x3d2bd0e15829aa5c362a4144fdf4a1112fa29b5c",
        "gas": "0x107e5",
        "value": "0x0",
        "input": "0x095ea7b30000000000000000000000009918889e93e8c4357a2d4bce0965dcc493fffda8000000000000000000000000000000000000000000002a5a058fc295ed000000",
        "nonce": "0x6c",
        "chainId": "0x13882"
      },
      "additionalContracts": [],
      "isFixedGasLimit": false
    },
    {
      "hash": "0xde3ae9e6aef22e2c41bb27e8c0c5d4e5c79bbaf5e0240afebe59d552f7f371de",
      "transactionType": "CALL",
      "contractName": null,
      "contractAddress": "0x9918889e93e8c4357a2d4bce0965dcc493fffda8",
      "function": "send((uint32,bytes32,uint256,uint256,bytes,bytes,bytes),(uint256,uint256),address)",
      "arguments": [
        "(40245, 0x00000000000000000000000021af1185734d213d45c6236146fb81e2b0e8b821, 200000000000000000000000, 200000000000000000000000, 0x, 0x, 0x)",
        "(501504526185555657, 0)",
        "0x5b73C5498c1E3b4dbA84de0F1833c4a029d90519"
      ],
      "transaction": {
        "from": "0x21af1185734d213d45c6236146fb81e2b0e8b821",
        "to": "0x9918889e93e8c4357a2d4bce0965dcc493fffda8",
        "gas": "0x4f240",
        "value": "0x6f5b3b5a08a66c9",
        "input": "0xc7c7f5b3000000000000000000000000000000000000000000000000000000000000008000000000000000000000000000000000000000000000000006f5b3b5a08a66c900000000000000000000000000000000000000000000000000000000000000000000000000000000000000005b73c5498c1e3b4dba84de0f1833c4a029d905190000000000000000000000000000000000000000000000000000000000009d3500000000000000000000000021af1185734d213d45c6236146fb81e2b0e8b821000000000000000000000000000000000000000000002a5a058fc295ed000000000000000000000000000000000000000000000000002a5a058fc295ed00000000000000000000000000000000000000000000000000000000000000000000e000000000000000000000000000000000000000000000000000000000000001000000000000000000000000000000000000000000000000000000000000000120000000000000000000000000000000000000000000000000000000000000000000000000000000000000000000000000000000000000000000000000000000000000000000000000000000000000000000000000000000000000000000000000",
        "nonce": "0x6d",
        "chainId": "0x13882"
      },
      "additionalContracts": [],
      "isFixedGasLimit": false
    }
  ],
  "receipts": [
    {
      "status": "0x1",
      "cumulativeGasUsed": "0xb471",
      "logs": [
        {
          "address": "0x3d2bd0e15829aa5c362a4144fdf4a1112fa29b5c",
          "topics": [
            "0x8c5be1e5ebec7d5bd14f71427d1e84f3dd0314c0f7b2291e5b200ac8c7c3b925",
            "0x00000000000000000000000021af1185734d213d45c6236146fb81e2b0e8b821",
            "0x0000000000000000000000009918889e93e8c4357a2d4bce0965dcc493fffda8"
          ],
          "data": "0x000000000000000000000000000000000000000000000002b5e3af16b1880000",
          "blockHash": "0x6b36c11ff90deafa2e0f83b5fdb1e47d9377ab3b50271b26d5939bcbde1bef75",
          "blockNumber": "0xb5fcaa",
          "transactionHash": "0xf1c552726f61b9144783fc04b889f2d28cdf56639a3fe62a8a3a985c6b752968",
          "transactionIndex": "0x0",
          "logIndex": "0x0",
          "removed": false
        },
        {
          "address": "0x0000000000000000000000000000000000001010",
          "topics": [
            "0x4dfe1bbbcf077ddc3e01291eea2d5c70c2b422b415d95645b9adcfd678cb1d63",
            "0x0000000000000000000000000000000000000000000000000000000000001010",
            "0x00000000000000000000000021af1185734d213d45c6236146fb81e2b0e8b821",
            "0x00000000000000000000000022b64229c41429a023549fdab3385893b579327a"
          ],
          "data": "0x000000000000000000000000000000000000000000000000000620f2eca9f64000000000000000000000000000000000000000000000000420f2d8a43e42a0e50000000000000000000000000000000000000000000000d64eaed6dcc42034fa00000000000000000000000000000000000000000000000420ecb7b15198aaa50000000000000000000000000000000000000000000000d64eb4f7cfb0ca2b3a",
          "blockHash": "0x6b36c11ff90deafa2e0f83b5fdb1e47d9377ab3b50271b26d5939bcbde1bef75",
          "blockNumber": "0xb5fcaa",
          "transactionHash": "0xf1c552726f61b9144783fc04b889f2d28cdf56639a3fe62a8a3a985c6b752968",
          "transactionIndex": "0x0",
          "logIndex": "0x1",
          "removed": false
        }
      ],
      "logsBloom": "0x40000000000000000000000000080000000000000000000000000000000000000000000000001000000000000000000000008000000000000000000000200000000000002000000000000000000000800000000000000000000100000000000000000020000000000000000000000000000000000000000080004000000000000000000000200000000000000000000000000000000000000000010000000000220000000000000008000000000000000000000000000000000080002000004000000000000000000001000000000000000000000000000000100000000000000012000000000000000000000000000000000000000000000000000000100000",
      "type": "0x2",
      "transactionHash": "0xf1c552726f61b9144783fc04b889f2d28cdf56639a3fe62a8a3a985c6b752968",
      "transactionIndex": "0x0",
      "blockHash": "0x6b36c11ff90deafa2e0f83b5fdb1e47d9377ab3b50271b26d5939bcbde1bef75",
      "blockNumber": "0xb5fcaa",
      "gasUsed": "0xb471",
      "effectiveGasPrice": "0x8b1ef7a4f",
      "from": "0x21af1185734d213d45c6236146fb81e2b0e8b821",
      "to": "0x3d2bd0e15829aa5c362a4144fdf4a1112fa29b5c",
      "contractAddress": null
    },
    {
      "status": "0x1",
      "cumulativeGasUsed": "0x3b9e5",
      "logs": [
        {
          "address": "0x0000000000000000000000000000000000001010",
          "topics": [
            "0xe6497e3ee548a3372136af2fcb0696db31fc6cf20260707645068bd3fe97f3c4",
            "0x0000000000000000000000000000000000000000000000000000000000001010",
            "0x00000000000000000000000021af1185734d213d45c6236146fb81e2b0e8b821",
            "0x0000000000000000000000009918889e93e8c4357a2d4bce0965dcc493fffda8"
          ],
          "data": "0x00000000000000000000000000000000000000000000000006f5b3b5a08a66c900000000000000000000000000000000000000000000000420c1b5928ad4d646000000000000000000000000000000000000000000000000000000000000000000000000000000000000000000000000000000000000000419cc01dcea4a6f7d00000000000000000000000000000000000000000000000006f5b3b5a08a66c9",
          "blockHash": "0x1504f86ac03b36f58f6bc503c1d4dc550cf5d4bbf4348375f3bd3ca9815f8633",
          "blockNumber": "0xb5fcab",
          "transactionHash": "0xef8d598f710618859e3b8e0ea098f71c2b8ce403e444b83c511d3123cfc5f780",
          "transactionIndex": "0x0",
          "logIndex": "0x0",
          "removed": false
        },
        {
          "address": "0x3d2bd0e15829aa5c362a4144fdf4a1112fa29b5c",
          "topics": [
            "0xddf252ad1be2c89b69c2b068fc378daa952ba7f163c4a11628f55a4df523b3ef",
            "0x00000000000000000000000021af1185734d213d45c6236146fb81e2b0e8b821",
            "0x0000000000000000000000009918889e93e8c4357a2d4bce0965dcc493fffda8"
          ],
          "data": "0x000000000000000000000000000000000000000000000002b5e3af16b1880000",
          "blockHash": "0x1504f86ac03b36f58f6bc503c1d4dc550cf5d4bbf4348375f3bd3ca9815f8633",
          "blockNumber": "0xb5fcab",
          "transactionHash": "0xef8d598f710618859e3b8e0ea098f71c2b8ce403e444b83c511d3123cfc5f780",
          "transactionIndex": "0x0",
          "logIndex": "0x1",
          "removed": false
        },
        {
          "address": "0x0000000000000000000000000000000000001010",
          "topics": [
            "0xe6497e3ee548a3372136af2fcb0696db31fc6cf20260707645068bd3fe97f3c4",
            "0x0000000000000000000000000000000000000000000000000000000000001010",
            "0x0000000000000000000000009918889e93e8c4357a2d4bce0965dcc493fffda8",
            "0x0000000000000000000000006edce65403992e310a62460808c4b910d972f10f"
          ],
          "data": "0x00000000000000000000000000000000000000000000000006f5b3b5a08a66c900000000000000000000000000000000000000000000000006f5b3b5a08a66c90000000000000000000000000000000000000000000000000000000000000000000000000000000000000000000000000000000000000000000000000000000000000000000000000000000000000000000000000000000006f5b3b5a08a66c9",
          "blockHash": "0x1504f86ac03b36f58f6bc503c1d4dc550cf5d4bbf4348375f3bd3ca9815f8633",
          "blockNumber": "0xb5fcab",
          "transactionHash": "0xef8d598f710618859e3b8e0ea098f71c2b8ce403e444b83c511d3123cfc5f780",
          "transactionIndex": "0x0",
          "logIndex": "0x2",
          "removed": false
        },
        {
          "address": "0x1d186c560281b8f1af831957ed5047fd3ab902f9",
          "topics": [
            "0x61ed099e74a97a1d7f8bb0952a88ca8b7b8ebd00c126ea04671f92a81213318a"
          ],
          "data": "0x0000000000000000000000004cf1b3fa61465c2c907f82fc488b43223ba0cf93000000000000000000000000000000000000000000000000069cd5a31cfe69f7",
          "blockHash": "0x1504f86ac03b36f58f6bc503c1d4dc550cf5d4bbf4348375f3bd3ca9815f8633",
          "blockNumber": "0xb5fcab",
          "transactionHash": "0xef8d598f710618859e3b8e0ea098f71c2b8ce403e444b83c511d3123cfc5f780",
          "transactionIndex": "0x0",
          "logIndex": "0x3",
          "removed": false
        },
        {
          "address": "0x1d186c560281b8f1af831957ed5047fd3ab902f9",
          "topics": [
            "0x07ea52d82345d6e838192107d8fd7123d9c2ec8e916cd0aad13fd2b60db24644"
          ],
          "data": "0x000000000000000000000000000000000000000000000000000000000000006000000000000000000000000000000000000000000000000000000000000000a000000000000000000000000000000000000000000000000000000000000000c0000000000000000000000000000000000000000000000000000000000000000100000000000000000000000055c175dd5b039331db251424538169d8495c18d1000000000000000000000000000000000000000000000000000000000000000000000000000000000000000000000000000000000000000000000000000000010000000000000000000000000000000000000000000000000058034f37465c78",
          "blockHash": "0x1504f86ac03b36f58f6bc503c1d4dc550cf5d4bbf4348375f3bd3ca9815f8633",
          "blockNumber": "0xb5fcab",
          "transactionHash": "0xef8d598f710618859e3b8e0ea098f71c2b8ce403e444b83c511d3123cfc5f780",
          "transactionIndex": "0x0",
          "logIndex": "0x4",
          "removed": false
        },
        {
          "address": "0x6edce65403992e310a62460808c4b910d972f10f",
          "topics": [
            "0x1ab700d4ced0c005b164c0f789fd09fcbb0156d4c2041b8a3bfbcd961cd1567f"
          ],
          "data": "0x000000000000000000000000000000000000000000000000000000000000006000000000000000000000000000000000000000000000000000000000000001200000000000000000000000001d186c560281b8f1af831957ed5047fd3ab902f9000000000000000000000000000000000000000000000000000000000000009901000000000000001700009d4b0000000000000000000000009918889e93e8c4357a2d4bce0965dcc493fffda800009d350000000000000000000000003d2bd0e15829aa5c362a4144fdf4a1112fa29b5c49cb7cd2786522de4a902e8f9577f93f8875b9ed2e6628413ff24331c2c392ad00000000000000000000000021af1185734d213d45c6236146fb81e2b0e8b8210000000002faf0800000000000000000000000000000000000000000000000000000000000000000000000000000160003010011010000000000000000000000000001388000000000000000000000",
          "blockHash": "0x1504f86ac03b36f58f6bc503c1d4dc550cf5d4bbf4348375f3bd3ca9815f8633",
          "blockNumber": "0xb5fcab",
          "transactionHash": "0xef8d598f710618859e3b8e0ea098f71c2b8ce403e444b83c511d3123cfc5f780",
          "transactionIndex": "0x0",
          "logIndex": "0x5",
          "removed": false
        },
        {
          "address": "0x0000000000000000000000000000000000001010",
          "topics": [
            "0xe6497e3ee548a3372136af2fcb0696db31fc6cf20260707645068bd3fe97f3c4",
            "0x0000000000000000000000000000000000000000000000000000000000001010",
            "0x0000000000000000000000006edce65403992e310a62460808c4b910d972f10f",
            "0x0000000000000000000000001d186c560281b8f1af831957ed5047fd3ab902f9"
          ],
          "data": "0x00000000000000000000000000000000000000000000000006f4d8f25444c66f00000000000000000000000000000000000000000000000006f5b3b5a08a66c90000000000000000000000000000000000000000000000464e3d3a39188995a80000000000000000000000000000000000000000000000000000dac34c45a05a0000000000000000000000000000000000000000000000465532132b6cce5c17",
          "blockHash": "0x1504f86ac03b36f58f6bc503c1d4dc550cf5d4bbf4348375f3bd3ca9815f8633",
          "blockNumber": "0xb5fcab",
          "transactionHash": "0xef8d598f710618859e3b8e0ea098f71c2b8ce403e444b83c511d3123cfc5f780",
          "transactionIndex": "0x0",
          "logIndex": "0x6",
          "removed": false
        },
        {
          "address": "0x0000000000000000000000000000000000001010",
          "topics": [
            "0xe6497e3ee548a3372136af2fcb0696db31fc6cf20260707645068bd3fe97f3c4",
            "0x0000000000000000000000000000000000000000000000000000000000001010",
            "0x0000000000000000000000006edce65403992e310a62460808c4b910d972f10f",
            "0x0000000000000000000000005b73c5498c1e3b4dba84de0f1833c4a029d90519"
          ],
          "data": "0x0000000000000000000000000000000000000000000000000000dac34c45a05a0000000000000000000000000000000000000000000000000000dac34c45a05a000000000000000000000000000000000000000000000000002386f26fc100020000000000000000000000000000000000000000000000000000000000000000000000000000000000000000000000000000000000000000002461b5bc06a05c",
          "blockHash": "0x1504f86ac03b36f58f6bc503c1d4dc550cf5d4bbf4348375f3bd3ca9815f8633",
          "blockNumber": "0xb5fcab",
          "transactionHash": "0xef8d598f710618859e3b8e0ea098f71c2b8ce403e444b83c511d3123cfc5f780",
          "transactionIndex": "0x0",
          "logIndex": "0x7",
          "removed": false
        },
        {
          "address": "0x9918889e93e8c4357a2d4bce0965dcc493fffda8",
          "topics": [
            "0x85496b760a4b7f8d66384b9df21b381f5d1b1e79f229a47aaf4c232edc2fe59a",
            "0x49cb7cd2786522de4a902e8f9577f93f8875b9ed2e6628413ff24331c2c392ad",
            "0x00000000000000000000000021af1185734d213d45c6236146fb81e2b0e8b821"
          ],
          "data": "0x0000000000000000000000000000000000000000000000000000000000009d35000000000000000000000000000000000000000000000002b5e3af16b1880000000000000000000000000000000000000000000000000002b5e3af16b1880000",
          "blockHash": "0x1504f86ac03b36f58f6bc503c1d4dc550cf5d4bbf4348375f3bd3ca9815f8633",
          "blockNumber": "0xb5fcab",
          "transactionHash": "0xef8d598f710618859e3b8e0ea098f71c2b8ce403e444b83c511d3123cfc5f780",
          "transactionIndex": "0x0",
          "logIndex": "0x8",
          "removed": false
        },
        {
          "address": "0x0000000000000000000000000000000000001010",
          "topics": [
            "0x4dfe1bbbcf077ddc3e01291eea2d5c70c2b422b415d95645b9adcfd678cb1d63",
            "0x0000000000000000000000000000000000000000000000000000000000001010",
            "0x00000000000000000000000021af1185734d213d45c6236146fb81e2b0e8b821",
            "0x00000000000000000000000022b64229c41429a023549fdab3385893b579327a"
          ],
          "data": "0x0000000000000000000000000000000000000000000000000020662ba9509b4000000000000000000000000000000000000000000000000420ecb7b1518e18060000000000000000000000000000000000000000000000d64eba91aa04c26d0500000000000000000000000000000000000000000000000420cc5185a83d7cc60000000000000000000000000000000000000000000000d64edaf7d5ae130845",
          "blockHash": "0x1504f86ac03b36f58f6bc503c1d4dc550cf5d4bbf4348375f3bd3ca9815f8633",
          "blockNumber": "0xb5fcab",
          "transactionHash": "0xef8d598f710618859e3b8e0ea098f71c2b8ce403e444b83c511d3123cfc5f780",
          "transactionIndex": "0x0",
          "logIndex": "0x9",
          "removed": false
        }
      ],
      "logsBloom": "0x400000000000000000000000000800000000000000000000000000000000000000000000000010002000001000000000000080000000000000000000000040000000028020000000000000080000008000000000000000000001000000020000000000200000000082000010000000000080000020000000800040100000000000000000002000200000000800000000000000000000000000000100000000002000000080000000081040260000000000000800004000000004c0002000004020000002000000000001002080000000000000000008801200108000000000000002040000000000000000000000002008000000008000000000000000100200",
      "type": "0x2",
      "transactionHash": "0xef8d598f710618859e3b8e0ea098f71c2b8ce403e444b83c511d3123cfc5f780",
      "transactionIndex": "0x0",
      "blockHash": "0x1504f86ac03b36f58f6bc503c1d4dc550cf5d4bbf4348375f3bd3ca9815f8633",
      "blockNumber": "0xb5fcab",
      "gasUsed": "0x3b9e5",
      "effectiveGasPrice": "0x8b1ef7a4f",
      "from": "0x21af1185734d213d45c6236146fb81e2b0e8b821",
      "to": "0x9918889e93e8c4357a2d4bce0965dcc493fffda8",
      "contractAddress": null
    },
    {
      "status": "0x1",
      "cumulativeGasUsed": "0x46e56",
      "logs": [
        {
          "address": "0x3d2bd0e15829aa5c362a4144fdf4a1112fa29b5c",
          "topics": [
            "0x8c5be1e5ebec7d5bd14f71427d1e84f3dd0314c0f7b2291e5b200ac8c7c3b925",
            "0x00000000000000000000000021af1185734d213d45c6236146fb81e2b0e8b821",
            "0x0000000000000000000000009918889e93e8c4357a2d4bce0965dcc493fffda8"
          ],
          "data": "0x0000000000000000000000000000000000000000000000056bc75e2d63100000",
          "blockHash": "0x1504f86ac03b36f58f6bc503c1d4dc550cf5d4bbf4348375f3bd3ca9815f8633",
          "blockNumber": "0xb5fcab",
          "transactionHash": "0xe9b9a8aeddb55a41f2b42e9584360b70b662e38bdeac34d118a17a48085c4d33",
          "transactionIndex": "0x1",
          "logIndex": "0xa",
          "removed": false
        },
        {
          "address": "0x0000000000000000000000000000000000001010",
          "topics": [
            "0x4dfe1bbbcf077ddc3e01291eea2d5c70c2b422b415d95645b9adcfd678cb1d63",
            "0x0000000000000000000000000000000000000000000000000000000000001010",
            "0x00000000000000000000000021af1185734d213d45c6236146fb81e2b0e8b821",
            "0x00000000000000000000000022b64229c41429a023549fdab3385893b579327a"
          ],
          "data": "0x000000000000000000000000000000000000000000000000000620f2eca9f64000000000000000000000000000000000000000000000000419d69dd0077b31920000000000000000000000000000000000000000000000d64edaf7d5ae13084500000000000000000000000000000000000000000000000419d07cdd1ad13b520000000000000000000000000000000000000000000000d64ee118c89abcfe85",
          "blockHash": "0x1504f86ac03b36f58f6bc503c1d4dc550cf5d4bbf4348375f3bd3ca9815f8633",
          "blockNumber": "0xb5fcab",
          "transactionHash": "0xe9b9a8aeddb55a41f2b42e9584360b70b662e38bdeac34d118a17a48085c4d33",
          "transactionIndex": "0x1",
          "logIndex": "0xb",
          "removed": false
        }
      ],
      "logsBloom": "0x40000000000000000000000000080000000000000000000000000000000000000000000000001000000000000000000000008000000000000000000000200000000000002000000000000000000000800000000000000000000100000000000000000020000000000000000000000000000000000000000080004000000000000000000000200000000000000000000000000000000000000000010000000000220000000000000008000000000000000000000000000000000080002000004000000000000000000001000000000000000000000000000000100000000000000012000000000000000000000000000000000000000000000000000000100000",
      "type": "0x2",
      "transactionHash": "0xe9b9a8aeddb55a41f2b42e9584360b70b662e38bdeac34d118a17a48085c4d33",
      "transactionIndex": "0x1",
      "blockHash": "0x1504f86ac03b36f58f6bc503c1d4dc550cf5d4bbf4348375f3bd3ca9815f8633",
      "blockNumber": "0xb5fcab",
      "gasUsed": "0xb471",
      "effectiveGasPrice": "0x8b1ef7a4f",
      "from": "0x21af1185734d213d45c6236146fb81e2b0e8b821",
      "to": "0x3d2bd0e15829aa5c362a4144fdf4a1112fa29b5c",
      "contractAddress": null
    },
    {
      "status": "0x1",
      "cumulativeGasUsed": "0x8283b",
      "logs": [
        {
          "address": "0x0000000000000000000000000000000000001010",
          "topics": [
            "0xe6497e3ee548a3372136af2fcb0696db31fc6cf20260707645068bd3fe97f3c4",
            "0x0000000000000000000000000000000000000000000000000000000000001010",
            "0x00000000000000000000000021af1185734d213d45c6236146fb81e2b0e8b821",
            "0x0000000000000000000000009918889e93e8c4357a2d4bce0965dcc493fffda8"
          ],
          "data": "0x00000000000000000000000000000000000000000000000006f5b3b5a08a66c900000000000000000000000000000000000000000000000419a57abe540d66f3000000000000000000000000000000000000000000000000000000000000000000000000000000000000000000000000000000000000000412afc708b383002a00000000000000000000000000000000000000000000000006f5b3b5a08a66c9",
          "blockHash": "0x1504f86ac03b36f58f6bc503c1d4dc550cf5d4bbf4348375f3bd3ca9815f8633",
          "blockNumber": "0xb5fcab",
          "transactionHash": "0xabe669c7d09afd685b1ed225bee3c79c7f02abf11df6ea12d4613d7d81ed2920",
          "transactionIndex": "0x2",
          "logIndex": "0xc",
          "removed": false
        },
        {
          "address": "0x3d2bd0e15829aa5c362a4144fdf4a1112fa29b5c",
          "topics": [
            "0xddf252ad1be2c89b69c2b068fc378daa952ba7f163c4a11628f55a4df523b3ef",
            "0x00000000000000000000000021af1185734d213d45c6236146fb81e2b0e8b821",
            "0x0000000000000000000000009918889e93e8c4357a2d4bce0965dcc493fffda8"
          ],
          "data": "0x0000000000000000000000000000000000000000000000056bc75e2d63100000",
          "blockHash": "0x1504f86ac03b36f58f6bc503c1d4dc550cf5d4bbf4348375f3bd3ca9815f8633",
          "blockNumber": "0xb5fcab",
          "transactionHash": "0xabe669c7d09afd685b1ed225bee3c79c7f02abf11df6ea12d4613d7d81ed2920",
          "transactionIndex": "0x2",
          "logIndex": "0xd",
          "removed": false
        },
        {
          "address": "0x0000000000000000000000000000000000001010",
          "topics": [
            "0xe6497e3ee548a3372136af2fcb0696db31fc6cf20260707645068bd3fe97f3c4",
            "0x0000000000000000000000000000000000000000000000000000000000001010",
            "0x0000000000000000000000009918889e93e8c4357a2d4bce0965dcc493fffda8",
            "0x0000000000000000000000006edce65403992e310a62460808c4b910d972f10f"
          ],
          "data": "0x00000000000000000000000000000000000000000000000006f5b3b5a08a66c900000000000000000000000000000000000000000000000006f5b3b5a08a66c90000000000000000000000000000000000000000000000000000000000000000000000000000000000000000000000000000000000000000000000000000000000000000000000000000000000000000000000000000000006f5b3b5a08a66c9",
          "blockHash": "0x1504f86ac03b36f58f6bc503c1d4dc550cf5d4bbf4348375f3bd3ca9815f8633",
          "blockNumber": "0xb5fcab",
          "transactionHash": "0xabe669c7d09afd685b1ed225bee3c79c7f02abf11df6ea12d4613d7d81ed2920",
          "transactionIndex": "0x2",
          "logIndex": "0xe",
          "removed": false
        },
        {
          "address": "0x1d186c560281b8f1af831957ed5047fd3ab902f9",
          "topics": [
            "0x61ed099e74a97a1d7f8bb0952a88ca8b7b8ebd00c126ea04671f92a81213318a"
          ],
          "data": "0x0000000000000000000000004cf1b3fa61465c2c907f82fc488b43223ba0cf93000000000000000000000000000000000000000000000000069cd5a31cfe69f7",
          "blockHash": "0x1504f86ac03b36f58f6bc503c1d4dc550cf5d4bbf4348375f3bd3ca9815f8633",
          "blockNumber": "0xb5fcab",
          "transactionHash": "0xabe669c7d09afd685b1ed225bee3c79c7f02abf11df6ea12d4613d7d81ed2920",
          "transactionIndex": "0x2",
          "logIndex": "0xf",
          "removed": false
        },
        {
          "address": "0x1d186c560281b8f1af831957ed5047fd3ab902f9",
          "topics": [
            "0x07ea52d82345d6e838192107d8fd7123d9c2ec8e916cd0aad13fd2b60db24644"
          ],
          "data": "0x000000000000000000000000000000000000000000000000000000000000006000000000000000000000000000000000000000000000000000000000000000a000000000000000000000000000000000000000000000000000000000000000c0000000000000000000000000000000000000000000000000000000000000000100000000000000000000000055c175dd5b039331db251424538169d8495c18d1000000000000000000000000000000000000000000000000000000000000000000000000000000000000000000000000000000000000000000000000000000010000000000000000000000000000000000000000000000000058034f37465c78",
          "blockHash": "0x1504f86ac03b36f58f6bc503c1d4dc550cf5d4bbf4348375f3bd3ca9815f8633",
          "blockNumber": "0xb5fcab",
          "transactionHash": "0xabe669c7d09afd685b1ed225bee3c79c7f02abf11df6ea12d4613d7d81ed2920",
          "transactionIndex": "0x2",
          "logIndex": "0x10",
          "removed": false
        },
        {
          "address": "0x6edce65403992e310a62460808c4b910d972f10f",
          "topics": [
            "0x1ab700d4ced0c005b164c0f789fd09fcbb0156d4c2041b8a3bfbcd961cd1567f"
          ],
          "data": "0x000000000000000000000000000000000000000000000000000000000000006000000000000000000000000000000000000000000000000000000000000001200000000000000000000000001d186c560281b8f1af831957ed5047fd3ab902f9000000000000000000000000000000000000000000000000000000000000009901000000000000001800009d4b0000000000000000000000009918889e93e8c4357a2d4bce0965dcc493fffda800009d350000000000000000000000003d2bd0e15829aa5c362a4144fdf4a1112fa29b5c0d52a5286c958440e97ea16be9f6d92beebbf205bf5c8c0b9eca1d12fc971c5f00000000000000000000000021af1185734d213d45c6236146fb81e2b0e8b8210000000005f5e1000000000000000000000000000000000000000000000000000000000000000000000000000000160003010011010000000000000000000000000001388000000000000000000000",
          "blockHash": "0x1504f86ac03b36f58f6bc503c1d4dc550cf5d4bbf4348375f3bd3ca9815f8633",
          "blockNumber": "0xb5fcab",
          "transactionHash": "0xabe669c7d09afd685b1ed225bee3c79c7f02abf11df6ea12d4613d7d81ed2920",
          "transactionIndex": "0x2",
          "logIndex": "0x11",
          "removed": false
        },
        {
          "address": "0x0000000000000000000000000000000000001010",
          "topics": [
            "0xe6497e3ee548a3372136af2fcb0696db31fc6cf20260707645068bd3fe97f3c4",
            "0x0000000000000000000000000000000000000000000000000000000000001010",
            "0x0000000000000000000000006edce65403992e310a62460808c4b910d972f10f",
            "0x0000000000000000000000001d186c560281b8f1af831957ed5047fd3ab902f9"
          ],
          "data": "0x00000000000000000000000000000000000000000000000006f4d8f25444c66f00000000000000000000000000000000000000000000000006f5b3b5a08a66c90000000000000000000000000000000000000000000000465532132b6cce5c170000000000000000000000000000000000000000000000000000dac34c45a05a0000000000000000000000000000000000000000000000465c26ec1dc1132286",
          "blockHash": "0x1504f86ac03b36f58f6bc503c1d4dc550cf5d4bbf4348375f3bd3ca9815f8633",
          "blockNumber": "0xb5fcab",
          "transactionHash": "0xabe669c7d09afd685b1ed225bee3c79c7f02abf11df6ea12d4613d7d81ed2920",
          "transactionIndex": "0x2",
          "logIndex": "0x12",
          "removed": false
        },
        {
          "address": "0x0000000000000000000000000000000000001010",
          "topics": [
            "0xe6497e3ee548a3372136af2fcb0696db31fc6cf20260707645068bd3fe97f3c4",
            "0x0000000000000000000000000000000000000000000000000000000000001010",
            "0x0000000000000000000000006edce65403992e310a62460808c4b910d972f10f",
            "0x0000000000000000000000005b73c5498c1e3b4dba84de0f1833c4a029d90519"
          ],
          "data": "0x0000000000000000000000000000000000000000000000000000dac34c45a05a0000000000000000000000000000000000000000000000000000dac34c45a05a000000000000000000000000000000000000000000000000002461b5bc06a05c000000000000000000000000000000000000000000000000000000000000000000000000000000000000000000000000000000000000000000253c79084c40b6",
          "blockHash": "0x1504f86ac03b36f58f6bc503c1d4dc550cf5d4bbf4348375f3bd3ca9815f8633",
          "blockNumber": "0xb5fcab",
          "transactionHash": "0xabe669c7d09afd685b1ed225bee3c79c7f02abf11df6ea12d4613d7d81ed2920",
          "transactionIndex": "0x2",
          "logIndex": "0x13",
          "removed": false
        },
        {
          "address": "0x9918889e93e8c4357a2d4bce0965dcc493fffda8",
          "topics": [
            "0x85496b760a4b7f8d66384b9df21b381f5d1b1e79f229a47aaf4c232edc2fe59a",
            "0x0d52a5286c958440e97ea16be9f6d92beebbf205bf5c8c0b9eca1d12fc971c5f",
            "0x00000000000000000000000021af1185734d213d45c6236146fb81e2b0e8b821"
          ],
          "data": "0x0000000000000000000000000000000000000000000000000000000000009d350000000000000000000000000000000000000000000000056bc75e2d631000000000000000000000000000000000000000000000000000056bc75e2d63100000",
          "blockHash": "0x1504f86ac03b36f58f6bc503c1d4dc550cf5d4bbf4348375f3bd3ca9815f8633",
          "blockNumber": "0xb5fcab",
          "transactionHash": "0xabe669c7d09afd685b1ed225bee3c79c7f02abf11df6ea12d4613d7d81ed2920",
          "transactionIndex": "0x2",
          "logIndex": "0x14",
          "removed": false
        },
        {
          "address": "0x0000000000000000000000000000000000001010",
          "topics": [
            "0x4dfe1bbbcf077ddc3e01291eea2d5c70c2b422b415d95645b9adcfd678cb1d63",
            "0x0000000000000000000000000000000000000000000000000000000000001010",
            "0x00000000000000000000000021af1185734d213d45c6236146fb81e2b0e8b821",
            "0x00000000000000000000000022b64229c41429a023549fdab3385893b579327a"
          ],
          "data": "0x0000000000000000000000000000000000000000000000000020662ba9509b4000000000000000000000000000000000000000000000000419d07cdd1ac6a8b30000000000000000000000000000000000000000000000d64ee118c89abcfe8500000000000000000000000000000000000000000000000419b016b171760d730000000000000000000000000000000000000000000000d64f017ef4440d99c5",
          "blockHash": "0x1504f86ac03b36f58f6bc503c1d4dc550cf5d4bbf4348375f3bd3ca9815f8633",
          "blockNumber": "0xb5fcab",
          "transactionHash": "0xabe669c7d09afd685b1ed225bee3c79c7f02abf11df6ea12d4613d7d81ed2920",
          "transactionIndex": "0x2",
          "logIndex": "0x15",
          "removed": false
        }
      ],
      "logsBloom": "0x400000000000000000000000000800000000000000000000000000000000000000000000000010002000001000000000000080000000000000000000000040040020028020000000000000080000008000000000000000000001000000020000000000200000000082000010000000000080000000000000800040100000000000000000402000200000000800000000000000000000000000000100000000002000000080000000081000260000000000000800004000000004c0002000004000000002000000000001002080000000000000000008801200108000000000000002040000000000000000000000002008000000008000000000000000100200",
      "type": "0x2",
      "transactionHash": "0xabe669c7d09afd685b1ed225bee3c79c7f02abf11df6ea12d4613d7d81ed2920",
      "transactionIndex": "0x2",
      "blockHash": "0x1504f86ac03b36f58f6bc503c1d4dc550cf5d4bbf4348375f3bd3ca9815f8633",
      "blockNumber": "0xb5fcab",
      "gasUsed": "0x3b9e5",
      "effectiveGasPrice": "0x8b1ef7a4f",
      "from": "0x21af1185734d213d45c6236146fb81e2b0e8b821",
      "to": "0x9918889e93e8c4357a2d4bce0965dcc493fffda8",
      "contractAddress": null
    },
    {
      "status": "0x1",
      "cumulativeGasUsed": "0x8dcac",
      "logs": [
        {
          "address": "0x3d2bd0e15829aa5c362a4144fdf4a1112fa29b5c",
          "topics": [
            "0x8c5be1e5ebec7d5bd14f71427d1e84f3dd0314c0f7b2291e5b200ac8c7c3b925",
            "0x00000000000000000000000021af1185734d213d45c6236146fb81e2b0e8b821",
            "0x0000000000000000000000009918889e93e8c4357a2d4bce0965dcc493fffda8"
          ],
          "data": "0x00000000000000000000000000000000000000000000003635c9adc5dea00000",
          "blockHash": "0x1504f86ac03b36f58f6bc503c1d4dc550cf5d4bbf4348375f3bd3ca9815f8633",
          "blockNumber": "0xb5fcab",
          "transactionHash": "0x5f4f0bda08c3e243f2127197a0111e523101e6a5572cb2adbd841aaa9f35308c",
          "transactionIndex": "0x3",
          "logIndex": "0x16",
          "removed": false
        },
        {
          "address": "0x0000000000000000000000000000000000001010",
          "topics": [
            "0x4dfe1bbbcf077ddc3e01291eea2d5c70c2b422b415d95645b9adcfd678cb1d63",
            "0x0000000000000000000000000000000000000000000000000000000000001010",
            "0x00000000000000000000000021af1185734d213d45c6236146fb81e2b0e8b821",
            "0x00000000000000000000000022b64229c41429a023549fdab3385893b579327a"
          ],
          "data": "0x000000000000000000000000000000000000000000000000000620f2eca9f64000000000000000000000000000000000000000000000000412ba62fbd0b3c23f0000000000000000000000000000000000000000000000d64f017ef4440d99c500000000000000000000000000000000000000000000000412b44208e409cbff0000000000000000000000000000000000000000000000d64f079fe730b79005",
          "blockHash": "0x1504f86ac03b36f58f6bc503c1d4dc550cf5d4bbf4348375f3bd3ca9815f8633",
          "blockNumber": "0xb5fcab",
          "transactionHash": "0x5f4f0bda08c3e243f2127197a0111e523101e6a5572cb2adbd841aaa9f35308c",
          "transactionIndex": "0x3",
          "logIndex": "0x17",
          "removed": false
        }
      ],
      "logsBloom": "0x40000000000000000000000000080000000000000000000000000000000000000000000000001000000000000000000000008000000000000000000000200000000000002000000000000000000000800000000000000000000100000000000000000020000000000000000000000000000000000000000080004000000000000000000000200000000000000000000000000000000000000000010000000000220000000000000008000000000000000000000000000000000080002000004000000000000000000001000000000000000000000000000000100000000000000012000000000000000000000000000000000000000000000000000000100000",
      "type": "0x2",
      "transactionHash": "0x5f4f0bda08c3e243f2127197a0111e523101e6a5572cb2adbd841aaa9f35308c",
      "transactionIndex": "0x3",
      "blockHash": "0x1504f86ac03b36f58f6bc503c1d4dc550cf5d4bbf4348375f3bd3ca9815f8633",
      "blockNumber": "0xb5fcab",
      "gasUsed": "0xb471",
      "effectiveGasPrice": "0x8b1ef7a4f",
      "from": "0x21af1185734d213d45c6236146fb81e2b0e8b821",
      "to": "0x3d2bd0e15829aa5c362a4144fdf4a1112fa29b5c",
      "contractAddress": null
    },
    {
      "status": "0x1",
      "cumulativeGasUsed": "0xc9691",
      "logs": [
        {
          "address": "0x0000000000000000000000000000000000001010",
          "topics": [
            "0xe6497e3ee548a3372136af2fcb0696db31fc6cf20260707645068bd3fe97f3c4",
            "0x0000000000000000000000000000000000000000000000000000000000001010",
            "0x00000000000000000000000021af1185734d213d45c6236146fb81e2b0e8b821",
            "0x0000000000000000000000009918889e93e8c4357a2d4bce0965dcc493fffda8"
          ],
          "data": "0x00000000000000000000000000000000000000000000000006f5b3b5a08a66c900000000000000000000000000000000000000000000000412893fea1d45f7a000000000000000000000000000000000000000000000000000000000000000000000000000000000000000000000000000000000000000040b938c347cbb90d700000000000000000000000000000000000000000000000006f5b3b5a08a66c9",
          "blockHash": "0x1504f86ac03b36f58f6bc503c1d4dc550cf5d4bbf4348375f3bd3ca9815f8633",
          "blockNumber": "0xb5fcab",
          "transactionHash": "0x407b27821cb1e6ac24694ed781463526b3d26c35563dd7e2574e0767056780ad",
          "transactionIndex": "0x4",
          "logIndex": "0x18",
          "removed": false
        },
        {
          "address": "0x3d2bd0e15829aa5c362a4144fdf4a1112fa29b5c",
          "topics": [
            "0xddf252ad1be2c89b69c2b068fc378daa952ba7f163c4a11628f55a4df523b3ef",
            "0x00000000000000000000000021af1185734d213d45c6236146fb81e2b0e8b821",
            "0x0000000000000000000000009918889e93e8c4357a2d4bce0965dcc493fffda8"
          ],
          "data": "0x00000000000000000000000000000000000000000000003635c9adc5dea00000",
          "blockHash": "0x1504f86ac03b36f58f6bc503c1d4dc550cf5d4bbf4348375f3bd3ca9815f8633",
          "blockNumber": "0xb5fcab",
          "transactionHash": "0x407b27821cb1e6ac24694ed781463526b3d26c35563dd7e2574e0767056780ad",
          "transactionIndex": "0x4",
          "logIndex": "0x19",
          "removed": false
        },
        {
          "address": "0x0000000000000000000000000000000000001010",
          "topics": [
            "0xe6497e3ee548a3372136af2fcb0696db31fc6cf20260707645068bd3fe97f3c4",
            "0x0000000000000000000000000000000000000000000000000000000000001010",
            "0x0000000000000000000000009918889e93e8c4357a2d4bce0965dcc493fffda8",
            "0x0000000000000000000000006edce65403992e310a62460808c4b910d972f10f"
          ],
          "data": "0x00000000000000000000000000000000000000000000000006f5b3b5a08a66c900000000000000000000000000000000000000000000000006f5b3b5a08a66c90000000000000000000000000000000000000000000000000000000000000000000000000000000000000000000000000000000000000000000000000000000000000000000000000000000000000000000000000000000006f5b3b5a08a66c9",
          "blockHash": "0x1504f86ac03b36f58f6bc503c1d4dc550cf5d4bbf4348375f3bd3ca9815f8633",
          "blockNumber": "0xb5fcab",
          "transactionHash": "0x407b27821cb1e6ac24694ed781463526b3d26c35563dd7e2574e0767056780ad",
          "transactionIndex": "0x4",
          "logIndex": "0x1a",
          "removed": false
        },
        {
          "address": "0x1d186c560281b8f1af831957ed5047fd3ab902f9",
          "topics": [
            "0x61ed099e74a97a1d7f8bb0952a88ca8b7b8ebd00c126ea04671f92a81213318a"
          ],
          "data": "0x0000000000000000000000004cf1b3fa61465c2c907f82fc488b43223ba0cf93000000000000000000000000000000000000000000000000069cd5a31cfe69f7",
          "blockHash": "0x1504f86ac03b36f58f6bc503c1d4dc550cf5d4bbf4348375f3bd3ca9815f8633",
          "blockNumber": "0xb5fcab",
          "transactionHash": "0x407b27821cb1e6ac24694ed781463526b3d26c35563dd7e2574e0767056780ad",
          "transactionIndex": "0x4",
          "logIndex": "0x1b",
          "removed": false
        },
        {
          "address": "0x1d186c560281b8f1af831957ed5047fd3ab902f9",
          "topics": [
            "0x07ea52d82345d6e838192107d8fd7123d9c2ec8e916cd0aad13fd2b60db24644"
          ],
          "data": "0x000000000000000000000000000000000000000000000000000000000000006000000000000000000000000000000000000000000000000000000000000000a000000000000000000000000000000000000000000000000000000000000000c0000000000000000000000000000000000000000000000000000000000000000100000000000000000000000055c175dd5b039331db251424538169d8495c18d1000000000000000000000000000000000000000000000000000000000000000000000000000000000000000000000000000000000000000000000000000000010000000000000000000000000000000000000000000000000058034f37465c78",
          "blockHash": "0x1504f86ac03b36f58f6bc503c1d4dc550cf5d4bbf4348375f3bd3ca9815f8633",
          "blockNumber": "0xb5fcab",
          "transactionHash": "0x407b27821cb1e6ac24694ed781463526b3d26c35563dd7e2574e0767056780ad",
          "transactionIndex": "0x4",
          "logIndex": "0x1c",
          "removed": false
        },
        {
          "address": "0x6edce65403992e310a62460808c4b910d972f10f",
          "topics": [
            "0x1ab700d4ced0c005b164c0f789fd09fcbb0156d4c2041b8a3bfbcd961cd1567f"
          ],
          "data": "0x000000000000000000000000000000000000000000000000000000000000006000000000000000000000000000000000000000000000000000000000000001200000000000000000000000001d186c560281b8f1af831957ed5047fd3ab902f9000000000000000000000000000000000000000000000000000000000000009901000000000000001900009d4b0000000000000000000000009918889e93e8c4357a2d4bce0965dcc493fffda800009d350000000000000000000000003d2bd0e15829aa5c362a4144fdf4a1112fa29b5cd4dc07e851ac6b207879f473ab898286f1c0d510b514bf5da0b9fdf8085f72c200000000000000000000000021af1185734d213d45c6236146fb81e2b0e8b821000000003b9aca000000000000000000000000000000000000000000000000000000000000000000000000000000160003010011010000000000000000000000000001388000000000000000000000",
          "blockHash": "0x1504f86ac03b36f58f6bc503c1d4dc550cf5d4bbf4348375f3bd3ca9815f8633",
          "blockNumber": "0xb5fcab",
          "transactionHash": "0x407b27821cb1e6ac24694ed781463526b3d26c35563dd7e2574e0767056780ad",
          "transactionIndex": "0x4",
          "logIndex": "0x1d",
          "removed": false
        },
        {
          "address": "0x0000000000000000000000000000000000001010",
          "topics": [
            "0xe6497e3ee548a3372136af2fcb0696db31fc6cf20260707645068bd3fe97f3c4",
            "0x0000000000000000000000000000000000000000000000000000000000001010",
            "0x0000000000000000000000006edce65403992e310a62460808c4b910d972f10f",
            "0x0000000000000000000000001d186c560281b8f1af831957ed5047fd3ab902f9"
          ],
          "data": "0x00000000000000000000000000000000000000000000000006f4d8f25444c66f00000000000000000000000000000000000000000000000006f5b3b5a08a66c90000000000000000000000000000000000000000000000465c26ec1dc11322860000000000000000000000000000000000000000000000000000dac34c45a05a000000000000000000000000000000000000000000000046631bc5101557e8f5",
          "blockHash": "0x1504f86ac03b36f58f6bc503c1d4dc550cf5d4bbf4348375f3bd3ca9815f8633",
          "blockNumber": "0xb5fcab",
          "transactionHash": "0x407b27821cb1e6ac24694ed781463526b3d26c35563dd7e2574e0767056780ad",
          "transactionIndex": "0x4",
          "logIndex": "0x1e",
          "removed": false
        },
        {
          "address": "0x0000000000000000000000000000000000001010",
          "topics": [
            "0xe6497e3ee548a3372136af2fcb0696db31fc6cf20260707645068bd3fe97f3c4",
            "0x0000000000000000000000000000000000000000000000000000000000001010",
            "0x0000000000000000000000006edce65403992e310a62460808c4b910d972f10f",
            "0x0000000000000000000000005b73c5498c1e3b4dba84de0f1833c4a029d90519"
          ],
          "data": "0x0000000000000000000000000000000000000000000000000000dac34c45a05a0000000000000000000000000000000000000000000000000000dac34c45a05a00000000000000000000000000000000000000000000000000253c79084c40b600000000000000000000000000000000000000000000000000000000000000000000000000000000000000000000000000000000000000000026173c5491e110",
          "blockHash": "0x1504f86ac03b36f58f6bc503c1d4dc550cf5d4bbf4348375f3bd3ca9815f8633",
          "blockNumber": "0xb5fcab",
          "transactionHash": "0x407b27821cb1e6ac24694ed781463526b3d26c35563dd7e2574e0767056780ad",
          "transactionIndex": "0x4",
          "logIndex": "0x1f",
          "removed": false
        },
        {
          "address": "0x9918889e93e8c4357a2d4bce0965dcc493fffda8",
          "topics": [
            "0x85496b760a4b7f8d66384b9df21b381f5d1b1e79f229a47aaf4c232edc2fe59a",
            "0xd4dc07e851ac6b207879f473ab898286f1c0d510b514bf5da0b9fdf8085f72c2",
            "0x00000000000000000000000021af1185734d213d45c6236146fb81e2b0e8b821"
          ],
          "data": "0x0000000000000000000000000000000000000000000000000000000000009d3500000000000000000000000000000000000000000000003635c9adc5dea0000000000000000000000000000000000000000000000000003635c9adc5dea00000",
          "blockHash": "0x1504f86ac03b36f58f6bc503c1d4dc550cf5d4bbf4348375f3bd3ca9815f8633",
          "blockNumber": "0xb5fcab",
          "transactionHash": "0x407b27821cb1e6ac24694ed781463526b3d26c35563dd7e2574e0767056780ad",
          "transactionIndex": "0x4",
          "logIndex": "0x20",
          "removed": false
        },
        {
          "address": "0x0000000000000000000000000000000000001010",
          "topics": [
            "0x4dfe1bbbcf077ddc3e01291eea2d5c70c2b422b415d95645b9adcfd678cb1d63",
            "0x0000000000000000000000000000000000000000000000000000000000001010",
            "0x00000000000000000000000021af1185734d213d45c6236146fb81e2b0e8b821",
            "0x00000000000000000000000022b64229c41429a023549fdab3385893b579327a"
          ],
          "data": "0x0000000000000000000000000000000000000000000000000020662ba9509b4000000000000000000000000000000000000000000000000412b44208e3ff39600000000000000000000000000000000000000000000000d64f079fe730b790050000000000000000000000000000000000000000000000041293dbdd3aae9e200000000000000000000000000000000000000000000000d64f280612da082b45",
          "blockHash": "0x1504f86ac03b36f58f6bc503c1d4dc550cf5d4bbf4348375f3bd3ca9815f8633",
          "blockNumber": "0xb5fcab",
          "transactionHash": "0x407b27821cb1e6ac24694ed781463526b3d26c35563dd7e2574e0767056780ad",
          "transactionIndex": "0x4",
          "logIndex": "0x21",
          "removed": false
        }
      ],
      "logsBloom": "0x400000000000000000000000000800000000000000000000000000000000000000000000000010002000001000000000000080000000000000000000000040000000028020000000000000080000008000000000000000000001000000020000000000200000200082001010000000000080000000000000800040100000000000000000002000200000000800001000000000000000000000000100000000002000000080000000081000260000000000000800004000000004c0002000004000000002000000000001002080000000000000000008801200108000000000000002040000000000000000000000002008000000008000000000000000100200",
      "type": "0x2",
      "transactionHash": "0x407b27821cb1e6ac24694ed781463526b3d26c35563dd7e2574e0767056780ad",
      "transactionIndex": "0x4",
      "blockHash": "0x1504f86ac03b36f58f6bc503c1d4dc550cf5d4bbf4348375f3bd3ca9815f8633",
      "blockNumber": "0xb5fcab",
      "gasUsed": "0x3b9e5",
      "effectiveGasPrice": "0x8b1ef7a4f",
      "from": "0x21af1185734d213d45c6236146fb81e2b0e8b821",
      "to": "0x9918889e93e8c4357a2d4bce0965dcc493fffda8",
      "contractAddress": null
    },
    {
      "status": "0x1",
      "cumulativeGasUsed": "0xd4b0e",
      "logs": [
        {
          "address": "0x3d2bd0e15829aa5c362a4144fdf4a1112fa29b5c",
          "topics": [
            "0x8c5be1e5ebec7d5bd14f71427d1e84f3dd0314c0f7b2291e5b200ac8c7c3b925",
            "0x00000000000000000000000021af1185734d213d45c6236146fb81e2b0e8b821",
            "0x0000000000000000000000009918889e93e8c4357a2d4bce0965dcc493fffda8"
          ],
          "data": "0x00000000000000000000000000000000000000000000021e19e0c9bab2400000",
          "blockHash": "0x1504f86ac03b36f58f6bc503c1d4dc550cf5d4bbf4348375f3bd3ca9815f8633",
          "blockNumber": "0xb5fcab",
          "transactionHash": "0x0fa79b28629d544c8c86f0e72a76c37082351423bfa09907227e154350c481f7",
          "transactionIndex": "0x5",
          "logIndex": "0x22",
          "removed": false
        },
        {
          "address": "0x0000000000000000000000000000000000001010",
          "topics": [
            "0x4dfe1bbbcf077ddc3e01291eea2d5c70c2b422b415d95645b9adcfd678cb1d63",
            "0x0000000000000000000000000000000000000000000000000000000000001010",
            "0x00000000000000000000000021af1185734d213d45c6236146fb81e2b0e8b821",
            "0x00000000000000000000000022b64229c41429a023549fdab3385893b579327a"
          ],
          "data": "0x0000000000000000000000000000000000000000000000000006215b43e3b1400000000000000000000000000000000000000000000000040b9e282799ec52ec0000000000000000000000000000000000000000000000d64f280612da082b450000000000000000000000000000000000000000000000040b9806cc5608a1ac0000000000000000000000000000000000000000000000d64f2e276e1debdc85",
          "blockHash": "0x1504f86ac03b36f58f6bc503c1d4dc550cf5d4bbf4348375f3bd3ca9815f8633",
          "blockNumber": "0xb5fcab",
          "transactionHash": "0x0fa79b28629d544c8c86f0e72a76c37082351423bfa09907227e154350c481f7",
          "transactionIndex": "0x5",
          "logIndex": "0x23",
          "removed": false
        }
      ],
      "logsBloom": "0x40000000000000000000000000080000000000000000000000000000000000000000000000001000000000000000000000008000000000000000000000200000000000002000000000000000000000800000000000000000000100000000000000000020000000000000000000000000000000000000000080004000000000000000000000200000000000000000000000000000000000000000010000000000220000000000000008000000000000000000000000000000000080002000004000000000000000000001000000000000000000000000000000100000000000000012000000000000000000000000000000000000000000000000000000100000",
      "type": "0x2",
      "transactionHash": "0x0fa79b28629d544c8c86f0e72a76c37082351423bfa09907227e154350c481f7",
      "transactionIndex": "0x5",
      "blockHash": "0x1504f86ac03b36f58f6bc503c1d4dc550cf5d4bbf4348375f3bd3ca9815f8633",
      "blockNumber": "0xb5fcab",
      "gasUsed": "0xb47d",
      "effectiveGasPrice": "0x8b1ef7a4f",
      "from": "0x21af1185734d213d45c6236146fb81e2b0e8b821",
      "to": "0x3d2bd0e15829aa5c362a4144fdf4a1112fa29b5c",
      "contractAddress": null
    },
    {
      "status": "0x1",
      "cumulativeGasUsed": "0x11050b",
      "logs": [
        {
          "address": "0x0000000000000000000000000000000000001010",
          "topics": [
            "0xe6497e3ee548a3372136af2fcb0696db31fc6cf20260707645068bd3fe97f3c4",
            "0x0000000000000000000000000000000000000000000000000000000000001010",
            "0x00000000000000000000000021af1185734d213d45c6236146fb81e2b0e8b821",
            "0x0000000000000000000000009918889e93e8c4357a2d4bce0965dcc493fffda8"
          ],
          "data": "0x00000000000000000000000000000000000000000000000006f5b3b5a08a66c90000000000000000000000000000000000000000000000040b6d0385ed768e1b000000000000000000000000000000000000000000000000000000000000000000000000000000000000000000000000000000000000000404774fd04cec275200000000000000000000000000000000000000000000000006f5b3b5a08a66c9",
          "blockHash": "0x1504f86ac03b36f58f6bc503c1d4dc550cf5d4bbf4348375f3bd3ca9815f8633",
          "blockNumber": "0xb5fcab",
          "transactionHash": "0xe9647224d80ea1466da2bea6e023755280375e53a51025a62911b66eb851374b",
          "transactionIndex": "0x6",
          "logIndex": "0x24",
          "removed": false
        },
        {
          "address": "0x3d2bd0e15829aa5c362a4144fdf4a1112fa29b5c",
          "topics": [
            "0xddf252ad1be2c89b69c2b068fc378daa952ba7f163c4a11628f55a4df523b3ef",
            "0x00000000000000000000000021af1185734d213d45c6236146fb81e2b0e8b821",
            "0x0000000000000000000000009918889e93e8c4357a2d4bce0965dcc493fffda8"
          ],
          "data": "0x00000000000000000000000000000000000000000000021e19e0c9bab2400000",
          "blockHash": "0x1504f86ac03b36f58f6bc503c1d4dc550cf5d4bbf4348375f3bd3ca9815f8633",
          "blockNumber": "0xb5fcab",
          "transactionHash": "0xe9647224d80ea1466da2bea6e023755280375e53a51025a62911b66eb851374b",
          "transactionIndex": "0x6",
          "logIndex": "0x25",
          "removed": false
        },
        {
          "address": "0x0000000000000000000000000000000000001010",
          "topics": [
            "0xe6497e3ee548a3372136af2fcb0696db31fc6cf20260707645068bd3fe97f3c4",
            "0x0000000000000000000000000000000000000000000000000000000000001010",
            "0x0000000000000000000000009918889e93e8c4357a2d4bce0965dcc493fffda8",
            "0x0000000000000000000000006edce65403992e310a62460808c4b910d972f10f"
          ],
          "data": "0x00000000000000000000000000000000000000000000000006f5b3b5a08a66c900000000000000000000000000000000000000000000000006f5b3b5a08a66c90000000000000000000000000000000000000000000000000000000000000000000000000000000000000000000000000000000000000000000000000000000000000000000000000000000000000000000000000000000006f5b3b5a08a66c9",
          "blockHash": "0x1504f86ac03b36f58f6bc503c1d4dc550cf5d4bbf4348375f3bd3ca9815f8633",
          "blockNumber": "0xb5fcab",
          "transactionHash": "0xe9647224d80ea1466da2bea6e023755280375e53a51025a62911b66eb851374b",
          "transactionIndex": "0x6",
          "logIndex": "0x26",
          "removed": false
        },
        {
          "address": "0x1d186c560281b8f1af831957ed5047fd3ab902f9",
          "topics": [
            "0x61ed099e74a97a1d7f8bb0952a88ca8b7b8ebd00c126ea04671f92a81213318a"
          ],
          "data": "0x0000000000000000000000004cf1b3fa61465c2c907f82fc488b43223ba0cf93000000000000000000000000000000000000000000000000069cd5a31cfe69f7",
          "blockHash": "0x1504f86ac03b36f58f6bc503c1d4dc550cf5d4bbf4348375f3bd3ca9815f8633",
          "blockNumber": "0xb5fcab",
          "transactionHash": "0xe9647224d80ea1466da2bea6e023755280375e53a51025a62911b66eb851374b",
          "transactionIndex": "0x6",
          "logIndex": "0x27",
          "removed": false
        },
        {
          "address": "0x1d186c560281b8f1af831957ed5047fd3ab902f9",
          "topics": [
            "0x07ea52d82345d6e838192107d8fd7123d9c2ec8e916cd0aad13fd2b60db24644"
          ],
          "data": "0x000000000000000000000000000000000000000000000000000000000000006000000000000000000000000000000000000000000000000000000000000000a000000000000000000000000000000000000000000000000000000000000000c0000000000000000000000000000000000000000000000000000000000000000100000000000000000000000055c175dd5b039331db251424538169d8495c18d1000000000000000000000000000000000000000000000000000000000000000000000000000000000000000000000000000000000000000000000000000000010000000000000000000000000000000000000000000000000058034f37465c78",
          "blockHash": "0x1504f86ac03b36f58f6bc503c1d4dc550cf5d4bbf4348375f3bd3ca9815f8633",
          "blockNumber": "0xb5fcab",
          "transactionHash": "0xe9647224d80ea1466da2bea6e023755280375e53a51025a62911b66eb851374b",
          "transactionIndex": "0x6",
          "logIndex": "0x28",
          "removed": false
        },
        {
          "address": "0x6edce65403992e310a62460808c4b910d972f10f",
          "topics": [
            "0x1ab700d4ced0c005b164c0f789fd09fcbb0156d4c2041b8a3bfbcd961cd1567f"
          ],
          "data": "0x000000000000000000000000000000000000000000000000000000000000006000000000000000000000000000000000000000000000000000000000000001200000000000000000000000001d186c560281b8f1af831957ed5047fd3ab902f9000000000000000000000000000000000000000000000000000000000000009901000000000000001a00009d4b0000000000000000000000009918889e93e8c4357a2d4bce0965dcc493fffda800009d350000000000000000000000003d2bd0e15829aa5c362a4144fdf4a1112fa29b5c2b48cbf92ea40e679ed5e897622e294e0f62e04368f415d81d72c614ef5927bb00000000000000000000000021af1185734d213d45c6236146fb81e2b0e8b82100000002540be4000000000000000000000000000000000000000000000000000000000000000000000000000000160003010011010000000000000000000000000001388000000000000000000000",
          "blockHash": "0x1504f86ac03b36f58f6bc503c1d4dc550cf5d4bbf4348375f3bd3ca9815f8633",
          "blockNumber": "0xb5fcab",
          "transactionHash": "0xe9647224d80ea1466da2bea6e023755280375e53a51025a62911b66eb851374b",
          "transactionIndex": "0x6",
          "logIndex": "0x29",
          "removed": false
        },
        {
          "address": "0x0000000000000000000000000000000000001010",
          "topics": [
            "0xe6497e3ee548a3372136af2fcb0696db31fc6cf20260707645068bd3fe97f3c4",
            "0x0000000000000000000000000000000000000000000000000000000000001010",
            "0x0000000000000000000000006edce65403992e310a62460808c4b910d972f10f",
            "0x0000000000000000000000001d186c560281b8f1af831957ed5047fd3ab902f9"
          ],
          "data": "0x00000000000000000000000000000000000000000000000006f4d8f25444c66f00000000000000000000000000000000000000000000000006f5b3b5a08a66c9000000000000000000000000000000000000000000000046631bc5101557e8f50000000000000000000000000000000000000000000000000000dac34c45a05a0000000000000000000000000000000000000000000000466a109e02699caf64",
          "blockHash": "0x1504f86ac03b36f58f6bc503c1d4dc550cf5d4bbf4348375f3bd3ca9815f8633",
          "blockNumber": "0xb5fcab",
          "transactionHash": "0xe9647224d80ea1466da2bea6e023755280375e53a51025a62911b66eb851374b",
          "transactionIndex": "0x6",
          "logIndex": "0x2a",
          "removed": false
        },
        {
          "address": "0x0000000000000000000000000000000000001010",
          "topics": [
            "0xe6497e3ee548a3372136af2fcb0696db31fc6cf20260707645068bd3fe97f3c4",
            "0x0000000000000000000000000000000000000000000000000000000000001010",
            "0x0000000000000000000000006edce65403992e310a62460808c4b910d972f10f",
            "0x0000000000000000000000005b73c5498c1e3b4dba84de0f1833c4a029d90519"
          ],
          "data": "0x0000000000000000000000000000000000000000000000000000dac34c45a05a0000000000000000000000000000000000000000000000000000dac34c45a05a0000000000000000000000000000000000000000000000000026173c5491e11000000000000000000000000000000000000000000000000000000000000000000000000000000000000000000000000000000000000000000026f1ffa0d7816a",
          "blockHash": "0x1504f86ac03b36f58f6bc503c1d4dc550cf5d4bbf4348375f3bd3ca9815f8633",
          "blockNumber": "0xb5fcab",
          "transactionHash": "0xe9647224d80ea1466da2bea6e023755280375e53a51025a62911b66eb851374b",
          "transactionIndex": "0x6",
          "logIndex": "0x2b",
          "removed": false
        },
        {
          "address": "0x9918889e93e8c4357a2d4bce0965dcc493fffda8",
          "topics": [
            "0x85496b760a4b7f8d66384b9df21b381f5d1b1e79f229a47aaf4c232edc2fe59a",
            "0x2b48cbf92ea40e679ed5e897622e294e0f62e04368f415d81d72c614ef5927bb",
            "0x00000000000000000000000021af1185734d213d45c6236146fb81e2b0e8b821"
          ],
          "data": "0x0000000000000000000000000000000000000000000000000000000000009d3500000000000000000000000000000000000000000000021e19e0c9bab240000000000000000000000000000000000000000000000000021e19e0c9bab2400000",
          "blockHash": "0x1504f86ac03b36f58f6bc503c1d4dc550cf5d4bbf4348375f3bd3ca9815f8633",
          "blockNumber": "0xb5fcab",
          "transactionHash": "0xe9647224d80ea1466da2bea6e023755280375e53a51025a62911b66eb851374b",
          "transactionIndex": "0x6",
          "logIndex": "0x2c",
          "removed": false
        },
        {
          "address": "0x0000000000000000000000000000000000001010",
          "topics": [
            "0x4dfe1bbbcf077ddc3e01291eea2d5c70c2b422b415d95645b9adcfd678cb1d63",
            "0x0000000000000000000000000000000000000000000000000000000000001010",
            "0x00000000000000000000000021af1185734d213d45c6236146fb81e2b0e8b821",
            "0x00000000000000000000000022b64229c41429a023549fdab3385893b579327a"
          ],
          "data": "0x000000000000000000000000000000000000000000000000002066fc57c411400000000000000000000000000000000000000000000000040b9806cc55fe0e590000000000000000000000000000000000000000000000d64f2e276e1debdc850000000000000000000000000000000000000000000000040b779fcffe39fd190000000000000000000000000000000000000000000000d64f4e8e6a75afedc5",
          "blockHash": "0x1504f86ac03b36f58f6bc503c1d4dc550cf5d4bbf4348375f3bd3ca9815f8633",
          "blockNumber": "0xb5fcab",
          "transactionHash": "0xe9647224d80ea1466da2bea6e023755280375e53a51025a62911b66eb851374b",
          "transactionIndex": "0x6",
          "logIndex": "0x2d",
          "removed": false
        }
      ],
      "logsBloom": "0x400000000000000000000000000800000000000000000000000000000000000400000000001010002000001000000000000082000000000000000000000040000000028020000000000000080000008000000000000000000001000000020000000000200000000082000010000000000080000000000000800040100000000000000000002000200000000800000000000000000000000000000100000000002000000080000000081000260000000000000800004000000004c0002000004000000002000000000001002080000000000000000008801200108000000000000002040000000000000000000000002008000000008000000000000000100200",
      "type": "0x2",
      "transactionHash": "0xe9647224d80ea1466da2bea6e023755280375e53a51025a62911b66eb851374b",
      "transactionIndex": "0x6",
      "blockHash": "0x1504f86ac03b36f58f6bc503c1d4dc550cf5d4bbf4348375f3bd3ca9815f8633",
      "blockNumber": "0xb5fcab",
      "gasUsed": "0x3b9fd",
      "effectiveGasPrice": "0x8b1ef7a4f",
      "from": "0x21af1185734d213d45c6236146fb81e2b0e8b821",
      "to": "0x9918889e93e8c4357a2d4bce0965dcc493fffda8",
      "contractAddress": null
    },
    {
      "status": "0x1",
      "cumulativeGasUsed": "0x11b988",
      "logs": [
        {
          "address": "0x3d2bd0e15829aa5c362a4144fdf4a1112fa29b5c",
          "topics": [
            "0x8c5be1e5ebec7d5bd14f71427d1e84f3dd0314c0f7b2291e5b200ac8c7c3b925",
            "0x00000000000000000000000021af1185734d213d45c6236146fb81e2b0e8b821",
            "0x0000000000000000000000009918889e93e8c4357a2d4bce0965dcc493fffda8"
          ],
          "data": "0x00000000000000000000000000000000000000000000152d02c7e14af6800000",
          "blockHash": "0x1504f86ac03b36f58f6bc503c1d4dc550cf5d4bbf4348375f3bd3ca9815f8633",
          "blockNumber": "0xb5fcab",
          "transactionHash": "0x357f7b33dff87c9bc3655f8ffe2cc8adda00e7128366430f5a1750cd1ffb8a2d",
          "transactionIndex": "0x7",
          "logIndex": "0x2e",
          "removed": false
        },
        {
          "address": "0x0000000000000000000000000000000000001010",
          "topics": [
            "0x4dfe1bbbcf077ddc3e01291eea2d5c70c2b422b415d95645b9adcfd678cb1d63",
            "0x0000000000000000000000000000000000000000000000000000000000001010",
            "0x00000000000000000000000021af1185734d213d45c6236146fb81e2b0e8b821",
            "0x00000000000000000000000022b64229c41429a023549fdab3385893b579327a"
          ],
          "data": "0x0000000000000000000000000000000000000000000000000006215b43e3b1400000000000000000000000000000000000000000000000040481ec1a5d77b07d0000000000000000000000000000000000000000000000d64f4e8e6a75afedc5000000000000000000000000000000000000000000000004047bcabf1993ff3d0000000000000000000000000000000000000000000000d64f54afc5b9939f05",
          "blockHash": "0x1504f86ac03b36f58f6bc503c1d4dc550cf5d4bbf4348375f3bd3ca9815f8633",
          "blockNumber": "0xb5fcab",
          "transactionHash": "0x357f7b33dff87c9bc3655f8ffe2cc8adda00e7128366430f5a1750cd1ffb8a2d",
          "transactionIndex": "0x7",
          "logIndex": "0x2f",
          "removed": false
        }
      ],
      "logsBloom": "0x40000000000000000000000000080000000000000000000000000000000000000000000000001000000000000000000000008000000000000000000000200000000000002000000000000000000000800000000000000000000100000000000000000020000000000000000000000000000000000000000080004000000000000000000000200000000000000000000000000000000000000000010000000000220000000000000008000000000000000000000000000000000080002000004000000000000000000001000000000000000000000000000000100000000000000012000000000000000000000000000000000000000000000000000000100000",
      "type": "0x2",
      "transactionHash": "0x357f7b33dff87c9bc3655f8ffe2cc8adda00e7128366430f5a1750cd1ffb8a2d",
      "transactionIndex": "0x7",
      "blockHash": "0x1504f86ac03b36f58f6bc503c1d4dc550cf5d4bbf4348375f3bd3ca9815f8633",
      "blockNumber": "0xb5fcab",
      "gasUsed": "0xb47d",
      "effectiveGasPrice": "0x8b1ef7a4f",
      "from": "0x21af1185734d213d45c6236146fb81e2b0e8b821",
      "to": "0x3d2bd0e15829aa5c362a4144fdf4a1112fa29b5c",
      "contractAddress": null
    },
    {
      "status": "0x1",
      "cumulativeGasUsed": "0x157385",
      "logs": [
        {
          "address": "0x0000000000000000000000000000000000001010",
          "topics": [
            "0xe6497e3ee548a3372136af2fcb0696db31fc6cf20260707645068bd3fe97f3c4",
            "0x0000000000000000000000000000000000000000000000000000000000001010",
            "0x00000000000000000000000021af1185734d213d45c6236146fb81e2b0e8b821",
            "0x0000000000000000000000009918889e93e8c4357a2d4bce0965dcc493fffda8"
          ],
          "data": "0x00000000000000000000000000000000000000000000000006f5b3b5a08a66c90000000000000000000000000000000000000000000000040450c778b101ebac0000000000000000000000000000000000000000000000000000000000000000000000000000000000000000000000000000000000000003fd5b13c3107784e300000000000000000000000000000000000000000000000006f5b3b5a08a66c9",
          "blockHash": "0x1504f86ac03b36f58f6bc503c1d4dc550cf5d4bbf4348375f3bd3ca9815f8633",
          "blockNumber": "0xb5fcab",
          "transactionHash": "0x13d0d22c2eadd954df99310b99ab95e4c17ff538ebdda39a8e57a96835d27e38",
          "transactionIndex": "0x8",
          "logIndex": "0x30",
          "removed": false
        },
        {
          "address": "0x3d2bd0e15829aa5c362a4144fdf4a1112fa29b5c",
          "topics": [
            "0xddf252ad1be2c89b69c2b068fc378daa952ba7f163c4a11628f55a4df523b3ef",
            "0x00000000000000000000000021af1185734d213d45c6236146fb81e2b0e8b821",
            "0x0000000000000000000000009918889e93e8c4357a2d4bce0965dcc493fffda8"
          ],
          "data": "0x00000000000000000000000000000000000000000000152d02c7e14af6800000",
          "blockHash": "0x1504f86ac03b36f58f6bc503c1d4dc550cf5d4bbf4348375f3bd3ca9815f8633",
          "blockNumber": "0xb5fcab",
          "transactionHash": "0x13d0d22c2eadd954df99310b99ab95e4c17ff538ebdda39a8e57a96835d27e38",
          "transactionIndex": "0x8",
          "logIndex": "0x31",
          "removed": false
        },
        {
          "address": "0x0000000000000000000000000000000000001010",
          "topics": [
            "0xe6497e3ee548a3372136af2fcb0696db31fc6cf20260707645068bd3fe97f3c4",
            "0x0000000000000000000000000000000000000000000000000000000000001010",
            "0x0000000000000000000000009918889e93e8c4357a2d4bce0965dcc493fffda8",
            "0x0000000000000000000000006edce65403992e310a62460808c4b910d972f10f"
          ],
          "data": "0x00000000000000000000000000000000000000000000000006f5b3b5a08a66c900000000000000000000000000000000000000000000000006f5b3b5a08a66c90000000000000000000000000000000000000000000000000000000000000000000000000000000000000000000000000000000000000000000000000000000000000000000000000000000000000000000000000000000006f5b3b5a08a66c9",
          "blockHash": "0x1504f86ac03b36f58f6bc503c1d4dc550cf5d4bbf4348375f3bd3ca9815f8633",
          "blockNumber": "0xb5fcab",
          "transactionHash": "0x13d0d22c2eadd954df99310b99ab95e4c17ff538ebdda39a8e57a96835d27e38",
          "transactionIndex": "0x8",
          "logIndex": "0x32",
          "removed": false
        },
        {
          "address": "0x1d186c560281b8f1af831957ed5047fd3ab902f9",
          "topics": [
            "0x61ed099e74a97a1d7f8bb0952a88ca8b7b8ebd00c126ea04671f92a81213318a"
          ],
          "data": "0x0000000000000000000000004cf1b3fa61465c2c907f82fc488b43223ba0cf93000000000000000000000000000000000000000000000000069cd5a31cfe69f7",
          "blockHash": "0x1504f86ac03b36f58f6bc503c1d4dc550cf5d4bbf4348375f3bd3ca9815f8633",
          "blockNumber": "0xb5fcab",
          "transactionHash": "0x13d0d22c2eadd954df99310b99ab95e4c17ff538ebdda39a8e57a96835d27e38",
          "transactionIndex": "0x8",
          "logIndex": "0x33",
          "removed": false
        },
        {
          "address": "0x1d186c560281b8f1af831957ed5047fd3ab902f9",
          "topics": [
            "0x07ea52d82345d6e838192107d8fd7123d9c2ec8e916cd0aad13fd2b60db24644"
          ],
          "data": "0x000000000000000000000000000000000000000000000000000000000000006000000000000000000000000000000000000000000000000000000000000000a000000000000000000000000000000000000000000000000000000000000000c0000000000000000000000000000000000000000000000000000000000000000100000000000000000000000055c175dd5b039331db251424538169d8495c18d1000000000000000000000000000000000000000000000000000000000000000000000000000000000000000000000000000000000000000000000000000000010000000000000000000000000000000000000000000000000058034f37465c78",
          "blockHash": "0x1504f86ac03b36f58f6bc503c1d4dc550cf5d4bbf4348375f3bd3ca9815f8633",
          "blockNumber": "0xb5fcab",
          "transactionHash": "0x13d0d22c2eadd954df99310b99ab95e4c17ff538ebdda39a8e57a96835d27e38",
          "transactionIndex": "0x8",
          "logIndex": "0x34",
          "removed": false
        },
        {
          "address": "0x6edce65403992e310a62460808c4b910d972f10f",
          "topics": [
            "0x1ab700d4ced0c005b164c0f789fd09fcbb0156d4c2041b8a3bfbcd961cd1567f"
          ],
          "data": "0x000000000000000000000000000000000000000000000000000000000000006000000000000000000000000000000000000000000000000000000000000001200000000000000000000000001d186c560281b8f1af831957ed5047fd3ab902f9000000000000000000000000000000000000000000000000000000000000009901000000000000001b00009d4b0000000000000000000000009918889e93e8c4357a2d4bce0965dcc493fffda800009d350000000000000000000000003d2bd0e15829aa5c362a4144fdf4a1112fa29b5c0a7a4c51da79e2a93829f171838b0419a0e5a3d8e41e25fd3e2615d27259e10c00000000000000000000000021af1185734d213d45c6236146fb81e2b0e8b821000000174876e8000000000000000000000000000000000000000000000000000000000000000000000000000000160003010011010000000000000000000000000001388000000000000000000000",
          "blockHash": "0x1504f86ac03b36f58f6bc503c1d4dc550cf5d4bbf4348375f3bd3ca9815f8633",
          "blockNumber": "0xb5fcab",
          "transactionHash": "0x13d0d22c2eadd954df99310b99ab95e4c17ff538ebdda39a8e57a96835d27e38",
          "transactionIndex": "0x8",
          "logIndex": "0x35",
          "removed": false
        },
        {
          "address": "0x0000000000000000000000000000000000001010",
          "topics": [
            "0xe6497e3ee548a3372136af2fcb0696db31fc6cf20260707645068bd3fe97f3c4",
            "0x0000000000000000000000000000000000000000000000000000000000001010",
            "0x0000000000000000000000006edce65403992e310a62460808c4b910d972f10f",
            "0x0000000000000000000000001d186c560281b8f1af831957ed5047fd3ab902f9"
          ],
          "data": "0x00000000000000000000000000000000000000000000000006f4d8f25444c66f00000000000000000000000000000000000000000000000006f5b3b5a08a66c90000000000000000000000000000000000000000000000466a109e02699caf640000000000000000000000000000000000000000000000000000dac34c45a05a000000000000000000000000000000000000000000000046710576f4bde175d3",
          "blockHash": "0x1504f86ac03b36f58f6bc503c1d4dc550cf5d4bbf4348375f3bd3ca9815f8633",
          "blockNumber": "0xb5fcab",
          "transactionHash": "0x13d0d22c2eadd954df99310b99ab95e4c17ff538ebdda39a8e57a96835d27e38",
          "transactionIndex": "0x8",
          "logIndex": "0x36",
          "removed": false
        },
        {
          "address": "0x0000000000000000000000000000000000001010",
          "topics": [
            "0xe6497e3ee548a3372136af2fcb0696db31fc6cf20260707645068bd3fe97f3c4",
            "0x0000000000000000000000000000000000000000000000000000000000001010",
            "0x0000000000000000000000006edce65403992e310a62460808c4b910d972f10f",
            "0x0000000000000000000000005b73c5498c1e3b4dba84de0f1833c4a029d90519"
          ],
          "data": "0x0000000000000000000000000000000000000000000000000000dac34c45a05a0000000000000000000000000000000000000000000000000000dac34c45a05a0000000000000000000000000000000000000000000000000026f1ffa0d7816a00000000000000000000000000000000000000000000000000000000000000000000000000000000000000000000000000000000000000000027ccc2ed1d21c4",
          "blockHash": "0x1504f86ac03b36f58f6bc503c1d4dc550cf5d4bbf4348375f3bd3ca9815f8633",
          "blockNumber": "0xb5fcab",
          "transactionHash": "0x13d0d22c2eadd954df99310b99ab95e4c17ff538ebdda39a8e57a96835d27e38",
          "transactionIndex": "0x8",
          "logIndex": "0x37",
          "removed": false
        },
        {
          "address": "0x9918889e93e8c4357a2d4bce0965dcc493fffda8",
          "topics": [
            "0x85496b760a4b7f8d66384b9df21b381f5d1b1e79f229a47aaf4c232edc2fe59a",
            "0x0a7a4c51da79e2a93829f171838b0419a0e5a3d8e41e25fd3e2615d27259e10c",
            "0x00000000000000000000000021af1185734d213d45c6236146fb81e2b0e8b821"
          ],
          "data": "0x0000000000000000000000000000000000000000000000000000000000009d3500000000000000000000000000000000000000000000152d02c7e14af680000000000000000000000000000000000000000000000000152d02c7e14af6800000",
          "blockHash": "0x1504f86ac03b36f58f6bc503c1d4dc550cf5d4bbf4348375f3bd3ca9815f8633",
          "blockNumber": "0xb5fcab",
          "transactionHash": "0x13d0d22c2eadd954df99310b99ab95e4c17ff538ebdda39a8e57a96835d27e38",
          "transactionIndex": "0x8",
          "logIndex": "0x38",
          "removed": false
        },
        {
          "address": "0x0000000000000000000000000000000000001010",
          "topics": [
            "0x4dfe1bbbcf077ddc3e01291eea2d5c70c2b422b415d95645b9adcfd678cb1d63",
            "0x0000000000000000000000000000000000000000000000000000000000001010",
            "0x00000000000000000000000021af1185734d213d45c6236146fb81e2b0e8b821",
            "0x00000000000000000000000022b64229c41429a023549fdab3385893b579327a"
          ],
          "data": "0x000000000000000000000000000000000000000000000000002066fc57c41140000000000000000000000000000000000000000000000004047bcabf19896bea0000000000000000000000000000000000000000000000d64f54afc5b9939f05000000000000000000000000000000000000000000000004045b63c2c1c55aaa0000000000000000000000000000000000000000000000d64f7516c21157b045",
          "blockHash": "0x1504f86ac03b36f58f6bc503c1d4dc550cf5d4bbf4348375f3bd3ca9815f8633",
          "blockNumber": "0xb5fcab",
          "transactionHash": "0x13d0d22c2eadd954df99310b99ab95e4c17ff538ebdda39a8e57a96835d27e38",
          "transactionIndex": "0x8",
          "logIndex": "0x39",
          "removed": false
        }
      ],
      "logsBloom": "0x400100000000000000000000000800000000000000000000000000000000020000000000000010002000001000000000000080100000000000000000000040000000028020000000000000080000008000000000000000000001000000020000000000200000000082000010000000000080000000000000800040100000000000000000002000200000000800000000000000000000000000000100000000002000000080000000081000260000000000000800004000000004c0002000004000000002000000000001002080000000000000000008801200108000000000000002040000000000000000000000002008000000008000000000000000100200",
      "type": "0x2",
      "transactionHash": "0x13d0d22c2eadd954df99310b99ab95e4c17ff538ebdda39a8e57a96835d27e38",
      "transactionIndex": "0x8",
      "blockHash": "0x1504f86ac03b36f58f6bc503c1d4dc550cf5d4bbf4348375f3bd3ca9815f8633",
      "blockNumber": "0xb5fcab",
      "gasUsed": "0x3b9fd",
      "effectiveGasPrice": "0x8b1ef7a4f",
      "from": "0x21af1185734d213d45c6236146fb81e2b0e8b821",
      "to": "0x9918889e93e8c4357a2d4bce0965dcc493fffda8",
      "contractAddress": null
    },
    {
      "status": "0x1",
      "cumulativeGasUsed": "0x1627f6",
      "logs": [
        {
          "address": "0x3d2bd0e15829aa5c362a4144fdf4a1112fa29b5c",
          "topics": [
            "0x8c5be1e5ebec7d5bd14f71427d1e84f3dd0314c0f7b2291e5b200ac8c7c3b925",
            "0x00000000000000000000000021af1185734d213d45c6236146fb81e2b0e8b821",
            "0x0000000000000000000000009918889e93e8c4357a2d4bce0965dcc493fffda8"
          ],
          "data": "0x000000000000000000000000000000000000000000002a5a058fc295ed000000",
          "blockHash": "0x1504f86ac03b36f58f6bc503c1d4dc550cf5d4bbf4348375f3bd3ca9815f8633",
          "blockNumber": "0xb5fcab",
          "transactionHash": "0x6623e2480bd8a9e721ca63763a061cb2ffc0a481061574ce06b7d2a32ee8b60d",
          "transactionIndex": "0x9",
          "logIndex": "0x3a",
          "removed": false
        },
        {
          "address": "0x0000000000000000000000000000000000001010",
          "topics": [
            "0x4dfe1bbbcf077ddc3e01291eea2d5c70c2b422b415d95645b9adcfd678cb1d63",
            "0x0000000000000000000000000000000000000000000000000000000000001010",
            "0x00000000000000000000000021af1185734d213d45c6236146fb81e2b0e8b821",
            "0x00000000000000000000000022b64229c41429a023549fdab3385893b579327a"
          ],
          "data": "0x000000000000000000000000000000000000000000000000000620f2eca9f640000000000000000000000000000000000000000000000003fd65b00d21030e0e0000000000000000000000000000000000000000000000d64f7516c21157b045000000000000000000000000000000000000000000000003fd5f8f1a345917ce0000000000000000000000000000000000000000000000d64f7b37b4fe01a685",
          "blockHash": "0x1504f86ac03b36f58f6bc503c1d4dc550cf5d4bbf4348375f3bd3ca9815f8633",
          "blockNumber": "0xb5fcab",
          "transactionHash": "0x6623e2480bd8a9e721ca63763a061cb2ffc0a481061574ce06b7d2a32ee8b60d",
          "transactionIndex": "0x9",
          "logIndex": "0x3b",
          "removed": false
        }
      ],
      "logsBloom": "0x40000000000000000000000000080000000000000000000000000000000000000000000000001000000000000000000000008000000000000000000000200000000000002000000000000000000000800000000000000000000100000000000000000020000000000000000000000000000000000000000080004000000000000000000000200000000000000000000000000000000000000000010000000000220000000000000008000000000000000000000000000000000080002000004000000000000000000001000000000000000000000000000000100000000000000012000000000000000000000000000000000000000000000000000000100000",
      "type": "0x2",
      "transactionHash": "0x6623e2480bd8a9e721ca63763a061cb2ffc0a481061574ce06b7d2a32ee8b60d",
      "transactionIndex": "0x9",
      "blockHash": "0x1504f86ac03b36f58f6bc503c1d4dc550cf5d4bbf4348375f3bd3ca9815f8633",
      "blockNumber": "0xb5fcab",
      "gasUsed": "0xb471",
      "effectiveGasPrice": "0x8b1ef7a4f",
      "from": "0x21af1185734d213d45c6236146fb81e2b0e8b821",
      "to": "0x3d2bd0e15829aa5c362a4144fdf4a1112fa29b5c",
      "contractAddress": null
    },
    {
      "status": "0x1",
      "cumulativeGasUsed": "0x19e1db",
      "logs": [
        {
          "address": "0x0000000000000000000000000000000000001010",
          "topics": [
            "0xe6497e3ee548a3372136af2fcb0696db31fc6cf20260707645068bd3fe97f3c4",
            "0x0000000000000000000000000000000000000000000000000000000000001010",
            "0x00000000000000000000000021af1185734d213d45c6236146fb81e2b0e8b821",
            "0x0000000000000000000000009918889e93e8c4357a2d4bce0965dcc493fffda8"
          ],
          "data": "0x00000000000000000000000000000000000000000000000006f5b3b5a08a66c9000000000000000000000000000000000000000000000003fd348cfb6d95436f0000000000000000000000000000000000000000000000000000000000000000000000000000000000000000000000000000000000000003f63ed945cd0adca600000000000000000000000000000000000000000000000006f5b3b5a08a66c9",
          "blockHash": "0x1504f86ac03b36f58f6bc503c1d4dc550cf5d4bbf4348375f3bd3ca9815f8633",
          "blockNumber": "0xb5fcab",
          "transactionHash": "0xde3ae9e6aef22e2c41bb27e8c0c5d4e5c79bbaf5e0240afebe59d552f7f371de",
          "transactionIndex": "0xa",
          "logIndex": "0x3c",
          "removed": false
        },
        {
          "address": "0x3d2bd0e15829aa5c362a4144fdf4a1112fa29b5c",
          "topics": [
            "0xddf252ad1be2c89b69c2b068fc378daa952ba7f163c4a11628f55a4df523b3ef",
            "0x00000000000000000000000021af1185734d213d45c6236146fb81e2b0e8b821",
            "0x0000000000000000000000009918889e93e8c4357a2d4bce0965dcc493fffda8"
          ],
          "data": "0x000000000000000000000000000000000000000000002a5a058fc295ed000000",
          "blockHash": "0x1504f86ac03b36f58f6bc503c1d4dc550cf5d4bbf4348375f3bd3ca9815f8633",
          "blockNumber": "0xb5fcab",
          "transactionHash": "0xde3ae9e6aef22e2c41bb27e8c0c5d4e5c79bbaf5e0240afebe59d552f7f371de",
          "transactionIndex": "0xa",
          "logIndex": "0x3d",
          "removed": false
        },
        {
          "address": "0x0000000000000000000000000000000000001010",
          "topics": [
            "0xe6497e3ee548a3372136af2fcb0696db31fc6cf20260707645068bd3fe97f3c4",
            "0x0000000000000000000000000000000000000000000000000000000000001010",
            "0x0000000000000000000000009918889e93e8c4357a2d4bce0965dcc493fffda8",
            "0x0000000000000000000000006edce65403992e310a62460808c4b910d972f10f"
          ],
          "data": "0x00000000000000000000000000000000000000000000000006f5b3b5a08a66c900000000000000000000000000000000000000000000000006f5b3b5a08a66c90000000000000000000000000000000000000000000000000000000000000000000000000000000000000000000000000000000000000000000000000000000000000000000000000000000000000000000000000000000006f5b3b5a08a66c9",
          "blockHash": "0x1504f86ac03b36f58f6bc503c1d4dc550cf5d4bbf4348375f3bd3ca9815f8633",
          "blockNumber": "0xb5fcab",
          "transactionHash": "0xde3ae9e6aef22e2c41bb27e8c0c5d4e5c79bbaf5e0240afebe59d552f7f371de",
          "transactionIndex": "0xa",
          "logIndex": "0x3e",
          "removed": false
        },
        {
          "address": "0x1d186c560281b8f1af831957ed5047fd3ab902f9",
          "topics": [
            "0x61ed099e74a97a1d7f8bb0952a88ca8b7b8ebd00c126ea04671f92a81213318a"
          ],
          "data": "0x0000000000000000000000004cf1b3fa61465c2c907f82fc488b43223ba0cf93000000000000000000000000000000000000000000000000069cd5a31cfe69f7",
          "blockHash": "0x1504f86ac03b36f58f6bc503c1d4dc550cf5d4bbf4348375f3bd3ca9815f8633",
          "blockNumber": "0xb5fcab",
          "transactionHash": "0xde3ae9e6aef22e2c41bb27e8c0c5d4e5c79bbaf5e0240afebe59d552f7f371de",
          "transactionIndex": "0xa",
          "logIndex": "0x3f",
          "removed": false
        },
        {
          "address": "0x1d186c560281b8f1af831957ed5047fd3ab902f9",
          "topics": [
            "0x07ea52d82345d6e838192107d8fd7123d9c2ec8e916cd0aad13fd2b60db24644"
          ],
          "data": "0x000000000000000000000000000000000000000000000000000000000000006000000000000000000000000000000000000000000000000000000000000000a000000000000000000000000000000000000000000000000000000000000000c0000000000000000000000000000000000000000000000000000000000000000100000000000000000000000055c175dd5b039331db251424538169d8495c18d1000000000000000000000000000000000000000000000000000000000000000000000000000000000000000000000000000000000000000000000000000000010000000000000000000000000000000000000000000000000058034f37465c78",
          "blockHash": "0x1504f86ac03b36f58f6bc503c1d4dc550cf5d4bbf4348375f3bd3ca9815f8633",
          "blockNumber": "0xb5fcab",
          "transactionHash": "0xde3ae9e6aef22e2c41bb27e8c0c5d4e5c79bbaf5e0240afebe59d552f7f371de",
          "transactionIndex": "0xa",
          "logIndex": "0x40",
          "removed": false
        },
        {
          "address": "0x6edce65403992e310a62460808c4b910d972f10f",
          "topics": [
            "0x1ab700d4ced0c005b164c0f789fd09fcbb0156d4c2041b8a3bfbcd961cd1567f"
          ],
          "data": "0x000000000000000000000000000000000000000000000000000000000000006000000000000000000000000000000000000000000000000000000000000001200000000000000000000000001d186c560281b8f1af831957ed5047fd3ab902f9000000000000000000000000000000000000000000000000000000000000009901000000000000001c00009d4b0000000000000000000000009918889e93e8c4357a2d4bce0965dcc493fffda800009d350000000000000000000000003d2bd0e15829aa5c362a4144fdf4a1112fa29b5cf3178b7e26401173beeb4225bce992a39239f1686408e5078e1b80b7c1dd883600000000000000000000000021af1185734d213d45c6236146fb81e2b0e8b8210000002e90edd0000000000000000000000000000000000000000000000000000000000000000000000000000000160003010011010000000000000000000000000001388000000000000000000000",
          "blockHash": "0x1504f86ac03b36f58f6bc503c1d4dc550cf5d4bbf4348375f3bd3ca9815f8633",
          "blockNumber": "0xb5fcab",
          "transactionHash": "0xde3ae9e6aef22e2c41bb27e8c0c5d4e5c79bbaf5e0240afebe59d552f7f371de",
          "transactionIndex": "0xa",
          "logIndex": "0x41",
          "removed": false
        },
        {
          "address": "0x0000000000000000000000000000000000001010",
          "topics": [
            "0xe6497e3ee548a3372136af2fcb0696db31fc6cf20260707645068bd3fe97f3c4",
            "0x0000000000000000000000000000000000000000000000000000000000001010",
            "0x0000000000000000000000006edce65403992e310a62460808c4b910d972f10f",
            "0x0000000000000000000000001d186c560281b8f1af831957ed5047fd3ab902f9"
          ],
          "data": "0x00000000000000000000000000000000000000000000000006f4d8f25444c66f00000000000000000000000000000000000000000000000006f5b3b5a08a66c9000000000000000000000000000000000000000000000046710576f4bde175d30000000000000000000000000000000000000000000000000000dac34c45a05a00000000000000000000000000000000000000000000004677fa4fe712263c42",
          "blockHash": "0x1504f86ac03b36f58f6bc503c1d4dc550cf5d4bbf4348375f3bd3ca9815f8633",
          "blockNumber": "0xb5fcab",
          "transactionHash": "0xde3ae9e6aef22e2c41bb27e8c0c5d4e5c79bbaf5e0240afebe59d552f7f371de",
          "transactionIndex": "0xa",
          "logIndex": "0x42",
          "removed": false
        },
        {
          "address": "0x0000000000000000000000000000000000001010",
          "topics": [
            "0xe6497e3ee548a3372136af2fcb0696db31fc6cf20260707645068bd3fe97f3c4",
            "0x0000000000000000000000000000000000000000000000000000000000001010",
            "0x0000000000000000000000006edce65403992e310a62460808c4b910d972f10f",
            "0x0000000000000000000000005b73c5498c1e3b4dba84de0f1833c4a029d90519"
          ],
          "data": "0x0000000000000000000000000000000000000000000000000000dac34c45a05a0000000000000000000000000000000000000000000000000000dac34c45a05a0000000000000000000000000000000000000000000000000027ccc2ed1d21c400000000000000000000000000000000000000000000000000000000000000000000000000000000000000000000000000000000000000000028a7863962c21e",
          "blockHash": "0x1504f86ac03b36f58f6bc503c1d4dc550cf5d4bbf4348375f3bd3ca9815f8633",
          "blockNumber": "0xb5fcab",
          "transactionHash": "0xde3ae9e6aef22e2c41bb27e8c0c5d4e5c79bbaf5e0240afebe59d552f7f371de",
          "transactionIndex": "0xa",
          "logIndex": "0x43",
          "removed": false
        },
        {
          "address": "0x9918889e93e8c4357a2d4bce0965dcc493fffda8",
          "topics": [
            "0x85496b760a4b7f8d66384b9df21b381f5d1b1e79f229a47aaf4c232edc2fe59a",
            "0xf3178b7e26401173beeb4225bce992a39239f1686408e5078e1b80b7c1dd8836",
            "0x00000000000000000000000021af1185734d213d45c6236146fb81e2b0e8b821"
          ],
          "data": "0x0000000000000000000000000000000000000000000000000000000000009d35000000000000000000000000000000000000000000002a5a058fc295ed000000000000000000000000000000000000000000000000002a5a058fc295ed000000",
          "blockHash": "0x1504f86ac03b36f58f6bc503c1d4dc550cf5d4bbf4348375f3bd3ca9815f8633",
          "blockNumber": "0xb5fcab",
          "transactionHash": "0xde3ae9e6aef22e2c41bb27e8c0c5d4e5c79bbaf5e0240afebe59d552f7f371de",
          "transactionIndex": "0xa",
          "logIndex": "0x44",
          "removed": false
        },
        {
          "address": "0x0000000000000000000000000000000000001010",
          "topics": [
            "0x4dfe1bbbcf077ddc3e01291eea2d5c70c2b422b415d95645b9adcfd678cb1d63",
            "0x0000000000000000000000000000000000000000000000000000000000001010",
            "0x00000000000000000000000021af1185734d213d45c6236146fb81e2b0e8b821",
            "0x00000000000000000000000022b64229c41429a023549fdab3385893b579327a"
          ],
          "data": "0x0000000000000000000000000000000000000000000000000020662ba9509b40000000000000000000000000000000000000000000000003fd5f8f1a344e852f0000000000000000000000000000000000000000000000d64f7b37b4fe01a685000000000000000000000000000000000000000000000003fd3f28ee8afde9ef0000000000000000000000000000000000000000000000d64f9b9de0a75241c5",
          "blockHash": "0x1504f86ac03b36f58f6bc503c1d4dc550cf5d4bbf4348375f3bd3ca9815f8633",
          "blockNumber": "0xb5fcab",
          "transactionHash": "0xde3ae9e6aef22e2c41bb27e8c0c5d4e5c79bbaf5e0240afebe59d552f7f371de",
          "transactionIndex": "0xa",
          "logIndex": "0x45",
          "removed": false
        }
      ],
      "logsBloom": "0x400200000000000000100000000800000000000000000000000000000000000000000000000010002000001000000000000080000000000000001000000040000000028020000000000000080000008000000000000000000001000000020000000000200000000082000010000000000080000000000000800040100000000000000000002000200000000800000000000000000000000000000100000000002000000080000000081000260000000000000800004000000004c0002000004000000002000000000001002080000000000000000008801200108000000000000002040000000000000000000000002008000000008000000000000000100200",
      "type": "0x2",
      "transactionHash": "0xde3ae9e6aef22e2c41bb27e8c0c5d4e5c79bbaf5e0240afebe59d552f7f371de",
      "transactionIndex": "0xa",
      "blockHash": "0x1504f86ac03b36f58f6bc503c1d4dc550cf5d4bbf4348375f3bd3ca9815f8633",
      "blockNumber": "0xb5fcab",
      "gasUsed": "0x3b9e5",
      "effectiveGasPrice": "0x8b1ef7a4f",
      "from": "0x21af1185734d213d45c6236146fb81e2b0e8b821",
      "to": "0x9918889e93e8c4357a2d4bce0965dcc493fffda8",
      "contractAddress": null
    }
  ],
  "libraries": [],
  "pending": [],
  "returns": {},
  "timestamp": 1726242094,
  "chain": 80002,
  "commit": "ca84423"
}