{
  "transactions": [
    {
      "hash": "0x39a829fbb5fac7ae408383d927fdde6d30cd7ba5563415ade1526892947e91b7",
      "transactionType": "CALL",
      "contractName": null,
      "contractAddress": "0x3d2bd0e15829aa5c362a4144fdf4a1112fa29b5c",
      "function": "approve(address,uint256)",
      "arguments": [
        "0x9918889E93e8c4357a2D4bCE0965dcC493FFFDA8",
        "100000000000000000000"
      ],
      "transaction": {
        "from": "0x21af1185734d213d45c6236146fb81e2b0e8b821",
        "to": "0x3d2bd0e15829aa5c362a4144fdf4a1112fa29b5c",
        "gas": "0x107e5",
        "value": "0x0",
        "input": "0x095ea7b30000000000000000000000009918889e93e8c4357a2d4bce0965dcc493fffda80000000000000000000000000000000000000000000000056bc75e2d63100000",
        "nonce": "0x15",
        "chainId": "0x13882"
      },
      "additionalContracts": [],
      "isFixedGasLimit": false
    },
    {
      "hash": "0x860ac88c07aa8e8a132f36214a79e32414e1781e4c9d54abf63202162098c6f5",
      "transactionType": "CALL",
      "contractName": null,
      "contractAddress": "0x9918889e93e8c4357a2d4bce0965dcc493fffda8",
      "function": "send((uint32,bytes32,uint256,uint256,bytes,bytes,bytes),(uint256,uint256),address)",
      "arguments": [
        "(40305, 0x00000000000000000000000021af1185734d213d45c6236146fb81e2b0e8b821, 100000000000000000000, 100000000000000000000, 0x, 0x, 0x)",
        "(403799561589047416, 0)",
        "0x5b73C5498c1E3b4dbA84de0F1833c4a029d90519"
      ],
      "transaction": {
        "from": "0x21af1185734d213d45c6236146fb81e2b0e8b821",
        "to": "0x9918889e93e8c4357a2d4bce0965dcc493fffda8",
        "gas": "0x5acdb",
        "value": "0x59a958fd4f94078",
        "input": "0xc7c7f5b30000000000000000000000000000000000000000000000000000000000000080000000000000000000000000000000000000000000000000059a958fd4f9407800000000000000000000000000000000000000000000000000000000000000000000000000000000000000005b73c5498c1e3b4dba84de0f1833c4a029d905190000000000000000000000000000000000000000000000000000000000009d7100000000000000000000000021af1185734d213d45c6236146fb81e2b0e8b8210000000000000000000000000000000000000000000000056bc75e2d631000000000000000000000000000000000000000000000000000056bc75e2d6310000000000000000000000000000000000000000000000000000000000000000000e000000000000000000000000000000000000000000000000000000000000001000000000000000000000000000000000000000000000000000000000000000120000000000000000000000000000000000000000000000000000000000000000000000000000000000000000000000000000000000000000000000000000000000000000000000000000000000000000000000000000000000000000000000000",
        "nonce": "0x16",
        "chainId": "0x13882"
      },
      "additionalContracts": [],
      "isFixedGasLimit": false
    }
  ],
  "receipts": [
    {
      "status": "0x1",
      "cumulativeGasUsed": "0xb471",
      "logs": [
        {
          "address": "0x3d2bd0e15829aa5c362a4144fdf4a1112fa29b5c",
          "topics": [
            "0x8c5be1e5ebec7d5bd14f71427d1e84f3dd0314c0f7b2291e5b200ac8c7c3b925",
            "0x00000000000000000000000021af1185734d213d45c6236146fb81e2b0e8b821",
            "0x0000000000000000000000009918889e93e8c4357a2d4bce0965dcc493fffda8"
          ],
          "data": "0x0000000000000000000000000000000000000000000000056bc75e2d63100000",
          "blockHash": "0x20486af152e78f1d00fcde9f1cbe49c801cdda7a4de7ebb30236a2b51d48080a",
          "blockNumber": "0xab099c",
          "transactionHash": "0x39a829fbb5fac7ae408383d927fdde6d30cd7ba5563415ade1526892947e91b7",
          "transactionIndex": "0x0",
          "logIndex": "0x0",
          "removed": false
        },
        {
          "address": "0x0000000000000000000000000000000000001010",
          "topics": [
            "0x4dfe1bbbcf077ddc3e01291eea2d5c70c2b422b415d95645b9adcfd678cb1d63",
            "0x0000000000000000000000000000000000000000000000000000000000001010",
            "0x00000000000000000000000021af1185734d213d45c6236146fb81e2b0e8b821",
            "0x00000000000000000000000093feed2cc3d58c2b1bb62ce63125fa7fcaae7177"
          ],
          "data": "0x000000000000000000000000000000000000000000000000000516618609618f00000000000000000000000000000000000000000000000005d6ce216477521a000000000000000000000000000000000000000000000008e346dfa98b25889600000000000000000000000000000000000000000000000005d1b7bfde6df08b000000000000000000000000000000000000000000000008e34bf60b112eea25",
          "blockHash": "0x20486af152e78f1d00fcde9f1cbe49c801cdda7a4de7ebb30236a2b51d48080a",
          "blockNumber": "0xab099c",
          "transactionHash": "0x39a829fbb5fac7ae408383d927fdde6d30cd7ba5563415ade1526892947e91b7",
          "transactionIndex": "0x0",
          "logIndex": "0x1",
          "removed": false
        }
      ],
      "logsBloom": "0x40000000000000000000000000080000000000000000000000000000000000000000000000001000000000000000000000008000000000000000000000200000000000002000000004000000000000800000000000000000000100000000000000000020000000000000000000000000000000000000000080004000000000000000000000000000000000000000000000000000000000000000040000000000220000000400000008000000000000000000000000000000000080000000004000000000000000000001000000000000000000000000000000100000000000000012000000000000000000000000000000000000000000000000000000100000",
      "type": "0x2",
      "transactionHash": "0x39a829fbb5fac7ae408383d927fdde6d30cd7ba5563415ade1526892947e91b7",
      "transactionIndex": "0x0",
      "blockHash": "0x20486af152e78f1d00fcde9f1cbe49c801cdda7a4de7ebb30236a2b51d48080a",
      "blockNumber": "0xab099c",
      "gasUsed": "0xb471",
      "effectiveGasPrice": "0x737be760e",
      "from": "0x21af1185734d213d45c6236146fb81e2b0e8b821",
      "to": "0x3d2bd0e15829aa5c362a4144fdf4a1112fa29b5c",
      "contractAddress": null
    },
    {
      "status": "0x1",
      "cumulativeGasUsed": "0x4d049",
      "logs": [
        {
          "address": "0x0000000000000000000000000000000000001010",
          "topics": [
            "0xe6497e3ee548a3372136af2fcb0696db31fc6cf20260707645068bd3fe97f3c4",
            "0x0000000000000000000000000000000000000000000000000000000000001010",
            "0x00000000000000000000000021af1185734d213d45c6236146fb81e2b0e8b821",
            "0x0000000000000000000000009918889e93e8c4357a2d4bce0965dcc493fffda8"
          ],
          "data": "0x000000000000000000000000000000000000000000000000059a958fd4f9407800000000000000000000000000000000000000000000000005a8c166e8dcf7f20000000000000000000000000000000000000000000000000000000000000000000000000000000000000000000000000000000000000000000e2bd713e3b77a000000000000000000000000000000000000000000000000059a958fd4f94078",
          "blockHash": "0x20486af152e78f1d00fcde9f1cbe49c801cdda7a4de7ebb30236a2b51d48080a",
          "blockNumber": "0xab099c",
          "transactionHash": "0x860ac88c07aa8e8a132f36214a79e32414e1781e4c9d54abf63202162098c6f5",
          "transactionIndex": "0x1",
          "logIndex": "0x2",
          "removed": false
        },
        {
          "address": "0x3d2bd0e15829aa5c362a4144fdf4a1112fa29b5c",
          "topics": [
            "0xddf252ad1be2c89b69c2b068fc378daa952ba7f163c4a11628f55a4df523b3ef",
            "0x00000000000000000000000021af1185734d213d45c6236146fb81e2b0e8b821",
            "0x0000000000000000000000009918889e93e8c4357a2d4bce0965dcc493fffda8"
          ],
          "data": "0x0000000000000000000000000000000000000000000000056bc75e2d63100000",
          "blockHash": "0x20486af152e78f1d00fcde9f1cbe49c801cdda7a4de7ebb30236a2b51d48080a",
          "blockNumber": "0xab099c",
          "transactionHash": "0x860ac88c07aa8e8a132f36214a79e32414e1781e4c9d54abf63202162098c6f5",
          "transactionIndex": "0x1",
          "logIndex": "0x3",
          "removed": false
        },
        {
          "address": "0x0000000000000000000000000000000000001010",
          "topics": [
            "0xe6497e3ee548a3372136af2fcb0696db31fc6cf20260707645068bd3fe97f3c4",
            "0x0000000000000000000000000000000000000000000000000000000000001010",
            "0x0000000000000000000000009918889e93e8c4357a2d4bce0965dcc493fffda8",
            "0x0000000000000000000000006edce65403992e310a62460808c4b910d972f10f"
          ],
          "data": "0x000000000000000000000000000000000000000000000000059a958fd4f94078000000000000000000000000000000000000000000000000059a958fd4f9407800000000000000000000000000000000000000000000000000000000000000000000000000000000000000000000000000000000000000000000000000000000000000000000000000000000000000000000000000000000059a958fd4f94078",
          "blockHash": "0x20486af152e78f1d00fcde9f1cbe49c801cdda7a4de7ebb30236a2b51d48080a",
          "blockNumber": "0xab099c",
          "transactionHash": "0x860ac88c07aa8e8a132f36214a79e32414e1781e4c9d54abf63202162098c6f5",
          "transactionIndex": "0x1",
          "logIndex": "0x4",
          "removed": false
        },
        {
          "address": "0x1d186c560281b8f1af831957ed5047fd3ab902f9",
          "topics": [
            "0x61ed099e74a97a1d7f8bb0952a88ca8b7b8ebd00c126ea04671f92a81213318a"
          ],
          "data": "0x0000000000000000000000004cf1b3fa61465c2c907f82fc488b43223ba0cf930000000000000000000000000000000000000000000000000556454c07c8cfb0",
          "blockHash": "0x20486af152e78f1d00fcde9f1cbe49c801cdda7a4de7ebb30236a2b51d48080a",
          "blockNumber": "0xab099c",
          "transactionHash": "0x860ac88c07aa8e8a132f36214a79e32414e1781e4c9d54abf63202162098c6f5",
          "transactionIndex": "0x1",
          "logIndex": "0x5",
          "removed": false
        },
        {
          "address": "0x1d186c560281b8f1af831957ed5047fd3ab902f9",
          "topics": [
            "0x07ea52d82345d6e838192107d8fd7123d9c2ec8e916cd0aad13fd2b60db24644"
          ],
          "data": "0x000000000000000000000000000000000000000000000000000000000000006000000000000000000000000000000000000000000000000000000000000000a000000000000000000000000000000000000000000000000000000000000000c0000000000000000000000000000000000000000000000000000000000000000100000000000000000000000055c175dd5b039331db251424538169d8495c18d10000000000000000000000000000000000000000000000000000000000000000000000000000000000000000000000000000000000000000000000000000000100000000000000000000000000000000000000000000000000445043cd3070c8",
          "blockHash": "0x20486af152e78f1d00fcde9f1cbe49c801cdda7a4de7ebb30236a2b51d48080a",
          "blockNumber": "0xab099c",
          "transactionHash": "0x860ac88c07aa8e8a132f36214a79e32414e1781e4c9d54abf63202162098c6f5",
          "transactionIndex": "0x1",
          "logIndex": "0x6",
          "removed": false
        },
        {
          "address": "0x6edce65403992e310a62460808c4b910d972f10f",
          "topics": [
            "0x1ab700d4ced0c005b164c0f789fd09fcbb0156d4c2041b8a3bfbcd961cd1567f"
          ],
          "data": "0x000000000000000000000000000000000000000000000000000000000000006000000000000000000000000000000000000000000000000000000000000001200000000000000000000000001d186c560281b8f1af831957ed5047fd3ab902f9000000000000000000000000000000000000000000000000000000000000009901000000000000000100009d4b0000000000000000000000009918889e93e8c4357a2d4bce0965dcc493fffda800009d71000000000000000000000000b0588f9a9cade7cd5f194a5fe77acd6a58250f8288602f08ffc2a50f02e577638b693a0a782c0246ce39d28e4c3a0ea1ae5dc45d00000000000000000000000021af1185734d213d45c6236146fb81e2b0e8b8210000000005f5e1000000000000000000000000000000000000000000000000000000000000000000000000000000160003010011010000000000000000000000000000fde800000000000000000000",
          "blockHash": "0x20486af152e78f1d00fcde9f1cbe49c801cdda7a4de7ebb30236a2b51d48080a",
          "blockNumber": "0xab099c",
          "transactionHash": "0x860ac88c07aa8e8a132f36214a79e32414e1781e4c9d54abf63202162098c6f5",
          "transactionIndex": "0x1",
          "logIndex": "0x7",
          "removed": false
        },
        {
          "address": "0x0000000000000000000000000000000000001010",
          "topics": [
            "0xe6497e3ee548a3372136af2fcb0696db31fc6cf20260707645068bd3fe97f3c4",
            "0x0000000000000000000000000000000000000000000000000000000000001010",
            "0x0000000000000000000000006edce65403992e310a62460808c4b910d972f10f",
            "0x0000000000000000000000001d186c560281b8f1af831957ed5047fd3ab902f9"
          ],
          "data": "0x000000000000000000000000000000000000000000000000059a958fd4f94078000000000000000000000000000000000000000000000000059a958fd4f9407800000000000000000000000000000000000000000000004045764932511fa86a00000000000000000000000000000000000000000000000000000000000000000000000000000000000000000000000000000000000000404b10dec22618e8e2",
          "blockHash": "0x20486af152e78f1d00fcde9f1cbe49c801cdda7a4de7ebb30236a2b51d48080a",
          "blockNumber": "0xab099c",
          "transactionHash": "0x860ac88c07aa8e8a132f36214a79e32414e1781e4c9d54abf63202162098c6f5",
          "transactionIndex": "0x1",
          "logIndex": "0x8",
          "removed": false
        },
        {
          "address": "0x9918889e93e8c4357a2d4bce0965dcc493fffda8",
          "topics": [
            "0x85496b760a4b7f8d66384b9df21b381f5d1b1e79f229a47aaf4c232edc2fe59a",
            "0x88602f08ffc2a50f02e577638b693a0a782c0246ce39d28e4c3a0ea1ae5dc45d",
            "0x00000000000000000000000021af1185734d213d45c6236146fb81e2b0e8b821"
          ],
          "data": "0x0000000000000000000000000000000000000000000000000000000000009d710000000000000000000000000000000000000000000000056bc75e2d631000000000000000000000000000000000000000000000000000056bc75e2d63100000",
          "blockHash": "0x20486af152e78f1d00fcde9f1cbe49c801cdda7a4de7ebb30236a2b51d48080a",
          "blockNumber": "0xab099c",
          "transactionHash": "0x860ac88c07aa8e8a132f36214a79e32414e1781e4c9d54abf63202162098c6f5",
          "transactionIndex": "0x1",
          "logIndex": "0x9",
          "removed": false
        },
        {
          "address": "0x0000000000000000000000000000000000001010",
          "topics": [
            "0x4dfe1bbbcf077ddc3e01291eea2d5c70c2b422b415d95645b9adcfd678cb1d63",
            "0x0000000000000000000000000000000000000000000000000000000000001010",
            "0x00000000000000000000000021af1185734d213d45c6236146fb81e2b0e8b821",
            "0x00000000000000000000000093feed2cc3d58c2b1bb62ce63125fa7fcaae7177"
          ],
          "data": "0x000000000000000000000000000000000000000000000000001da7f1f721742800000000000000000000000000000000000000000000000005d1b7bfde635dec000000000000000000000000000000000000000000000008e34bf60b112eea2500000000000000000000000000000000000000000000000005b40fcde741e9c4000000000000000000000000000000000000000000000008e3699dfd08505e4d",
          "blockHash": "0x20486af152e78f1d00fcde9f1cbe49c801cdda7a4de7ebb30236a2b51d48080a",
          "blockNumber": "0xab099c",
          "transactionHash": "0x860ac88c07aa8e8a132f36214a79e32414e1781e4c9d54abf63202162098c6f5",
          "transactionIndex": "0x1",
          "logIndex": "0xa",
          "removed": false
        }
      ],
      "logsBloom": "0x400000000000000000000000000800000000000000000000000000000000000000000000000010002000001000000000000080000000000000000000000040000000028020000000040000080000008000000000000000000001000000020000000000200000000082000010000000000000000000000000800040100000000000000000000000200000000800000000000000000000000000000400000000002000000084000000081000240000000000080800004000000004c0000000004002000002000000000001002080000000000000000008801200108000000000000002040000040000000000000000002008000000008000000000000000100000",
      "type": "0x2",
      "transactionHash": "0x860ac88c07aa8e8a132f36214a79e32414e1781e4c9d54abf63202162098c6f5",
      "transactionIndex": "0x1",
      "blockHash": "0x20486af152e78f1d00fcde9f1cbe49c801cdda7a4de7ebb30236a2b51d48080a",
      "blockNumber": "0xab099c",
      "gasUsed": "0x41bd8",
      "effectiveGasPrice": "0x737be760e",
      "from": "0x21af1185734d213d45c6236146fb81e2b0e8b821",
      "to": "0x9918889e93e8c4357a2d4bce0965dcc493fffda8",
      "contractAddress": null
    }
  ],
  "libraries": [],
  "pending": [],
  "returns": {},
  "timestamp": 1724711835,
  "chain": 80002,
  "commit": "73dba9d"
}