{
  "transactions": [
    {
      "hash": null,
      "transactionType": "CALL",
      "contractName": null,
      "contractAddress": "0x3d2bD0e15829AA5C362a4144FdF4A1112fa29B5c",
      "function": "approve(address,uint256)",
      "arguments": [
        "0x303b63e785B656ca56ea5A5C1634Ab20C98895e1",
        "500000000000000000000000"
      ],
      "transaction": {
        "from": "0x21aF1185734D213D45C6236146fb81E2b0E8b821",
        "to": "0x3d2bD0e15829AA5C362a4144FdF4A1112fa29B5c",
        "gas": "0xf94b",
        "value": "0x0",
        "input": "0x095ea7b3000000000000000000000000303b63e785b656ca56ea5a5c1634ab20c98895e10000000000000000000000000000000000000000000069e10de76676d0800000",
        "nonce": "0x101",
        "chainId": "0x89"
      },
      "additionalContracts": [],
      "isFixedGasLimit": false
    },
    {
      "hash": null,
      "transactionType": "CALL",
      "contractName": "BonsaiOFTAdapter",
      "contractAddress": "0x303b63e785B656ca56ea5A5C1634Ab20C98895e1",
      "function": "send((uint32,bytes32,uint256,uint256,bytes,bytes,bytes),(uint256,uint256),address)",
      "arguments": [
        "(30184, 0x00000000000000000000000021af1185734d213d45c6236146fb81e2b0e8b821, 500000000000000000000000, 500000000000000000000000, 0x0003010011010000000000000000000000000007a120, 0x, 0x)",
        "(831684566519666333, 0)",
        "0x5b73C5498c1E3b4dbA84de0F1833c4a029d90519"
      ],
      "transaction": {
        "from": "0x21aF1185734D213D45C6236146fb81E2b0E8b821",
        "to": "0x303b63e785B656ca56ea5A5C1634Ab20C98895e1",
        "gas": "0x5d33b",
        "value": "0xb8abcb4f094569d",
        "input": "0xc7c7f5b300000000000000000000000000000000000000000000000000000000000000800000000000000000000000000000000000000000000000000b8abcb4f094569d00000000000000000000000000000000000000000000000000000000000000000000000000000000000000005b73c5498c1e3b4dba84de0f1833c4a029d9051900000000000000000000000000000000000000000000000000000000000075e800000000000000000000000021af1185734d213d45c6236146fb81e2b0e8b8210000000000000000000000000000000000000000000069e10de76676d08000000000000000000000000000000000000000000000000069e10de76676d080000000000000000000000000000000000000000000000000000000000000000000e00000000000000000000000000000000000000000000000000000000000000120000000000000000000000000000000000000000000000000000000000000014000000000000000000000000000000000000000000000000000000000000000160003010011010000000000000000000000000007a1200000000000000000000000000000000000000000000000000000000000000000000000000000000000000000000000000000000000000000000000000000000000000000000000000000",
        "nonce": "0x102",
        "chainId": "0x89"
      },
      "additionalContracts": [],
      "isFixedGasLimit": false
    },
    {
      "hash": null,
      "transactionType": "CALL",
      "contractName": null,
      "contractAddress": "0x3d2bD0e15829AA5C362a4144FdF4A1112fa29B5c",
      "function": "approve(address,uint256)",
      "arguments": [
        "0x303b63e785B656ca56ea5A5C1634Ab20C98895e1",
        "500000000000000000000000"
      ],
      "transaction": {
        "from": "0x21aF1185734D213D45C6236146fb81E2b0E8b821",
        "to": "0x3d2bD0e15829AA5C362a4144FdF4A1112fa29B5c",
        "gas": "0xf94b",
        "value": "0x0",
        "input": "0x095ea7b3000000000000000000000000303b63e785b656ca56ea5a5c1634ab20c98895e10000000000000000000000000000000000000000000069e10de76676d0800000",
        "nonce": "0x103",
        "chainId": "0x89"
      },
      "additionalContracts": [],
      "isFixedGasLimit": false
    },
    {
      "hash": null,
      "transactionType": "CALL",
      "contractName": "BonsaiOFTAdapter",
      "contractAddress": "0x303b63e785B656ca56ea5A5C1634Ab20C98895e1",
      "function": "send((uint32,bytes32,uint256,uint256,bytes,bytes,bytes),(uint256,uint256),address)",
      "arguments": [
        "(30184, 0x00000000000000000000000021af1185734d213d45c6236146fb81e2b0e8b821, 500000000000000000000000, 500000000000000000000000, 0x0003010011010000000000000000000000000007a120, 0x, 0x)",
        "(831684566519666333, 0)",
        "0x5b73C5498c1E3b4dbA84de0F1833c4a029d90519"
      ],
      "transaction": {
        "from": "0x21aF1185734D213D45C6236146fb81E2b0E8b821",
        "to": "0x303b63e785B656ca56ea5A5C1634Ab20C98895e1",
        "gas": "0x5d33b",
        "value": "0xb8abcb4f094569d",
        "input": "0xc7c7f5b300000000000000000000000000000000000000000000000000000000000000800000000000000000000000000000000000000000000000000b8abcb4f094569d00000000000000000000000000000000000000000000000000000000000000000000000000000000000000005b73c5498c1e3b4dba84de0f1833c4a029d9051900000000000000000000000000000000000000000000000000000000000075e800000000000000000000000021af1185734d213d45c6236146fb81e2b0e8b8210000000000000000000000000000000000000000000069e10de76676d08000000000000000000000000000000000000000000000000069e10de76676d080000000000000000000000000000000000000000000000000000000000000000000e00000000000000000000000000000000000000000000000000000000000000120000000000000000000000000000000000000000000000000000000000000014000000000000000000000000000000000000000000000000000000000000000160003010011010000000000000000000000000007a1200000000000000000000000000000000000000000000000000000000000000000000000000000000000000000000000000000000000000000000000000000000000000000000000000000",
        "nonce": "0x104",
        "chainId": "0x89"
      },
      "additionalContracts": [],
      "isFixedGasLimit": false
    }
  ],
  "receipts": [],
  "libraries": [],
  "pending": [],
  "returns": {},
  "timestamp": 1732891612,
  "chain": 137,
  "commit": "9bc9372"
}