{
  "transactions": [
    {
      "hash": null,
      "transactionType": "CALL",
      "contractName": null,
      "contractAddress": "0x3d2bD0e15829AA5C362a4144FdF4A1112fa29B5c",
      "function": "approve(address,uint256)",
      "arguments": [
        "0x303b63e785B656ca56ea5A5C1634Ab20C98895e1",
        "500000000000000000000000"
      ],
      "transaction": {
        "from": "0x21aF1185734D213D45C6236146fb81E2b0E8b821",
        "to": "0x3d2bD0e15829AA5C362a4144FdF4A1112fa29B5c",
        "gas": "0xf94b",
        "value": "0x0",
        "input": "0x095ea7b3000000000000000000000000303b63e785b656ca56ea5a5c1634ab20c98895e10000000000000000000000000000000000000000000069e10de76676d0800000",
        "nonce": "0x9b",
        "chainId": "0x89"
      },
      "additionalContracts": [],
      "isFixedGasLimit": false
    },
    {
      "hash": null,
      "transactionType": "CALL",
      "contractName": "BonsaiOFTAdapter",
      "contractAddress": "0x303b63e785B656ca56ea5A5C1634Ab20C98895e1",
      "function": "send((uint32,bytes32,uint256,uint256,bytes,bytes,bytes),(uint256,uint256),address)",
      "arguments": [
        "(30184, 0x00000000000000000000000021af1185734d213d45c6236146fb81e2b0e8b821, 500000000000000000000000, 500000000000000000000000, 0x0003010011010000000000000000000000000007a120, 0x, 0x)",
        "(331625219429226242, 0)",
        "0x5b73C5498c1E3b4dbA84de0F1833c4a029d90519"
      ],
      "transaction": {
        "from": "0x21aF1185734D213D45C6236146fb81E2b0E8b821",
        "to": "0x303b63e785B656ca56ea5A5C1634Ab20C98895e1",
        "gas": "0x5d32d",
        "value": "0x49a2b614aa3d702",
        "input": "0xc7c7f5b30000000000000000000000000000000000000000000000000000000000000080000000000000000000000000000000000000000000000000049a2b614aa3d70200000000000000000000000000000000000000000000000000000000000000000000000000000000000000005b73c5498c1e3b4dba84de0f1833c4a029d9051900000000000000000000000000000000000000000000000000000000000075e800000000000000000000000021af1185734d213d45c6236146fb81e2b0e8b8210000000000000000000000000000000000000000000069e10de76676d08000000000000000000000000000000000000000000000000069e10de76676d080000000000000000000000000000000000000000000000000000000000000000000e00000000000000000000000000000000000000000000000000000000000000120000000000000000000000000000000000000000000000000000000000000014000000000000000000000000000000000000000000000000000000000000000160003010011010000000000000000000000000007a1200000000000000000000000000000000000000000000000000000000000000000000000000000000000000000000000000000000000000000000000000000000000000000000000000000",
        "nonce": "0x9c",
        "chainId": "0x89"
      },
      "additionalContracts": [],
      "isFixedGasLimit": false
    },
    {
      "hash": null,
      "transactionType": "CALL",
      "contractName": null,
      "contractAddress": "0x3d2bD0e15829AA5C362a4144FdF4A1112fa29B5c",
      "function": "approve(address,uint256)",
      "arguments": [
        "0x303b63e785B656ca56ea5A5C1634Ab20C98895e1",
        "500000000000000000000000"
      ],
      "transaction": {
        "from": "0x21aF1185734D213D45C6236146fb81E2b0E8b821",
        "to": "0x3d2bD0e15829AA5C362a4144FdF4A1112fa29B5c",
        "gas": "0xf94b",
        "value": "0x0",
        "input": "0x095ea7b3000000000000000000000000303b63e785b656ca56ea5a5c1634ab20c98895e10000000000000000000000000000000000000000000069e10de76676d0800000",
        "nonce": "0x9d",
        "chainId": "0x89"
      },
      "additionalContracts": [],
      "isFixedGasLimit": false
    },
    {
      "hash": null,
      "transactionType": "CALL",
      "contractName": "BonsaiOFTAdapter",
      "contractAddress": "0x303b63e785B656ca56ea5A5C1634Ab20C98895e1",
      "function": "send((uint32,bytes32,uint256,uint256,bytes,bytes,bytes),(uint256,uint256),address)",
      "arguments": [
        "(30184, 0x00000000000000000000000021af1185734d213d45c6236146fb81e2b0e8b821, 500000000000000000000000, 500000000000000000000000, 0x0003010011010000000000000000000000000007a120, 0x, 0x)",
        "(331625219429226242, 0)",
        "0x5b73C5498c1E3b4dbA84de0F1833c4a029d90519"
      ],
      "transaction": {
        "from": "0x21aF1185734D213D45C6236146fb81E2b0E8b821",
        "to": "0x303b63e785B656ca56ea5A5C1634Ab20C98895e1",
        "gas": "0x5d32d",
        "value": "0x49a2b614aa3d702",
        "input": "0xc7c7f5b30000000000000000000000000000000000000000000000000000000000000080000000000000000000000000000000000000000000000000049a2b614aa3d70200000000000000000000000000000000000000000000000000000000000000000000000000000000000000005b73c5498c1e3b4dba84de0f1833c4a029d9051900000000000000000000000000000000000000000000000000000000000075e800000000000000000000000021af1185734d213d45c6236146fb81e2b0e8b8210000000000000000000000000000000000000000000069e10de76676d08000000000000000000000000000000000000000000000000069e10de76676d080000000000000000000000000000000000000000000000000000000000000000000e00000000000000000000000000000000000000000000000000000000000000120000000000000000000000000000000000000000000000000000000000000014000000000000000000000000000000000000000000000000000000000000000160003010011010000000000000000000000000007a1200000000000000000000000000000000000000000000000000000000000000000000000000000000000000000000000000000000000000000000000000000000000000000000000000000",
        "nonce": "0x9e",
        "chainId": "0x89"
      },
      "additionalContracts": [],
      "isFixedGasLimit": false
    },
    {
      "hash": null,
      "transactionType": "CALL",
      "contractName": null,
      "contractAddress": "0x3d2bD0e15829AA5C362a4144FdF4A1112fa29B5c",
      "function": "approve(address,uint256)",
      "arguments": [
        "0x303b63e785B656ca56ea5A5C1634Ab20C98895e1",
        "500000000000000000000000"
      ],
      "transaction": {
        "from": "0x21aF1185734D213D45C6236146fb81E2b0E8b821",
        "to": "0x3d2bD0e15829AA5C362a4144FdF4A1112fa29B5c",
        "gas": "0xf94b",
        "value": "0x0",
        "input": "0x095ea7b3000000000000000000000000303b63e785b656ca56ea5a5c1634ab20c98895e10000000000000000000000000000000000000000000069e10de76676d0800000",
        "nonce": "0x9f",
        "chainId": "0x89"
      },
      "additionalContracts": [],
      "isFixedGasLimit": false
    },
    {
      "hash": null,
      "transactionType": "CALL",
      "contractName": "BonsaiOFTAdapter",
      "contractAddress": "0x303b63e785B656ca56ea5A5C1634Ab20C98895e1",
      "function": "send((uint32,bytes32,uint256,uint256,bytes,bytes,bytes),(uint256,uint256),address)",
      "arguments": [
        "(30184, 0x00000000000000000000000021af1185734d213d45c6236146fb81e2b0e8b821, 500000000000000000000000, 500000000000000000000000, 0x0003010011010000000000000000000000000007a120, 0x, 0x)",
        "(331625219429226242, 0)",
        "0x5b73C5498c1E3b4dbA84de0F1833c4a029d90519"
      ],
      "transaction": {
        "from": "0x21aF1185734D213D45C6236146fb81E2b0E8b821",
        "to": "0x303b63e785B656ca56ea5A5C1634Ab20C98895e1",
        "gas": "0x5d32d",
        "value": "0x49a2b614aa3d702",
        "input": "0xc7c7f5b30000000000000000000000000000000000000000000000000000000000000080000000000000000000000000000000000000000000000000049a2b614aa3d70200000000000000000000000000000000000000000000000000000000000000000000000000000000000000005b73c5498c1e3b4dba84de0f1833c4a029d9051900000000000000000000000000000000000000000000000000000000000075e800000000000000000000000021af1185734d213d45c6236146fb81e2b0e8b8210000000000000000000000000000000000000000000069e10de76676d08000000000000000000000000000000000000000000000000069e10de76676d080000000000000000000000000000000000000000000000000000000000000000000e00000000000000000000000000000000000000000000000000000000000000120000000000000000000000000000000000000000000000000000000000000014000000000000000000000000000000000000000000000000000000000000000160003010011010000000000000000000000000007a1200000000000000000000000000000000000000000000000000000000000000000000000000000000000000000000000000000000000000000000000000000000000000000000000000000",
        "nonce": "0xa0",
        "chainId": "0x89"
      },
      "additionalContracts": [],
      "isFixedGasLimit": false
    },
    {
      "hash": null,
      "transactionType": "CALL",
      "contractName": null,
      "contractAddress": "0x3d2bD0e15829AA5C362a4144FdF4A1112fa29B5c",
      "function": "approve(address,uint256)",
      "arguments": [
        "0x303b63e785B656ca56ea5A5C1634Ab20C98895e1",
        "500000000000000000000000"
      ],
      "transaction": {
        "from": "0x21aF1185734D213D45C6236146fb81E2b0E8b821",
        "to": "0x3d2bD0e15829AA5C362a4144FdF4A1112fa29B5c",
        "gas": "0xf94b",
        "value": "0x0",
        "input": "0x095ea7b3000000000000000000000000303b63e785b656ca56ea5a5c1634ab20c98895e10000000000000000000000000000000000000000000069e10de76676d0800000",
        "nonce": "0xa1",
        "chainId": "0x89"
      },
      "additionalContracts": [],
      "isFixedGasLimit": false
    },
    {
      "hash": null,
      "transactionType": "CALL",
      "contractName": "BonsaiOFTAdapter",
      "contractAddress": "0x303b63e785B656ca56ea5A5C1634Ab20C98895e1",
      "function": "send((uint32,bytes32,uint256,uint256,bytes,bytes,bytes),(uint256,uint256),address)",
      "arguments": [
        "(30184, 0x00000000000000000000000021af1185734d213d45c6236146fb81e2b0e8b821, 500000000000000000000000, 500000000000000000000000, 0x0003010011010000000000000000000000000007a120, 0x, 0x)",
        "(331625219429226242, 0)",
        "0x5b73C5498c1E3b4dbA84de0F1833c4a029d90519"
      ],
      "transaction": {
        "from": "0x21aF1185734D213D45C6236146fb81E2b0E8b821",
        "to": "0x303b63e785B656ca56ea5A5C1634Ab20C98895e1",
        "gas": "0x5d32d",
        "value": "0x49a2b614aa3d702",
        "input": "0xc7c7f5b30000000000000000000000000000000000000000000000000000000000000080000000000000000000000000000000000000000000000000049a2b614aa3d70200000000000000000000000000000000000000000000000000000000000000000000000000000000000000005b73c5498c1e3b4dba84de0f1833c4a029d9051900000000000000000000000000000000000000000000000000000000000075e800000000000000000000000021af1185734d213d45c6236146fb81e2b0e8b8210000000000000000000000000000000000000000000069e10de76676d08000000000000000000000000000000000000000000000000069e10de76676d080000000000000000000000000000000000000000000000000000000000000000000e00000000000000000000000000000000000000000000000000000000000000120000000000000000000000000000000000000000000000000000000000000014000000000000000000000000000000000000000000000000000000000000000160003010011010000000000000000000000000007a1200000000000000000000000000000000000000000000000000000000000000000000000000000000000000000000000000000000000000000000000000000000000000000000000000000",
        "nonce": "0xa2",
        "chainId": "0x89"
      },
      "additionalContracts": [],
      "isFixedGasLimit": false
    },
    {
      "hash": null,
      "transactionType": "CALL",
      "contractName": null,
      "contractAddress": "0x3d2bD0e15829AA5C362a4144FdF4A1112fa29B5c",
      "function": "approve(address,uint256)",
      "arguments": [
        "0x303b63e785B656ca56ea5A5C1634Ab20C98895e1",
        "500000000000000000000000"
      ],
      "transaction": {
        "from": "0x21aF1185734D213D45C6236146fb81E2b0E8b821",
        "to": "0x3d2bD0e15829AA5C362a4144FdF4A1112fa29B5c",
        "gas": "0xf94b",
        "value": "0x0",
        "input": "0x095ea7b3000000000000000000000000303b63e785b656ca56ea5a5c1634ab20c98895e10000000000000000000000000000000000000000000069e10de76676d0800000",
        "nonce": "0xa3",
        "chainId": "0x89"
      },
      "additionalContracts": [],
      "isFixedGasLimit": false
    },
    {
      "hash": null,
      "transactionType": "CALL",
      "contractName": "BonsaiOFTAdapter",
      "contractAddress": "0x303b63e785B656ca56ea5A5C1634Ab20C98895e1",
      "function": "send((uint32,bytes32,uint256,uint256,bytes,bytes,bytes),(uint256,uint256),address)",
      "arguments": [
        "(30184, 0x00000000000000000000000021af1185734d213d45c6236146fb81e2b0e8b821, 500000000000000000000000, 500000000000000000000000, 0x0003010011010000000000000000000000000007a120, 0x, 0x)",
        "(331625219429226242, 0)",
        "0x5b73C5498c1E3b4dbA84de0F1833c4a029d90519"
      ],
      "transaction": {
        "from": "0x21aF1185734D213D45C6236146fb81E2b0E8b821",
        "to": "0x303b63e785B656ca56ea5A5C1634Ab20C98895e1",
        "gas": "0x5d32d",
        "value": "0x49a2b614aa3d702",
        "input": "0xc7c7f5b30000000000000000000000000000000000000000000000000000000000000080000000000000000000000000000000000000000000000000049a2b614aa3d70200000000000000000000000000000000000000000000000000000000000000000000000000000000000000005b73c5498c1e3b4dba84de0f1833c4a029d9051900000000000000000000000000000000000000000000000000000000000075e800000000000000000000000021af1185734d213d45c6236146fb81e2b0e8b8210000000000000000000000000000000000000000000069e10de76676d08000000000000000000000000000000000000000000000000069e10de76676d080000000000000000000000000000000000000000000000000000000000000000000e00000000000000000000000000000000000000000000000000000000000000120000000000000000000000000000000000000000000000000000000000000014000000000000000000000000000000000000000000000000000000000000000160003010011010000000000000000000000000007a1200000000000000000000000000000000000000000000000000000000000000000000000000000000000000000000000000000000000000000000000000000000000000000000000000000",
        "nonce": "0xa4",
        "chainId": "0x89"
      },
      "additionalContracts": [],
      "isFixedGasLimit": false
    },
    {
      "hash": null,
      "transactionType": "CALL",
      "contractName": null,
      "contractAddress": "0x3d2bD0e15829AA5C362a4144FdF4A1112fa29B5c",
      "function": "approve(address,uint256)",
      "arguments": [
        "0x303b63e785B656ca56ea5A5C1634Ab20C98895e1",
        "500000000000000000000000"
      ],
      "transaction": {
        "from": "0x21aF1185734D213D45C6236146fb81E2b0E8b821",
        "to": "0x3d2bD0e15829AA5C362a4144FdF4A1112fa29B5c",
        "gas": "0xf94b",
        "value": "0x0",
        "input": "0x095ea7b3000000000000000000000000303b63e785b656ca56ea5a5c1634ab20c98895e10000000000000000000000000000000000000000000069e10de76676d0800000",
        "nonce": "0xa5",
        "chainId": "0x89"
      },
      "additionalContracts": [],
      "isFixedGasLimit": false
    },
    {
      "hash": null,
      "transactionType": "CALL",
      "contractName": "BonsaiOFTAdapter",
      "contractAddress": "0x303b63e785B656ca56ea5A5C1634Ab20C98895e1",
      "function": "send((uint32,bytes32,uint256,uint256,bytes,bytes,bytes),(uint256,uint256),address)",
      "arguments": [
        "(30184, 0x00000000000000000000000021af1185734d213d45c6236146fb81e2b0e8b821, 500000000000000000000000, 500000000000000000000000, 0x0003010011010000000000000000000000000007a120, 0x, 0x)",
        "(331625219429226242, 0)",
        "0x5b73C5498c1E3b4dbA84de0F1833c4a029d90519"
      ],
      "transaction": {
        "from": "0x21aF1185734D213D45C6236146fb81E2b0E8b821",
        "to": "0x303b63e785B656ca56ea5A5C1634Ab20C98895e1",
        "gas": "0x5d32d",
        "value": "0x49a2b614aa3d702",
        "input": "0xc7c7f5b30000000000000000000000000000000000000000000000000000000000000080000000000000000000000000000000000000000000000000049a2b614aa3d70200000000000000000000000000000000000000000000000000000000000000000000000000000000000000005b73c5498c1e3b4dba84de0f1833c4a029d9051900000000000000000000000000000000000000000000000000000000000075e800000000000000000000000021af1185734d213d45c6236146fb81e2b0e8b8210000000000000000000000000000000000000000000069e10de76676d08000000000000000000000000000000000000000000000000069e10de76676d080000000000000000000000000000000000000000000000000000000000000000000e00000000000000000000000000000000000000000000000000000000000000120000000000000000000000000000000000000000000000000000000000000014000000000000000000000000000000000000000000000000000000000000000160003010011010000000000000000000000000007a1200000000000000000000000000000000000000000000000000000000000000000000000000000000000000000000000000000000000000000000000000000000000000000000000000000",
        "nonce": "0xa6",
        "chainId": "0x89"
      },
      "additionalContracts": [],
      "isFixedGasLimit": false
    },
    {
      "hash": null,
      "transactionType": "CALL",
      "contractName": null,
      "contractAddress": "0x3d2bD0e15829AA5C362a4144FdF4A1112fa29B5c",
      "function": "approve(address,uint256)",
      "arguments": [
        "0x303b63e785B656ca56ea5A5C1634Ab20C98895e1",
        "500000000000000000000000"
      ],
      "transaction": {
        "from": "0x21aF1185734D213D45C6236146fb81E2b0E8b821",
        "to": "0x3d2bD0e15829AA5C362a4144FdF4A1112fa29B5c",
        "gas": "0xf94b",
        "value": "0x0",
        "input": "0x095ea7b3000000000000000000000000303b63e785b656ca56ea5a5c1634ab20c98895e10000000000000000000000000000000000000000000069e10de76676d0800000",
        "nonce": "0xa7",
        "chainId": "0x89"
      },
      "additionalContracts": [],
      "isFixedGasLimit": false
    },
    {
      "hash": null,
      "transactionType": "CALL",
      "contractName": "BonsaiOFTAdapter",
      "contractAddress": "0x303b63e785B656ca56ea5A5C1634Ab20C98895e1",
      "function": "send((uint32,bytes32,uint256,uint256,bytes,bytes,bytes),(uint256,uint256),address)",
      "arguments": [
        "(30184, 0x00000000000000000000000021af1185734d213d45c6236146fb81e2b0e8b821, 500000000000000000000000, 500000000000000000000000, 0x0003010011010000000000000000000000000007a120, 0x, 0x)",
        "(331625219429226242, 0)",
        "0x5b73C5498c1E3b4dbA84de0F1833c4a029d90519"
      ],
      "transaction": {
        "from": "0x21aF1185734D213D45C6236146fb81E2b0E8b821",
        "to": "0x303b63e785B656ca56ea5A5C1634Ab20C98895e1",
        "gas": "0x5d32d",
        "value": "0x49a2b614aa3d702",
        "input": "0xc7c7f5b30000000000000000000000000000000000000000000000000000000000000080000000000000000000000000000000000000000000000000049a2b614aa3d70200000000000000000000000000000000000000000000000000000000000000000000000000000000000000005b73c5498c1e3b4dba84de0f1833c4a029d9051900000000000000000000000000000000000000000000000000000000000075e800000000000000000000000021af1185734d213d45c6236146fb81e2b0e8b8210000000000000000000000000000000000000000000069e10de76676d08000000000000000000000000000000000000000000000000069e10de76676d080000000000000000000000000000000000000000000000000000000000000000000e00000000000000000000000000000000000000000000000000000000000000120000000000000000000000000000000000000000000000000000000000000014000000000000000000000000000000000000000000000000000000000000000160003010011010000000000000000000000000007a1200000000000000000000000000000000000000000000000000000000000000000000000000000000000000000000000000000000000000000000000000000000000000000000000000000",
        "nonce": "0xa8",
        "chainId": "0x89"
      },
      "additionalContracts": [],
      "isFixedGasLimit": false
    },
    {
      "hash": null,
      "transactionType": "CALL",
      "contractName": null,
      "contractAddress": "0x3d2bD0e15829AA5C362a4144FdF4A1112fa29B5c",
      "function": "approve(address,uint256)",
      "arguments": [
        "0x303b63e785B656ca56ea5A5C1634Ab20C98895e1",
        "500000000000000000000000"
      ],
      "transaction": {
        "from": "0x21aF1185734D213D45C6236146fb81E2b0E8b821",
        "to": "0x3d2bD0e15829AA5C362a4144FdF4A1112fa29B5c",
        "gas": "0xf94b",
        "value": "0x0",
        "input": "0x095ea7b3000000000000000000000000303b63e785b656ca56ea5a5c1634ab20c98895e10000000000000000000000000000000000000000000069e10de76676d0800000",
        "nonce": "0xa9",
        "chainId": "0x89"
      },
      "additionalContracts": [],
      "isFixedGasLimit": false
    },
    {
      "hash": null,
      "transactionType": "CALL",
      "contractName": "BonsaiOFTAdapter",
      "contractAddress": "0x303b63e785B656ca56ea5A5C1634Ab20C98895e1",
      "function": "send((uint32,bytes32,uint256,uint256,bytes,bytes,bytes),(uint256,uint256),address)",
      "arguments": [
        "(30184, 0x00000000000000000000000021af1185734d213d45c6236146fb81e2b0e8b821, 500000000000000000000000, 500000000000000000000000, 0x0003010011010000000000000000000000000007a120, 0x, 0x)",
        "(331625219429226242, 0)",
        "0x5b73C5498c1E3b4dbA84de0F1833c4a029d90519"
      ],
      "transaction": {
        "from": "0x21aF1185734D213D45C6236146fb81E2b0E8b821",
        "to": "0x303b63e785B656ca56ea5A5C1634Ab20C98895e1",
        "gas": "0x5d32d",
        "value": "0x49a2b614aa3d702",
        "input": "0xc7c7f5b30000000000000000000000000000000000000000000000000000000000000080000000000000000000000000000000000000000000000000049a2b614aa3d70200000000000000000000000000000000000000000000000000000000000000000000000000000000000000005b73c5498c1e3b4dba84de0f1833c4a029d9051900000000000000000000000000000000000000000000000000000000000075e800000000000000000000000021af1185734d213d45c6236146fb81e2b0e8b8210000000000000000000000000000000000000000000069e10de76676d08000000000000000000000000000000000000000000000000069e10de76676d080000000000000000000000000000000000000000000000000000000000000000000e00000000000000000000000000000000000000000000000000000000000000120000000000000000000000000000000000000000000000000000000000000014000000000000000000000000000000000000000000000000000000000000000160003010011010000000000000000000000000007a1200000000000000000000000000000000000000000000000000000000000000000000000000000000000000000000000000000000000000000000000000000000000000000000000000000",
        "nonce": "0xaa",
        "chainId": "0x89"
      },
      "additionalContracts": [],
      "isFixedGasLimit": false
    },
    {
      "hash": null,
      "transactionType": "CALL",
      "contractName": null,
      "contractAddress": "0x3d2bD0e15829AA5C362a4144FdF4A1112fa29B5c",
      "function": "approve(address,uint256)",
      "arguments": [
        "0x303b63e785B656ca56ea5A5C1634Ab20C98895e1",
        "500000000000000000000000"
      ],
      "transaction": {
        "from": "0x21aF1185734D213D45C6236146fb81E2b0E8b821",
        "to": "0x3d2bD0e15829AA5C362a4144FdF4A1112fa29B5c",
        "gas": "0xf94b",
        "value": "0x0",
        "input": "0x095ea7b3000000000000000000000000303b63e785b656ca56ea5a5c1634ab20c98895e10000000000000000000000000000000000000000000069e10de76676d0800000",
        "nonce": "0xab",
        "chainId": "0x89"
      },
      "additionalContracts": [],
      "isFixedGasLimit": false
    },
    {
      "hash": null,
      "transactionType": "CALL",
      "contractName": "BonsaiOFTAdapter",
      "contractAddress": "0x303b63e785B656ca56ea5A5C1634Ab20C98895e1",
      "function": "send((uint32,bytes32,uint256,uint256,bytes,bytes,bytes),(uint256,uint256),address)",
      "arguments": [
        "(30184, 0x00000000000000000000000021af1185734d213d45c6236146fb81e2b0e8b821, 500000000000000000000000, 500000000000000000000000, 0x0003010011010000000000000000000000000007a120, 0x, 0x)",
        "(331625219429226242, 0)",
        "0x5b73C5498c1E3b4dbA84de0F1833c4a029d90519"
      ],
      "transaction": {
        "from": "0x21aF1185734D213D45C6236146fb81E2b0E8b821",
        "to": "0x303b63e785B656ca56ea5A5C1634Ab20C98895e1",
        "gas": "0x5d32d",
        "value": "0x49a2b614aa3d702",
        "input": "0xc7c7f5b30000000000000000000000000000000000000000000000000000000000000080000000000000000000000000000000000000000000000000049a2b614aa3d70200000000000000000000000000000000000000000000000000000000000000000000000000000000000000005b73c5498c1e3b4dba84de0f1833c4a029d9051900000000000000000000000000000000000000000000000000000000000075e800000000000000000000000021af1185734d213d45c6236146fb81e2b0e8b8210000000000000000000000000000000000000000000069e10de76676d08000000000000000000000000000000000000000000000000069e10de76676d080000000000000000000000000000000000000000000000000000000000000000000e00000000000000000000000000000000000000000000000000000000000000120000000000000000000000000000000000000000000000000000000000000014000000000000000000000000000000000000000000000000000000000000000160003010011010000000000000000000000000007a1200000000000000000000000000000000000000000000000000000000000000000000000000000000000000000000000000000000000000000000000000000000000000000000000000000",
        "nonce": "0xac",
        "chainId": "0x89"
      },
      "additionalContracts": [],
      "isFixedGasLimit": false
    },
    {
      "hash": null,
      "transactionType": "CALL",
      "contractName": null,
      "contractAddress": "0x3d2bD0e15829AA5C362a4144FdF4A1112fa29B5c",
      "function": "approve(address,uint256)",
      "arguments": [
        "0x303b63e785B656ca56ea5A5C1634Ab20C98895e1",
        "500000000000000000000000"
      ],
      "transaction": {
        "from": "0x21aF1185734D213D45C6236146fb81E2b0E8b821",
        "to": "0x3d2bD0e15829AA5C362a4144FdF4A1112fa29B5c",
        "gas": "0xf94b",
        "value": "0x0",
        "input": "0x095ea7b3000000000000000000000000303b63e785b656ca56ea5a5c1634ab20c98895e10000000000000000000000000000000000000000000069e10de76676d0800000",
        "nonce": "0xad",
        "chainId": "0x89"
      },
      "additionalContracts": [],
      "isFixedGasLimit": false
    },
    {
      "hash": null,
      "transactionType": "CALL",
      "contractName": "BonsaiOFTAdapter",
      "contractAddress": "0x303b63e785B656ca56ea5A5C1634Ab20C98895e1",
      "function": "send((uint32,bytes32,uint256,uint256,bytes,bytes,bytes),(uint256,uint256),address)",
      "arguments": [
        "(30184, 0x00000000000000000000000021af1185734d213d45c6236146fb81e2b0e8b821, 500000000000000000000000, 500000000000000000000000, 0x0003010011010000000000000000000000000007a120, 0x, 0x)",
        "(331625219429226242, 0)",
        "0x5b73C5498c1E3b4dbA84de0F1833c4a029d90519"
      ],
      "transaction": {
        "from": "0x21aF1185734D213D45C6236146fb81E2b0E8b821",
        "to": "0x303b63e785B656ca56ea5A5C1634Ab20C98895e1",
        "gas": "0x5d32d",
        "value": "0x49a2b614aa3d702",
        "input": "0xc7c7f5b30000000000000000000000000000000000000000000000000000000000000080000000000000000000000000000000000000000000000000049a2b614aa3d70200000000000000000000000000000000000000000000000000000000000000000000000000000000000000005b73c5498c1e3b4dba84de0f1833c4a029d9051900000000000000000000000000000000000000000000000000000000000075e800000000000000000000000021af1185734d213d45c6236146fb81e2b0e8b8210000000000000000000000000000000000000000000069e10de76676d08000000000000000000000000000000000000000000000000069e10de76676d080000000000000000000000000000000000000000000000000000000000000000000e00000000000000000000000000000000000000000000000000000000000000120000000000000000000000000000000000000000000000000000000000000014000000000000000000000000000000000000000000000000000000000000000160003010011010000000000000000000000000007a1200000000000000000000000000000000000000000000000000000000000000000000000000000000000000000000000000000000000000000000000000000000000000000000000000000",
        "nonce": "0xae",
        "chainId": "0x89"
      },
      "additionalContracts": [],
      "isFixedGasLimit": false
    },
    {
      "hash": null,
      "transactionType": "CALL",
      "contractName": null,
      "contractAddress": "0x3d2bD0e15829AA5C362a4144FdF4A1112fa29B5c",
      "function": "approve(address,uint256)",
      "arguments": [
        "0x303b63e785B656ca56ea5A5C1634Ab20C98895e1",
        "500000000000000000000000"
      ],
      "transaction": {
        "from": "0x21aF1185734D213D45C6236146fb81E2b0E8b821",
        "to": "0x3d2bD0e15829AA5C362a4144FdF4A1112fa29B5c",
        "gas": "0xf94b",
        "value": "0x0",
        "input": "0x095ea7b3000000000000000000000000303b63e785b656ca56ea5a5c1634ab20c98895e10000000000000000000000000000000000000000000069e10de76676d0800000",
        "nonce": "0xaf",
        "chainId": "0x89"
      },
      "additionalContracts": [],
      "isFixedGasLimit": false
    },
    {
      "hash": null,
      "transactionType": "CALL",
      "contractName": "BonsaiOFTAdapter",
      "contractAddress": "0x303b63e785B656ca56ea5A5C1634Ab20C98895e1",
      "function": "send((uint32,bytes32,uint256,uint256,bytes,bytes,bytes),(uint256,uint256),address)",
      "arguments": [
        "(30184, 0x00000000000000000000000021af1185734d213d45c6236146fb81e2b0e8b821, 500000000000000000000000, 500000000000000000000000, 0x0003010011010000000000000000000000000007a120, 0x, 0x)",
        "(331625219429226242, 0)",
        "0x5b73C5498c1E3b4dbA84de0F1833c4a029d90519"
      ],
      "transaction": {
        "from": "0x21aF1185734D213D45C6236146fb81E2b0E8b821",
        "to": "0x303b63e785B656ca56ea5A5C1634Ab20C98895e1",
        "gas": "0x5d32d",
        "value": "0x49a2b614aa3d702",
        "input": "0xc7c7f5b30000000000000000000000000000000000000000000000000000000000000080000000000000000000000000000000000000000000000000049a2b614aa3d70200000000000000000000000000000000000000000000000000000000000000000000000000000000000000005b73c5498c1e3b4dba84de0f1833c4a029d9051900000000000000000000000000000000000000000000000000000000000075e800000000000000000000000021af1185734d213d45c6236146fb81e2b0e8b8210000000000000000000000000000000000000000000069e10de76676d08000000000000000000000000000000000000000000000000069e10de76676d080000000000000000000000000000000000000000000000000000000000000000000e00000000000000000000000000000000000000000000000000000000000000120000000000000000000000000000000000000000000000000000000000000014000000000000000000000000000000000000000000000000000000000000000160003010011010000000000000000000000000007a1200000000000000000000000000000000000000000000000000000000000000000000000000000000000000000000000000000000000000000000000000000000000000000000000000000",
        "nonce": "0xb0",
        "chainId": "0x89"
      },
      "additionalContracts": [],
      "isFixedGasLimit": false
    },
    {
      "hash": null,
      "transactionType": "CALL",
      "contractName": null,
      "contractAddress": "0x3d2bD0e15829AA5C362a4144FdF4A1112fa29B5c",
      "function": "approve(address,uint256)",
      "arguments": [
        "0x303b63e785B656ca56ea5A5C1634Ab20C98895e1",
        "500000000000000000000000"
      ],
      "transaction": {
        "from": "0x21aF1185734D213D45C6236146fb81E2b0E8b821",
        "to": "0x3d2bD0e15829AA5C362a4144FdF4A1112fa29B5c",
        "gas": "0xf94b",
        "value": "0x0",
        "input": "0x095ea7b3000000000000000000000000303b63e785b656ca56ea5a5c1634ab20c98895e10000000000000000000000000000000000000000000069e10de76676d0800000",
        "nonce": "0xb1",
        "chainId": "0x89"
      },
      "additionalContracts": [],
      "isFixedGasLimit": false
    },
    {
      "hash": null,
      "transactionType": "CALL",
      "contractName": "BonsaiOFTAdapter",
      "contractAddress": "0x303b63e785B656ca56ea5A5C1634Ab20C98895e1",
      "function": "send((uint32,bytes32,uint256,uint256,bytes,bytes,bytes),(uint256,uint256),address)",
      "arguments": [
        "(30184, 0x00000000000000000000000021af1185734d213d45c6236146fb81e2b0e8b821, 500000000000000000000000, 500000000000000000000000, 0x0003010011010000000000000000000000000007a120, 0x, 0x)",
        "(331625219429226242, 0)",
        "0x5b73C5498c1E3b4dbA84de0F1833c4a029d90519"
      ],
      "transaction": {
        "from": "0x21aF1185734D213D45C6236146fb81E2b0E8b821",
        "to": "0x303b63e785B656ca56ea5A5C1634Ab20C98895e1",
        "gas": "0x5d32d",
        "value": "0x49a2b614aa3d702",
        "input": "0xc7c7f5b30000000000000000000000000000000000000000000000000000000000000080000000000000000000000000000000000000000000000000049a2b614aa3d70200000000000000000000000000000000000000000000000000000000000000000000000000000000000000005b73c5498c1e3b4dba84de0f1833c4a029d9051900000000000000000000000000000000000000000000000000000000000075e800000000000000000000000021af1185734d213d45c6236146fb81e2b0e8b8210000000000000000000000000000000000000000000069e10de76676d08000000000000000000000000000000000000000000000000069e10de76676d080000000000000000000000000000000000000000000000000000000000000000000e00000000000000000000000000000000000000000000000000000000000000120000000000000000000000000000000000000000000000000000000000000014000000000000000000000000000000000000000000000000000000000000000160003010011010000000000000000000000000007a1200000000000000000000000000000000000000000000000000000000000000000000000000000000000000000000000000000000000000000000000000000000000000000000000000000",
        "nonce": "0xb2",
        "chainId": "0x89"
      },
      "additionalContracts": [],
      "isFixedGasLimit": false
    },
    {
      "hash": null,
      "transactionType": "CALL",
      "contractName": null,
      "contractAddress": "0x3d2bD0e15829AA5C362a4144FdF4A1112fa29B5c",
      "function": "approve(address,uint256)",
      "arguments": [
        "0x303b63e785B656ca56ea5A5C1634Ab20C98895e1",
        "500000000000000000000000"
      ],
      "transaction": {
        "from": "0x21aF1185734D213D45C6236146fb81E2b0E8b821",
        "to": "0x3d2bD0e15829AA5C362a4144FdF4A1112fa29B5c",
        "gas": "0xf94b",
        "value": "0x0",
        "input": "0x095ea7b3000000000000000000000000303b63e785b656ca56ea5a5c1634ab20c98895e10000000000000000000000000000000000000000000069e10de76676d0800000",
        "nonce": "0xb3",
        "chainId": "0x89"
      },
      "additionalContracts": [],
      "isFixedGasLimit": false
    },
    {
      "hash": null,
      "transactionType": "CALL",
      "contractName": "BonsaiOFTAdapter",
      "contractAddress": "0x303b63e785B656ca56ea5A5C1634Ab20C98895e1",
      "function": "send((uint32,bytes32,uint256,uint256,bytes,bytes,bytes),(uint256,uint256),address)",
      "arguments": [
        "(30184, 0x00000000000000000000000021af1185734d213d45c6236146fb81e2b0e8b821, 500000000000000000000000, 500000000000000000000000, 0x0003010011010000000000000000000000000007a120, 0x, 0x)",
        "(331625219429226242, 0)",
        "0x5b73C5498c1E3b4dbA84de0F1833c4a029d90519"
      ],
      "transaction": {
        "from": "0x21aF1185734D213D45C6236146fb81E2b0E8b821",
        "to": "0x303b63e785B656ca56ea5A5C1634Ab20C98895e1",
        "gas": "0x5d32d",
        "value": "0x49a2b614aa3d702",
        "input": "0xc7c7f5b30000000000000000000000000000000000000000000000000000000000000080000000000000000000000000000000000000000000000000049a2b614aa3d70200000000000000000000000000000000000000000000000000000000000000000000000000000000000000005b73c5498c1e3b4dba84de0f1833c4a029d9051900000000000000000000000000000000000000000000000000000000000075e800000000000000000000000021af1185734d213d45c6236146fb81e2b0e8b8210000000000000000000000000000000000000000000069e10de76676d08000000000000000000000000000000000000000000000000069e10de76676d080000000000000000000000000000000000000000000000000000000000000000000e00000000000000000000000000000000000000000000000000000000000000120000000000000000000000000000000000000000000000000000000000000014000000000000000000000000000000000000000000000000000000000000000160003010011010000000000000000000000000007a1200000000000000000000000000000000000000000000000000000000000000000000000000000000000000000000000000000000000000000000000000000000000000000000000000000",
        "nonce": "0xb4",
        "chainId": "0x89"
      },
      "additionalContracts": [],
      "isFixedGasLimit": false
    },
    {
      "hash": null,
      "transactionType": "CALL",
      "contractName": null,
      "contractAddress": "0x3d2bD0e15829AA5C362a4144FdF4A1112fa29B5c",
      "function": "approve(address,uint256)",
      "arguments": [
        "0x303b63e785B656ca56ea5A5C1634Ab20C98895e1",
        "500000000000000000000000"
      ],
      "transaction": {
        "from": "0x21aF1185734D213D45C6236146fb81E2b0E8b821",
        "to": "0x3d2bD0e15829AA5C362a4144FdF4A1112fa29B5c",
        "gas": "0xf94b",
        "value": "0x0",
        "input": "0x095ea7b3000000000000000000000000303b63e785b656ca56ea5a5c1634ab20c98895e10000000000000000000000000000000000000000000069e10de76676d0800000",
        "nonce": "0xb5",
        "chainId": "0x89"
      },
      "additionalContracts": [],
      "isFixedGasLimit": false
    },
    {
      "hash": null,
      "transactionType": "CALL",
      "contractName": "BonsaiOFTAdapter",
      "contractAddress": "0x303b63e785B656ca56ea5A5C1634Ab20C98895e1",
      "function": "send((uint32,bytes32,uint256,uint256,bytes,bytes,bytes),(uint256,uint256),address)",
      "arguments": [
        "(30184, 0x00000000000000000000000021af1185734d213d45c6236146fb81e2b0e8b821, 500000000000000000000000, 500000000000000000000000, 0x0003010011010000000000000000000000000007a120, 0x, 0x)",
        "(331625219429226242, 0)",
        "0x5b73C5498c1E3b4dbA84de0F1833c4a029d90519"
      ],
      "transaction": {
        "from": "0x21aF1185734D213D45C6236146fb81E2b0E8b821",
        "to": "0x303b63e785B656ca56ea5A5C1634Ab20C98895e1",
        "gas": "0x5d32d",
        "value": "0x49a2b614aa3d702",
        "input": "0xc7c7f5b30000000000000000000000000000000000000000000000000000000000000080000000000000000000000000000000000000000000000000049a2b614aa3d70200000000000000000000000000000000000000000000000000000000000000000000000000000000000000005b73c5498c1e3b4dba84de0f1833c4a029d9051900000000000000000000000000000000000000000000000000000000000075e800000000000000000000000021af1185734d213d45c6236146fb81e2b0e8b8210000000000000000000000000000000000000000000069e10de76676d08000000000000000000000000000000000000000000000000069e10de76676d080000000000000000000000000000000000000000000000000000000000000000000e00000000000000000000000000000000000000000000000000000000000000120000000000000000000000000000000000000000000000000000000000000014000000000000000000000000000000000000000000000000000000000000000160003010011010000000000000000000000000007a1200000000000000000000000000000000000000000000000000000000000000000000000000000000000000000000000000000000000000000000000000000000000000000000000000000",
        "nonce": "0xb6",
        "chainId": "0x89"
      },
      "additionalContracts": [],
      "isFixedGasLimit": false
    },
    {
      "hash": null,
      "transactionType": "CALL",
      "contractName": null,
      "contractAddress": "0x3d2bD0e15829AA5C362a4144FdF4A1112fa29B5c",
      "function": "approve(address,uint256)",
      "arguments": [
        "0x303b63e785B656ca56ea5A5C1634Ab20C98895e1",
        "500000000000000000000000"
      ],
      "transaction": {
        "from": "0x21aF1185734D213D45C6236146fb81E2b0E8b821",
        "to": "0x3d2bD0e15829AA5C362a4144FdF4A1112fa29B5c",
        "gas": "0xf94b",
        "value": "0x0",
        "input": "0x095ea7b3000000000000000000000000303b63e785b656ca56ea5a5c1634ab20c98895e10000000000000000000000000000000000000000000069e10de76676d0800000",
        "nonce": "0xb7",
        "chainId": "0x89"
      },
      "additionalContracts": [],
      "isFixedGasLimit": false
    },
    {
      "hash": null,
      "transactionType": "CALL",
      "contractName": "BonsaiOFTAdapter",
      "contractAddress": "0x303b63e785B656ca56ea5A5C1634Ab20C98895e1",
      "function": "send((uint32,bytes32,uint256,uint256,bytes,bytes,bytes),(uint256,uint256),address)",
      "arguments": [
        "(30184, 0x00000000000000000000000021af1185734d213d45c6236146fb81e2b0e8b821, 500000000000000000000000, 500000000000000000000000, 0x0003010011010000000000000000000000000007a120, 0x, 0x)",
        "(331625219429226242, 0)",
        "0x5b73C5498c1E3b4dbA84de0F1833c4a029d90519"
      ],
      "transaction": {
        "from": "0x21aF1185734D213D45C6236146fb81E2b0E8b821",
        "to": "0x303b63e785B656ca56ea5A5C1634Ab20C98895e1",
        "gas": "0x5d32d",
        "value": "0x49a2b614aa3d702",
        "input": "0xc7c7f5b30000000000000000000000000000000000000000000000000000000000000080000000000000000000000000000000000000000000000000049a2b614aa3d70200000000000000000000000000000000000000000000000000000000000000000000000000000000000000005b73c5498c1e3b4dba84de0f1833c4a029d9051900000000000000000000000000000000000000000000000000000000000075e800000000000000000000000021af1185734d213d45c6236146fb81e2b0e8b8210000000000000000000000000000000000000000000069e10de76676d08000000000000000000000000000000000000000000000000069e10de76676d080000000000000000000000000000000000000000000000000000000000000000000e00000000000000000000000000000000000000000000000000000000000000120000000000000000000000000000000000000000000000000000000000000014000000000000000000000000000000000000000000000000000000000000000160003010011010000000000000000000000000007a1200000000000000000000000000000000000000000000000000000000000000000000000000000000000000000000000000000000000000000000000000000000000000000000000000000",
        "nonce": "0xb8",
        "chainId": "0x89"
      },
      "additionalContracts": [],
      "isFixedGasLimit": false
    },
    {
      "hash": null,
      "transactionType": "CALL",
      "contractName": null,
      "contractAddress": "0x3d2bD0e15829AA5C362a4144FdF4A1112fa29B5c",
      "function": "approve(address,uint256)",
      "arguments": [
        "0x303b63e785B656ca56ea5A5C1634Ab20C98895e1",
        "500000000000000000000000"
      ],
      "transaction": {
        "from": "0x21aF1185734D213D45C6236146fb81E2b0E8b821",
        "to": "0x3d2bD0e15829AA5C362a4144FdF4A1112fa29B5c",
        "gas": "0xf94b",
        "value": "0x0",
        "input": "0x095ea7b3000000000000000000000000303b63e785b656ca56ea5a5c1634ab20c98895e10000000000000000000000000000000000000000000069e10de76676d0800000",
        "nonce": "0xb9",
        "chainId": "0x89"
      },
      "additionalContracts": [],
      "isFixedGasLimit": false
    },
    {
      "hash": null,
      "transactionType": "CALL",
      "contractName": "BonsaiOFTAdapter",
      "contractAddress": "0x303b63e785B656ca56ea5A5C1634Ab20C98895e1",
      "function": "send((uint32,bytes32,uint256,uint256,bytes,bytes,bytes),(uint256,uint256),address)",
      "arguments": [
        "(30184, 0x00000000000000000000000021af1185734d213d45c6236146fb81e2b0e8b821, 500000000000000000000000, 500000000000000000000000, 0x0003010011010000000000000000000000000007a120, 0x, 0x)",
        "(331625219429226242, 0)",
        "0x5b73C5498c1E3b4dbA84de0F1833c4a029d90519"
      ],
      "transaction": {
        "from": "0x21aF1185734D213D45C6236146fb81E2b0E8b821",
        "to": "0x303b63e785B656ca56ea5A5C1634Ab20C98895e1",
        "gas": "0x5d32d",
        "value": "0x49a2b614aa3d702",
        "input": "0xc7c7f5b30000000000000000000000000000000000000000000000000000000000000080000000000000000000000000000000000000000000000000049a2b614aa3d70200000000000000000000000000000000000000000000000000000000000000000000000000000000000000005b73c5498c1e3b4dba84de0f1833c4a029d9051900000000000000000000000000000000000000000000000000000000000075e800000000000000000000000021af1185734d213d45c6236146fb81e2b0e8b8210000000000000000000000000000000000000000000069e10de76676d08000000000000000000000000000000000000000000000000069e10de76676d080000000000000000000000000000000000000000000000000000000000000000000e00000000000000000000000000000000000000000000000000000000000000120000000000000000000000000000000000000000000000000000000000000014000000000000000000000000000000000000000000000000000000000000000160003010011010000000000000000000000000007a1200000000000000000000000000000000000000000000000000000000000000000000000000000000000000000000000000000000000000000000000000000000000000000000000000000",
        "nonce": "0xba",
        "chainId": "0x89"
      },
      "additionalContracts": [],
      "isFixedGasLimit": false
    },
    {
      "hash": null,
      "transactionType": "CALL",
      "contractName": null,
      "contractAddress": "0x3d2bD0e15829AA5C362a4144FdF4A1112fa29B5c",
      "function": "approve(address,uint256)",
      "arguments": [
        "0x303b63e785B656ca56ea5A5C1634Ab20C98895e1",
        "500000000000000000000000"
      ],
      "transaction": {
        "from": "0x21aF1185734D213D45C6236146fb81E2b0E8b821",
        "to": "0x3d2bD0e15829AA5C362a4144FdF4A1112fa29B5c",
        "gas": "0xf94b",
        "value": "0x0",
        "input": "0x095ea7b3000000000000000000000000303b63e785b656ca56ea5a5c1634ab20c98895e10000000000000000000000000000000000000000000069e10de76676d0800000",
        "nonce": "0xbb",
        "chainId": "0x89"
      },
      "additionalContracts": [],
      "isFixedGasLimit": false
    },
    {
      "hash": null,
      "transactionType": "CALL",
      "contractName": "BonsaiOFTAdapter",
      "contractAddress": "0x303b63e785B656ca56ea5A5C1634Ab20C98895e1",
      "function": "send((uint32,bytes32,uint256,uint256,bytes,bytes,bytes),(uint256,uint256),address)",
      "arguments": [
        "(30184, 0x00000000000000000000000021af1185734d213d45c6236146fb81e2b0e8b821, 500000000000000000000000, 500000000000000000000000, 0x0003010011010000000000000000000000000007a120, 0x, 0x)",
        "(331625219429226242, 0)",
        "0x5b73C5498c1E3b4dbA84de0F1833c4a029d90519"
      ],
      "transaction": {
        "from": "0x21aF1185734D213D45C6236146fb81E2b0E8b821",
        "to": "0x303b63e785B656ca56ea5A5C1634Ab20C98895e1",
        "gas": "0x5d32d",
        "value": "0x49a2b614aa3d702",
        "input": "0xc7c7f5b30000000000000000000000000000000000000000000000000000000000000080000000000000000000000000000000000000000000000000049a2b614aa3d70200000000000000000000000000000000000000000000000000000000000000000000000000000000000000005b73c5498c1e3b4dba84de0f1833c4a029d9051900000000000000000000000000000000000000000000000000000000000075e800000000000000000000000021af1185734d213d45c6236146fb81e2b0e8b8210000000000000000000000000000000000000000000069e10de76676d08000000000000000000000000000000000000000000000000069e10de76676d080000000000000000000000000000000000000000000000000000000000000000000e00000000000000000000000000000000000000000000000000000000000000120000000000000000000000000000000000000000000000000000000000000014000000000000000000000000000000000000000000000000000000000000000160003010011010000000000000000000000000007a1200000000000000000000000000000000000000000000000000000000000000000000000000000000000000000000000000000000000000000000000000000000000000000000000000000",
        "nonce": "0xbc",
        "chainId": "0x89"
      },
      "additionalContracts": [],
      "isFixedGasLimit": false
    },
    {
      "hash": null,
      "transactionType": "CALL",
      "contractName": null,
      "contractAddress": "0x3d2bD0e15829AA5C362a4144FdF4A1112fa29B5c",
      "function": "approve(address,uint256)",
      "arguments": [
        "0x303b63e785B656ca56ea5A5C1634Ab20C98895e1",
        "500000000000000000000000"
      ],
      "transaction": {
        "from": "0x21aF1185734D213D45C6236146fb81E2b0E8b821",
        "to": "0x3d2bD0e15829AA5C362a4144FdF4A1112fa29B5c",
        "gas": "0xf94b",
        "value": "0x0",
        "input": "0x095ea7b3000000000000000000000000303b63e785b656ca56ea5a5c1634ab20c98895e10000000000000000000000000000000000000000000069e10de76676d0800000",
        "nonce": "0xbd",
        "chainId": "0x89"
      },
      "additionalContracts": [],
      "isFixedGasLimit": false
    },
    {
      "hash": null,
      "transactionType": "CALL",
      "contractName": "BonsaiOFTAdapter",
      "contractAddress": "0x303b63e785B656ca56ea5A5C1634Ab20C98895e1",
      "function": "send((uint32,bytes32,uint256,uint256,bytes,bytes,bytes),(uint256,uint256),address)",
      "arguments": [
        "(30184, 0x00000000000000000000000021af1185734d213d45c6236146fb81e2b0e8b821, 500000000000000000000000, 500000000000000000000000, 0x0003010011010000000000000000000000000007a120, 0x, 0x)",
        "(331625219429226242, 0)",
        "0x5b73C5498c1E3b4dbA84de0F1833c4a029d90519"
      ],
      "transaction": {
        "from": "0x21aF1185734D213D45C6236146fb81E2b0E8b821",
        "to": "0x303b63e785B656ca56ea5A5C1634Ab20C98895e1",
        "gas": "0x5d32d",
        "value": "0x49a2b614aa3d702",
        "input": "0xc7c7f5b30000000000000000000000000000000000000000000000000000000000000080000000000000000000000000000000000000000000000000049a2b614aa3d70200000000000000000000000000000000000000000000000000000000000000000000000000000000000000005b73c5498c1e3b4dba84de0f1833c4a029d9051900000000000000000000000000000000000000000000000000000000000075e800000000000000000000000021af1185734d213d45c6236146fb81e2b0e8b8210000000000000000000000000000000000000000000069e10de76676d08000000000000000000000000000000000000000000000000069e10de76676d080000000000000000000000000000000000000000000000000000000000000000000e00000000000000000000000000000000000000000000000000000000000000120000000000000000000000000000000000000000000000000000000000000014000000000000000000000000000000000000000000000000000000000000000160003010011010000000000000000000000000007a1200000000000000000000000000000000000000000000000000000000000000000000000000000000000000000000000000000000000000000000000000000000000000000000000000000",
        "nonce": "0xbe",
        "chainId": "0x89"
      },
      "additionalContracts": [],
      "isFixedGasLimit": false
    },
    {
      "hash": null,
      "transactionType": "CALL",
      "contractName": null,
      "contractAddress": "0x3d2bD0e15829AA5C362a4144FdF4A1112fa29B5c",
      "function": "approve(address,uint256)",
      "arguments": [
        "0x303b63e785B656ca56ea5A5C1634Ab20C98895e1",
        "500000000000000000000000"
      ],
      "transaction": {
        "from": "0x21aF1185734D213D45C6236146fb81E2b0E8b821",
        "to": "0x3d2bD0e15829AA5C362a4144FdF4A1112fa29B5c",
        "gas": "0xf94b",
        "value": "0x0",
        "input": "0x095ea7b3000000000000000000000000303b63e785b656ca56ea5a5c1634ab20c98895e10000000000000000000000000000000000000000000069e10de76676d0800000",
        "nonce": "0xbf",
        "chainId": "0x89"
      },
      "additionalContracts": [],
      "isFixedGasLimit": false
    },
    {
      "hash": null,
      "transactionType": "CALL",
      "contractName": "BonsaiOFTAdapter",
      "contractAddress": "0x303b63e785B656ca56ea5A5C1634Ab20C98895e1",
      "function": "send((uint32,bytes32,uint256,uint256,bytes,bytes,bytes),(uint256,uint256),address)",
      "arguments": [
        "(30184, 0x00000000000000000000000021af1185734d213d45c6236146fb81e2b0e8b821, 500000000000000000000000, 500000000000000000000000, 0x0003010011010000000000000000000000000007a120, 0x, 0x)",
        "(331625219429226242, 0)",
        "0x5b73C5498c1E3b4dbA84de0F1833c4a029d90519"
      ],
      "transaction": {
        "from": "0x21aF1185734D213D45C6236146fb81E2b0E8b821",
        "to": "0x303b63e785B656ca56ea5A5C1634Ab20C98895e1",
        "gas": "0x5d32d",
        "value": "0x49a2b614aa3d702",
        "input": "0xc7c7f5b30000000000000000000000000000000000000000000000000000000000000080000000000000000000000000000000000000000000000000049a2b614aa3d70200000000000000000000000000000000000000000000000000000000000000000000000000000000000000005b73c5498c1e3b4dba84de0f1833c4a029d9051900000000000000000000000000000000000000000000000000000000000075e800000000000000000000000021af1185734d213d45c6236146fb81e2b0e8b8210000000000000000000000000000000000000000000069e10de76676d08000000000000000000000000000000000000000000000000069e10de76676d080000000000000000000000000000000000000000000000000000000000000000000e00000000000000000000000000000000000000000000000000000000000000120000000000000000000000000000000000000000000000000000000000000014000000000000000000000000000000000000000000000000000000000000000160003010011010000000000000000000000000007a1200000000000000000000000000000000000000000000000000000000000000000000000000000000000000000000000000000000000000000000000000000000000000000000000000000",
        "nonce": "0xc0",
        "chainId": "0x89"
      },
      "additionalContracts": [],
      "isFixedGasLimit": false
    },
    {
      "hash": null,
      "transactionType": "CALL",
      "contractName": null,
      "contractAddress": "0x3d2bD0e15829AA5C362a4144FdF4A1112fa29B5c",
      "function": "approve(address,uint256)",
      "arguments": [
        "0x303b63e785B656ca56ea5A5C1634Ab20C98895e1",
        "500000000000000000000000"
      ],
      "transaction": {
        "from": "0x21aF1185734D213D45C6236146fb81E2b0E8b821",
        "to": "0x3d2bD0e15829AA5C362a4144FdF4A1112fa29B5c",
        "gas": "0xf94b",
        "value": "0x0",
        "input": "0x095ea7b3000000000000000000000000303b63e785b656ca56ea5a5c1634ab20c98895e10000000000000000000000000000000000000000000069e10de76676d0800000",
        "nonce": "0xc1",
        "chainId": "0x89"
      },
      "additionalContracts": [],
      "isFixedGasLimit": false
    },
    {
      "hash": null,
      "transactionType": "CALL",
      "contractName": "BonsaiOFTAdapter",
      "contractAddress": "0x303b63e785B656ca56ea5A5C1634Ab20C98895e1",
      "function": "send((uint32,bytes32,uint256,uint256,bytes,bytes,bytes),(uint256,uint256),address)",
      "arguments": [
        "(30184, 0x00000000000000000000000021af1185734d213d45c6236146fb81e2b0e8b821, 500000000000000000000000, 500000000000000000000000, 0x0003010011010000000000000000000000000007a120, 0x, 0x)",
        "(331625219429226242, 0)",
        "0x5b73C5498c1E3b4dbA84de0F1833c4a029d90519"
      ],
      "transaction": {
        "from": "0x21aF1185734D213D45C6236146fb81E2b0E8b821",
        "to": "0x303b63e785B656ca56ea5A5C1634Ab20C98895e1",
        "gas": "0x5d32d",
        "value": "0x49a2b614aa3d702",
        "input": "0xc7c7f5b30000000000000000000000000000000000000000000000000000000000000080000000000000000000000000000000000000000000000000049a2b614aa3d70200000000000000000000000000000000000000000000000000000000000000000000000000000000000000005b73c5498c1e3b4dba84de0f1833c4a029d9051900000000000000000000000000000000000000000000000000000000000075e800000000000000000000000021af1185734d213d45c6236146fb81e2b0e8b8210000000000000000000000000000000000000000000069e10de76676d08000000000000000000000000000000000000000000000000069e10de76676d080000000000000000000000000000000000000000000000000000000000000000000e00000000000000000000000000000000000000000000000000000000000000120000000000000000000000000000000000000000000000000000000000000014000000000000000000000000000000000000000000000000000000000000000160003010011010000000000000000000000000007a1200000000000000000000000000000000000000000000000000000000000000000000000000000000000000000000000000000000000000000000000000000000000000000000000000000",
        "nonce": "0xc2",
        "chainId": "0x89"
      },
      "additionalContracts": [],
      "isFixedGasLimit": false
    },
    {
      "hash": null,
      "transactionType": "CALL",
      "contractName": null,
      "contractAddress": "0x3d2bD0e15829AA5C362a4144FdF4A1112fa29B5c",
      "function": "approve(address,uint256)",
      "arguments": [
        "0x303b63e785B656ca56ea5A5C1634Ab20C98895e1",
        "500000000000000000000000"
      ],
      "transaction": {
        "from": "0x21aF1185734D213D45C6236146fb81E2b0E8b821",
        "to": "0x3d2bD0e15829AA5C362a4144FdF4A1112fa29B5c",
        "gas": "0xf94b",
        "value": "0x0",
        "input": "0x095ea7b3000000000000000000000000303b63e785b656ca56ea5a5c1634ab20c98895e10000000000000000000000000000000000000000000069e10de76676d0800000",
        "nonce": "0xc3",
        "chainId": "0x89"
      },
      "additionalContracts": [],
      "isFixedGasLimit": false
    },
    {
      "hash": null,
      "transactionType": "CALL",
      "contractName": "BonsaiOFTAdapter",
      "contractAddress": "0x303b63e785B656ca56ea5A5C1634Ab20C98895e1",
      "function": "send((uint32,bytes32,uint256,uint256,bytes,bytes,bytes),(uint256,uint256),address)",
      "arguments": [
        "(30184, 0x00000000000000000000000021af1185734d213d45c6236146fb81e2b0e8b821, 500000000000000000000000, 500000000000000000000000, 0x0003010011010000000000000000000000000007a120, 0x, 0x)",
        "(331625219429226242, 0)",
        "0x5b73C5498c1E3b4dbA84de0F1833c4a029d90519"
      ],
      "transaction": {
        "from": "0x21aF1185734D213D45C6236146fb81E2b0E8b821",
        "to": "0x303b63e785B656ca56ea5A5C1634Ab20C98895e1",
        "gas": "0x5d32d",
        "value": "0x49a2b614aa3d702",
        "input": "0xc7c7f5b30000000000000000000000000000000000000000000000000000000000000080000000000000000000000000000000000000000000000000049a2b614aa3d70200000000000000000000000000000000000000000000000000000000000000000000000000000000000000005b73c5498c1e3b4dba84de0f1833c4a029d9051900000000000000000000000000000000000000000000000000000000000075e800000000000000000000000021af1185734d213d45c6236146fb81e2b0e8b8210000000000000000000000000000000000000000000069e10de76676d08000000000000000000000000000000000000000000000000069e10de76676d080000000000000000000000000000000000000000000000000000000000000000000e00000000000000000000000000000000000000000000000000000000000000120000000000000000000000000000000000000000000000000000000000000014000000000000000000000000000000000000000000000000000000000000000160003010011010000000000000000000000000007a1200000000000000000000000000000000000000000000000000000000000000000000000000000000000000000000000000000000000000000000000000000000000000000000000000000",
        "nonce": "0xc4",
        "chainId": "0x89"
      },
      "additionalContracts": [],
      "isFixedGasLimit": false
    },
    {
      "hash": null,
      "transactionType": "CALL",
      "contractName": null,
      "contractAddress": "0x3d2bD0e15829AA5C362a4144FdF4A1112fa29B5c",
      "function": "approve(address,uint256)",
      "arguments": [
        "0x303b63e785B656ca56ea5A5C1634Ab20C98895e1",
        "500000000000000000000000"
      ],
      "transaction": {
        "from": "0x21aF1185734D213D45C6236146fb81E2b0E8b821",
        "to": "0x3d2bD0e15829AA5C362a4144FdF4A1112fa29B5c",
        "gas": "0xf94b",
        "value": "0x0",
        "input": "0x095ea7b3000000000000000000000000303b63e785b656ca56ea5a5c1634ab20c98895e10000000000000000000000000000000000000000000069e10de76676d0800000",
        "nonce": "0xc5",
        "chainId": "0x89"
      },
      "additionalContracts": [],
      "isFixedGasLimit": false
    },
    {
      "hash": null,
      "transactionType": "CALL",
      "contractName": "BonsaiOFTAdapter",
      "contractAddress": "0x303b63e785B656ca56ea5A5C1634Ab20C98895e1",
      "function": "send((uint32,bytes32,uint256,uint256,bytes,bytes,bytes),(uint256,uint256),address)",
      "arguments": [
        "(30184, 0x00000000000000000000000021af1185734d213d45c6236146fb81e2b0e8b821, 500000000000000000000000, 500000000000000000000000, 0x0003010011010000000000000000000000000007a120, 0x, 0x)",
        "(331625219429226242, 0)",
        "0x5b73C5498c1E3b4dbA84de0F1833c4a029d90519"
      ],
      "transaction": {
        "from": "0x21aF1185734D213D45C6236146fb81E2b0E8b821",
        "to": "0x303b63e785B656ca56ea5A5C1634Ab20C98895e1",
        "gas": "0x5d32d",
        "value": "0x49a2b614aa3d702",
        "input": "0xc7c7f5b30000000000000000000000000000000000000000000000000000000000000080000000000000000000000000000000000000000000000000049a2b614aa3d70200000000000000000000000000000000000000000000000000000000000000000000000000000000000000005b73c5498c1e3b4dba84de0f1833c4a029d9051900000000000000000000000000000000000000000000000000000000000075e800000000000000000000000021af1185734d213d45c6236146fb81e2b0e8b8210000000000000000000000000000000000000000000069e10de76676d08000000000000000000000000000000000000000000000000069e10de76676d080000000000000000000000000000000000000000000000000000000000000000000e00000000000000000000000000000000000000000000000000000000000000120000000000000000000000000000000000000000000000000000000000000014000000000000000000000000000000000000000000000000000000000000000160003010011010000000000000000000000000007a1200000000000000000000000000000000000000000000000000000000000000000000000000000000000000000000000000000000000000000000000000000000000000000000000000000",
        "nonce": "0xc6",
        "chainId": "0x89"
      },
      "additionalContracts": [],
      "isFixedGasLimit": false
    },
    {
      "hash": null,
      "transactionType": "CALL",
      "contractName": null,
      "contractAddress": "0x3d2bD0e15829AA5C362a4144FdF4A1112fa29B5c",
      "function": "approve(address,uint256)",
      "arguments": [
        "0x303b63e785B656ca56ea5A5C1634Ab20C98895e1",
        "500000000000000000000000"
      ],
      "transaction": {
        "from": "0x21aF1185734D213D45C6236146fb81E2b0E8b821",
        "to": "0x3d2bD0e15829AA5C362a4144FdF4A1112fa29B5c",
        "gas": "0xf94b",
        "value": "0x0",
        "input": "0x095ea7b3000000000000000000000000303b63e785b656ca56ea5a5c1634ab20c98895e10000000000000000000000000000000000000000000069e10de76676d0800000",
        "nonce": "0xc7",
        "chainId": "0x89"
      },
      "additionalContracts": [],
      "isFixedGasLimit": false
    },
    {
      "hash": null,
      "transactionType": "CALL",
      "contractName": "BonsaiOFTAdapter",
      "contractAddress": "0x303b63e785B656ca56ea5A5C1634Ab20C98895e1",
      "function": "send((uint32,bytes32,uint256,uint256,bytes,bytes,bytes),(uint256,uint256),address)",
      "arguments": [
        "(30184, 0x00000000000000000000000021af1185734d213d45c6236146fb81e2b0e8b821, 500000000000000000000000, 500000000000000000000000, 0x0003010011010000000000000000000000000007a120, 0x, 0x)",
        "(331625219429226242, 0)",
        "0x5b73C5498c1E3b4dbA84de0F1833c4a029d90519"
      ],
      "transaction": {
        "from": "0x21aF1185734D213D45C6236146fb81E2b0E8b821",
        "to": "0x303b63e785B656ca56ea5A5C1634Ab20C98895e1",
        "gas": "0x5d32d",
        "value": "0x49a2b614aa3d702",
        "input": "0xc7c7f5b30000000000000000000000000000000000000000000000000000000000000080000000000000000000000000000000000000000000000000049a2b614aa3d70200000000000000000000000000000000000000000000000000000000000000000000000000000000000000005b73c5498c1e3b4dba84de0f1833c4a029d9051900000000000000000000000000000000000000000000000000000000000075e800000000000000000000000021af1185734d213d45c6236146fb81e2b0e8b8210000000000000000000000000000000000000000000069e10de76676d08000000000000000000000000000000000000000000000000069e10de76676d080000000000000000000000000000000000000000000000000000000000000000000e00000000000000000000000000000000000000000000000000000000000000120000000000000000000000000000000000000000000000000000000000000014000000000000000000000000000000000000000000000000000000000000000160003010011010000000000000000000000000007a1200000000000000000000000000000000000000000000000000000000000000000000000000000000000000000000000000000000000000000000000000000000000000000000000000000",
        "nonce": "0xc8",
        "chainId": "0x89"
      },
      "additionalContracts": [],
      "isFixedGasLimit": false
    },
    {
      "hash": null,
      "transactionType": "CALL",
      "contractName": null,
      "contractAddress": "0x3d2bD0e15829AA5C362a4144FdF4A1112fa29B5c",
      "function": "approve(address,uint256)",
      "arguments": [
        "0x303b63e785B656ca56ea5A5C1634Ab20C98895e1",
        "500000000000000000000000"
      ],
      "transaction": {
        "from": "0x21aF1185734D213D45C6236146fb81E2b0E8b821",
        "to": "0x3d2bD0e15829AA5C362a4144FdF4A1112fa29B5c",
        "gas": "0xf94b",
        "value": "0x0",
        "input": "0x095ea7b3000000000000000000000000303b63e785b656ca56ea5a5c1634ab20c98895e10000000000000000000000000000000000000000000069e10de76676d0800000",
        "nonce": "0xc9",
        "chainId": "0x89"
      },
      "additionalContracts": [],
      "isFixedGasLimit": false
    },
    {
      "hash": null,
      "transactionType": "CALL",
      "contractName": "BonsaiOFTAdapter",
      "contractAddress": "0x303b63e785B656ca56ea5A5C1634Ab20C98895e1",
      "function": "send((uint32,bytes32,uint256,uint256,bytes,bytes,bytes),(uint256,uint256),address)",
      "arguments": [
        "(30184, 0x00000000000000000000000021af1185734d213d45c6236146fb81e2b0e8b821, 500000000000000000000000, 500000000000000000000000, 0x0003010011010000000000000000000000000007a120, 0x, 0x)",
        "(331625219429226242, 0)",
        "0x5b73C5498c1E3b4dbA84de0F1833c4a029d90519"
      ],
      "transaction": {
        "from": "0x21aF1185734D213D45C6236146fb81E2b0E8b821",
        "to": "0x303b63e785B656ca56ea5A5C1634Ab20C98895e1",
        "gas": "0x5d32d",
        "value": "0x49a2b614aa3d702",
        "input": "0xc7c7f5b30000000000000000000000000000000000000000000000000000000000000080000000000000000000000000000000000000000000000000049a2b614aa3d70200000000000000000000000000000000000000000000000000000000000000000000000000000000000000005b73c5498c1e3b4dba84de0f1833c4a029d9051900000000000000000000000000000000000000000000000000000000000075e800000000000000000000000021af1185734d213d45c6236146fb81e2b0e8b8210000000000000000000000000000000000000000000069e10de76676d08000000000000000000000000000000000000000000000000069e10de76676d080000000000000000000000000000000000000000000000000000000000000000000e00000000000000000000000000000000000000000000000000000000000000120000000000000000000000000000000000000000000000000000000000000014000000000000000000000000000000000000000000000000000000000000000160003010011010000000000000000000000000007a1200000000000000000000000000000000000000000000000000000000000000000000000000000000000000000000000000000000000000000000000000000000000000000000000000000",
        "nonce": "0xca",
        "chainId": "0x89"
      },
      "additionalContracts": [],
      "isFixedGasLimit": false
    },
    {
      "hash": null,
      "transactionType": "CALL",
      "contractName": null,
      "contractAddress": "0x3d2bD0e15829AA5C362a4144FdF4A1112fa29B5c",
      "function": "approve(address,uint256)",
      "arguments": [
        "0x303b63e785B656ca56ea5A5C1634Ab20C98895e1",
        "500000000000000000000000"
      ],
      "transaction": {
        "from": "0x21aF1185734D213D45C6236146fb81E2b0E8b821",
        "to": "0x3d2bD0e15829AA5C362a4144FdF4A1112fa29B5c",
        "gas": "0xf94b",
        "value": "0x0",
        "input": "0x095ea7b3000000000000000000000000303b63e785b656ca56ea5a5c1634ab20c98895e10000000000000000000000000000000000000000000069e10de76676d0800000",
        "nonce": "0xcb",
        "chainId": "0x89"
      },
      "additionalContracts": [],
      "isFixedGasLimit": false
    },
    {
      "hash": null,
      "transactionType": "CALL",
      "contractName": "BonsaiOFTAdapter",
      "contractAddress": "0x303b63e785B656ca56ea5A5C1634Ab20C98895e1",
      "function": "send((uint32,bytes32,uint256,uint256,bytes,bytes,bytes),(uint256,uint256),address)",
      "arguments": [
        "(30184, 0x00000000000000000000000021af1185734d213d45c6236146fb81e2b0e8b821, 500000000000000000000000, 500000000000000000000000, 0x0003010011010000000000000000000000000007a120, 0x, 0x)",
        "(331625219429226242, 0)",
        "0x5b73C5498c1E3b4dbA84de0F1833c4a029d90519"
      ],
      "transaction": {
        "from": "0x21aF1185734D213D45C6236146fb81E2b0E8b821",
        "to": "0x303b63e785B656ca56ea5A5C1634Ab20C98895e1",
        "gas": "0x5d32d",
        "value": "0x49a2b614aa3d702",
        "input": "0xc7c7f5b30000000000000000000000000000000000000000000000000000000000000080000000000000000000000000000000000000000000000000049a2b614aa3d70200000000000000000000000000000000000000000000000000000000000000000000000000000000000000005b73c5498c1e3b4dba84de0f1833c4a029d9051900000000000000000000000000000000000000000000000000000000000075e800000000000000000000000021af1185734d213d45c6236146fb81e2b0e8b8210000000000000000000000000000000000000000000069e10de76676d08000000000000000000000000000000000000000000000000069e10de76676d080000000000000000000000000000000000000000000000000000000000000000000e00000000000000000000000000000000000000000000000000000000000000120000000000000000000000000000000000000000000000000000000000000014000000000000000000000000000000000000000000000000000000000000000160003010011010000000000000000000000000007a1200000000000000000000000000000000000000000000000000000000000000000000000000000000000000000000000000000000000000000000000000000000000000000000000000000",
        "nonce": "0xcc",
        "chainId": "0x89"
      },
      "additionalContracts": [],
      "isFixedGasLimit": false
    },
    {
      "hash": null,
      "transactionType": "CALL",
      "contractName": null,
      "contractAddress": "0x3d2bD0e15829AA5C362a4144FdF4A1112fa29B5c",
      "function": "approve(address,uint256)",
      "arguments": [
        "0x303b63e785B656ca56ea5A5C1634Ab20C98895e1",
        "500000000000000000000000"
      ],
      "transaction": {
        "from": "0x21aF1185734D213D45C6236146fb81E2b0E8b821",
        "to": "0x3d2bD0e15829AA5C362a4144FdF4A1112fa29B5c",
        "gas": "0xf94b",
        "value": "0x0",
        "input": "0x095ea7b3000000000000000000000000303b63e785b656ca56ea5a5c1634ab20c98895e10000000000000000000000000000000000000000000069e10de76676d0800000",
        "nonce": "0xcd",
        "chainId": "0x89"
      },
      "additionalContracts": [],
      "isFixedGasLimit": false
    },
    {
      "hash": null,
      "transactionType": "CALL",
      "contractName": "BonsaiOFTAdapter",
      "contractAddress": "0x303b63e785B656ca56ea5A5C1634Ab20C98895e1",
      "function": "send((uint32,bytes32,uint256,uint256,bytes,bytes,bytes),(uint256,uint256),address)",
      "arguments": [
        "(30184, 0x00000000000000000000000021af1185734d213d45c6236146fb81e2b0e8b821, 500000000000000000000000, 500000000000000000000000, 0x0003010011010000000000000000000000000007a120, 0x, 0x)",
        "(331625219429226242, 0)",
        "0x5b73C5498c1E3b4dbA84de0F1833c4a029d90519"
      ],
      "transaction": {
        "from": "0x21aF1185734D213D45C6236146fb81E2b0E8b821",
        "to": "0x303b63e785B656ca56ea5A5C1634Ab20C98895e1",
        "gas": "0x5d32d",
        "value": "0x49a2b614aa3d702",
        "input": "0xc7c7f5b30000000000000000000000000000000000000000000000000000000000000080000000000000000000000000000000000000000000000000049a2b614aa3d70200000000000000000000000000000000000000000000000000000000000000000000000000000000000000005b73c5498c1e3b4dba84de0f1833c4a029d9051900000000000000000000000000000000000000000000000000000000000075e800000000000000000000000021af1185734d213d45c6236146fb81e2b0e8b8210000000000000000000000000000000000000000000069e10de76676d08000000000000000000000000000000000000000000000000069e10de76676d080000000000000000000000000000000000000000000000000000000000000000000e00000000000000000000000000000000000000000000000000000000000000120000000000000000000000000000000000000000000000000000000000000014000000000000000000000000000000000000000000000000000000000000000160003010011010000000000000000000000000007a1200000000000000000000000000000000000000000000000000000000000000000000000000000000000000000000000000000000000000000000000000000000000000000000000000000",
        "nonce": "0xce",
        "chainId": "0x89"
      },
      "additionalContracts": [],
      "isFixedGasLimit": false
    },
    {
      "hash": null,
      "transactionType": "CALL",
      "contractName": null,
      "contractAddress": "0x3d2bD0e15829AA5C362a4144FdF4A1112fa29B5c",
      "function": "approve(address,uint256)",
      "arguments": [
        "0x303b63e785B656ca56ea5A5C1634Ab20C98895e1",
        "500000000000000000000000"
      ],
      "transaction": {
        "from": "0x21aF1185734D213D45C6236146fb81E2b0E8b821",
        "to": "0x3d2bD0e15829AA5C362a4144FdF4A1112fa29B5c",
        "gas": "0xf94b",
        "value": "0x0",
        "input": "0x095ea7b3000000000000000000000000303b63e785b656ca56ea5a5c1634ab20c98895e10000000000000000000000000000000000000000000069e10de76676d0800000",
        "nonce": "0xcf",
        "chainId": "0x89"
      },
      "additionalContracts": [],
      "isFixedGasLimit": false
    },
    {
      "hash": null,
      "transactionType": "CALL",
      "contractName": "BonsaiOFTAdapter",
      "contractAddress": "0x303b63e785B656ca56ea5A5C1634Ab20C98895e1",
      "function": "send((uint32,bytes32,uint256,uint256,bytes,bytes,bytes),(uint256,uint256),address)",
      "arguments": [
        "(30184, 0x00000000000000000000000021af1185734d213d45c6236146fb81e2b0e8b821, 500000000000000000000000, 500000000000000000000000, 0x0003010011010000000000000000000000000007a120, 0x, 0x)",
        "(331625219429226242, 0)",
        "0x5b73C5498c1E3b4dbA84de0F1833c4a029d90519"
      ],
      "transaction": {
        "from": "0x21aF1185734D213D45C6236146fb81E2b0E8b821",
        "to": "0x303b63e785B656ca56ea5A5C1634Ab20C98895e1",
        "gas": "0x5d32d",
        "value": "0x49a2b614aa3d702",
        "input": "0xc7c7f5b30000000000000000000000000000000000000000000000000000000000000080000000000000000000000000000000000000000000000000049a2b614aa3d70200000000000000000000000000000000000000000000000000000000000000000000000000000000000000005b73c5498c1e3b4dba84de0f1833c4a029d9051900000000000000000000000000000000000000000000000000000000000075e800000000000000000000000021af1185734d213d45c6236146fb81e2b0e8b8210000000000000000000000000000000000000000000069e10de76676d08000000000000000000000000000000000000000000000000069e10de76676d080000000000000000000000000000000000000000000000000000000000000000000e00000000000000000000000000000000000000000000000000000000000000120000000000000000000000000000000000000000000000000000000000000014000000000000000000000000000000000000000000000000000000000000000160003010011010000000000000000000000000007a1200000000000000000000000000000000000000000000000000000000000000000000000000000000000000000000000000000000000000000000000000000000000000000000000000000",
        "nonce": "0xd0",
        "chainId": "0x89"
      },
      "additionalContracts": [],
      "isFixedGasLimit": false
    },
    {
      "hash": null,
      "transactionType": "CALL",
      "contractName": null,
      "contractAddress": "0x3d2bD0e15829AA5C362a4144FdF4A1112fa29B5c",
      "function": "approve(address,uint256)",
      "arguments": [
        "0x303b63e785B656ca56ea5A5C1634Ab20C98895e1",
        "500000000000000000000000"
      ],
      "transaction": {
        "from": "0x21aF1185734D213D45C6236146fb81E2b0E8b821",
        "to": "0x3d2bD0e15829AA5C362a4144FdF4A1112fa29B5c",
        "gas": "0xf94b",
        "value": "0x0",
        "input": "0x095ea7b3000000000000000000000000303b63e785b656ca56ea5a5c1634ab20c98895e10000000000000000000000000000000000000000000069e10de76676d0800000",
        "nonce": "0xd1",
        "chainId": "0x89"
      },
      "additionalContracts": [],
      "isFixedGasLimit": false
    },
    {
      "hash": null,
      "transactionType": "CALL",
      "contractName": "BonsaiOFTAdapter",
      "contractAddress": "0x303b63e785B656ca56ea5A5C1634Ab20C98895e1",
      "function": "send((uint32,bytes32,uint256,uint256,bytes,bytes,bytes),(uint256,uint256),address)",
      "arguments": [
        "(30184, 0x00000000000000000000000021af1185734d213d45c6236146fb81e2b0e8b821, 500000000000000000000000, 500000000000000000000000, 0x0003010011010000000000000000000000000007a120, 0x, 0x)",
        "(331625219429226242, 0)",
        "0x5b73C5498c1E3b4dbA84de0F1833c4a029d90519"
      ],
      "transaction": {
        "from": "0x21aF1185734D213D45C6236146fb81E2b0E8b821",
        "to": "0x303b63e785B656ca56ea5A5C1634Ab20C98895e1",
        "gas": "0x5d32d",
        "value": "0x49a2b614aa3d702",
        "input": "0xc7c7f5b30000000000000000000000000000000000000000000000000000000000000080000000000000000000000000000000000000000000000000049a2b614aa3d70200000000000000000000000000000000000000000000000000000000000000000000000000000000000000005b73c5498c1e3b4dba84de0f1833c4a029d9051900000000000000000000000000000000000000000000000000000000000075e800000000000000000000000021af1185734d213d45c6236146fb81e2b0e8b8210000000000000000000000000000000000000000000069e10de76676d08000000000000000000000000000000000000000000000000069e10de76676d080000000000000000000000000000000000000000000000000000000000000000000e00000000000000000000000000000000000000000000000000000000000000120000000000000000000000000000000000000000000000000000000000000014000000000000000000000000000000000000000000000000000000000000000160003010011010000000000000000000000000007a1200000000000000000000000000000000000000000000000000000000000000000000000000000000000000000000000000000000000000000000000000000000000000000000000000000",
        "nonce": "0xd2",
        "chainId": "0x89"
      },
      "additionalContracts": [],
      "isFixedGasLimit": false
    },
    {
      "hash": null,
      "transactionType": "CALL",
      "contractName": null,
      "contractAddress": "0x3d2bD0e15829AA5C362a4144FdF4A1112fa29B5c",
      "function": "approve(address,uint256)",
      "arguments": [
        "0x303b63e785B656ca56ea5A5C1634Ab20C98895e1",
        "500000000000000000000000"
      ],
      "transaction": {
        "from": "0x21aF1185734D213D45C6236146fb81E2b0E8b821",
        "to": "0x3d2bD0e15829AA5C362a4144FdF4A1112fa29B5c",
        "gas": "0xf94b",
        "value": "0x0",
        "input": "0x095ea7b3000000000000000000000000303b63e785b656ca56ea5a5c1634ab20c98895e10000000000000000000000000000000000000000000069e10de76676d0800000",
        "nonce": "0xd3",
        "chainId": "0x89"
      },
      "additionalContracts": [],
      "isFixedGasLimit": false
    },
    {
      "hash": null,
      "transactionType": "CALL",
      "contractName": "BonsaiOFTAdapter",
      "contractAddress": "0x303b63e785B656ca56ea5A5C1634Ab20C98895e1",
      "function": "send((uint32,bytes32,uint256,uint256,bytes,bytes,bytes),(uint256,uint256),address)",
      "arguments": [
        "(30184, 0x00000000000000000000000021af1185734d213d45c6236146fb81e2b0e8b821, 500000000000000000000000, 500000000000000000000000, 0x0003010011010000000000000000000000000007a120, 0x, 0x)",
        "(331625219429226242, 0)",
        "0x5b73C5498c1E3b4dbA84de0F1833c4a029d90519"
      ],
      "transaction": {
        "from": "0x21aF1185734D213D45C6236146fb81E2b0E8b821",
        "to": "0x303b63e785B656ca56ea5A5C1634Ab20C98895e1",
        "gas": "0x5d32d",
        "value": "0x49a2b614aa3d702",
        "input": "0xc7c7f5b30000000000000000000000000000000000000000000000000000000000000080000000000000000000000000000000000000000000000000049a2b614aa3d70200000000000000000000000000000000000000000000000000000000000000000000000000000000000000005b73c5498c1e3b4dba84de0f1833c4a029d9051900000000000000000000000000000000000000000000000000000000000075e800000000000000000000000021af1185734d213d45c6236146fb81e2b0e8b8210000000000000000000000000000000000000000000069e10de76676d08000000000000000000000000000000000000000000000000069e10de76676d080000000000000000000000000000000000000000000000000000000000000000000e00000000000000000000000000000000000000000000000000000000000000120000000000000000000000000000000000000000000000000000000000000014000000000000000000000000000000000000000000000000000000000000000160003010011010000000000000000000000000007a1200000000000000000000000000000000000000000000000000000000000000000000000000000000000000000000000000000000000000000000000000000000000000000000000000000",
        "nonce": "0xd4",
        "chainId": "0x89"
      },
      "additionalContracts": [],
      "isFixedGasLimit": false
    },
    {
      "hash": null,
      "transactionType": "CALL",
      "contractName": null,
      "contractAddress": "0x3d2bD0e15829AA5C362a4144FdF4A1112fa29B5c",
      "function": "approve(address,uint256)",
      "arguments": [
        "0x303b63e785B656ca56ea5A5C1634Ab20C98895e1",
        "500000000000000000000000"
      ],
      "transaction": {
        "from": "0x21aF1185734D213D45C6236146fb81E2b0E8b821",
        "to": "0x3d2bD0e15829AA5C362a4144FdF4A1112fa29B5c",
        "gas": "0xf94b",
        "value": "0x0",
        "input": "0x095ea7b3000000000000000000000000303b63e785b656ca56ea5a5c1634ab20c98895e10000000000000000000000000000000000000000000069e10de76676d0800000",
        "nonce": "0xd5",
        "chainId": "0x89"
      },
      "additionalContracts": [],
      "isFixedGasLimit": false
    },
    {
      "hash": null,
      "transactionType": "CALL",
      "contractName": "BonsaiOFTAdapter",
      "contractAddress": "0x303b63e785B656ca56ea5A5C1634Ab20C98895e1",
      "function": "send((uint32,bytes32,uint256,uint256,bytes,bytes,bytes),(uint256,uint256),address)",
      "arguments": [
        "(30184, 0x00000000000000000000000021af1185734d213d45c6236146fb81e2b0e8b821, 500000000000000000000000, 500000000000000000000000, 0x0003010011010000000000000000000000000007a120, 0x, 0x)",
        "(331625219429226242, 0)",
        "0x5b73C5498c1E3b4dbA84de0F1833c4a029d90519"
      ],
      "transaction": {
        "from": "0x21aF1185734D213D45C6236146fb81E2b0E8b821",
        "to": "0x303b63e785B656ca56ea5A5C1634Ab20C98895e1",
        "gas": "0x5d32d",
        "value": "0x49a2b614aa3d702",
        "input": "0xc7c7f5b30000000000000000000000000000000000000000000000000000000000000080000000000000000000000000000000000000000000000000049a2b614aa3d70200000000000000000000000000000000000000000000000000000000000000000000000000000000000000005b73c5498c1e3b4dba84de0f1833c4a029d9051900000000000000000000000000000000000000000000000000000000000075e800000000000000000000000021af1185734d213d45c6236146fb81e2b0e8b8210000000000000000000000000000000000000000000069e10de76676d08000000000000000000000000000000000000000000000000069e10de76676d080000000000000000000000000000000000000000000000000000000000000000000e00000000000000000000000000000000000000000000000000000000000000120000000000000000000000000000000000000000000000000000000000000014000000000000000000000000000000000000000000000000000000000000000160003010011010000000000000000000000000007a1200000000000000000000000000000000000000000000000000000000000000000000000000000000000000000000000000000000000000000000000000000000000000000000000000000",
        "nonce": "0xd6",
        "chainId": "0x89"
      },
      "additionalContracts": [],
      "isFixedGasLimit": false
    },
    {
      "hash": null,
      "transactionType": "CALL",
      "contractName": null,
      "contractAddress": "0x3d2bD0e15829AA5C362a4144FdF4A1112fa29B5c",
      "function": "approve(address,uint256)",
      "arguments": [
        "0x303b63e785B656ca56ea5A5C1634Ab20C98895e1",
        "500000000000000000000000"
      ],
      "transaction": {
        "from": "0x21aF1185734D213D45C6236146fb81E2b0E8b821",
        "to": "0x3d2bD0e15829AA5C362a4144FdF4A1112fa29B5c",
        "gas": "0xf94b",
        "value": "0x0",
        "input": "0x095ea7b3000000000000000000000000303b63e785b656ca56ea5a5c1634ab20c98895e10000000000000000000000000000000000000000000069e10de76676d0800000",
        "nonce": "0xd7",
        "chainId": "0x89"
      },
      "additionalContracts": [],
      "isFixedGasLimit": false
    },
    {
      "hash": null,
      "transactionType": "CALL",
      "contractName": "BonsaiOFTAdapter",
      "contractAddress": "0x303b63e785B656ca56ea5A5C1634Ab20C98895e1",
      "function": "send((uint32,bytes32,uint256,uint256,bytes,bytes,bytes),(uint256,uint256),address)",
      "arguments": [
        "(30184, 0x00000000000000000000000021af1185734d213d45c6236146fb81e2b0e8b821, 500000000000000000000000, 500000000000000000000000, 0x0003010011010000000000000000000000000007a120, 0x, 0x)",
        "(331625219429226242, 0)",
        "0x5b73C5498c1E3b4dbA84de0F1833c4a029d90519"
      ],
      "transaction": {
        "from": "0x21aF1185734D213D45C6236146fb81E2b0E8b821",
        "to": "0x303b63e785B656ca56ea5A5C1634Ab20C98895e1",
        "gas": "0x5d32d",
        "value": "0x49a2b614aa3d702",
        "input": "0xc7c7f5b30000000000000000000000000000000000000000000000000000000000000080000000000000000000000000000000000000000000000000049a2b614aa3d70200000000000000000000000000000000000000000000000000000000000000000000000000000000000000005b73c5498c1e3b4dba84de0f1833c4a029d9051900000000000000000000000000000000000000000000000000000000000075e800000000000000000000000021af1185734d213d45c6236146fb81e2b0e8b8210000000000000000000000000000000000000000000069e10de76676d08000000000000000000000000000000000000000000000000069e10de76676d080000000000000000000000000000000000000000000000000000000000000000000e00000000000000000000000000000000000000000000000000000000000000120000000000000000000000000000000000000000000000000000000000000014000000000000000000000000000000000000000000000000000000000000000160003010011010000000000000000000000000007a1200000000000000000000000000000000000000000000000000000000000000000000000000000000000000000000000000000000000000000000000000000000000000000000000000000",
        "nonce": "0xd8",
        "chainId": "0x89"
      },
      "additionalContracts": [],
      "isFixedGasLimit": false
    },
    {
      "hash": null,
      "transactionType": "CALL",
      "contractName": null,
      "contractAddress": "0x3d2bD0e15829AA5C362a4144FdF4A1112fa29B5c",
      "function": "approve(address,uint256)",
      "arguments": [
        "0x303b63e785B656ca56ea5A5C1634Ab20C98895e1",
        "500000000000000000000000"
      ],
      "transaction": {
        "from": "0x21aF1185734D213D45C6236146fb81E2b0E8b821",
        "to": "0x3d2bD0e15829AA5C362a4144FdF4A1112fa29B5c",
        "gas": "0xf94b",
        "value": "0x0",
        "input": "0x095ea7b3000000000000000000000000303b63e785b656ca56ea5a5c1634ab20c98895e10000000000000000000000000000000000000000000069e10de76676d0800000",
        "nonce": "0xd9",
        "chainId": "0x89"
      },
      "additionalContracts": [],
      "isFixedGasLimit": false
    },
    {
      "hash": null,
      "transactionType": "CALL",
      "contractName": "BonsaiOFTAdapter",
      "contractAddress": "0x303b63e785B656ca56ea5A5C1634Ab20C98895e1",
      "function": "send((uint32,bytes32,uint256,uint256,bytes,bytes,bytes),(uint256,uint256),address)",
      "arguments": [
        "(30184, 0x00000000000000000000000021af1185734d213d45c6236146fb81e2b0e8b821, 500000000000000000000000, 500000000000000000000000, 0x0003010011010000000000000000000000000007a120, 0x, 0x)",
        "(331625219429226242, 0)",
        "0x5b73C5498c1E3b4dbA84de0F1833c4a029d90519"
      ],
      "transaction": {
        "from": "0x21aF1185734D213D45C6236146fb81E2b0E8b821",
        "to": "0x303b63e785B656ca56ea5A5C1634Ab20C98895e1",
        "gas": "0x5d32d",
        "value": "0x49a2b614aa3d702",
        "input": "0xc7c7f5b30000000000000000000000000000000000000000000000000000000000000080000000000000000000000000000000000000000000000000049a2b614aa3d70200000000000000000000000000000000000000000000000000000000000000000000000000000000000000005b73c5498c1e3b4dba84de0f1833c4a029d9051900000000000000000000000000000000000000000000000000000000000075e800000000000000000000000021af1185734d213d45c6236146fb81e2b0e8b8210000000000000000000000000000000000000000000069e10de76676d08000000000000000000000000000000000000000000000000069e10de76676d080000000000000000000000000000000000000000000000000000000000000000000e00000000000000000000000000000000000000000000000000000000000000120000000000000000000000000000000000000000000000000000000000000014000000000000000000000000000000000000000000000000000000000000000160003010011010000000000000000000000000007a1200000000000000000000000000000000000000000000000000000000000000000000000000000000000000000000000000000000000000000000000000000000000000000000000000000",
        "nonce": "0xda",
        "chainId": "0x89"
      },
      "additionalContracts": [],
      "isFixedGasLimit": false
    },
    {
      "hash": null,
      "transactionType": "CALL",
      "contractName": null,
      "contractAddress": "0x3d2bD0e15829AA5C362a4144FdF4A1112fa29B5c",
      "function": "approve(address,uint256)",
      "arguments": [
        "0x303b63e785B656ca56ea5A5C1634Ab20C98895e1",
        "500000000000000000000000"
      ],
      "transaction": {
        "from": "0x21aF1185734D213D45C6236146fb81E2b0E8b821",
        "to": "0x3d2bD0e15829AA5C362a4144FdF4A1112fa29B5c",
        "gas": "0xf94b",
        "value": "0x0",
        "input": "0x095ea7b3000000000000000000000000303b63e785b656ca56ea5a5c1634ab20c98895e10000000000000000000000000000000000000000000069e10de76676d0800000",
        "nonce": "0xdb",
        "chainId": "0x89"
      },
      "additionalContracts": [],
      "isFixedGasLimit": false
    },
    {
      "hash": null,
      "transactionType": "CALL",
      "contractName": "BonsaiOFTAdapter",
      "contractAddress": "0x303b63e785B656ca56ea5A5C1634Ab20C98895e1",
      "function": "send((uint32,bytes32,uint256,uint256,bytes,bytes,bytes),(uint256,uint256),address)",
      "arguments": [
        "(30184, 0x00000000000000000000000021af1185734d213d45c6236146fb81e2b0e8b821, 500000000000000000000000, 500000000000000000000000, 0x0003010011010000000000000000000000000007a120, 0x, 0x)",
        "(331625219429226242, 0)",
        "0x5b73C5498c1E3b4dbA84de0F1833c4a029d90519"
      ],
      "transaction": {
        "from": "0x21aF1185734D213D45C6236146fb81E2b0E8b821",
        "to": "0x303b63e785B656ca56ea5A5C1634Ab20C98895e1",
        "gas": "0x5d32d",
        "value": "0x49a2b614aa3d702",
        "input": "0xc7c7f5b30000000000000000000000000000000000000000000000000000000000000080000000000000000000000000000000000000000000000000049a2b614aa3d70200000000000000000000000000000000000000000000000000000000000000000000000000000000000000005b73c5498c1e3b4dba84de0f1833c4a029d9051900000000000000000000000000000000000000000000000000000000000075e800000000000000000000000021af1185734d213d45c6236146fb81e2b0e8b8210000000000000000000000000000000000000000000069e10de76676d08000000000000000000000000000000000000000000000000069e10de76676d080000000000000000000000000000000000000000000000000000000000000000000e00000000000000000000000000000000000000000000000000000000000000120000000000000000000000000000000000000000000000000000000000000014000000000000000000000000000000000000000000000000000000000000000160003010011010000000000000000000000000007a1200000000000000000000000000000000000000000000000000000000000000000000000000000000000000000000000000000000000000000000000000000000000000000000000000000",
        "nonce": "0xdc",
        "chainId": "0x89"
      },
      "additionalContracts": [],
      "isFixedGasLimit": false
    },
    {
      "hash": null,
      "transactionType": "CALL",
      "contractName": null,
      "contractAddress": "0x3d2bD0e15829AA5C362a4144FdF4A1112fa29B5c",
      "function": "approve(address,uint256)",
      "arguments": [
        "0x303b63e785B656ca56ea5A5C1634Ab20C98895e1",
        "500000000000000000000000"
      ],
      "transaction": {
        "from": "0x21aF1185734D213D45C6236146fb81E2b0E8b821",
        "to": "0x3d2bD0e15829AA5C362a4144FdF4A1112fa29B5c",
        "gas": "0xf94b",
        "value": "0x0",
        "input": "0x095ea7b3000000000000000000000000303b63e785b656ca56ea5a5c1634ab20c98895e10000000000000000000000000000000000000000000069e10de76676d0800000",
        "nonce": "0xdd",
        "chainId": "0x89"
      },
      "additionalContracts": [],
      "isFixedGasLimit": false
    },
    {
      "hash": null,
      "transactionType": "CALL",
      "contractName": "BonsaiOFTAdapter",
      "contractAddress": "0x303b63e785B656ca56ea5A5C1634Ab20C98895e1",
      "function": "send((uint32,bytes32,uint256,uint256,bytes,bytes,bytes),(uint256,uint256),address)",
      "arguments": [
        "(30184, 0x00000000000000000000000021af1185734d213d45c6236146fb81e2b0e8b821, 500000000000000000000000, 500000000000000000000000, 0x0003010011010000000000000000000000000007a120, 0x, 0x)",
        "(331625219429226242, 0)",
        "0x5b73C5498c1E3b4dbA84de0F1833c4a029d90519"
      ],
      "transaction": {
        "from": "0x21aF1185734D213D45C6236146fb81E2b0E8b821",
        "to": "0x303b63e785B656ca56ea5A5C1634Ab20C98895e1",
        "gas": "0x5d32d",
        "value": "0x49a2b614aa3d702",
        "input": "0xc7c7f5b30000000000000000000000000000000000000000000000000000000000000080000000000000000000000000000000000000000000000000049a2b614aa3d70200000000000000000000000000000000000000000000000000000000000000000000000000000000000000005b73c5498c1e3b4dba84de0f1833c4a029d9051900000000000000000000000000000000000000000000000000000000000075e800000000000000000000000021af1185734d213d45c6236146fb81e2b0e8b8210000000000000000000000000000000000000000000069e10de76676d08000000000000000000000000000000000000000000000000069e10de76676d080000000000000000000000000000000000000000000000000000000000000000000e00000000000000000000000000000000000000000000000000000000000000120000000000000000000000000000000000000000000000000000000000000014000000000000000000000000000000000000000000000000000000000000000160003010011010000000000000000000000000007a1200000000000000000000000000000000000000000000000000000000000000000000000000000000000000000000000000000000000000000000000000000000000000000000000000000",
        "nonce": "0xde",
        "chainId": "0x89"
      },
      "additionalContracts": [],
      "isFixedGasLimit": false
    },
    {
      "hash": null,
      "transactionType": "CALL",
      "contractName": null,
      "contractAddress": "0x3d2bD0e15829AA5C362a4144FdF4A1112fa29B5c",
      "function": "approve(address,uint256)",
      "arguments": [
        "0x303b63e785B656ca56ea5A5C1634Ab20C98895e1",
        "500000000000000000000000"
      ],
      "transaction": {
        "from": "0x21aF1185734D213D45C6236146fb81E2b0E8b821",
        "to": "0x3d2bD0e15829AA5C362a4144FdF4A1112fa29B5c",
        "gas": "0xf94b",
        "value": "0x0",
        "input": "0x095ea7b3000000000000000000000000303b63e785b656ca56ea5a5c1634ab20c98895e10000000000000000000000000000000000000000000069e10de76676d0800000",
        "nonce": "0xdf",
        "chainId": "0x89"
      },
      "additionalContracts": [],
      "isFixedGasLimit": false
    },
    {
      "hash": null,
      "transactionType": "CALL",
      "contractName": "BonsaiOFTAdapter",
      "contractAddress": "0x303b63e785B656ca56ea5A5C1634Ab20C98895e1",
      "function": "send((uint32,bytes32,uint256,uint256,bytes,bytes,bytes),(uint256,uint256),address)",
      "arguments": [
        "(30184, 0x00000000000000000000000021af1185734d213d45c6236146fb81e2b0e8b821, 500000000000000000000000, 500000000000000000000000, 0x0003010011010000000000000000000000000007a120, 0x, 0x)",
        "(331625219429226242, 0)",
        "0x5b73C5498c1E3b4dbA84de0F1833c4a029d90519"
      ],
      "transaction": {
        "from": "0x21aF1185734D213D45C6236146fb81E2b0E8b821",
        "to": "0x303b63e785B656ca56ea5A5C1634Ab20C98895e1",
        "gas": "0x5d32d",
        "value": "0x49a2b614aa3d702",
        "input": "0xc7c7f5b30000000000000000000000000000000000000000000000000000000000000080000000000000000000000000000000000000000000000000049a2b614aa3d70200000000000000000000000000000000000000000000000000000000000000000000000000000000000000005b73c5498c1e3b4dba84de0f1833c4a029d9051900000000000000000000000000000000000000000000000000000000000075e800000000000000000000000021af1185734d213d45c6236146fb81e2b0e8b8210000000000000000000000000000000000000000000069e10de76676d08000000000000000000000000000000000000000000000000069e10de76676d080000000000000000000000000000000000000000000000000000000000000000000e00000000000000000000000000000000000000000000000000000000000000120000000000000000000000000000000000000000000000000000000000000014000000000000000000000000000000000000000000000000000000000000000160003010011010000000000000000000000000007a1200000000000000000000000000000000000000000000000000000000000000000000000000000000000000000000000000000000000000000000000000000000000000000000000000000",
        "nonce": "0xe0",
        "chainId": "0x89"
      },
      "additionalContracts": [],
      "isFixedGasLimit": false
    },
    {
      "hash": null,
      "transactionType": "CALL",
      "contractName": null,
      "contractAddress": "0x3d2bD0e15829AA5C362a4144FdF4A1112fa29B5c",
      "function": "approve(address,uint256)",
      "arguments": [
        "0x303b63e785B656ca56ea5A5C1634Ab20C98895e1",
        "500000000000000000000000"
      ],
      "transaction": {
        "from": "0x21aF1185734D213D45C6236146fb81E2b0E8b821",
        "to": "0x3d2bD0e15829AA5C362a4144FdF4A1112fa29B5c",
        "gas": "0xf94b",
        "value": "0x0",
        "input": "0x095ea7b3000000000000000000000000303b63e785b656ca56ea5a5c1634ab20c98895e10000000000000000000000000000000000000000000069e10de76676d0800000",
        "nonce": "0xe1",
        "chainId": "0x89"
      },
      "additionalContracts": [],
      "isFixedGasLimit": false
    },
    {
      "hash": null,
      "transactionType": "CALL",
      "contractName": "BonsaiOFTAdapter",
      "contractAddress": "0x303b63e785B656ca56ea5A5C1634Ab20C98895e1",
      "function": "send((uint32,bytes32,uint256,uint256,bytes,bytes,bytes),(uint256,uint256),address)",
      "arguments": [
        "(30184, 0x00000000000000000000000021af1185734d213d45c6236146fb81e2b0e8b821, 500000000000000000000000, 500000000000000000000000, 0x0003010011010000000000000000000000000007a120, 0x, 0x)",
        "(331625219429226242, 0)",
        "0x5b73C5498c1E3b4dbA84de0F1833c4a029d90519"
      ],
      "transaction": {
        "from": "0x21aF1185734D213D45C6236146fb81E2b0E8b821",
        "to": "0x303b63e785B656ca56ea5A5C1634Ab20C98895e1",
        "gas": "0x5d32d",
        "value": "0x49a2b614aa3d702",
        "input": "0xc7c7f5b30000000000000000000000000000000000000000000000000000000000000080000000000000000000000000000000000000000000000000049a2b614aa3d70200000000000000000000000000000000000000000000000000000000000000000000000000000000000000005b73c5498c1e3b4dba84de0f1833c4a029d9051900000000000000000000000000000000000000000000000000000000000075e800000000000000000000000021af1185734d213d45c6236146fb81e2b0e8b8210000000000000000000000000000000000000000000069e10de76676d08000000000000000000000000000000000000000000000000069e10de76676d080000000000000000000000000000000000000000000000000000000000000000000e00000000000000000000000000000000000000000000000000000000000000120000000000000000000000000000000000000000000000000000000000000014000000000000000000000000000000000000000000000000000000000000000160003010011010000000000000000000000000007a1200000000000000000000000000000000000000000000000000000000000000000000000000000000000000000000000000000000000000000000000000000000000000000000000000000",
        "nonce": "0xe2",
        "chainId": "0x89"
      },
      "additionalContracts": [],
      "isFixedGasLimit": false
    },
    {
      "hash": null,
      "transactionType": "CALL",
      "contractName": null,
      "contractAddress": "0x3d2bD0e15829AA5C362a4144FdF4A1112fa29B5c",
      "function": "approve(address,uint256)",
      "arguments": [
        "0x303b63e785B656ca56ea5A5C1634Ab20C98895e1",
        "500000000000000000000000"
      ],
      "transaction": {
        "from": "0x21aF1185734D213D45C6236146fb81E2b0E8b821",
        "to": "0x3d2bD0e15829AA5C362a4144FdF4A1112fa29B5c",
        "gas": "0xf94b",
        "value": "0x0",
        "input": "0x095ea7b3000000000000000000000000303b63e785b656ca56ea5a5c1634ab20c98895e10000000000000000000000000000000000000000000069e10de76676d0800000",
        "nonce": "0xe3",
        "chainId": "0x89"
      },
      "additionalContracts": [],
      "isFixedGasLimit": false
    },
    {
      "hash": null,
      "transactionType": "CALL",
      "contractName": "BonsaiOFTAdapter",
      "contractAddress": "0x303b63e785B656ca56ea5A5C1634Ab20C98895e1",
      "function": "send((uint32,bytes32,uint256,uint256,bytes,bytes,bytes),(uint256,uint256),address)",
      "arguments": [
        "(30184, 0x00000000000000000000000021af1185734d213d45c6236146fb81e2b0e8b821, 500000000000000000000000, 500000000000000000000000, 0x0003010011010000000000000000000000000007a120, 0x, 0x)",
        "(331625219429226242, 0)",
        "0x5b73C5498c1E3b4dbA84de0F1833c4a029d90519"
      ],
      "transaction": {
        "from": "0x21aF1185734D213D45C6236146fb81E2b0E8b821",
        "to": "0x303b63e785B656ca56ea5A5C1634Ab20C98895e1",
        "gas": "0x5d32d",
        "value": "0x49a2b614aa3d702",
        "input": "0xc7c7f5b30000000000000000000000000000000000000000000000000000000000000080000000000000000000000000000000000000000000000000049a2b614aa3d70200000000000000000000000000000000000000000000000000000000000000000000000000000000000000005b73c5498c1e3b4dba84de0f1833c4a029d9051900000000000000000000000000000000000000000000000000000000000075e800000000000000000000000021af1185734d213d45c6236146fb81e2b0e8b8210000000000000000000000000000000000000000000069e10de76676d08000000000000000000000000000000000000000000000000069e10de76676d080000000000000000000000000000000000000000000000000000000000000000000e00000000000000000000000000000000000000000000000000000000000000120000000000000000000000000000000000000000000000000000000000000014000000000000000000000000000000000000000000000000000000000000000160003010011010000000000000000000000000007a1200000000000000000000000000000000000000000000000000000000000000000000000000000000000000000000000000000000000000000000000000000000000000000000000000000",
        "nonce": "0xe4",
        "chainId": "0x89"
      },
      "additionalContracts": [],
      "isFixedGasLimit": false
    },
    {
      "hash": null,
      "transactionType": "CALL",
      "contractName": null,
      "contractAddress": "0x3d2bD0e15829AA5C362a4144FdF4A1112fa29B5c",
      "function": "approve(address,uint256)",
      "arguments": [
        "0x303b63e785B656ca56ea5A5C1634Ab20C98895e1",
        "500000000000000000000000"
      ],
      "transaction": {
        "from": "0x21aF1185734D213D45C6236146fb81E2b0E8b821",
        "to": "0x3d2bD0e15829AA5C362a4144FdF4A1112fa29B5c",
        "gas": "0xf94b",
        "value": "0x0",
        "input": "0x095ea7b3000000000000000000000000303b63e785b656ca56ea5a5c1634ab20c98895e10000000000000000000000000000000000000000000069e10de76676d0800000",
        "nonce": "0xe5",
        "chainId": "0x89"
      },
      "additionalContracts": [],
      "isFixedGasLimit": false
    },
    {
      "hash": null,
      "transactionType": "CALL",
      "contractName": "BonsaiOFTAdapter",
      "contractAddress": "0x303b63e785B656ca56ea5A5C1634Ab20C98895e1",
      "function": "send((uint32,bytes32,uint256,uint256,bytes,bytes,bytes),(uint256,uint256),address)",
      "arguments": [
        "(30184, 0x00000000000000000000000021af1185734d213d45c6236146fb81e2b0e8b821, 500000000000000000000000, 500000000000000000000000, 0x0003010011010000000000000000000000000007a120, 0x, 0x)",
        "(331625219429226242, 0)",
        "0x5b73C5498c1E3b4dbA84de0F1833c4a029d90519"
      ],
      "transaction": {
        "from": "0x21aF1185734D213D45C6236146fb81E2b0E8b821",
        "to": "0x303b63e785B656ca56ea5A5C1634Ab20C98895e1",
        "gas": "0x5d32d",
        "value": "0x49a2b614aa3d702",
        "input": "0xc7c7f5b30000000000000000000000000000000000000000000000000000000000000080000000000000000000000000000000000000000000000000049a2b614aa3d70200000000000000000000000000000000000000000000000000000000000000000000000000000000000000005b73c5498c1e3b4dba84de0f1833c4a029d9051900000000000000000000000000000000000000000000000000000000000075e800000000000000000000000021af1185734d213d45c6236146fb81e2b0e8b8210000000000000000000000000000000000000000000069e10de76676d08000000000000000000000000000000000000000000000000069e10de76676d080000000000000000000000000000000000000000000000000000000000000000000e00000000000000000000000000000000000000000000000000000000000000120000000000000000000000000000000000000000000000000000000000000014000000000000000000000000000000000000000000000000000000000000000160003010011010000000000000000000000000007a1200000000000000000000000000000000000000000000000000000000000000000000000000000000000000000000000000000000000000000000000000000000000000000000000000000",
        "nonce": "0xe6",
        "chainId": "0x89"
      },
      "additionalContracts": [],
      "isFixedGasLimit": false
    },
    {
      "hash": null,
      "transactionType": "CALL",
      "contractName": null,
      "contractAddress": "0x3d2bD0e15829AA5C362a4144FdF4A1112fa29B5c",
      "function": "approve(address,uint256)",
      "arguments": [
        "0x303b63e785B656ca56ea5A5C1634Ab20C98895e1",
        "500000000000000000000000"
      ],
      "transaction": {
        "from": "0x21aF1185734D213D45C6236146fb81E2b0E8b821",
        "to": "0x3d2bD0e15829AA5C362a4144FdF4A1112fa29B5c",
        "gas": "0xf94b",
        "value": "0x0",
        "input": "0x095ea7b3000000000000000000000000303b63e785b656ca56ea5a5c1634ab20c98895e10000000000000000000000000000000000000000000069e10de76676d0800000",
        "nonce": "0xe7",
        "chainId": "0x89"
      },
      "additionalContracts": [],
      "isFixedGasLimit": false
    },
    {
      "hash": null,
      "transactionType": "CALL",
      "contractName": "BonsaiOFTAdapter",
      "contractAddress": "0x303b63e785B656ca56ea5A5C1634Ab20C98895e1",
      "function": "send((uint32,bytes32,uint256,uint256,bytes,bytes,bytes),(uint256,uint256),address)",
      "arguments": [
        "(30184, 0x00000000000000000000000021af1185734d213d45c6236146fb81e2b0e8b821, 500000000000000000000000, 500000000000000000000000, 0x0003010011010000000000000000000000000007a120, 0x, 0x)",
        "(331625219429226242, 0)",
        "0x5b73C5498c1E3b4dbA84de0F1833c4a029d90519"
      ],
      "transaction": {
        "from": "0x21aF1185734D213D45C6236146fb81E2b0E8b821",
        "to": "0x303b63e785B656ca56ea5A5C1634Ab20C98895e1",
        "gas": "0x5d32d",
        "value": "0x49a2b614aa3d702",
        "input": "0xc7c7f5b30000000000000000000000000000000000000000000000000000000000000080000000000000000000000000000000000000000000000000049a2b614aa3d70200000000000000000000000000000000000000000000000000000000000000000000000000000000000000005b73c5498c1e3b4dba84de0f1833c4a029d9051900000000000000000000000000000000000000000000000000000000000075e800000000000000000000000021af1185734d213d45c6236146fb81e2b0e8b8210000000000000000000000000000000000000000000069e10de76676d08000000000000000000000000000000000000000000000000069e10de76676d080000000000000000000000000000000000000000000000000000000000000000000e00000000000000000000000000000000000000000000000000000000000000120000000000000000000000000000000000000000000000000000000000000014000000000000000000000000000000000000000000000000000000000000000160003010011010000000000000000000000000007a1200000000000000000000000000000000000000000000000000000000000000000000000000000000000000000000000000000000000000000000000000000000000000000000000000000",
        "nonce": "0xe8",
        "chainId": "0x89"
      },
      "additionalContracts": [],
      "isFixedGasLimit": false
    },
    {
      "hash": null,
      "transactionType": "CALL",
      "contractName": null,
      "contractAddress": "0x3d2bD0e15829AA5C362a4144FdF4A1112fa29B5c",
      "function": "approve(address,uint256)",
      "arguments": [
        "0x303b63e785B656ca56ea5A5C1634Ab20C98895e1",
        "500000000000000000000000"
      ],
      "transaction": {
        "from": "0x21aF1185734D213D45C6236146fb81E2b0E8b821",
        "to": "0x3d2bD0e15829AA5C362a4144FdF4A1112fa29B5c",
        "gas": "0xf94b",
        "value": "0x0",
        "input": "0x095ea7b3000000000000000000000000303b63e785b656ca56ea5a5c1634ab20c98895e10000000000000000000000000000000000000000000069e10de76676d0800000",
        "nonce": "0xe9",
        "chainId": "0x89"
      },
      "additionalContracts": [],
      "isFixedGasLimit": false
    },
    {
      "hash": null,
      "transactionType": "CALL",
      "contractName": "BonsaiOFTAdapter",
      "contractAddress": "0x303b63e785B656ca56ea5A5C1634Ab20C98895e1",
      "function": "send((uint32,bytes32,uint256,uint256,bytes,bytes,bytes),(uint256,uint256),address)",
      "arguments": [
        "(30184, 0x00000000000000000000000021af1185734d213d45c6236146fb81e2b0e8b821, 500000000000000000000000, 500000000000000000000000, 0x0003010011010000000000000000000000000007a120, 0x, 0x)",
        "(331625219429226242, 0)",
        "0x5b73C5498c1E3b4dbA84de0F1833c4a029d90519"
      ],
      "transaction": {
        "from": "0x21aF1185734D213D45C6236146fb81E2b0E8b821",
        "to": "0x303b63e785B656ca56ea5A5C1634Ab20C98895e1",
        "gas": "0x5d32d",
        "value": "0x49a2b614aa3d702",
        "input": "0xc7c7f5b30000000000000000000000000000000000000000000000000000000000000080000000000000000000000000000000000000000000000000049a2b614aa3d70200000000000000000000000000000000000000000000000000000000000000000000000000000000000000005b73c5498c1e3b4dba84de0f1833c4a029d9051900000000000000000000000000000000000000000000000000000000000075e800000000000000000000000021af1185734d213d45c6236146fb81e2b0e8b8210000000000000000000000000000000000000000000069e10de76676d08000000000000000000000000000000000000000000000000069e10de76676d080000000000000000000000000000000000000000000000000000000000000000000e00000000000000000000000000000000000000000000000000000000000000120000000000000000000000000000000000000000000000000000000000000014000000000000000000000000000000000000000000000000000000000000000160003010011010000000000000000000000000007a1200000000000000000000000000000000000000000000000000000000000000000000000000000000000000000000000000000000000000000000000000000000000000000000000000000",
        "nonce": "0xea",
        "chainId": "0x89"
      },
      "additionalContracts": [],
      "isFixedGasLimit": false
    },
    {
      "hash": null,
      "transactionType": "CALL",
      "contractName": null,
      "contractAddress": "0x3d2bD0e15829AA5C362a4144FdF4A1112fa29B5c",
      "function": "approve(address,uint256)",
      "arguments": [
        "0x303b63e785B656ca56ea5A5C1634Ab20C98895e1",
        "500000000000000000000000"
      ],
      "transaction": {
        "from": "0x21aF1185734D213D45C6236146fb81E2b0E8b821",
        "to": "0x3d2bD0e15829AA5C362a4144FdF4A1112fa29B5c",
        "gas": "0xf94b",
        "value": "0x0",
        "input": "0x095ea7b3000000000000000000000000303b63e785b656ca56ea5a5c1634ab20c98895e10000000000000000000000000000000000000000000069e10de76676d0800000",
        "nonce": "0xeb",
        "chainId": "0x89"
      },
      "additionalContracts": [],
      "isFixedGasLimit": false
    },
    {
      "hash": null,
      "transactionType": "CALL",
      "contractName": "BonsaiOFTAdapter",
      "contractAddress": "0x303b63e785B656ca56ea5A5C1634Ab20C98895e1",
      "function": "send((uint32,bytes32,uint256,uint256,bytes,bytes,bytes),(uint256,uint256),address)",
      "arguments": [
        "(30184, 0x00000000000000000000000021af1185734d213d45c6236146fb81e2b0e8b821, 500000000000000000000000, 500000000000000000000000, 0x0003010011010000000000000000000000000007a120, 0x, 0x)",
        "(331625219429226242, 0)",
        "0x5b73C5498c1E3b4dbA84de0F1833c4a029d90519"
      ],
      "transaction": {
        "from": "0x21aF1185734D213D45C6236146fb81E2b0E8b821",
        "to": "0x303b63e785B656ca56ea5A5C1634Ab20C98895e1",
        "gas": "0x5d32d",
        "value": "0x49a2b614aa3d702",
        "input": "0xc7c7f5b30000000000000000000000000000000000000000000000000000000000000080000000000000000000000000000000000000000000000000049a2b614aa3d70200000000000000000000000000000000000000000000000000000000000000000000000000000000000000005b73c5498c1e3b4dba84de0f1833c4a029d9051900000000000000000000000000000000000000000000000000000000000075e800000000000000000000000021af1185734d213d45c6236146fb81e2b0e8b8210000000000000000000000000000000000000000000069e10de76676d08000000000000000000000000000000000000000000000000069e10de76676d080000000000000000000000000000000000000000000000000000000000000000000e00000000000000000000000000000000000000000000000000000000000000120000000000000000000000000000000000000000000000000000000000000014000000000000000000000000000000000000000000000000000000000000000160003010011010000000000000000000000000007a1200000000000000000000000000000000000000000000000000000000000000000000000000000000000000000000000000000000000000000000000000000000000000000000000000000",
        "nonce": "0xec",
        "chainId": "0x89"
      },
      "additionalContracts": [],
      "isFixedGasLimit": false
    },
    {
      "hash": null,
      "transactionType": "CALL",
      "contractName": null,
      "contractAddress": "0x3d2bD0e15829AA5C362a4144FdF4A1112fa29B5c",
      "function": "approve(address,uint256)",
      "arguments": [
        "0x303b63e785B656ca56ea5A5C1634Ab20C98895e1",
        "500000000000000000000000"
      ],
      "transaction": {
        "from": "0x21aF1185734D213D45C6236146fb81E2b0E8b821",
        "to": "0x3d2bD0e15829AA5C362a4144FdF4A1112fa29B5c",
        "gas": "0xf94b",
        "value": "0x0",
        "input": "0x095ea7b3000000000000000000000000303b63e785b656ca56ea5a5c1634ab20c98895e10000000000000000000000000000000000000000000069e10de76676d0800000",
        "nonce": "0xed",
        "chainId": "0x89"
      },
      "additionalContracts": [],
      "isFixedGasLimit": false
    },
    {
      "hash": null,
      "transactionType": "CALL",
      "contractName": "BonsaiOFTAdapter",
      "contractAddress": "0x303b63e785B656ca56ea5A5C1634Ab20C98895e1",
      "function": "send((uint32,bytes32,uint256,uint256,bytes,bytes,bytes),(uint256,uint256),address)",
      "arguments": [
        "(30184, 0x00000000000000000000000021af1185734d213d45c6236146fb81e2b0e8b821, 500000000000000000000000, 500000000000000000000000, 0x0003010011010000000000000000000000000007a120, 0x, 0x)",
        "(331625219429226242, 0)",
        "0x5b73C5498c1E3b4dbA84de0F1833c4a029d90519"
      ],
      "transaction": {
        "from": "0x21aF1185734D213D45C6236146fb81E2b0E8b821",
        "to": "0x303b63e785B656ca56ea5A5C1634Ab20C98895e1",
        "gas": "0x5d32d",
        "value": "0x49a2b614aa3d702",
        "input": "0xc7c7f5b30000000000000000000000000000000000000000000000000000000000000080000000000000000000000000000000000000000000000000049a2b614aa3d70200000000000000000000000000000000000000000000000000000000000000000000000000000000000000005b73c5498c1e3b4dba84de0f1833c4a029d9051900000000000000000000000000000000000000000000000000000000000075e800000000000000000000000021af1185734d213d45c6236146fb81e2b0e8b8210000000000000000000000000000000000000000000069e10de76676d08000000000000000000000000000000000000000000000000069e10de76676d080000000000000000000000000000000000000000000000000000000000000000000e00000000000000000000000000000000000000000000000000000000000000120000000000000000000000000000000000000000000000000000000000000014000000000000000000000000000000000000000000000000000000000000000160003010011010000000000000000000000000007a1200000000000000000000000000000000000000000000000000000000000000000000000000000000000000000000000000000000000000000000000000000000000000000000000000000",
        "nonce": "0xee",
        "chainId": "0x89"
      },
      "additionalContracts": [],
      "isFixedGasLimit": false
    },
    {
      "hash": null,
      "transactionType": "CALL",
      "contractName": null,
      "contractAddress": "0x3d2bD0e15829AA5C362a4144FdF4A1112fa29B5c",
      "function": "approve(address,uint256)",
      "arguments": [
        "0x303b63e785B656ca56ea5A5C1634Ab20C98895e1",
        "500000000000000000000000"
      ],
      "transaction": {
        "from": "0x21aF1185734D213D45C6236146fb81E2b0E8b821",
        "to": "0x3d2bD0e15829AA5C362a4144FdF4A1112fa29B5c",
        "gas": "0xf94b",
        "value": "0x0",
        "input": "0x095ea7b3000000000000000000000000303b63e785b656ca56ea5a5c1634ab20c98895e10000000000000000000000000000000000000000000069e10de76676d0800000",
        "nonce": "0xef",
        "chainId": "0x89"
      },
      "additionalContracts": [],
      "isFixedGasLimit": false
    },
    {
      "hash": null,
      "transactionType": "CALL",
      "contractName": "BonsaiOFTAdapter",
      "contractAddress": "0x303b63e785B656ca56ea5A5C1634Ab20C98895e1",
      "function": "send((uint32,bytes32,uint256,uint256,bytes,bytes,bytes),(uint256,uint256),address)",
      "arguments": [
        "(30184, 0x00000000000000000000000021af1185734d213d45c6236146fb81e2b0e8b821, 500000000000000000000000, 500000000000000000000000, 0x0003010011010000000000000000000000000007a120, 0x, 0x)",
        "(331625219429226242, 0)",
        "0x5b73C5498c1E3b4dbA84de0F1833c4a029d90519"
      ],
      "transaction": {
        "from": "0x21aF1185734D213D45C6236146fb81E2b0E8b821",
        "to": "0x303b63e785B656ca56ea5A5C1634Ab20C98895e1",
        "gas": "0x5d32d",
        "value": "0x49a2b614aa3d702",
        "input": "0xc7c7f5b30000000000000000000000000000000000000000000000000000000000000080000000000000000000000000000000000000000000000000049a2b614aa3d70200000000000000000000000000000000000000000000000000000000000000000000000000000000000000005b73c5498c1e3b4dba84de0f1833c4a029d9051900000000000000000000000000000000000000000000000000000000000075e800000000000000000000000021af1185734d213d45c6236146fb81e2b0e8b8210000000000000000000000000000000000000000000069e10de76676d08000000000000000000000000000000000000000000000000069e10de76676d080000000000000000000000000000000000000000000000000000000000000000000e00000000000000000000000000000000000000000000000000000000000000120000000000000000000000000000000000000000000000000000000000000014000000000000000000000000000000000000000000000000000000000000000160003010011010000000000000000000000000007a1200000000000000000000000000000000000000000000000000000000000000000000000000000000000000000000000000000000000000000000000000000000000000000000000000000",
        "nonce": "0xf0",
        "chainId": "0x89"
      },
      "additionalContracts": [],
      "isFixedGasLimit": false
    },
    {
      "hash": null,
      "transactionType": "CALL",
      "contractName": null,
      "contractAddress": "0x3d2bD0e15829AA5C362a4144FdF4A1112fa29B5c",
      "function": "approve(address,uint256)",
      "arguments": [
        "0x303b63e785B656ca56ea5A5C1634Ab20C98895e1",
        "500000000000000000000000"
      ],
      "transaction": {
        "from": "0x21aF1185734D213D45C6236146fb81E2b0E8b821",
        "to": "0x3d2bD0e15829AA5C362a4144FdF4A1112fa29B5c",
        "gas": "0xf94b",
        "value": "0x0",
        "input": "0x095ea7b3000000000000000000000000303b63e785b656ca56ea5a5c1634ab20c98895e10000000000000000000000000000000000000000000069e10de76676d0800000",
        "nonce": "0xf1",
        "chainId": "0x89"
      },
      "additionalContracts": [],
      "isFixedGasLimit": false
    },
    {
      "hash": null,
      "transactionType": "CALL",
      "contractName": "BonsaiOFTAdapter",
      "contractAddress": "0x303b63e785B656ca56ea5A5C1634Ab20C98895e1",
      "function": "send((uint32,bytes32,uint256,uint256,bytes,bytes,bytes),(uint256,uint256),address)",
      "arguments": [
        "(30184, 0x00000000000000000000000021af1185734d213d45c6236146fb81e2b0e8b821, 500000000000000000000000, 500000000000000000000000, 0x0003010011010000000000000000000000000007a120, 0x, 0x)",
        "(331625219429226242, 0)",
        "0x5b73C5498c1E3b4dbA84de0F1833c4a029d90519"
      ],
      "transaction": {
        "from": "0x21aF1185734D213D45C6236146fb81E2b0E8b821",
        "to": "0x303b63e785B656ca56ea5A5C1634Ab20C98895e1",
        "gas": "0x5d32d",
        "value": "0x49a2b614aa3d702",
        "input": "0xc7c7f5b30000000000000000000000000000000000000000000000000000000000000080000000000000000000000000000000000000000000000000049a2b614aa3d70200000000000000000000000000000000000000000000000000000000000000000000000000000000000000005b73c5498c1e3b4dba84de0f1833c4a029d9051900000000000000000000000000000000000000000000000000000000000075e800000000000000000000000021af1185734d213d45c6236146fb81e2b0e8b8210000000000000000000000000000000000000000000069e10de76676d08000000000000000000000000000000000000000000000000069e10de76676d080000000000000000000000000000000000000000000000000000000000000000000e00000000000000000000000000000000000000000000000000000000000000120000000000000000000000000000000000000000000000000000000000000014000000000000000000000000000000000000000000000000000000000000000160003010011010000000000000000000000000007a1200000000000000000000000000000000000000000000000000000000000000000000000000000000000000000000000000000000000000000000000000000000000000000000000000000",
        "nonce": "0xf2",
        "chainId": "0x89"
      },
      "additionalContracts": [],
      "isFixedGasLimit": false
    },
    {
      "hash": null,
      "transactionType": "CALL",
      "contractName": null,
      "contractAddress": "0x3d2bD0e15829AA5C362a4144FdF4A1112fa29B5c",
      "function": "approve(address,uint256)",
      "arguments": [
        "0x303b63e785B656ca56ea5A5C1634Ab20C98895e1",
        "500000000000000000000000"
      ],
      "transaction": {
        "from": "0x21aF1185734D213D45C6236146fb81E2b0E8b821",
        "to": "0x3d2bD0e15829AA5C362a4144FdF4A1112fa29B5c",
        "gas": "0xf94b",
        "value": "0x0",
        "input": "0x095ea7b3000000000000000000000000303b63e785b656ca56ea5a5c1634ab20c98895e10000000000000000000000000000000000000000000069e10de76676d0800000",
        "nonce": "0xf3",
        "chainId": "0x89"
      },
      "additionalContracts": [],
      "isFixedGasLimit": false
    },
    {
      "hash": null,
      "transactionType": "CALL",
      "contractName": "BonsaiOFTAdapter",
      "contractAddress": "0x303b63e785B656ca56ea5A5C1634Ab20C98895e1",
      "function": "send((uint32,bytes32,uint256,uint256,bytes,bytes,bytes),(uint256,uint256),address)",
      "arguments": [
        "(30184, 0x00000000000000000000000021af1185734d213d45c6236146fb81e2b0e8b821, 500000000000000000000000, 500000000000000000000000, 0x0003010011010000000000000000000000000007a120, 0x, 0x)",
        "(331625219429226242, 0)",
        "0x5b73C5498c1E3b4dbA84de0F1833c4a029d90519"
      ],
      "transaction": {
        "from": "0x21aF1185734D213D45C6236146fb81E2b0E8b821",
        "to": "0x303b63e785B656ca56ea5A5C1634Ab20C98895e1",
        "gas": "0x5d32d",
        "value": "0x49a2b614aa3d702",
        "input": "0xc7c7f5b30000000000000000000000000000000000000000000000000000000000000080000000000000000000000000000000000000000000000000049a2b614aa3d70200000000000000000000000000000000000000000000000000000000000000000000000000000000000000005b73c5498c1e3b4dba84de0f1833c4a029d9051900000000000000000000000000000000000000000000000000000000000075e800000000000000000000000021af1185734d213d45c6236146fb81e2b0e8b8210000000000000000000000000000000000000000000069e10de76676d08000000000000000000000000000000000000000000000000069e10de76676d080000000000000000000000000000000000000000000000000000000000000000000e00000000000000000000000000000000000000000000000000000000000000120000000000000000000000000000000000000000000000000000000000000014000000000000000000000000000000000000000000000000000000000000000160003010011010000000000000000000000000007a1200000000000000000000000000000000000000000000000000000000000000000000000000000000000000000000000000000000000000000000000000000000000000000000000000000",
        "nonce": "0xf4",
        "chainId": "0x89"
      },
      "additionalContracts": [],
      "isFixedGasLimit": false
    },
    {
      "hash": null,
      "transactionType": "CALL",
      "contractName": null,
      "contractAddress": "0x3d2bD0e15829AA5C362a4144FdF4A1112fa29B5c",
      "function": "approve(address,uint256)",
      "arguments": [
        "0x303b63e785B656ca56ea5A5C1634Ab20C98895e1",
        "500000000000000000000000"
      ],
      "transaction": {
        "from": "0x21aF1185734D213D45C6236146fb81E2b0E8b821",
        "to": "0x3d2bD0e15829AA5C362a4144FdF4A1112fa29B5c",
        "gas": "0xf94b",
        "value": "0x0",
        "input": "0x095ea7b3000000000000000000000000303b63e785b656ca56ea5a5c1634ab20c98895e10000000000000000000000000000000000000000000069e10de76676d0800000",
        "nonce": "0xf5",
        "chainId": "0x89"
      },
      "additionalContracts": [],
      "isFixedGasLimit": false
    },
    {
      "hash": null,
      "transactionType": "CALL",
      "contractName": "BonsaiOFTAdapter",
      "contractAddress": "0x303b63e785B656ca56ea5A5C1634Ab20C98895e1",
      "function": "send((uint32,bytes32,uint256,uint256,bytes,bytes,bytes),(uint256,uint256),address)",
      "arguments": [
        "(30184, 0x00000000000000000000000021af1185734d213d45c6236146fb81e2b0e8b821, 500000000000000000000000, 500000000000000000000000, 0x0003010011010000000000000000000000000007a120, 0x, 0x)",
        "(331625219429226242, 0)",
        "0x5b73C5498c1E3b4dbA84de0F1833c4a029d90519"
      ],
      "transaction": {
        "from": "0x21aF1185734D213D45C6236146fb81E2b0E8b821",
        "to": "0x303b63e785B656ca56ea5A5C1634Ab20C98895e1",
        "gas": "0x5d32d",
        "value": "0x49a2b614aa3d702",
        "input": "0xc7c7f5b30000000000000000000000000000000000000000000000000000000000000080000000000000000000000000000000000000000000000000049a2b614aa3d70200000000000000000000000000000000000000000000000000000000000000000000000000000000000000005b73c5498c1e3b4dba84de0f1833c4a029d9051900000000000000000000000000000000000000000000000000000000000075e800000000000000000000000021af1185734d213d45c6236146fb81e2b0e8b8210000000000000000000000000000000000000000000069e10de76676d08000000000000000000000000000000000000000000000000069e10de76676d080000000000000000000000000000000000000000000000000000000000000000000e00000000000000000000000000000000000000000000000000000000000000120000000000000000000000000000000000000000000000000000000000000014000000000000000000000000000000000000000000000000000000000000000160003010011010000000000000000000000000007a1200000000000000000000000000000000000000000000000000000000000000000000000000000000000000000000000000000000000000000000000000000000000000000000000000000",
        "nonce": "0xf6",
        "chainId": "0x89"
      },
      "additionalContracts": [],
      "isFixedGasLimit": false
    },
    {
      "hash": null,
      "transactionType": "CALL",
      "contractName": null,
      "contractAddress": "0x3d2bD0e15829AA5C362a4144FdF4A1112fa29B5c",
      "function": "approve(address,uint256)",
      "arguments": [
        "0x303b63e785B656ca56ea5A5C1634Ab20C98895e1",
        "500000000000000000000000"
      ],
      "transaction": {
        "from": "0x21aF1185734D213D45C6236146fb81E2b0E8b821",
        "to": "0x3d2bD0e15829AA5C362a4144FdF4A1112fa29B5c",
        "gas": "0xf94b",
        "value": "0x0",
        "input": "0x095ea7b3000000000000000000000000303b63e785b656ca56ea5a5c1634ab20c98895e10000000000000000000000000000000000000000000069e10de76676d0800000",
        "nonce": "0xf7",
        "chainId": "0x89"
      },
      "additionalContracts": [],
      "isFixedGasLimit": false
    },
    {
      "hash": null,
      "transactionType": "CALL",
      "contractName": "BonsaiOFTAdapter",
      "contractAddress": "0x303b63e785B656ca56ea5A5C1634Ab20C98895e1",
      "function": "send((uint32,bytes32,uint256,uint256,bytes,bytes,bytes),(uint256,uint256),address)",
      "arguments": [
        "(30184, 0x00000000000000000000000021af1185734d213d45c6236146fb81e2b0e8b821, 500000000000000000000000, 500000000000000000000000, 0x0003010011010000000000000000000000000007a120, 0x, 0x)",
        "(331625219429226242, 0)",
        "0x5b73C5498c1E3b4dbA84de0F1833c4a029d90519"
      ],
      "transaction": {
        "from": "0x21aF1185734D213D45C6236146fb81E2b0E8b821",
        "to": "0x303b63e785B656ca56ea5A5C1634Ab20C98895e1",
        "gas": "0x5d32d",
        "value": "0x49a2b614aa3d702",
        "input": "0xc7c7f5b30000000000000000000000000000000000000000000000000000000000000080000000000000000000000000000000000000000000000000049a2b614aa3d70200000000000000000000000000000000000000000000000000000000000000000000000000000000000000005b73c5498c1e3b4dba84de0f1833c4a029d9051900000000000000000000000000000000000000000000000000000000000075e800000000000000000000000021af1185734d213d45c6236146fb81e2b0e8b8210000000000000000000000000000000000000000000069e10de76676d08000000000000000000000000000000000000000000000000069e10de76676d080000000000000000000000000000000000000000000000000000000000000000000e00000000000000000000000000000000000000000000000000000000000000120000000000000000000000000000000000000000000000000000000000000014000000000000000000000000000000000000000000000000000000000000000160003010011010000000000000000000000000007a1200000000000000000000000000000000000000000000000000000000000000000000000000000000000000000000000000000000000000000000000000000000000000000000000000000",
        "nonce": "0xf8",
        "chainId": "0x89"
      },
      "additionalContracts": [],
      "isFixedGasLimit": false
    },
    {
      "hash": null,
      "transactionType": "CALL",
      "contractName": null,
      "contractAddress": "0x3d2bD0e15829AA5C362a4144FdF4A1112fa29B5c",
      "function": "approve(address,uint256)",
      "arguments": [
        "0x303b63e785B656ca56ea5A5C1634Ab20C98895e1",
        "500000000000000000000000"
      ],
      "transaction": {
        "from": "0x21aF1185734D213D45C6236146fb81E2b0E8b821",
        "to": "0x3d2bD0e15829AA5C362a4144FdF4A1112fa29B5c",
        "gas": "0xf94b",
        "value": "0x0",
        "input": "0x095ea7b3000000000000000000000000303b63e785b656ca56ea5a5c1634ab20c98895e10000000000000000000000000000000000000000000069e10de76676d0800000",
        "nonce": "0xf9",
        "chainId": "0x89"
      },
      "additionalContracts": [],
      "isFixedGasLimit": false
    },
    {
      "hash": null,
      "transactionType": "CALL",
      "contractName": "BonsaiOFTAdapter",
      "contractAddress": "0x303b63e785B656ca56ea5A5C1634Ab20C98895e1",
      "function": "send((uint32,bytes32,uint256,uint256,bytes,bytes,bytes),(uint256,uint256),address)",
      "arguments": [
        "(30184, 0x00000000000000000000000021af1185734d213d45c6236146fb81e2b0e8b821, 500000000000000000000000, 500000000000000000000000, 0x0003010011010000000000000000000000000007a120, 0x, 0x)",
        "(331625219429226242, 0)",
        "0x5b73C5498c1E3b4dbA84de0F1833c4a029d90519"
      ],
      "transaction": {
        "from": "0x21aF1185734D213D45C6236146fb81E2b0E8b821",
        "to": "0x303b63e785B656ca56ea5A5C1634Ab20C98895e1",
        "gas": "0x5d32d",
        "value": "0x49a2b614aa3d702",
        "input": "0xc7c7f5b30000000000000000000000000000000000000000000000000000000000000080000000000000000000000000000000000000000000000000049a2b614aa3d70200000000000000000000000000000000000000000000000000000000000000000000000000000000000000005b73c5498c1e3b4dba84de0f1833c4a029d9051900000000000000000000000000000000000000000000000000000000000075e800000000000000000000000021af1185734d213d45c6236146fb81e2b0e8b8210000000000000000000000000000000000000000000069e10de76676d08000000000000000000000000000000000000000000000000069e10de76676d080000000000000000000000000000000000000000000000000000000000000000000e00000000000000000000000000000000000000000000000000000000000000120000000000000000000000000000000000000000000000000000000000000014000000000000000000000000000000000000000000000000000000000000000160003010011010000000000000000000000000007a1200000000000000000000000000000000000000000000000000000000000000000000000000000000000000000000000000000000000000000000000000000000000000000000000000000",
        "nonce": "0xfa",
        "chainId": "0x89"
      },
      "additionalContracts": [],
      "isFixedGasLimit": false
    },
    {
      "hash": null,
      "transactionType": "CALL",
      "contractName": null,
      "contractAddress": "0x3d2bD0e15829AA5C362a4144FdF4A1112fa29B5c",
      "function": "approve(address,uint256)",
      "arguments": [
        "0x303b63e785B656ca56ea5A5C1634Ab20C98895e1",
        "500000000000000000000000"
      ],
      "transaction": {
        "from": "0x21aF1185734D213D45C6236146fb81E2b0E8b821",
        "to": "0x3d2bD0e15829AA5C362a4144FdF4A1112fa29B5c",
        "gas": "0xf94b",
        "value": "0x0",
        "input": "0x095ea7b3000000000000000000000000303b63e785b656ca56ea5a5c1634ab20c98895e10000000000000000000000000000000000000000000069e10de76676d0800000",
        "nonce": "0xfb",
        "chainId": "0x89"
      },
      "additionalContracts": [],
      "isFixedGasLimit": false
    },
    {
      "hash": null,
      "transactionType": "CALL",
      "contractName": "BonsaiOFTAdapter",
      "contractAddress": "0x303b63e785B656ca56ea5A5C1634Ab20C98895e1",
      "function": "send((uint32,bytes32,uint256,uint256,bytes,bytes,bytes),(uint256,uint256),address)",
      "arguments": [
        "(30184, 0x00000000000000000000000021af1185734d213d45c6236146fb81e2b0e8b821, 500000000000000000000000, 500000000000000000000000, 0x0003010011010000000000000000000000000007a120, 0x, 0x)",
        "(331625219429226242, 0)",
        "0x5b73C5498c1E3b4dbA84de0F1833c4a029d90519"
      ],
      "transaction": {
        "from": "0x21aF1185734D213D45C6236146fb81E2b0E8b821",
        "to": "0x303b63e785B656ca56ea5A5C1634Ab20C98895e1",
        "gas": "0x5d32d",
        "value": "0x49a2b614aa3d702",
        "input": "0xc7c7f5b30000000000000000000000000000000000000000000000000000000000000080000000000000000000000000000000000000000000000000049a2b614aa3d70200000000000000000000000000000000000000000000000000000000000000000000000000000000000000005b73c5498c1e3b4dba84de0f1833c4a029d9051900000000000000000000000000000000000000000000000000000000000075e800000000000000000000000021af1185734d213d45c6236146fb81e2b0e8b8210000000000000000000000000000000000000000000069e10de76676d08000000000000000000000000000000000000000000000000069e10de76676d080000000000000000000000000000000000000000000000000000000000000000000e00000000000000000000000000000000000000000000000000000000000000120000000000000000000000000000000000000000000000000000000000000014000000000000000000000000000000000000000000000000000000000000000160003010011010000000000000000000000000007a1200000000000000000000000000000000000000000000000000000000000000000000000000000000000000000000000000000000000000000000000000000000000000000000000000000",
        "nonce": "0xfc",
        "chainId": "0x89"
      },
      "additionalContracts": [],
      "isFixedGasLimit": false
    },
    {
      "hash": null,
      "transactionType": "CALL",
      "contractName": null,
      "contractAddress": "0x3d2bD0e15829AA5C362a4144FdF4A1112fa29B5c",
      "function": "approve(address,uint256)",
      "arguments": [
        "0x303b63e785B656ca56ea5A5C1634Ab20C98895e1",
        "500000000000000000000000"
      ],
      "transaction": {
        "from": "0x21aF1185734D213D45C6236146fb81E2b0E8b821",
        "to": "0x3d2bD0e15829AA5C362a4144FdF4A1112fa29B5c",
        "gas": "0xf94b",
        "value": "0x0",
        "input": "0x095ea7b3000000000000000000000000303b63e785b656ca56ea5a5c1634ab20c98895e10000000000000000000000000000000000000000000069e10de76676d0800000",
        "nonce": "0xfd",
        "chainId": "0x89"
      },
      "additionalContracts": [],
      "isFixedGasLimit": false
    },
    {
      "hash": null,
      "transactionType": "CALL",
      "contractName": "BonsaiOFTAdapter",
      "contractAddress": "0x303b63e785B656ca56ea5A5C1634Ab20C98895e1",
      "function": "send((uint32,bytes32,uint256,uint256,bytes,bytes,bytes),(uint256,uint256),address)",
      "arguments": [
        "(30184, 0x00000000000000000000000021af1185734d213d45c6236146fb81e2b0e8b821, 500000000000000000000000, 500000000000000000000000, 0x0003010011010000000000000000000000000007a120, 0x, 0x)",
        "(331625219429226242, 0)",
        "0x5b73C5498c1E3b4dbA84de0F1833c4a029d90519"
      ],
      "transaction": {
        "from": "0x21aF1185734D213D45C6236146fb81E2b0E8b821",
        "to": "0x303b63e785B656ca56ea5A5C1634Ab20C98895e1",
        "gas": "0x5d32d",
        "value": "0x49a2b614aa3d702",
        "input": "0xc7c7f5b30000000000000000000000000000000000000000000000000000000000000080000000000000000000000000000000000000000000000000049a2b614aa3d70200000000000000000000000000000000000000000000000000000000000000000000000000000000000000005b73c5498c1e3b4dba84de0f1833c4a029d9051900000000000000000000000000000000000000000000000000000000000075e800000000000000000000000021af1185734d213d45c6236146fb81e2b0e8b8210000000000000000000000000000000000000000000069e10de76676d08000000000000000000000000000000000000000000000000069e10de76676d080000000000000000000000000000000000000000000000000000000000000000000e00000000000000000000000000000000000000000000000000000000000000120000000000000000000000000000000000000000000000000000000000000014000000000000000000000000000000000000000000000000000000000000000160003010011010000000000000000000000000007a1200000000000000000000000000000000000000000000000000000000000000000000000000000000000000000000000000000000000000000000000000000000000000000000000000000",
        "nonce": "0xfe",
        "chainId": "0x89"
      },
      "additionalContracts": [],
      "isFixedGasLimit": false
    }
  ],
  "receipts": [],
  "libraries": [],
  "pending": [],
  "returns": {},
  "timestamp": 1732377756,
  "chain": 137,
  "commit": "9bc9372"
}