{
  "transactions": [
    {
      "hash": null,
      "transactionType": "CALL",
      "contractName": null,
      "contractAddress": "0x3d2bd0e15829aa5c362a4144fdf4a1112fa29b5c",
      "function": "approve(address,uint256)",
      "arguments": [
        "0x303b63e785B656ca56ea5A5C1634Ab20C98895e1",
        "10000000000000000000000"
      ],
      "transaction": {
        "from": "0x21af1185734d213d45c6236146fb81e2b0e8b821",
        "to": "0x3d2bd0e15829aa5c362a4144fdf4a1112fa29b5c",
        "gas": "0xf94b",
        "value": "0x0",
        "input": "0x095ea7b3000000000000000000000000303b63e785b656ca56ea5a5c1634ab20c98895e100000000000000000000000000000000000000000000021e19e0c9bab2400000",
        "nonce": "0x5e",
        "chainId": "0x89"
      },
      "additionalContracts": [],
      "isFixedGasLimit": false
    },
    {
      "hash": null,
      "transactionType": "CALL",
      "contractName": null,
      "contractAddress": "0x303b63e785b656ca56ea5a5c1634ab20c98895e1",
      "function": "send((uint32,bytes32,uint256,uint256,bytes,bytes,bytes),(uint256,uint256),address)",
      "arguments": [
        "(30184, 0x00000000000000000000000021af1185734d213d45c6236146fb81e2b0e8b821, 10000000000000000000000, 10000000000000000000000, 0x, 0x, 0x)",
        "(398496981220898854, 0)",
        "0x5b73C5498c1E3b4dbA84de0F1833c4a029d90519"
      ],
      "transaction": {
        "from": "0x21af1185734d213d45c6236146fb81e2b0e8b821",
        "to": "0x303b63e785b656ca56ea5a5c1634ab20c98895e1",
        "gas": "0x67656",
        "value": "0x587bee4a1bcb826",
        "input": "0xc7c7f5b300000000000000000000000000000000000000000000000000000000000000800000000000000000000000000000000000000000000000000587bee4a1bcb82600000000000000000000000000000000000000000000000000000000000000000000000000000000000000005b73c5498c1e3b4dba84de0f1833c4a029d9051900000000000000000000000000000000000000000000000000000000000075e800000000000000000000000021af1185734d213d45c6236146fb81e2b0e8b82100000000000000000000000000000000000000000000021e19e0c9bab240000000000000000000000000000000000000000000000000021e19e0c9bab240000000000000000000000000000000000000000000000000000000000000000000e000000000000000000000000000000000000000000000000000000000000001000000000000000000000000000000000000000000000000000000000000000120000000000000000000000000000000000000000000000000000000000000000000000000000000000000000000000000000000000000000000000000000000000000000000000000000000000000000000000000000000000000000000000000",
        "nonce": "0x5f",
        "chainId": "0x89"
      },
      "additionalContracts": [],
      "isFixedGasLimit": false
    }
  ],
  "receipts": [],
  "libraries": [],
  "pending": [],
  "returns": {},
  "timestamp": 1727894113,
  "chain": 137,
  "commit": "d9dcac6"
}