{
  "transactions": [
    {
      "hash": "0x4448b75c551544ecf6642c66fce7ddc20f1784f7b820d1e4c57a54023a38e555",
      "transactionType": "CALL",
      "contractName": null,
      "contractAddress": "0x474f4cb764df9da079D94052fED39625c147C12C",
      "function": "send((uint32,bytes32,uint256,uint256,bytes,bytes,bytes),(uint256,uint256),address)",
      "arguments": [
        "(30165, 0x00000000000000000000000021af1185734d213d45c6236146fb81e2b0e8b821, 500000000000000000000000, 500000000000000000000000, 0x0003010011010000000000000000000000000007a120, 0x, 0x)",
        "(383232548303592, 0)",
        "0x5b73C5498c1E3b4dbA84de0F1833c4a029d90519"
      ],
      "transaction": {
        "from": "0x21aF1185734D213D45C6236146fb81E2b0E8b821",
        "to": "0x474f4cb764df9da079D94052fED39625c147C12C",
        "gas": "0x6ed3e",
        "value": "0x15c8c47e872e8",
        "input": "0xc7c7f5b3000000000000000000000000000000000000000000000000000000000000008000000000000000000000000000000000000000000000000000015c8c47e872e800000000000000000000000000000000000000000000000000000000000000000000000000000000000000005b73c5498c1e3b4dba84de0f1833c4a029d9051900000000000000000000000000000000000000000000000000000000000075d500000000000000000000000021af1185734d213d45c6236146fb81e2b0e8b8210000000000000000000000000000000000000000000069e10de76676d08000000000000000000000000000000000000000000000000069e10de76676d080000000000000000000000000000000000000000000000000000000000000000000e00000000000000000000000000000000000000000000000000000000000000120000000000000000000000000000000000000000000000000000000000000014000000000000000000000000000000000000000000000000000000000000000160003010011010000000000000000000000000007a1200000000000000000000000000000000000000000000000000000000000000000000000000000000000000000000000000000000000000000000000000000000000000000000000000000",
        "nonce": "0x79",
        "chainId": "0x2105"
      },
      "additionalContracts": [],
      "isFixedGasLimit": false
    }
  ],
  "receipts": [
    {
      "status": "0x1",
      "cumulativeGasUsed": "0x171e32b",
      "logs": [
        {
          "address": "0xf060fd6b66B13421c1E514e9f10BedAD52cF241e",
          "topics": [
            "0xddf252ad1be2c89b69c2b068fc378daa952ba7f163c4a11628f55a4df523b3ef",
            "0x00000000000000000000000021af1185734d213d45c6236146fb81e2b0e8b821",
            "0x0000000000000000000000000000000000000000000000000000000000000000",
            "0x0000000000000000000000000000000000000000000000000000000000000165"
          ],
          "data": "0x",
          "blockHash": "0x970f03e088862df318233a2b0c6bfb288509c83b1ddf98948d66b37734e35393",
          "blockNumber": "0x16bb26a",
          "transactionHash": "0x4448b75c551544ecf6642c66fce7ddc20f1784f7b820d1e4c57a54023a38e555",
          "transactionIndex": "0x8c",
          "logIndex": "0x1b2",
          "removed": false
        },
        {
          "address": "0xf060fd6b66B13421c1E514e9f10BedAD52cF241e",
          "topics": [
            "0xddf252ad1be2c89b69c2b068fc378daa952ba7f163c4a11628f55a4df523b3ef",
            "0x00000000000000000000000021af1185734d213d45c6236146fb81e2b0e8b821",
            "0x0000000000000000000000000000000000000000000000000000000000000000",
            "0x0000000000000000000000000000000000000000000000000000000000000164"
          ],
          "data": "0x",
          "blockHash": "0x970f03e088862df318233a2b0c6bfb288509c83b1ddf98948d66b37734e35393",
          "blockNumber": "0x16bb26a",
          "transactionHash": "0x4448b75c551544ecf6642c66fce7ddc20f1784f7b820d1e4c57a54023a38e555",
          "transactionIndex": "0x8c",
          "logIndex": "0x1b3",
          "removed": false
        },
        {
          "address": "0xf060fd6b66B13421c1E514e9f10BedAD52cF241e",
          "topics": [
            "0xddf252ad1be2c89b69c2b068fc378daa952ba7f163c4a11628f55a4df523b3ef",
            "0x00000000000000000000000021af1185734d213d45c6236146fb81e2b0e8b821",
            "0x0000000000000000000000000000000000000000000000000000000000000000",
            "0x0000000000000000000000000000000000000000000000000000000000000163"
          ],
          "data": "0x",
          "blockHash": "0x970f03e088862df318233a2b0c6bfb288509c83b1ddf98948d66b37734e35393",
          "blockNumber": "0x16bb26a",
          "transactionHash": "0x4448b75c551544ecf6642c66fce7ddc20f1784f7b820d1e4c57a54023a38e555",
          "transactionIndex": "0x8c",
          "logIndex": "0x1b4",
          "removed": false
        },
        {
          "address": "0xf060fd6b66B13421c1E514e9f10BedAD52cF241e",
          "topics": [
            "0xddf252ad1be2c89b69c2b068fc378daa952ba7f163c4a11628f55a4df523b3ef",
            "0x00000000000000000000000021af1185734d213d45c6236146fb81e2b0e8b821",
            "0x0000000000000000000000000000000000000000000000000000000000000000",
            "0x0000000000000000000000000000000000000000000000000000000000000162"
          ],
          "data": "0x",
          "blockHash": "0x970f03e088862df318233a2b0c6bfb288509c83b1ddf98948d66b37734e35393",
          "blockNumber": "0x16bb26a",
          "transactionHash": "0x4448b75c551544ecf6642c66fce7ddc20f1784f7b820d1e4c57a54023a38e555",
          "transactionIndex": "0x8c",
          "logIndex": "0x1b5",
          "removed": false
        },
        {
          "address": "0xf060fd6b66B13421c1E514e9f10BedAD52cF241e",
          "topics": [
            "0xddf252ad1be2c89b69c2b068fc378daa952ba7f163c4a11628f55a4df523b3ef",
            "0x00000000000000000000000021af1185734d213d45c6236146fb81e2b0e8b821",
            "0x0000000000000000000000000000000000000000000000000000000000000000",
            "0x0000000000000000000000000000000000000000000000000000000000000161"
          ],
          "data": "0x",
          "blockHash": "0x970f03e088862df318233a2b0c6bfb288509c83b1ddf98948d66b37734e35393",
          "blockNumber": "0x16bb26a",
          "transactionHash": "0x4448b75c551544ecf6642c66fce7ddc20f1784f7b820d1e4c57a54023a38e555",
          "transactionIndex": "0x8c",
          "logIndex": "0x1b6",
          "removed": false
        },
        {
          "address": "0x474f4cb764df9da079D94052fED39625c147C12C",
          "topics": [
            "0xddf252ad1be2c89b69c2b068fc378daa952ba7f163c4a11628f55a4df523b3ef",
            "0x00000000000000000000000021af1185734d213d45c6236146fb81e2b0e8b821",
            "0x0000000000000000000000000000000000000000000000000000000000000000"
          ],
          "data": "0x0000000000000000000000000000000000000000000069e10de76676d0800000",
          "blockHash": "0x970f03e088862df318233a2b0c6bfb288509c83b1ddf98948d66b37734e35393",
          "blockNumber": "0x16bb26a",
          "transactionHash": "0x4448b75c551544ecf6642c66fce7ddc20f1784f7b820d1e4c57a54023a38e555",
          "transactionIndex": "0x8c",
          "logIndex": "0x1b7",
          "removed": false
        },
        {
          "address": "0xB5320B0B3a13cC860893E2Bd79FCd7e13484Dda2",
          "topics": [
            "0x61ed099e74a97a1d7f8bb0952a88ca8b7b8ebd00c126ea04671f92a81213318a"
          ],
          "data": "0x0000000000000000000000002cca08ae69e0c44b18a57ab2a87644234daebae400000000000000000000000000000000000000000000000000008179f86fb44b",
          "blockHash": "0x970f03e088862df318233a2b0c6bfb288509c83b1ddf98948d66b37734e35393",
          "blockNumber": "0x16bb26a",
          "transactionHash": "0x4448b75c551544ecf6642c66fce7ddc20f1784f7b820d1e4c57a54023a38e555",
          "transactionIndex": "0x8c",
          "logIndex": "0x1b8",
          "removed": false
        },
        {
          "address": "0xB5320B0B3a13cC860893E2Bd79FCd7e13484Dda2",
          "topics": [
            "0x07ea52d82345d6e838192107d8fd7123d9c2ec8e916cd0aad13fd2b60db24644"
          ],
          "data": "0x000000000000000000000000000000000000000000000000000000000000006000000000000000000000000000000000000000000000000000000000000000a000000000000000000000000000000000000000000000000000000000000000e000000000000000000000000000000000000000000000000000000000000000010000000000000000000000009e059a54699a285714207b43b055483e78faac250000000000000000000000000000000000000000000000000000000000000001000000000000000000000000cdf31d62140204c08853b547e64707110fbc6680000000000000000000000000000000000000000000000000000000000000000200000000000000000000000000000000000000000000000000006d8cbcd01cfa00000000000000000000000000000000000000000000000000006d8592a8a1a3",
          "blockHash": "0x970f03e088862df318233a2b0c6bfb288509c83b1ddf98948d66b37734e35393",
          "blockNumber": "0x16bb26a",
          "transactionHash": "0x4448b75c551544ecf6642c66fce7ddc20f1784f7b820d1e4c57a54023a38e555",
          "transactionIndex": "0x8c",
          "logIndex": "0x1b9",
          "removed": false
        },
        {
          "address": "0x1a44076050125825900e736c501f859c50fE728c",
          "topics": [
            "0x1ab700d4ced0c005b164c0f789fd09fcbb0156d4c2041b8a3bfbcd961cd1567f"
          ],
          "data": "0x00000000000000000000000000000000000000000000000000000000000000600000000000000000000000000000000000000000000000000000000000000120000000000000000000000000b5320b0b3a13cc860893e2bd79fcd7e13484dda20000000000000000000000000000000000000000000000000000000000000099010000000000000001000075e8000000000000000000000000474f4cb764df9da079d94052fed39625c147c12c000075d5000000000000000000000000b0588f9a9cade7cd5f194a5fe77acd6a58250f82e183934f5952febe60612b062d2575b2086c1186a3d90f6e8e9c2acd5a5715d900000000000000000000000021af1185734d213d45c6236146fb81e2b0e8b821000000746a52880000000000000000000000000000000000000000000000000000000000000000000000000000002a0003010011010000000000000000000000000001adb0010011010000000000000000000000000007a12000000000000000000000000000000000000000000000",
          "blockHash": "0x970f03e088862df318233a2b0c6bfb288509c83b1ddf98948d66b37734e35393",
          "blockNumber": "0x16bb26a",
          "transactionHash": "0x4448b75c551544ecf6642c66fce7ddc20f1784f7b820d1e4c57a54023a38e555",
          "transactionIndex": "0x8c",
          "logIndex": "0x1ba",
          "removed": false
        },
        {
          "address": "0x474f4cb764df9da079D94052fED39625c147C12C",
          "topics": [
            "0x85496b760a4b7f8d66384b9df21b381f5d1b1e79f229a47aaf4c232edc2fe59a",
            "0xe183934f5952febe60612b062d2575b2086c1186a3d90f6e8e9c2acd5a5715d9",
            "0x00000000000000000000000021af1185734d213d45c6236146fb81e2b0e8b821"
          ],
          "data": "0x00000000000000000000000000000000000000000000000000000000000075d50000000000000000000000000000000000000000000069e10de76676d08000000000000000000000000000000000000000000000000069e10de76676d0800000",
          "blockHash": "0x970f03e088862df318233a2b0c6bfb288509c83b1ddf98948d66b37734e35393",
          "blockNumber": "0x16bb26a",
          "transactionHash": "0x4448b75c551544ecf6642c66fce7ddc20f1784f7b820d1e4c57a54023a38e555",
          "transactionIndex": "0x8c",
          "logIndex": "0x1bb",
          "removed": false
        }
      ],
      "logsBloom": "0x000400000000000008000200000800000100000000000000000008000010000000000000000000000000000000000000000000000000000000000000000000000000021000000001000004080100000000000000000000000000400000000001000000000200000080000000000008000000000000100000000040100000001000000000000000020000100800000000400000000000008000040000000000000000000080000000001000000000000000000000004000400004c0000000000060000002000000000000800090800000000000000000000002000000100020200008040000000000000000000000002000000000018000000000000000000000",
      "type": "0x2",
      "transactionHash": "0x4448b75c551544ecf6642c66fce7ddc20f1784f7b820d1e4c57a54023a38e555",
      "transactionIndex": "0x8c",
      "blockHash": "0x970f03e088862df318233a2b0c6bfb288509c83b1ddf98948d66b37734e35393",
      "blockNumber": "0x16bb26a",
      "gasUsed": "0x503cd",
      "effectiveGasPrice": "0x1258343",
      "from": "0x21aF1185734D213D45C6236146fb81E2b0E8b821",
      "to": "0x474f4cb764df9da079D94052fED39625c147C12C",
      "contractAddress": null,
      "l1BaseFeeScalar": "0x8dd",
      "l1BlobBaseFee": "0x68ee98",
      "l1BlobBaseFeeScalar": "0x101c12",
      "l1Fee": "0x29a6c6acec",
      "l1GasPrice": "0x636aebb2f",
      "l1GasUsed": "0xb74"
    }
  ],
  "libraries": [],
  "pending": [],
  "returns": {},
  "timestamp": 1734459836,
  "chain": 8453,
  "commit": "9bc9372"
}