{
  "transactions": [
    {
      "hash": "0x1fb352b1703933e7dd19fbd0c2b8203a41f46c98188832ada91b37f883280f33",
      "transactionType": "CALL",
      "contractName": null,
      "contractAddress": "0x3d2bd0e15829aa5c362a4144fdf4a1112fa29b5c",
      "function": "setPeer(uint32,bytes32)",
      "arguments": [
        "40267",
        "0x0000000000000000000000009918889e93e8c4357a2d4bce0965dcc493fffda8"
      ],
      "transaction": {
        "from": "0x21af1185734d213d45c6236146fb81e2b0e8b821",
        "to": "0x3d2bd0e15829aa5c362a4144fdf4a1112fa29b5c",
        "gas": "0xa518",
        "value": "0x0",
        "input": "0x3400288b0000000000000000000000000000000000000000000000000000000000009d4b0000000000000000000000009918889e93e8c4357a2d4bce0965dcc493fffda8",
        "nonce": "0x13",
        "chainId": "0x14a34"
      },
      "additionalContracts": [],
      "isFixedGasLimit": false
    }
  ],
  "receipts": [
    {
      "status": "0x1",
      "cumulativeGasUsed": "0x20799",
      "logs": [
        {
          "address": "0x3d2bd0e15829aa5c362a4144fdf4a1112fa29b5c",
          "topics": [
            "0x238399d427b947898edb290f5ff0f9109849b1c3ba196a42e35f00c50a54b98b"
          ],
          "data": "0x0000000000000000000000000000000000000000000000000000000000009d4b0000000000000000000000009918889e93e8c4357a2d4bce0965dcc493fffda8",
          "blockHash": "0xf46babea610189e9cd19df2f1bbe1b996b4b4008a98f3828f83c15a4651d6d87",
          "blockNumber": "0xe617d3",
          "transactionHash": "0x1fb352b1703933e7dd19fbd0c2b8203a41f46c98188832ada91b37f883280f33",
          "transactionIndex": "0x2",
          "logIndex": "0x1",
          "removed": false
        }
      ],
      "logsBloom": "0x40000000000000000000000000000000000000000000000000000000000000000000000000001000000000000000000000000000000000000800000000000000000000002000000000000000000000000000000000000000000000000000000000000000000000000000000000000000000000000000000000000000000000000000000000000000000000000000000000000000000000000000000000000000000000000000000000000000000000000000000000000000000002000000000000000000000000000000000000000000000000000000000000040000000000000000000000000000000000000000000000000000000000000000000000000000",
      "type": "0x2",
      "transactionHash": "0x1fb352b1703933e7dd19fbd0c2b8203a41f46c98188832ada91b37f883280f33",
      "transactionIndex": "0x2",
      "blockHash": "0xf46babea610189e9cd19df2f1bbe1b996b4b4008a98f3828f83c15a4651d6d87",
      "blockNumber": "0xe617d3",
      "gasUsed": "0x7787",
      "effectiveGasPrice": "0xf61a6",
      "from": "0x21af1185734d213d45c6236146fb81e2b0e8b821",
      "to": "0x3d2bd0e15829aa5c362a4144fdf4a1112fa29b5c",
      "contractAddress": null,
      "l1BaseFeeScalar": "0x44d",
      "l1BlobBaseFee": "0x194b19aa",
      "l1BlobBaseFeeScalar": "0xa118b",
      "l1Fee": "0x696752f98",
      "l1GasPrice": "0x9eb3248",
      "l1GasUsed": "0x640"
    }
  ],
  "libraries": [],
  "pending": [],
  "returns": {},
  "timestamp": 1725927053,
  "chain": 84532,
  "commit": "ca84423"
}